{"abi":[{"inputs":[{"internalType":"uint256","name":"buyin","type":"uint256"}],"stateMutability":"nonpayable","type":"constructor"},{"inputs":[{"internalType":"uint256","name":"","type":"uint256"}],"name":"allUsers","outputs":[{"internalType":"contract User","name":"","type":"address"}],"stateMutability":"view","type":"function"},{"inputs":[],"name":"createMember","outputs":[],"stateMutability":"payable","type":"function"},{"inputs":[{"internalType":"string","name":"name","type":"string"},{"internalType":"string","name":"description","type":"string"},{"internalType":"string","name":"phone","type":"string"},{"internalType":"string","name":"email","type":"string"}],"name":"createUser","outputs":[],"stateMutability":"nonpayable","type":"function"},{"inputs":[],"name":"getAllUsers","outputs":[{"internalType":"contract User[]","name":"","type":"address[]"}],"stateMutability":"view","type":"function"},{"inputs":[],"name":"getMemberCount","outputs":[{"internalType":"uint256","name":"","type":"uint256"}],"stateMutability":"view","type":"function"},{"inputs":[],"name":"getPoolAmount","outputs":[{"internalType":"uint256","name":"","type":"uint256"}],"stateMutability":"view","type":"function"},{"inputs":[{"internalType":"address","name":"member","type":"address"}],"name":"isAMember","outputs":[{"internalType":"bool","name":"","type":"bool"}],"stateMutability":"view","type":"function"},{"inputs":[{"internalType":"address","name":"user","type":"address"}],"name":"isAUser","outputs":[{"internalType":"bool","name":"","type":"bool"}],"stateMutability":"view","type":"function"},{"inputs":[],"name":"memberBuyin","outputs":[{"internalType":"uint256","name":"","type":"uint256"}],"stateMutability":"view","type":"function"},{"inputs":[{"internalType":"address","name":"","type":"address"}],"name":"members","outputs":[{"internalType":"bool","name":"","type":"bool"}],"stateMutability":"view","type":"function"},{"inputs":[{"internalType":"address payable","name":"recipient","type":"address"},{"internalType":"uint256","name":"value","type":"uint256"}],"name":"transact","outputs":[],"stateMutability":"nonpayable","type":"function"},{"inputs":[{"internalType":"address","name":"","type":"address"}],"name":"users","outputs":[{"internalType":"bool","name":"","type":"bool"}],"stateMutability":"view","type":"function"}],"devdoc":{"kind":"dev","methods":{},"version":1},"evm":{"assembly":"    /* \"CharityDAO.sol\":65:1664  contract DAO {... */\n  mstore(0x40, 0x80)\n    /* \"CharityDAO.sol\":116:120  this */\n  address\n    /* \"CharityDAO.sol\":87:121  address DAOAddress = address(this) */\n  0x00\n  dup1\n  0x0100\n  exp\n  dup2\n  sload\n  dup2\n  0xffffffffffffffffffffffffffffffffffffffff\n  mul\n  not\n  and\n  swap1\n  dup4\n  0xffffffffffffffffffffffffffffffffffffffff\n  and\n  mul\n  or\n  swap1\n  sstore\n  pop\n    /* \"CharityDAO.sol\":306:368  constructor(uint buyin) {... */\n  callvalue\n  dup1\n  iszero\n  tag_1\n  jumpi\n  0x00\n  dup1\n  revert\ntag_1:\n  pop\n  mload(0x40)\n  sub(codesize, bytecodeSize)\n  dup1\n  bytecodeSize\n  dup4\n  codecopy\n  dup2\n  dup2\n  add\n  0x40\n  mstore\n  dup2\n  add\n  swap1\n  tag_2\n  swap2\n  swap1\n  tag_3\n  jump\t// in\ntag_2:\n    /* \"CharityDAO.sol\":355:360  buyin */\n  dup1\n    /* \"CharityDAO.sol\":341:352  memberBuyin */\n  0x01\n    /* \"CharityDAO.sol\":341:360  memberBuyin = buyin */\n  dup2\n  swap1\n  sstore\n  pop\n    /* \"CharityDAO.sol\":306:368  constructor(uint buyin) {... */\n  pop\n    /* \"CharityDAO.sol\":65:1664  contract DAO {... */\n  jump(tag_6)\n    /* \"#utility.yul\":88:205   */\ntag_8:\n    /* \"#utility.yul\":197:198   */\n  0x00\n    /* \"#utility.yul\":194:195   */\n  dup1\n    /* \"#utility.yul\":187:199   */\n  revert\n    /* \"#utility.yul\":334:411   */\ntag_10:\n    /* \"#utility.yul\":371:378   */\n  0x00\n    /* \"#utility.yul\":400:405   */\n  dup2\n    /* \"#utility.yul\":389:405   */\n  swap1\n  pop\n    /* \"#utility.yul\":334:411   */\n  swap2\n  swap1\n  pop\n  jump\t// out\n    /* \"#utility.yul\":417:539   */\ntag_11:\n    /* \"#utility.yul\":490:514   */\n  tag_19\n    /* \"#utility.yul\":508:513   */\n  dup2\n    /* \"#utility.yul\":490:514   */\n  tag_10\n  jump\t// in\ntag_19:\n    /* \"#utility.yul\":483:488   */\n  dup2\n    /* \"#utility.yul\":480:515   */\n  eq\n    /* \"#utility.yul\":470:533   */\n  tag_20\n  jumpi\n    /* \"#utility.yul\":529:530   */\n  0x00\n    /* \"#utility.yul\":526:527   */\n  dup1\n    /* \"#utility.yul\":519:531   */\n  revert\n    /* \"#utility.yul\":470:533   */\ntag_20:\n    /* \"#utility.yul\":417:539   */\n  pop\n  jump\t// out\n    /* \"#utility.yul\":545:688   */\ntag_12:\n    /* \"#utility.yul\":602:607   */\n  0x00\n    /* \"#utility.yul\":633:639   */\n  dup2\n    /* \"#utility.yul\":627:640   */\n  mload\n    /* \"#utility.yul\":618:640   */\n  swap1\n  pop\n    /* \"#utility.yul\":649:682   */\n  tag_22\n    /* \"#utility.yul\":676:681   */\n  dup2\n    /* \"#utility.yul\":649:682   */\n  tag_11\n  jump\t// in\ntag_22:\n    /* \"#utility.yul\":545:688   */\n  swap3\n  swap2\n  pop\n  pop\n  jump\t// out\n    /* \"#utility.yul\":694:1045   */\ntag_3:\n    /* \"#utility.yul\":764:770   */\n  0x00\n    /* \"#utility.yul\":813:815   */\n  0x20\n    /* \"#utility.yul\":801:810   */\n  dup3\n    /* \"#utility.yul\":792:799   */\n  dup5\n    /* \"#utility.yul\":788:811   */\n  sub\n    /* \"#utility.yul\":784:816   */\n  slt\n    /* \"#utility.yul\":781:900   */\n  iszero\n  tag_24\n  jumpi\n    /* \"#utility.yul\":819:898   */\n  tag_25\n  tag_8\n  jump\t// in\ntag_25:\n    /* \"#utility.yul\":781:900   */\ntag_24:\n    /* \"#utility.yul\":939:940   */\n  0x00\n    /* \"#utility.yul\":964:1028   */\n  tag_26\n    /* \"#utility.yul\":1020:1027   */\n  dup5\n    /* \"#utility.yul\":1011:1017   */\n  dup3\n    /* \"#utility.yul\":1000:1009   */\n  dup6\n    /* \"#utility.yul\":996:1018   */\n  add\n    /* \"#utility.yul\":964:1028   */\n  tag_12\n  jump\t// in\ntag_26:\n    /* \"#utility.yul\":954:1028   */\n  swap2\n  pop\n    /* \"#utility.yul\":910:1038   */\n  pop\n    /* \"#utility.yul\":694:1045   */\n  swap3\n  swap2\n  pop\n  pop\n  jump\t// out\n    /* \"CharityDAO.sol\":65:1664  contract DAO {... */\ntag_6:\n  dataSize(sub_0)\n  dup1\n  dataOffset(sub_0)\n  0x00\n  codecopy\n  0x00\n  return\nstop\n\nsub_0: assembly {\n        /* \"CharityDAO.sol\":65:1664  contract DAO {... */\n      mstore(0x40, 0x80)\n      jumpi(tag_1, lt(calldatasize, 0x04))\n      shr(0xe0, calldataload(0x00))\n      dup1\n      0xa2bdedf4\n      gt\n      tag_14\n      jumpi\n      dup1\n      0xa2bdedf4\n      eq\n      tag_8\n      jumpi\n      dup1\n      0xa87430ba\n      eq\n      tag_9\n      jumpi\n      dup1\n      0xb4c1a368\n      eq\n      tag_10\n      jumpi\n      dup1\n      0xd815e58d\n      eq\n      tag_11\n      jumpi\n      dup1\n      0xe2842d79\n      eq\n      tag_12\n      jumpi\n      dup1\n      0xf77ac668\n      eq\n      tag_13\n      jumpi\n      jump(tag_1)\n    tag_14:\n      dup1\n      0x018f5472\n      eq\n      tag_2\n      jumpi\n      dup1\n      0x08ae4b0c\n      eq\n      tag_3\n      jumpi\n      dup1\n      0x4ab4ba42\n      eq\n      tag_4\n      jumpi\n      dup1\n      0x5d672a62\n      eq\n      tag_5\n      jumpi\n      dup1\n      0x6f7fcddb\n      eq\n      tag_6\n      jumpi\n      dup1\n      0x997072f7\n      eq\n      tag_7\n      jumpi\n    tag_1:\n      0x00\n      dup1\n      revert\n        /* \"CharityDAO.sol\":1442:1562  function isAUser(address user) public view returns(bool) {... */\n    tag_2:\n      callvalue\n      dup1\n      iszero\n      tag_15\n      jumpi\n      0x00\n      dup1\n      revert\n    tag_15:\n      pop\n      tag_16\n      0x04\n      dup1\n      calldatasize\n      sub\n      dup2\n      add\n      swap1\n      tag_17\n      swap2\n      swap1\n      tag_18\n      jump\t// in\n    tag_17:\n      tag_19\n      jump\t// in\n    tag_16:\n      mload(0x40)\n      tag_20\n      swap2\n      swap1\n      tag_21\n      jump\t// in\n    tag_20:\n      mload(0x40)\n      dup1\n      swap2\n      sub\n      swap1\n      return\n        /* \"CharityDAO.sol\":183:222  mapping(address => bool) public members */\n    tag_3:\n      callvalue\n      dup1\n      iszero\n      tag_22\n      jumpi\n      0x00\n      dup1\n      revert\n    tag_22:\n      pop\n      tag_23\n      0x04\n      dup1\n      calldatasize\n      sub\n      dup2\n      add\n      swap1\n      tag_24\n      swap2\n      swap1\n      tag_18\n      jump\t// in\n    tag_24:\n      tag_25\n      jump\t// in\n    tag_23:\n      mload(0x40)\n      tag_26\n      swap2\n      swap1\n      tag_21\n      jump\t// in\n    tag_26:\n      mload(0x40)\n      dup1\n      swap2\n      sub\n      swap1\n      return\n        /* \"CharityDAO.sol\":1082:1180  function getPoolAmount() public view returns(uint) {... */\n    tag_4:\n      callvalue\n      dup1\n      iszero\n      tag_27\n      jumpi\n      0x00\n      dup1\n      revert\n    tag_27:\n      pop\n      tag_28\n      tag_29\n      jump\t// in\n    tag_28:\n      mload(0x40)\n      tag_30\n      swap2\n      swap1\n      tag_31\n      jump\t// in\n    tag_30:\n      mload(0x40)\n      dup1\n      swap2\n      sub\n      swap1\n      return\n        /* \"CharityDAO.sol\":1306:1433  function isAMember(address member) public view returns(bool) {... */\n    tag_5:\n      callvalue\n      dup1\n      iszero\n      tag_32\n      jumpi\n      0x00\n      dup1\n      revert\n    tag_32:\n      pop\n      tag_33\n      0x04\n      dup1\n      calldatasize\n      sub\n      dup2\n      add\n      swap1\n      tag_34\n      swap2\n      swap1\n      tag_18\n      jump\t// in\n    tag_34:\n      tag_35\n      jump\t// in\n    tag_33:\n      mload(0x40)\n      tag_36\n      swap2\n      swap1\n      tag_21\n      jump\t// in\n    tag_36:\n      mload(0x40)\n      dup1\n      swap2\n      sub\n      swap1\n      return\n        /* \"CharityDAO.sol\":614:975  function createUser(string memory name, string memory description, string memory phone, string memory email) public {... */\n    tag_6:\n      callvalue\n      dup1\n      iszero\n      tag_37\n      jumpi\n      0x00\n      dup1\n      revert\n    tag_37:\n      pop\n      tag_38\n      0x04\n      dup1\n      calldatasize\n      sub\n      dup2\n      add\n      swap1\n      tag_39\n      swap2\n      swap1\n      tag_40\n      jump\t// in\n    tag_39:\n      tag_41\n      jump\t// in\n    tag_38:\n      stop\n        /* \"CharityDAO.sol\":1570:1659  function getMemberCount() public view returns(uint) {... */\n    tag_7:\n      callvalue\n      dup1\n      iszero\n      tag_42\n      jumpi\n      0x00\n      dup1\n      revert\n    tag_42:\n      pop\n      tag_43\n      tag_44\n      jump\t// in\n    tag_43:\n      mload(0x40)\n      tag_45\n      swap2\n      swap1\n      tag_31\n      jump\t// in\n    tag_45:\n      mload(0x40)\n      dup1\n      swap2\n      sub\n      swap1\n      return\n        /* \"CharityDAO.sol\":231:253  User[] public allUsers */\n    tag_8:\n      callvalue\n      dup1\n      iszero\n      tag_46\n      jumpi\n      0x00\n      dup1\n      revert\n    tag_46:\n      pop\n      tag_47\n      0x04\n      dup1\n      calldatasize\n      sub\n      dup2\n      add\n      swap1\n      tag_48\n      swap2\n      swap1\n      tag_49\n      jump\t// in\n    tag_48:\n      tag_50\n      jump\t// in\n    tag_47:\n      mload(0x40)\n      tag_51\n      swap2\n      swap1\n      tag_52\n      jump\t// in\n    tag_51:\n      mload(0x40)\n      dup1\n      swap2\n      sub\n      swap1\n      return\n        /* \"CharityDAO.sol\":260:297  mapping(address => bool) public users */\n    tag_9:\n      callvalue\n      dup1\n      iszero\n      tag_53\n      jumpi\n      0x00\n      dup1\n      revert\n    tag_53:\n      pop\n      tag_54\n      0x04\n      dup1\n      calldatasize\n      sub\n      dup2\n      add\n      swap1\n      tag_55\n      swap2\n      swap1\n      tag_18\n      jump\t// in\n    tag_55:\n      tag_56\n      jump\t// in\n    tag_54:\n      mload(0x40)\n      tag_57\n      swap2\n      swap1\n      tag_21\n      jump\t// in\n    tag_57:\n      mload(0x40)\n      dup1\n      swap2\n      sub\n      swap1\n      return\n        /* \"CharityDAO.sol\":130:153  uint public memberBuyin */\n    tag_10:\n      callvalue\n      dup1\n      iszero\n      tag_58\n      jumpi\n      0x00\n      dup1\n      revert\n    tag_58:\n      pop\n      tag_59\n      tag_60\n      jump\t// in\n    tag_59:\n      mload(0x40)\n      tag_61\n      swap2\n      swap1\n      tag_31\n      jump\t// in\n    tag_61:\n      mload(0x40)\n      dup1\n      swap2\n      sub\n      swap1\n      return\n        /* \"CharityDAO.sol\":376:606  function createMember() public payable {... */\n    tag_11:\n      tag_62\n      tag_63\n      jump\t// in\n    tag_62:\n      stop\n        /* \"CharityDAO.sol\":983:1074  function getAllUsers() public view returns(User[] memory){... */\n    tag_12:\n      callvalue\n      dup1\n      iszero\n      tag_64\n      jumpi\n      0x00\n      dup1\n      revert\n    tag_64:\n      pop\n      tag_65\n      tag_66\n      jump\t// in\n    tag_65:\n      mload(0x40)\n      tag_67\n      swap2\n      swap1\n      tag_68\n      jump\t// in\n    tag_67:\n      mload(0x40)\n      dup1\n      swap2\n      sub\n      swap1\n      return\n        /* \"CharityDAO.sol\":1188:1296  function transact(address payable recipient, uint value) public {... */\n    tag_13:\n      callvalue\n      dup1\n      iszero\n      tag_69\n      jumpi\n      0x00\n      dup1\n      revert\n    tag_69:\n      pop\n      tag_70\n      0x04\n      dup1\n      calldatasize\n      sub\n      dup2\n      add\n      swap1\n      tag_71\n      swap2\n      swap1\n      tag_72\n      jump\t// in\n    tag_71:\n      tag_73\n      jump\t// in\n    tag_70:\n      stop\n        /* \"CharityDAO.sol\":1442:1562  function isAUser(address user) public view returns(bool) {... */\n    tag_19:\n        /* \"CharityDAO.sol\":1493:1497  bool */\n      0x00\n        /* \"CharityDAO.sol\":1510:1518  bool ans */\n      dup1\n        /* \"CharityDAO.sol\":1521:1526  users */\n      0x05\n        /* \"CharityDAO.sol\":1521:1532  users[user] */\n      0x00\n        /* \"CharityDAO.sol\":1527:1531  user */\n      dup5\n        /* \"CharityDAO.sol\":1521:1532  users[user] */\n      0xffffffffffffffffffffffffffffffffffffffff\n      and\n      0xffffffffffffffffffffffffffffffffffffffff\n      and\n      dup2\n      mstore\n      0x20\n      add\n      swap1\n      dup2\n      mstore\n      0x20\n      add\n      0x00\n      keccak256\n      0x00\n      swap1\n      sload\n      swap1\n      0x0100\n      exp\n      swap1\n      div\n      0xff\n      and\n        /* \"CharityDAO.sol\":1510:1532  bool ans = users[user] */\n      swap1\n      pop\n        /* \"CharityDAO.sol\":1550:1553  ans */\n      dup1\n        /* \"CharityDAO.sol\":1543:1553  return ans */\n      swap2\n      pop\n      pop\n        /* \"CharityDAO.sol\":1442:1562  function isAUser(address user) public view returns(bool) {... */\n      swap2\n      swap1\n      pop\n      jump\t// out\n        /* \"CharityDAO.sol\":183:222  mapping(address => bool) public members */\n    tag_25:\n      mstore(0x20, 0x03)\n      dup1\n      0x00\n      mstore\n      keccak256(0x00, 0x40)\n      0x00\n      swap2\n      pop\n      sload\n      swap1\n      0x0100\n      exp\n      swap1\n      div\n      0xff\n      and\n      dup2\n      jump\t// out\n        /* \"CharityDAO.sol\":1082:1180  function getPoolAmount() public view returns(uint) {... */\n    tag_29:\n        /* \"CharityDAO.sol\":1127:1131  uint */\n      0x00\n        /* \"CharityDAO.sol\":1151:1172  address(this).balance */\n      selfbalance\n        /* \"CharityDAO.sol\":1144:1172  return address(this).balance */\n      swap1\n      pop\n        /* \"CharityDAO.sol\":1082:1180  function getPoolAmount() public view returns(uint) {... */\n      swap1\n      jump\t// out\n        /* \"CharityDAO.sol\":1306:1433  function isAMember(address member) public view returns(bool) {... */\n    tag_35:\n        /* \"CharityDAO.sol\":1361:1365  bool */\n      0x00\n        /* \"CharityDAO.sol\":1378:1386  bool ans */\n      dup1\n        /* \"CharityDAO.sol\":1389:1396  members */\n      0x03\n        /* \"CharityDAO.sol\":1389:1404  members[member] */\n      0x00\n        /* \"CharityDAO.sol\":1397:1403  member */\n      dup5\n        /* \"CharityDAO.sol\":1389:1404  members[member] */\n      0xffffffffffffffffffffffffffffffffffffffff\n      and\n      0xffffffffffffffffffffffffffffffffffffffff\n      and\n      dup2\n      mstore\n      0x20\n      add\n      swap1\n      dup2\n      mstore\n      0x20\n      add\n      0x00\n      keccak256\n      0x00\n      swap1\n      sload\n      swap1\n      0x0100\n      exp\n      swap1\n      div\n      0xff\n      and\n        /* \"CharityDAO.sol\":1378:1404  bool ans = members[member] */\n      swap1\n      pop\n        /* \"CharityDAO.sol\":1422:1425  ans */\n      dup1\n        /* \"CharityDAO.sol\":1415:1425  return ans */\n      swap2\n      pop\n      pop\n        /* \"CharityDAO.sol\":1306:1433  function isAMember(address member) public view returns(bool) {... */\n      swap2\n      swap1\n      pop\n      jump\t// out\n        /* \"CharityDAO.sol\":614:975  function createUser(string memory name, string memory description, string memory phone, string memory email) public {... */\n    tag_41:\n        /* \"CharityDAO.sol\":750:757  members */\n      0x03\n        /* \"CharityDAO.sol\":750:769  members[msg.sender] */\n      0x00\n        /* \"CharityDAO.sol\":758:768  msg.sender */\n      caller\n        /* \"CharityDAO.sol\":750:769  members[msg.sender] */\n      0xffffffffffffffffffffffffffffffffffffffff\n      and\n      0xffffffffffffffffffffffffffffffffffffffff\n      and\n      dup2\n      mstore\n      0x20\n      add\n      swap1\n      dup2\n      mstore\n      0x20\n      add\n      0x00\n      keccak256\n      0x00\n      swap1\n      sload\n      swap1\n      0x0100\n      exp\n      swap1\n      div\n      0xff\n      and\n        /* \"CharityDAO.sol\":749:769  !members[msg.sender] */\n      iszero\n        /* \"CharityDAO.sol\":741:770  require(!members[msg.sender]) */\n      tag_78\n      jumpi\n      0x00\n      dup1\n      revert\n    tag_78:\n        /* \"CharityDAO.sol\":790:795  users */\n      0x05\n        /* \"CharityDAO.sol\":790:807  users[msg.sender] */\n      0x00\n        /* \"CharityDAO.sol\":796:806  msg.sender */\n      caller\n        /* \"CharityDAO.sol\":790:807  users[msg.sender] */\n      0xffffffffffffffffffffffffffffffffffffffff\n      and\n      0xffffffffffffffffffffffffffffffffffffffff\n      and\n      dup2\n      mstore\n      0x20\n      add\n      swap1\n      dup2\n      mstore\n      0x20\n      add\n      0x00\n      keccak256\n      0x00\n      swap1\n      sload\n      swap1\n      0x0100\n      exp\n      swap1\n      div\n      0xff\n      and\n        /* \"CharityDAO.sol\":789:807  !users[msg.sender] */\n      iszero\n        /* \"CharityDAO.sol\":781:808  require(!users[msg.sender]) */\n      tag_79\n      jumpi\n      0x00\n      dup1\n      revert\n    tag_79:\n        /* \"CharityDAO.sol\":819:831  User newUser */\n      0x00\n        /* \"CharityDAO.sol\":843:847  name */\n      dup5\n        /* \"CharityDAO.sol\":849:860  description */\n      dup5\n        /* \"CharityDAO.sol\":862:867  phone */\n      dup5\n        /* \"CharityDAO.sol\":869:874  email */\n      dup5\n        /* \"CharityDAO.sol\":876:886  msg.sender */\n      caller\n        /* \"CharityDAO.sol\":888:898  DAOAddress */\n      0x00\n      dup1\n      sload\n      swap1\n      0x0100\n      exp\n      swap1\n      div\n      0xffffffffffffffffffffffffffffffffffffffff\n      and\n        /* \"CharityDAO.sol\":834:899  new User(name, description, phone, email, msg.sender, DAOAddress) */\n      mload(0x40)\n      tag_80\n      swap1\n      tag_81\n      jump\t// in\n    tag_80:\n      tag_82\n      swap7\n      swap6\n      swap5\n      swap4\n      swap3\n      swap2\n      swap1\n      tag_83\n      jump\t// in\n    tag_82:\n      mload(0x40)\n      dup1\n      swap2\n      sub\n      swap1\n      0x00\n      create\n      dup1\n      iszero\n      dup1\n      iszero\n      tag_84\n      jumpi\n      returndatasize\n      0x00\n      dup1\n      returndatacopy\n      revert(0x00, returndatasize)\n    tag_84:\n      pop\n        /* \"CharityDAO.sol\":819:899  User newUser = new User(name, description, phone, email, msg.sender, DAOAddress) */\n      swap1\n      pop\n        /* \"CharityDAO.sol\":930:934  true */\n      0x01\n        /* \"CharityDAO.sol\":910:915  users */\n      0x05\n        /* \"CharityDAO.sol\":910:927  users[msg.sender] */\n      0x00\n        /* \"CharityDAO.sol\":916:926  msg.sender */\n      caller\n        /* \"CharityDAO.sol\":910:927  users[msg.sender] */\n      0xffffffffffffffffffffffffffffffffffffffff\n      and\n      0xffffffffffffffffffffffffffffffffffffffff\n      and\n      dup2\n      mstore\n      0x20\n      add\n      swap1\n      dup2\n      mstore\n      0x20\n      add\n      0x00\n      keccak256\n      0x00\n        /* \"CharityDAO.sol\":910:934  users[msg.sender] = true */\n      0x0100\n      exp\n      dup2\n      sload\n      dup2\n      0xff\n      mul\n      not\n      and\n      swap1\n      dup4\n      iszero\n      iszero\n      mul\n      or\n      swap1\n      sstore\n      pop\n        /* \"CharityDAO.sol\":945:953  allUsers */\n      0x04\n        /* \"CharityDAO.sol\":959:966  newUser */\n      dup2\n        /* \"CharityDAO.sol\":945:967  allUsers.push(newUser) */\n      swap1\n      dup1\n      0x01\n      dup2\n      sload\n      add\n      dup1\n      dup3\n      sstore\n      dup1\n      swap2\n      pop\n      pop\n      0x01\n      swap1\n      sub\n      swap1\n      0x00\n      mstore\n      keccak256(0x00, 0x20)\n      add\n      0x00\n      swap1\n      swap2\n      swap1\n      swap2\n      swap1\n      swap2\n      0x0100\n      exp\n      dup2\n      sload\n      dup2\n      0xffffffffffffffffffffffffffffffffffffffff\n      mul\n      not\n      and\n      swap1\n      dup4\n      0xffffffffffffffffffffffffffffffffffffffff\n      and\n      mul\n      or\n      swap1\n      sstore\n      pop\n        /* \"CharityDAO.sol\":730:975  {... */\n      pop\n        /* \"CharityDAO.sol\":614:975  function createUser(string memory name, string memory description, string memory phone, string memory email) public {... */\n      pop\n      pop\n      pop\n      pop\n      jump\t// out\n        /* \"CharityDAO.sol\":1570:1659  function getMemberCount() public view returns(uint) {... */\n    tag_44:\n        /* \"CharityDAO.sol\":1616:1620  uint */\n      0x00\n        /* \"CharityDAO.sol\":1640:1651  memberCount */\n      sload(0x02)\n        /* \"CharityDAO.sol\":1633:1651  return memberCount */\n      swap1\n      pop\n        /* \"CharityDAO.sol\":1570:1659  function getMemberCount() public view returns(uint) {... */\n      swap1\n      jump\t// out\n        /* \"CharityDAO.sol\":231:253  User[] public allUsers */\n    tag_50:\n      0x04\n      dup2\n      dup2\n      sload\n      dup2\n      lt\n      tag_87\n      jumpi\n      0x00\n      dup1\n      revert\n    tag_87:\n      swap1\n      0x00\n      mstore\n      keccak256(0x00, 0x20)\n      add\n      0x00\n      swap2\n      pop\n      sload\n      swap1\n      0x0100\n      exp\n      swap1\n      div\n      0xffffffffffffffffffffffffffffffffffffffff\n      and\n      dup2\n      jump\t// out\n        /* \"CharityDAO.sol\":260:297  mapping(address => bool) public users */\n    tag_56:\n      mstore(0x20, 0x05)\n      dup1\n      0x00\n      mstore\n      keccak256(0x00, 0x40)\n      0x00\n      swap2\n      pop\n      sload\n      swap1\n      0x0100\n      exp\n      swap1\n      div\n      0xff\n      and\n      dup2\n      jump\t// out\n        /* \"CharityDAO.sol\":130:153  uint public memberBuyin */\n    tag_60:\n      sload(0x01)\n      dup2\n      jump\t// out\n        /* \"CharityDAO.sol\":376:606  function createMember() public payable {... */\n    tag_63:\n        /* \"CharityDAO.sol\":435:440  users */\n      0x05\n        /* \"CharityDAO.sol\":435:452  users[msg.sender] */\n      0x00\n        /* \"CharityDAO.sol\":441:451  msg.sender */\n      caller\n        /* \"CharityDAO.sol\":435:452  users[msg.sender] */\n      0xffffffffffffffffffffffffffffffffffffffff\n      and\n      0xffffffffffffffffffffffffffffffffffffffff\n      and\n      dup2\n      mstore\n      0x20\n      add\n      swap1\n      dup2\n      mstore\n      0x20\n      add\n      0x00\n      keccak256\n      0x00\n      swap1\n      sload\n      swap1\n      0x0100\n      exp\n      swap1\n      div\n      0xff\n      and\n        /* \"CharityDAO.sol\":434:452  !users[msg.sender] */\n      iszero\n        /* \"CharityDAO.sol\":426:453  require(!users[msg.sender]) */\n      tag_90\n      jumpi\n      0x00\n      dup1\n      revert\n    tag_90:\n        /* \"CharityDAO.sol\":473:480  members */\n      0x03\n        /* \"CharityDAO.sol\":473:492  members[msg.sender] */\n      0x00\n        /* \"CharityDAO.sol\":481:491  msg.sender */\n      caller\n        /* \"CharityDAO.sol\":473:492  members[msg.sender] */\n      0xffffffffffffffffffffffffffffffffffffffff\n      and\n      0xffffffffffffffffffffffffffffffffffffffff\n      and\n      dup2\n      mstore\n      0x20\n      add\n      swap1\n      dup2\n      mstore\n      0x20\n      add\n      0x00\n      keccak256\n      0x00\n      swap1\n      sload\n      swap1\n      0x0100\n      exp\n      swap1\n      div\n      0xff\n      and\n        /* \"CharityDAO.sol\":472:492  !members[msg.sender] */\n      iszero\n        /* \"CharityDAO.sol\":464:493  require(!members[msg.sender]) */\n      tag_91\n      jumpi\n      0x00\n      dup1\n      revert\n    tag_91:\n        /* \"CharityDAO.sol\":525:536  memberBuyin */\n      sload(0x01)\n        /* \"CharityDAO.sol\":512:521  msg.value */\n      callvalue\n        /* \"CharityDAO.sol\":512:536  msg.value == memberBuyin */\n      eq\n        /* \"CharityDAO.sol\":504:537  require(msg.value == memberBuyin) */\n      tag_92\n      jumpi\n      0x00\n      dup1\n      revert\n    tag_92:\n        /* \"CharityDAO.sol\":548:559  memberCount */\n      0x02\n      0x00\n        /* \"CharityDAO.sol\":548:561  memberCount++ */\n      dup2\n      sload\n      dup1\n      swap3\n      swap2\n      swap1\n      tag_93\n      swap1\n      tag_94\n      jump\t// in\n    tag_93:\n      swap2\n      swap1\n      pop\n      sstore\n      pop\n        /* \"CharityDAO.sol\":594:598  true */\n      0x01\n        /* \"CharityDAO.sol\":572:579  members */\n      0x03\n        /* \"CharityDAO.sol\":572:591  members[msg.sender] */\n      0x00\n        /* \"CharityDAO.sol\":580:590  msg.sender */\n      caller\n        /* \"CharityDAO.sol\":572:591  members[msg.sender] */\n      0xffffffffffffffffffffffffffffffffffffffff\n      and\n      0xffffffffffffffffffffffffffffffffffffffff\n      and\n      dup2\n      mstore\n      0x20\n      add\n      swap1\n      dup2\n      mstore\n      0x20\n      add\n      0x00\n      keccak256\n      0x00\n        /* \"CharityDAO.sol\":572:598  members[msg.sender] = true */\n      0x0100\n      exp\n      dup2\n      sload\n      dup2\n      0xff\n      mul\n      not\n      and\n      swap1\n      dup4\n      iszero\n      iszero\n      mul\n      or\n      swap1\n      sstore\n      pop\n        /* \"CharityDAO.sol\":376:606  function createMember() public payable {... */\n      jump\t// out\n        /* \"CharityDAO.sol\":983:1074  function getAllUsers() public view returns(User[] memory){... */\n    tag_66:\n        /* \"CharityDAO.sol\":1026:1039  User[] memory */\n      0x60\n        /* \"CharityDAO.sol\":1058:1066  allUsers */\n      0x04\n        /* \"CharityDAO.sol\":1051:1066  return allUsers */\n      dup1\n      sload\n      dup1\n      0x20\n      mul\n      0x20\n      add\n      mload(0x40)\n      swap1\n      dup2\n      add\n      0x40\n      mstore\n      dup1\n      swap3\n      swap2\n      swap1\n      dup2\n      dup2\n      mstore\n      0x20\n      add\n      dup3\n      dup1\n      sload\n      dup1\n      iszero\n      tag_96\n      jumpi\n      0x20\n      mul\n      dup3\n      add\n      swap2\n      swap1\n      0x00\n      mstore\n      keccak256(0x00, 0x20)\n      swap1\n    tag_97:\n      dup2\n      0x00\n      swap1\n      sload\n      swap1\n      0x0100\n      exp\n      swap1\n      div\n      0xffffffffffffffffffffffffffffffffffffffff\n      and\n      0xffffffffffffffffffffffffffffffffffffffff\n      and\n      dup2\n      mstore\n      0x20\n      add\n      swap1\n      0x01\n      add\n      swap1\n      dup1\n      dup4\n      gt\n      tag_97\n      jumpi\n    tag_96:\n      pop\n      pop\n      pop\n      pop\n      pop\n      swap1\n      pop\n        /* \"CharityDAO.sol\":983:1074  function getAllUsers() public view returns(User[] memory){... */\n      swap1\n      jump\t// out\n        /* \"CharityDAO.sol\":1188:1296  function transact(address payable recipient, uint value) public {... */\n    tag_73:\n        /* \"CharityDAO.sol\":1263:1272  recipient */\n      dup2\n        /* \"CharityDAO.sol\":1263:1281  recipient.transfer */\n      0xffffffffffffffffffffffffffffffffffffffff\n      and\n        /* \"CharityDAO.sol\":1263:1288  recipient.transfer(value) */\n      0x08fc\n        /* \"CharityDAO.sol\":1282:1287  value */\n      dup3\n        /* \"CharityDAO.sol\":1263:1288  recipient.transfer(value) */\n      swap1\n      dup2\n      iszero\n      mul\n      swap1\n      mload(0x40)\n      0x00\n      mload(0x40)\n      dup1\n      dup4\n      sub\n      dup2\n      dup6\n      dup9\n      dup9\n      call\n      swap4\n      pop\n      pop\n      pop\n      pop\n      iszero\n      dup1\n      iszero\n      tag_100\n      jumpi\n      returndatasize\n      0x00\n      dup1\n      returndatacopy\n      revert(0x00, returndatasize)\n    tag_100:\n      pop\n        /* \"CharityDAO.sol\":1188:1296  function transact(address payable recipient, uint value) public {... */\n      pop\n      pop\n      jump\t// out\n    tag_81:\n      dataSize(sub_0)\n      dup1\n      dataOffset(sub_0)\n      dup4\n      codecopy\n      add\n      swap1\n      jump\t// out\n        /* \"#utility.yul\":7:82   */\n    tag_101:\n        /* \"#utility.yul\":40:46   */\n      0x00\n        /* \"#utility.yul\":73:75   */\n      0x40\n        /* \"#utility.yul\":67:76   */\n      mload\n        /* \"#utility.yul\":57:76   */\n      swap1\n      pop\n        /* \"#utility.yul\":7:82   */\n      swap1\n      jump\t// out\n        /* \"#utility.yul\":88:205   */\n    tag_102:\n        /* \"#utility.yul\":197:198   */\n      0x00\n        /* \"#utility.yul\":194:195   */\n      dup1\n        /* \"#utility.yul\":187:199   */\n      revert\n        /* \"#utility.yul\":211:328   */\n    tag_103:\n        /* \"#utility.yul\":320:321   */\n      0x00\n        /* \"#utility.yul\":317:318   */\n      dup1\n        /* \"#utility.yul\":310:322   */\n      revert\n        /* \"#utility.yul\":334:460   */\n    tag_104:\n        /* \"#utility.yul\":371:378   */\n      0x00\n        /* \"#utility.yul\":411:453   */\n      0xffffffffffffffffffffffffffffffffffffffff\n        /* \"#utility.yul\":404:409   */\n      dup3\n        /* \"#utility.yul\":400:454   */\n      and\n        /* \"#utility.yul\":389:454   */\n      swap1\n      pop\n        /* \"#utility.yul\":334:460   */\n      swap2\n      swap1\n      pop\n      jump\t// out\n        /* \"#utility.yul\":466:562   */\n    tag_105:\n        /* \"#utility.yul\":503:510   */\n      0x00\n        /* \"#utility.yul\":532:556   */\n      tag_151\n        /* \"#utility.yul\":550:555   */\n      dup3\n        /* \"#utility.yul\":532:556   */\n      tag_104\n      jump\t// in\n    tag_151:\n        /* \"#utility.yul\":521:556   */\n      swap1\n      pop\n        /* \"#utility.yul\":466:562   */\n      swap2\n      swap1\n      pop\n      jump\t// out\n        /* \"#utility.yul\":568:690   */\n    tag_106:\n        /* \"#utility.yul\":641:665   */\n      tag_153\n        /* \"#utility.yul\":659:664   */\n      dup2\n        /* \"#utility.yul\":641:665   */\n      tag_105\n      jump\t// in\n    tag_153:\n        /* \"#utility.yul\":634:639   */\n      dup2\n        /* \"#utility.yul\":631:666   */\n      eq\n        /* \"#utility.yul\":621:684   */\n      tag_154\n      jumpi\n        /* \"#utility.yul\":680:681   */\n      0x00\n        /* \"#utility.yul\":677:678   */\n      dup1\n        /* \"#utility.yul\":670:682   */\n      revert\n        /* \"#utility.yul\":621:684   */\n    tag_154:\n        /* \"#utility.yul\":568:690   */\n      pop\n      jump\t// out\n        /* \"#utility.yul\":696:835   */\n    tag_107:\n        /* \"#utility.yul\":742:747   */\n      0x00\n        /* \"#utility.yul\":780:786   */\n      dup2\n        /* \"#utility.yul\":767:787   */\n      calldataload\n        /* \"#utility.yul\":758:787   */\n      swap1\n      pop\n        /* \"#utility.yul\":796:829   */\n      tag_156\n        /* \"#utility.yul\":823:828   */\n      dup2\n        /* \"#utility.yul\":796:829   */\n      tag_106\n      jump\t// in\n    tag_156:\n        /* \"#utility.yul\":696:835   */\n      swap3\n      swap2\n      pop\n      pop\n      jump\t// out\n        /* \"#utility.yul\":841:1170   */\n    tag_18:\n        /* \"#utility.yul\":900:906   */\n      0x00\n        /* \"#utility.yul\":949:951   */\n      0x20\n        /* \"#utility.yul\":937:946   */\n      dup3\n        /* \"#utility.yul\":928:935   */\n      dup5\n        /* \"#utility.yul\":924:947   */\n      sub\n        /* \"#utility.yul\":920:952   */\n      slt\n        /* \"#utility.yul\":917:1036   */\n      iszero\n      tag_158\n      jumpi\n        /* \"#utility.yul\":955:1034   */\n      tag_159\n      tag_102\n      jump\t// in\n    tag_159:\n        /* \"#utility.yul\":917:1036   */\n    tag_158:\n        /* \"#utility.yul\":1075:1076   */\n      0x00\n        /* \"#utility.yul\":1100:1153   */\n      tag_160\n        /* \"#utility.yul\":1145:1152   */\n      dup5\n        /* \"#utility.yul\":1136:1142   */\n      dup3\n        /* \"#utility.yul\":1125:1134   */\n      dup6\n        /* \"#utility.yul\":1121:1143   */\n      add\n        /* \"#utility.yul\":1100:1153   */\n      tag_107\n      jump\t// in\n    tag_160:\n        /* \"#utility.yul\":1090:1153   */\n      swap2\n      pop\n        /* \"#utility.yul\":1046:1163   */\n      pop\n        /* \"#utility.yul\":841:1170   */\n      swap3\n      swap2\n      pop\n      pop\n      jump\t// out\n        /* \"#utility.yul\":1176:1266   */\n    tag_108:\n        /* \"#utility.yul\":1210:1217   */\n      0x00\n        /* \"#utility.yul\":1253:1258   */\n      dup2\n        /* \"#utility.yul\":1246:1259   */\n      iszero\n        /* \"#utility.yul\":1239:1260   */\n      iszero\n        /* \"#utility.yul\":1228:1260   */\n      swap1\n      pop\n        /* \"#utility.yul\":1176:1266   */\n      swap2\n      swap1\n      pop\n      jump\t// out\n        /* \"#utility.yul\":1272:1381   */\n    tag_109:\n        /* \"#utility.yul\":1353:1374   */\n      tag_163\n        /* \"#utility.yul\":1368:1373   */\n      dup2\n        /* \"#utility.yul\":1353:1374   */\n      tag_108\n      jump\t// in\n    tag_163:\n        /* \"#utility.yul\":1348:1351   */\n      dup3\n        /* \"#utility.yul\":1341:1375   */\n      mstore\n        /* \"#utility.yul\":1272:1381   */\n      pop\n      pop\n      jump\t// out\n        /* \"#utility.yul\":1387:1597   */\n    tag_21:\n        /* \"#utility.yul\":1474:1478   */\n      0x00\n        /* \"#utility.yul\":1512:1514   */\n      0x20\n        /* \"#utility.yul\":1501:1510   */\n      dup3\n        /* \"#utility.yul\":1497:1515   */\n      add\n        /* \"#utility.yul\":1489:1515   */\n      swap1\n      pop\n        /* \"#utility.yul\":1525:1590   */\n      tag_165\n        /* \"#utility.yul\":1587:1588   */\n      0x00\n        /* \"#utility.yul\":1576:1585   */\n      dup4\n        /* \"#utility.yul\":1572:1589   */\n      add\n        /* \"#utility.yul\":1563:1569   */\n      dup5\n        /* \"#utility.yul\":1525:1590   */\n      tag_109\n      jump\t// in\n    tag_165:\n        /* \"#utility.yul\":1387:1597   */\n      swap3\n      swap2\n      pop\n      pop\n      jump\t// out\n        /* \"#utility.yul\":1603:1680   */\n    tag_110:\n        /* \"#utility.yul\":1640:1647   */\n      0x00\n        /* \"#utility.yul\":1669:1674   */\n      dup2\n        /* \"#utility.yul\":1658:1674   */\n      swap1\n      pop\n        /* \"#utility.yul\":1603:1680   */\n      swap2\n      swap1\n      pop\n      jump\t// out\n        /* \"#utility.yul\":1686:1804   */\n    tag_111:\n        /* \"#utility.yul\":1773:1797   */\n      tag_168\n        /* \"#utility.yul\":1791:1796   */\n      dup2\n        /* \"#utility.yul\":1773:1797   */\n      tag_110\n      jump\t// in\n    tag_168:\n        /* \"#utility.yul\":1768:1771   */\n      dup3\n        /* \"#utility.yul\":1761:1798   */\n      mstore\n        /* \"#utility.yul\":1686:1804   */\n      pop\n      pop\n      jump\t// out\n        /* \"#utility.yul\":1810:2032   */\n    tag_31:\n        /* \"#utility.yul\":1903:1907   */\n      0x00\n        /* \"#utility.yul\":1941:1943   */\n      0x20\n        /* \"#utility.yul\":1930:1939   */\n      dup3\n        /* \"#utility.yul\":1926:1944   */\n      add\n        /* \"#utility.yul\":1918:1944   */\n      swap1\n      pop\n        /* \"#utility.yul\":1954:2025   */\n      tag_170\n        /* \"#utility.yul\":2022:2023   */\n      0x00\n        /* \"#utility.yul\":2011:2020   */\n      dup4\n        /* \"#utility.yul\":2007:2024   */\n      add\n        /* \"#utility.yul\":1998:2004   */\n      dup5\n        /* \"#utility.yul\":1954:2025   */\n      tag_111\n      jump\t// in\n    tag_170:\n        /* \"#utility.yul\":1810:2032   */\n      swap3\n      swap2\n      pop\n      pop\n      jump\t// out\n        /* \"#utility.yul\":2038:2155   */\n    tag_112:\n        /* \"#utility.yul\":2147:2148   */\n      0x00\n        /* \"#utility.yul\":2144:2145   */\n      dup1\n        /* \"#utility.yul\":2137:2149   */\n      revert\n        /* \"#utility.yul\":2161:2278   */\n    tag_113:\n        /* \"#utility.yul\":2270:2271   */\n      0x00\n        /* \"#utility.yul\":2267:2268   */\n      dup1\n        /* \"#utility.yul\":2260:2272   */\n      revert\n        /* \"#utility.yul\":2284:2386   */\n    tag_114:\n        /* \"#utility.yul\":2325:2331   */\n      0x00\n        /* \"#utility.yul\":2376:2378   */\n      0x1f\n        /* \"#utility.yul\":2372:2379   */\n      not\n        /* \"#utility.yul\":2367:2369   */\n      0x1f\n        /* \"#utility.yul\":2360:2365   */\n      dup4\n        /* \"#utility.yul\":2356:2370   */\n      add\n        /* \"#utility.yul\":2352:2380   */\n      and\n        /* \"#utility.yul\":2342:2380   */\n      swap1\n      pop\n        /* \"#utility.yul\":2284:2386   */\n      swap2\n      swap1\n      pop\n      jump\t// out\n        /* \"#utility.yul\":2392:2572   */\n    tag_115:\n        /* \"#utility.yul\":2440:2517   */\n      0x4e487b7100000000000000000000000000000000000000000000000000000000\n        /* \"#utility.yul\":2437:2438   */\n      0x00\n        /* \"#utility.yul\":2430:2518   */\n      mstore\n        /* \"#utility.yul\":2537:2541   */\n      0x41\n        /* \"#utility.yul\":2534:2535   */\n      0x04\n        /* \"#utility.yul\":2527:2542   */\n      mstore\n        /* \"#utility.yul\":2561:2565   */\n      0x24\n        /* \"#utility.yul\":2558:2559   */\n      0x00\n        /* \"#utility.yul\":2551:2566   */\n      revert\n        /* \"#utility.yul\":2578:2859   */\n    tag_116:\n        /* \"#utility.yul\":2661:2688   */\n      tag_176\n        /* \"#utility.yul\":2683:2687   */\n      dup3\n        /* \"#utility.yul\":2661:2688   */\n      tag_114\n      jump\t// in\n    tag_176:\n        /* \"#utility.yul\":2653:2659   */\n      dup2\n        /* \"#utility.yul\":2649:2689   */\n      add\n        /* \"#utility.yul\":2791:2797   */\n      dup2\n        /* \"#utility.yul\":2779:2789   */\n      dup2\n        /* \"#utility.yul\":2776:2798   */\n      lt\n        /* \"#utility.yul\":2755:2773   */\n      0xffffffffffffffff\n        /* \"#utility.yul\":2743:2753   */\n      dup3\n        /* \"#utility.yul\":2740:2774   */\n      gt\n        /* \"#utility.yul\":2737:2799   */\n      or\n        /* \"#utility.yul\":2734:2822   */\n      iszero\n      tag_177\n      jumpi\n        /* \"#utility.yul\":2802:2820   */\n      tag_178\n      tag_115\n      jump\t// in\n    tag_178:\n        /* \"#utility.yul\":2734:2822   */\n    tag_177:\n        /* \"#utility.yul\":2842:2852   */\n      dup1\n        /* \"#utility.yul\":2838:2840   */\n      0x40\n        /* \"#utility.yul\":2831:2853   */\n      mstore\n        /* \"#utility.yul\":2621:2859   */\n      pop\n        /* \"#utility.yul\":2578:2859   */\n      pop\n      pop\n      jump\t// out\n        /* \"#utility.yul\":2865:2994   */\n    tag_117:\n        /* \"#utility.yul\":2899:2905   */\n      0x00\n        /* \"#utility.yul\":2926:2946   */\n      tag_180\n      tag_101\n      jump\t// in\n    tag_180:\n        /* \"#utility.yul\":2916:2946   */\n      swap1\n      pop\n        /* \"#utility.yul\":2955:2988   */\n      tag_181\n        /* \"#utility.yul\":2983:2987   */\n      dup3\n        /* \"#utility.yul\":2975:2981   */\n      dup3\n        /* \"#utility.yul\":2955:2988   */\n      tag_116\n      jump\t// in\n    tag_181:\n        /* \"#utility.yul\":2865:2994   */\n      swap2\n      swap1\n      pop\n      jump\t// out\n        /* \"#utility.yul\":3000:3308   */\n    tag_118:\n        /* \"#utility.yul\":3062:3066   */\n      0x00\n        /* \"#utility.yul\":3152:3170   */\n      0xffffffffffffffff\n        /* \"#utility.yul\":3144:3150   */\n      dup3\n        /* \"#utility.yul\":3141:3171   */\n      gt\n        /* \"#utility.yul\":3138:3194   */\n      iszero\n      tag_183\n      jumpi\n        /* \"#utility.yul\":3174:3192   */\n      tag_184\n      tag_115\n      jump\t// in\n    tag_184:\n        /* \"#utility.yul\":3138:3194   */\n    tag_183:\n        /* \"#utility.yul\":3212:3241   */\n      tag_185\n        /* \"#utility.yul\":3234:3240   */\n      dup3\n        /* \"#utility.yul\":3212:3241   */\n      tag_114\n      jump\t// in\n    tag_185:\n        /* \"#utility.yul\":3204:3241   */\n      swap1\n      pop\n        /* \"#utility.yul\":3296:3300   */\n      0x20\n        /* \"#utility.yul\":3290:3294   */\n      dup2\n        /* \"#utility.yul\":3286:3301   */\n      add\n        /* \"#utility.yul\":3278:3301   */\n      swap1\n      pop\n        /* \"#utility.yul\":3000:3308   */\n      swap2\n      swap1\n      pop\n      jump\t// out\n        /* \"#utility.yul\":3314:3468   */\n    tag_119:\n        /* \"#utility.yul\":3398:3404   */\n      dup3\n        /* \"#utility.yul\":3393:3396   */\n      dup2\n        /* \"#utility.yul\":3388:3391   */\n      dup4\n        /* \"#utility.yul\":3375:3405   */\n      calldatacopy\n        /* \"#utility.yul\":3460:3461   */\n      0x00\n        /* \"#utility.yul\":3451:3457   */\n      dup4\n        /* \"#utility.yul\":3446:3449   */\n      dup4\n        /* \"#utility.yul\":3442:3458   */\n      add\n        /* \"#utility.yul\":3435:3462   */\n      mstore\n        /* \"#utility.yul\":3314:3468   */\n      pop\n      pop\n      pop\n      jump\t// out\n        /* \"#utility.yul\":3474:3886   */\n    tag_120:\n        /* \"#utility.yul\":3552:3557   */\n      0x00\n        /* \"#utility.yul\":3577:3643   */\n      tag_188\n        /* \"#utility.yul\":3593:3642   */\n      tag_189\n        /* \"#utility.yul\":3635:3641   */\n      dup5\n        /* \"#utility.yul\":3593:3642   */\n      tag_118\n      jump\t// in\n    tag_189:\n        /* \"#utility.yul\":3577:3643   */\n      tag_117\n      jump\t// in\n    tag_188:\n        /* \"#utility.yul\":3568:3643   */\n      swap1\n      pop\n        /* \"#utility.yul\":3666:3672   */\n      dup3\n        /* \"#utility.yul\":3659:3664   */\n      dup2\n        /* \"#utility.yul\":3652:3673   */\n      mstore\n        /* \"#utility.yul\":3704:3708   */\n      0x20\n        /* \"#utility.yul\":3697:3702   */\n      dup2\n        /* \"#utility.yul\":3693:3709   */\n      add\n        /* \"#utility.yul\":3742:3745   */\n      dup5\n        /* \"#utility.yul\":3733:3739   */\n      dup5\n        /* \"#utility.yul\":3728:3731   */\n      dup5\n        /* \"#utility.yul\":3724:3740   */\n      add\n        /* \"#utility.yul\":3721:3746   */\n      gt\n        /* \"#utility.yul\":3718:3830   */\n      iszero\n      tag_190\n      jumpi\n        /* \"#utility.yul\":3749:3828   */\n      tag_191\n      tag_113\n      jump\t// in\n    tag_191:\n        /* \"#utility.yul\":3718:3830   */\n    tag_190:\n        /* \"#utility.yul\":3839:3880   */\n      tag_192\n        /* \"#utility.yul\":3873:3879   */\n      dup5\n        /* \"#utility.yul\":3868:3871   */\n      dup3\n        /* \"#utility.yul\":3863:3866   */\n      dup6\n        /* \"#utility.yul\":3839:3880   */\n      tag_119\n      jump\t// in\n    tag_192:\n        /* \"#utility.yul\":3558:3886   */\n      pop\n        /* \"#utility.yul\":3474:3886   */\n      swap4\n      swap3\n      pop\n      pop\n      pop\n      jump\t// out\n        /* \"#utility.yul\":3906:4246   */\n    tag_121:\n        /* \"#utility.yul\":3962:3967   */\n      0x00\n        /* \"#utility.yul\":4011:4014   */\n      dup3\n        /* \"#utility.yul\":4004:4008   */\n      0x1f\n        /* \"#utility.yul\":3996:4002   */\n      dup4\n        /* \"#utility.yul\":3992:4009   */\n      add\n        /* \"#utility.yul\":3988:4015   */\n      slt\n        /* \"#utility.yul\":3978:4100   */\n      tag_194\n      jumpi\n        /* \"#utility.yul\":4019:4098   */\n      tag_195\n      tag_112\n      jump\t// in\n    tag_195:\n        /* \"#utility.yul\":3978:4100   */\n    tag_194:\n        /* \"#utility.yul\":4136:4142   */\n      dup2\n        /* \"#utility.yul\":4123:4143   */\n      calldataload\n        /* \"#utility.yul\":4161:4240   */\n      tag_196\n        /* \"#utility.yul\":4236:4239   */\n      dup5\n        /* \"#utility.yul\":4228:4234   */\n      dup3\n        /* \"#utility.yul\":4221:4225   */\n      0x20\n        /* \"#utility.yul\":4213:4219   */\n      dup7\n        /* \"#utility.yul\":4209:4226   */\n      add\n        /* \"#utility.yul\":4161:4240   */\n      tag_120\n      jump\t// in\n    tag_196:\n        /* \"#utility.yul\":4152:4240   */\n      swap2\n      pop\n        /* \"#utility.yul\":3968:4246   */\n      pop\n        /* \"#utility.yul\":3906:4246   */\n      swap3\n      swap2\n      pop\n      pop\n      jump\t// out\n        /* \"#utility.yul\":4252:5737   */\n    tag_40:\n        /* \"#utility.yul\":4378:4384   */\n      0x00\n        /* \"#utility.yul\":4386:4392   */\n      dup1\n        /* \"#utility.yul\":4394:4400   */\n      0x00\n        /* \"#utility.yul\":4402:4408   */\n      dup1\n        /* \"#utility.yul\":4451:4454   */\n      0x80\n        /* \"#utility.yul\":4439:4448   */\n      dup6\n        /* \"#utility.yul\":4430:4437   */\n      dup8\n        /* \"#utility.yul\":4426:4449   */\n      sub\n        /* \"#utility.yul\":4422:4455   */\n      slt\n        /* \"#utility.yul\":4419:4539   */\n      iszero\n      tag_198\n      jumpi\n        /* \"#utility.yul\":4458:4537   */\n      tag_199\n      tag_102\n      jump\t// in\n    tag_199:\n        /* \"#utility.yul\":4419:4539   */\n    tag_198:\n        /* \"#utility.yul\":4606:4607   */\n      0x00\n        /* \"#utility.yul\":4595:4604   */\n      dup6\n        /* \"#utility.yul\":4591:4608   */\n      add\n        /* \"#utility.yul\":4578:4609   */\n      calldataload\n        /* \"#utility.yul\":4636:4654   */\n      0xffffffffffffffff\n        /* \"#utility.yul\":4628:4634   */\n      dup2\n        /* \"#utility.yul\":4625:4655   */\n      gt\n        /* \"#utility.yul\":4622:4739   */\n      iszero\n      tag_200\n      jumpi\n        /* \"#utility.yul\":4658:4737   */\n      tag_201\n      tag_103\n      jump\t// in\n    tag_201:\n        /* \"#utility.yul\":4622:4739   */\n    tag_200:\n        /* \"#utility.yul\":4763:4826   */\n      tag_202\n        /* \"#utility.yul\":4818:4825   */\n      dup8\n        /* \"#utility.yul\":4809:4815   */\n      dup3\n        /* \"#utility.yul\":4798:4807   */\n      dup9\n        /* \"#utility.yul\":4794:4816   */\n      add\n        /* \"#utility.yul\":4763:4826   */\n      tag_121\n      jump\t// in\n    tag_202:\n        /* \"#utility.yul\":4753:4826   */\n      swap5\n      pop\n        /* \"#utility.yul\":4549:4836   */\n      pop\n        /* \"#utility.yul\":4903:4905   */\n      0x20\n        /* \"#utility.yul\":4892:4901   */\n      dup6\n        /* \"#utility.yul\":4888:4906   */\n      add\n        /* \"#utility.yul\":4875:4907   */\n      calldataload\n        /* \"#utility.yul\":4934:4952   */\n      0xffffffffffffffff\n        /* \"#utility.yul\":4926:4932   */\n      dup2\n        /* \"#utility.yul\":4923:4953   */\n      gt\n        /* \"#utility.yul\":4920:5037   */\n      iszero\n      tag_203\n      jumpi\n        /* \"#utility.yul\":4956:5035   */\n      tag_204\n      tag_103\n      jump\t// in\n    tag_204:\n        /* \"#utility.yul\":4920:5037   */\n    tag_203:\n        /* \"#utility.yul\":5061:5124   */\n      tag_205\n        /* \"#utility.yul\":5116:5123   */\n      dup8\n        /* \"#utility.yul\":5107:5113   */\n      dup3\n        /* \"#utility.yul\":5096:5105   */\n      dup9\n        /* \"#utility.yul\":5092:5114   */\n      add\n        /* \"#utility.yul\":5061:5124   */\n      tag_121\n      jump\t// in\n    tag_205:\n        /* \"#utility.yul\":5051:5124   */\n      swap4\n      pop\n        /* \"#utility.yul\":4846:5134   */\n      pop\n        /* \"#utility.yul\":5201:5203   */\n      0x40\n        /* \"#utility.yul\":5190:5199   */\n      dup6\n        /* \"#utility.yul\":5186:5204   */\n      add\n        /* \"#utility.yul\":5173:5205   */\n      calldataload\n        /* \"#utility.yul\":5232:5250   */\n      0xffffffffffffffff\n        /* \"#utility.yul\":5224:5230   */\n      dup2\n        /* \"#utility.yul\":5221:5251   */\n      gt\n        /* \"#utility.yul\":5218:5335   */\n      iszero\n      tag_206\n      jumpi\n        /* \"#utility.yul\":5254:5333   */\n      tag_207\n      tag_103\n      jump\t// in\n    tag_207:\n        /* \"#utility.yul\":5218:5335   */\n    tag_206:\n        /* \"#utility.yul\":5359:5422   */\n      tag_208\n        /* \"#utility.yul\":5414:5421   */\n      dup8\n        /* \"#utility.yul\":5405:5411   */\n      dup3\n        /* \"#utility.yul\":5394:5403   */\n      dup9\n        /* \"#utility.yul\":5390:5412   */\n      add\n        /* \"#utility.yul\":5359:5422   */\n      tag_121\n      jump\t// in\n    tag_208:\n        /* \"#utility.yul\":5349:5422   */\n      swap3\n      pop\n        /* \"#utility.yul\":5144:5432   */\n      pop\n        /* \"#utility.yul\":5499:5501   */\n      0x60\n        /* \"#utility.yul\":5488:5497   */\n      dup6\n        /* \"#utility.yul\":5484:5502   */\n      add\n        /* \"#utility.yul\":5471:5503   */\n      calldataload\n        /* \"#utility.yul\":5530:5548   */\n      0xffffffffffffffff\n        /* \"#utility.yul\":5522:5528   */\n      dup2\n        /* \"#utility.yul\":5519:5549   */\n      gt\n        /* \"#utility.yul\":5516:5633   */\n      iszero\n      tag_209\n      jumpi\n        /* \"#utility.yul\":5552:5631   */\n      tag_210\n      tag_103\n      jump\t// in\n    tag_210:\n        /* \"#utility.yul\":5516:5633   */\n    tag_209:\n        /* \"#utility.yul\":5657:5720   */\n      tag_211\n        /* \"#utility.yul\":5712:5719   */\n      dup8\n        /* \"#utility.yul\":5703:5709   */\n      dup3\n        /* \"#utility.yul\":5692:5701   */\n      dup9\n        /* \"#utility.yul\":5688:5710   */\n      add\n        /* \"#utility.yul\":5657:5720   */\n      tag_121\n      jump\t// in\n    tag_211:\n        /* \"#utility.yul\":5647:5720   */\n      swap2\n      pop\n        /* \"#utility.yul\":5442:5730   */\n      pop\n        /* \"#utility.yul\":4252:5737   */\n      swap3\n      swap6\n      swap2\n      swap5\n      pop\n      swap3\n      pop\n      jump\t// out\n        /* \"#utility.yul\":5743:5865   */\n    tag_122:\n        /* \"#utility.yul\":5816:5840   */\n      tag_213\n        /* \"#utility.yul\":5834:5839   */\n      dup2\n        /* \"#utility.yul\":5816:5840   */\n      tag_110\n      jump\t// in\n    tag_213:\n        /* \"#utility.yul\":5809:5814   */\n      dup2\n        /* \"#utility.yul\":5806:5841   */\n      eq\n        /* \"#utility.yul\":5796:5859   */\n      tag_214\n      jumpi\n        /* \"#utility.yul\":5855:5856   */\n      0x00\n        /* \"#utility.yul\":5852:5853   */\n      dup1\n        /* \"#utility.yul\":5845:5857   */\n      revert\n        /* \"#utility.yul\":5796:5859   */\n    tag_214:\n        /* \"#utility.yul\":5743:5865   */\n      pop\n      jump\t// out\n        /* \"#utility.yul\":5871:6010   */\n    tag_123:\n        /* \"#utility.yul\":5917:5922   */\n      0x00\n        /* \"#utility.yul\":5955:5961   */\n      dup2\n        /* \"#utility.yul\":5942:5962   */\n      calldataload\n        /* \"#utility.yul\":5933:5962   */\n      swap1\n      pop\n        /* \"#utility.yul\":5971:6004   */\n      tag_216\n        /* \"#utility.yul\":5998:6003   */\n      dup2\n        /* \"#utility.yul\":5971:6004   */\n      tag_122\n      jump\t// in\n    tag_216:\n        /* \"#utility.yul\":5871:6010   */\n      swap3\n      swap2\n      pop\n      pop\n      jump\t// out\n        /* \"#utility.yul\":6016:6345   */\n    tag_49:\n        /* \"#utility.yul\":6075:6081   */\n      0x00\n        /* \"#utility.yul\":6124:6126   */\n      0x20\n        /* \"#utility.yul\":6112:6121   */\n      dup3\n        /* \"#utility.yul\":6103:6110   */\n      dup5\n        /* \"#utility.yul\":6099:6122   */\n      sub\n        /* \"#utility.yul\":6095:6127   */\n      slt\n        /* \"#utility.yul\":6092:6211   */\n      iszero\n      tag_218\n      jumpi\n        /* \"#utility.yul\":6130:6209   */\n      tag_219\n      tag_102\n      jump\t// in\n    tag_219:\n        /* \"#utility.yul\":6092:6211   */\n    tag_218:\n        /* \"#utility.yul\":6250:6251   */\n      0x00\n        /* \"#utility.yul\":6275:6328   */\n      tag_220\n        /* \"#utility.yul\":6320:6327   */\n      dup5\n        /* \"#utility.yul\":6311:6317   */\n      dup3\n        /* \"#utility.yul\":6300:6309   */\n      dup6\n        /* \"#utility.yul\":6296:6318   */\n      add\n        /* \"#utility.yul\":6275:6328   */\n      tag_123\n      jump\t// in\n    tag_220:\n        /* \"#utility.yul\":6265:6328   */\n      swap2\n      pop\n        /* \"#utility.yul\":6221:6338   */\n      pop\n        /* \"#utility.yul\":6016:6345   */\n      swap3\n      swap2\n      pop\n      pop\n      jump\t// out\n        /* \"#utility.yul\":6351:6411   */\n    tag_124:\n        /* \"#utility.yul\":6379:6382   */\n      0x00\n        /* \"#utility.yul\":6400:6405   */\n      dup2\n        /* \"#utility.yul\":6393:6405   */\n      swap1\n      pop\n        /* \"#utility.yul\":6351:6411   */\n      swap2\n      swap1\n      pop\n      jump\t// out\n        /* \"#utility.yul\":6417:6559   */\n    tag_125:\n        /* \"#utility.yul\":6467:6476   */\n      0x00\n        /* \"#utility.yul\":6500:6553   */\n      tag_223\n        /* \"#utility.yul\":6518:6552   */\n      tag_224\n        /* \"#utility.yul\":6527:6551   */\n      tag_225\n        /* \"#utility.yul\":6545:6550   */\n      dup5\n        /* \"#utility.yul\":6527:6551   */\n      tag_104\n      jump\t// in\n    tag_225:\n        /* \"#utility.yul\":6518:6552   */\n      tag_124\n      jump\t// in\n    tag_224:\n        /* \"#utility.yul\":6500:6553   */\n      tag_104\n      jump\t// in\n    tag_223:\n        /* \"#utility.yul\":6487:6553   */\n      swap1\n      pop\n        /* \"#utility.yul\":6417:6559   */\n      swap2\n      swap1\n      pop\n      jump\t// out\n        /* \"#utility.yul\":6565:6691   */\n    tag_126:\n        /* \"#utility.yul\":6615:6624   */\n      0x00\n        /* \"#utility.yul\":6648:6685   */\n      tag_227\n        /* \"#utility.yul\":6679:6684   */\n      dup3\n        /* \"#utility.yul\":6648:6685   */\n      tag_125\n      jump\t// in\n    tag_227:\n        /* \"#utility.yul\":6635:6685   */\n      swap1\n      pop\n        /* \"#utility.yul\":6565:6691   */\n      swap2\n      swap1\n      pop\n      jump\t// out\n        /* \"#utility.yul\":6697:6835   */\n    tag_127:\n        /* \"#utility.yul\":6759:6768   */\n      0x00\n        /* \"#utility.yul\":6792:6829   */\n      tag_229\n        /* \"#utility.yul\":6823:6828   */\n      dup3\n        /* \"#utility.yul\":6792:6829   */\n      tag_126\n      jump\t// in\n    tag_229:\n        /* \"#utility.yul\":6779:6829   */\n      swap1\n      pop\n        /* \"#utility.yul\":6697:6835   */\n      swap2\n      swap1\n      pop\n      jump\t// out\n        /* \"#utility.yul\":6841:6996   */\n    tag_128:\n        /* \"#utility.yul\":6940:6989   */\n      tag_231\n        /* \"#utility.yul\":6983:6988   */\n      dup2\n        /* \"#utility.yul\":6940:6989   */\n      tag_127\n      jump\t// in\n    tag_231:\n        /* \"#utility.yul\":6935:6938   */\n      dup3\n        /* \"#utility.yul\":6928:6990   */\n      mstore\n        /* \"#utility.yul\":6841:6996   */\n      pop\n      pop\n      jump\t// out\n        /* \"#utility.yul\":7002:7248   */\n    tag_52:\n        /* \"#utility.yul\":7107:7111   */\n      0x00\n        /* \"#utility.yul\":7145:7147   */\n      0x20\n        /* \"#utility.yul\":7134:7143   */\n      dup3\n        /* \"#utility.yul\":7130:7148   */\n      add\n        /* \"#utility.yul\":7122:7148   */\n      swap1\n      pop\n        /* \"#utility.yul\":7158:7241   */\n      tag_233\n        /* \"#utility.yul\":7238:7239   */\n      0x00\n        /* \"#utility.yul\":7227:7236   */\n      dup4\n        /* \"#utility.yul\":7223:7240   */\n      add\n        /* \"#utility.yul\":7214:7220   */\n      dup5\n        /* \"#utility.yul\":7158:7241   */\n      tag_128\n      jump\t// in\n    tag_233:\n        /* \"#utility.yul\":7002:7248   */\n      swap3\n      swap2\n      pop\n      pop\n      jump\t// out\n        /* \"#utility.yul\":7254:7380   */\n    tag_129:\n        /* \"#utility.yul\":7333:7339   */\n      0x00\n        /* \"#utility.yul\":7367:7372   */\n      dup2\n        /* \"#utility.yul\":7361:7373   */\n      mload\n        /* \"#utility.yul\":7351:7373   */\n      swap1\n      pop\n        /* \"#utility.yul\":7254:7380   */\n      swap2\n      swap1\n      pop\n      jump\t// out\n        /* \"#utility.yul\":7386:7570   */\n    tag_130:\n        /* \"#utility.yul\":7485:7496   */\n      0x00\n        /* \"#utility.yul\":7519:7525   */\n      dup3\n        /* \"#utility.yul\":7514:7517   */\n      dup3\n        /* \"#utility.yul\":7507:7526   */\n      mstore\n        /* \"#utility.yul\":7559:7563   */\n      0x20\n        /* \"#utility.yul\":7554:7557   */\n      dup3\n        /* \"#utility.yul\":7550:7564   */\n      add\n        /* \"#utility.yul\":7535:7564   */\n      swap1\n      pop\n        /* \"#utility.yul\":7386:7570   */\n      swap3\n      swap2\n      pop\n      pop\n      jump\t// out\n        /* \"#utility.yul\":7576:7720   */\n    tag_131:\n        /* \"#utility.yul\":7655:7659   */\n      0x00\n        /* \"#utility.yul\":7678:7681   */\n      dup2\n        /* \"#utility.yul\":7670:7681   */\n      swap1\n      pop\n        /* \"#utility.yul\":7708:7712   */\n      0x20\n        /* \"#utility.yul\":7703:7706   */\n      dup3\n        /* \"#utility.yul\":7699:7713   */\n      add\n        /* \"#utility.yul\":7691:7713   */\n      swap1\n      pop\n        /* \"#utility.yul\":7576:7720   */\n      swap2\n      swap1\n      pop\n      jump\t// out\n        /* \"#utility.yul\":7726:7871   */\n    tag_132:\n        /* \"#utility.yul\":7815:7864   */\n      tag_238\n        /* \"#utility.yul\":7858:7863   */\n      dup2\n        /* \"#utility.yul\":7815:7864   */\n      tag_127\n      jump\t// in\n    tag_238:\n        /* \"#utility.yul\":7810:7813   */\n      dup3\n        /* \"#utility.yul\":7803:7865   */\n      mstore\n        /* \"#utility.yul\":7726:7871   */\n      pop\n      pop\n      jump\t// out\n        /* \"#utility.yul\":7877:8080   */\n    tag_133:\n        /* \"#utility.yul\":7958:7968   */\n      0x00\n        /* \"#utility.yul\":7979:8037   */\n      tag_240\n        /* \"#utility.yul\":8033:8036   */\n      dup4\n        /* \"#utility.yul\":8025:8031   */\n      dup4\n        /* \"#utility.yul\":7979:8037   */\n      tag_132\n      jump\t// in\n    tag_240:\n        /* \"#utility.yul\":8069:8073   */\n      0x20\n        /* \"#utility.yul\":8064:8067   */\n      dup4\n        /* \"#utility.yul\":8060:8074   */\n      add\n        /* \"#utility.yul\":8046:8074   */\n      swap1\n      pop\n        /* \"#utility.yul\":7877:8080   */\n      swap3\n      swap2\n      pop\n      pop\n      jump\t// out\n        /* \"#utility.yul\":8086:8211   */\n    tag_134:\n        /* \"#utility.yul\":8168:8172   */\n      0x00\n        /* \"#utility.yul\":8200:8204   */\n      0x20\n        /* \"#utility.yul\":8195:8198   */\n      dup3\n        /* \"#utility.yul\":8191:8205   */\n      add\n        /* \"#utility.yul\":8183:8205   */\n      swap1\n      pop\n        /* \"#utility.yul\":8086:8211   */\n      swap2\n      swap1\n      pop\n      jump\t// out\n        /* \"#utility.yul\":8253:9045   */\n    tag_135:\n        /* \"#utility.yul\":8384:8387   */\n      0x00\n        /* \"#utility.yul\":8413:8479   */\n      tag_243\n        /* \"#utility.yul\":8473:8478   */\n      dup3\n        /* \"#utility.yul\":8413:8479   */\n      tag_129\n      jump\t// in\n    tag_243:\n        /* \"#utility.yul\":8495:8581   */\n      tag_244\n        /* \"#utility.yul\":8574:8580   */\n      dup2\n        /* \"#utility.yul\":8569:8572   */\n      dup6\n        /* \"#utility.yul\":8495:8581   */\n      tag_130\n      jump\t// in\n    tag_244:\n        /* \"#utility.yul\":8488:8581   */\n      swap4\n      pop\n        /* \"#utility.yul\":8605:8673   */\n      tag_245\n        /* \"#utility.yul\":8667:8672   */\n      dup4\n        /* \"#utility.yul\":8605:8673   */\n      tag_131\n      jump\t// in\n    tag_245:\n        /* \"#utility.yul\":8696:8703   */\n      dup1\n        /* \"#utility.yul\":8727:8728   */\n      0x00\n        /* \"#utility.yul\":8712:9020   */\n    tag_246:\n        /* \"#utility.yul\":8737:8743   */\n      dup4\n        /* \"#utility.yul\":8734:8735   */\n      dup2\n        /* \"#utility.yul\":8731:8744   */\n      lt\n        /* \"#utility.yul\":8712:9020   */\n      iszero\n      tag_248\n      jumpi\n        /* \"#utility.yul\":8813:8819   */\n      dup2\n        /* \"#utility.yul\":8807:8820   */\n      mload\n        /* \"#utility.yul\":8840:8915   */\n      tag_249\n        /* \"#utility.yul\":8911:8914   */\n      dup9\n        /* \"#utility.yul\":8896:8909   */\n      dup3\n        /* \"#utility.yul\":8840:8915   */\n      tag_133\n      jump\t// in\n    tag_249:\n        /* \"#utility.yul\":8833:8915   */\n      swap8\n      pop\n        /* \"#utility.yul\":8938:9010   */\n      tag_250\n        /* \"#utility.yul\":9003:9009   */\n      dup4\n        /* \"#utility.yul\":8938:9010   */\n      tag_134\n      jump\t// in\n    tag_250:\n        /* \"#utility.yul\":8928:9010   */\n      swap3\n      pop\n        /* \"#utility.yul\":8772:9020   */\n      pop\n        /* \"#utility.yul\":8759:8760   */\n      0x01\n        /* \"#utility.yul\":8756:8757   */\n      dup2\n        /* \"#utility.yul\":8752:8761   */\n      add\n        /* \"#utility.yul\":8747:8761   */\n      swap1\n      pop\n        /* \"#utility.yul\":8712:9020   */\n      jump(tag_246)\n    tag_248:\n        /* \"#utility.yul\":8716:8730   */\n      pop\n        /* \"#utility.yul\":9036:9039   */\n      dup6\n        /* \"#utility.yul\":9029:9039   */\n      swap4\n      pop\n        /* \"#utility.yul\":8389:9045   */\n      pop\n      pop\n      pop\n        /* \"#utility.yul\":8253:9045   */\n      swap3\n      swap2\n      pop\n      pop\n      jump\t// out\n        /* \"#utility.yul\":9051:9448   */\n    tag_68:\n        /* \"#utility.yul\":9206:9210   */\n      0x00\n        /* \"#utility.yul\":9244:9246   */\n      0x20\n        /* \"#utility.yul\":9233:9242   */\n      dup3\n        /* \"#utility.yul\":9229:9247   */\n      add\n        /* \"#utility.yul\":9221:9247   */\n      swap1\n      pop\n        /* \"#utility.yul\":9293:9302   */\n      dup2\n        /* \"#utility.yul\":9287:9291   */\n      dup2\n        /* \"#utility.yul\":9283:9303   */\n      sub\n        /* \"#utility.yul\":9279:9280   */\n      0x00\n        /* \"#utility.yul\":9268:9277   */\n      dup4\n        /* \"#utility.yul\":9264:9281   */\n      add\n        /* \"#utility.yul\":9257:9304   */\n      mstore\n        /* \"#utility.yul\":9321:9441   */\n      tag_252\n        /* \"#utility.yul\":9436:9440   */\n      dup2\n        /* \"#utility.yul\":9427:9433   */\n      dup5\n        /* \"#utility.yul\":9321:9441   */\n      tag_135\n      jump\t// in\n    tag_252:\n        /* \"#utility.yul\":9313:9441   */\n      swap1\n      pop\n        /* \"#utility.yul\":9051:9448   */\n      swap3\n      swap2\n      pop\n      pop\n      jump\t// out\n        /* \"#utility.yul\":9454:9558   */\n    tag_136:\n        /* \"#utility.yul\":9499:9506   */\n      0x00\n        /* \"#utility.yul\":9528:9552   */\n      tag_254\n        /* \"#utility.yul\":9546:9551   */\n      dup3\n        /* \"#utility.yul\":9528:9552   */\n      tag_104\n      jump\t// in\n    tag_254:\n        /* \"#utility.yul\":9517:9552   */\n      swap1\n      pop\n        /* \"#utility.yul\":9454:9558   */\n      swap2\n      swap1\n      pop\n      jump\t// out\n        /* \"#utility.yul\":9564:9702   */\n    tag_137:\n        /* \"#utility.yul\":9645:9677   */\n      tag_256\n        /* \"#utility.yul\":9671:9676   */\n      dup2\n        /* \"#utility.yul\":9645:9677   */\n      tag_136\n      jump\t// in\n    tag_256:\n        /* \"#utility.yul\":9638:9643   */\n      dup2\n        /* \"#utility.yul\":9635:9678   */\n      eq\n        /* \"#utility.yul\":9625:9696   */\n      tag_257\n      jumpi\n        /* \"#utility.yul\":9692:9693   */\n      0x00\n        /* \"#utility.yul\":9689:9690   */\n      dup1\n        /* \"#utility.yul\":9682:9694   */\n      revert\n        /* \"#utility.yul\":9625:9696   */\n    tag_257:\n        /* \"#utility.yul\":9564:9702   */\n      pop\n      jump\t// out\n        /* \"#utility.yul\":9708:9863   */\n    tag_138:\n        /* \"#utility.yul\":9762:9767   */\n      0x00\n        /* \"#utility.yul\":9800:9806   */\n      dup2\n        /* \"#utility.yul\":9787:9807   */\n      calldataload\n        /* \"#utility.yul\":9778:9807   */\n      swap1\n      pop\n        /* \"#utility.yul\":9816:9857   */\n      tag_259\n        /* \"#utility.yul\":9851:9856   */\n      dup2\n        /* \"#utility.yul\":9816:9857   */\n      tag_137\n      jump\t// in\n    tag_259:\n        /* \"#utility.yul\":9708:9863   */\n      swap3\n      swap2\n      pop\n      pop\n      jump\t// out\n        /* \"#utility.yul\":9869:10359   */\n    tag_72:\n        /* \"#utility.yul\":9945:9951   */\n      0x00\n        /* \"#utility.yul\":9953:9959   */\n      dup1\n        /* \"#utility.yul\":10002:10004   */\n      0x40\n        /* \"#utility.yul\":9990:9999   */\n      dup4\n        /* \"#utility.yul\":9981:9988   */\n      dup6\n        /* \"#utility.yul\":9977:10000   */\n      sub\n        /* \"#utility.yul\":9973:10005   */\n      slt\n        /* \"#utility.yul\":9970:10089   */\n      iszero\n      tag_261\n      jumpi\n        /* \"#utility.yul\":10008:10087   */\n      tag_262\n      tag_102\n      jump\t// in\n    tag_262:\n        /* \"#utility.yul\":9970:10089   */\n    tag_261:\n        /* \"#utility.yul\":10128:10129   */\n      0x00\n        /* \"#utility.yul\":10153:10214   */\n      tag_263\n        /* \"#utility.yul\":10206:10213   */\n      dup6\n        /* \"#utility.yul\":10197:10203   */\n      dup3\n        /* \"#utility.yul\":10186:10195   */\n      dup7\n        /* \"#utility.yul\":10182:10204   */\n      add\n        /* \"#utility.yul\":10153:10214   */\n      tag_138\n      jump\t// in\n    tag_263:\n        /* \"#utility.yul\":10143:10214   */\n      swap3\n      pop\n        /* \"#utility.yul\":10099:10224   */\n      pop\n        /* \"#utility.yul\":10263:10265   */\n      0x20\n        /* \"#utility.yul\":10289:10342   */\n      tag_264\n        /* \"#utility.yul\":10334:10341   */\n      dup6\n        /* \"#utility.yul\":10325:10331   */\n      dup3\n        /* \"#utility.yul\":10314:10323   */\n      dup7\n        /* \"#utility.yul\":10310:10332   */\n      add\n        /* \"#utility.yul\":10289:10342   */\n      tag_123\n      jump\t// in\n    tag_264:\n        /* \"#utility.yul\":10279:10342   */\n      swap2\n      pop\n        /* \"#utility.yul\":10234:10352   */\n      pop\n        /* \"#utility.yul\":9869:10359   */\n      swap3\n      pop\n      swap3\n      swap1\n      pop\n      jump\t// out\n        /* \"#utility.yul\":10365:10464   */\n    tag_139:\n        /* \"#utility.yul\":10417:10423   */\n      0x00\n        /* \"#utility.yul\":10451:10456   */\n      dup2\n        /* \"#utility.yul\":10445:10457   */\n      mload\n        /* \"#utility.yul\":10435:10457   */\n      swap1\n      pop\n        /* \"#utility.yul\":10365:10464   */\n      swap2\n      swap1\n      pop\n      jump\t// out\n        /* \"#utility.yul\":10470:10639   */\n    tag_140:\n        /* \"#utility.yul\":10554:10565   */\n      0x00\n        /* \"#utility.yul\":10588:10594   */\n      dup3\n        /* \"#utility.yul\":10583:10586   */\n      dup3\n        /* \"#utility.yul\":10576:10595   */\n      mstore\n        /* \"#utility.yul\":10628:10632   */\n      0x20\n        /* \"#utility.yul\":10623:10626   */\n      dup3\n        /* \"#utility.yul\":10619:10633   */\n      add\n        /* \"#utility.yul\":10604:10633   */\n      swap1\n      pop\n        /* \"#utility.yul\":10470:10639   */\n      swap3\n      swap2\n      pop\n      pop\n      jump\t// out\n        /* \"#utility.yul\":10645:10952   */\n    tag_141:\n        /* \"#utility.yul\":10713:10714   */\n      0x00\n        /* \"#utility.yul\":10723:10836   */\n    tag_268:\n        /* \"#utility.yul\":10737:10743   */\n      dup4\n        /* \"#utility.yul\":10734:10735   */\n      dup2\n        /* \"#utility.yul\":10731:10744   */\n      lt\n        /* \"#utility.yul\":10723:10836   */\n      iszero\n      tag_270\n      jumpi\n        /* \"#utility.yul\":10822:10823   */\n      dup1\n        /* \"#utility.yul\":10817:10820   */\n      dup3\n        /* \"#utility.yul\":10813:10824   */\n      add\n        /* \"#utility.yul\":10807:10825   */\n      mload\n        /* \"#utility.yul\":10803:10804   */\n      dup2\n        /* \"#utility.yul\":10798:10801   */\n      dup5\n        /* \"#utility.yul\":10794:10805   */\n      add\n        /* \"#utility.yul\":10787:10826   */\n      mstore\n        /* \"#utility.yul\":10759:10761   */\n      0x20\n        /* \"#utility.yul\":10756:10757   */\n      dup2\n        /* \"#utility.yul\":10752:10762   */\n      add\n        /* \"#utility.yul\":10747:10762   */\n      swap1\n      pop\n        /* \"#utility.yul\":10723:10836   */\n      jump(tag_268)\n    tag_270:\n        /* \"#utility.yul\":10854:10860   */\n      dup4\n        /* \"#utility.yul\":10851:10852   */\n      dup2\n        /* \"#utility.yul\":10848:10861   */\n      gt\n        /* \"#utility.yul\":10845:10946   */\n      iszero\n      tag_271\n      jumpi\n        /* \"#utility.yul\":10934:10935   */\n      0x00\n        /* \"#utility.yul\":10925:10931   */\n      dup5\n        /* \"#utility.yul\":10920:10923   */\n      dup5\n        /* \"#utility.yul\":10916:10932   */\n      add\n        /* \"#utility.yul\":10909:10936   */\n      mstore\n        /* \"#utility.yul\":10845:10946   */\n    tag_271:\n        /* \"#utility.yul\":10694:10952   */\n      pop\n        /* \"#utility.yul\":10645:10952   */\n      pop\n      pop\n      pop\n      jump\t// out\n        /* \"#utility.yul\":10958:11322   */\n    tag_142:\n        /* \"#utility.yul\":11046:11049   */\n      0x00\n        /* \"#utility.yul\":11074:11113   */\n      tag_273\n        /* \"#utility.yul\":11107:11112   */\n      dup3\n        /* \"#utility.yul\":11074:11113   */\n      tag_139\n      jump\t// in\n    tag_273:\n        /* \"#utility.yul\":11129:11200   */\n      tag_274\n        /* \"#utility.yul\":11193:11199   */\n      dup2\n        /* \"#utility.yul\":11188:11191   */\n      dup6\n        /* \"#utility.yul\":11129:11200   */\n      tag_140\n      jump\t// in\n    tag_274:\n        /* \"#utility.yul\":11122:11200   */\n      swap4\n      pop\n        /* \"#utility.yul\":11209:11261   */\n      tag_275\n        /* \"#utility.yul\":11254:11260   */\n      dup2\n        /* \"#utility.yul\":11249:11252   */\n      dup6\n        /* \"#utility.yul\":11242:11246   */\n      0x20\n        /* \"#utility.yul\":11235:11240   */\n      dup7\n        /* \"#utility.yul\":11231:11247   */\n      add\n        /* \"#utility.yul\":11209:11261   */\n      tag_141\n      jump\t// in\n    tag_275:\n        /* \"#utility.yul\":11286:11315   */\n      tag_276\n        /* \"#utility.yul\":11308:11314   */\n      dup2\n        /* \"#utility.yul\":11286:11315   */\n      tag_114\n      jump\t// in\n    tag_276:\n        /* \"#utility.yul\":11281:11284   */\n      dup5\n        /* \"#utility.yul\":11277:11316   */\n      add\n        /* \"#utility.yul\":11270:11316   */\n      swap2\n      pop\n        /* \"#utility.yul\":11050:11322   */\n      pop\n        /* \"#utility.yul\":10958:11322   */\n      swap3\n      swap2\n      pop\n      pop\n      jump\t// out\n        /* \"#utility.yul\":11328:11446   */\n    tag_143:\n        /* \"#utility.yul\":11415:11439   */\n      tag_278\n        /* \"#utility.yul\":11433:11438   */\n      dup2\n        /* \"#utility.yul\":11415:11439   */\n      tag_105\n      jump\t// in\n    tag_278:\n        /* \"#utility.yul\":11410:11413   */\n      dup3\n        /* \"#utility.yul\":11403:11440   */\n      mstore\n        /* \"#utility.yul\":11328:11446   */\n      pop\n      pop\n      jump\t// out\n        /* \"#utility.yul\":11452:12591   */\n    tag_83:\n        /* \"#utility.yul\":11765:11769   */\n      0x00\n        /* \"#utility.yul\":11803:11806   */\n      0xc0\n        /* \"#utility.yul\":11792:11801   */\n      dup3\n        /* \"#utility.yul\":11788:11807   */\n      add\n        /* \"#utility.yul\":11780:11807   */\n      swap1\n      pop\n        /* \"#utility.yul\":11853:11862   */\n      dup2\n        /* \"#utility.yul\":11847:11851   */\n      dup2\n        /* \"#utility.yul\":11843:11863   */\n      sub\n        /* \"#utility.yul\":11839:11840   */\n      0x00\n        /* \"#utility.yul\":11828:11837   */\n      dup4\n        /* \"#utility.yul\":11824:11841   */\n      add\n        /* \"#utility.yul\":11817:11864   */\n      mstore\n        /* \"#utility.yul\":11881:11959   */\n      tag_280\n        /* \"#utility.yul\":11954:11958   */\n      dup2\n        /* \"#utility.yul\":11945:11951   */\n      dup10\n        /* \"#utility.yul\":11881:11959   */\n      tag_142\n      jump\t// in\n    tag_280:\n        /* \"#utility.yul\":11873:11959   */\n      swap1\n      pop\n        /* \"#utility.yul\":12006:12015   */\n      dup2\n        /* \"#utility.yul\":12000:12004   */\n      dup2\n        /* \"#utility.yul\":11996:12016   */\n      sub\n        /* \"#utility.yul\":11991:11993   */\n      0x20\n        /* \"#utility.yul\":11980:11989   */\n      dup4\n        /* \"#utility.yul\":11976:11994   */\n      add\n        /* \"#utility.yul\":11969:12017   */\n      mstore\n        /* \"#utility.yul\":12034:12112   */\n      tag_281\n        /* \"#utility.yul\":12107:12111   */\n      dup2\n        /* \"#utility.yul\":12098:12104   */\n      dup9\n        /* \"#utility.yul\":12034:12112   */\n      tag_142\n      jump\t// in\n    tag_281:\n        /* \"#utility.yul\":12026:12112   */\n      swap1\n      pop\n        /* \"#utility.yul\":12159:12168   */\n      dup2\n        /* \"#utility.yul\":12153:12157   */\n      dup2\n        /* \"#utility.yul\":12149:12169   */\n      sub\n        /* \"#utility.yul\":12144:12146   */\n      0x40\n        /* \"#utility.yul\":12133:12142   */\n      dup4\n        /* \"#utility.yul\":12129:12147   */\n      add\n        /* \"#utility.yul\":12122:12170   */\n      mstore\n        /* \"#utility.yul\":12187:12265   */\n      tag_282\n        /* \"#utility.yul\":12260:12264   */\n      dup2\n        /* \"#utility.yul\":12251:12257   */\n      dup8\n        /* \"#utility.yul\":12187:12265   */\n      tag_142\n      jump\t// in\n    tag_282:\n        /* \"#utility.yul\":12179:12265   */\n      swap1\n      pop\n        /* \"#utility.yul\":12312:12321   */\n      dup2\n        /* \"#utility.yul\":12306:12310   */\n      dup2\n        /* \"#utility.yul\":12302:12322   */\n      sub\n        /* \"#utility.yul\":12297:12299   */\n      0x60\n        /* \"#utility.yul\":12286:12295   */\n      dup4\n        /* \"#utility.yul\":12282:12300   */\n      add\n        /* \"#utility.yul\":12275:12323   */\n      mstore\n        /* \"#utility.yul\":12340:12418   */\n      tag_283\n        /* \"#utility.yul\":12413:12417   */\n      dup2\n        /* \"#utility.yul\":12404:12410   */\n      dup7\n        /* \"#utility.yul\":12340:12418   */\n      tag_142\n      jump\t// in\n    tag_283:\n        /* \"#utility.yul\":12332:12418   */\n      swap1\n      pop\n        /* \"#utility.yul\":12428:12501   */\n      tag_284\n        /* \"#utility.yul\":12496:12499   */\n      0x80\n        /* \"#utility.yul\":12485:12494   */\n      dup4\n        /* \"#utility.yul\":12481:12500   */\n      add\n        /* \"#utility.yul\":12472:12478   */\n      dup6\n        /* \"#utility.yul\":12428:12501   */\n      tag_143\n      jump\t// in\n    tag_284:\n        /* \"#utility.yul\":12511:12584   */\n      tag_285\n        /* \"#utility.yul\":12579:12582   */\n      0xa0\n        /* \"#utility.yul\":12568:12577   */\n      dup4\n        /* \"#utility.yul\":12564:12583   */\n      add\n        /* \"#utility.yul\":12555:12561   */\n      dup5\n        /* \"#utility.yul\":12511:12584   */\n      tag_143\n      jump\t// in\n    tag_285:\n        /* \"#utility.yul\":11452:12591   */\n      swap8\n      swap7\n      pop\n      pop\n      pop\n      pop\n      pop\n      pop\n      pop\n      jump\t// out\n        /* \"#utility.yul\":12597:12777   */\n    tag_144:\n        /* \"#utility.yul\":12645:12722   */\n      0x4e487b7100000000000000000000000000000000000000000000000000000000\n        /* \"#utility.yul\":12642:12643   */\n      0x00\n        /* \"#utility.yul\":12635:12723   */\n      mstore\n        /* \"#utility.yul\":12742:12746   */\n      0x11\n        /* \"#utility.yul\":12739:12740   */\n      0x04\n        /* \"#utility.yul\":12732:12747   */\n      mstore\n        /* \"#utility.yul\":12766:12770   */\n      0x24\n        /* \"#utility.yul\":12763:12764   */\n      0x00\n        /* \"#utility.yul\":12756:12771   */\n      revert\n        /* \"#utility.yul\":12783:13016   */\n    tag_94:\n        /* \"#utility.yul\":12822:12825   */\n      0x00\n        /* \"#utility.yul\":12845:12869   */\n      tag_288\n        /* \"#utility.yul\":12863:12868   */\n      dup3\n        /* \"#utility.yul\":12845:12869   */\n      tag_110\n      jump\t// in\n    tag_288:\n        /* \"#utility.yul\":12836:12869   */\n      swap2\n      pop\n        /* \"#utility.yul\":12891:12957   */\n      0xffffffffffffffffffffffffffffffffffffffffffffffffffffffffffffffff\n        /* \"#utility.yul\":12884:12889   */\n      dup3\n        /* \"#utility.yul\":12881:12958   */\n      eq\n        /* \"#utility.yul\":12878:12981   */\n      iszero\n      tag_289\n      jumpi\n        /* \"#utility.yul\":12961:12979   */\n      tag_290\n      tag_144\n      jump\t// in\n    tag_290:\n        /* \"#utility.yul\":12878:12981   */\n    tag_289:\n        /* \"#utility.yul\":13008:13009   */\n      0x01\n        /* \"#utility.yul\":13001:13006   */\n      dup3\n        /* \"#utility.yul\":12997:13010   */\n      add\n        /* \"#utility.yul\":12990:13010   */\n      swap1\n      pop\n        /* \"#utility.yul\":12783:13016   */\n      swap2\n      swap1\n      pop\n      jump\t// out\n    stop\n\n    sub_0: assembly {\n            /* \"CharityDAO.sol\":1670:7055  contract User {... */\n          mstore(0x40, 0x80)\n            /* \"CharityDAO.sol\":2670:3137  constructor(string memory _name, string memory _description, string memory _phone, string memory _email, address _creator, address _DAOAddress) {... */\n          callvalue\n          dup1\n          iszero\n          tag_1\n          jumpi\n          0x00\n          dup1\n          revert\n        tag_1:\n          pop\n          mload(0x40)\n          sub(codesize, bytecodeSize)\n          dup1\n          bytecodeSize\n          dup4\n          codecopy\n          dup2\n          dup2\n          add\n          0x40\n          mstore\n          dup2\n          add\n          swap1\n          tag_2\n          swap2\n          swap1\n          tag_3\n          jump\t// in\n        tag_2:\n            /* \"CharityDAO.sol\":2832:2837  _name */\n          dup6\n            /* \"CharityDAO.sol\":2825:2829  name */\n          0x00\n            /* \"CharityDAO.sol\":2825:2837  name = _name */\n          swap1\n          dup1\n          mload\n          swap1\n          0x20\n          add\n          swap1\n          tag_6\n          swap3\n          swap2\n          swap1\n          tag_7\n          jump\t// in\n        tag_6:\n          pop\n            /* \"CharityDAO.sol\":2862:2874  _description */\n          dup5\n            /* \"CharityDAO.sol\":2848:2859  description */\n          0x01\n            /* \"CharityDAO.sol\":2848:2874  description = _description */\n          swap1\n          dup1\n          mload\n          swap1\n          0x20\n          add\n          swap1\n          tag_8\n          swap3\n          swap2\n          swap1\n          tag_7\n          jump\t// in\n        tag_8:\n          pop\n            /* \"CharityDAO.sol\":2893:2899  _phone */\n          dup4\n            /* \"CharityDAO.sol\":2885:2890  phone */\n          0x03\n            /* \"CharityDAO.sol\":2885:2899  phone = _phone */\n          swap1\n          dup1\n          mload\n          swap1\n          0x20\n          add\n          swap1\n          tag_9\n          swap3\n          swap2\n          swap1\n          tag_7\n          jump\t// in\n        tag_9:\n          pop\n            /* \"CharityDAO.sol\":2918:2924  _email */\n          dup3\n            /* \"CharityDAO.sol\":2910:2915  email */\n          0x04\n            /* \"CharityDAO.sol\":2910:2924  email = _email */\n          swap1\n          dup1\n          mload\n          swap1\n          0x20\n          add\n          swap1\n          tag_10\n          swap3\n          swap2\n          swap1\n          tag_7\n          jump\t// in\n        tag_10:\n          pop\n            /* \"CharityDAO.sol\":2949:2957  _creator */\n          dup2\n            /* \"CharityDAO.sol\":2935:2946  userAddress */\n          0x02\n          0x00\n            /* \"CharityDAO.sol\":2935:2957  userAddress = _creator */\n          0x0100\n          exp\n          dup2\n          sload\n          dup2\n          0xffffffffffffffffffffffffffffffffffffffff\n          mul\n          not\n          and\n          swap1\n          dup4\n          0xffffffffffffffffffffffffffffffffffffffff\n          and\n          mul\n          or\n          swap1\n          sstore\n          pop\n            /* \"CharityDAO.sol\":2981:2992  _DAOAddress */\n          dup1\n            /* \"CharityDAO.sol\":2968:2978  DAOAddress */\n          0x0a\n          0x00\n            /* \"CharityDAO.sol\":2968:2992  DAOAddress = _DAOAddress */\n          0x0100\n          exp\n          dup2\n          sload\n          dup2\n          0xffffffffffffffffffffffffffffffffffffffff\n          mul\n          not\n          and\n          swap1\n          dup4\n          0xffffffffffffffffffffffffffffffffffffffff\n          and\n          mul\n          or\n          swap1\n          sstore\n          pop\n            /* \"CharityDAO.sol\":3018:3019  0 */\n          0x00\n            /* \"CharityDAO.sol\":3003:3015  approveCount */\n          0x05\n            /* \"CharityDAO.sol\":3003:3019  approveCount = 0 */\n          dup2\n          swap1\n          sstore\n          pop\n            /* \"CharityDAO.sol\":3044:3045  0 */\n          0x00\n            /* \"CharityDAO.sol\":3030:3041  rejectCount */\n          0x06\n            /* \"CharityDAO.sol\":3030:3045  rejectCount = 0 */\n          dup2\n          swap1\n          sstore\n          pop\n            /* \"CharityDAO.sol\":3069:3074  false */\n          0x00\n            /* \"CharityDAO.sol\":3056:3066  isApproved */\n          0x07\n          0x00\n            /* \"CharityDAO.sol\":3056:3074  isApproved = false */\n          0x0100\n          exp\n          dup2\n          sload\n          dup2\n          0xff\n          mul\n          not\n          and\n          swap1\n          dup4\n          iszero\n          iszero\n          mul\n          or\n          swap1\n          sstore\n          pop\n            /* \"CharityDAO.sol\":3098:3103  false */\n          0x00\n            /* \"CharityDAO.sol\":3085:3095  isRejected */\n          0x07\n          0x01\n            /* \"CharityDAO.sol\":3085:3103  isRejected = false */\n          0x0100\n          exp\n          dup2\n          sload\n          dup2\n          0xff\n          mul\n          not\n          and\n          swap1\n          dup4\n          iszero\n          iszero\n          mul\n          or\n          swap1\n          sstore\n          pop\n            /* \"CharityDAO.sol\":3128:3129  0 */\n          0x00\n            /* \"CharityDAO.sol\":3114:3125  numCampaign */\n          0x0b\n            /* \"CharityDAO.sol\":3114:3129  numCampaign = 0 */\n          dup2\n          swap1\n          sstore\n          pop\n            /* \"CharityDAO.sol\":2670:3137  constructor(string memory _name, string memory _description, string memory _phone, string memory _email, address _creator, address _DAOAddress) {... */\n          pop\n          pop\n          pop\n          pop\n          pop\n          pop\n            /* \"CharityDAO.sol\":1670:7055  contract User {... */\n          jump(tag_11)\n        tag_7:\n          dup3\n          dup1\n          sload\n          tag_12\n          swap1\n          tag_13\n          jump\t// in\n        tag_12:\n          swap1\n          0x00\n          mstore\n          keccak256(0x00, 0x20)\n          swap1\n          0x1f\n          add\n          0x20\n          swap1\n          div\n          dup2\n          add\n          swap3\n          dup3\n          tag_15\n          jumpi\n          0x00\n          dup6\n          sstore\n          jump(tag_14)\n        tag_15:\n          dup3\n          0x1f\n          lt\n          tag_16\n          jumpi\n          dup1\n          mload\n          not(0xff)\n          and\n          dup4\n          dup1\n          add\n          or\n          dup6\n          sstore\n          jump(tag_14)\n        tag_16:\n          dup3\n          dup1\n          add\n          0x01\n          add\n          dup6\n          sstore\n          dup3\n          iszero\n          tag_14\n          jumpi\n          swap2\n          dup3\n          add\n        tag_17:\n          dup3\n          dup2\n          gt\n          iszero\n          tag_18\n          jumpi\n          dup3\n          mload\n          dup3\n          sstore\n          swap2\n          0x20\n          add\n          swap2\n          swap1\n          0x01\n          add\n          swap1\n          jump(tag_17)\n        tag_18:\n        tag_14:\n          pop\n          swap1\n          pop\n          tag_19\n          swap2\n          swap1\n          tag_20\n          jump\t// in\n        tag_19:\n          pop\n          swap1\n          jump\t// out\n        tag_20:\n        tag_21:\n          dup1\n          dup3\n          gt\n          iszero\n          tag_22\n          jumpi\n          0x00\n          dup2\n          0x00\n          swap1\n          sstore\n          pop\n          0x01\n          add\n          jump(tag_21)\n        tag_22:\n          pop\n          swap1\n          jump\t// out\n            /* \"#utility.yul\":7:82   */\n        tag_23:\n            /* \"#utility.yul\":40:46   */\n          0x00\n            /* \"#utility.yul\":73:75   */\n          0x40\n            /* \"#utility.yul\":67:76   */\n          mload\n            /* \"#utility.yul\":57:76   */\n          swap1\n          pop\n            /* \"#utility.yul\":7:82   */\n          swap1\n          jump\t// out\n            /* \"#utility.yul\":88:205   */\n        tag_24:\n            /* \"#utility.yul\":197:198   */\n          0x00\n            /* \"#utility.yul\":194:195   */\n          dup1\n            /* \"#utility.yul\":187:199   */\n          revert\n            /* \"#utility.yul\":211:328   */\n        tag_25:\n            /* \"#utility.yul\":320:321   */\n          0x00\n            /* \"#utility.yul\":317:318   */\n          dup1\n            /* \"#utility.yul\":310:322   */\n          revert\n            /* \"#utility.yul\":334:451   */\n        tag_26:\n            /* \"#utility.yul\":443:444   */\n          0x00\n            /* \"#utility.yul\":440:441   */\n          dup1\n            /* \"#utility.yul\":433:445   */\n          revert\n            /* \"#utility.yul\":457:574   */\n        tag_27:\n            /* \"#utility.yul\":566:567   */\n          0x00\n            /* \"#utility.yul\":563:564   */\n          dup1\n            /* \"#utility.yul\":556:568   */\n          revert\n            /* \"#utility.yul\":580:682   */\n        tag_28:\n            /* \"#utility.yul\":621:627   */\n          0x00\n            /* \"#utility.yul\":672:674   */\n          0x1f\n            /* \"#utility.yul\":668:675   */\n          not\n            /* \"#utility.yul\":663:665   */\n          0x1f\n            /* \"#utility.yul\":656:661   */\n          dup4\n            /* \"#utility.yul\":652:666   */\n          add\n            /* \"#utility.yul\":648:676   */\n          and\n            /* \"#utility.yul\":638:676   */\n          swap1\n          pop\n            /* \"#utility.yul\":580:682   */\n          swap2\n          swap1\n          pop\n          jump\t// out\n            /* \"#utility.yul\":688:868   */\n        tag_29:\n            /* \"#utility.yul\":736:813   */\n          0x4e487b7100000000000000000000000000000000000000000000000000000000\n            /* \"#utility.yul\":733:734   */\n          0x00\n            /* \"#utility.yul\":726:814   */\n          mstore\n            /* \"#utility.yul\":833:837   */\n          0x41\n            /* \"#utility.yul\":830:831   */\n          0x04\n            /* \"#utility.yul\":823:838   */\n          mstore\n            /* \"#utility.yul\":857:861   */\n          0x24\n            /* \"#utility.yul\":854:855   */\n          0x00\n            /* \"#utility.yul\":847:862   */\n          revert\n            /* \"#utility.yul\":874:1155   */\n        tag_30:\n            /* \"#utility.yul\":957:984   */\n          tag_50\n            /* \"#utility.yul\":979:983   */\n          dup3\n            /* \"#utility.yul\":957:984   */\n          tag_28\n          jump\t// in\n        tag_50:\n            /* \"#utility.yul\":949:955   */\n          dup2\n            /* \"#utility.yul\":945:985   */\n          add\n            /* \"#utility.yul\":1087:1093   */\n          dup2\n            /* \"#utility.yul\":1075:1085   */\n          dup2\n            /* \"#utility.yul\":1072:1094   */\n          lt\n            /* \"#utility.yul\":1051:1069   */\n          0xffffffffffffffff\n            /* \"#utility.yul\":1039:1049   */\n          dup3\n            /* \"#utility.yul\":1036:1070   */\n          gt\n            /* \"#utility.yul\":1033:1095   */\n          or\n            /* \"#utility.yul\":1030:1118   */\n          iszero\n          tag_51\n          jumpi\n            /* \"#utility.yul\":1098:1116   */\n          tag_52\n          tag_29\n          jump\t// in\n        tag_52:\n            /* \"#utility.yul\":1030:1118   */\n        tag_51:\n            /* \"#utility.yul\":1138:1148   */\n          dup1\n            /* \"#utility.yul\":1134:1136   */\n          0x40\n            /* \"#utility.yul\":1127:1149   */\n          mstore\n            /* \"#utility.yul\":917:1155   */\n          pop\n            /* \"#utility.yul\":874:1155   */\n          pop\n          pop\n          jump\t// out\n            /* \"#utility.yul\":1161:1290   */\n        tag_31:\n            /* \"#utility.yul\":1195:1201   */\n          0x00\n            /* \"#utility.yul\":1222:1242   */\n          tag_54\n          tag_23\n          jump\t// in\n        tag_54:\n            /* \"#utility.yul\":1212:1242   */\n          swap1\n          pop\n            /* \"#utility.yul\":1251:1284   */\n          tag_55\n            /* \"#utility.yul\":1279:1283   */\n          dup3\n            /* \"#utility.yul\":1271:1277   */\n          dup3\n            /* \"#utility.yul\":1251:1284   */\n          tag_30\n          jump\t// in\n        tag_55:\n            /* \"#utility.yul\":1161:1290   */\n          swap2\n          swap1\n          pop\n          jump\t// out\n            /* \"#utility.yul\":1296:1604   */\n        tag_32:\n            /* \"#utility.yul\":1358:1362   */\n          0x00\n            /* \"#utility.yul\":1448:1466   */\n          0xffffffffffffffff\n            /* \"#utility.yul\":1440:1446   */\n          dup3\n            /* \"#utility.yul\":1437:1467   */\n          gt\n            /* \"#utility.yul\":1434:1490   */\n          iszero\n          tag_57\n          jumpi\n            /* \"#utility.yul\":1470:1488   */\n          tag_58\n          tag_29\n          jump\t// in\n        tag_58:\n            /* \"#utility.yul\":1434:1490   */\n        tag_57:\n            /* \"#utility.yul\":1508:1537   */\n          tag_59\n            /* \"#utility.yul\":1530:1536   */\n          dup3\n            /* \"#utility.yul\":1508:1537   */\n          tag_28\n          jump\t// in\n        tag_59:\n            /* \"#utility.yul\":1500:1537   */\n          swap1\n          pop\n            /* \"#utility.yul\":1592:1596   */\n          0x20\n            /* \"#utility.yul\":1586:1590   */\n          dup2\n            /* \"#utility.yul\":1582:1597   */\n          add\n            /* \"#utility.yul\":1574:1597   */\n          swap1\n          pop\n            /* \"#utility.yul\":1296:1604   */\n          swap2\n          swap1\n          pop\n          jump\t// out\n            /* \"#utility.yul\":1610:1917   */\n        tag_33:\n            /* \"#utility.yul\":1678:1679   */\n          0x00\n            /* \"#utility.yul\":1688:1801   */\n        tag_61:\n            /* \"#utility.yul\":1702:1708   */\n          dup4\n            /* \"#utility.yul\":1699:1700   */\n          dup2\n            /* \"#utility.yul\":1696:1709   */\n          lt\n            /* \"#utility.yul\":1688:1801   */\n          iszero\n          tag_63\n          jumpi\n            /* \"#utility.yul\":1787:1788   */\n          dup1\n            /* \"#utility.yul\":1782:1785   */\n          dup3\n            /* \"#utility.yul\":1778:1789   */\n          add\n            /* \"#utility.yul\":1772:1790   */\n          mload\n            /* \"#utility.yul\":1768:1769   */\n          dup2\n            /* \"#utility.yul\":1763:1766   */\n          dup5\n            /* \"#utility.yul\":1759:1770   */\n          add\n            /* \"#utility.yul\":1752:1791   */\n          mstore\n            /* \"#utility.yul\":1724:1726   */\n          0x20\n            /* \"#utility.yul\":1721:1722   */\n          dup2\n            /* \"#utility.yul\":1717:1727   */\n          add\n            /* \"#utility.yul\":1712:1727   */\n          swap1\n          pop\n            /* \"#utility.yul\":1688:1801   */\n          jump(tag_61)\n        tag_63:\n            /* \"#utility.yul\":1819:1825   */\n          dup4\n            /* \"#utility.yul\":1816:1817   */\n          dup2\n            /* \"#utility.yul\":1813:1826   */\n          gt\n            /* \"#utility.yul\":1810:1911   */\n          iszero\n          tag_64\n          jumpi\n            /* \"#utility.yul\":1899:1900   */\n          0x00\n            /* \"#utility.yul\":1890:1896   */\n          dup5\n            /* \"#utility.yul\":1885:1888   */\n          dup5\n            /* \"#utility.yul\":1881:1897   */\n          add\n            /* \"#utility.yul\":1874:1901   */\n          mstore\n            /* \"#utility.yul\":1810:1911   */\n        tag_64:\n            /* \"#utility.yul\":1659:1917   */\n          pop\n            /* \"#utility.yul\":1610:1917   */\n          pop\n          pop\n          pop\n          jump\t// out\n            /* \"#utility.yul\":1923:2344   */\n        tag_34:\n            /* \"#utility.yul\":2012:2017   */\n          0x00\n            /* \"#utility.yul\":2037:2103   */\n          tag_66\n            /* \"#utility.yul\":2053:2102   */\n          tag_67\n            /* \"#utility.yul\":2095:2101   */\n          dup5\n            /* \"#utility.yul\":2053:2102   */\n          tag_32\n          jump\t// in\n        tag_67:\n            /* \"#utility.yul\":2037:2103   */\n          tag_31\n          jump\t// in\n        tag_66:\n            /* \"#utility.yul\":2028:2103   */\n          swap1\n          pop\n            /* \"#utility.yul\":2126:2132   */\n          dup3\n            /* \"#utility.yul\":2119:2124   */\n          dup2\n            /* \"#utility.yul\":2112:2133   */\n          mstore\n            /* \"#utility.yul\":2164:2168   */\n          0x20\n            /* \"#utility.yul\":2157:2162   */\n          dup2\n            /* \"#utility.yul\":2153:2169   */\n          add\n            /* \"#utility.yul\":2202:2205   */\n          dup5\n            /* \"#utility.yul\":2193:2199   */\n          dup5\n            /* \"#utility.yul\":2188:2191   */\n          dup5\n            /* \"#utility.yul\":2184:2200   */\n          add\n            /* \"#utility.yul\":2181:2206   */\n          gt\n            /* \"#utility.yul\":2178:2290   */\n          iszero\n          tag_68\n          jumpi\n            /* \"#utility.yul\":2209:2288   */\n          tag_69\n          tag_27\n          jump\t// in\n        tag_69:\n            /* \"#utility.yul\":2178:2290   */\n        tag_68:\n            /* \"#utility.yul\":2299:2338   */\n          tag_70\n            /* \"#utility.yul\":2331:2337   */\n          dup5\n            /* \"#utility.yul\":2326:2329   */\n          dup3\n            /* \"#utility.yul\":2321:2324   */\n          dup6\n            /* \"#utility.yul\":2299:2338   */\n          tag_33\n          jump\t// in\n        tag_70:\n            /* \"#utility.yul\":2018:2344   */\n          pop\n            /* \"#utility.yul\":1923:2344   */\n          swap4\n          swap3\n          pop\n          pop\n          pop\n          jump\t// out\n            /* \"#utility.yul\":2364:2719   */\n        tag_35:\n            /* \"#utility.yul\":2431:2436   */\n          0x00\n            /* \"#utility.yul\":2480:2483   */\n          dup3\n            /* \"#utility.yul\":2473:2477   */\n          0x1f\n            /* \"#utility.yul\":2465:2471   */\n          dup4\n            /* \"#utility.yul\":2461:2478   */\n          add\n            /* \"#utility.yul\":2457:2484   */\n          slt\n            /* \"#utility.yul\":2447:2569   */\n          tag_72\n          jumpi\n            /* \"#utility.yul\":2488:2567   */\n          tag_73\n          tag_26\n          jump\t// in\n        tag_73:\n            /* \"#utility.yul\":2447:2569   */\n        tag_72:\n            /* \"#utility.yul\":2598:2604   */\n          dup2\n            /* \"#utility.yul\":2592:2605   */\n          mload\n            /* \"#utility.yul\":2623:2713   */\n          tag_74\n            /* \"#utility.yul\":2709:2712   */\n          dup5\n            /* \"#utility.yul\":2701:2707   */\n          dup3\n            /* \"#utility.yul\":2694:2698   */\n          0x20\n            /* \"#utility.yul\":2686:2692   */\n          dup7\n            /* \"#utility.yul\":2682:2699   */\n          add\n            /* \"#utility.yul\":2623:2713   */\n          tag_34\n          jump\t// in\n        tag_74:\n            /* \"#utility.yul\":2614:2713   */\n          swap2\n          pop\n            /* \"#utility.yul\":2437:2719   */\n          pop\n            /* \"#utility.yul\":2364:2719   */\n          swap3\n          swap2\n          pop\n          pop\n          jump\t// out\n            /* \"#utility.yul\":2725:2851   */\n        tag_36:\n            /* \"#utility.yul\":2762:2769   */\n          0x00\n            /* \"#utility.yul\":2802:2844   */\n          0xffffffffffffffffffffffffffffffffffffffff\n            /* \"#utility.yul\":2795:2800   */\n          dup3\n            /* \"#utility.yul\":2791:2845   */\n          and\n            /* \"#utility.yul\":2780:2845   */\n          swap1\n          pop\n            /* \"#utility.yul\":2725:2851   */\n          swap2\n          swap1\n          pop\n          jump\t// out\n            /* \"#utility.yul\":2857:2953   */\n        tag_37:\n            /* \"#utility.yul\":2894:2901   */\n          0x00\n            /* \"#utility.yul\":2923:2947   */\n          tag_77\n            /* \"#utility.yul\":2941:2946   */\n          dup3\n            /* \"#utility.yul\":2923:2947   */\n          tag_36\n          jump\t// in\n        tag_77:\n            /* \"#utility.yul\":2912:2947   */\n          swap1\n          pop\n            /* \"#utility.yul\":2857:2953   */\n          swap2\n          swap1\n          pop\n          jump\t// out\n            /* \"#utility.yul\":2959:3081   */\n        tag_38:\n            /* \"#utility.yul\":3032:3056   */\n          tag_79\n            /* \"#utility.yul\":3050:3055   */\n          dup2\n            /* \"#utility.yul\":3032:3056   */\n          tag_37\n          jump\t// in\n        tag_79:\n            /* \"#utility.yul\":3025:3030   */\n          dup2\n            /* \"#utility.yul\":3022:3057   */\n          eq\n            /* \"#utility.yul\":3012:3075   */\n          tag_80\n          jumpi\n            /* \"#utility.yul\":3071:3072   */\n          0x00\n            /* \"#utility.yul\":3068:3069   */\n          dup1\n            /* \"#utility.yul\":3061:3073   */\n          revert\n            /* \"#utility.yul\":3012:3075   */\n        tag_80:\n            /* \"#utility.yul\":2959:3081   */\n          pop\n          jump\t// out\n            /* \"#utility.yul\":3087:3230   */\n        tag_39:\n            /* \"#utility.yul\":3144:3149   */\n          0x00\n            /* \"#utility.yul\":3175:3181   */\n          dup2\n            /* \"#utility.yul\":3169:3182   */\n          mload\n            /* \"#utility.yul\":3160:3182   */\n          swap1\n          pop\n            /* \"#utility.yul\":3191:3224   */\n          tag_82\n            /* \"#utility.yul\":3218:3223   */\n          dup2\n            /* \"#utility.yul\":3191:3224   */\n          tag_38\n          jump\t// in\n        tag_82:\n            /* \"#utility.yul\":3087:3230   */\n          swap3\n          swap2\n          pop\n          pop\n          jump\t// out\n            /* \"#utility.yul\":3236:5062   */\n        tag_3:\n            /* \"#utility.yul\":3391:3397   */\n          0x00\n            /* \"#utility.yul\":3399:3405   */\n          dup1\n            /* \"#utility.yul\":3407:3413   */\n          0x00\n            /* \"#utility.yul\":3415:3421   */\n          dup1\n            /* \"#utility.yul\":3423:3429   */\n          0x00\n            /* \"#utility.yul\":3431:3437   */\n          dup1\n            /* \"#utility.yul\":3480:3483   */\n          0xc0\n            /* \"#utility.yul\":3468:3477   */\n          dup8\n            /* \"#utility.yul\":3459:3466   */\n          dup10\n            /* \"#utility.yul\":3455:3478   */\n          sub\n            /* \"#utility.yul\":3451:3484   */\n          slt\n            /* \"#utility.yul\":3448:3568   */\n          iszero\n          tag_84\n          jumpi\n            /* \"#utility.yul\":3487:3566   */\n          tag_85\n          tag_24\n          jump\t// in\n        tag_85:\n            /* \"#utility.yul\":3448:3568   */\n        tag_84:\n            /* \"#utility.yul\":3628:3629   */\n          0x00\n            /* \"#utility.yul\":3617:3626   */\n          dup8\n            /* \"#utility.yul\":3613:3630   */\n          add\n            /* \"#utility.yul\":3607:3631   */\n          mload\n            /* \"#utility.yul\":3658:3676   */\n          0xffffffffffffffff\n            /* \"#utility.yul\":3650:3656   */\n          dup2\n            /* \"#utility.yul\":3647:3677   */\n          gt\n            /* \"#utility.yul\":3644:3761   */\n          iszero\n          tag_86\n          jumpi\n            /* \"#utility.yul\":3680:3759   */\n          tag_87\n          tag_25\n          jump\t// in\n        tag_87:\n            /* \"#utility.yul\":3644:3761   */\n        tag_86:\n            /* \"#utility.yul\":3785:3859   */\n          tag_88\n            /* \"#utility.yul\":3851:3858   */\n          dup10\n            /* \"#utility.yul\":3842:3848   */\n          dup3\n            /* \"#utility.yul\":3831:3840   */\n          dup11\n            /* \"#utility.yul\":3827:3849   */\n          add\n            /* \"#utility.yul\":3785:3859   */\n          tag_35\n          jump\t// in\n        tag_88:\n            /* \"#utility.yul\":3775:3859   */\n          swap7\n          pop\n            /* \"#utility.yul\":3578:3869   */\n          pop\n            /* \"#utility.yul\":3929:3931   */\n          0x20\n            /* \"#utility.yul\":3918:3927   */\n          dup8\n            /* \"#utility.yul\":3914:3932   */\n          add\n            /* \"#utility.yul\":3908:3933   */\n          mload\n            /* \"#utility.yul\":3960:3978   */\n          0xffffffffffffffff\n            /* \"#utility.yul\":3952:3958   */\n          dup2\n            /* \"#utility.yul\":3949:3979   */\n          gt\n            /* \"#utility.yul\":3946:4063   */\n          iszero\n          tag_89\n          jumpi\n            /* \"#utility.yul\":3982:4061   */\n          tag_90\n          tag_25\n          jump\t// in\n        tag_90:\n            /* \"#utility.yul\":3946:4063   */\n        tag_89:\n            /* \"#utility.yul\":4087:4161   */\n          tag_91\n            /* \"#utility.yul\":4153:4160   */\n          dup10\n            /* \"#utility.yul\":4144:4150   */\n          dup3\n            /* \"#utility.yul\":4133:4142   */\n          dup11\n            /* \"#utility.yul\":4129:4151   */\n          add\n            /* \"#utility.yul\":4087:4161   */\n          tag_35\n          jump\t// in\n        tag_91:\n            /* \"#utility.yul\":4077:4161   */\n          swap6\n          pop\n            /* \"#utility.yul\":3879:4171   */\n          pop\n            /* \"#utility.yul\":4231:4233   */\n          0x40\n            /* \"#utility.yul\":4220:4229   */\n          dup8\n            /* \"#utility.yul\":4216:4234   */\n          add\n            /* \"#utility.yul\":4210:4235   */\n          mload\n            /* \"#utility.yul\":4262:4280   */\n          0xffffffffffffffff\n            /* \"#utility.yul\":4254:4260   */\n          dup2\n            /* \"#utility.yul\":4251:4281   */\n          gt\n            /* \"#utility.yul\":4248:4365   */\n          iszero\n          tag_92\n          jumpi\n            /* \"#utility.yul\":4284:4363   */\n          tag_93\n          tag_25\n          jump\t// in\n        tag_93:\n            /* \"#utility.yul\":4248:4365   */\n        tag_92:\n            /* \"#utility.yul\":4389:4463   */\n          tag_94\n            /* \"#utility.yul\":4455:4462   */\n          dup10\n            /* \"#utility.yul\":4446:4452   */\n          dup3\n            /* \"#utility.yul\":4435:4444   */\n          dup11\n            /* \"#utility.yul\":4431:4453   */\n          add\n            /* \"#utility.yul\":4389:4463   */\n          tag_35\n          jump\t// in\n        tag_94:\n            /* \"#utility.yul\":4379:4463   */\n          swap5\n          pop\n            /* \"#utility.yul\":4181:4473   */\n          pop\n            /* \"#utility.yul\":4533:4535   */\n          0x60\n            /* \"#utility.yul\":4522:4531   */\n          dup8\n            /* \"#utility.yul\":4518:4536   */\n          add\n            /* \"#utility.yul\":4512:4537   */\n          mload\n            /* \"#utility.yul\":4564:4582   */\n          0xffffffffffffffff\n            /* \"#utility.yul\":4556:4562   */\n          dup2\n            /* \"#utility.yul\":4553:4583   */\n          gt\n            /* \"#utility.yul\":4550:4667   */\n          iszero\n          tag_95\n          jumpi\n            /* \"#utility.yul\":4586:4665   */\n          tag_96\n          tag_25\n          jump\t// in\n        tag_96:\n            /* \"#utility.yul\":4550:4667   */\n        tag_95:\n            /* \"#utility.yul\":4691:4765   */\n          tag_97\n            /* \"#utility.yul\":4757:4764   */\n          dup10\n            /* \"#utility.yul\":4748:4754   */\n          dup3\n            /* \"#utility.yul\":4737:4746   */\n          dup11\n            /* \"#utility.yul\":4733:4755   */\n          add\n            /* \"#utility.yul\":4691:4765   */\n          tag_35\n          jump\t// in\n        tag_97:\n            /* \"#utility.yul\":4681:4765   */\n          swap4\n          pop\n            /* \"#utility.yul\":4483:4775   */\n          pop\n            /* \"#utility.yul\":4814:4817   */\n          0x80\n            /* \"#utility.yul\":4841:4905   */\n          tag_98\n            /* \"#utility.yul\":4897:4904   */\n          dup10\n            /* \"#utility.yul\":4888:4894   */\n          dup3\n            /* \"#utility.yul\":4877:4886   */\n          dup11\n            /* \"#utility.yul\":4873:4895   */\n          add\n            /* \"#utility.yul\":4841:4905   */\n          tag_39\n          jump\t// in\n        tag_98:\n            /* \"#utility.yul\":4831:4905   */\n          swap3\n          pop\n            /* \"#utility.yul\":4785:4915   */\n          pop\n            /* \"#utility.yul\":4954:4957   */\n          0xa0\n            /* \"#utility.yul\":4981:5045   */\n          tag_99\n            /* \"#utility.yul\":5037:5044   */\n          dup10\n            /* \"#utility.yul\":5028:5034   */\n          dup3\n            /* \"#utility.yul\":5017:5026   */\n          dup11\n            /* \"#utility.yul\":5013:5035   */\n          add\n            /* \"#utility.yul\":4981:5045   */\n          tag_39\n          jump\t// in\n        tag_99:\n            /* \"#utility.yul\":4971:5045   */\n          swap2\n          pop\n            /* \"#utility.yul\":4925:5055   */\n          pop\n            /* \"#utility.yul\":3236:5062   */\n          swap3\n          swap6\n          pop\n          swap3\n          swap6\n          pop\n          swap3\n          swap6\n          jump\t// out\n            /* \"#utility.yul\":5068:5248   */\n        tag_40:\n            /* \"#utility.yul\":5116:5193   */\n          0x4e487b7100000000000000000000000000000000000000000000000000000000\n            /* \"#utility.yul\":5113:5114   */\n          0x00\n            /* \"#utility.yul\":5106:5194   */\n          mstore\n            /* \"#utility.yul\":5213:5217   */\n          0x22\n            /* \"#utility.yul\":5210:5211   */\n          0x04\n            /* \"#utility.yul\":5203:5218   */\n          mstore\n            /* \"#utility.yul\":5237:5241   */\n          0x24\n            /* \"#utility.yul\":5234:5235   */\n          0x00\n            /* \"#utility.yul\":5227:5242   */\n          revert\n            /* \"#utility.yul\":5254:5574   */\n        tag_13:\n            /* \"#utility.yul\":5298:5304   */\n          0x00\n            /* \"#utility.yul\":5335:5336   */\n          0x02\n            /* \"#utility.yul\":5329:5333   */\n          dup3\n            /* \"#utility.yul\":5325:5337   */\n          div\n            /* \"#utility.yul\":5315:5337   */\n          swap1\n          pop\n            /* \"#utility.yul\":5382:5383   */\n          0x01\n            /* \"#utility.yul\":5376:5380   */\n          dup3\n            /* \"#utility.yul\":5372:5384   */\n          and\n            /* \"#utility.yul\":5403:5421   */\n          dup1\n            /* \"#utility.yul\":5393:5474   */\n          tag_102\n          jumpi\n            /* \"#utility.yul\":5459:5463   */\n          0x7f\n            /* \"#utility.yul\":5451:5457   */\n          dup3\n            /* \"#utility.yul\":5447:5464   */\n          and\n            /* \"#utility.yul\":5437:5464   */\n          swap2\n          pop\n            /* \"#utility.yul\":5393:5474   */\n        tag_102:\n            /* \"#utility.yul\":5521:5523   */\n          0x20\n            /* \"#utility.yul\":5513:5519   */\n          dup3\n            /* \"#utility.yul\":5510:5524   */\n          lt\n            /* \"#utility.yul\":5490:5508   */\n          dup2\n            /* \"#utility.yul\":5487:5525   */\n          eq\n            /* \"#utility.yul\":5484:5568   */\n          iszero\n          tag_103\n          jumpi\n            /* \"#utility.yul\":5540:5558   */\n          tag_104\n          tag_40\n          jump\t// in\n        tag_104:\n            /* \"#utility.yul\":5484:5568   */\n        tag_103:\n            /* \"#utility.yul\":5305:5574   */\n          pop\n            /* \"#utility.yul\":5254:5574   */\n          swap2\n          swap1\n          pop\n          jump\t// out\n            /* \"CharityDAO.sol\":1670:7055  contract User {... */\n        tag_11:\n          dataSize(sub_0)\n          dup1\n          dataOffset(sub_0)\n          0x00\n          codecopy\n          0x00\n          return\n        stop\n\n        sub_0: assembly {\n                /* \"CharityDAO.sol\":1670:7055  contract User {... */\n              mstore(0x40, 0x80)\n              callvalue\n              dup1\n              iszero\n              tag_1\n              jumpi\n              0x00\n              dup1\n              revert\n            tag_1:\n              pop\n              jumpi(tag_2, lt(calldatasize, 0x04))\n              shr(0xe0, calldataload(0x00))\n              dup1\n              0x820e93f5\n              gt\n              tag_22\n              jumpi\n              dup1\n              0xd6e3ee6b\n              gt\n              tag_23\n              jumpi\n              dup1\n              0xd6e3ee6b\n              eq\n              tag_17\n              jumpi\n              dup1\n              0xe4128fb3\n              eq\n              tag_18\n              jumpi\n              dup1\n              0xee4e1b53\n              eq\n              tag_19\n              jumpi\n              dup1\n              0xf04693d4\n              eq\n              tag_20\n              jumpi\n              dup1\n              0xfb6ff96e\n              eq\n              tag_21\n              jumpi\n              jump(tag_2)\n            tag_23:\n              dup1\n              0x820e93f5\n              eq\n              tag_12\n              jumpi\n              dup1\n              0x9284f497\n              eq\n              tag_13\n              jumpi\n              dup1\n              0x9fe7717d\n              eq\n              tag_14\n              jumpi\n              dup1\n              0xc2c706b0\n              eq\n              tag_15\n              jumpi\n              dup1\n              0xc9031934\n              eq\n              tag_16\n              jumpi\n              jump(tag_2)\n            tag_22:\n              dup1\n              0x28f371aa\n              gt\n              tag_24\n              jumpi\n              dup1\n              0x28f371aa\n              eq\n              tag_7\n              jumpi\n              dup1\n              0x4a57e1c9\n              eq\n              tag_8\n              jumpi\n              dup1\n              0x6c39bda3\n              eq\n              tag_9\n              jumpi\n              dup1\n              0x7284e416\n              eq\n              tag_10\n              jumpi\n              dup1\n              0x8129dfc9\n              eq\n              tag_11\n              jumpi\n              jump(tag_2)\n            tag_24:\n              dup1\n              0x034d09da\n              eq\n              tag_3\n              jumpi\n              dup1\n              0x06fdde03\n              eq\n              tag_4\n              jumpi\n              dup1\n              0x141961bc\n              eq\n              tag_5\n              jumpi\n              dup1\n              0x28d0c494\n              eq\n              tag_6\n              jumpi\n            tag_2:\n              0x00\n              dup1\n              revert\n                /* \"CharityDAO.sol\":5846:6610  function rejectCampaign(uint campaignIndex) public {... */\n            tag_3:\n              tag_25\n              0x04\n              dup1\n              calldatasize\n              sub\n              dup2\n              add\n              swap1\n              tag_26\n              swap2\n              swap1\n              tag_27\n              jump\t// in\n            tag_26:\n              tag_28\n              jump\t// in\n            tag_25:\n              stop\n                /* \"CharityDAO.sol\":1693:1711  string public name */\n            tag_4:\n              tag_29\n              tag_30\n              jump\t// in\n            tag_29:\n              mload(0x40)\n              tag_31\n              swap2\n              swap1\n              tag_32\n              jump\t// in\n            tag_31:\n              mload(0x40)\n              dup1\n              swap2\n              sub\n              swap1\n              return\n                /* \"CharityDAO.sol\":2619:2661  mapping(uint => Campaign) public campaigns */\n            tag_5:\n              tag_33\n              0x04\n              dup1\n              calldatasize\n              sub\n              dup2\n              add\n              swap1\n              tag_34\n              swap2\n              swap1\n              tag_27\n              jump\t// in\n            tag_34:\n              tag_35\n              jump\t// in\n            tag_33:\n              mload(0x40)\n              tag_36\n              swap13\n              swap12\n              swap11\n              swap10\n              swap9\n              swap8\n              swap7\n              swap6\n              swap5\n              swap4\n              swap3\n              swap2\n              swap1\n              tag_37\n              jump\t// in\n            tag_36:\n              mload(0x40)\n              dup1\n              swap2\n              sub\n              swap1\n              return\n                /* \"CharityDAO.sol\":3620:4080  function rejectUser() public {... */\n            tag_6:\n              tag_38\n              tag_39\n              jump\t// in\n            tag_38:\n              stop\n                /* \"CharityDAO.sol\":1896:1918  bool public isApproved */\n            tag_7:\n              tag_40\n              tag_41\n              jump\t// in\n            tag_40:\n              mload(0x40)\n              tag_42\n              swap2\n              swap1\n              tag_43\n              jump\t// in\n            tag_42:\n              mload(0x40)\n              dup1\n              swap2\n              sub\n              swap1\n              return\n                /* \"CharityDAO.sol\":6618:7050  function finalizeTransaction(uint campaignIndex) public {... */\n            tag_8:\n              tag_44\n              0x04\n              dup1\n              calldatasize\n              sub\n              dup2\n              add\n              swap1\n              tag_45\n              swap2\n              swap1\n              tag_27\n              jump\t// in\n            tag_45:\n              tag_46\n              jump\t// in\n            tag_44:\n              stop\n                /* \"CharityDAO.sol\":4092:5063  function createCampaign(string memory _title, string memory _description, string memory _recipientName, string memory _recipientPhone, string memory _recipientEmail, ... */\n            tag_9:\n              tag_47\n              0x04\n              dup1\n              calldatasize\n              sub\n              dup2\n              add\n              swap1\n              tag_48\n              swap2\n              swap1\n              tag_49\n              jump\t// in\n            tag_48:\n              tag_50\n              jump\t// in\n            tag_47:\n              stop\n                /* \"CharityDAO.sol\":1718:1743  string public description */\n            tag_10:\n              tag_51\n              tag_52\n              jump\t// in\n            tag_51:\n              mload(0x40)\n              tag_53\n              swap2\n              swap1\n              tag_32\n              jump\t// in\n            tag_53:\n              mload(0x40)\n              dup1\n              swap2\n              sub\n              swap1\n              return\n                /* \"CharityDAO.sol\":2589:2612  uint public numCampaign */\n            tag_11:\n              tag_54\n              tag_55\n              jump\t// in\n            tag_54:\n              mload(0x40)\n              tag_56\n              swap2\n              swap1\n              tag_57\n              jump\t// in\n            tag_56:\n              mload(0x40)\n              dup1\n              swap2\n              sub\n              swap1\n              return\n                /* \"CharityDAO.sol\":1809:1828  string public email */\n            tag_12:\n              tag_58\n              tag_59\n              jump\t// in\n            tag_58:\n              mload(0x40)\n              tag_60\n              swap2\n              swap1\n              tag_32\n              jump\t// in\n            tag_60:\n              mload(0x40)\n              dup1\n              swap2\n              sub\n              swap1\n              return\n                /* \"CharityDAO.sol\":1783:1802  string public phone */\n            tag_13:\n              tag_61\n              tag_62\n              jump\t// in\n            tag_61:\n              mload(0x40)\n              tag_63\n              swap2\n              swap1\n              tag_32\n              jump\t// in\n            tag_63:\n              mload(0x40)\n              dup1\n              swap2\n              sub\n              swap1\n              return\n                /* \"CharityDAO.sol\":1835:1859  uint public approveCount */\n            tag_14:\n              tag_64\n              tag_65\n              jump\t// in\n            tag_64:\n              mload(0x40)\n              tag_66\n              swap2\n              swap1\n              tag_57\n              jump\t// in\n            tag_66:\n              mload(0x40)\n              dup1\n              swap2\n              sub\n              swap1\n              return\n                /* \"CharityDAO.sol\":1925:1947  bool public isRejected */\n            tag_15:\n              tag_67\n              tag_68\n              jump\t// in\n            tag_67:\n              mload(0x40)\n              tag_69\n              swap2\n              swap1\n              tag_43\n              jump\t// in\n            tag_69:\n              mload(0x40)\n              dup1\n              swap2\n              sub\n              swap1\n              return\n                /* \"CharityDAO.sol\":1954:2001  mapping(address => bool) public approvedMembers */\n            tag_16:\n              tag_70\n              0x04\n              dup1\n              calldatasize\n              sub\n              dup2\n              add\n              swap1\n              tag_71\n              swap2\n              swap1\n              tag_72\n              jump\t// in\n            tag_71:\n              tag_73\n              jump\t// in\n            tag_70:\n              mload(0x40)\n              tag_74\n              swap2\n              swap1\n              tag_43\n              jump\t// in\n            tag_74:\n              mload(0x40)\n              dup1\n              swap2\n              sub\n              swap1\n              return\n                /* \"CharityDAO.sol\":2008:2055  mapping(address => bool) public rejectedMembers */\n            tag_17:\n              tag_75\n              0x04\n              dup1\n              calldatasize\n              sub\n              dup2\n              add\n              swap1\n              tag_76\n              swap2\n              swap1\n              tag_72\n              jump\t// in\n            tag_76:\n              tag_77\n              jump\t// in\n            tag_75:\n              mload(0x40)\n              tag_78\n              swap2\n              swap1\n              tag_43\n              jump\t// in\n            tag_78:\n              mload(0x40)\n              dup1\n              swap2\n              sub\n              swap1\n              return\n                /* \"CharityDAO.sol\":1750:1776  address public userAddress */\n            tag_18:\n              tag_79\n              tag_80\n              jump\t// in\n            tag_79:\n              mload(0x40)\n              tag_81\n              swap2\n              swap1\n              tag_82\n              jump\t// in\n            tag_81:\n              mload(0x40)\n              dup1\n              swap2\n              sub\n              swap1\n              return\n                /* \"CharityDAO.sol\":5071:5838  function approveCampaign(uint campaignIndex) public {... */\n            tag_19:\n              tag_83\n              0x04\n              dup1\n              calldatasize\n              sub\n              dup2\n              add\n              swap1\n              tag_84\n              swap2\n              swap1\n              tag_27\n              jump\t// in\n            tag_84:\n              tag_85\n              jump\t// in\n            tag_83:\n              stop\n                /* \"CharityDAO.sol\":3149:3612  function approveUser() public {... */\n            tag_20:\n              tag_86\n              tag_87\n              jump\t// in\n            tag_86:\n              stop\n                /* \"CharityDAO.sol\":1866:1889  uint public rejectCount */\n            tag_21:\n              tag_88\n              tag_89\n              jump\t// in\n            tag_88:\n              mload(0x40)\n              tag_90\n              swap2\n              swap1\n              tag_57\n              jump\t// in\n            tag_90:\n              mload(0x40)\n              dup1\n              swap2\n              sub\n              swap1\n              return\n                /* \"CharityDAO.sol\":5846:6610  function rejectCampaign(uint campaignIndex) public {... */\n            tag_28:\n                /* \"CharityDAO.sol\":5908:5920  DAO instance */\n              0x00\n                /* \"CharityDAO.sol\":5927:5937  DAOAddress */\n              0x0a\n              0x00\n              swap1\n              sload\n              swap1\n              0x0100\n              exp\n              swap1\n              div\n              0xffffffffffffffffffffffffffffffffffffffff\n              and\n                /* \"CharityDAO.sol\":5908:5938  DAO instance = DAO(DAOAddress) */\n              swap1\n              pop\n                /* \"CharityDAO.sol\":5957:5965  instance */\n              dup1\n                /* \"CharityDAO.sol\":5957:5975  instance.isAMember */\n              0xffffffffffffffffffffffffffffffffffffffff\n              and\n              0x5d672a62\n                /* \"CharityDAO.sol\":5976:5986  msg.sender */\n              caller\n                /* \"CharityDAO.sol\":5957:5987  instance.isAMember(msg.sender) */\n              mload(0x40)\n              dup3\n              0xffffffff\n              and\n              0xe0\n              shl\n              dup2\n              mstore\n              0x04\n              add\n              tag_92\n              swap2\n              swap1\n              tag_82\n              jump\t// in\n            tag_92:\n              0x20\n              mload(0x40)\n              dup1\n              dup4\n              sub\n              dup2\n              dup7\n              dup1\n              extcodesize\n              iszero\n              dup1\n              iszero\n              tag_93\n              jumpi\n              0x00\n              dup1\n              revert\n            tag_93:\n              pop\n              gas\n              staticcall\n              iszero\n              dup1\n              iszero\n              tag_95\n              jumpi\n              returndatasize\n              0x00\n              dup1\n              returndatacopy\n              revert(0x00, returndatasize)\n            tag_95:\n              pop\n              pop\n              pop\n              pop\n              mload(0x40)\n              returndatasize\n              not(0x1f)\n              0x1f\n              dup3\n              add\n              and\n              dup3\n              add\n              dup1\n              0x40\n              mstore\n              pop\n              dup2\n              add\n              swap1\n              tag_96\n              swap2\n              swap1\n              tag_97\n              jump\t// in\n            tag_96:\n                /* \"CharityDAO.sol\":5949:5988  require(instance.isAMember(msg.sender)) */\n              tag_98\n              jumpi\n              0x00\n              dup1\n              revert\n            tag_98:\n                /* \"CharityDAO.sol\":6008:6016  instance */\n              dup1\n                /* \"CharityDAO.sol\":6008:6024  instance.isAUser */\n              0xffffffffffffffffffffffffffffffffffffffff\n              and\n              0x018f5472\n                /* \"CharityDAO.sol\":6025:6035  msg.sender */\n              caller\n                /* \"CharityDAO.sol\":6008:6036  instance.isAUser(msg.sender) */\n              mload(0x40)\n              dup3\n              0xffffffff\n              and\n              0xe0\n              shl\n              dup2\n              mstore\n              0x04\n              add\n              tag_99\n              swap2\n              swap1\n              tag_82\n              jump\t// in\n            tag_99:\n              0x20\n              mload(0x40)\n              dup1\n              dup4\n              sub\n              dup2\n              dup7\n              dup1\n              extcodesize\n              iszero\n              dup1\n              iszero\n              tag_100\n              jumpi\n              0x00\n              dup1\n              revert\n            tag_100:\n              pop\n              gas\n              staticcall\n              iszero\n              dup1\n              iszero\n              tag_102\n              jumpi\n              returndatasize\n              0x00\n              dup1\n              returndatacopy\n              revert(0x00, returndatasize)\n            tag_102:\n              pop\n              pop\n              pop\n              pop\n              mload(0x40)\n              returndatasize\n              not(0x1f)\n              0x1f\n              dup3\n              add\n              and\n              dup3\n              add\n              dup1\n              0x40\n              mstore\n              pop\n              dup2\n              add\n              swap1\n              tag_103\n              swap2\n              swap1\n              tag_97\n              jump\t// in\n            tag_103:\n                /* \"CharityDAO.sol\":6007:6036  !instance.isAUser(msg.sender) */\n              iszero\n                /* \"CharityDAO.sol\":5999:6037  require(!instance.isAUser(msg.sender)) */\n              tag_104\n              jumpi\n              0x00\n              dup1\n              revert\n            tag_104:\n                /* \"CharityDAO.sol\":6057:6066  campaigns */\n              0x0c\n                /* \"CharityDAO.sol\":6057:6081  campaigns[campaignIndex] */\n              0x00\n                /* \"CharityDAO.sol\":6067:6080  campaignIndex */\n              dup4\n                /* \"CharityDAO.sol\":6057:6081  campaigns[campaignIndex] */\n              dup2\n              mstore\n              0x20\n              add\n              swap1\n              dup2\n              mstore\n              0x20\n              add\n              0x00\n              keccak256\n                /* \"CharityDAO.sol\":6057:6105  campaigns[campaignIndex].campaignApprovedMembers */\n              0x0a\n              add\n                /* \"CharityDAO.sol\":6057:6117  campaigns[campaignIndex].campaignApprovedMembers[msg.sender] */\n              0x00\n                /* \"CharityDAO.sol\":6106:6116  msg.sender */\n              caller\n                /* \"CharityDAO.sol\":6057:6117  campaigns[campaignIndex].campaignApprovedMembers[msg.sender] */\n              0xffffffffffffffffffffffffffffffffffffffff\n              and\n              0xffffffffffffffffffffffffffffffffffffffff\n              and\n              dup2\n              mstore\n              0x20\n              add\n              swap1\n              dup2\n              mstore\n              0x20\n              add\n              0x00\n              keccak256\n              0x00\n              swap1\n              sload\n              swap1\n              0x0100\n              exp\n              swap1\n              div\n              0xff\n              and\n                /* \"CharityDAO.sol\":6056:6117  !campaigns[campaignIndex].campaignApprovedMembers[msg.sender] */\n              iszero\n                /* \"CharityDAO.sol\":6048:6118  require(!campaigns[campaignIndex].campaignApprovedMembers[msg.sender]) */\n              tag_105\n              jumpi\n              0x00\n              dup1\n              revert\n            tag_105:\n                /* \"CharityDAO.sol\":6138:6147  campaigns */\n              0x0c\n                /* \"CharityDAO.sol\":6138:6162  campaigns[campaignIndex] */\n              0x00\n                /* \"CharityDAO.sol\":6148:6161  campaignIndex */\n              dup4\n                /* \"CharityDAO.sol\":6138:6162  campaigns[campaignIndex] */\n              dup2\n              mstore\n              0x20\n              add\n              swap1\n              dup2\n              mstore\n              0x20\n              add\n              0x00\n              keccak256\n                /* \"CharityDAO.sol\":6138:6186  campaigns[campaignIndex].campaignRejectedMembers */\n              0x0b\n              add\n                /* \"CharityDAO.sol\":6138:6198  campaigns[campaignIndex].campaignRejectedMembers[msg.sender] */\n              0x00\n                /* \"CharityDAO.sol\":6187:6197  msg.sender */\n              caller\n                /* \"CharityDAO.sol\":6138:6198  campaigns[campaignIndex].campaignRejectedMembers[msg.sender] */\n              0xffffffffffffffffffffffffffffffffffffffff\n              and\n              0xffffffffffffffffffffffffffffffffffffffff\n              and\n              dup2\n              mstore\n              0x20\n              add\n              swap1\n              dup2\n              mstore\n              0x20\n              add\n              0x00\n              keccak256\n              0x00\n              swap1\n              sload\n              swap1\n              0x0100\n              exp\n              swap1\n              div\n              0xff\n              and\n                /* \"CharityDAO.sol\":6137:6198  !campaigns[campaignIndex].campaignRejectedMembers[msg.sender] */\n              iszero\n                /* \"CharityDAO.sol\":6129:6199  require(!campaigns[campaignIndex].campaignRejectedMembers[msg.sender]) */\n              tag_106\n              jumpi\n              0x00\n              dup1\n              revert\n            tag_106:\n                /* \"CharityDAO.sol\":6219:6228  campaigns */\n              0x0c\n                /* \"CharityDAO.sol\":6219:6243  campaigns[campaignIndex] */\n              0x00\n                /* \"CharityDAO.sol\":6229:6242  campaignIndex */\n              dup4\n                /* \"CharityDAO.sol\":6219:6243  campaigns[campaignIndex] */\n              dup2\n              mstore\n              0x20\n              add\n              swap1\n              dup2\n              mstore\n              0x20\n              add\n              0x00\n              keccak256\n                /* \"CharityDAO.sol\":6219:6254  campaigns[campaignIndex].isApproved */\n              0x09\n              add\n              0x00\n              swap1\n              sload\n              swap1\n              0x0100\n              exp\n              swap1\n              div\n              0xff\n              and\n                /* \"CharityDAO.sol\":6218:6254  !campaigns[campaignIndex].isApproved */\n              iszero\n                /* \"CharityDAO.sol\":6210:6255  require(!campaigns[campaignIndex].isApproved) */\n              tag_107\n              jumpi\n              0x00\n              dup1\n              revert\n            tag_107:\n                /* \"CharityDAO.sol\":6275:6284  campaigns */\n              0x0c\n                /* \"CharityDAO.sol\":6275:6299  campaigns[campaignIndex] */\n              0x00\n                /* \"CharityDAO.sol\":6285:6298  campaignIndex */\n              dup4\n                /* \"CharityDAO.sol\":6275:6299  campaigns[campaignIndex] */\n              dup2\n              mstore\n              0x20\n              add\n              swap1\n              dup2\n              mstore\n              0x20\n              add\n              0x00\n              keccak256\n                /* \"CharityDAO.sol\":6275:6310  campaigns[campaignIndex].isRejected */\n              0x09\n              add\n              0x01\n              swap1\n              sload\n              swap1\n              0x0100\n              exp\n              swap1\n              div\n              0xff\n              and\n                /* \"CharityDAO.sol\":6274:6310  !campaigns[campaignIndex].isRejected */\n              iszero\n                /* \"CharityDAO.sol\":6266:6311  require(!campaigns[campaignIndex].isRejected) */\n              tag_108\n              jumpi\n              0x00\n              dup1\n              revert\n            tag_108:\n                /* \"CharityDAO.sol\":6324:6333  campaigns */\n              0x0c\n                /* \"CharityDAO.sol\":6324:6348  campaigns[campaignIndex] */\n              0x00\n                /* \"CharityDAO.sol\":6334:6347  campaignIndex */\n              dup4\n                /* \"CharityDAO.sol\":6324:6348  campaigns[campaignIndex] */\n              dup2\n              mstore\n              0x20\n              add\n              swap1\n              dup2\n              mstore\n              0x20\n              add\n              0x00\n              keccak256\n                /* \"CharityDAO.sol\":6324:6360  campaigns[campaignIndex].rejectCount */\n              0x08\n              add\n              0x00\n                /* \"CharityDAO.sol\":6324:6362  campaigns[campaignIndex].rejectCount++ */\n              dup2\n              sload\n              dup1\n              swap3\n              swap2\n              swap1\n              tag_109\n              swap1\n              tag_110\n              jump\t// in\n            tag_109:\n              swap2\n              swap1\n              pop\n              sstore\n              pop\n                /* \"CharityDAO.sol\":6436:6440  true */\n              0x01\n                /* \"CharityDAO.sol\":6373:6382  campaigns */\n              0x0c\n                /* \"CharityDAO.sol\":6373:6397  campaigns[campaignIndex] */\n              0x00\n                /* \"CharityDAO.sol\":6383:6396  campaignIndex */\n              dup5\n                /* \"CharityDAO.sol\":6373:6397  campaigns[campaignIndex] */\n              dup2\n              mstore\n              0x20\n              add\n              swap1\n              dup2\n              mstore\n              0x20\n              add\n              0x00\n              keccak256\n                /* \"CharityDAO.sol\":6373:6421  campaigns[campaignIndex].campaignRejectedMembers */\n              0x0b\n              add\n                /* \"CharityDAO.sol\":6373:6433  campaigns[campaignIndex].campaignRejectedMembers[msg.sender] */\n              0x00\n                /* \"CharityDAO.sol\":6422:6432  msg.sender */\n              caller\n                /* \"CharityDAO.sol\":6373:6433  campaigns[campaignIndex].campaignRejectedMembers[msg.sender] */\n              0xffffffffffffffffffffffffffffffffffffffff\n              and\n              0xffffffffffffffffffffffffffffffffffffffff\n              and\n              dup2\n              mstore\n              0x20\n              add\n              swap1\n              dup2\n              mstore\n              0x20\n              add\n              0x00\n              keccak256\n              0x00\n                /* \"CharityDAO.sol\":6373:6440  campaigns[campaignIndex].campaignRejectedMembers[msg.sender] = true */\n              0x0100\n              exp\n              dup2\n              sload\n              dup2\n              0xff\n              mul\n              not\n              and\n              swap1\n              dup4\n              iszero\n              iszero\n              mul\n              or\n              swap1\n              sstore\n              pop\n                /* \"CharityDAO.sol\":6530:6531  2 */\n              0x02\n                /* \"CharityDAO.sol\":6504:6512  instance */\n              dup2\n                /* \"CharityDAO.sol\":6504:6527  instance.getMemberCount */\n              0xffffffffffffffffffffffffffffffffffffffff\n              and\n              0x997072f7\n                /* \"CharityDAO.sol\":6504:6529  instance.getMemberCount() */\n              mload(0x40)\n              dup2\n              0xffffffff\n              and\n              0xe0\n              shl\n              dup2\n              mstore\n              0x04\n              add\n              0x20\n              mload(0x40)\n              dup1\n              dup4\n              sub\n              dup2\n              dup7\n              dup1\n              extcodesize\n              iszero\n              dup1\n              iszero\n              tag_111\n              jumpi\n              0x00\n              dup1\n              revert\n            tag_111:\n              pop\n              gas\n              staticcall\n              iszero\n              dup1\n              iszero\n              tag_113\n              jumpi\n              returndatasize\n              0x00\n              dup1\n              returndatacopy\n              revert(0x00, returndatasize)\n            tag_113:\n              pop\n              pop\n              pop\n              pop\n              mload(0x40)\n              returndatasize\n              not(0x1f)\n              0x1f\n              dup3\n              add\n              and\n              dup3\n              add\n              dup1\n              0x40\n              mstore\n              pop\n              dup2\n              add\n              swap1\n              tag_114\n              swap2\n              swap1\n              tag_115\n              jump\t// in\n            tag_114:\n                /* \"CharityDAO.sol\":6504:6531  instance.getMemberCount()/2 */\n              tag_116\n              swap2\n              swap1\n              tag_117\n              jump\t// in\n            tag_116:\n                /* \"CharityDAO.sol\":6464:6473  campaigns */\n              0x0c\n                /* \"CharityDAO.sol\":6464:6488  campaigns[campaignIndex] */\n              0x00\n                /* \"CharityDAO.sol\":6474:6487  campaignIndex */\n              dup5\n                /* \"CharityDAO.sol\":6464:6488  campaigns[campaignIndex] */\n              dup2\n              mstore\n              0x20\n              add\n              swap1\n              dup2\n              mstore\n              0x20\n              add\n              0x00\n              keccak256\n                /* \"CharityDAO.sol\":6464:6500  campaigns[campaignIndex].rejectCount */\n              0x08\n              add\n              sload\n                /* \"CharityDAO.sol\":6464:6532  campaigns[campaignIndex].rejectCount > (instance.getMemberCount()/2) */\n              gt\n                /* \"CharityDAO.sol\":6461:6603  if(campaigns[campaignIndex].rejectCount > (instance.getMemberCount()/2)) {... */\n              iszero\n              tag_118\n              jumpi\n                /* \"CharityDAO.sol\":6587:6591  true */\n              0x01\n                /* \"CharityDAO.sol\":6549:6558  campaigns */\n              0x0c\n                /* \"CharityDAO.sol\":6549:6573  campaigns[campaignIndex] */\n              0x00\n                /* \"CharityDAO.sol\":6559:6572  campaignIndex */\n              dup5\n                /* \"CharityDAO.sol\":6549:6573  campaigns[campaignIndex] */\n              dup2\n              mstore\n              0x20\n              add\n              swap1\n              dup2\n              mstore\n              0x20\n              add\n              0x00\n              keccak256\n                /* \"CharityDAO.sol\":6549:6584  campaigns[campaignIndex].isRejected */\n              0x09\n              add\n              0x01\n                /* \"CharityDAO.sol\":6549:6591  campaigns[campaignIndex].isRejected = true */\n              0x0100\n              exp\n              dup2\n              sload\n              dup2\n              0xff\n              mul\n              not\n              and\n              swap1\n              dup4\n              iszero\n              iszero\n              mul\n              or\n              swap1\n              sstore\n              pop\n                /* \"CharityDAO.sol\":6461:6603  if(campaigns[campaignIndex].rejectCount > (instance.getMemberCount()/2)) {... */\n            tag_118:\n                /* \"CharityDAO.sol\":5897:6610  {... */\n              pop\n                /* \"CharityDAO.sol\":5846:6610  function rejectCampaign(uint campaignIndex) public {... */\n              pop\n              jump\t// out\n                /* \"CharityDAO.sol\":1693:1711  string public name */\n            tag_30:\n              0x00\n              dup1\n              sload\n              tag_119\n              swap1\n              tag_120\n              jump\t// in\n            tag_119:\n              dup1\n              0x1f\n              add\n              0x20\n              dup1\n              swap2\n              div\n              mul\n              0x20\n              add\n              mload(0x40)\n              swap1\n              dup2\n              add\n              0x40\n              mstore\n              dup1\n              swap3\n              swap2\n              swap1\n              dup2\n              dup2\n              mstore\n              0x20\n              add\n              dup3\n              dup1\n              sload\n              tag_121\n              swap1\n              tag_120\n              jump\t// in\n            tag_121:\n              dup1\n              iszero\n              tag_122\n              jumpi\n              dup1\n              0x1f\n              lt\n              tag_123\n              jumpi\n              0x0100\n              dup1\n              dup4\n              sload\n              div\n              mul\n              dup4\n              mstore\n              swap2\n              0x20\n              add\n              swap2\n              jump(tag_122)\n            tag_123:\n              dup3\n              add\n              swap2\n              swap1\n              0x00\n              mstore\n              keccak256(0x00, 0x20)\n              swap1\n            tag_124:\n              dup2\n              sload\n              dup2\n              mstore\n              swap1\n              0x01\n              add\n              swap1\n              0x20\n              add\n              dup1\n              dup4\n              gt\n              tag_124\n              jumpi\n              dup3\n              swap1\n              sub\n              0x1f\n              and\n              dup3\n              add\n              swap2\n            tag_122:\n              pop\n              pop\n              pop\n              pop\n              pop\n              dup2\n              jump\t// out\n                /* \"CharityDAO.sol\":2619:2661  mapping(uint => Campaign) public campaigns */\n            tag_35:\n              mstore(0x20, 0x0c)\n              dup1\n              0x00\n              mstore\n              keccak256(0x00, 0x40)\n              0x00\n              swap2\n              pop\n              swap1\n              pop\n              dup1\n              0x00\n              add\n              dup1\n              sload\n              tag_125\n              swap1\n              tag_120\n              jump\t// in\n            tag_125:\n              dup1\n              0x1f\n              add\n              0x20\n              dup1\n              swap2\n              div\n              mul\n              0x20\n              add\n              mload(0x40)\n              swap1\n              dup2\n              add\n              0x40\n              mstore\n              dup1\n              swap3\n              swap2\n              swap1\n              dup2\n              dup2\n              mstore\n              0x20\n              add\n              dup3\n              dup1\n              sload\n              tag_126\n              swap1\n              tag_120\n              jump\t// in\n            tag_126:\n              dup1\n              iszero\n              tag_127\n              jumpi\n              dup1\n              0x1f\n              lt\n              tag_128\n              jumpi\n              0x0100\n              dup1\n              dup4\n              sload\n              div\n              mul\n              dup4\n              mstore\n              swap2\n              0x20\n              add\n              swap2\n              jump(tag_127)\n            tag_128:\n              dup3\n              add\n              swap2\n              swap1\n              0x00\n              mstore\n              keccak256(0x00, 0x20)\n              swap1\n            tag_129:\n              dup2\n              sload\n              dup2\n              mstore\n              swap1\n              0x01\n              add\n              swap1\n              0x20\n              add\n              dup1\n              dup4\n              gt\n              tag_129\n              jumpi\n              dup3\n              swap1\n              sub\n              0x1f\n              and\n              dup3\n              add\n              swap2\n            tag_127:\n              pop\n              pop\n              pop\n              pop\n              pop\n              swap1\n              dup1\n              0x01\n              add\n              dup1\n              sload\n              tag_130\n              swap1\n              tag_120\n              jump\t// in\n            tag_130:\n              dup1\n              0x1f\n              add\n              0x20\n              dup1\n              swap2\n              div\n              mul\n              0x20\n              add\n              mload(0x40)\n              swap1\n              dup2\n              add\n              0x40\n              mstore\n              dup1\n              swap3\n              swap2\n              swap1\n              dup2\n              dup2\n              mstore\n              0x20\n              add\n              dup3\n              dup1\n              sload\n              tag_131\n              swap1\n              tag_120\n              jump\t// in\n            tag_131:\n              dup1\n              iszero\n              tag_132\n              jumpi\n              dup1\n              0x1f\n              lt\n              tag_133\n              jumpi\n              0x0100\n              dup1\n              dup4\n              sload\n              div\n              mul\n              dup4\n              mstore\n              swap2\n              0x20\n              add\n              swap2\n              jump(tag_132)\n            tag_133:\n              dup3\n              add\n              swap2\n              swap1\n              0x00\n              mstore\n              keccak256(0x00, 0x20)\n              swap1\n            tag_134:\n              dup2\n              sload\n              dup2\n              mstore\n              swap1\n              0x01\n              add\n              swap1\n              0x20\n              add\n              dup1\n              dup4\n              gt\n              tag_134\n              jumpi\n              dup3\n              swap1\n              sub\n              0x1f\n              and\n              dup3\n              add\n              swap2\n            tag_132:\n              pop\n              pop\n              pop\n              pop\n              pop\n              swap1\n              dup1\n              0x02\n              add\n              dup1\n              sload\n              tag_135\n              swap1\n              tag_120\n              jump\t// in\n            tag_135:\n              dup1\n              0x1f\n              add\n              0x20\n              dup1\n              swap2\n              div\n              mul\n              0x20\n              add\n              mload(0x40)\n              swap1\n              dup2\n              add\n              0x40\n              mstore\n              dup1\n              swap3\n              swap2\n              swap1\n              dup2\n              dup2\n              mstore\n              0x20\n              add\n              dup3\n              dup1\n              sload\n              tag_136\n              swap1\n              tag_120\n              jump\t// in\n            tag_136:\n              dup1\n              iszero\n              tag_137\n              jumpi\n              dup1\n              0x1f\n              lt\n              tag_138\n              jumpi\n              0x0100\n              dup1\n              dup4\n              sload\n              div\n              mul\n              dup4\n              mstore\n              swap2\n              0x20\n              add\n              swap2\n              jump(tag_137)\n            tag_138:\n              dup3\n              add\n              swap2\n              swap1\n              0x00\n              mstore\n              keccak256(0x00, 0x20)\n              swap1\n            tag_139:\n              dup2\n              sload\n              dup2\n              mstore\n              swap1\n              0x01\n              add\n              swap1\n              0x20\n              add\n              dup1\n              dup4\n              gt\n              tag_139\n              jumpi\n              dup3\n              swap1\n              sub\n              0x1f\n              and\n              dup3\n              add\n              swap2\n            tag_137:\n              pop\n              pop\n              pop\n              pop\n              pop\n              swap1\n              dup1\n              0x03\n              add\n              dup1\n              sload\n              tag_140\n              swap1\n              tag_120\n              jump\t// in\n            tag_140:\n              dup1\n              0x1f\n              add\n              0x20\n              dup1\n              swap2\n              div\n              mul\n              0x20\n              add\n              mload(0x40)\n              swap1\n              dup2\n              add\n              0x40\n              mstore\n              dup1\n              swap3\n              swap2\n              swap1\n              dup2\n              dup2\n              mstore\n              0x20\n              add\n              dup3\n              dup1\n              sload\n              tag_141\n              swap1\n              tag_120\n              jump\t// in\n            tag_141:\n              dup1\n              iszero\n              tag_142\n              jumpi\n              dup1\n              0x1f\n              lt\n              tag_143\n              jumpi\n              0x0100\n              dup1\n              dup4\n              sload\n              div\n              mul\n              dup4\n              mstore\n              swap2\n              0x20\n              add\n              swap2\n              jump(tag_142)\n            tag_143:\n              dup3\n              add\n              swap2\n              swap1\n              0x00\n              mstore\n              keccak256(0x00, 0x20)\n              swap1\n            tag_144:\n              dup2\n              sload\n              dup2\n              mstore\n              swap1\n              0x01\n              add\n              swap1\n              0x20\n              add\n              dup1\n              dup4\n              gt\n              tag_144\n              jumpi\n              dup3\n              swap1\n              sub\n              0x1f\n              and\n              dup3\n              add\n              swap2\n            tag_142:\n              pop\n              pop\n              pop\n              pop\n              pop\n              swap1\n              dup1\n              0x04\n              add\n              dup1\n              sload\n              tag_145\n              swap1\n              tag_120\n              jump\t// in\n            tag_145:\n              dup1\n              0x1f\n              add\n              0x20\n              dup1\n              swap2\n              div\n              mul\n              0x20\n              add\n              mload(0x40)\n              swap1\n              dup2\n              add\n              0x40\n              mstore\n              dup1\n              swap3\n              swap2\n              swap1\n              dup2\n              dup2\n              mstore\n              0x20\n              add\n              dup3\n              dup1\n              sload\n              tag_146\n              swap1\n              tag_120\n              jump\t// in\n            tag_146:\n              dup1\n              iszero\n              tag_147\n              jumpi\n              dup1\n              0x1f\n              lt\n              tag_148\n              jumpi\n              0x0100\n              dup1\n              dup4\n              sload\n              div\n              mul\n              dup4\n              mstore\n              swap2\n              0x20\n              add\n              swap2\n              jump(tag_147)\n            tag_148:\n              dup3\n              add\n              swap2\n              swap1\n              0x00\n              mstore\n              keccak256(0x00, 0x20)\n              swap1\n            tag_149:\n              dup2\n              sload\n              dup2\n              mstore\n              swap1\n              0x01\n              add\n              swap1\n              0x20\n              add\n              dup1\n              dup4\n              gt\n              tag_149\n              jumpi\n              dup3\n              swap1\n              sub\n              0x1f\n              and\n              dup3\n              add\n              swap2\n            tag_147:\n              pop\n              pop\n              pop\n              pop\n              pop\n              swap1\n              dup1\n              0x05\n              add\n              0x00\n              swap1\n              sload\n              swap1\n              0x0100\n              exp\n              swap1\n              div\n              0xffffffffffffffffffffffffffffffffffffffff\n              and\n              swap1\n              dup1\n              0x05\n              add\n              0x14\n              swap1\n              sload\n              swap1\n              0x0100\n              exp\n              swap1\n              div\n              0xff\n              and\n              swap1\n              dup1\n              0x06\n              add\n              sload\n              swap1\n              dup1\n              0x07\n              add\n              sload\n              swap1\n              dup1\n              0x08\n              add\n              sload\n              swap1\n              dup1\n              0x09\n              add\n              0x00\n              swap1\n              sload\n              swap1\n              0x0100\n              exp\n              swap1\n              div\n              0xff\n              and\n              swap1\n              dup1\n              0x09\n              add\n              0x01\n              swap1\n              sload\n              swap1\n              0x0100\n              exp\n              swap1\n              div\n              0xff\n              and\n              swap1\n              pop\n              dup13\n              jump\t// out\n                /* \"CharityDAO.sol\":3620:4080  function rejectUser() public {... */\n            tag_39:\n                /* \"CharityDAO.sol\":3660:3672  DAO instance */\n              0x00\n                /* \"CharityDAO.sol\":3679:3689  DAOAddress */\n              0x0a\n              0x00\n              swap1\n              sload\n              swap1\n              0x0100\n              exp\n              swap1\n              div\n              0xffffffffffffffffffffffffffffffffffffffff\n              and\n                /* \"CharityDAO.sol\":3660:3690  DAO instance = DAO(DAOAddress) */\n              swap1\n              pop\n                /* \"CharityDAO.sol\":3709:3717  instance */\n              dup1\n                /* \"CharityDAO.sol\":3709:3727  instance.isAMember */\n              0xffffffffffffffffffffffffffffffffffffffff\n              and\n              0x5d672a62\n                /* \"CharityDAO.sol\":3728:3738  msg.sender */\n              caller\n                /* \"CharityDAO.sol\":3709:3739  instance.isAMember(msg.sender) */\n              mload(0x40)\n              dup3\n              0xffffffff\n              and\n              0xe0\n              shl\n              dup2\n              mstore\n              0x04\n              add\n              tag_151\n              swap2\n              swap1\n              tag_82\n              jump\t// in\n            tag_151:\n              0x20\n              mload(0x40)\n              dup1\n              dup4\n              sub\n              dup2\n              dup7\n              dup1\n              extcodesize\n              iszero\n              dup1\n              iszero\n              tag_152\n              jumpi\n              0x00\n              dup1\n              revert\n            tag_152:\n              pop\n              gas\n              staticcall\n              iszero\n              dup1\n              iszero\n              tag_154\n              jumpi\n              returndatasize\n              0x00\n              dup1\n              returndatacopy\n              revert(0x00, returndatasize)\n            tag_154:\n              pop\n              pop\n              pop\n              pop\n              mload(0x40)\n              returndatasize\n              not(0x1f)\n              0x1f\n              dup3\n              add\n              and\n              dup3\n              add\n              dup1\n              0x40\n              mstore\n              pop\n              dup2\n              add\n              swap1\n              tag_155\n              swap2\n              swap1\n              tag_97\n              jump\t// in\n            tag_155:\n                /* \"CharityDAO.sol\":3701:3740  require(instance.isAMember(msg.sender)) */\n              tag_156\n              jumpi\n              0x00\n              dup1\n              revert\n            tag_156:\n                /* \"CharityDAO.sol\":3760:3775  approvedMembers */\n              0x08\n                /* \"CharityDAO.sol\":3760:3787  approvedMembers[msg.sender] */\n              0x00\n                /* \"CharityDAO.sol\":3776:3786  msg.sender */\n              caller\n                /* \"CharityDAO.sol\":3760:3787  approvedMembers[msg.sender] */\n              0xffffffffffffffffffffffffffffffffffffffff\n              and\n              0xffffffffffffffffffffffffffffffffffffffff\n              and\n              dup2\n              mstore\n              0x20\n              add\n              swap1\n              dup2\n              mstore\n              0x20\n              add\n              0x00\n              keccak256\n              0x00\n              swap1\n              sload\n              swap1\n              0x0100\n              exp\n              swap1\n              div\n              0xff\n              and\n                /* \"CharityDAO.sol\":3759:3787  !approvedMembers[msg.sender] */\n              iszero\n                /* \"CharityDAO.sol\":3751:3788  require(!approvedMembers[msg.sender]) */\n              tag_157\n              jumpi\n              0x00\n              dup1\n              revert\n            tag_157:\n                /* \"CharityDAO.sol\":3808:3823  rejectedMembers */\n              0x09\n                /* \"CharityDAO.sol\":3808:3835  rejectedMembers[msg.sender] */\n              0x00\n                /* \"CharityDAO.sol\":3824:3834  msg.sender */\n              caller\n                /* \"CharityDAO.sol\":3808:3835  rejectedMembers[msg.sender] */\n              0xffffffffffffffffffffffffffffffffffffffff\n              and\n              0xffffffffffffffffffffffffffffffffffffffff\n              and\n              dup2\n              mstore\n              0x20\n              add\n              swap1\n              dup2\n              mstore\n              0x20\n              add\n              0x00\n              keccak256\n              0x00\n              swap1\n              sload\n              swap1\n              0x0100\n              exp\n              swap1\n              div\n              0xff\n              and\n                /* \"CharityDAO.sol\":3807:3835  !rejectedMembers[msg.sender] */\n              iszero\n                /* \"CharityDAO.sol\":3799:3836  require(!rejectedMembers[msg.sender]) */\n              tag_158\n              jumpi\n              0x00\n              dup1\n              revert\n            tag_158:\n                /* \"CharityDAO.sol\":3856:3866  isApproved */\n              0x07\n              0x00\n              swap1\n              sload\n              swap1\n              0x0100\n              exp\n              swap1\n              div\n              0xff\n              and\n                /* \"CharityDAO.sol\":3855:3866  !isApproved */\n              iszero\n                /* \"CharityDAO.sol\":3847:3867  require(!isApproved) */\n              tag_159\n              jumpi\n              0x00\n              dup1\n              revert\n            tag_159:\n                /* \"CharityDAO.sol\":3887:3897  isRejected */\n              0x07\n              0x01\n              swap1\n              sload\n              swap1\n              0x0100\n              exp\n              swap1\n              div\n              0xff\n              and\n                /* \"CharityDAO.sol\":3886:3897  !isRejected */\n              iszero\n                /* \"CharityDAO.sol\":3878:3898  require(!isRejected) */\n              tag_160\n              jumpi\n              0x00\n              dup1\n              revert\n            tag_160:\n                /* \"CharityDAO.sol\":3939:3943  true */\n              0x01\n                /* \"CharityDAO.sol\":3909:3924  rejectedMembers */\n              0x09\n                /* \"CharityDAO.sol\":3909:3936  rejectedMembers[msg.sender] */\n              0x00\n                /* \"CharityDAO.sol\":3925:3935  msg.sender */\n              caller\n                /* \"CharityDAO.sol\":3909:3936  rejectedMembers[msg.sender] */\n              0xffffffffffffffffffffffffffffffffffffffff\n              and\n              0xffffffffffffffffffffffffffffffffffffffff\n              and\n              dup2\n              mstore\n              0x20\n              add\n              swap1\n              dup2\n              mstore\n              0x20\n              add\n              0x00\n              keccak256\n              0x00\n                /* \"CharityDAO.sol\":3909:3943  rejectedMembers[msg.sender] = true */\n              0x0100\n              exp\n              dup2\n              sload\n              dup2\n              0xff\n              mul\n              not\n              and\n              swap1\n              dup4\n              iszero\n              iszero\n              mul\n              or\n              swap1\n              sstore\n              pop\n                /* \"CharityDAO.sol\":3954:3965  rejectCount */\n              0x06\n              0x00\n                /* \"CharityDAO.sol\":3954:3967  rejectCount++ */\n              dup2\n              sload\n              dup1\n              swap3\n              swap2\n              swap1\n              tag_161\n              swap1\n              tag_110\n              jump\t// in\n            tag_161:\n              swap2\n              swap1\n              pop\n              sstore\n              pop\n                /* \"CharityDAO.sol\":4026:4027  2 */\n              0x02\n                /* \"CharityDAO.sol\":3998:4006  instance */\n              dup2\n                /* \"CharityDAO.sol\":3998:4021  instance.getMemberCount */\n              0xffffffffffffffffffffffffffffffffffffffff\n              and\n              0x997072f7\n                /* \"CharityDAO.sol\":3998:4023  instance.getMemberCount() */\n              mload(0x40)\n              dup2\n              0xffffffff\n              and\n              0xe0\n              shl\n              dup2\n              mstore\n              0x04\n              add\n              0x20\n              mload(0x40)\n              dup1\n              dup4\n              sub\n              dup2\n              dup7\n              dup1\n              extcodesize\n              iszero\n              dup1\n              iszero\n              tag_162\n              jumpi\n              0x00\n              dup1\n              revert\n            tag_162:\n              pop\n              gas\n              staticcall\n              iszero\n              dup1\n              iszero\n              tag_164\n              jumpi\n              returndatasize\n              0x00\n              dup1\n              returndatacopy\n              revert(0x00, returndatasize)\n            tag_164:\n              pop\n              pop\n              pop\n              pop\n              mload(0x40)\n              returndatasize\n              not(0x1f)\n              0x1f\n              dup3\n              add\n              and\n              dup3\n              add\n              dup1\n              0x40\n              mstore\n              pop\n              dup2\n              add\n              swap1\n              tag_165\n              swap2\n              swap1\n              tag_115\n              jump\t// in\n            tag_165:\n                /* \"CharityDAO.sol\":3998:4027  instance.getMemberCount() / 2 */\n              tag_166\n              swap2\n              swap1\n              tag_117\n              jump\t// in\n            tag_166:\n                /* \"CharityDAO.sol\":3983:3994  rejectCount */\n              sload(0x06)\n                /* \"CharityDAO.sol\":3983:4028  rejectCount > (instance.getMemberCount() / 2) */\n              gt\n                /* \"CharityDAO.sol\":3980:4073  if(rejectCount > (instance.getMemberCount() / 2)){... */\n              iszero\n              tag_167\n              jumpi\n                /* \"CharityDAO.sol\":4057:4061  true */\n              0x01\n                /* \"CharityDAO.sol\":4044:4054  isRejected */\n              0x07\n              0x01\n                /* \"CharityDAO.sol\":4044:4061  isRejected = true */\n              0x0100\n              exp\n              dup2\n              sload\n              dup2\n              0xff\n              mul\n              not\n              and\n              swap1\n              dup4\n              iszero\n              iszero\n              mul\n              or\n              swap1\n              sstore\n              pop\n                /* \"CharityDAO.sol\":3980:4073  if(rejectCount > (instance.getMemberCount() / 2)){... */\n            tag_167:\n                /* \"CharityDAO.sol\":3649:4080  {... */\n              pop\n                /* \"CharityDAO.sol\":3620:4080  function rejectUser() public {... */\n              jump\t// out\n                /* \"CharityDAO.sol\":1896:1918  bool public isApproved */\n            tag_41:\n              0x07\n              0x00\n              swap1\n              sload\n              swap1\n              0x0100\n              exp\n              swap1\n              div\n              0xff\n              and\n              dup2\n              jump\t// out\n                /* \"CharityDAO.sol\":6618:7050  function finalizeTransaction(uint campaignIndex) public {... */\n            tag_46:\n                /* \"CharityDAO.sol\":6685:6697  DAO instance */\n              0x00\n                /* \"CharityDAO.sol\":6704:6714  DAOAddress */\n              0x0a\n              0x00\n              swap1\n              sload\n              swap1\n              0x0100\n              exp\n              swap1\n              div\n              0xffffffffffffffffffffffffffffffffffffffff\n              and\n                /* \"CharityDAO.sol\":6685:6715  DAO instance = DAO(DAOAddress) */\n              swap1\n              pop\n                /* \"CharityDAO.sol\":6734:6742  instance */\n              dup1\n                /* \"CharityDAO.sol\":6734:6750  instance.isAUser */\n              0xffffffffffffffffffffffffffffffffffffffff\n              and\n              0x018f5472\n                /* \"CharityDAO.sol\":6751:6761  msg.sender */\n              caller\n                /* \"CharityDAO.sol\":6734:6762  instance.isAUser(msg.sender) */\n              mload(0x40)\n              dup3\n              0xffffffff\n              and\n              0xe0\n              shl\n              dup2\n              mstore\n              0x04\n              add\n              tag_169\n              swap2\n              swap1\n              tag_82\n              jump\t// in\n            tag_169:\n              0x20\n              mload(0x40)\n              dup1\n              dup4\n              sub\n              dup2\n              dup7\n              dup1\n              extcodesize\n              iszero\n              dup1\n              iszero\n              tag_170\n              jumpi\n              0x00\n              dup1\n              revert\n            tag_170:\n              pop\n              gas\n              staticcall\n              iszero\n              dup1\n              iszero\n              tag_172\n              jumpi\n              returndatasize\n              0x00\n              dup1\n              returndatacopy\n              revert(0x00, returndatasize)\n            tag_172:\n              pop\n              pop\n              pop\n              pop\n              mload(0x40)\n              returndatasize\n              not(0x1f)\n              0x1f\n              dup3\n              add\n              and\n              dup3\n              add\n              dup1\n              0x40\n              mstore\n              pop\n              dup2\n              add\n              swap1\n              tag_173\n              swap2\n              swap1\n              tag_97\n              jump\t// in\n            tag_173:\n                /* \"CharityDAO.sol\":6726:6763  require(instance.isAUser(msg.sender)) */\n              tag_174\n              jumpi\n              0x00\n              dup1\n              revert\n            tag_174:\n                /* \"CharityDAO.sol\":6783:6791  instance */\n              dup1\n                /* \"CharityDAO.sol\":6783:6801  instance.isAMember */\n              0xffffffffffffffffffffffffffffffffffffffff\n              and\n              0x5d672a62\n                /* \"CharityDAO.sol\":6802:6812  msg.sender */\n              caller\n                /* \"CharityDAO.sol\":6783:6813  instance.isAMember(msg.sender) */\n              mload(0x40)\n              dup3\n              0xffffffff\n              and\n              0xe0\n              shl\n              dup2\n              mstore\n              0x04\n              add\n              tag_175\n              swap2\n              swap1\n              tag_82\n              jump\t// in\n            tag_175:\n              0x20\n              mload(0x40)\n              dup1\n              dup4\n              sub\n              dup2\n              dup7\n              dup1\n              extcodesize\n              iszero\n              dup1\n              iszero\n              tag_176\n              jumpi\n              0x00\n              dup1\n              revert\n            tag_176:\n              pop\n              gas\n              staticcall\n              iszero\n              dup1\n              iszero\n              tag_178\n              jumpi\n              returndatasize\n              0x00\n              dup1\n              returndatacopy\n              revert(0x00, returndatasize)\n            tag_178:\n              pop\n              pop\n              pop\n              pop\n              mload(0x40)\n              returndatasize\n              not(0x1f)\n              0x1f\n              dup3\n              add\n              and\n              dup3\n              add\n              dup1\n              0x40\n              mstore\n              pop\n              dup2\n              add\n              swap1\n              tag_179\n              swap2\n              swap1\n              tag_97\n              jump\t// in\n            tag_179:\n                /* \"CharityDAO.sol\":6782:6813  !instance.isAMember(msg.sender) */\n              iszero\n                /* \"CharityDAO.sol\":6774:6814  require(!instance.isAMember(msg.sender)) */\n              tag_180\n              jumpi\n              0x00\n              dup1\n              revert\n            tag_180:\n                /* \"CharityDAO.sol\":6833:6842  campaigns */\n              0x0c\n                /* \"CharityDAO.sol\":6833:6857  campaigns[campaignIndex] */\n              0x00\n                /* \"CharityDAO.sol\":6843:6856  campaignIndex */\n              dup4\n                /* \"CharityDAO.sol\":6833:6857  campaigns[campaignIndex] */\n              dup2\n              mstore\n              0x20\n              add\n              swap1\n              dup2\n              mstore\n              0x20\n              add\n              0x00\n              keccak256\n                /* \"CharityDAO.sol\":6833:6868  campaigns[campaignIndex].isApproved */\n              0x09\n              add\n              0x00\n              swap1\n              sload\n              swap1\n              0x0100\n              exp\n              swap1\n              div\n              0xff\n              and\n                /* \"CharityDAO.sol\":6825:6869  require(campaigns[campaignIndex].isApproved) */\n              tag_181\n              jumpi\n              0x00\n              dup1\n              revert\n            tag_181:\n                /* \"CharityDAO.sol\":6880:6905  Campaign storage campaign */\n              0x00\n                /* \"CharityDAO.sol\":6908:6917  campaigns */\n              0x0c\n                /* \"CharityDAO.sol\":6908:6932  campaigns[campaignIndex] */\n              0x00\n                /* \"CharityDAO.sol\":6918:6931  campaignIndex */\n              dup5\n                /* \"CharityDAO.sol\":6908:6932  campaigns[campaignIndex] */\n              dup2\n              mstore\n              0x20\n              add\n              swap1\n              dup2\n              mstore\n              0x20\n              add\n              0x00\n              keccak256\n                /* \"CharityDAO.sol\":6880:6932  Campaign storage campaign = campaigns[campaignIndex] */\n              swap1\n              pop\n                /* \"CharityDAO.sol\":6943:6951  instance */\n              dup2\n                /* \"CharityDAO.sol\":6943:6960  instance.transact */\n              0xffffffffffffffffffffffffffffffffffffffff\n              and\n              0xf77ac668\n                /* \"CharityDAO.sol\":6961:6969  campaign */\n              dup3\n                /* \"CharityDAO.sol\":6961:6979  campaign.recipient */\n              0x05\n              add\n              0x00\n              swap1\n              sload\n              swap1\n              0x0100\n              exp\n              swap1\n              div\n              0xffffffffffffffffffffffffffffffffffffffff\n              and\n                /* \"CharityDAO.sol\":6981:6989  campaign */\n              dup4\n                /* \"CharityDAO.sol\":6981:6995  campaign.value */\n              0x06\n              add\n              sload\n                /* \"CharityDAO.sol\":6943:6996  instance.transact(campaign.recipient, campaign.value) */\n              mload(0x40)\n              dup4\n              0xffffffff\n              and\n              0xe0\n              shl\n              dup2\n              mstore\n              0x04\n              add\n              tag_182\n              swap3\n              swap2\n              swap1\n              tag_183\n              jump\t// in\n            tag_182:\n              0x00\n              mload(0x40)\n              dup1\n              dup4\n              sub\n              dup2\n              0x00\n              dup8\n              dup1\n              extcodesize\n              iszero\n              dup1\n              iszero\n              tag_184\n              jumpi\n              0x00\n              dup1\n              revert\n            tag_184:\n              pop\n              gas\n              call\n              iszero\n              dup1\n              iszero\n              tag_186\n              jumpi\n              returndatasize\n              0x00\n              dup1\n              returndatacopy\n              revert(0x00, returndatasize)\n            tag_186:\n              pop\n              pop\n              pop\n              pop\n                /* \"CharityDAO.sol\":7038:7042  true */\n              0x01\n                /* \"CharityDAO.sol\":7007:7015  campaign */\n              dup2\n                /* \"CharityDAO.sol\":7007:7035  campaign.transactionComplete */\n              0x05\n              add\n              0x14\n                /* \"CharityDAO.sol\":7007:7042  campaign.transactionComplete = true */\n              0x0100\n              exp\n              dup2\n              sload\n              dup2\n              0xff\n              mul\n              not\n              and\n              swap1\n              dup4\n              iszero\n              iszero\n              mul\n              or\n              swap1\n              sstore\n              pop\n                /* \"CharityDAO.sol\":6674:7050  {... */\n              pop\n              pop\n                /* \"CharityDAO.sol\":6618:7050  function finalizeTransaction(uint campaignIndex) public {... */\n              pop\n              jump\t// out\n                /* \"CharityDAO.sol\":4092:5063  function createCampaign(string memory _title, string memory _description, string memory _recipientName, string memory _recipientPhone, string memory _recipientEmail, ... */\n            tag_50:\n                /* \"CharityDAO.sol\":4323:4335  DAO instance */\n              0x00\n                /* \"CharityDAO.sol\":4342:4352  DAOAddress */\n              0x0a\n              0x00\n              swap1\n              sload\n              swap1\n              0x0100\n              exp\n              swap1\n              div\n              0xffffffffffffffffffffffffffffffffffffffff\n              and\n                /* \"CharityDAO.sol\":4323:4353  DAO instance = DAO(DAOAddress) */\n              swap1\n              pop\n                /* \"CharityDAO.sol\":4372:4380  instance */\n              dup1\n                /* \"CharityDAO.sol\":4372:4388  instance.isAUser */\n              0xffffffffffffffffffffffffffffffffffffffff\n              and\n              0x018f5472\n                /* \"CharityDAO.sol\":4389:4399  msg.sender */\n              caller\n                /* \"CharityDAO.sol\":4372:4400  instance.isAUser(msg.sender) */\n              mload(0x40)\n              dup3\n              0xffffffff\n              and\n              0xe0\n              shl\n              dup2\n              mstore\n              0x04\n              add\n              tag_188\n              swap2\n              swap1\n              tag_82\n              jump\t// in\n            tag_188:\n              0x20\n              mload(0x40)\n              dup1\n              dup4\n              sub\n              dup2\n              dup7\n              dup1\n              extcodesize\n              iszero\n              dup1\n              iszero\n              tag_189\n              jumpi\n              0x00\n              dup1\n              revert\n            tag_189:\n              pop\n              gas\n              staticcall\n              iszero\n              dup1\n              iszero\n              tag_191\n              jumpi\n              returndatasize\n              0x00\n              dup1\n              returndatacopy\n              revert(0x00, returndatasize)\n            tag_191:\n              pop\n              pop\n              pop\n              pop\n              mload(0x40)\n              returndatasize\n              not(0x1f)\n              0x1f\n              dup3\n              add\n              and\n              dup3\n              add\n              dup1\n              0x40\n              mstore\n              pop\n              dup2\n              add\n              swap1\n              tag_192\n              swap2\n              swap1\n              tag_97\n              jump\t// in\n            tag_192:\n                /* \"CharityDAO.sol\":4364:4401  require(instance.isAUser(msg.sender)) */\n              tag_193\n              jumpi\n              0x00\n              dup1\n              revert\n            tag_193:\n                /* \"CharityDAO.sol\":4421:4429  instance */\n              dup1\n                /* \"CharityDAO.sol\":4421:4439  instance.isAMember */\n              0xffffffffffffffffffffffffffffffffffffffff\n              and\n              0x5d672a62\n                /* \"CharityDAO.sol\":4440:4450  msg.sender */\n              caller\n                /* \"CharityDAO.sol\":4421:4451  instance.isAMember(msg.sender) */\n              mload(0x40)\n              dup3\n              0xffffffff\n              and\n              0xe0\n              shl\n              dup2\n              mstore\n              0x04\n              add\n              tag_194\n              swap2\n              swap1\n              tag_82\n              jump\t// in\n            tag_194:\n              0x20\n              mload(0x40)\n              dup1\n              dup4\n              sub\n              dup2\n              dup7\n              dup1\n              extcodesize\n              iszero\n              dup1\n              iszero\n              tag_195\n              jumpi\n              0x00\n              dup1\n              revert\n            tag_195:\n              pop\n              gas\n              staticcall\n              iszero\n              dup1\n              iszero\n              tag_197\n              jumpi\n              returndatasize\n              0x00\n              dup1\n              returndatacopy\n              revert(0x00, returndatasize)\n            tag_197:\n              pop\n              pop\n              pop\n              pop\n              mload(0x40)\n              returndatasize\n              not(0x1f)\n              0x1f\n              dup3\n              add\n              and\n              dup3\n              add\n              dup1\n              0x40\n              mstore\n              pop\n              dup2\n              add\n              swap1\n              tag_198\n              swap2\n              swap1\n              tag_97\n              jump\t// in\n            tag_198:\n                /* \"CharityDAO.sol\":4420:4451  !instance.isAMember(msg.sender) */\n              iszero\n                /* \"CharityDAO.sol\":4412:4452  require(!instance.isAMember(msg.sender)) */\n              tag_199\n              jumpi\n              0x00\n              dup1\n              revert\n            tag_199:\n                /* \"CharityDAO.sol\":4471:4481  isApproved */\n              0x07\n              0x00\n              swap1\n              sload\n              swap1\n              0x0100\n              exp\n              swap1\n              div\n              0xff\n              and\n                /* \"CharityDAO.sol\":4471:4496  isApproved && !isRejected */\n              dup1\n              iszero\n              tag_200\n              jumpi\n              pop\n                /* \"CharityDAO.sol\":4486:4496  isRejected */\n              0x07\n              0x01\n              swap1\n              sload\n              swap1\n              0x0100\n              exp\n              swap1\n              div\n              0xff\n              and\n                /* \"CharityDAO.sol\":4485:4496  !isRejected */\n              iszero\n                /* \"CharityDAO.sol\":4471:4496  isApproved && !isRejected */\n            tag_200:\n                /* \"CharityDAO.sol\":4463:4497  require(isApproved && !isRejected) */\n              tag_201\n              jumpi\n              0x00\n              dup1\n              revert\n            tag_201:\n                /* \"CharityDAO.sol\":4510:4538  Campaign storage newCampaign */\n              0x00\n                /* \"CharityDAO.sol\":4541:4550  campaigns */\n              0x0c\n                /* \"CharityDAO.sol\":4541:4565  campaigns[numCampaign++] */\n              0x00\n                /* \"CharityDAO.sol\":4551:4562  numCampaign */\n              0x0b\n              0x00\n                /* \"CharityDAO.sol\":4551:4564  numCampaign++ */\n              dup2\n              sload\n              dup1\n              swap3\n              swap2\n              swap1\n              tag_202\n              swap1\n              tag_110\n              jump\t// in\n            tag_202:\n              swap2\n              swap1\n              pop\n              sstore\n                /* \"CharityDAO.sol\":4541:4565  campaigns[numCampaign++] */\n              dup2\n              mstore\n              0x20\n              add\n              swap1\n              dup2\n              mstore\n              0x20\n              add\n              0x00\n              keccak256\n                /* \"CharityDAO.sol\":4510:4565  Campaign storage newCampaign = campaigns[numCampaign++] */\n              swap1\n              pop\n                /* \"CharityDAO.sol\":4596:4602  _title */\n              dup9\n                /* \"CharityDAO.sol\":4576:4587  newCampaign */\n              dup2\n                /* \"CharityDAO.sol\":4576:4593  newCampaign.title */\n              0x00\n              add\n                /* \"CharityDAO.sol\":4576:4602  newCampaign.title = _title */\n              swap1\n              dup1\n              mload\n              swap1\n              0x20\n              add\n              swap1\n              tag_203\n              swap3\n              swap2\n              swap1\n              tag_204\n              jump\t// in\n            tag_203:\n              pop\n                /* \"CharityDAO.sol\":4639:4651  _description */\n              dup8\n                /* \"CharityDAO.sol\":4613:4624  newCampaign */\n              dup2\n                /* \"CharityDAO.sol\":4613:4636  newCampaign.description */\n              0x01\n              add\n                /* \"CharityDAO.sol\":4613:4651  newCampaign.description = _description */\n              swap1\n              dup1\n              mload\n              swap1\n              0x20\n              add\n              swap1\n              tag_205\n              swap3\n              swap2\n              swap1\n              tag_204\n              jump\t// in\n            tag_205:\n              pop\n                /* \"CharityDAO.sol\":4690:4704  _recipientName */\n              dup7\n                /* \"CharityDAO.sol\":4662:4673  newCampaign */\n              dup2\n                /* \"CharityDAO.sol\":4662:4687  newCampaign.recipientName */\n              0x02\n              add\n                /* \"CharityDAO.sol\":4662:4704  newCampaign.recipientName = _recipientName */\n              swap1\n              dup1\n              mload\n              swap1\n              0x20\n              add\n              swap1\n              tag_206\n              swap3\n              swap2\n              swap1\n              tag_204\n              jump\t// in\n            tag_206:\n              pop\n                /* \"CharityDAO.sol\":4744:4759  _recipientPhone */\n              dup6\n                /* \"CharityDAO.sol\":4715:4726  newCampaign */\n              dup2\n                /* \"CharityDAO.sol\":4715:4741  newCampaign.recipientPhone */\n              0x03\n              add\n                /* \"CharityDAO.sol\":4715:4759  newCampaign.recipientPhone = _recipientPhone */\n              swap1\n              dup1\n              mload\n              swap1\n              0x20\n              add\n              swap1\n              tag_207\n              swap3\n              swap2\n              swap1\n              tag_204\n              jump\t// in\n            tag_207:\n              pop\n                /* \"CharityDAO.sol\":4799:4814  _recipientEmail */\n              dup5\n                /* \"CharityDAO.sol\":4770:4781  newCampaign */\n              dup2\n                /* \"CharityDAO.sol\":4770:4796  newCampaign.recipientEmail */\n              0x04\n              add\n                /* \"CharityDAO.sol\":4770:4814  newCampaign.recipientEmail = _recipientEmail */\n              swap1\n              dup1\n              mload\n              swap1\n              0x20\n              add\n              swap1\n              tag_208\n              swap3\n              swap2\n              swap1\n              tag_204\n              jump\t// in\n            tag_208:\n              pop\n                /* \"CharityDAO.sol\":4849:4859  _recipient */\n              dup4\n                /* \"CharityDAO.sol\":4825:4836  newCampaign */\n              dup2\n                /* \"CharityDAO.sol\":4825:4846  newCampaign.recipient */\n              0x05\n              add\n              0x00\n                /* \"CharityDAO.sol\":4825:4859  newCampaign.recipient = _recipient */\n              0x0100\n              exp\n              dup2\n              sload\n              dup2\n              0xffffffffffffffffffffffffffffffffffffffff\n              mul\n              not\n              and\n              swap1\n              dup4\n              0xffffffffffffffffffffffffffffffffffffffff\n              and\n              mul\n              or\n              swap1\n              sstore\n              pop\n                /* \"CharityDAO.sol\":4890:4896  _value */\n              dup3\n                /* \"CharityDAO.sol\":4870:4881  newCampaign */\n              dup2\n                /* \"CharityDAO.sol\":4870:4887  newCampaign.value */\n              0x06\n              add\n                /* \"CharityDAO.sol\":4870:4896  newCampaign.value = _value */\n              dup2\n              swap1\n              sstore\n              pop\n                /* \"CharityDAO.sol\":4934:4935  0 */\n              0x00\n                /* \"CharityDAO.sol\":4907:4918  newCampaign */\n              dup2\n                /* \"CharityDAO.sol\":4907:4931  newCampaign.approveCount */\n              0x07\n              add\n                /* \"CharityDAO.sol\":4907:4935  newCampaign.approveCount = 0 */\n              dup2\n              swap1\n              sstore\n              pop\n                /* \"CharityDAO.sol\":4972:4973  0 */\n              0x00\n                /* \"CharityDAO.sol\":4946:4957  newCampaign */\n              dup2\n                /* \"CharityDAO.sol\":4946:4969  newCampaign.rejectCount */\n              0x08\n              add\n                /* \"CharityDAO.sol\":4946:4973  newCampaign.rejectCount = 0 */\n              dup2\n              swap1\n              sstore\n              pop\n                /* \"CharityDAO.sol\":5009:5014  false */\n              0x00\n                /* \"CharityDAO.sol\":4984:4995  newCampaign */\n              dup2\n                /* \"CharityDAO.sol\":4984:5006  newCampaign.isApproved */\n              0x09\n              add\n              0x00\n                /* \"CharityDAO.sol\":4984:5014  newCampaign.isApproved = false */\n              0x0100\n              exp\n              dup2\n              sload\n              dup2\n              0xff\n              mul\n              not\n              and\n              swap1\n              dup4\n              iszero\n              iszero\n              mul\n              or\n              swap1\n              sstore\n              pop\n                /* \"CharityDAO.sol\":5050:5055  false */\n              0x00\n                /* \"CharityDAO.sol\":5025:5036  newCampaign */\n              dup2\n                /* \"CharityDAO.sol\":5025:5047  newCampaign.isRejected */\n              0x09\n              add\n              0x01\n                /* \"CharityDAO.sol\":5025:5055  newCampaign.isRejected = false */\n              0x0100\n              exp\n              dup2\n              sload\n              dup2\n              0xff\n              mul\n              not\n              and\n              swap1\n              dup4\n              iszero\n              iszero\n              mul\n              or\n              swap1\n              sstore\n              pop\n                /* \"CharityDAO.sol\":4312:5063  {... */\n              pop\n              pop\n                /* \"CharityDAO.sol\":4092:5063  function createCampaign(string memory _title, string memory _description, string memory _recipientName, string memory _recipientPhone, string memory _recipientEmail, ... */\n              pop\n              pop\n              pop\n              pop\n              pop\n              pop\n              pop\n              jump\t// out\n                /* \"CharityDAO.sol\":1718:1743  string public description */\n            tag_52:\n              0x01\n              dup1\n              sload\n              tag_209\n              swap1\n              tag_120\n              jump\t// in\n            tag_209:\n              dup1\n              0x1f\n              add\n              0x20\n              dup1\n              swap2\n              div\n              mul\n              0x20\n              add\n              mload(0x40)\n              swap1\n              dup2\n              add\n              0x40\n              mstore\n              dup1\n              swap3\n              swap2\n              swap1\n              dup2\n              dup2\n              mstore\n              0x20\n              add\n              dup3\n              dup1\n              sload\n              tag_210\n              swap1\n              tag_120\n              jump\t// in\n            tag_210:\n              dup1\n              iszero\n              tag_211\n              jumpi\n              dup1\n              0x1f\n              lt\n              tag_212\n              jumpi\n              0x0100\n              dup1\n              dup4\n              sload\n              div\n              mul\n              dup4\n              mstore\n              swap2\n              0x20\n              add\n              swap2\n              jump(tag_211)\n            tag_212:\n              dup3\n              add\n              swap2\n              swap1\n              0x00\n              mstore\n              keccak256(0x00, 0x20)\n              swap1\n            tag_213:\n              dup2\n              sload\n              dup2\n              mstore\n              swap1\n              0x01\n              add\n              swap1\n              0x20\n              add\n              dup1\n              dup4\n              gt\n              tag_213\n              jumpi\n              dup3\n              swap1\n              sub\n              0x1f\n              and\n              dup3\n              add\n              swap2\n            tag_211:\n              pop\n              pop\n              pop\n              pop\n              pop\n              dup2\n              jump\t// out\n                /* \"CharityDAO.sol\":2589:2612  uint public numCampaign */\n            tag_55:\n              sload(0x0b)\n              dup2\n              jump\t// out\n                /* \"CharityDAO.sol\":1809:1828  string public email */\n            tag_59:\n              0x04\n              dup1\n              sload\n              tag_214\n              swap1\n              tag_120\n              jump\t// in\n            tag_214:\n              dup1\n              0x1f\n              add\n              0x20\n              dup1\n              swap2\n              div\n              mul\n              0x20\n              add\n              mload(0x40)\n              swap1\n              dup2\n              add\n              0x40\n              mstore\n              dup1\n              swap3\n              swap2\n              swap1\n              dup2\n              dup2\n              mstore\n              0x20\n              add\n              dup3\n              dup1\n              sload\n              tag_215\n              swap1\n              tag_120\n              jump\t// in\n            tag_215:\n              dup1\n              iszero\n              tag_216\n              jumpi\n              dup1\n              0x1f\n              lt\n              tag_217\n              jumpi\n              0x0100\n              dup1\n              dup4\n              sload\n              div\n              mul\n              dup4\n              mstore\n              swap2\n              0x20\n              add\n              swap2\n              jump(tag_216)\n            tag_217:\n              dup3\n              add\n              swap2\n              swap1\n              0x00\n              mstore\n              keccak256(0x00, 0x20)\n              swap1\n            tag_218:\n              dup2\n              sload\n              dup2\n              mstore\n              swap1\n              0x01\n              add\n              swap1\n              0x20\n              add\n              dup1\n              dup4\n              gt\n              tag_218\n              jumpi\n              dup3\n              swap1\n              sub\n              0x1f\n              and\n              dup3\n              add\n              swap2\n            tag_216:\n              pop\n              pop\n              pop\n              pop\n              pop\n              dup2\n              jump\t// out\n                /* \"CharityDAO.sol\":1783:1802  string public phone */\n            tag_62:\n              0x03\n              dup1\n              sload\n              tag_219\n              swap1\n              tag_120\n              jump\t// in\n            tag_219:\n              dup1\n              0x1f\n              add\n              0x20\n              dup1\n              swap2\n              div\n              mul\n              0x20\n              add\n              mload(0x40)\n              swap1\n              dup2\n              add\n              0x40\n              mstore\n              dup1\n              swap3\n              swap2\n              swap1\n              dup2\n              dup2\n              mstore\n              0x20\n              add\n              dup3\n              dup1\n              sload\n              tag_220\n              swap1\n              tag_120\n              jump\t// in\n            tag_220:\n              dup1\n              iszero\n              tag_221\n              jumpi\n              dup1\n              0x1f\n              lt\n              tag_222\n              jumpi\n              0x0100\n              dup1\n              dup4\n              sload\n              div\n              mul\n              dup4\n              mstore\n              swap2\n              0x20\n              add\n              swap2\n              jump(tag_221)\n            tag_222:\n              dup3\n              add\n              swap2\n              swap1\n              0x00\n              mstore\n              keccak256(0x00, 0x20)\n              swap1\n            tag_223:\n              dup2\n              sload\n              dup2\n              mstore\n              swap1\n              0x01\n              add\n              swap1\n              0x20\n              add\n              dup1\n              dup4\n              gt\n              tag_223\n              jumpi\n              dup3\n              swap1\n              sub\n              0x1f\n              and\n              dup3\n              add\n              swap2\n            tag_221:\n              pop\n              pop\n              pop\n              pop\n              pop\n              dup2\n              jump\t// out\n                /* \"CharityDAO.sol\":1835:1859  uint public approveCount */\n            tag_65:\n              sload(0x05)\n              dup2\n              jump\t// out\n                /* \"CharityDAO.sol\":1925:1947  bool public isRejected */\n            tag_68:\n              0x07\n              0x01\n              swap1\n              sload\n              swap1\n              0x0100\n              exp\n              swap1\n              div\n              0xff\n              and\n              dup2\n              jump\t// out\n                /* \"CharityDAO.sol\":1954:2001  mapping(address => bool) public approvedMembers */\n            tag_73:\n              mstore(0x20, 0x08)\n              dup1\n              0x00\n              mstore\n              keccak256(0x00, 0x40)\n              0x00\n              swap2\n              pop\n              sload\n              swap1\n              0x0100\n              exp\n              swap1\n              div\n              0xff\n              and\n              dup2\n              jump\t// out\n                /* \"CharityDAO.sol\":2008:2055  mapping(address => bool) public rejectedMembers */\n            tag_77:\n              mstore(0x20, 0x09)\n              dup1\n              0x00\n              mstore\n              keccak256(0x00, 0x40)\n              0x00\n              swap2\n              pop\n              sload\n              swap1\n              0x0100\n              exp\n              swap1\n              div\n              0xff\n              and\n              dup2\n              jump\t// out\n                /* \"CharityDAO.sol\":1750:1776  address public userAddress */\n            tag_80:\n              0x02\n              0x00\n              swap1\n              sload\n              swap1\n              0x0100\n              exp\n              swap1\n              div\n              0xffffffffffffffffffffffffffffffffffffffff\n              and\n              dup2\n              jump\t// out\n                /* \"CharityDAO.sol\":5071:5838  function approveCampaign(uint campaignIndex) public {... */\n            tag_85:\n                /* \"CharityDAO.sol\":5134:5146  DAO instance */\n              0x00\n                /* \"CharityDAO.sol\":5153:5163  DAOAddress */\n              0x0a\n              0x00\n              swap1\n              sload\n              swap1\n              0x0100\n              exp\n              swap1\n              div\n              0xffffffffffffffffffffffffffffffffffffffff\n              and\n                /* \"CharityDAO.sol\":5134:5164  DAO instance = DAO(DAOAddress) */\n              swap1\n              pop\n                /* \"CharityDAO.sol\":5183:5191  instance */\n              dup1\n                /* \"CharityDAO.sol\":5183:5201  instance.isAMember */\n              0xffffffffffffffffffffffffffffffffffffffff\n              and\n              0x5d672a62\n                /* \"CharityDAO.sol\":5202:5212  msg.sender */\n              caller\n                /* \"CharityDAO.sol\":5183:5213  instance.isAMember(msg.sender) */\n              mload(0x40)\n              dup3\n              0xffffffff\n              and\n              0xe0\n              shl\n              dup2\n              mstore\n              0x04\n              add\n              tag_225\n              swap2\n              swap1\n              tag_82\n              jump\t// in\n            tag_225:\n              0x20\n              mload(0x40)\n              dup1\n              dup4\n              sub\n              dup2\n              dup7\n              dup1\n              extcodesize\n              iszero\n              dup1\n              iszero\n              tag_226\n              jumpi\n              0x00\n              dup1\n              revert\n            tag_226:\n              pop\n              gas\n              staticcall\n              iszero\n              dup1\n              iszero\n              tag_228\n              jumpi\n              returndatasize\n              0x00\n              dup1\n              returndatacopy\n              revert(0x00, returndatasize)\n            tag_228:\n              pop\n              pop\n              pop\n              pop\n              mload(0x40)\n              returndatasize\n              not(0x1f)\n              0x1f\n              dup3\n              add\n              and\n              dup3\n              add\n              dup1\n              0x40\n              mstore\n              pop\n              dup2\n              add\n              swap1\n              tag_229\n              swap2\n              swap1\n              tag_97\n              jump\t// in\n            tag_229:\n                /* \"CharityDAO.sol\":5175:5214  require(instance.isAMember(msg.sender)) */\n              tag_230\n              jumpi\n              0x00\n              dup1\n              revert\n            tag_230:\n                /* \"CharityDAO.sol\":5234:5242  instance */\n              dup1\n                /* \"CharityDAO.sol\":5234:5250  instance.isAUser */\n              0xffffffffffffffffffffffffffffffffffffffff\n              and\n              0x018f5472\n                /* \"CharityDAO.sol\":5251:5261  msg.sender */\n              caller\n                /* \"CharityDAO.sol\":5234:5262  instance.isAUser(msg.sender) */\n              mload(0x40)\n              dup3\n              0xffffffff\n              and\n              0xe0\n              shl\n              dup2\n              mstore\n              0x04\n              add\n              tag_231\n              swap2\n              swap1\n              tag_82\n              jump\t// in\n            tag_231:\n              0x20\n              mload(0x40)\n              dup1\n              dup4\n              sub\n              dup2\n              dup7\n              dup1\n              extcodesize\n              iszero\n              dup1\n              iszero\n              tag_232\n              jumpi\n              0x00\n              dup1\n              revert\n            tag_232:\n              pop\n              gas\n              staticcall\n              iszero\n              dup1\n              iszero\n              tag_234\n              jumpi\n              returndatasize\n              0x00\n              dup1\n              returndatacopy\n              revert(0x00, returndatasize)\n            tag_234:\n              pop\n              pop\n              pop\n              pop\n              mload(0x40)\n              returndatasize\n              not(0x1f)\n              0x1f\n              dup3\n              add\n              and\n              dup3\n              add\n              dup1\n              0x40\n              mstore\n              pop\n              dup2\n              add\n              swap1\n              tag_235\n              swap2\n              swap1\n              tag_97\n              jump\t// in\n            tag_235:\n                /* \"CharityDAO.sol\":5233:5262  !instance.isAUser(msg.sender) */\n              iszero\n                /* \"CharityDAO.sol\":5225:5263  require(!instance.isAUser(msg.sender)) */\n              tag_236\n              jumpi\n              0x00\n              dup1\n              revert\n            tag_236:\n                /* \"CharityDAO.sol\":5283:5292  campaigns */\n              0x0c\n                /* \"CharityDAO.sol\":5283:5307  campaigns[campaignIndex] */\n              0x00\n                /* \"CharityDAO.sol\":5293:5306  campaignIndex */\n              dup4\n                /* \"CharityDAO.sol\":5283:5307  campaigns[campaignIndex] */\n              dup2\n              mstore\n              0x20\n              add\n              swap1\n              dup2\n              mstore\n              0x20\n              add\n              0x00\n              keccak256\n                /* \"CharityDAO.sol\":5283:5331  campaigns[campaignIndex].campaignApprovedMembers */\n              0x0a\n              add\n                /* \"CharityDAO.sol\":5283:5343  campaigns[campaignIndex].campaignApprovedMembers[msg.sender] */\n              0x00\n                /* \"CharityDAO.sol\":5332:5342  msg.sender */\n              caller\n                /* \"CharityDAO.sol\":5283:5343  campaigns[campaignIndex].campaignApprovedMembers[msg.sender] */\n              0xffffffffffffffffffffffffffffffffffffffff\n              and\n              0xffffffffffffffffffffffffffffffffffffffff\n              and\n              dup2\n              mstore\n              0x20\n              add\n              swap1\n              dup2\n              mstore\n              0x20\n              add\n              0x00\n              keccak256\n              0x00\n              swap1\n              sload\n              swap1\n              0x0100\n              exp\n              swap1\n              div\n              0xff\n              and\n                /* \"CharityDAO.sol\":5282:5343  !campaigns[campaignIndex].campaignApprovedMembers[msg.sender] */\n              iszero\n                /* \"CharityDAO.sol\":5274:5344  require(!campaigns[campaignIndex].campaignApprovedMembers[msg.sender]) */\n              tag_237\n              jumpi\n              0x00\n              dup1\n              revert\n            tag_237:\n                /* \"CharityDAO.sol\":5364:5373  campaigns */\n              0x0c\n                /* \"CharityDAO.sol\":5364:5388  campaigns[campaignIndex] */\n              0x00\n                /* \"CharityDAO.sol\":5374:5387  campaignIndex */\n              dup4\n                /* \"CharityDAO.sol\":5364:5388  campaigns[campaignIndex] */\n              dup2\n              mstore\n              0x20\n              add\n              swap1\n              dup2\n              mstore\n              0x20\n              add\n              0x00\n              keccak256\n                /* \"CharityDAO.sol\":5364:5412  campaigns[campaignIndex].campaignRejectedMembers */\n              0x0b\n              add\n                /* \"CharityDAO.sol\":5364:5424  campaigns[campaignIndex].campaignRejectedMembers[msg.sender] */\n              0x00\n                /* \"CharityDAO.sol\":5413:5423  msg.sender */\n              caller\n                /* \"CharityDAO.sol\":5364:5424  campaigns[campaignIndex].campaignRejectedMembers[msg.sender] */\n              0xffffffffffffffffffffffffffffffffffffffff\n              and\n              0xffffffffffffffffffffffffffffffffffffffff\n              and\n              dup2\n              mstore\n              0x20\n              add\n              swap1\n              dup2\n              mstore\n              0x20\n              add\n              0x00\n              keccak256\n              0x00\n              swap1\n              sload\n              swap1\n              0x0100\n              exp\n              swap1\n              div\n              0xff\n              and\n                /* \"CharityDAO.sol\":5363:5424  !campaigns[campaignIndex].campaignRejectedMembers[msg.sender] */\n              iszero\n                /* \"CharityDAO.sol\":5355:5425  require(!campaigns[campaignIndex].campaignRejectedMembers[msg.sender]) */\n              tag_238\n              jumpi\n              0x00\n              dup1\n              revert\n            tag_238:\n                /* \"CharityDAO.sol\":5445:5454  campaigns */\n              0x0c\n                /* \"CharityDAO.sol\":5445:5469  campaigns[campaignIndex] */\n              0x00\n                /* \"CharityDAO.sol\":5455:5468  campaignIndex */\n              dup4\n                /* \"CharityDAO.sol\":5445:5469  campaigns[campaignIndex] */\n              dup2\n              mstore\n              0x20\n              add\n              swap1\n              dup2\n              mstore\n              0x20\n              add\n              0x00\n              keccak256\n                /* \"CharityDAO.sol\":5445:5480  campaigns[campaignIndex].isApproved */\n              0x09\n              add\n              0x00\n              swap1\n              sload\n              swap1\n              0x0100\n              exp\n              swap1\n              div\n              0xff\n              and\n                /* \"CharityDAO.sol\":5444:5480  !campaigns[campaignIndex].isApproved */\n              iszero\n                /* \"CharityDAO.sol\":5436:5481  require(!campaigns[campaignIndex].isApproved) */\n              tag_239\n              jumpi\n              0x00\n              dup1\n              revert\n            tag_239:\n                /* \"CharityDAO.sol\":5501:5510  campaigns */\n              0x0c\n                /* \"CharityDAO.sol\":5501:5525  campaigns[campaignIndex] */\n              0x00\n                /* \"CharityDAO.sol\":5511:5524  campaignIndex */\n              dup4\n                /* \"CharityDAO.sol\":5501:5525  campaigns[campaignIndex] */\n              dup2\n              mstore\n              0x20\n              add\n              swap1\n              dup2\n              mstore\n              0x20\n              add\n              0x00\n              keccak256\n                /* \"CharityDAO.sol\":5501:5536  campaigns[campaignIndex].isRejected */\n              0x09\n              add\n              0x01\n              swap1\n              sload\n              swap1\n              0x0100\n              exp\n              swap1\n              div\n              0xff\n              and\n                /* \"CharityDAO.sol\":5500:5536  !campaigns[campaignIndex].isRejected */\n              iszero\n                /* \"CharityDAO.sol\":5492:5537  require(!campaigns[campaignIndex].isRejected) */\n              tag_240\n              jumpi\n              0x00\n              dup1\n              revert\n            tag_240:\n                /* \"CharityDAO.sol\":5550:5559  campaigns */\n              0x0c\n                /* \"CharityDAO.sol\":5550:5574  campaigns[campaignIndex] */\n              0x00\n                /* \"CharityDAO.sol\":5560:5573  campaignIndex */\n              dup4\n                /* \"CharityDAO.sol\":5550:5574  campaigns[campaignIndex] */\n              dup2\n              mstore\n              0x20\n              add\n              swap1\n              dup2\n              mstore\n              0x20\n              add\n              0x00\n              keccak256\n                /* \"CharityDAO.sol\":5550:5587  campaigns[campaignIndex].approveCount */\n              0x07\n              add\n              0x00\n                /* \"CharityDAO.sol\":5550:5589  campaigns[campaignIndex].approveCount++ */\n              dup2\n              sload\n              dup1\n              swap3\n              swap2\n              swap1\n              tag_241\n              swap1\n              tag_110\n              jump\t// in\n            tag_241:\n              swap2\n              swap1\n              pop\n              sstore\n              pop\n                /* \"CharityDAO.sol\":5663:5667  true */\n              0x01\n                /* \"CharityDAO.sol\":5600:5609  campaigns */\n              0x0c\n                /* \"CharityDAO.sol\":5600:5624  campaigns[campaignIndex] */\n              0x00\n                /* \"CharityDAO.sol\":5610:5623  campaignIndex */\n              dup5\n                /* \"CharityDAO.sol\":5600:5624  campaigns[campaignIndex] */\n              dup2\n              mstore\n              0x20\n              add\n              swap1\n              dup2\n              mstore\n              0x20\n              add\n              0x00\n              keccak256\n                /* \"CharityDAO.sol\":5600:5648  campaigns[campaignIndex].campaignApprovedMembers */\n              0x0a\n              add\n                /* \"CharityDAO.sol\":5600:5660  campaigns[campaignIndex].campaignApprovedMembers[msg.sender] */\n              0x00\n                /* \"CharityDAO.sol\":5649:5659  msg.sender */\n              caller\n                /* \"CharityDAO.sol\":5600:5660  campaigns[campaignIndex].campaignApprovedMembers[msg.sender] */\n              0xffffffffffffffffffffffffffffffffffffffff\n              and\n              0xffffffffffffffffffffffffffffffffffffffff\n              and\n              dup2\n              mstore\n              0x20\n              add\n              swap1\n              dup2\n              mstore\n              0x20\n              add\n              0x00\n              keccak256\n              0x00\n                /* \"CharityDAO.sol\":5600:5667  campaigns[campaignIndex].campaignApprovedMembers[msg.sender] = true */\n              0x0100\n              exp\n              dup2\n              sload\n              dup2\n              0xff\n              mul\n              not\n              and\n              swap1\n              dup4\n              iszero\n              iszero\n              mul\n              or\n              swap1\n              sstore\n              pop\n                /* \"CharityDAO.sol\":5758:5759  2 */\n              0x02\n                /* \"CharityDAO.sol\":5732:5740  instance */\n              dup2\n                /* \"CharityDAO.sol\":5732:5755  instance.getMemberCount */\n              0xffffffffffffffffffffffffffffffffffffffff\n              and\n              0x997072f7\n                /* \"CharityDAO.sol\":5732:5757  instance.getMemberCount() */\n              mload(0x40)\n              dup2\n              0xffffffff\n              and\n              0xe0\n              shl\n              dup2\n              mstore\n              0x04\n              add\n              0x20\n              mload(0x40)\n              dup1\n              dup4\n              sub\n              dup2\n              dup7\n              dup1\n              extcodesize\n              iszero\n              dup1\n              iszero\n              tag_242\n              jumpi\n              0x00\n              dup1\n              revert\n            tag_242:\n              pop\n              gas\n              staticcall\n              iszero\n              dup1\n              iszero\n              tag_244\n              jumpi\n              returndatasize\n              0x00\n              dup1\n              returndatacopy\n              revert(0x00, returndatasize)\n            tag_244:\n              pop\n              pop\n              pop\n              pop\n              mload(0x40)\n              returndatasize\n              not(0x1f)\n              0x1f\n              dup3\n              add\n              and\n              dup3\n              add\n              dup1\n              0x40\n              mstore\n              pop\n              dup2\n              add\n              swap1\n              tag_245\n              swap2\n              swap1\n              tag_115\n              jump\t// in\n            tag_245:\n                /* \"CharityDAO.sol\":5732:5759  instance.getMemberCount()/2 */\n              tag_246\n              swap2\n              swap1\n              tag_117\n              jump\t// in\n            tag_246:\n                /* \"CharityDAO.sol\":5691:5700  campaigns */\n              0x0c\n                /* \"CharityDAO.sol\":5691:5715  campaigns[campaignIndex] */\n              0x00\n                /* \"CharityDAO.sol\":5701:5714  campaignIndex */\n              dup5\n                /* \"CharityDAO.sol\":5691:5715  campaigns[campaignIndex] */\n              dup2\n              mstore\n              0x20\n              add\n              swap1\n              dup2\n              mstore\n              0x20\n              add\n              0x00\n              keccak256\n                /* \"CharityDAO.sol\":5691:5728  campaigns[campaignIndex].approveCount */\n              0x07\n              add\n              sload\n                /* \"CharityDAO.sol\":5691:5760  campaigns[campaignIndex].approveCount > (instance.getMemberCount()/2) */\n              gt\n                /* \"CharityDAO.sol\":5688:5831  if(campaigns[campaignIndex].approveCount > (instance.getMemberCount()/2)) {... */\n              iszero\n              tag_247\n              jumpi\n                /* \"CharityDAO.sol\":5815:5819  true */\n              0x01\n                /* \"CharityDAO.sol\":5777:5786  campaigns */\n              0x0c\n                /* \"CharityDAO.sol\":5777:5801  campaigns[campaignIndex] */\n              0x00\n                /* \"CharityDAO.sol\":5787:5800  campaignIndex */\n              dup5\n                /* \"CharityDAO.sol\":5777:5801  campaigns[campaignIndex] */\n              dup2\n              mstore\n              0x20\n              add\n              swap1\n              dup2\n              mstore\n              0x20\n              add\n              0x00\n              keccak256\n                /* \"CharityDAO.sol\":5777:5812  campaigns[campaignIndex].isApproved */\n              0x09\n              add\n              0x00\n                /* \"CharityDAO.sol\":5777:5819  campaigns[campaignIndex].isApproved = true */\n              0x0100\n              exp\n              dup2\n              sload\n              dup2\n              0xff\n              mul\n              not\n              and\n              swap1\n              dup4\n              iszero\n              iszero\n              mul\n              or\n              swap1\n              sstore\n              pop\n                /* \"CharityDAO.sol\":5688:5831  if(campaigns[campaignIndex].approveCount > (instance.getMemberCount()/2)) {... */\n            tag_247:\n                /* \"CharityDAO.sol\":5123:5838  {... */\n              pop\n                /* \"CharityDAO.sol\":5071:5838  function approveCampaign(uint campaignIndex) public {... */\n              pop\n              jump\t// out\n                /* \"CharityDAO.sol\":3149:3612  function approveUser() public {... */\n            tag_87:\n                /* \"CharityDAO.sol\":3190:3202  DAO instance */\n              0x00\n                /* \"CharityDAO.sol\":3209:3219  DAOAddress */\n              0x0a\n              0x00\n              swap1\n              sload\n              swap1\n              0x0100\n              exp\n              swap1\n              div\n              0xffffffffffffffffffffffffffffffffffffffff\n              and\n                /* \"CharityDAO.sol\":3190:3220  DAO instance = DAO(DAOAddress) */\n              swap1\n              pop\n                /* \"CharityDAO.sol\":3239:3247  instance */\n              dup1\n                /* \"CharityDAO.sol\":3239:3257  instance.isAMember */\n              0xffffffffffffffffffffffffffffffffffffffff\n              and\n              0x5d672a62\n                /* \"CharityDAO.sol\":3258:3268  msg.sender */\n              caller\n                /* \"CharityDAO.sol\":3239:3269  instance.isAMember(msg.sender) */\n              mload(0x40)\n              dup3\n              0xffffffff\n              and\n              0xe0\n              shl\n              dup2\n              mstore\n              0x04\n              add\n              tag_249\n              swap2\n              swap1\n              tag_82\n              jump\t// in\n            tag_249:\n              0x20\n              mload(0x40)\n              dup1\n              dup4\n              sub\n              dup2\n              dup7\n              dup1\n              extcodesize\n              iszero\n              dup1\n              iszero\n              tag_250\n              jumpi\n              0x00\n              dup1\n              revert\n            tag_250:\n              pop\n              gas\n              staticcall\n              iszero\n              dup1\n              iszero\n              tag_252\n              jumpi\n              returndatasize\n              0x00\n              dup1\n              returndatacopy\n              revert(0x00, returndatasize)\n            tag_252:\n              pop\n              pop\n              pop\n              pop\n              mload(0x40)\n              returndatasize\n              not(0x1f)\n              0x1f\n              dup3\n              add\n              and\n              dup3\n              add\n              dup1\n              0x40\n              mstore\n              pop\n              dup2\n              add\n              swap1\n              tag_253\n              swap2\n              swap1\n              tag_97\n              jump\t// in\n            tag_253:\n                /* \"CharityDAO.sol\":3231:3270  require(instance.isAMember(msg.sender)) */\n              tag_254\n              jumpi\n              0x00\n              dup1\n              revert\n            tag_254:\n                /* \"CharityDAO.sol\":3290:3305  approvedMembers */\n              0x08\n                /* \"CharityDAO.sol\":3290:3317  approvedMembers[msg.sender] */\n              0x00\n                /* \"CharityDAO.sol\":3306:3316  msg.sender */\n              caller\n                /* \"CharityDAO.sol\":3290:3317  approvedMembers[msg.sender] */\n              0xffffffffffffffffffffffffffffffffffffffff\n              and\n              0xffffffffffffffffffffffffffffffffffffffff\n              and\n              dup2\n              mstore\n              0x20\n              add\n              swap1\n              dup2\n              mstore\n              0x20\n              add\n              0x00\n              keccak256\n              0x00\n              swap1\n              sload\n              swap1\n              0x0100\n              exp\n              swap1\n              div\n              0xff\n              and\n                /* \"CharityDAO.sol\":3289:3317  !approvedMembers[msg.sender] */\n              iszero\n                /* \"CharityDAO.sol\":3281:3318  require(!approvedMembers[msg.sender]) */\n              tag_255\n              jumpi\n              0x00\n              dup1\n              revert\n            tag_255:\n                /* \"CharityDAO.sol\":3338:3353  rejectedMembers */\n              0x09\n                /* \"CharityDAO.sol\":3338:3365  rejectedMembers[msg.sender] */\n              0x00\n                /* \"CharityDAO.sol\":3354:3364  msg.sender */\n              caller\n                /* \"CharityDAO.sol\":3338:3365  rejectedMembers[msg.sender] */\n              0xffffffffffffffffffffffffffffffffffffffff\n              and\n              0xffffffffffffffffffffffffffffffffffffffff\n              and\n              dup2\n              mstore\n              0x20\n              add\n              swap1\n              dup2\n              mstore\n              0x20\n              add\n              0x00\n              keccak256\n              0x00\n              swap1\n              sload\n              swap1\n              0x0100\n              exp\n              swap1\n              div\n              0xff\n              and\n                /* \"CharityDAO.sol\":3337:3365  !rejectedMembers[msg.sender] */\n              iszero\n                /* \"CharityDAO.sol\":3329:3366  require(!rejectedMembers[msg.sender]) */\n              tag_256\n              jumpi\n              0x00\n              dup1\n              revert\n            tag_256:\n                /* \"CharityDAO.sol\":3386:3396  isApproved */\n              0x07\n              0x00\n              swap1\n              sload\n              swap1\n              0x0100\n              exp\n              swap1\n              div\n              0xff\n              and\n                /* \"CharityDAO.sol\":3385:3396  !isApproved */\n              iszero\n                /* \"CharityDAO.sol\":3377:3397  require(!isApproved) */\n              tag_257\n              jumpi\n              0x00\n              dup1\n              revert\n            tag_257:\n                /* \"CharityDAO.sol\":3417:3427  isRejected */\n              0x07\n              0x01\n              swap1\n              sload\n              swap1\n              0x0100\n              exp\n              swap1\n              div\n              0xff\n              and\n                /* \"CharityDAO.sol\":3416:3427  !isRejected */\n              iszero\n                /* \"CharityDAO.sol\":3408:3428  require(!isRejected) */\n              tag_258\n              jumpi\n              0x00\n              dup1\n              revert\n            tag_258:\n                /* \"CharityDAO.sol\":3469:3473  true */\n              0x01\n                /* \"CharityDAO.sol\":3439:3454  approvedMembers */\n              0x08\n                /* \"CharityDAO.sol\":3439:3466  approvedMembers[msg.sender] */\n              0x00\n                /* \"CharityDAO.sol\":3455:3465  msg.sender */\n              caller\n                /* \"CharityDAO.sol\":3439:3466  approvedMembers[msg.sender] */\n              0xffffffffffffffffffffffffffffffffffffffff\n              and\n              0xffffffffffffffffffffffffffffffffffffffff\n              and\n              dup2\n              mstore\n              0x20\n              add\n              swap1\n              dup2\n              mstore\n              0x20\n              add\n              0x00\n              keccak256\n              0x00\n                /* \"CharityDAO.sol\":3439:3473  approvedMembers[msg.sender] = true */\n              0x0100\n              exp\n              dup2\n              sload\n              dup2\n              0xff\n              mul\n              not\n              and\n              swap1\n              dup4\n              iszero\n              iszero\n              mul\n              or\n              swap1\n              sstore\n              pop\n                /* \"CharityDAO.sol\":3484:3496  approveCount */\n              0x05\n              0x00\n                /* \"CharityDAO.sol\":3484:3498  approveCount++ */\n              dup2\n              sload\n              dup1\n              swap3\n              swap2\n              swap1\n              tag_259\n              swap1\n              tag_110\n              jump\t// in\n            tag_259:\n              swap2\n              swap1\n              pop\n              sstore\n              pop\n                /* \"CharityDAO.sol\":3558:3559  2 */\n              0x02\n                /* \"CharityDAO.sol\":3530:3538  instance */\n              dup2\n                /* \"CharityDAO.sol\":3530:3553  instance.getMemberCount */\n              0xffffffffffffffffffffffffffffffffffffffff\n              and\n              0x997072f7\n                /* \"CharityDAO.sol\":3530:3555  instance.getMemberCount() */\n              mload(0x40)\n              dup2\n              0xffffffff\n              and\n              0xe0\n              shl\n              dup2\n              mstore\n              0x04\n              add\n              0x20\n              mload(0x40)\n              dup1\n              dup4\n              sub\n              dup2\n              dup7\n              dup1\n              extcodesize\n              iszero\n              dup1\n              iszero\n              tag_260\n              jumpi\n              0x00\n              dup1\n              revert\n            tag_260:\n              pop\n              gas\n              staticcall\n              iszero\n              dup1\n              iszero\n              tag_262\n              jumpi\n              returndatasize\n              0x00\n              dup1\n              returndatacopy\n              revert(0x00, returndatasize)\n            tag_262:\n              pop\n              pop\n              pop\n              pop\n              mload(0x40)\n              returndatasize\n              not(0x1f)\n              0x1f\n              dup3\n              add\n              and\n              dup3\n              add\n              dup1\n              0x40\n              mstore\n              pop\n              dup2\n              add\n              swap1\n              tag_263\n              swap2\n              swap1\n              tag_115\n              jump\t// in\n            tag_263:\n                /* \"CharityDAO.sol\":3530:3559  instance.getMemberCount() / 2 */\n              tag_264\n              swap2\n              swap1\n              tag_117\n              jump\t// in\n            tag_264:\n                /* \"CharityDAO.sol\":3514:3526  approveCount */\n              sload(0x05)\n                /* \"CharityDAO.sol\":3514:3560  approveCount > (instance.getMemberCount() / 2) */\n              gt\n                /* \"CharityDAO.sol\":3511:3605  if(approveCount > (instance.getMemberCount() / 2)){... */\n              iszero\n              tag_265\n              jumpi\n                /* \"CharityDAO.sol\":3589:3593  true */\n              0x01\n                /* \"CharityDAO.sol\":3576:3586  isApproved */\n              0x07\n              0x00\n                /* \"CharityDAO.sol\":3576:3593  isApproved = true */\n              0x0100\n              exp\n              dup2\n              sload\n              dup2\n              0xff\n              mul\n              not\n              and\n              swap1\n              dup4\n              iszero\n              iszero\n              mul\n              or\n              swap1\n              sstore\n              pop\n                /* \"CharityDAO.sol\":3511:3605  if(approveCount > (instance.getMemberCount() / 2)){... */\n            tag_265:\n                /* \"CharityDAO.sol\":3179:3612  {... */\n              pop\n                /* \"CharityDAO.sol\":3149:3612  function approveUser() public {... */\n              jump\t// out\n                /* \"CharityDAO.sol\":1866:1889  uint public rejectCount */\n            tag_89:\n              sload(0x06)\n              dup2\n              jump\t// out\n            tag_204:\n              dup3\n              dup1\n              sload\n              tag_266\n              swap1\n              tag_120\n              jump\t// in\n            tag_266:\n              swap1\n              0x00\n              mstore\n              keccak256(0x00, 0x20)\n              swap1\n              0x1f\n              add\n              0x20\n              swap1\n              div\n              dup2\n              add\n              swap3\n              dup3\n              tag_268\n              jumpi\n              0x00\n              dup6\n              sstore\n              jump(tag_267)\n            tag_268:\n              dup3\n              0x1f\n              lt\n              tag_269\n              jumpi\n              dup1\n              mload\n              not(0xff)\n              and\n              dup4\n              dup1\n              add\n              or\n              dup6\n              sstore\n              jump(tag_267)\n            tag_269:\n              dup3\n              dup1\n              add\n              0x01\n              add\n              dup6\n              sstore\n              dup3\n              iszero\n              tag_267\n              jumpi\n              swap2\n              dup3\n              add\n            tag_270:\n              dup3\n              dup2\n              gt\n              iszero\n              tag_271\n              jumpi\n              dup3\n              mload\n              dup3\n              sstore\n              swap2\n              0x20\n              add\n              swap2\n              swap1\n              0x01\n              add\n              swap1\n              jump(tag_270)\n            tag_271:\n            tag_267:\n              pop\n              swap1\n              pop\n              tag_272\n              swap2\n              swap1\n              tag_273\n              jump\t// in\n            tag_272:\n              pop\n              swap1\n              jump\t// out\n            tag_273:\n            tag_274:\n              dup1\n              dup3\n              gt\n              iszero\n              tag_275\n              jumpi\n              0x00\n              dup2\n              0x00\n              swap1\n              sstore\n              pop\n              0x01\n              add\n              jump(tag_274)\n            tag_275:\n              pop\n              swap1\n              jump\t// out\n                /* \"#utility.yul\":7:82   */\n            tag_276:\n                /* \"#utility.yul\":40:46   */\n              0x00\n                /* \"#utility.yul\":73:75   */\n              0x40\n                /* \"#utility.yul\":67:76   */\n              mload\n                /* \"#utility.yul\":57:76   */\n              swap1\n              pop\n                /* \"#utility.yul\":7:82   */\n              swap1\n              jump\t// out\n                /* \"#utility.yul\":88:205   */\n            tag_277:\n                /* \"#utility.yul\":197:198   */\n              0x00\n                /* \"#utility.yul\":194:195   */\n              dup1\n                /* \"#utility.yul\":187:199   */\n              revert\n                /* \"#utility.yul\":211:328   */\n            tag_278:\n                /* \"#utility.yul\":320:321   */\n              0x00\n                /* \"#utility.yul\":317:318   */\n              dup1\n                /* \"#utility.yul\":310:322   */\n              revert\n                /* \"#utility.yul\":334:411   */\n            tag_279:\n                /* \"#utility.yul\":371:378   */\n              0x00\n                /* \"#utility.yul\":400:405   */\n              dup2\n                /* \"#utility.yul\":389:405   */\n              swap1\n              pop\n                /* \"#utility.yul\":334:411   */\n              swap2\n              swap1\n              pop\n              jump\t// out\n                /* \"#utility.yul\":417:539   */\n            tag_280:\n                /* \"#utility.yul\":490:514   */\n              tag_320\n                /* \"#utility.yul\":508:513   */\n              dup2\n                /* \"#utility.yul\":490:514   */\n              tag_279\n              jump\t// in\n            tag_320:\n                /* \"#utility.yul\":483:488   */\n              dup2\n                /* \"#utility.yul\":480:515   */\n              eq\n                /* \"#utility.yul\":470:533   */\n              tag_321\n              jumpi\n                /* \"#utility.yul\":529:530   */\n              0x00\n                /* \"#utility.yul\":526:527   */\n              dup1\n                /* \"#utility.yul\":519:531   */\n              revert\n                /* \"#utility.yul\":470:533   */\n            tag_321:\n                /* \"#utility.yul\":417:539   */\n              pop\n              jump\t// out\n                /* \"#utility.yul\":545:684   */\n            tag_281:\n                /* \"#utility.yul\":591:596   */\n              0x00\n                /* \"#utility.yul\":629:635   */\n              dup2\n                /* \"#utility.yul\":616:636   */\n              calldataload\n                /* \"#utility.yul\":607:636   */\n              swap1\n              pop\n                /* \"#utility.yul\":645:678   */\n              tag_323\n                /* \"#utility.yul\":672:677   */\n              dup2\n                /* \"#utility.yul\":645:678   */\n              tag_280\n              jump\t// in\n            tag_323:\n                /* \"#utility.yul\":545:684   */\n              swap3\n              swap2\n              pop\n              pop\n              jump\t// out\n                /* \"#utility.yul\":690:1019   */\n            tag_27:\n                /* \"#utility.yul\":749:755   */\n              0x00\n                /* \"#utility.yul\":798:800   */\n              0x20\n                /* \"#utility.yul\":786:795   */\n              dup3\n                /* \"#utility.yul\":777:784   */\n              dup5\n                /* \"#utility.yul\":773:796   */\n              sub\n                /* \"#utility.yul\":769:801   */\n              slt\n                /* \"#utility.yul\":766:885   */\n              iszero\n              tag_325\n              jumpi\n                /* \"#utility.yul\":804:883   */\n              tag_326\n              tag_277\n              jump\t// in\n            tag_326:\n                /* \"#utility.yul\":766:885   */\n            tag_325:\n                /* \"#utility.yul\":924:925   */\n              0x00\n                /* \"#utility.yul\":949:1002   */\n              tag_327\n                /* \"#utility.yul\":994:1001   */\n              dup5\n                /* \"#utility.yul\":985:991   */\n              dup3\n                /* \"#utility.yul\":974:983   */\n              dup6\n                /* \"#utility.yul\":970:992   */\n              add\n                /* \"#utility.yul\":949:1002   */\n              tag_281\n              jump\t// in\n            tag_327:\n                /* \"#utility.yul\":939:1002   */\n              swap2\n              pop\n                /* \"#utility.yul\":895:1012   */\n              pop\n                /* \"#utility.yul\":690:1019   */\n              swap3\n              swap2\n              pop\n              pop\n              jump\t// out\n                /* \"#utility.yul\":1025:1124   */\n            tag_282:\n                /* \"#utility.yul\":1077:1083   */\n              0x00\n                /* \"#utility.yul\":1111:1116   */\n              dup2\n                /* \"#utility.yul\":1105:1117   */\n              mload\n                /* \"#utility.yul\":1095:1117   */\n              swap1\n              pop\n                /* \"#utility.yul\":1025:1124   */\n              swap2\n              swap1\n              pop\n              jump\t// out\n                /* \"#utility.yul\":1130:1299   */\n            tag_283:\n                /* \"#utility.yul\":1214:1225   */\n              0x00\n                /* \"#utility.yul\":1248:1254   */\n              dup3\n                /* \"#utility.yul\":1243:1246   */\n              dup3\n                /* \"#utility.yul\":1236:1255   */\n              mstore\n                /* \"#utility.yul\":1288:1292   */\n              0x20\n                /* \"#utility.yul\":1283:1286   */\n              dup3\n                /* \"#utility.yul\":1279:1293   */\n              add\n                /* \"#utility.yul\":1264:1293   */\n              swap1\n              pop\n                /* \"#utility.yul\":1130:1299   */\n              swap3\n              swap2\n              pop\n              pop\n              jump\t// out\n                /* \"#utility.yul\":1305:1612   */\n            tag_284:\n                /* \"#utility.yul\":1373:1374   */\n              0x00\n                /* \"#utility.yul\":1383:1496   */\n            tag_331:\n                /* \"#utility.yul\":1397:1403   */\n              dup4\n                /* \"#utility.yul\":1394:1395   */\n              dup2\n                /* \"#utility.yul\":1391:1404   */\n              lt\n                /* \"#utility.yul\":1383:1496   */\n              iszero\n              tag_333\n              jumpi\n                /* \"#utility.yul\":1482:1483   */\n              dup1\n                /* \"#utility.yul\":1477:1480   */\n              dup3\n                /* \"#utility.yul\":1473:1484   */\n              add\n                /* \"#utility.yul\":1467:1485   */\n              mload\n                /* \"#utility.yul\":1463:1464   */\n              dup2\n                /* \"#utility.yul\":1458:1461   */\n              dup5\n                /* \"#utility.yul\":1454:1465   */\n              add\n                /* \"#utility.yul\":1447:1486   */\n              mstore\n                /* \"#utility.yul\":1419:1421   */\n              0x20\n                /* \"#utility.yul\":1416:1417   */\n              dup2\n                /* \"#utility.yul\":1412:1422   */\n              add\n                /* \"#utility.yul\":1407:1422   */\n              swap1\n              pop\n                /* \"#utility.yul\":1383:1496   */\n              jump(tag_331)\n            tag_333:\n                /* \"#utility.yul\":1514:1520   */\n              dup4\n                /* \"#utility.yul\":1511:1512   */\n              dup2\n                /* \"#utility.yul\":1508:1521   */\n              gt\n                /* \"#utility.yul\":1505:1606   */\n              iszero\n              tag_334\n              jumpi\n                /* \"#utility.yul\":1594:1595   */\n              0x00\n                /* \"#utility.yul\":1585:1591   */\n              dup5\n                /* \"#utility.yul\":1580:1583   */\n              dup5\n                /* \"#utility.yul\":1576:1592   */\n              add\n                /* \"#utility.yul\":1569:1596   */\n              mstore\n                /* \"#utility.yul\":1505:1606   */\n            tag_334:\n                /* \"#utility.yul\":1354:1612   */\n              pop\n                /* \"#utility.yul\":1305:1612   */\n              pop\n              pop\n              pop\n              jump\t// out\n                /* \"#utility.yul\":1618:1720   */\n            tag_285:\n                /* \"#utility.yul\":1659:1665   */\n              0x00\n                /* \"#utility.yul\":1710:1712   */\n              0x1f\n                /* \"#utility.yul\":1706:1713   */\n              not\n                /* \"#utility.yul\":1701:1703   */\n              0x1f\n                /* \"#utility.yul\":1694:1699   */\n              dup4\n                /* \"#utility.yul\":1690:1704   */\n              add\n                /* \"#utility.yul\":1686:1714   */\n              and\n                /* \"#utility.yul\":1676:1714   */\n              swap1\n              pop\n                /* \"#utility.yul\":1618:1720   */\n              swap2\n              swap1\n              pop\n              jump\t// out\n                /* \"#utility.yul\":1726:2090   */\n            tag_286:\n                /* \"#utility.yul\":1814:1817   */\n              0x00\n                /* \"#utility.yul\":1842:1881   */\n              tag_337\n                /* \"#utility.yul\":1875:1880   */\n              dup3\n                /* \"#utility.yul\":1842:1881   */\n              tag_282\n              jump\t// in\n            tag_337:\n                /* \"#utility.yul\":1897:1968   */\n              tag_338\n                /* \"#utility.yul\":1961:1967   */\n              dup2\n                /* \"#utility.yul\":1956:1959   */\n              dup6\n                /* \"#utility.yul\":1897:1968   */\n              tag_283\n              jump\t// in\n            tag_338:\n                /* \"#utility.yul\":1890:1968   */\n              swap4\n              pop\n                /* \"#utility.yul\":1977:2029   */\n              tag_339\n                /* \"#utility.yul\":2022:2028   */\n              dup2\n                /* \"#utility.yul\":2017:2020   */\n              dup6\n                /* \"#utility.yul\":2010:2014   */\n              0x20\n                /* \"#utility.yul\":2003:2008   */\n              dup7\n                /* \"#utility.yul\":1999:2015   */\n              add\n                /* \"#utility.yul\":1977:2029   */\n              tag_284\n              jump\t// in\n            tag_339:\n                /* \"#utility.yul\":2054:2083   */\n              tag_340\n                /* \"#utility.yul\":2076:2082   */\n              dup2\n                /* \"#utility.yul\":2054:2083   */\n              tag_285\n              jump\t// in\n            tag_340:\n                /* \"#utility.yul\":2049:2052   */\n              dup5\n                /* \"#utility.yul\":2045:2084   */\n              add\n                /* \"#utility.yul\":2038:2084   */\n              swap2\n              pop\n                /* \"#utility.yul\":1818:2090   */\n              pop\n                /* \"#utility.yul\":1726:2090   */\n              swap3\n              swap2\n              pop\n              pop\n              jump\t// out\n                /* \"#utility.yul\":2096:2409   */\n            tag_32:\n                /* \"#utility.yul\":2209:2213   */\n              0x00\n                /* \"#utility.yul\":2247:2249   */\n              0x20\n                /* \"#utility.yul\":2236:2245   */\n              dup3\n                /* \"#utility.yul\":2232:2250   */\n              add\n                /* \"#utility.yul\":2224:2250   */\n              swap1\n              pop\n                /* \"#utility.yul\":2296:2305   */\n              dup2\n                /* \"#utility.yul\":2290:2294   */\n              dup2\n                /* \"#utility.yul\":2286:2306   */\n              sub\n                /* \"#utility.yul\":2282:2283   */\n              0x00\n                /* \"#utility.yul\":2271:2280   */\n              dup4\n                /* \"#utility.yul\":2267:2284   */\n              add\n                /* \"#utility.yul\":2260:2307   */\n              mstore\n                /* \"#utility.yul\":2324:2402   */\n              tag_342\n                /* \"#utility.yul\":2397:2401   */\n              dup2\n                /* \"#utility.yul\":2388:2394   */\n              dup5\n                /* \"#utility.yul\":2324:2402   */\n              tag_286\n              jump\t// in\n            tag_342:\n                /* \"#utility.yul\":2316:2402   */\n              swap1\n              pop\n                /* \"#utility.yul\":2096:2409   */\n              swap3\n              swap2\n              pop\n              pop\n              jump\t// out\n                /* \"#utility.yul\":2415:2541   */\n            tag_287:\n                /* \"#utility.yul\":2452:2459   */\n              0x00\n                /* \"#utility.yul\":2492:2534   */\n              0xffffffffffffffffffffffffffffffffffffffff\n                /* \"#utility.yul\":2485:2490   */\n              dup3\n                /* \"#utility.yul\":2481:2535   */\n              and\n                /* \"#utility.yul\":2470:2535   */\n              swap1\n              pop\n                /* \"#utility.yul\":2415:2541   */\n              swap2\n              swap1\n              pop\n              jump\t// out\n                /* \"#utility.yul\":2547:2651   */\n            tag_288:\n                /* \"#utility.yul\":2592:2599   */\n              0x00\n                /* \"#utility.yul\":2621:2645   */\n              tag_345\n                /* \"#utility.yul\":2639:2644   */\n              dup3\n                /* \"#utility.yul\":2621:2645   */\n              tag_287\n              jump\t// in\n            tag_345:\n                /* \"#utility.yul\":2610:2645   */\n              swap1\n              pop\n                /* \"#utility.yul\":2547:2651   */\n              swap2\n              swap1\n              pop\n              jump\t// out\n                /* \"#utility.yul\":2657:2799   */\n            tag_289:\n                /* \"#utility.yul\":2760:2792   */\n              tag_347\n                /* \"#utility.yul\":2786:2791   */\n              dup2\n                /* \"#utility.yul\":2760:2792   */\n              tag_288\n              jump\t// in\n            tag_347:\n                /* \"#utility.yul\":2755:2758   */\n              dup3\n                /* \"#utility.yul\":2748:2793   */\n              mstore\n                /* \"#utility.yul\":2657:2799   */\n              pop\n              pop\n              jump\t// out\n                /* \"#utility.yul\":2805:2895   */\n            tag_290:\n                /* \"#utility.yul\":2839:2846   */\n              0x00\n                /* \"#utility.yul\":2882:2887   */\n              dup2\n                /* \"#utility.yul\":2875:2888   */\n              iszero\n                /* \"#utility.yul\":2868:2889   */\n              iszero\n                /* \"#utility.yul\":2857:2889   */\n              swap1\n              pop\n                /* \"#utility.yul\":2805:2895   */\n              swap2\n              swap1\n              pop\n              jump\t// out\n                /* \"#utility.yul\":2901:3010   */\n            tag_291:\n                /* \"#utility.yul\":2982:3003   */\n              tag_350\n                /* \"#utility.yul\":2997:3002   */\n              dup2\n                /* \"#utility.yul\":2982:3003   */\n              tag_290\n              jump\t// in\n            tag_350:\n                /* \"#utility.yul\":2977:2980   */\n              dup3\n                /* \"#utility.yul\":2970:3004   */\n              mstore\n                /* \"#utility.yul\":2901:3010   */\n              pop\n              pop\n              jump\t// out\n                /* \"#utility.yul\":3016:3134   */\n            tag_292:\n                /* \"#utility.yul\":3103:3127   */\n              tag_352\n                /* \"#utility.yul\":3121:3126   */\n              dup2\n                /* \"#utility.yul\":3103:3127   */\n              tag_279\n              jump\t// in\n            tag_352:\n                /* \"#utility.yul\":3098:3101   */\n              dup3\n                /* \"#utility.yul\":3091:3128   */\n              mstore\n                /* \"#utility.yul\":3016:3134   */\n              pop\n              pop\n              jump\t// out\n                /* \"#utility.yul\":3140:5036   */\n            tag_37:\n                /* \"#utility.yul\":3641:3645   */\n              0x00\n                /* \"#utility.yul\":3679:3682   */\n              0x0180\n                /* \"#utility.yul\":3668:3677   */\n              dup3\n                /* \"#utility.yul\":3664:3683   */\n              add\n                /* \"#utility.yul\":3656:3683   */\n              swap1\n              pop\n                /* \"#utility.yul\":3729:3738   */\n              dup2\n                /* \"#utility.yul\":3723:3727   */\n              dup2\n                /* \"#utility.yul\":3719:3739   */\n              sub\n                /* \"#utility.yul\":3715:3716   */\n              0x00\n                /* \"#utility.yul\":3704:3713   */\n              dup4\n                /* \"#utility.yul\":3700:3717   */\n              add\n                /* \"#utility.yul\":3693:3740   */\n              mstore\n                /* \"#utility.yul\":3757:3835   */\n              tag_354\n                /* \"#utility.yul\":3830:3834   */\n              dup2\n                /* \"#utility.yul\":3821:3827   */\n              dup16\n                /* \"#utility.yul\":3757:3835   */\n              tag_286\n              jump\t// in\n            tag_354:\n                /* \"#utility.yul\":3749:3835   */\n              swap1\n              pop\n                /* \"#utility.yul\":3882:3891   */\n              dup2\n                /* \"#utility.yul\":3876:3880   */\n              dup2\n                /* \"#utility.yul\":3872:3892   */\n              sub\n                /* \"#utility.yul\":3867:3869   */\n              0x20\n                /* \"#utility.yul\":3856:3865   */\n              dup4\n                /* \"#utility.yul\":3852:3870   */\n              add\n                /* \"#utility.yul\":3845:3893   */\n              mstore\n                /* \"#utility.yul\":3910:3988   */\n              tag_355\n                /* \"#utility.yul\":3983:3987   */\n              dup2\n                /* \"#utility.yul\":3974:3980   */\n              dup15\n                /* \"#utility.yul\":3910:3988   */\n              tag_286\n              jump\t// in\n            tag_355:\n                /* \"#utility.yul\":3902:3988   */\n              swap1\n              pop\n                /* \"#utility.yul\":4035:4044   */\n              dup2\n                /* \"#utility.yul\":4029:4033   */\n              dup2\n                /* \"#utility.yul\":4025:4045   */\n              sub\n                /* \"#utility.yul\":4020:4022   */\n              0x40\n                /* \"#utility.yul\":4009:4018   */\n              dup4\n                /* \"#utility.yul\":4005:4023   */\n              add\n                /* \"#utility.yul\":3998:4046   */\n              mstore\n                /* \"#utility.yul\":4063:4141   */\n              tag_356\n                /* \"#utility.yul\":4136:4140   */\n              dup2\n                /* \"#utility.yul\":4127:4133   */\n              dup14\n                /* \"#utility.yul\":4063:4141   */\n              tag_286\n              jump\t// in\n            tag_356:\n                /* \"#utility.yul\":4055:4141   */\n              swap1\n              pop\n                /* \"#utility.yul\":4188:4197   */\n              dup2\n                /* \"#utility.yul\":4182:4186   */\n              dup2\n                /* \"#utility.yul\":4178:4198   */\n              sub\n                /* \"#utility.yul\":4173:4175   */\n              0x60\n                /* \"#utility.yul\":4162:4171   */\n              dup4\n                /* \"#utility.yul\":4158:4176   */\n              add\n                /* \"#utility.yul\":4151:4199   */\n              mstore\n                /* \"#utility.yul\":4216:4294   */\n              tag_357\n                /* \"#utility.yul\":4289:4293   */\n              dup2\n                /* \"#utility.yul\":4280:4286   */\n              dup13\n                /* \"#utility.yul\":4216:4294   */\n              tag_286\n              jump\t// in\n            tag_357:\n                /* \"#utility.yul\":4208:4294   */\n              swap1\n              pop\n                /* \"#utility.yul\":4342:4351   */\n              dup2\n                /* \"#utility.yul\":4336:4340   */\n              dup2\n                /* \"#utility.yul\":4332:4352   */\n              sub\n                /* \"#utility.yul\":4326:4329   */\n              0x80\n                /* \"#utility.yul\":4315:4324   */\n              dup4\n                /* \"#utility.yul\":4311:4330   */\n              add\n                /* \"#utility.yul\":4304:4353   */\n              mstore\n                /* \"#utility.yul\":4370:4448   */\n              tag_358\n                /* \"#utility.yul\":4443:4447   */\n              dup2\n                /* \"#utility.yul\":4434:4440   */\n              dup12\n                /* \"#utility.yul\":4370:4448   */\n              tag_286\n              jump\t// in\n            tag_358:\n                /* \"#utility.yul\":4362:4448   */\n              swap1\n              pop\n                /* \"#utility.yul\":4458:4547   */\n              tag_359\n                /* \"#utility.yul\":4542:4545   */\n              0xa0\n                /* \"#utility.yul\":4531:4540   */\n              dup4\n                /* \"#utility.yul\":4527:4546   */\n              add\n                /* \"#utility.yul\":4518:4524   */\n              dup11\n                /* \"#utility.yul\":4458:4547   */\n              tag_289\n              jump\t// in\n            tag_359:\n                /* \"#utility.yul\":4557:4624   */\n              tag_360\n                /* \"#utility.yul\":4619:4622   */\n              0xc0\n                /* \"#utility.yul\":4608:4617   */\n              dup4\n                /* \"#utility.yul\":4604:4623   */\n              add\n                /* \"#utility.yul\":4595:4601   */\n              dup10\n                /* \"#utility.yul\":4557:4624   */\n              tag_291\n              jump\t// in\n            tag_360:\n                /* \"#utility.yul\":4634:4707   */\n              tag_361\n                /* \"#utility.yul\":4702:4705   */\n              0xe0\n                /* \"#utility.yul\":4691:4700   */\n              dup4\n                /* \"#utility.yul\":4687:4706   */\n              add\n                /* \"#utility.yul\":4678:4684   */\n              dup9\n                /* \"#utility.yul\":4634:4707   */\n              tag_292\n              jump\t// in\n            tag_361:\n                /* \"#utility.yul\":4717:4790   */\n              tag_362\n                /* \"#utility.yul\":4785:4788   */\n              0x0100\n                /* \"#utility.yul\":4774:4783   */\n              dup4\n                /* \"#utility.yul\":4770:4789   */\n              add\n                /* \"#utility.yul\":4761:4767   */\n              dup8\n                /* \"#utility.yul\":4717:4790   */\n              tag_292\n              jump\t// in\n            tag_362:\n                /* \"#utility.yul\":4800:4873   */\n              tag_363\n                /* \"#utility.yul\":4868:4871   */\n              0x0120\n                /* \"#utility.yul\":4857:4866   */\n              dup4\n                /* \"#utility.yul\":4853:4872   */\n              add\n                /* \"#utility.yul\":4844:4850   */\n              dup7\n                /* \"#utility.yul\":4800:4873   */\n              tag_292\n              jump\t// in\n            tag_363:\n                /* \"#utility.yul\":4883:4951   */\n              tag_364\n                /* \"#utility.yul\":4946:4949   */\n              0x0140\n                /* \"#utility.yul\":4935:4944   */\n              dup4\n                /* \"#utility.yul\":4931:4950   */\n              add\n                /* \"#utility.yul\":4921:4928   */\n              dup6\n                /* \"#utility.yul\":4883:4951   */\n              tag_291\n              jump\t// in\n            tag_364:\n                /* \"#utility.yul\":4961:5029   */\n              tag_365\n                /* \"#utility.yul\":5024:5027   */\n              0x0160\n                /* \"#utility.yul\":5013:5022   */\n              dup4\n                /* \"#utility.yul\":5009:5028   */\n              add\n                /* \"#utility.yul\":4999:5006   */\n              dup5\n                /* \"#utility.yul\":4961:5029   */\n              tag_291\n              jump\t// in\n            tag_365:\n                /* \"#utility.yul\":3140:5036   */\n              swap14\n              swap13\n              pop\n              pop\n              pop\n              pop\n              pop\n              pop\n              pop\n              pop\n              pop\n              pop\n              pop\n              pop\n              pop\n              jump\t// out\n                /* \"#utility.yul\":5042:5252   */\n            tag_43:\n                /* \"#utility.yul\":5129:5133   */\n              0x00\n                /* \"#utility.yul\":5167:5169   */\n              0x20\n                /* \"#utility.yul\":5156:5165   */\n              dup3\n                /* \"#utility.yul\":5152:5170   */\n              add\n                /* \"#utility.yul\":5144:5170   */\n              swap1\n              pop\n                /* \"#utility.yul\":5180:5245   */\n              tag_367\n                /* \"#utility.yul\":5242:5243   */\n              0x00\n                /* \"#utility.yul\":5231:5240   */\n              dup4\n                /* \"#utility.yul\":5227:5244   */\n              add\n                /* \"#utility.yul\":5218:5224   */\n              dup5\n                /* \"#utility.yul\":5180:5245   */\n              tag_291\n              jump\t// in\n            tag_367:\n                /* \"#utility.yul\":5042:5252   */\n              swap3\n              swap2\n              pop\n              pop\n              jump\t// out\n                /* \"#utility.yul\":5258:5375   */\n            tag_293:\n                /* \"#utility.yul\":5367:5368   */\n              0x00\n                /* \"#utility.yul\":5364:5365   */\n              dup1\n                /* \"#utility.yul\":5357:5369   */\n              revert\n                /* \"#utility.yul\":5381:5498   */\n            tag_294:\n                /* \"#utility.yul\":5490:5491   */\n              0x00\n                /* \"#utility.yul\":5487:5488   */\n              dup1\n                /* \"#utility.yul\":5480:5492   */\n              revert\n                /* \"#utility.yul\":5504:5684   */\n            tag_295:\n                /* \"#utility.yul\":5552:5629   */\n              0x4e487b7100000000000000000000000000000000000000000000000000000000\n                /* \"#utility.yul\":5549:5550   */\n              0x00\n                /* \"#utility.yul\":5542:5630   */\n              mstore\n                /* \"#utility.yul\":5649:5653   */\n              0x41\n                /* \"#utility.yul\":5646:5647   */\n              0x04\n                /* \"#utility.yul\":5639:5654   */\n              mstore\n                /* \"#utility.yul\":5673:5677   */\n              0x24\n                /* \"#utility.yul\":5670:5671   */\n              0x00\n                /* \"#utility.yul\":5663:5678   */\n              revert\n                /* \"#utility.yul\":5690:5971   */\n            tag_296:\n                /* \"#utility.yul\":5773:5800   */\n              tag_372\n                /* \"#utility.yul\":5795:5799   */\n              dup3\n                /* \"#utility.yul\":5773:5800   */\n              tag_285\n              jump\t// in\n            tag_372:\n                /* \"#utility.yul\":5765:5771   */\n              dup2\n                /* \"#utility.yul\":5761:5801   */\n              add\n                /* \"#utility.yul\":5903:5909   */\n              dup2\n                /* \"#utility.yul\":5891:5901   */\n              dup2\n                /* \"#utility.yul\":5888:5910   */\n              lt\n                /* \"#utility.yul\":5867:5885   */\n              0xffffffffffffffff\n                /* \"#utility.yul\":5855:5865   */\n              dup3\n                /* \"#utility.yul\":5852:5886   */\n              gt\n                /* \"#utility.yul\":5849:5911   */\n              or\n                /* \"#utility.yul\":5846:5934   */\n              iszero\n              tag_373\n              jumpi\n                /* \"#utility.yul\":5914:5932   */\n              tag_374\n              tag_295\n              jump\t// in\n            tag_374:\n                /* \"#utility.yul\":5846:5934   */\n            tag_373:\n                /* \"#utility.yul\":5954:5964   */\n              dup1\n                /* \"#utility.yul\":5950:5952   */\n              0x40\n                /* \"#utility.yul\":5943:5965   */\n              mstore\n                /* \"#utility.yul\":5733:5971   */\n              pop\n                /* \"#utility.yul\":5690:5971   */\n              pop\n              pop\n              jump\t// out\n                /* \"#utility.yul\":5977:6106   */\n            tag_297:\n                /* \"#utility.yul\":6011:6017   */\n              0x00\n                /* \"#utility.yul\":6038:6058   */\n              tag_376\n              tag_276\n              jump\t// in\n            tag_376:\n                /* \"#utility.yul\":6028:6058   */\n              swap1\n              pop\n                /* \"#utility.yul\":6067:6100   */\n              tag_377\n                /* \"#utility.yul\":6095:6099   */\n              dup3\n                /* \"#utility.yul\":6087:6093   */\n              dup3\n                /* \"#utility.yul\":6067:6100   */\n              tag_296\n              jump\t// in\n            tag_377:\n                /* \"#utility.yul\":5977:6106   */\n              swap2\n              swap1\n              pop\n              jump\t// out\n                /* \"#utility.yul\":6112:6420   */\n            tag_298:\n                /* \"#utility.yul\":6174:6178   */\n              0x00\n                /* \"#utility.yul\":6264:6282   */\n              0xffffffffffffffff\n                /* \"#utility.yul\":6256:6262   */\n              dup3\n                /* \"#utility.yul\":6253:6283   */\n              gt\n                /* \"#utility.yul\":6250:6306   */\n              iszero\n              tag_379\n              jumpi\n                /* \"#utility.yul\":6286:6304   */\n              tag_380\n              tag_295\n              jump\t// in\n            tag_380:\n                /* \"#utility.yul\":6250:6306   */\n            tag_379:\n                /* \"#utility.yul\":6324:6353   */\n              tag_381\n                /* \"#utility.yul\":6346:6352   */\n              dup3\n                /* \"#utility.yul\":6324:6353   */\n              tag_285\n              jump\t// in\n            tag_381:\n                /* \"#utility.yul\":6316:6353   */\n              swap1\n              pop\n                /* \"#utility.yul\":6408:6412   */\n              0x20\n                /* \"#utility.yul\":6402:6406   */\n              dup2\n                /* \"#utility.yul\":6398:6413   */\n              add\n                /* \"#utility.yul\":6390:6413   */\n              swap1\n              pop\n                /* \"#utility.yul\":6112:6420   */\n              swap2\n              swap1\n              pop\n              jump\t// out\n                /* \"#utility.yul\":6426:6580   */\n            tag_299:\n                /* \"#utility.yul\":6510:6516   */\n              dup3\n                /* \"#utility.yul\":6505:6508   */\n              dup2\n                /* \"#utility.yul\":6500:6503   */\n              dup4\n                /* \"#utility.yul\":6487:6517   */\n              calldatacopy\n                /* \"#utility.yul\":6572:6573   */\n              0x00\n                /* \"#utility.yul\":6563:6569   */\n              dup4\n                /* \"#utility.yul\":6558:6561   */\n              dup4\n                /* \"#utility.yul\":6554:6570   */\n              add\n                /* \"#utility.yul\":6547:6574   */\n              mstore\n                /* \"#utility.yul\":6426:6580   */\n              pop\n              pop\n              pop\n              jump\t// out\n                /* \"#utility.yul\":6586:6998   */\n            tag_300:\n                /* \"#utility.yul\":6664:6669   */\n              0x00\n                /* \"#utility.yul\":6689:6755   */\n              tag_384\n                /* \"#utility.yul\":6705:6754   */\n              tag_385\n                /* \"#utility.yul\":6747:6753   */\n              dup5\n                /* \"#utility.yul\":6705:6754   */\n              tag_298\n              jump\t// in\n            tag_385:\n                /* \"#utility.yul\":6689:6755   */\n              tag_297\n              jump\t// in\n            tag_384:\n                /* \"#utility.yul\":6680:6755   */\n              swap1\n              pop\n                /* \"#utility.yul\":6778:6784   */\n              dup3\n                /* \"#utility.yul\":6771:6776   */\n              dup2\n                /* \"#utility.yul\":6764:6785   */\n              mstore\n                /* \"#utility.yul\":6816:6820   */\n              0x20\n                /* \"#utility.yul\":6809:6814   */\n              dup2\n                /* \"#utility.yul\":6805:6821   */\n              add\n                /* \"#utility.yul\":6854:6857   */\n              dup5\n                /* \"#utility.yul\":6845:6851   */\n              dup5\n                /* \"#utility.yul\":6840:6843   */\n              dup5\n                /* \"#utility.yul\":6836:6852   */\n              add\n                /* \"#utility.yul\":6833:6858   */\n              gt\n                /* \"#utility.yul\":6830:6942   */\n              iszero\n              tag_386\n              jumpi\n                /* \"#utility.yul\":6861:6940   */\n              tag_387\n              tag_294\n              jump\t// in\n            tag_387:\n                /* \"#utility.yul\":6830:6942   */\n            tag_386:\n                /* \"#utility.yul\":6951:6992   */\n              tag_388\n                /* \"#utility.yul\":6985:6991   */\n              dup5\n                /* \"#utility.yul\":6980:6983   */\n              dup3\n                /* \"#utility.yul\":6975:6978   */\n              dup6\n                /* \"#utility.yul\":6951:6992   */\n              tag_299\n              jump\t// in\n            tag_388:\n                /* \"#utility.yul\":6670:6998   */\n              pop\n                /* \"#utility.yul\":6586:6998   */\n              swap4\n              swap3\n              pop\n              pop\n              pop\n              jump\t// out\n                /* \"#utility.yul\":7018:7358   */\n            tag_301:\n                /* \"#utility.yul\":7074:7079   */\n              0x00\n                /* \"#utility.yul\":7123:7126   */\n              dup3\n                /* \"#utility.yul\":7116:7120   */\n              0x1f\n                /* \"#utility.yul\":7108:7114   */\n              dup4\n                /* \"#utility.yul\":7104:7121   */\n              add\n                /* \"#utility.yul\":7100:7127   */\n              slt\n                /* \"#utility.yul\":7090:7212   */\n              tag_390\n              jumpi\n                /* \"#utility.yul\":7131:7210   */\n              tag_391\n              tag_293\n              jump\t// in\n            tag_391:\n                /* \"#utility.yul\":7090:7212   */\n            tag_390:\n                /* \"#utility.yul\":7248:7254   */\n              dup2\n                /* \"#utility.yul\":7235:7255   */\n              calldataload\n                /* \"#utility.yul\":7273:7352   */\n              tag_392\n                /* \"#utility.yul\":7348:7351   */\n              dup5\n                /* \"#utility.yul\":7340:7346   */\n              dup3\n                /* \"#utility.yul\":7333:7337   */\n              0x20\n                /* \"#utility.yul\":7325:7331   */\n              dup7\n                /* \"#utility.yul\":7321:7338   */\n              add\n                /* \"#utility.yul\":7273:7352   */\n              tag_300\n              jump\t// in\n            tag_392:\n                /* \"#utility.yul\":7264:7352   */\n              swap2\n              pop\n                /* \"#utility.yul\":7080:7358   */\n              pop\n                /* \"#utility.yul\":7018:7358   */\n              swap3\n              swap2\n              pop\n              pop\n              jump\t// out\n                /* \"#utility.yul\":7364:7502   */\n            tag_302:\n                /* \"#utility.yul\":7445:7477   */\n              tag_394\n                /* \"#utility.yul\":7471:7476   */\n              dup2\n                /* \"#utility.yul\":7445:7477   */\n              tag_288\n              jump\t// in\n            tag_394:\n                /* \"#utility.yul\":7438:7443   */\n              dup2\n                /* \"#utility.yul\":7435:7478   */\n              eq\n                /* \"#utility.yul\":7425:7496   */\n              tag_395\n              jumpi\n                /* \"#utility.yul\":7492:7493   */\n              0x00\n                /* \"#utility.yul\":7489:7490   */\n              dup1\n                /* \"#utility.yul\":7482:7494   */\n              revert\n                /* \"#utility.yul\":7425:7496   */\n            tag_395:\n                /* \"#utility.yul\":7364:7502   */\n              pop\n              jump\t// out\n                /* \"#utility.yul\":7508:7663   */\n            tag_303:\n                /* \"#utility.yul\":7562:7567   */\n              0x00\n                /* \"#utility.yul\":7600:7606   */\n              dup2\n                /* \"#utility.yul\":7587:7607   */\n              calldataload\n                /* \"#utility.yul\":7578:7607   */\n              swap1\n              pop\n                /* \"#utility.yul\":7616:7657   */\n              tag_397\n                /* \"#utility.yul\":7651:7656   */\n              dup2\n                /* \"#utility.yul\":7616:7657   */\n              tag_302\n              jump\t// in\n            tag_397:\n                /* \"#utility.yul\":7508:7663   */\n              swap3\n              swap2\n              pop\n              pop\n              jump\t// out\n                /* \"#utility.yul\":7669:9788   */\n            tag_49:\n                /* \"#utility.yul\":7840:7846   */\n              0x00\n                /* \"#utility.yul\":7848:7854   */\n              dup1\n                /* \"#utility.yul\":7856:7862   */\n              0x00\n                /* \"#utility.yul\":7864:7870   */\n              dup1\n                /* \"#utility.yul\":7872:7878   */\n              0x00\n                /* \"#utility.yul\":7880:7886   */\n              dup1\n                /* \"#utility.yul\":7888:7894   */\n              0x00\n                /* \"#utility.yul\":7937:7940   */\n              0xe0\n                /* \"#utility.yul\":7925:7934   */\n              dup9\n                /* \"#utility.yul\":7916:7923   */\n              dup11\n                /* \"#utility.yul\":7912:7935   */\n              sub\n                /* \"#utility.yul\":7908:7941   */\n              slt\n                /* \"#utility.yul\":7905:8025   */\n              iszero\n              tag_399\n              jumpi\n                /* \"#utility.yul\":7944:8023   */\n              tag_400\n              tag_277\n              jump\t// in\n            tag_400:\n                /* \"#utility.yul\":7905:8025   */\n            tag_399:\n                /* \"#utility.yul\":8092:8093   */\n              0x00\n                /* \"#utility.yul\":8081:8090   */\n              dup9\n                /* \"#utility.yul\":8077:8094   */\n              add\n                /* \"#utility.yul\":8064:8095   */\n              calldataload\n                /* \"#utility.yul\":8122:8140   */\n              0xffffffffffffffff\n                /* \"#utility.yul\":8114:8120   */\n              dup2\n                /* \"#utility.yul\":8111:8141   */\n              gt\n                /* \"#utility.yul\":8108:8225   */\n              iszero\n              tag_401\n              jumpi\n                /* \"#utility.yul\":8144:8223   */\n              tag_402\n              tag_278\n              jump\t// in\n            tag_402:\n                /* \"#utility.yul\":8108:8225   */\n            tag_401:\n                /* \"#utility.yul\":8249:8312   */\n              tag_403\n                /* \"#utility.yul\":8304:8311   */\n              dup11\n                /* \"#utility.yul\":8295:8301   */\n              dup3\n                /* \"#utility.yul\":8284:8293   */\n              dup12\n                /* \"#utility.yul\":8280:8302   */\n              add\n                /* \"#utility.yul\":8249:8312   */\n              tag_301\n              jump\t// in\n            tag_403:\n                /* \"#utility.yul\":8239:8312   */\n              swap8\n              pop\n                /* \"#utility.yul\":8035:8322   */\n              pop\n                /* \"#utility.yul\":8389:8391   */\n              0x20\n                /* \"#utility.yul\":8378:8387   */\n              dup9\n                /* \"#utility.yul\":8374:8392   */\n              add\n                /* \"#utility.yul\":8361:8393   */\n              calldataload\n                /* \"#utility.yul\":8420:8438   */\n              0xffffffffffffffff\n                /* \"#utility.yul\":8412:8418   */\n              dup2\n                /* \"#utility.yul\":8409:8439   */\n              gt\n                /* \"#utility.yul\":8406:8523   */\n              iszero\n              tag_404\n              jumpi\n                /* \"#utility.yul\":8442:8521   */\n              tag_405\n              tag_278\n              jump\t// in\n            tag_405:\n                /* \"#utility.yul\":8406:8523   */\n            tag_404:\n                /* \"#utility.yul\":8547:8610   */\n              tag_406\n                /* \"#utility.yul\":8602:8609   */\n              dup11\n                /* \"#utility.yul\":8593:8599   */\n              dup3\n                /* \"#utility.yul\":8582:8591   */\n              dup12\n                /* \"#utility.yul\":8578:8600   */\n              add\n                /* \"#utility.yul\":8547:8610   */\n              tag_301\n              jump\t// in\n            tag_406:\n                /* \"#utility.yul\":8537:8610   */\n              swap7\n              pop\n                /* \"#utility.yul\":8332:8620   */\n              pop\n                /* \"#utility.yul\":8687:8689   */\n              0x40\n                /* \"#utility.yul\":8676:8685   */\n              dup9\n                /* \"#utility.yul\":8672:8690   */\n              add\n                /* \"#utility.yul\":8659:8691   */\n              calldataload\n                /* \"#utility.yul\":8718:8736   */\n              0xffffffffffffffff\n                /* \"#utility.yul\":8710:8716   */\n              dup2\n                /* \"#utility.yul\":8707:8737   */\n              gt\n                /* \"#utility.yul\":8704:8821   */\n              iszero\n              tag_407\n              jumpi\n                /* \"#utility.yul\":8740:8819   */\n              tag_408\n              tag_278\n              jump\t// in\n            tag_408:\n                /* \"#utility.yul\":8704:8821   */\n            tag_407:\n                /* \"#utility.yul\":8845:8908   */\n              tag_409\n                /* \"#utility.yul\":8900:8907   */\n              dup11\n                /* \"#utility.yul\":8891:8897   */\n              dup3\n                /* \"#utility.yul\":8880:8889   */\n              dup12\n                /* \"#utility.yul\":8876:8898   */\n              add\n                /* \"#utility.yul\":8845:8908   */\n              tag_301\n              jump\t// in\n            tag_409:\n                /* \"#utility.yul\":8835:8908   */\n              swap6\n              pop\n                /* \"#utility.yul\":8630:8918   */\n              pop\n                /* \"#utility.yul\":8985:8987   */\n              0x60\n                /* \"#utility.yul\":8974:8983   */\n              dup9\n                /* \"#utility.yul\":8970:8988   */\n              add\n                /* \"#utility.yul\":8957:8989   */\n              calldataload\n                /* \"#utility.yul\":9016:9034   */\n              0xffffffffffffffff\n                /* \"#utility.yul\":9008:9014   */\n              dup2\n                /* \"#utility.yul\":9005:9035   */\n              gt\n                /* \"#utility.yul\":9002:9119   */\n              iszero\n              tag_410\n              jumpi\n                /* \"#utility.yul\":9038:9117   */\n              tag_411\n              tag_278\n              jump\t// in\n            tag_411:\n                /* \"#utility.yul\":9002:9119   */\n            tag_410:\n                /* \"#utility.yul\":9143:9206   */\n              tag_412\n                /* \"#utility.yul\":9198:9205   */\n              dup11\n                /* \"#utility.yul\":9189:9195   */\n              dup3\n                /* \"#utility.yul\":9178:9187   */\n              dup12\n                /* \"#utility.yul\":9174:9196   */\n              add\n                /* \"#utility.yul\":9143:9206   */\n              tag_301\n              jump\t// in\n            tag_412:\n                /* \"#utility.yul\":9133:9206   */\n              swap5\n              pop\n                /* \"#utility.yul\":8928:9216   */\n              pop\n                /* \"#utility.yul\":9283:9286   */\n              0x80\n                /* \"#utility.yul\":9272:9281   */\n              dup9\n                /* \"#utility.yul\":9268:9287   */\n              add\n                /* \"#utility.yul\":9255:9288   */\n              calldataload\n                /* \"#utility.yul\":9315:9333   */\n              0xffffffffffffffff\n                /* \"#utility.yul\":9307:9313   */\n              dup2\n                /* \"#utility.yul\":9304:9334   */\n              gt\n                /* \"#utility.yul\":9301:9418   */\n              iszero\n              tag_413\n              jumpi\n                /* \"#utility.yul\":9337:9416   */\n              tag_414\n              tag_278\n              jump\t// in\n            tag_414:\n                /* \"#utility.yul\":9301:9418   */\n            tag_413:\n                /* \"#utility.yul\":9442:9505   */\n              tag_415\n                /* \"#utility.yul\":9497:9504   */\n              dup11\n                /* \"#utility.yul\":9488:9494   */\n              dup3\n                /* \"#utility.yul\":9477:9486   */\n              dup12\n                /* \"#utility.yul\":9473:9495   */\n              add\n                /* \"#utility.yul\":9442:9505   */\n              tag_301\n              jump\t// in\n            tag_415:\n                /* \"#utility.yul\":9432:9505   */\n              swap4\n              pop\n                /* \"#utility.yul\":9226:9515   */\n              pop\n                /* \"#utility.yul\":9554:9557   */\n              0xa0\n                /* \"#utility.yul\":9581:9642   */\n              tag_416\n                /* \"#utility.yul\":9634:9641   */\n              dup11\n                /* \"#utility.yul\":9625:9631   */\n              dup3\n                /* \"#utility.yul\":9614:9623   */\n              dup12\n                /* \"#utility.yul\":9610:9632   */\n              add\n                /* \"#utility.yul\":9581:9642   */\n              tag_303\n              jump\t// in\n            tag_416:\n                /* \"#utility.yul\":9571:9642   */\n              swap3\n              pop\n                /* \"#utility.yul\":9525:9652   */\n              pop\n                /* \"#utility.yul\":9691:9694   */\n              0xc0\n                /* \"#utility.yul\":9718:9771   */\n              tag_417\n                /* \"#utility.yul\":9763:9770   */\n              dup11\n                /* \"#utility.yul\":9754:9760   */\n              dup3\n                /* \"#utility.yul\":9743:9752   */\n              dup12\n                /* \"#utility.yul\":9739:9761   */\n              add\n                /* \"#utility.yul\":9718:9771   */\n              tag_281\n              jump\t// in\n            tag_417:\n                /* \"#utility.yul\":9708:9771   */\n              swap2\n              pop\n                /* \"#utility.yul\":9662:9781   */\n              pop\n                /* \"#utility.yul\":7669:9788   */\n              swap3\n              swap6\n              swap9\n              swap2\n              swap5\n              swap8\n              pop\n              swap3\n              swap6\n              pop\n              jump\t// out\n                /* \"#utility.yul\":9794:10016   */\n            tag_57:\n                /* \"#utility.yul\":9887:9891   */\n              0x00\n                /* \"#utility.yul\":9925:9927   */\n              0x20\n                /* \"#utility.yul\":9914:9923   */\n              dup3\n                /* \"#utility.yul\":9910:9928   */\n              add\n                /* \"#utility.yul\":9902:9928   */\n              swap1\n              pop\n                /* \"#utility.yul\":9938:10009   */\n              tag_419\n                /* \"#utility.yul\":10006:10007   */\n              0x00\n                /* \"#utility.yul\":9995:10004   */\n              dup4\n                /* \"#utility.yul\":9991:10008   */\n              add\n                /* \"#utility.yul\":9982:9988   */\n              dup5\n                /* \"#utility.yul\":9938:10009   */\n              tag_292\n              jump\t// in\n            tag_419:\n                /* \"#utility.yul\":9794:10016   */\n              swap3\n              swap2\n              pop\n              pop\n              jump\t// out\n                /* \"#utility.yul\":10022:10118   */\n            tag_304:\n                /* \"#utility.yul\":10059:10066   */\n              0x00\n                /* \"#utility.yul\":10088:10112   */\n              tag_421\n                /* \"#utility.yul\":10106:10111   */\n              dup3\n                /* \"#utility.yul\":10088:10112   */\n              tag_287\n              jump\t// in\n            tag_421:\n                /* \"#utility.yul\":10077:10112   */\n              swap1\n              pop\n                /* \"#utility.yul\":10022:10118   */\n              swap2\n              swap1\n              pop\n              jump\t// out\n                /* \"#utility.yul\":10124:10246   */\n            tag_305:\n                /* \"#utility.yul\":10197:10221   */\n              tag_423\n                /* \"#utility.yul\":10215:10220   */\n              dup2\n                /* \"#utility.yul\":10197:10221   */\n              tag_304\n              jump\t// in\n            tag_423:\n                /* \"#utility.yul\":10190:10195   */\n              dup2\n                /* \"#utility.yul\":10187:10222   */\n              eq\n                /* \"#utility.yul\":10177:10240   */\n              tag_424\n              jumpi\n                /* \"#utility.yul\":10236:10237   */\n              0x00\n                /* \"#utility.yul\":10233:10234   */\n              dup1\n                /* \"#utility.yul\":10226:10238   */\n              revert\n                /* \"#utility.yul\":10177:10240   */\n            tag_424:\n                /* \"#utility.yul\":10124:10246   */\n              pop\n              jump\t// out\n                /* \"#utility.yul\":10252:10391   */\n            tag_306:\n                /* \"#utility.yul\":10298:10303   */\n              0x00\n                /* \"#utility.yul\":10336:10342   */\n              dup2\n                /* \"#utility.yul\":10323:10343   */\n              calldataload\n                /* \"#utility.yul\":10314:10343   */\n              swap1\n              pop\n                /* \"#utility.yul\":10352:10385   */\n              tag_426\n                /* \"#utility.yul\":10379:10384   */\n              dup2\n                /* \"#utility.yul\":10352:10385   */\n              tag_305\n              jump\t// in\n            tag_426:\n                /* \"#utility.yul\":10252:10391   */\n              swap3\n              swap2\n              pop\n              pop\n              jump\t// out\n                /* \"#utility.yul\":10397:10726   */\n            tag_72:\n                /* \"#utility.yul\":10456:10462   */\n              0x00\n                /* \"#utility.yul\":10505:10507   */\n              0x20\n                /* \"#utility.yul\":10493:10502   */\n              dup3\n                /* \"#utility.yul\":10484:10491   */\n              dup5\n                /* \"#utility.yul\":10480:10503   */\n              sub\n                /* \"#utility.yul\":10476:10508   */\n              slt\n                /* \"#utility.yul\":10473:10592   */\n              iszero\n              tag_428\n              jumpi\n                /* \"#utility.yul\":10511:10590   */\n              tag_429\n              tag_277\n              jump\t// in\n            tag_429:\n                /* \"#utility.yul\":10473:10592   */\n            tag_428:\n                /* \"#utility.yul\":10631:10632   */\n              0x00\n                /* \"#utility.yul\":10656:10709   */\n              tag_430\n                /* \"#utility.yul\":10701:10708   */\n              dup5\n                /* \"#utility.yul\":10692:10698   */\n              dup3\n                /* \"#utility.yul\":10681:10690   */\n              dup6\n                /* \"#utility.yul\":10677:10699   */\n              add\n                /* \"#utility.yul\":10656:10709   */\n              tag_306\n              jump\t// in\n            tag_430:\n                /* \"#utility.yul\":10646:10709   */\n              swap2\n              pop\n                /* \"#utility.yul\":10602:10719   */\n              pop\n                /* \"#utility.yul\":10397:10726   */\n              swap3\n              swap2\n              pop\n              pop\n              jump\t// out\n                /* \"#utility.yul\":10732:10850   */\n            tag_307:\n                /* \"#utility.yul\":10819:10843   */\n              tag_432\n                /* \"#utility.yul\":10837:10842   */\n              dup2\n                /* \"#utility.yul\":10819:10843   */\n              tag_304\n              jump\t// in\n            tag_432:\n                /* \"#utility.yul\":10814:10817   */\n              dup3\n                /* \"#utility.yul\":10807:10844   */\n              mstore\n                /* \"#utility.yul\":10732:10850   */\n              pop\n              pop\n              jump\t// out\n                /* \"#utility.yul\":10856:11078   */\n            tag_82:\n                /* \"#utility.yul\":10949:10953   */\n              0x00\n                /* \"#utility.yul\":10987:10989   */\n              0x20\n                /* \"#utility.yul\":10976:10985   */\n              dup3\n                /* \"#utility.yul\":10972:10990   */\n              add\n                /* \"#utility.yul\":10964:10990   */\n              swap1\n              pop\n                /* \"#utility.yul\":11000:11071   */\n              tag_434\n                /* \"#utility.yul\":11068:11069   */\n              0x00\n                /* \"#utility.yul\":11057:11066   */\n              dup4\n                /* \"#utility.yul\":11053:11070   */\n              add\n                /* \"#utility.yul\":11044:11050   */\n              dup5\n                /* \"#utility.yul\":11000:11071   */\n              tag_307\n              jump\t// in\n            tag_434:\n                /* \"#utility.yul\":10856:11078   */\n              swap3\n              swap2\n              pop\n              pop\n              jump\t// out\n                /* \"#utility.yul\":11084:11200   */\n            tag_308:\n                /* \"#utility.yul\":11154:11175   */\n              tag_436\n                /* \"#utility.yul\":11169:11174   */\n              dup2\n                /* \"#utility.yul\":11154:11175   */\n              tag_290\n              jump\t// in\n            tag_436:\n                /* \"#utility.yul\":11147:11152   */\n              dup2\n                /* \"#utility.yul\":11144:11176   */\n              eq\n                /* \"#utility.yul\":11134:11194   */\n              tag_437\n              jumpi\n                /* \"#utility.yul\":11190:11191   */\n              0x00\n                /* \"#utility.yul\":11187:11188   */\n              dup1\n                /* \"#utility.yul\":11180:11192   */\n              revert\n                /* \"#utility.yul\":11134:11194   */\n            tag_437:\n                /* \"#utility.yul\":11084:11200   */\n              pop\n              jump\t// out\n                /* \"#utility.yul\":11206:11343   */\n            tag_309:\n                /* \"#utility.yul\":11260:11265   */\n              0x00\n                /* \"#utility.yul\":11291:11297   */\n              dup2\n                /* \"#utility.yul\":11285:11298   */\n              mload\n                /* \"#utility.yul\":11276:11298   */\n              swap1\n              pop\n                /* \"#utility.yul\":11307:11337   */\n              tag_439\n                /* \"#utility.yul\":11331:11336   */\n              dup2\n                /* \"#utility.yul\":11307:11337   */\n              tag_308\n              jump\t// in\n            tag_439:\n                /* \"#utility.yul\":11206:11343   */\n              swap3\n              swap2\n              pop\n              pop\n              jump\t// out\n                /* \"#utility.yul\":11349:11694   */\n            tag_97:\n                /* \"#utility.yul\":11416:11422   */\n              0x00\n                /* \"#utility.yul\":11465:11467   */\n              0x20\n                /* \"#utility.yul\":11453:11462   */\n              dup3\n                /* \"#utility.yul\":11444:11451   */\n              dup5\n                /* \"#utility.yul\":11440:11463   */\n              sub\n                /* \"#utility.yul\":11436:11468   */\n              slt\n                /* \"#utility.yul\":11433:11552   */\n              iszero\n              tag_441\n              jumpi\n                /* \"#utility.yul\":11471:11550   */\n              tag_442\n              tag_277\n              jump\t// in\n            tag_442:\n                /* \"#utility.yul\":11433:11552   */\n            tag_441:\n                /* \"#utility.yul\":11591:11592   */\n              0x00\n                /* \"#utility.yul\":11616:11677   */\n              tag_443\n                /* \"#utility.yul\":11669:11676   */\n              dup5\n                /* \"#utility.yul\":11660:11666   */\n              dup3\n                /* \"#utility.yul\":11649:11658   */\n              dup6\n                /* \"#utility.yul\":11645:11667   */\n              add\n                /* \"#utility.yul\":11616:11677   */\n              tag_309\n              jump\t// in\n            tag_443:\n                /* \"#utility.yul\":11606:11677   */\n              swap2\n              pop\n                /* \"#utility.yul\":11562:11687   */\n              pop\n                /* \"#utility.yul\":11349:11694   */\n              swap3\n              swap2\n              pop\n              pop\n              jump\t// out\n                /* \"#utility.yul\":11700:11880   */\n            tag_310:\n                /* \"#utility.yul\":11748:11825   */\n              0x4e487b7100000000000000000000000000000000000000000000000000000000\n                /* \"#utility.yul\":11745:11746   */\n              0x00\n                /* \"#utility.yul\":11738:11826   */\n              mstore\n                /* \"#utility.yul\":11845:11849   */\n              0x11\n                /* \"#utility.yul\":11842:11843   */\n              0x04\n                /* \"#utility.yul\":11835:11850   */\n              mstore\n                /* \"#utility.yul\":11869:11873   */\n              0x24\n                /* \"#utility.yul\":11866:11867   */\n              0x00\n                /* \"#utility.yul\":11859:11874   */\n              revert\n                /* \"#utility.yul\":11886:12119   */\n            tag_110:\n                /* \"#utility.yul\":11925:11928   */\n              0x00\n                /* \"#utility.yul\":11948:11972   */\n              tag_446\n                /* \"#utility.yul\":11966:11971   */\n              dup3\n                /* \"#utility.yul\":11948:11972   */\n              tag_279\n              jump\t// in\n            tag_446:\n                /* \"#utility.yul\":11939:11972   */\n              swap2\n              pop\n                /* \"#utility.yul\":11994:12060   */\n              0xffffffffffffffffffffffffffffffffffffffffffffffffffffffffffffffff\n                /* \"#utility.yul\":11987:11992   */\n              dup3\n                /* \"#utility.yul\":11984:12061   */\n              eq\n                /* \"#utility.yul\":11981:12084   */\n              iszero\n              tag_447\n              jumpi\n                /* \"#utility.yul\":12064:12082   */\n              tag_448\n              tag_310\n              jump\t// in\n            tag_448:\n                /* \"#utility.yul\":11981:12084   */\n            tag_447:\n                /* \"#utility.yul\":12111:12112   */\n              0x01\n                /* \"#utility.yul\":12104:12109   */\n              dup3\n                /* \"#utility.yul\":12100:12113   */\n              add\n                /* \"#utility.yul\":12093:12113   */\n              swap1\n              pop\n                /* \"#utility.yul\":11886:12119   */\n              swap2\n              swap1\n              pop\n              jump\t// out\n                /* \"#utility.yul\":12125:12268   */\n            tag_311:\n                /* \"#utility.yul\":12182:12187   */\n              0x00\n                /* \"#utility.yul\":12213:12219   */\n              dup2\n                /* \"#utility.yul\":12207:12220   */\n              mload\n                /* \"#utility.yul\":12198:12220   */\n              swap1\n              pop\n                /* \"#utility.yul\":12229:12262   */\n              tag_450\n                /* \"#utility.yul\":12256:12261   */\n              dup2\n                /* \"#utility.yul\":12229:12262   */\n              tag_280\n              jump\t// in\n            tag_450:\n                /* \"#utility.yul\":12125:12268   */\n              swap3\n              swap2\n              pop\n              pop\n              jump\t// out\n                /* \"#utility.yul\":12274:12625   */\n            tag_115:\n                /* \"#utility.yul\":12344:12350   */\n              0x00\n                /* \"#utility.yul\":12393:12395   */\n              0x20\n                /* \"#utility.yul\":12381:12390   */\n              dup3\n                /* \"#utility.yul\":12372:12379   */\n              dup5\n                /* \"#utility.yul\":12368:12391   */\n              sub\n                /* \"#utility.yul\":12364:12396   */\n              slt\n                /* \"#utility.yul\":12361:12480   */\n              iszero\n              tag_452\n              jumpi\n                /* \"#utility.yul\":12399:12478   */\n              tag_453\n              tag_277\n              jump\t// in\n            tag_453:\n                /* \"#utility.yul\":12361:12480   */\n            tag_452:\n                /* \"#utility.yul\":12519:12520   */\n              0x00\n                /* \"#utility.yul\":12544:12608   */\n              tag_454\n                /* \"#utility.yul\":12600:12607   */\n              dup5\n                /* \"#utility.yul\":12591:12597   */\n              dup3\n                /* \"#utility.yul\":12580:12589   */\n              dup6\n                /* \"#utility.yul\":12576:12598   */\n              add\n                /* \"#utility.yul\":12544:12608   */\n              tag_311\n              jump\t// in\n            tag_454:\n                /* \"#utility.yul\":12534:12608   */\n              swap2\n              pop\n                /* \"#utility.yul\":12490:12618   */\n              pop\n                /* \"#utility.yul\":12274:12625   */\n              swap3\n              swap2\n              pop\n              pop\n              jump\t// out\n                /* \"#utility.yul\":12631:12811   */\n            tag_312:\n                /* \"#utility.yul\":12679:12756   */\n              0x4e487b7100000000000000000000000000000000000000000000000000000000\n                /* \"#utility.yul\":12676:12677   */\n              0x00\n                /* \"#utility.yul\":12669:12757   */\n              mstore\n                /* \"#utility.yul\":12776:12780   */\n              0x12\n                /* \"#utility.yul\":12773:12774   */\n              0x04\n                /* \"#utility.yul\":12766:12781   */\n              mstore\n                /* \"#utility.yul\":12800:12804   */\n              0x24\n                /* \"#utility.yul\":12797:12798   */\n              0x00\n                /* \"#utility.yul\":12790:12805   */\n              revert\n                /* \"#utility.yul\":12817:13002   */\n            tag_117:\n                /* \"#utility.yul\":12857:12858   */\n              0x00\n                /* \"#utility.yul\":12874:12894   */\n              tag_457\n                /* \"#utility.yul\":12892:12893   */\n              dup3\n                /* \"#utility.yul\":12874:12894   */\n              tag_279\n              jump\t// in\n            tag_457:\n                /* \"#utility.yul\":12869:12894   */\n              swap2\n              pop\n                /* \"#utility.yul\":12908:12928   */\n              tag_458\n                /* \"#utility.yul\":12926:12927   */\n              dup4\n                /* \"#utility.yul\":12908:12928   */\n              tag_279\n              jump\t// in\n            tag_458:\n                /* \"#utility.yul\":12903:12928   */\n              swap3\n              pop\n                /* \"#utility.yul\":12947:12948   */\n              dup3\n                /* \"#utility.yul\":12937:12972   */\n              tag_459\n              jumpi\n                /* \"#utility.yul\":12952:12970   */\n              tag_460\n              tag_312\n              jump\t// in\n            tag_460:\n                /* \"#utility.yul\":12937:12972   */\n            tag_459:\n                /* \"#utility.yul\":12994:12995   */\n              dup3\n                /* \"#utility.yul\":12991:12992   */\n              dup3\n                /* \"#utility.yul\":12987:12996   */\n              div\n                /* \"#utility.yul\":12982:12996   */\n              swap1\n              pop\n                /* \"#utility.yul\":12817:13002   */\n              swap3\n              swap2\n              pop\n              pop\n              jump\t// out\n                /* \"#utility.yul\":13008:13188   */\n            tag_313:\n                /* \"#utility.yul\":13056:13133   */\n              0x4e487b7100000000000000000000000000000000000000000000000000000000\n                /* \"#utility.yul\":13053:13054   */\n              0x00\n                /* \"#utility.yul\":13046:13134   */\n              mstore\n                /* \"#utility.yul\":13153:13157   */\n              0x22\n                /* \"#utility.yul\":13150:13151   */\n              0x04\n                /* \"#utility.yul\":13143:13158   */\n              mstore\n                /* \"#utility.yul\":13177:13181   */\n              0x24\n                /* \"#utility.yul\":13174:13175   */\n              0x00\n                /* \"#utility.yul\":13167:13182   */\n              revert\n                /* \"#utility.yul\":13194:13514   */\n            tag_120:\n                /* \"#utility.yul\":13238:13244   */\n              0x00\n                /* \"#utility.yul\":13275:13276   */\n              0x02\n                /* \"#utility.yul\":13269:13273   */\n              dup3\n                /* \"#utility.yul\":13265:13277   */\n              div\n                /* \"#utility.yul\":13255:13277   */\n              swap1\n              pop\n                /* \"#utility.yul\":13322:13323   */\n              0x01\n                /* \"#utility.yul\":13316:13320   */\n              dup3\n                /* \"#utility.yul\":13312:13324   */\n              and\n                /* \"#utility.yul\":13343:13361   */\n              dup1\n                /* \"#utility.yul\":13333:13414   */\n              tag_463\n              jumpi\n                /* \"#utility.yul\":13399:13403   */\n              0x7f\n                /* \"#utility.yul\":13391:13397   */\n              dup3\n                /* \"#utility.yul\":13387:13404   */\n              and\n                /* \"#utility.yul\":13377:13404   */\n              swap2\n              pop\n                /* \"#utility.yul\":13333:13414   */\n            tag_463:\n                /* \"#utility.yul\":13461:13463   */\n              0x20\n                /* \"#utility.yul\":13453:13459   */\n              dup3\n                /* \"#utility.yul\":13450:13464   */\n              lt\n                /* \"#utility.yul\":13430:13448   */\n              dup2\n                /* \"#utility.yul\":13427:13465   */\n              eq\n                /* \"#utility.yul\":13424:13508   */\n              iszero\n              tag_464\n              jumpi\n                /* \"#utility.yul\":13480:13498   */\n              tag_465\n              tag_313\n              jump\t// in\n            tag_465:\n                /* \"#utility.yul\":13424:13508   */\n            tag_464:\n                /* \"#utility.yul\":13245:13514   */\n              pop\n                /* \"#utility.yul\":13194:13514   */\n              swap2\n              swap1\n              pop\n              jump\t// out\n                /* \"#utility.yul\":13520:13884   */\n            tag_183:\n                /* \"#utility.yul\":13657:13661   */\n              0x00\n                /* \"#utility.yul\":13695:13697   */\n              0x40\n                /* \"#utility.yul\":13684:13693   */\n              dup3\n                /* \"#utility.yul\":13680:13698   */\n              add\n                /* \"#utility.yul\":13672:13698   */\n              swap1\n              pop\n                /* \"#utility.yul\":13708:13795   */\n              tag_467\n                /* \"#utility.yul\":13792:13793   */\n              0x00\n                /* \"#utility.yul\":13781:13790   */\n              dup4\n                /* \"#utility.yul\":13777:13794   */\n              add\n                /* \"#utility.yul\":13768:13774   */\n              dup6\n                /* \"#utility.yul\":13708:13795   */\n              tag_289\n              jump\t// in\n            tag_467:\n                /* \"#utility.yul\":13805:13877   */\n              tag_468\n                /* \"#utility.yul\":13873:13875   */\n              0x20\n                /* \"#utility.yul\":13862:13871   */\n              dup4\n                /* \"#utility.yul\":13858:13876   */\n              add\n                /* \"#utility.yul\":13849:13855   */\n              dup5\n                /* \"#utility.yul\":13805:13877   */\n              tag_292\n              jump\t// in\n            tag_468:\n                /* \"#utility.yul\":13520:13884   */\n              swap4\n              swap3\n              pop\n              pop\n              pop\n              jump\t// out\n\n            auxdata: 0xa264697066735822122086d1f02ebb78432334fcb53ed32826d54112680ba2b84c0eda62af5cc4f33e1f64736f6c63430008090033\n        }\n    }\n\n    auxdata: 0xa26469706673582212202321f29bffb643ee0f7ca184f235b55c94af80e8d23e0d37fa4c3c3029c1ccf264736f6c63430008090033\n}\n","bytecode":{"linkReferences":{},"object":"6080604052306000806101000a81548173ffffffffffffffffffffffffffffffffffffffff021916908373ffffffffffffffffffffffffffffffffffffffff16021790555034801561005057600080fd5b5060405162003b9038038062003b90833981810160405281019061007491906100bc565b80600181905550506100e9565b600080fd5b6000819050919050565b61009981610086565b81146100a457600080fd5b50565b6000815190506100b681610090565b92915050565b6000602082840312156100d2576100d1610081565b5b60006100e0848285016100a7565b91505092915050565b613a9780620000f96000396000f3fe608060405260043610620000b65760003560e01c8063a2bdedf4116200006d578063a2bdedf41462000215578063a87430ba1462000259578063b4c1a368146200029d578063d815e58d14620002cd578063e2842d7914620002d9578063f77ac668146200030957620000b6565b8063018f547214620000bb57806308ae4b0c14620000ff5780634ab4ba4214620001435780635d672a6214620001735780636f7fcddb14620001b7578063997072f714620001e5575b600080fd5b348015620000c857600080fd5b50620000e76004803603810190620000e19190620008f4565b62000337565b604051620000f6919062000943565b60405180910390f35b3480156200010c57600080fd5b506200012b6004803603810190620001259190620008f4565b62000392565b6040516200013a919062000943565b60405180910390f35b3480156200015057600080fd5b506200015b620003b2565b6040516200016a91906200097b565b60405180910390f35b3480156200018057600080fd5b506200019f6004803603810190620001999190620008f4565b620003ba565b604051620001ae919062000943565b60405180910390f35b348015620001c457600080fd5b50620001e36004803603810190620001dd919062000afa565b62000415565b005b348015620001f257600080fd5b50620001fd620005ee565b6040516200020c91906200097b565b60405180910390f35b3480156200022257600080fd5b506200024160048036038101906200023b919062000c19565b620005f8565b60405162000250919062000cb6565b60405180910390f35b3480156200026657600080fd5b506200028560048036038101906200027f9190620008f4565b62000638565b60405162000294919062000943565b60405180910390f35b348015620002aa57600080fd5b50620002b562000658565b604051620002c491906200097b565b60405180910390f35b620002d76200065e565b005b348015620002e657600080fd5b50620002f162000791565b60405162000300919062000da1565b60405180910390f35b3480156200031657600080fd5b506200033560048036038101906200032f919062000e0a565b62000821565b005b600080600560008473ffffffffffffffffffffffffffffffffffffffff1673ffffffffffffffffffffffffffffffffffffffff16815260200190815260200160002060009054906101000a900460ff16905080915050919050565b60036020528060005260406000206000915054906101000a900460ff1681565b600047905090565b600080600360008473ffffffffffffffffffffffffffffffffffffffff1673ffffffffffffffffffffffffffffffffffffffff16815260200190815260200160002060009054906101000a900460ff16905080915050919050565b600360003373ffffffffffffffffffffffffffffffffffffffff1673ffffffffffffffffffffffffffffffffffffffff16815260200190815260200160002060009054906101000a900460ff16156200046d57600080fd5b600560003373ffffffffffffffffffffffffffffffffffffffff1673ffffffffffffffffffffffffffffffffffffffff16815260200190815260200160002060009054906101000a900460ff1615620004c557600080fd5b6000848484843360008054906101000a900473ffffffffffffffffffffffffffffffffffffffff16604051620004fb906200086d565b6200050c9695949392919062000ef5565b604051809103906000f08015801562000529573d6000803e3d6000fd5b5090506001600560003373ffffffffffffffffffffffffffffffffffffffff1673ffffffffffffffffffffffffffffffffffffffff16815260200190815260200160002060006101000a81548160ff0219169083151502179055506004819080600181540180825580915050600190039060005260206000200160009091909190916101000a81548173ffffffffffffffffffffffffffffffffffffffff021916908373ffffffffffffffffffffffffffffffffffffffff1602179055505050505050565b6000600254905090565b600481815481106200060957600080fd5b906000526020600020016000915054906101000a900473ffffffffffffffffffffffffffffffffffffffff1681565b60056020528060005260406000206000915054906101000a900460ff1681565b60015481565b600560003373ffffffffffffffffffffffffffffffffffffffff1673ffffffffffffffffffffffffffffffffffffffff16815260200190815260200160002060009054906101000a900460ff1615620006b657600080fd5b600360003373ffffffffffffffffffffffffffffffffffffffff1673ffffffffffffffffffffffffffffffffffffffff16815260200190815260200160002060009054906101000a900460ff16156200070e57600080fd5b60015434146200071d57600080fd5b60026000815480929190620007329062000fad565b91905055506001600360003373ffffffffffffffffffffffffffffffffffffffff1673ffffffffffffffffffffffffffffffffffffffff16815260200190815260200160002060006101000a81548160ff021916908315150217905550565b606060048054806020026020016040519081016040528092919081815260200182805480156200081757602002820191906000526020600020905b8160009054906101000a900473ffffffffffffffffffffffffffffffffffffffff1673ffffffffffffffffffffffffffffffffffffffff1681526020019060010190808311620007cc575b5050505050905090565b8173ffffffffffffffffffffffffffffffffffffffff166108fc829081150290604051600060405180830381858888f1935050505015801562000868573d6000803e3d6000fd5b505050565b612a668062000ffc83390190565b6000604051905090565b600080fd5b600080fd5b600073ffffffffffffffffffffffffffffffffffffffff82169050919050565b6000620008bc826200088f565b9050919050565b620008ce81620008af565b8114620008da57600080fd5b50565b600081359050620008ee81620008c3565b92915050565b6000602082840312156200090d576200090c62000885565b5b60006200091d84828501620008dd565b91505092915050565b60008115159050919050565b6200093d8162000926565b82525050565b60006020820190506200095a600083018462000932565b92915050565b6000819050919050565b620009758162000960565b82525050565b60006020820190506200099260008301846200096a565b92915050565b600080fd5b600080fd5b6000601f19601f8301169050919050565b7f4e487b7100000000000000000000000000000000000000000000000000000000600052604160045260246000fd5b620009ed82620009a2565b810181811067ffffffffffffffff8211171562000a0f5762000a0e620009b3565b5b80604052505050565b600062000a246200087b565b905062000a328282620009e2565b919050565b600067ffffffffffffffff82111562000a555762000a54620009b3565b5b62000a6082620009a2565b9050602081019050919050565b82818337600083830152505050565b600062000a9362000a8d8462000a37565b62000a18565b90508281526020810184848401111562000ab25762000ab16200099d565b5b62000abf84828562000a6d565b509392505050565b600082601f83011262000adf5762000ade62000998565b5b813562000af184826020860162000a7c565b91505092915050565b6000806000806080858703121562000b175762000b1662000885565b5b600085013567ffffffffffffffff81111562000b385762000b376200088a565b5b62000b468782880162000ac7565b945050602085013567ffffffffffffffff81111562000b6a5762000b696200088a565b5b62000b788782880162000ac7565b935050604085013567ffffffffffffffff81111562000b9c5762000b9b6200088a565b5b62000baa8782880162000ac7565b925050606085013567ffffffffffffffff81111562000bce5762000bcd6200088a565b5b62000bdc8782880162000ac7565b91505092959194509250565b62000bf38162000960565b811462000bff57600080fd5b50565b60008135905062000c138162000be8565b92915050565b60006020828403121562000c325762000c3162000885565b5b600062000c428482850162000c02565b91505092915050565b6000819050919050565b600062000c7662000c7062000c6a846200088f565b62000c4b565b6200088f565b9050919050565b600062000c8a8262000c55565b9050919050565b600062000c9e8262000c7d565b9050919050565b62000cb08162000c91565b82525050565b600060208201905062000ccd600083018462000ca5565b92915050565b600081519050919050565b600082825260208201905092915050565b6000819050602082019050919050565b62000d0a8162000c91565b82525050565b600062000d1e838362000cff565b60208301905092915050565b6000602082019050919050565b600062000d448262000cd3565b62000d50818562000cde565b935062000d5d8362000cef565b8060005b8381101562000d9457815162000d78888262000d10565b975062000d858362000d2a565b92505060018101905062000d61565b5085935050505092915050565b6000602082019050818103600083015262000dbd818462000d37565b905092915050565b600062000dd2826200088f565b9050919050565b62000de48162000dc5565b811462000df057600080fd5b50565b60008135905062000e048162000dd9565b92915050565b6000806040838503121562000e245762000e2362000885565b5b600062000e348582860162000df3565b925050602062000e478582860162000c02565b9150509250929050565b600081519050919050565b600082825260208201905092915050565b60005b8381101562000e8d57808201518184015260208101905062000e70565b8381111562000e9d576000848401525b50505050565b600062000eb08262000e51565b62000ebc818562000e5c565b935062000ece81856020860162000e6d565b62000ed981620009a2565b840191505092915050565b62000eef81620008af565b82525050565b600060c082019050818103600083015262000f11818962000ea3565b9050818103602083015262000f27818862000ea3565b9050818103604083015262000f3d818762000ea3565b9050818103606083015262000f53818662000ea3565b905062000f64608083018562000ee4565b62000f7360a083018462000ee4565b979650505050505050565b7f4e487b7100000000000000000000000000000000000000000000000000000000600052601160045260246000fd5b600062000fba8262000960565b91507fffffffffffffffffffffffffffffffffffffffffffffffffffffffffffffffff82141562000ff05762000fef62000f7e565b5b60018201905091905056fe60806040523480156200001157600080fd5b5060405162002a6638038062002a66833981810160405281019062000037919062000429565b85600090805190602001906200004f92919062000177565b5084600190805190602001906200006892919062000177565b5083600390805190602001906200008192919062000177565b5082600490805190602001906200009a92919062000177565b5081600260006101000a81548173ffffffffffffffffffffffffffffffffffffffff021916908373ffffffffffffffffffffffffffffffffffffffff16021790555080600a60006101000a81548173ffffffffffffffffffffffffffffffffffffffff021916908373ffffffffffffffffffffffffffffffffffffffff160217905550600060058190555060006006819055506000600760006101000a81548160ff0219169083151502179055506000600760016101000a81548160ff0219169083151502179055506000600b81905550505050505050620005a6565b828054620001859062000570565b90600052602060002090601f016020900481019282620001a95760008555620001f5565b82601f10620001c457805160ff1916838001178555620001f5565b82800160010185558215620001f5579182015b82811115620001f4578251825591602001919060010190620001d7565b5b50905062000204919062000208565b5090565b5b808211156200022357600081600090555060010162000209565b5090565b6000604051905090565b600080fd5b600080fd5b600080fd5b600080fd5b6000601f19601f8301169050919050565b7f4e487b7100000000000000000000000000000000000000000000000000000000600052604160045260246000fd5b620002908262000245565b810181811067ffffffffffffffff82111715620002b257620002b162000256565b5b80604052505050565b6000620002c762000227565b9050620002d5828262000285565b919050565b600067ffffffffffffffff821115620002f857620002f762000256565b5b620003038262000245565b9050602081019050919050565b60005b838110156200033057808201518184015260208101905062000313565b8381111562000340576000848401525b50505050565b60006200035d6200035784620002da565b620002bb565b9050828152602081018484840111156200037c576200037b62000240565b5b6200038984828562000310565b509392505050565b600082601f830112620003a957620003a86200023b565b5b8151620003bb84826020860162000346565b91505092915050565b600073ffffffffffffffffffffffffffffffffffffffff82169050919050565b6000620003f182620003c4565b9050919050565b6200040381620003e4565b81146200040f57600080fd5b50565b6000815190506200042381620003f8565b92915050565b60008060008060008060c0878903121562000449576200044862000231565b5b600087015167ffffffffffffffff8111156200046a576200046962000236565b5b6200047889828a0162000391565b965050602087015167ffffffffffffffff8111156200049c576200049b62000236565b5b620004aa89828a0162000391565b955050604087015167ffffffffffffffff811115620004ce57620004cd62000236565b5b620004dc89828a0162000391565b945050606087015167ffffffffffffffff8111156200050057620004ff62000236565b5b6200050e89828a0162000391565b93505060806200052189828a0162000412565b92505060a06200053489828a0162000412565b9150509295509295509295565b7f4e487b7100000000000000000000000000000000000000000000000000000000600052602260045260246000fd5b600060028204905060018216806200058957607f821691505b60208210811415620005a0576200059f62000541565b5b50919050565b6124b080620005b66000396000f3fe608060405234801561001057600080fd5b50600436106101215760003560e01c8063820e93f5116100ad578063d6e3ee6b11610071578063d6e3ee6b146102df578063e4128fb31461030f578063ee4e1b531461032d578063f04693d414610349578063fb6ff96e1461035357610121565b8063820e93f5146102375780639284f497146102555780639fe7717d14610273578063c2c706b014610291578063c9031934146102af57610121565b806328f371aa116100f457806328f371aa146101a55780634a57e1c9146101c35780636c39bda3146101df5780637284e416146101fb5780638129dfc91461021957610121565b8063034d09da1461012657806306fdde0314610142578063141961bc1461016057806328d0c4941461019b575b600080fd5b610140600480360381019061013b9190611cf3565b610371565b005b61014a610762565b6040516101579190611db9565b60405180910390f35b61017a60048036038101906101759190611cf3565b6107f0565b6040516101929c9b9a99989796959493929190611e46565b60405180910390f35b6101a3610b3f565b005b6101ad610dfc565b6040516101ba9190611f23565b60405180910390f35b6101dd60048036038101906101d89190611cf3565b610e0f565b005b6101f960048036038101906101f4919061209f565b611056565b005b610203611323565b6040516102109190611db9565b60405180910390f35b6102216113b1565b60405161022e91906121cd565b60405180910390f35b61023f6113b7565b60405161024c9190611db9565b60405180910390f35b61025d611445565b60405161026a9190611db9565b60405180910390f35b61027b6114d3565b60405161028891906121cd565b60405180910390f35b6102996114d9565b6040516102a69190611f23565b60405180910390f35b6102c960048036038101906102c49190612226565b6114ec565b6040516102d69190611f23565b60405180910390f35b6102f960048036038101906102f49190612226565b61150c565b6040516103069190611f23565b60405180910390f35b61031761152c565b6040516103249190612262565b60405180910390f35b61034760048036038101906103429190611cf3565b611552565b005b610351611943565b005b61035b611c00565b60405161036891906121cd565b60405180910390f35b6000600a60009054906101000a900473ffffffffffffffffffffffffffffffffffffffff1690508073ffffffffffffffffffffffffffffffffffffffff16635d672a62336040518263ffffffff1660e01b81526004016103d19190612262565b60206040518083038186803b1580156103e957600080fd5b505afa1580156103fd573d6000803e3d6000fd5b505050506040513d601f19601f8201168201806040525081019061042191906122a9565b61042a57600080fd5b8073ffffffffffffffffffffffffffffffffffffffff1663018f5472336040518263ffffffff1660e01b81526004016104639190612262565b60206040518083038186803b15801561047b57600080fd5b505afa15801561048f573d6000803e3d6000fd5b505050506040513d601f19601f820116820180604052508101906104b391906122a9565b156104bd57600080fd5b600c6000838152602001908152602001600020600a0160003373ffffffffffffffffffffffffffffffffffffffff1673ffffffffffffffffffffffffffffffffffffffff16815260200190815260200160002060009054906101000a900460ff161561052857600080fd5b600c6000838152602001908152602001600020600b0160003373ffffffffffffffffffffffffffffffffffffffff1673ffffffffffffffffffffffffffffffffffffffff16815260200190815260200160002060009054906101000a900460ff161561059357600080fd5b600c600083815260200190815260200160002060090160009054906101000a900460ff16156105c157600080fd5b600c600083815260200190815260200160002060090160019054906101000a900460ff16156105ef57600080fd5b600c6000838152602001908152602001600020600801600081548092919061061690612305565b91905055506001600c6000848152602001908152602001600020600b0160003373ffffffffffffffffffffffffffffffffffffffff1673ffffffffffffffffffffffffffffffffffffffff16815260200190815260200160002060006101000a81548160ff02191690831515021790555060028173ffffffffffffffffffffffffffffffffffffffff1663997072f76040518163ffffffff1660e01b815260040160206040518083038186803b1580156106cf57600080fd5b505afa1580156106e3573d6000803e3d6000fd5b505050506040513d601f19601f820116820180604052508101906107079190612363565b61071191906123bf565b600c600084815260200190815260200160002060080154111561075e576001600c600084815260200190815260200160002060090160016101000a81548160ff0219169083151502179055505b5050565b6000805461076f9061241f565b80601f016020809104026020016040519081016040528092919081815260200182805461079b9061241f565b80156107e85780601f106107bd576101008083540402835291602001916107e8565b820191906000526020600020905b8154815290600101906020018083116107cb57829003601f168201915b505050505081565b600c6020528060005260406000206000915090508060000180546108139061241f565b80601f016020809104026020016040519081016040528092919081815260200182805461083f9061241f565b801561088c5780601f106108615761010080835404028352916020019161088c565b820191906000526020600020905b81548152906001019060200180831161086f57829003601f168201915b5050505050908060010180546108a19061241f565b80601f01602080910402602001604051908101604052809291908181526020018280546108cd9061241f565b801561091a5780601f106108ef5761010080835404028352916020019161091a565b820191906000526020600020905b8154815290600101906020018083116108fd57829003601f168201915b50505050509080600201805461092f9061241f565b80601f016020809104026020016040519081016040528092919081815260200182805461095b9061241f565b80156109a85780601f1061097d576101008083540402835291602001916109a8565b820191906000526020600020905b81548152906001019060200180831161098b57829003601f168201915b5050505050908060030180546109bd9061241f565b80601f01602080910402602001604051908101604052809291908181526020018280546109e99061241f565b8015610a365780601f10610a0b57610100808354040283529160200191610a36565b820191906000526020600020905b815481529060010190602001808311610a1957829003601f168201915b505050505090806004018054610a4b9061241f565b80601f0160208091040260200160405190810160405280929190818152602001828054610a779061241f565b8015610ac45780601f10610a9957610100808354040283529160200191610ac4565b820191906000526020600020905b815481529060010190602001808311610aa757829003601f168201915b5050505050908060050160009054906101000a900473ffffffffffffffffffffffffffffffffffffffff16908060050160149054906101000a900460ff16908060060154908060070154908060080154908060090160009054906101000a900460ff16908060090160019054906101000a900460ff1690508c565b6000600a60009054906101000a900473ffffffffffffffffffffffffffffffffffffffff1690508073ffffffffffffffffffffffffffffffffffffffff16635d672a62336040518263ffffffff1660e01b8152600401610b9f9190612262565b60206040518083038186803b158015610bb757600080fd5b505afa158015610bcb573d6000803e3d6000fd5b505050506040513d601f19601f82011682018060405250810190610bef91906122a9565b610bf857600080fd5b600860003373ffffffffffffffffffffffffffffffffffffffff1673ffffffffffffffffffffffffffffffffffffffff16815260200190815260200160002060009054906101000a900460ff1615610c4f57600080fd5b600960003373ffffffffffffffffffffffffffffffffffffffff1673ffffffffffffffffffffffffffffffffffffffff16815260200190815260200160002060009054906101000a900460ff1615610ca657600080fd5b600760009054906101000a900460ff1615610cc057600080fd5b600760019054906101000a900460ff1615610cda57600080fd5b6001600960003373ffffffffffffffffffffffffffffffffffffffff1673ffffffffffffffffffffffffffffffffffffffff16815260200190815260200160002060006101000a81548160ff02191690831515021790555060066000815480929190610d4590612305565b919050555060028173ffffffffffffffffffffffffffffffffffffffff1663997072f76040518163ffffffff1660e01b815260040160206040518083038186803b158015610d9257600080fd5b505afa158015610da6573d6000803e3d6000fd5b505050506040513d601f19601f82011682018060405250810190610dca9190612363565b610dd491906123bf565b6006541115610df9576001600760016101000a81548160ff0219169083151502179055505b50565b600760009054906101000a900460ff1681565b6000600a60009054906101000a900473ffffffffffffffffffffffffffffffffffffffff1690508073ffffffffffffffffffffffffffffffffffffffff1663018f5472336040518263ffffffff1660e01b8152600401610e6f9190612262565b60206040518083038186803b158015610e8757600080fd5b505afa158015610e9b573d6000803e3d6000fd5b505050506040513d601f19601f82011682018060405250810190610ebf91906122a9565b610ec857600080fd5b8073ffffffffffffffffffffffffffffffffffffffff16635d672a62336040518263ffffffff1660e01b8152600401610f019190612262565b60206040518083038186803b158015610f1957600080fd5b505afa158015610f2d573d6000803e3d6000fd5b505050506040513d601f19601f82011682018060405250810190610f5191906122a9565b15610f5b57600080fd5b600c600083815260200190815260200160002060090160009054906101000a900460ff16610f8857600080fd5b6000600c600084815260200190815260200160002090508173ffffffffffffffffffffffffffffffffffffffff1663f77ac6688260050160009054906101000a900473ffffffffffffffffffffffffffffffffffffffff1683600601546040518363ffffffff1660e01b8152600401611002929190612451565b600060405180830381600087803b15801561101c57600080fd5b505af1158015611030573d6000803e3d6000fd5b5050505060018160050160146101000a81548160ff021916908315150217905550505050565b6000600a60009054906101000a900473ffffffffffffffffffffffffffffffffffffffff1690508073ffffffffffffffffffffffffffffffffffffffff1663018f5472336040518263ffffffff1660e01b81526004016110b69190612262565b60206040518083038186803b1580156110ce57600080fd5b505afa1580156110e2573d6000803e3d6000fd5b505050506040513d601f19601f8201168201806040525081019061110691906122a9565b61110f57600080fd5b8073ffffffffffffffffffffffffffffffffffffffff16635d672a62336040518263ffffffff1660e01b81526004016111489190612262565b60206040518083038186803b15801561116057600080fd5b505afa158015611174573d6000803e3d6000fd5b505050506040513d601f19601f8201168201806040525081019061119891906122a9565b156111a257600080fd5b600760009054906101000a900460ff1680156111cb5750600760019054906101000a900460ff16155b6111d457600080fd5b6000600c6000600b60008154809291906111ed90612305565b919050558152602001908152602001600020905088816000019080519060200190611219929190611c06565b5087816001019080519060200190611232929190611c06565b508681600201908051906020019061124b929190611c06565b5085816003019080519060200190611264929190611c06565b508481600401908051906020019061127d929190611c06565b50838160050160006101000a81548173ffffffffffffffffffffffffffffffffffffffff021916908373ffffffffffffffffffffffffffffffffffffffff160217905550828160060181905550600081600701819055506000816008018190555060008160090160006101000a81548160ff02191690831515021790555060008160090160016101000a81548160ff021916908315150217905550505050505050505050565b600180546113309061241f565b80601f016020809104026020016040519081016040528092919081815260200182805461135c9061241f565b80156113a95780601f1061137e576101008083540402835291602001916113a9565b820191906000526020600020905b81548152906001019060200180831161138c57829003601f168201915b505050505081565b600b5481565b600480546113c49061241f565b80601f01602080910402602001604051908101604052809291908181526020018280546113f09061241f565b801561143d5780601f106114125761010080835404028352916020019161143d565b820191906000526020600020905b81548152906001019060200180831161142057829003601f168201915b505050505081565b600380546114529061241f565b80601f016020809104026020016040519081016040528092919081815260200182805461147e9061241f565b80156114cb5780601f106114a0576101008083540402835291602001916114cb565b820191906000526020600020905b8154815290600101906020018083116114ae57829003601f168201915b505050505081565b60055481565b600760019054906101000a900460ff1681565b60086020528060005260406000206000915054906101000a900460ff1681565b60096020528060005260406000206000915054906101000a900460ff1681565b600260009054906101000a900473ffffffffffffffffffffffffffffffffffffffff1681565b6000600a60009054906101000a900473ffffffffffffffffffffffffffffffffffffffff1690508073ffffffffffffffffffffffffffffffffffffffff16635d672a62336040518263ffffffff1660e01b81526004016115b29190612262565b60206040518083038186803b1580156115ca57600080fd5b505afa1580156115de573d6000803e3d6000fd5b505050506040513d601f19601f8201168201806040525081019061160291906122a9565b61160b57600080fd5b8073ffffffffffffffffffffffffffffffffffffffff1663018f5472336040518263ffffffff1660e01b81526004016116449190612262565b60206040518083038186803b15801561165c57600080fd5b505afa158015611670573d6000803e3d6000fd5b505050506040513d601f19601f8201168201806040525081019061169491906122a9565b1561169e57600080fd5b600c6000838152602001908152602001600020600a0160003373ffffffffffffffffffffffffffffffffffffffff1673ffffffffffffffffffffffffffffffffffffffff16815260200190815260200160002060009054906101000a900460ff161561170957600080fd5b600c6000838152602001908152602001600020600b0160003373ffffffffffffffffffffffffffffffffffffffff1673ffffffffffffffffffffffffffffffffffffffff16815260200190815260200160002060009054906101000a900460ff161561177457600080fd5b600c600083815260200190815260200160002060090160009054906101000a900460ff16156117a257600080fd5b600c600083815260200190815260200160002060090160019054906101000a900460ff16156117d057600080fd5b600c600083815260200190815260200160002060070160008154809291906117f790612305565b91905055506001600c6000848152602001908152602001600020600a0160003373ffffffffffffffffffffffffffffffffffffffff1673ffffffffffffffffffffffffffffffffffffffff16815260200190815260200160002060006101000a81548160ff02191690831515021790555060028173ffffffffffffffffffffffffffffffffffffffff1663997072f76040518163ffffffff1660e01b815260040160206040518083038186803b1580156118b057600080fd5b505afa1580156118c4573d6000803e3d6000fd5b505050506040513d601f19601f820116820180604052508101906118e89190612363565b6118f291906123bf565b600c600084815260200190815260200160002060070154111561193f576001600c600084815260200190815260200160002060090160006101000a81548160ff0219169083151502179055505b5050565b6000600a60009054906101000a900473ffffffffffffffffffffffffffffffffffffffff1690508073ffffffffffffffffffffffffffffffffffffffff16635d672a62336040518263ffffffff1660e01b81526004016119a39190612262565b60206040518083038186803b1580156119bb57600080fd5b505afa1580156119cf573d6000803e3d6000fd5b505050506040513d601f19601f820116820180604052508101906119f391906122a9565b6119fc57600080fd5b600860003373ffffffffffffffffffffffffffffffffffffffff1673ffffffffffffffffffffffffffffffffffffffff16815260200190815260200160002060009054906101000a900460ff1615611a5357600080fd5b600960003373ffffffffffffffffffffffffffffffffffffffff1673ffffffffffffffffffffffffffffffffffffffff16815260200190815260200160002060009054906101000a900460ff1615611aaa57600080fd5b600760009054906101000a900460ff1615611ac457600080fd5b600760019054906101000a900460ff1615611ade57600080fd5b6001600860003373ffffffffffffffffffffffffffffffffffffffff1673ffffffffffffffffffffffffffffffffffffffff16815260200190815260200160002060006101000a81548160ff02191690831515021790555060056000815480929190611b4990612305565b919050555060028173ffffffffffffffffffffffffffffffffffffffff1663997072f76040518163ffffffff1660e01b815260040160206040518083038186803b158015611b9657600080fd5b505afa158015611baa573d6000803e3d6000fd5b505050506040513d601f19601f82011682018060405250810190611bce9190612363565b611bd891906123bf565b6005541115611bfd576001600760006101000a81548160ff0219169083151502179055505b50565b60065481565b828054611c129061241f565b90600052602060002090601f016020900481019282611c345760008555611c7b565b82601f10611c4d57805160ff1916838001178555611c7b565b82800160010185558215611c7b579182015b82811115611c7a578251825591602001919060010190611c5f565b5b509050611c889190611c8c565b5090565b5b80821115611ca5576000816000905550600101611c8d565b5090565b6000604051905090565b600080fd5b600080fd5b6000819050919050565b611cd081611cbd565b8114611cdb57600080fd5b50565b600081359050611ced81611cc7565b92915050565b600060208284031215611d0957611d08611cb3565b5b6000611d1784828501611cde565b91505092915050565b600081519050919050565b600082825260208201905092915050565b60005b83811015611d5a578082015181840152602081019050611d3f565b83811115611d69576000848401525b50505050565b6000601f19601f8301169050919050565b6000611d8b82611d20565b611d958185611d2b565b9350611da5818560208601611d3c565b611dae81611d6f565b840191505092915050565b60006020820190508181036000830152611dd38184611d80565b905092915050565b600073ffffffffffffffffffffffffffffffffffffffff82169050919050565b6000611e0682611ddb565b9050919050565b611e1681611dfb565b82525050565b60008115159050919050565b611e3181611e1c565b82525050565b611e4081611cbd565b82525050565b6000610180820190508181036000830152611e61818f611d80565b90508181036020830152611e75818e611d80565b90508181036040830152611e89818d611d80565b90508181036060830152611e9d818c611d80565b90508181036080830152611eb1818b611d80565b9050611ec060a083018a611e0d565b611ecd60c0830189611e28565b611eda60e0830188611e37565b611ee8610100830187611e37565b611ef6610120830186611e37565b611f04610140830185611e28565b611f12610160830184611e28565b9d9c50505050505050505050505050565b6000602082019050611f386000830184611e28565b92915050565b600080fd5b600080fd5b7f4e487b7100000000000000000000000000000000000000000000000000000000600052604160045260246000fd5b611f8082611d6f565b810181811067ffffffffffffffff82111715611f9f57611f9e611f48565b5b80604052505050565b6000611fb2611ca9565b9050611fbe8282611f77565b919050565b600067ffffffffffffffff821115611fde57611fdd611f48565b5b611fe782611d6f565b9050602081019050919050565b82818337600083830152505050565b600061201661201184611fc3565b611fa8565b90508281526020810184848401111561203257612031611f43565b5b61203d848285611ff4565b509392505050565b600082601f83011261205a57612059611f3e565b5b813561206a848260208601612003565b91505092915050565b61207c81611dfb565b811461208757600080fd5b50565b60008135905061209981612073565b92915050565b600080600080600080600060e0888a0312156120be576120bd611cb3565b5b600088013567ffffffffffffffff8111156120dc576120db611cb8565b5b6120e88a828b01612045565b975050602088013567ffffffffffffffff81111561210957612108611cb8565b5b6121158a828b01612045565b965050604088013567ffffffffffffffff81111561213657612135611cb8565b5b6121428a828b01612045565b955050606088013567ffffffffffffffff81111561216357612162611cb8565b5b61216f8a828b01612045565b945050608088013567ffffffffffffffff8111156121905761218f611cb8565b5b61219c8a828b01612045565b93505060a06121ad8a828b0161208a565b92505060c06121be8a828b01611cde565b91505092959891949750929550565b60006020820190506121e26000830184611e37565b92915050565b60006121f382611ddb565b9050919050565b612203816121e8565b811461220e57600080fd5b50565b600081359050612220816121fa565b92915050565b60006020828403121561223c5761223b611cb3565b5b600061224a84828501612211565b91505092915050565b61225c816121e8565b82525050565b60006020820190506122776000830184612253565b92915050565b61228681611e1c565b811461229157600080fd5b50565b6000815190506122a38161227d565b92915050565b6000602082840312156122bf576122be611cb3565b5b60006122cd84828501612294565b91505092915050565b7f4e487b7100000000000000000000000000000000000000000000000000000000600052601160045260246000fd5b600061231082611cbd565b91507fffffffffffffffffffffffffffffffffffffffffffffffffffffffffffffffff821415612343576123426122d6565b5b600182019050919050565b60008151905061235d81611cc7565b92915050565b60006020828403121561237957612378611cb3565b5b60006123878482850161234e565b91505092915050565b7f4e487b7100000000000000000000000000000000000000000000000000000000600052601260045260246000fd5b60006123ca82611cbd565b91506123d583611cbd565b9250826123e5576123e4612390565b5b828204905092915050565b7f4e487b7100000000000000000000000000000000000000000000000000000000600052602260045260246000fd5b6000600282049050600182168061243757607f821691505b6020821081141561244b5761244a6123f0565b5b50919050565b60006040820190506124666000830185611e0d565b6124736020830184611e37565b939250505056fea264697066735822122086d1f02ebb78432334fcb53ed32826d54112680ba2b84c0eda62af5cc4f33e1f64736f6c63430008090033a26469706673582212202321f29bffb643ee0f7ca184f235b55c94af80e8d23e0d37fa4c3c3029c1ccf264736f6c63430008090033","opcodes":"PUSH1 0x80 PUSH1 0x40 MSTORE ADDRESS PUSH1 0x0 DUP1 PUSH2 0x100 EXP DUP2 SLOAD DUP2 PUSH20 0xFFFFFFFFFFFFFFFFFFFFFFFFFFFFFFFFFFFFFFFF MUL NOT AND SWAP1 DUP4 PUSH20 0xFFFFFFFFFFFFFFFFFFFFFFFFFFFFFFFFFFFFFFFF AND MUL OR SWAP1 SSTORE POP CALLVALUE DUP1 ISZERO PUSH2 0x50 JUMPI PUSH1 0x0 DUP1 REVERT JUMPDEST POP PUSH1 0x40 MLOAD PUSH3 0x3B90 CODESIZE SUB DUP1 PUSH3 0x3B90 DUP4 CODECOPY DUP2 DUP2 ADD PUSH1 0x40 MSTORE DUP2 ADD SWAP1 PUSH2 0x74 SWAP2 SWAP1 PUSH2 0xBC JUMP JUMPDEST DUP1 PUSH1 0x1 DUP2 SWAP1 SSTORE POP POP PUSH2 0xE9 JUMP JUMPDEST PUSH1 0x0 DUP1 REVERT JUMPDEST PUSH1 0x0 DUP2 SWAP1 POP SWAP2 SWAP1 POP JUMP JUMPDEST PUSH2 0x99 DUP2 PUSH2 0x86 JUMP JUMPDEST DUP2 EQ PUSH2 0xA4 JUMPI PUSH1 0x0 DUP1 REVERT JUMPDEST POP JUMP JUMPDEST PUSH1 0x0 DUP2 MLOAD SWAP1 POP PUSH2 0xB6 DUP2 PUSH2 0x90 JUMP JUMPDEST SWAP3 SWAP2 POP POP JUMP JUMPDEST PUSH1 0x0 PUSH1 0x20 DUP3 DUP5 SUB SLT ISZERO PUSH2 0xD2 JUMPI PUSH2 0xD1 PUSH2 0x81 JUMP JUMPDEST JUMPDEST PUSH1 0x0 PUSH2 0xE0 DUP5 DUP3 DUP6 ADD PUSH2 0xA7 JUMP JUMPDEST SWAP2 POP POP SWAP3 SWAP2 POP POP JUMP JUMPDEST PUSH2 0x3A97 DUP1 PUSH3 0xF9 PUSH1 0x0 CODECOPY PUSH1 0x0 RETURN INVALID PUSH1 0x80 PUSH1 0x40 MSTORE PUSH1 0x4 CALLDATASIZE LT PUSH3 0xB6 JUMPI PUSH1 0x0 CALLDATALOAD PUSH1 0xE0 SHR DUP1 PUSH4 0xA2BDEDF4 GT PUSH3 0x6D JUMPI DUP1 PUSH4 0xA2BDEDF4 EQ PUSH3 0x215 JUMPI DUP1 PUSH4 0xA87430BA EQ PUSH3 0x259 JUMPI DUP1 PUSH4 0xB4C1A368 EQ PUSH3 0x29D JUMPI DUP1 PUSH4 0xD815E58D EQ PUSH3 0x2CD JUMPI DUP1 PUSH4 0xE2842D79 EQ PUSH3 0x2D9 JUMPI DUP1 PUSH4 0xF77AC668 EQ PUSH3 0x309 JUMPI PUSH3 0xB6 JUMP JUMPDEST DUP1 PUSH4 0x18F5472 EQ PUSH3 0xBB JUMPI DUP1 PUSH4 0x8AE4B0C EQ PUSH3 0xFF JUMPI DUP1 PUSH4 0x4AB4BA42 EQ PUSH3 0x143 JUMPI DUP1 PUSH4 0x5D672A62 EQ PUSH3 0x173 JUMPI DUP1 PUSH4 0x6F7FCDDB EQ PUSH3 0x1B7 JUMPI DUP1 PUSH4 0x997072F7 EQ PUSH3 0x1E5 JUMPI JUMPDEST PUSH1 0x0 DUP1 REVERT JUMPDEST CALLVALUE DUP1 ISZERO PUSH3 0xC8 JUMPI PUSH1 0x0 DUP1 REVERT JUMPDEST POP PUSH3 0xE7 PUSH1 0x4 DUP1 CALLDATASIZE SUB DUP2 ADD SWAP1 PUSH3 0xE1 SWAP2 SWAP1 PUSH3 0x8F4 JUMP JUMPDEST PUSH3 0x337 JUMP JUMPDEST PUSH1 0x40 MLOAD PUSH3 0xF6 SWAP2 SWAP1 PUSH3 0x943 JUMP JUMPDEST PUSH1 0x40 MLOAD DUP1 SWAP2 SUB SWAP1 RETURN JUMPDEST CALLVALUE DUP1 ISZERO PUSH3 0x10C JUMPI PUSH1 0x0 DUP1 REVERT JUMPDEST POP PUSH3 0x12B PUSH1 0x4 DUP1 CALLDATASIZE SUB DUP2 ADD SWAP1 PUSH3 0x125 SWAP2 SWAP1 PUSH3 0x8F4 JUMP JUMPDEST PUSH3 0x392 JUMP JUMPDEST PUSH1 0x40 MLOAD PUSH3 0x13A SWAP2 SWAP1 PUSH3 0x943 JUMP JUMPDEST PUSH1 0x40 MLOAD DUP1 SWAP2 SUB SWAP1 RETURN JUMPDEST CALLVALUE DUP1 ISZERO PUSH3 0x150 JUMPI PUSH1 0x0 DUP1 REVERT JUMPDEST POP PUSH3 0x15B PUSH3 0x3B2 JUMP JUMPDEST PUSH1 0x40 MLOAD PUSH3 0x16A SWAP2 SWAP1 PUSH3 0x97B JUMP JUMPDEST PUSH1 0x40 MLOAD DUP1 SWAP2 SUB SWAP1 RETURN JUMPDEST CALLVALUE DUP1 ISZERO PUSH3 0x180 JUMPI PUSH1 0x0 DUP1 REVERT JUMPDEST POP PUSH3 0x19F PUSH1 0x4 DUP1 CALLDATASIZE SUB DUP2 ADD SWAP1 PUSH3 0x199 SWAP2 SWAP1 PUSH3 0x8F4 JUMP JUMPDEST PUSH3 0x3BA JUMP JUMPDEST PUSH1 0x40 MLOAD PUSH3 0x1AE SWAP2 SWAP1 PUSH3 0x943 JUMP JUMPDEST PUSH1 0x40 MLOAD DUP1 SWAP2 SUB SWAP1 RETURN JUMPDEST CALLVALUE DUP1 ISZERO PUSH3 0x1C4 JUMPI PUSH1 0x0 DUP1 REVERT JUMPDEST POP PUSH3 0x1E3 PUSH1 0x4 DUP1 CALLDATASIZE SUB DUP2 ADD SWAP1 PUSH3 0x1DD SWAP2 SWAP1 PUSH3 0xAFA JUMP JUMPDEST PUSH3 0x415 JUMP JUMPDEST STOP JUMPDEST CALLVALUE DUP1 ISZERO PUSH3 0x1F2 JUMPI PUSH1 0x0 DUP1 REVERT JUMPDEST POP PUSH3 0x1FD PUSH3 0x5EE JUMP JUMPDEST PUSH1 0x40 MLOAD PUSH3 0x20C SWAP2 SWAP1 PUSH3 0x97B JUMP JUMPDEST PUSH1 0x40 MLOAD DUP1 SWAP2 SUB SWAP1 RETURN JUMPDEST CALLVALUE DUP1 ISZERO PUSH3 0x222 JUMPI PUSH1 0x0 DUP1 REVERT JUMPDEST POP PUSH3 0x241 PUSH1 0x4 DUP1 CALLDATASIZE SUB DUP2 ADD SWAP1 PUSH3 0x23B SWAP2 SWAP1 PUSH3 0xC19 JUMP JUMPDEST PUSH3 0x5F8 JUMP JUMPDEST PUSH1 0x40 MLOAD PUSH3 0x250 SWAP2 SWAP1 PUSH3 0xCB6 JUMP JUMPDEST PUSH1 0x40 MLOAD DUP1 SWAP2 SUB SWAP1 RETURN JUMPDEST CALLVALUE DUP1 ISZERO PUSH3 0x266 JUMPI PUSH1 0x0 DUP1 REVERT JUMPDEST POP PUSH3 0x285 PUSH1 0x4 DUP1 CALLDATASIZE SUB DUP2 ADD SWAP1 PUSH3 0x27F SWAP2 SWAP1 PUSH3 0x8F4 JUMP JUMPDEST PUSH3 0x638 JUMP JUMPDEST PUSH1 0x40 MLOAD PUSH3 0x294 SWAP2 SWAP1 PUSH3 0x943 JUMP JUMPDEST PUSH1 0x40 MLOAD DUP1 SWAP2 SUB SWAP1 RETURN JUMPDEST CALLVALUE DUP1 ISZERO PUSH3 0x2AA JUMPI PUSH1 0x0 DUP1 REVERT JUMPDEST POP PUSH3 0x2B5 PUSH3 0x658 JUMP JUMPDEST PUSH1 0x40 MLOAD PUSH3 0x2C4 SWAP2 SWAP1 PUSH3 0x97B JUMP JUMPDEST PUSH1 0x40 MLOAD DUP1 SWAP2 SUB SWAP1 RETURN JUMPDEST PUSH3 0x2D7 PUSH3 0x65E JUMP JUMPDEST STOP JUMPDEST CALLVALUE DUP1 ISZERO PUSH3 0x2E6 JUMPI PUSH1 0x0 DUP1 REVERT JUMPDEST POP PUSH3 0x2F1 PUSH3 0x791 JUMP JUMPDEST PUSH1 0x40 MLOAD PUSH3 0x300 SWAP2 SWAP1 PUSH3 0xDA1 JUMP JUMPDEST PUSH1 0x40 MLOAD DUP1 SWAP2 SUB SWAP1 RETURN JUMPDEST CALLVALUE DUP1 ISZERO PUSH3 0x316 JUMPI PUSH1 0x0 DUP1 REVERT JUMPDEST POP PUSH3 0x335 PUSH1 0x4 DUP1 CALLDATASIZE SUB DUP2 ADD SWAP1 PUSH3 0x32F SWAP2 SWAP1 PUSH3 0xE0A JUMP JUMPDEST PUSH3 0x821 JUMP JUMPDEST STOP JUMPDEST PUSH1 0x0 DUP1 PUSH1 0x5 PUSH1 0x0 DUP5 PUSH20 0xFFFFFFFFFFFFFFFFFFFFFFFFFFFFFFFFFFFFFFFF AND PUSH20 0xFFFFFFFFFFFFFFFFFFFFFFFFFFFFFFFFFFFFFFFF AND DUP2 MSTORE PUSH1 0x20 ADD SWAP1 DUP2 MSTORE PUSH1 0x20 ADD PUSH1 0x0 KECCAK256 PUSH1 0x0 SWAP1 SLOAD SWAP1 PUSH2 0x100 EXP SWAP1 DIV PUSH1 0xFF AND SWAP1 POP DUP1 SWAP2 POP POP SWAP2 SWAP1 POP JUMP JUMPDEST PUSH1 0x3 PUSH1 0x20 MSTORE DUP1 PUSH1 0x0 MSTORE PUSH1 0x40 PUSH1 0x0 KECCAK256 PUSH1 0x0 SWAP2 POP SLOAD SWAP1 PUSH2 0x100 EXP SWAP1 DIV PUSH1 0xFF AND DUP2 JUMP JUMPDEST PUSH1 0x0 SELFBALANCE SWAP1 POP SWAP1 JUMP JUMPDEST PUSH1 0x0 DUP1 PUSH1 0x3 PUSH1 0x0 DUP5 PUSH20 0xFFFFFFFFFFFFFFFFFFFFFFFFFFFFFFFFFFFFFFFF AND PUSH20 0xFFFFFFFFFFFFFFFFFFFFFFFFFFFFFFFFFFFFFFFF AND DUP2 MSTORE PUSH1 0x20 ADD SWAP1 DUP2 MSTORE PUSH1 0x20 ADD PUSH1 0x0 KECCAK256 PUSH1 0x0 SWAP1 SLOAD SWAP1 PUSH2 0x100 EXP SWAP1 DIV PUSH1 0xFF AND SWAP1 POP DUP1 SWAP2 POP POP SWAP2 SWAP1 POP JUMP JUMPDEST PUSH1 0x3 PUSH1 0x0 CALLER PUSH20 0xFFFFFFFFFFFFFFFFFFFFFFFFFFFFFFFFFFFFFFFF AND PUSH20 0xFFFFFFFFFFFFFFFFFFFFFFFFFFFFFFFFFFFFFFFF AND DUP2 MSTORE PUSH1 0x20 ADD SWAP1 DUP2 MSTORE PUSH1 0x20 ADD PUSH1 0x0 KECCAK256 PUSH1 0x0 SWAP1 SLOAD SWAP1 PUSH2 0x100 EXP SWAP1 DIV PUSH1 0xFF AND ISZERO PUSH3 0x46D JUMPI PUSH1 0x0 DUP1 REVERT JUMPDEST PUSH1 0x5 PUSH1 0x0 CALLER PUSH20 0xFFFFFFFFFFFFFFFFFFFFFFFFFFFFFFFFFFFFFFFF AND PUSH20 0xFFFFFFFFFFFFFFFFFFFFFFFFFFFFFFFFFFFFFFFF AND DUP2 MSTORE PUSH1 0x20 ADD SWAP1 DUP2 MSTORE PUSH1 0x20 ADD PUSH1 0x0 KECCAK256 PUSH1 0x0 SWAP1 SLOAD SWAP1 PUSH2 0x100 EXP SWAP1 DIV PUSH1 0xFF AND ISZERO PUSH3 0x4C5 JUMPI PUSH1 0x0 DUP1 REVERT JUMPDEST PUSH1 0x0 DUP5 DUP5 DUP5 DUP5 CALLER PUSH1 0x0 DUP1 SLOAD SWAP1 PUSH2 0x100 EXP SWAP1 DIV PUSH20 0xFFFFFFFFFFFFFFFFFFFFFFFFFFFFFFFFFFFFFFFF AND PUSH1 0x40 MLOAD PUSH3 0x4FB SWAP1 PUSH3 0x86D JUMP JUMPDEST PUSH3 0x50C SWAP7 SWAP6 SWAP5 SWAP4 SWAP3 SWAP2 SWAP1 PUSH3 0xEF5 JUMP JUMPDEST PUSH1 0x40 MLOAD DUP1 SWAP2 SUB SWAP1 PUSH1 0x0 CREATE DUP1 ISZERO DUP1 ISZERO PUSH3 0x529 JUMPI RETURNDATASIZE PUSH1 0x0 DUP1 RETURNDATACOPY RETURNDATASIZE PUSH1 0x0 REVERT JUMPDEST POP SWAP1 POP PUSH1 0x1 PUSH1 0x5 PUSH1 0x0 CALLER PUSH20 0xFFFFFFFFFFFFFFFFFFFFFFFFFFFFFFFFFFFFFFFF AND PUSH20 0xFFFFFFFFFFFFFFFFFFFFFFFFFFFFFFFFFFFFFFFF AND DUP2 MSTORE PUSH1 0x20 ADD SWAP1 DUP2 MSTORE PUSH1 0x20 ADD PUSH1 0x0 KECCAK256 PUSH1 0x0 PUSH2 0x100 EXP DUP2 SLOAD DUP2 PUSH1 0xFF MUL NOT AND SWAP1 DUP4 ISZERO ISZERO MUL OR SWAP1 SSTORE POP PUSH1 0x4 DUP2 SWAP1 DUP1 PUSH1 0x1 DUP2 SLOAD ADD DUP1 DUP3 SSTORE DUP1 SWAP2 POP POP PUSH1 0x1 SWAP1 SUB SWAP1 PUSH1 0x0 MSTORE PUSH1 0x20 PUSH1 0x0 KECCAK256 ADD PUSH1 0x0 SWAP1 SWAP2 SWAP1 SWAP2 SWAP1 SWAP2 PUSH2 0x100 EXP DUP2 SLOAD DUP2 PUSH20 0xFFFFFFFFFFFFFFFFFFFFFFFFFFFFFFFFFFFFFFFF MUL NOT AND SWAP1 DUP4 PUSH20 0xFFFFFFFFFFFFFFFFFFFFFFFFFFFFFFFFFFFFFFFF AND MUL OR SWAP1 SSTORE POP POP POP POP POP POP JUMP JUMPDEST PUSH1 0x0 PUSH1 0x2 SLOAD SWAP1 POP SWAP1 JUMP JUMPDEST PUSH1 0x4 DUP2 DUP2 SLOAD DUP2 LT PUSH3 0x609 JUMPI PUSH1 0x0 DUP1 REVERT JUMPDEST SWAP1 PUSH1 0x0 MSTORE PUSH1 0x20 PUSH1 0x0 KECCAK256 ADD PUSH1 0x0 SWAP2 POP SLOAD SWAP1 PUSH2 0x100 EXP SWAP1 DIV PUSH20 0xFFFFFFFFFFFFFFFFFFFFFFFFFFFFFFFFFFFFFFFF AND DUP2 JUMP JUMPDEST PUSH1 0x5 PUSH1 0x20 MSTORE DUP1 PUSH1 0x0 MSTORE PUSH1 0x40 PUSH1 0x0 KECCAK256 PUSH1 0x0 SWAP2 POP SLOAD SWAP1 PUSH2 0x100 EXP SWAP1 DIV PUSH1 0xFF AND DUP2 JUMP JUMPDEST PUSH1 0x1 SLOAD DUP2 JUMP JUMPDEST PUSH1 0x5 PUSH1 0x0 CALLER PUSH20 0xFFFFFFFFFFFFFFFFFFFFFFFFFFFFFFFFFFFFFFFF AND PUSH20 0xFFFFFFFFFFFFFFFFFFFFFFFFFFFFFFFFFFFFFFFF AND DUP2 MSTORE PUSH1 0x20 ADD SWAP1 DUP2 MSTORE PUSH1 0x20 ADD PUSH1 0x0 KECCAK256 PUSH1 0x0 SWAP1 SLOAD SWAP1 PUSH2 0x100 EXP SWAP1 DIV PUSH1 0xFF AND ISZERO PUSH3 0x6B6 JUMPI PUSH1 0x0 DUP1 REVERT JUMPDEST PUSH1 0x3 PUSH1 0x0 CALLER PUSH20 0xFFFFFFFFFFFFFFFFFFFFFFFFFFFFFFFFFFFFFFFF AND PUSH20 0xFFFFFFFFFFFFFFFFFFFFFFFFFFFFFFFFFFFFFFFF AND DUP2 MSTORE PUSH1 0x20 ADD SWAP1 DUP2 MSTORE PUSH1 0x20 ADD PUSH1 0x0 KECCAK256 PUSH1 0x0 SWAP1 SLOAD SWAP1 PUSH2 0x100 EXP SWAP1 DIV PUSH1 0xFF AND ISZERO PUSH3 0x70E JUMPI PUSH1 0x0 DUP1 REVERT JUMPDEST PUSH1 0x1 SLOAD CALLVALUE EQ PUSH3 0x71D JUMPI PUSH1 0x0 DUP1 REVERT JUMPDEST PUSH1 0x2 PUSH1 0x0 DUP2 SLOAD DUP1 SWAP3 SWAP2 SWAP1 PUSH3 0x732 SWAP1 PUSH3 0xFAD JUMP JUMPDEST SWAP2 SWAP1 POP SSTORE POP PUSH1 0x1 PUSH1 0x3 PUSH1 0x0 CALLER PUSH20 0xFFFFFFFFFFFFFFFFFFFFFFFFFFFFFFFFFFFFFFFF AND PUSH20 0xFFFFFFFFFFFFFFFFFFFFFFFFFFFFFFFFFFFFFFFF AND DUP2 MSTORE PUSH1 0x20 ADD SWAP1 DUP2 MSTORE PUSH1 0x20 ADD PUSH1 0x0 KECCAK256 PUSH1 0x0 PUSH2 0x100 EXP DUP2 SLOAD DUP2 PUSH1 0xFF MUL NOT AND SWAP1 DUP4 ISZERO ISZERO MUL OR SWAP1 SSTORE POP JUMP JUMPDEST PUSH1 0x60 PUSH1 0x4 DUP1 SLOAD DUP1 PUSH1 0x20 MUL PUSH1 0x20 ADD PUSH1 0x40 MLOAD SWAP1 DUP2 ADD PUSH1 0x40 MSTORE DUP1 SWAP3 SWAP2 SWAP1 DUP2 DUP2 MSTORE PUSH1 0x20 ADD DUP3 DUP1 SLOAD DUP1 ISZERO PUSH3 0x817 JUMPI PUSH1 0x20 MUL DUP3 ADD SWAP2 SWAP1 PUSH1 0x0 MSTORE PUSH1 0x20 PUSH1 0x0 KECCAK256 SWAP1 JUMPDEST DUP2 PUSH1 0x0 SWAP1 SLOAD SWAP1 PUSH2 0x100 EXP SWAP1 DIV PUSH20 0xFFFFFFFFFFFFFFFFFFFFFFFFFFFFFFFFFFFFFFFF AND PUSH20 0xFFFFFFFFFFFFFFFFFFFFFFFFFFFFFFFFFFFFFFFF AND DUP2 MSTORE PUSH1 0x20 ADD SWAP1 PUSH1 0x1 ADD SWAP1 DUP1 DUP4 GT PUSH3 0x7CC JUMPI JUMPDEST POP POP POP POP POP SWAP1 POP SWAP1 JUMP JUMPDEST DUP2 PUSH20 0xFFFFFFFFFFFFFFFFFFFFFFFFFFFFFFFFFFFFFFFF AND PUSH2 0x8FC DUP3 SWAP1 DUP2 ISZERO MUL SWAP1 PUSH1 0x40 MLOAD PUSH1 0x0 PUSH1 0x40 MLOAD DUP1 DUP4 SUB DUP2 DUP6 DUP9 DUP9 CALL SWAP4 POP POP POP POP ISZERO DUP1 ISZERO PUSH3 0x868 JUMPI RETURNDATASIZE PUSH1 0x0 DUP1 RETURNDATACOPY RETURNDATASIZE PUSH1 0x0 REVERT JUMPDEST POP POP POP JUMP JUMPDEST PUSH2 0x2A66 DUP1 PUSH3 0xFFC DUP4 CODECOPY ADD SWAP1 JUMP JUMPDEST PUSH1 0x0 PUSH1 0x40 MLOAD SWAP1 POP SWAP1 JUMP JUMPDEST PUSH1 0x0 DUP1 REVERT JUMPDEST PUSH1 0x0 DUP1 REVERT JUMPDEST PUSH1 0x0 PUSH20 0xFFFFFFFFFFFFFFFFFFFFFFFFFFFFFFFFFFFFFFFF DUP3 AND SWAP1 POP SWAP2 SWAP1 POP JUMP JUMPDEST PUSH1 0x0 PUSH3 0x8BC DUP3 PUSH3 0x88F JUMP JUMPDEST SWAP1 POP SWAP2 SWAP1 POP JUMP JUMPDEST PUSH3 0x8CE DUP2 PUSH3 0x8AF JUMP JUMPDEST DUP2 EQ PUSH3 0x8DA JUMPI PUSH1 0x0 DUP1 REVERT JUMPDEST POP JUMP JUMPDEST PUSH1 0x0 DUP2 CALLDATALOAD SWAP1 POP PUSH3 0x8EE DUP2 PUSH3 0x8C3 JUMP JUMPDEST SWAP3 SWAP2 POP POP JUMP JUMPDEST PUSH1 0x0 PUSH1 0x20 DUP3 DUP5 SUB SLT ISZERO PUSH3 0x90D JUMPI PUSH3 0x90C PUSH3 0x885 JUMP JUMPDEST JUMPDEST PUSH1 0x0 PUSH3 0x91D DUP5 DUP3 DUP6 ADD PUSH3 0x8DD JUMP JUMPDEST SWAP2 POP POP SWAP3 SWAP2 POP POP JUMP JUMPDEST PUSH1 0x0 DUP2 ISZERO ISZERO SWAP1 POP SWAP2 SWAP1 POP JUMP JUMPDEST PUSH3 0x93D DUP2 PUSH3 0x926 JUMP JUMPDEST DUP3 MSTORE POP POP JUMP JUMPDEST PUSH1 0x0 PUSH1 0x20 DUP3 ADD SWAP1 POP PUSH3 0x95A PUSH1 0x0 DUP4 ADD DUP5 PUSH3 0x932 JUMP JUMPDEST SWAP3 SWAP2 POP POP JUMP JUMPDEST PUSH1 0x0 DUP2 SWAP1 POP SWAP2 SWAP1 POP JUMP JUMPDEST PUSH3 0x975 DUP2 PUSH3 0x960 JUMP JUMPDEST DUP3 MSTORE POP POP JUMP JUMPDEST PUSH1 0x0 PUSH1 0x20 DUP3 ADD SWAP1 POP PUSH3 0x992 PUSH1 0x0 DUP4 ADD DUP5 PUSH3 0x96A JUMP JUMPDEST SWAP3 SWAP2 POP POP JUMP JUMPDEST PUSH1 0x0 DUP1 REVERT JUMPDEST PUSH1 0x0 DUP1 REVERT JUMPDEST PUSH1 0x0 PUSH1 0x1F NOT PUSH1 0x1F DUP4 ADD AND SWAP1 POP SWAP2 SWAP1 POP JUMP JUMPDEST PUSH32 0x4E487B7100000000000000000000000000000000000000000000000000000000 PUSH1 0x0 MSTORE PUSH1 0x41 PUSH1 0x4 MSTORE PUSH1 0x24 PUSH1 0x0 REVERT JUMPDEST PUSH3 0x9ED DUP3 PUSH3 0x9A2 JUMP JUMPDEST DUP2 ADD DUP2 DUP2 LT PUSH8 0xFFFFFFFFFFFFFFFF DUP3 GT OR ISZERO PUSH3 0xA0F JUMPI PUSH3 0xA0E PUSH3 0x9B3 JUMP JUMPDEST JUMPDEST DUP1 PUSH1 0x40 MSTORE POP POP POP JUMP JUMPDEST PUSH1 0x0 PUSH3 0xA24 PUSH3 0x87B JUMP JUMPDEST SWAP1 POP PUSH3 0xA32 DUP3 DUP3 PUSH3 0x9E2 JUMP JUMPDEST SWAP2 SWAP1 POP JUMP JUMPDEST PUSH1 0x0 PUSH8 0xFFFFFFFFFFFFFFFF DUP3 GT ISZERO PUSH3 0xA55 JUMPI PUSH3 0xA54 PUSH3 0x9B3 JUMP JUMPDEST JUMPDEST PUSH3 0xA60 DUP3 PUSH3 0x9A2 JUMP JUMPDEST SWAP1 POP PUSH1 0x20 DUP2 ADD SWAP1 POP SWAP2 SWAP1 POP JUMP JUMPDEST DUP3 DUP2 DUP4 CALLDATACOPY PUSH1 0x0 DUP4 DUP4 ADD MSTORE POP POP POP JUMP JUMPDEST PUSH1 0x0 PUSH3 0xA93 PUSH3 0xA8D DUP5 PUSH3 0xA37 JUMP JUMPDEST PUSH3 0xA18 JUMP JUMPDEST SWAP1 POP DUP3 DUP2 MSTORE PUSH1 0x20 DUP2 ADD DUP5 DUP5 DUP5 ADD GT ISZERO PUSH3 0xAB2 JUMPI PUSH3 0xAB1 PUSH3 0x99D JUMP JUMPDEST JUMPDEST PUSH3 0xABF DUP5 DUP3 DUP6 PUSH3 0xA6D JUMP JUMPDEST POP SWAP4 SWAP3 POP POP POP JUMP JUMPDEST PUSH1 0x0 DUP3 PUSH1 0x1F DUP4 ADD SLT PUSH3 0xADF JUMPI PUSH3 0xADE PUSH3 0x998 JUMP JUMPDEST JUMPDEST DUP2 CALLDATALOAD PUSH3 0xAF1 DUP5 DUP3 PUSH1 0x20 DUP7 ADD PUSH3 0xA7C JUMP JUMPDEST SWAP2 POP POP SWAP3 SWAP2 POP POP JUMP JUMPDEST PUSH1 0x0 DUP1 PUSH1 0x0 DUP1 PUSH1 0x80 DUP6 DUP8 SUB SLT ISZERO PUSH3 0xB17 JUMPI PUSH3 0xB16 PUSH3 0x885 JUMP JUMPDEST JUMPDEST PUSH1 0x0 DUP6 ADD CALLDATALOAD PUSH8 0xFFFFFFFFFFFFFFFF DUP2 GT ISZERO PUSH3 0xB38 JUMPI PUSH3 0xB37 PUSH3 0x88A JUMP JUMPDEST JUMPDEST PUSH3 0xB46 DUP8 DUP3 DUP9 ADD PUSH3 0xAC7 JUMP JUMPDEST SWAP5 POP POP PUSH1 0x20 DUP6 ADD CALLDATALOAD PUSH8 0xFFFFFFFFFFFFFFFF DUP2 GT ISZERO PUSH3 0xB6A JUMPI PUSH3 0xB69 PUSH3 0x88A JUMP JUMPDEST JUMPDEST PUSH3 0xB78 DUP8 DUP3 DUP9 ADD PUSH3 0xAC7 JUMP JUMPDEST SWAP4 POP POP PUSH1 0x40 DUP6 ADD CALLDATALOAD PUSH8 0xFFFFFFFFFFFFFFFF DUP2 GT ISZERO PUSH3 0xB9C JUMPI PUSH3 0xB9B PUSH3 0x88A JUMP JUMPDEST JUMPDEST PUSH3 0xBAA DUP8 DUP3 DUP9 ADD PUSH3 0xAC7 JUMP JUMPDEST SWAP3 POP POP PUSH1 0x60 DUP6 ADD CALLDATALOAD PUSH8 0xFFFFFFFFFFFFFFFF DUP2 GT ISZERO PUSH3 0xBCE JUMPI PUSH3 0xBCD PUSH3 0x88A JUMP JUMPDEST JUMPDEST PUSH3 0xBDC DUP8 DUP3 DUP9 ADD PUSH3 0xAC7 JUMP JUMPDEST SWAP2 POP POP SWAP3 SWAP6 SWAP2 SWAP5 POP SWAP3 POP JUMP JUMPDEST PUSH3 0xBF3 DUP2 PUSH3 0x960 JUMP JUMPDEST DUP2 EQ PUSH3 0xBFF JUMPI PUSH1 0x0 DUP1 REVERT JUMPDEST POP JUMP JUMPDEST PUSH1 0x0 DUP2 CALLDATALOAD SWAP1 POP PUSH3 0xC13 DUP2 PUSH3 0xBE8 JUMP JUMPDEST SWAP3 SWAP2 POP POP JUMP JUMPDEST PUSH1 0x0 PUSH1 0x20 DUP3 DUP5 SUB SLT ISZERO PUSH3 0xC32 JUMPI PUSH3 0xC31 PUSH3 0x885 JUMP JUMPDEST JUMPDEST PUSH1 0x0 PUSH3 0xC42 DUP5 DUP3 DUP6 ADD PUSH3 0xC02 JUMP JUMPDEST SWAP2 POP POP SWAP3 SWAP2 POP POP JUMP JUMPDEST PUSH1 0x0 DUP2 SWAP1 POP SWAP2 SWAP1 POP JUMP JUMPDEST PUSH1 0x0 PUSH3 0xC76 PUSH3 0xC70 PUSH3 0xC6A DUP5 PUSH3 0x88F JUMP JUMPDEST PUSH3 0xC4B JUMP JUMPDEST PUSH3 0x88F JUMP JUMPDEST SWAP1 POP SWAP2 SWAP1 POP JUMP JUMPDEST PUSH1 0x0 PUSH3 0xC8A DUP3 PUSH3 0xC55 JUMP JUMPDEST SWAP1 POP SWAP2 SWAP1 POP JUMP JUMPDEST PUSH1 0x0 PUSH3 0xC9E DUP3 PUSH3 0xC7D JUMP JUMPDEST SWAP1 POP SWAP2 SWAP1 POP JUMP JUMPDEST PUSH3 0xCB0 DUP2 PUSH3 0xC91 JUMP JUMPDEST DUP3 MSTORE POP POP JUMP JUMPDEST PUSH1 0x0 PUSH1 0x20 DUP3 ADD SWAP1 POP PUSH3 0xCCD PUSH1 0x0 DUP4 ADD DUP5 PUSH3 0xCA5 JUMP JUMPDEST SWAP3 SWAP2 POP POP JUMP JUMPDEST PUSH1 0x0 DUP2 MLOAD SWAP1 POP SWAP2 SWAP1 POP JUMP JUMPDEST PUSH1 0x0 DUP3 DUP3 MSTORE PUSH1 0x20 DUP3 ADD SWAP1 POP SWAP3 SWAP2 POP POP JUMP JUMPDEST PUSH1 0x0 DUP2 SWAP1 POP PUSH1 0x20 DUP3 ADD SWAP1 POP SWAP2 SWAP1 POP JUMP JUMPDEST PUSH3 0xD0A DUP2 PUSH3 0xC91 JUMP JUMPDEST DUP3 MSTORE POP POP JUMP JUMPDEST PUSH1 0x0 PUSH3 0xD1E DUP4 DUP4 PUSH3 0xCFF JUMP JUMPDEST PUSH1 0x20 DUP4 ADD SWAP1 POP SWAP3 SWAP2 POP POP JUMP JUMPDEST PUSH1 0x0 PUSH1 0x20 DUP3 ADD SWAP1 POP SWAP2 SWAP1 POP JUMP JUMPDEST PUSH1 0x0 PUSH3 0xD44 DUP3 PUSH3 0xCD3 JUMP JUMPDEST PUSH3 0xD50 DUP2 DUP6 PUSH3 0xCDE JUMP JUMPDEST SWAP4 POP PUSH3 0xD5D DUP4 PUSH3 0xCEF JUMP JUMPDEST DUP1 PUSH1 0x0 JUMPDEST DUP4 DUP2 LT ISZERO PUSH3 0xD94 JUMPI DUP2 MLOAD PUSH3 0xD78 DUP9 DUP3 PUSH3 0xD10 JUMP JUMPDEST SWAP8 POP PUSH3 0xD85 DUP4 PUSH3 0xD2A JUMP JUMPDEST SWAP3 POP POP PUSH1 0x1 DUP2 ADD SWAP1 POP PUSH3 0xD61 JUMP JUMPDEST POP DUP6 SWAP4 POP POP POP POP SWAP3 SWAP2 POP POP JUMP JUMPDEST PUSH1 0x0 PUSH1 0x20 DUP3 ADD SWAP1 POP DUP2 DUP2 SUB PUSH1 0x0 DUP4 ADD MSTORE PUSH3 0xDBD DUP2 DUP5 PUSH3 0xD37 JUMP JUMPDEST SWAP1 POP SWAP3 SWAP2 POP POP JUMP JUMPDEST PUSH1 0x0 PUSH3 0xDD2 DUP3 PUSH3 0x88F JUMP JUMPDEST SWAP1 POP SWAP2 SWAP1 POP JUMP JUMPDEST PUSH3 0xDE4 DUP2 PUSH3 0xDC5 JUMP JUMPDEST DUP2 EQ PUSH3 0xDF0 JUMPI PUSH1 0x0 DUP1 REVERT JUMPDEST POP JUMP JUMPDEST PUSH1 0x0 DUP2 CALLDATALOAD SWAP1 POP PUSH3 0xE04 DUP2 PUSH3 0xDD9 JUMP JUMPDEST SWAP3 SWAP2 POP POP JUMP JUMPDEST PUSH1 0x0 DUP1 PUSH1 0x40 DUP4 DUP6 SUB SLT ISZERO PUSH3 0xE24 JUMPI PUSH3 0xE23 PUSH3 0x885 JUMP JUMPDEST JUMPDEST PUSH1 0x0 PUSH3 0xE34 DUP6 DUP3 DUP7 ADD PUSH3 0xDF3 JUMP JUMPDEST SWAP3 POP POP PUSH1 0x20 PUSH3 0xE47 DUP6 DUP3 DUP7 ADD PUSH3 0xC02 JUMP JUMPDEST SWAP2 POP POP SWAP3 POP SWAP3 SWAP1 POP JUMP JUMPDEST PUSH1 0x0 DUP2 MLOAD SWAP1 POP SWAP2 SWAP1 POP JUMP JUMPDEST PUSH1 0x0 DUP3 DUP3 MSTORE PUSH1 0x20 DUP3 ADD SWAP1 POP SWAP3 SWAP2 POP POP JUMP JUMPDEST PUSH1 0x0 JUMPDEST DUP4 DUP2 LT ISZERO PUSH3 0xE8D JUMPI DUP1 DUP3 ADD MLOAD DUP2 DUP5 ADD MSTORE PUSH1 0x20 DUP2 ADD SWAP1 POP PUSH3 0xE70 JUMP JUMPDEST DUP4 DUP2 GT ISZERO PUSH3 0xE9D JUMPI PUSH1 0x0 DUP5 DUP5 ADD MSTORE JUMPDEST POP POP POP POP JUMP JUMPDEST PUSH1 0x0 PUSH3 0xEB0 DUP3 PUSH3 0xE51 JUMP JUMPDEST PUSH3 0xEBC DUP2 DUP6 PUSH3 0xE5C JUMP JUMPDEST SWAP4 POP PUSH3 0xECE DUP2 DUP6 PUSH1 0x20 DUP7 ADD PUSH3 0xE6D JUMP JUMPDEST PUSH3 0xED9 DUP2 PUSH3 0x9A2 JUMP JUMPDEST DUP5 ADD SWAP2 POP POP SWAP3 SWAP2 POP POP JUMP JUMPDEST PUSH3 0xEEF DUP2 PUSH3 0x8AF JUMP JUMPDEST DUP3 MSTORE POP POP JUMP JUMPDEST PUSH1 0x0 PUSH1 0xC0 DUP3 ADD SWAP1 POP DUP2 DUP2 SUB PUSH1 0x0 DUP4 ADD MSTORE PUSH3 0xF11 DUP2 DUP10 PUSH3 0xEA3 JUMP JUMPDEST SWAP1 POP DUP2 DUP2 SUB PUSH1 0x20 DUP4 ADD MSTORE PUSH3 0xF27 DUP2 DUP9 PUSH3 0xEA3 JUMP JUMPDEST SWAP1 POP DUP2 DUP2 SUB PUSH1 0x40 DUP4 ADD MSTORE PUSH3 0xF3D DUP2 DUP8 PUSH3 0xEA3 JUMP JUMPDEST SWAP1 POP DUP2 DUP2 SUB PUSH1 0x60 DUP4 ADD MSTORE PUSH3 0xF53 DUP2 DUP7 PUSH3 0xEA3 JUMP JUMPDEST SWAP1 POP PUSH3 0xF64 PUSH1 0x80 DUP4 ADD DUP6 PUSH3 0xEE4 JUMP JUMPDEST PUSH3 0xF73 PUSH1 0xA0 DUP4 ADD DUP5 PUSH3 0xEE4 JUMP JUMPDEST SWAP8 SWAP7 POP POP POP POP POP POP POP JUMP JUMPDEST PUSH32 0x4E487B7100000000000000000000000000000000000000000000000000000000 PUSH1 0x0 MSTORE PUSH1 0x11 PUSH1 0x4 MSTORE PUSH1 0x24 PUSH1 0x0 REVERT JUMPDEST PUSH1 0x0 PUSH3 0xFBA DUP3 PUSH3 0x960 JUMP JUMPDEST SWAP2 POP PUSH32 0xFFFFFFFFFFFFFFFFFFFFFFFFFFFFFFFFFFFFFFFFFFFFFFFFFFFFFFFFFFFFFFFF DUP3 EQ ISZERO PUSH3 0xFF0 JUMPI PUSH3 0xFEF PUSH3 0xF7E JUMP JUMPDEST JUMPDEST PUSH1 0x1 DUP3 ADD SWAP1 POP SWAP2 SWAP1 POP JUMP INVALID PUSH1 0x80 PUSH1 0x40 MSTORE CALLVALUE DUP1 ISZERO PUSH3 0x11 JUMPI PUSH1 0x0 DUP1 REVERT JUMPDEST POP PUSH1 0x40 MLOAD PUSH3 0x2A66 CODESIZE SUB DUP1 PUSH3 0x2A66 DUP4 CODECOPY DUP2 DUP2 ADD PUSH1 0x40 MSTORE DUP2 ADD SWAP1 PUSH3 0x37 SWAP2 SWAP1 PUSH3 0x429 JUMP JUMPDEST DUP6 PUSH1 0x0 SWAP1 DUP1 MLOAD SWAP1 PUSH1 0x20 ADD SWAP1 PUSH3 0x4F SWAP3 SWAP2 SWAP1 PUSH3 0x177 JUMP JUMPDEST POP DUP5 PUSH1 0x1 SWAP1 DUP1 MLOAD SWAP1 PUSH1 0x20 ADD SWAP1 PUSH3 0x68 SWAP3 SWAP2 SWAP1 PUSH3 0x177 JUMP JUMPDEST POP DUP4 PUSH1 0x3 SWAP1 DUP1 MLOAD SWAP1 PUSH1 0x20 ADD SWAP1 PUSH3 0x81 SWAP3 SWAP2 SWAP1 PUSH3 0x177 JUMP JUMPDEST POP DUP3 PUSH1 0x4 SWAP1 DUP1 MLOAD SWAP1 PUSH1 0x20 ADD SWAP1 PUSH3 0x9A SWAP3 SWAP2 SWAP1 PUSH3 0x177 JUMP JUMPDEST POP DUP2 PUSH1 0x2 PUSH1 0x0 PUSH2 0x100 EXP DUP2 SLOAD DUP2 PUSH20 0xFFFFFFFFFFFFFFFFFFFFFFFFFFFFFFFFFFFFFFFF MUL NOT AND SWAP1 DUP4 PUSH20 0xFFFFFFFFFFFFFFFFFFFFFFFFFFFFFFFFFFFFFFFF AND MUL OR SWAP1 SSTORE POP DUP1 PUSH1 0xA PUSH1 0x0 PUSH2 0x100 EXP DUP2 SLOAD DUP2 PUSH20 0xFFFFFFFFFFFFFFFFFFFFFFFFFFFFFFFFFFFFFFFF MUL NOT AND SWAP1 DUP4 PUSH20 0xFFFFFFFFFFFFFFFFFFFFFFFFFFFFFFFFFFFFFFFF AND MUL OR SWAP1 SSTORE POP PUSH1 0x0 PUSH1 0x5 DUP2 SWAP1 SSTORE POP PUSH1 0x0 PUSH1 0x6 DUP2 SWAP1 SSTORE POP PUSH1 0x0 PUSH1 0x7 PUSH1 0x0 PUSH2 0x100 EXP DUP2 SLOAD DUP2 PUSH1 0xFF MUL NOT AND SWAP1 DUP4 ISZERO ISZERO MUL OR SWAP1 SSTORE POP PUSH1 0x0 PUSH1 0x7 PUSH1 0x1 PUSH2 0x100 EXP DUP2 SLOAD DUP2 PUSH1 0xFF MUL NOT AND SWAP1 DUP4 ISZERO ISZERO MUL OR SWAP1 SSTORE POP PUSH1 0x0 PUSH1 0xB DUP2 SWAP1 SSTORE POP POP POP POP POP POP POP PUSH3 0x5A6 JUMP JUMPDEST DUP3 DUP1 SLOAD PUSH3 0x185 SWAP1 PUSH3 0x570 JUMP JUMPDEST SWAP1 PUSH1 0x0 MSTORE PUSH1 0x20 PUSH1 0x0 KECCAK256 SWAP1 PUSH1 0x1F ADD PUSH1 0x20 SWAP1 DIV DUP2 ADD SWAP3 DUP3 PUSH3 0x1A9 JUMPI PUSH1 0x0 DUP6 SSTORE PUSH3 0x1F5 JUMP JUMPDEST DUP3 PUSH1 0x1F LT PUSH3 0x1C4 JUMPI DUP1 MLOAD PUSH1 0xFF NOT AND DUP4 DUP1 ADD OR DUP6 SSTORE PUSH3 0x1F5 JUMP JUMPDEST DUP3 DUP1 ADD PUSH1 0x1 ADD DUP6 SSTORE DUP3 ISZERO PUSH3 0x1F5 JUMPI SWAP2 DUP3 ADD JUMPDEST DUP3 DUP2 GT ISZERO PUSH3 0x1F4 JUMPI DUP3 MLOAD DUP3 SSTORE SWAP2 PUSH1 0x20 ADD SWAP2 SWAP1 PUSH1 0x1 ADD SWAP1 PUSH3 0x1D7 JUMP JUMPDEST JUMPDEST POP SWAP1 POP PUSH3 0x204 SWAP2 SWAP1 PUSH3 0x208 JUMP JUMPDEST POP SWAP1 JUMP JUMPDEST JUMPDEST DUP1 DUP3 GT ISZERO PUSH3 0x223 JUMPI PUSH1 0x0 DUP2 PUSH1 0x0 SWAP1 SSTORE POP PUSH1 0x1 ADD PUSH3 0x209 JUMP JUMPDEST POP SWAP1 JUMP JUMPDEST PUSH1 0x0 PUSH1 0x40 MLOAD SWAP1 POP SWAP1 JUMP JUMPDEST PUSH1 0x0 DUP1 REVERT JUMPDEST PUSH1 0x0 DUP1 REVERT JUMPDEST PUSH1 0x0 DUP1 REVERT JUMPDEST PUSH1 0x0 DUP1 REVERT JUMPDEST PUSH1 0x0 PUSH1 0x1F NOT PUSH1 0x1F DUP4 ADD AND SWAP1 POP SWAP2 SWAP1 POP JUMP JUMPDEST PUSH32 0x4E487B7100000000000000000000000000000000000000000000000000000000 PUSH1 0x0 MSTORE PUSH1 0x41 PUSH1 0x4 MSTORE PUSH1 0x24 PUSH1 0x0 REVERT JUMPDEST PUSH3 0x290 DUP3 PUSH3 0x245 JUMP JUMPDEST DUP2 ADD DUP2 DUP2 LT PUSH8 0xFFFFFFFFFFFFFFFF DUP3 GT OR ISZERO PUSH3 0x2B2 JUMPI PUSH3 0x2B1 PUSH3 0x256 JUMP JUMPDEST JUMPDEST DUP1 PUSH1 0x40 MSTORE POP POP POP JUMP JUMPDEST PUSH1 0x0 PUSH3 0x2C7 PUSH3 0x227 JUMP JUMPDEST SWAP1 POP PUSH3 0x2D5 DUP3 DUP3 PUSH3 0x285 JUMP JUMPDEST SWAP2 SWAP1 POP JUMP JUMPDEST PUSH1 0x0 PUSH8 0xFFFFFFFFFFFFFFFF DUP3 GT ISZERO PUSH3 0x2F8 JUMPI PUSH3 0x2F7 PUSH3 0x256 JUMP JUMPDEST JUMPDEST PUSH3 0x303 DUP3 PUSH3 0x245 JUMP JUMPDEST SWAP1 POP PUSH1 0x20 DUP2 ADD SWAP1 POP SWAP2 SWAP1 POP JUMP JUMPDEST PUSH1 0x0 JUMPDEST DUP4 DUP2 LT ISZERO PUSH3 0x330 JUMPI DUP1 DUP3 ADD MLOAD DUP2 DUP5 ADD MSTORE PUSH1 0x20 DUP2 ADD SWAP1 POP PUSH3 0x313 JUMP JUMPDEST DUP4 DUP2 GT ISZERO PUSH3 0x340 JUMPI PUSH1 0x0 DUP5 DUP5 ADD MSTORE JUMPDEST POP POP POP POP JUMP JUMPDEST PUSH1 0x0 PUSH3 0x35D PUSH3 0x357 DUP5 PUSH3 0x2DA JUMP JUMPDEST PUSH3 0x2BB JUMP JUMPDEST SWAP1 POP DUP3 DUP2 MSTORE PUSH1 0x20 DUP2 ADD DUP5 DUP5 DUP5 ADD GT ISZERO PUSH3 0x37C JUMPI PUSH3 0x37B PUSH3 0x240 JUMP JUMPDEST JUMPDEST PUSH3 0x389 DUP5 DUP3 DUP6 PUSH3 0x310 JUMP JUMPDEST POP SWAP4 SWAP3 POP POP POP JUMP JUMPDEST PUSH1 0x0 DUP3 PUSH1 0x1F DUP4 ADD SLT PUSH3 0x3A9 JUMPI PUSH3 0x3A8 PUSH3 0x23B JUMP JUMPDEST JUMPDEST DUP2 MLOAD PUSH3 0x3BB DUP5 DUP3 PUSH1 0x20 DUP7 ADD PUSH3 0x346 JUMP JUMPDEST SWAP2 POP POP SWAP3 SWAP2 POP POP JUMP JUMPDEST PUSH1 0x0 PUSH20 0xFFFFFFFFFFFFFFFFFFFFFFFFFFFFFFFFFFFFFFFF DUP3 AND SWAP1 POP SWAP2 SWAP1 POP JUMP JUMPDEST PUSH1 0x0 PUSH3 0x3F1 DUP3 PUSH3 0x3C4 JUMP JUMPDEST SWAP1 POP SWAP2 SWAP1 POP JUMP JUMPDEST PUSH3 0x403 DUP2 PUSH3 0x3E4 JUMP JUMPDEST DUP2 EQ PUSH3 0x40F JUMPI PUSH1 0x0 DUP1 REVERT JUMPDEST POP JUMP JUMPDEST PUSH1 0x0 DUP2 MLOAD SWAP1 POP PUSH3 0x423 DUP2 PUSH3 0x3F8 JUMP JUMPDEST SWAP3 SWAP2 POP POP JUMP JUMPDEST PUSH1 0x0 DUP1 PUSH1 0x0 DUP1 PUSH1 0x0 DUP1 PUSH1 0xC0 DUP8 DUP10 SUB SLT ISZERO PUSH3 0x449 JUMPI PUSH3 0x448 PUSH3 0x231 JUMP JUMPDEST JUMPDEST PUSH1 0x0 DUP8 ADD MLOAD PUSH8 0xFFFFFFFFFFFFFFFF DUP2 GT ISZERO PUSH3 0x46A JUMPI PUSH3 0x469 PUSH3 0x236 JUMP JUMPDEST JUMPDEST PUSH3 0x478 DUP10 DUP3 DUP11 ADD PUSH3 0x391 JUMP JUMPDEST SWAP7 POP POP PUSH1 0x20 DUP8 ADD MLOAD PUSH8 0xFFFFFFFFFFFFFFFF DUP2 GT ISZERO PUSH3 0x49C JUMPI PUSH3 0x49B PUSH3 0x236 JUMP JUMPDEST JUMPDEST PUSH3 0x4AA DUP10 DUP3 DUP11 ADD PUSH3 0x391 JUMP JUMPDEST SWAP6 POP POP PUSH1 0x40 DUP8 ADD MLOAD PUSH8 0xFFFFFFFFFFFFFFFF DUP2 GT ISZERO PUSH3 0x4CE JUMPI PUSH3 0x4CD PUSH3 0x236 JUMP JUMPDEST JUMPDEST PUSH3 0x4DC DUP10 DUP3 DUP11 ADD PUSH3 0x391 JUMP JUMPDEST SWAP5 POP POP PUSH1 0x60 DUP8 ADD MLOAD PUSH8 0xFFFFFFFFFFFFFFFF DUP2 GT ISZERO PUSH3 0x500 JUMPI PUSH3 0x4FF PUSH3 0x236 JUMP JUMPDEST JUMPDEST PUSH3 0x50E DUP10 DUP3 DUP11 ADD PUSH3 0x391 JUMP JUMPDEST SWAP4 POP POP PUSH1 0x80 PUSH3 0x521 DUP10 DUP3 DUP11 ADD PUSH3 0x412 JUMP JUMPDEST SWAP3 POP POP PUSH1 0xA0 PUSH3 0x534 DUP10 DUP3 DUP11 ADD PUSH3 0x412 JUMP JUMPDEST SWAP2 POP POP SWAP3 SWAP6 POP SWAP3 SWAP6 POP SWAP3 SWAP6 JUMP JUMPDEST PUSH32 0x4E487B7100000000000000000000000000000000000000000000000000000000 PUSH1 0x0 MSTORE PUSH1 0x22 PUSH1 0x4 MSTORE PUSH1 0x24 PUSH1 0x0 REVERT JUMPDEST PUSH1 0x0 PUSH1 0x2 DUP3 DIV SWAP1 POP PUSH1 0x1 DUP3 AND DUP1 PUSH3 0x589 JUMPI PUSH1 0x7F DUP3 AND SWAP2 POP JUMPDEST PUSH1 0x20 DUP3 LT DUP2 EQ ISZERO PUSH3 0x5A0 JUMPI PUSH3 0x59F PUSH3 0x541 JUMP JUMPDEST JUMPDEST POP SWAP2 SWAP1 POP JUMP JUMPDEST PUSH2 0x24B0 DUP1 PUSH3 0x5B6 PUSH1 0x0 CODECOPY PUSH1 0x0 RETURN INVALID PUSH1 0x80 PUSH1 0x40 MSTORE CALLVALUE DUP1 ISZERO PUSH2 0x10 JUMPI PUSH1 0x0 DUP1 REVERT JUMPDEST POP PUSH1 0x4 CALLDATASIZE LT PUSH2 0x121 JUMPI PUSH1 0x0 CALLDATALOAD PUSH1 0xE0 SHR DUP1 PUSH4 0x820E93F5 GT PUSH2 0xAD JUMPI DUP1 PUSH4 0xD6E3EE6B GT PUSH2 0x71 JUMPI DUP1 PUSH4 0xD6E3EE6B EQ PUSH2 0x2DF JUMPI DUP1 PUSH4 0xE4128FB3 EQ PUSH2 0x30F JUMPI DUP1 PUSH4 0xEE4E1B53 EQ PUSH2 0x32D JUMPI DUP1 PUSH4 0xF04693D4 EQ PUSH2 0x349 JUMPI DUP1 PUSH4 0xFB6FF96E EQ PUSH2 0x353 JUMPI PUSH2 0x121 JUMP JUMPDEST DUP1 PUSH4 0x820E93F5 EQ PUSH2 0x237 JUMPI DUP1 PUSH4 0x9284F497 EQ PUSH2 0x255 JUMPI DUP1 PUSH4 0x9FE7717D EQ PUSH2 0x273 JUMPI DUP1 PUSH4 0xC2C706B0 EQ PUSH2 0x291 JUMPI DUP1 PUSH4 0xC9031934 EQ PUSH2 0x2AF JUMPI PUSH2 0x121 JUMP JUMPDEST DUP1 PUSH4 0x28F371AA GT PUSH2 0xF4 JUMPI DUP1 PUSH4 0x28F371AA EQ PUSH2 0x1A5 JUMPI DUP1 PUSH4 0x4A57E1C9 EQ PUSH2 0x1C3 JUMPI DUP1 PUSH4 0x6C39BDA3 EQ PUSH2 0x1DF JUMPI DUP1 PUSH4 0x7284E416 EQ PUSH2 0x1FB JUMPI DUP1 PUSH4 0x8129DFC9 EQ PUSH2 0x219 JUMPI PUSH2 0x121 JUMP JUMPDEST DUP1 PUSH4 0x34D09DA EQ PUSH2 0x126 JUMPI DUP1 PUSH4 0x6FDDE03 EQ PUSH2 0x142 JUMPI DUP1 PUSH4 0x141961BC EQ PUSH2 0x160 JUMPI DUP1 PUSH4 0x28D0C494 EQ PUSH2 0x19B JUMPI JUMPDEST PUSH1 0x0 DUP1 REVERT JUMPDEST PUSH2 0x140 PUSH1 0x4 DUP1 CALLDATASIZE SUB DUP2 ADD SWAP1 PUSH2 0x13B SWAP2 SWAP1 PUSH2 0x1CF3 JUMP JUMPDEST PUSH2 0x371 JUMP JUMPDEST STOP JUMPDEST PUSH2 0x14A PUSH2 0x762 JUMP JUMPDEST PUSH1 0x40 MLOAD PUSH2 0x157 SWAP2 SWAP1 PUSH2 0x1DB9 JUMP JUMPDEST PUSH1 0x40 MLOAD DUP1 SWAP2 SUB SWAP1 RETURN JUMPDEST PUSH2 0x17A PUSH1 0x4 DUP1 CALLDATASIZE SUB DUP2 ADD SWAP1 PUSH2 0x175 SWAP2 SWAP1 PUSH2 0x1CF3 JUMP JUMPDEST PUSH2 0x7F0 JUMP JUMPDEST PUSH1 0x40 MLOAD PUSH2 0x192 SWAP13 SWAP12 SWAP11 SWAP10 SWAP9 SWAP8 SWAP7 SWAP6 SWAP5 SWAP4 SWAP3 SWAP2 SWAP1 PUSH2 0x1E46 JUMP JUMPDEST PUSH1 0x40 MLOAD DUP1 SWAP2 SUB SWAP1 RETURN JUMPDEST PUSH2 0x1A3 PUSH2 0xB3F JUMP JUMPDEST STOP JUMPDEST PUSH2 0x1AD PUSH2 0xDFC JUMP JUMPDEST PUSH1 0x40 MLOAD PUSH2 0x1BA SWAP2 SWAP1 PUSH2 0x1F23 JUMP JUMPDEST PUSH1 0x40 MLOAD DUP1 SWAP2 SUB SWAP1 RETURN JUMPDEST PUSH2 0x1DD PUSH1 0x4 DUP1 CALLDATASIZE SUB DUP2 ADD SWAP1 PUSH2 0x1D8 SWAP2 SWAP1 PUSH2 0x1CF3 JUMP JUMPDEST PUSH2 0xE0F JUMP JUMPDEST STOP JUMPDEST PUSH2 0x1F9 PUSH1 0x4 DUP1 CALLDATASIZE SUB DUP2 ADD SWAP1 PUSH2 0x1F4 SWAP2 SWAP1 PUSH2 0x209F JUMP JUMPDEST PUSH2 0x1056 JUMP JUMPDEST STOP JUMPDEST PUSH2 0x203 PUSH2 0x1323 JUMP JUMPDEST PUSH1 0x40 MLOAD PUSH2 0x210 SWAP2 SWAP1 PUSH2 0x1DB9 JUMP JUMPDEST PUSH1 0x40 MLOAD DUP1 SWAP2 SUB SWAP1 RETURN JUMPDEST PUSH2 0x221 PUSH2 0x13B1 JUMP JUMPDEST PUSH1 0x40 MLOAD PUSH2 0x22E SWAP2 SWAP1 PUSH2 0x21CD JUMP JUMPDEST PUSH1 0x40 MLOAD DUP1 SWAP2 SUB SWAP1 RETURN JUMPDEST PUSH2 0x23F PUSH2 0x13B7 JUMP JUMPDEST PUSH1 0x40 MLOAD PUSH2 0x24C SWAP2 SWAP1 PUSH2 0x1DB9 JUMP JUMPDEST PUSH1 0x40 MLOAD DUP1 SWAP2 SUB SWAP1 RETURN JUMPDEST PUSH2 0x25D PUSH2 0x1445 JUMP JUMPDEST PUSH1 0x40 MLOAD PUSH2 0x26A SWAP2 SWAP1 PUSH2 0x1DB9 JUMP JUMPDEST PUSH1 0x40 MLOAD DUP1 SWAP2 SUB SWAP1 RETURN JUMPDEST PUSH2 0x27B PUSH2 0x14D3 JUMP JUMPDEST PUSH1 0x40 MLOAD PUSH2 0x288 SWAP2 SWAP1 PUSH2 0x21CD JUMP JUMPDEST PUSH1 0x40 MLOAD DUP1 SWAP2 SUB SWAP1 RETURN JUMPDEST PUSH2 0x299 PUSH2 0x14D9 JUMP JUMPDEST PUSH1 0x40 MLOAD PUSH2 0x2A6 SWAP2 SWAP1 PUSH2 0x1F23 JUMP JUMPDEST PUSH1 0x40 MLOAD DUP1 SWAP2 SUB SWAP1 RETURN JUMPDEST PUSH2 0x2C9 PUSH1 0x4 DUP1 CALLDATASIZE SUB DUP2 ADD SWAP1 PUSH2 0x2C4 SWAP2 SWAP1 PUSH2 0x2226 JUMP JUMPDEST PUSH2 0x14EC JUMP JUMPDEST PUSH1 0x40 MLOAD PUSH2 0x2D6 SWAP2 SWAP1 PUSH2 0x1F23 JUMP JUMPDEST PUSH1 0x40 MLOAD DUP1 SWAP2 SUB SWAP1 RETURN JUMPDEST PUSH2 0x2F9 PUSH1 0x4 DUP1 CALLDATASIZE SUB DUP2 ADD SWAP1 PUSH2 0x2F4 SWAP2 SWAP1 PUSH2 0x2226 JUMP JUMPDEST PUSH2 0x150C JUMP JUMPDEST PUSH1 0x40 MLOAD PUSH2 0x306 SWAP2 SWAP1 PUSH2 0x1F23 JUMP JUMPDEST PUSH1 0x40 MLOAD DUP1 SWAP2 SUB SWAP1 RETURN JUMPDEST PUSH2 0x317 PUSH2 0x152C JUMP JUMPDEST PUSH1 0x40 MLOAD PUSH2 0x324 SWAP2 SWAP1 PUSH2 0x2262 JUMP JUMPDEST PUSH1 0x40 MLOAD DUP1 SWAP2 SUB SWAP1 RETURN JUMPDEST PUSH2 0x347 PUSH1 0x4 DUP1 CALLDATASIZE SUB DUP2 ADD SWAP1 PUSH2 0x342 SWAP2 SWAP1 PUSH2 0x1CF3 JUMP JUMPDEST PUSH2 0x1552 JUMP JUMPDEST STOP JUMPDEST PUSH2 0x351 PUSH2 0x1943 JUMP JUMPDEST STOP JUMPDEST PUSH2 0x35B PUSH2 0x1C00 JUMP JUMPDEST PUSH1 0x40 MLOAD PUSH2 0x368 SWAP2 SWAP1 PUSH2 0x21CD JUMP JUMPDEST PUSH1 0x40 MLOAD DUP1 SWAP2 SUB SWAP1 RETURN JUMPDEST PUSH1 0x0 PUSH1 0xA PUSH1 0x0 SWAP1 SLOAD SWAP1 PUSH2 0x100 EXP SWAP1 DIV PUSH20 0xFFFFFFFFFFFFFFFFFFFFFFFFFFFFFFFFFFFFFFFF AND SWAP1 POP DUP1 PUSH20 0xFFFFFFFFFFFFFFFFFFFFFFFFFFFFFFFFFFFFFFFF AND PUSH4 0x5D672A62 CALLER PUSH1 0x40 MLOAD DUP3 PUSH4 0xFFFFFFFF AND PUSH1 0xE0 SHL DUP2 MSTORE PUSH1 0x4 ADD PUSH2 0x3D1 SWAP2 SWAP1 PUSH2 0x2262 JUMP JUMPDEST PUSH1 0x20 PUSH1 0x40 MLOAD DUP1 DUP4 SUB DUP2 DUP7 DUP1 EXTCODESIZE ISZERO DUP1 ISZERO PUSH2 0x3E9 JUMPI PUSH1 0x0 DUP1 REVERT JUMPDEST POP GAS STATICCALL ISZERO DUP1 ISZERO PUSH2 0x3FD JUMPI RETURNDATASIZE PUSH1 0x0 DUP1 RETURNDATACOPY RETURNDATASIZE PUSH1 0x0 REVERT JUMPDEST POP POP POP POP PUSH1 0x40 MLOAD RETURNDATASIZE PUSH1 0x1F NOT PUSH1 0x1F DUP3 ADD AND DUP3 ADD DUP1 PUSH1 0x40 MSTORE POP DUP2 ADD SWAP1 PUSH2 0x421 SWAP2 SWAP1 PUSH2 0x22A9 JUMP JUMPDEST PUSH2 0x42A JUMPI PUSH1 0x0 DUP1 REVERT JUMPDEST DUP1 PUSH20 0xFFFFFFFFFFFFFFFFFFFFFFFFFFFFFFFFFFFFFFFF AND PUSH4 0x18F5472 CALLER PUSH1 0x40 MLOAD DUP3 PUSH4 0xFFFFFFFF AND PUSH1 0xE0 SHL DUP2 MSTORE PUSH1 0x4 ADD PUSH2 0x463 SWAP2 SWAP1 PUSH2 0x2262 JUMP JUMPDEST PUSH1 0x20 PUSH1 0x40 MLOAD DUP1 DUP4 SUB DUP2 DUP7 DUP1 EXTCODESIZE ISZERO DUP1 ISZERO PUSH2 0x47B JUMPI PUSH1 0x0 DUP1 REVERT JUMPDEST POP GAS STATICCALL ISZERO DUP1 ISZERO PUSH2 0x48F JUMPI RETURNDATASIZE PUSH1 0x0 DUP1 RETURNDATACOPY RETURNDATASIZE PUSH1 0x0 REVERT JUMPDEST POP POP POP POP PUSH1 0x40 MLOAD RETURNDATASIZE PUSH1 0x1F NOT PUSH1 0x1F DUP3 ADD AND DUP3 ADD DUP1 PUSH1 0x40 MSTORE POP DUP2 ADD SWAP1 PUSH2 0x4B3 SWAP2 SWAP1 PUSH2 0x22A9 JUMP JUMPDEST ISZERO PUSH2 0x4BD JUMPI PUSH1 0x0 DUP1 REVERT JUMPDEST PUSH1 0xC PUSH1 0x0 DUP4 DUP2 MSTORE PUSH1 0x20 ADD SWAP1 DUP2 MSTORE PUSH1 0x20 ADD PUSH1 0x0 KECCAK256 PUSH1 0xA ADD PUSH1 0x0 CALLER PUSH20 0xFFFFFFFFFFFFFFFFFFFFFFFFFFFFFFFFFFFFFFFF AND PUSH20 0xFFFFFFFFFFFFFFFFFFFFFFFFFFFFFFFFFFFFFFFF AND DUP2 MSTORE PUSH1 0x20 ADD SWAP1 DUP2 MSTORE PUSH1 0x20 ADD PUSH1 0x0 KECCAK256 PUSH1 0x0 SWAP1 SLOAD SWAP1 PUSH2 0x100 EXP SWAP1 DIV PUSH1 0xFF AND ISZERO PUSH2 0x528 JUMPI PUSH1 0x0 DUP1 REVERT JUMPDEST PUSH1 0xC PUSH1 0x0 DUP4 DUP2 MSTORE PUSH1 0x20 ADD SWAP1 DUP2 MSTORE PUSH1 0x20 ADD PUSH1 0x0 KECCAK256 PUSH1 0xB ADD PUSH1 0x0 CALLER PUSH20 0xFFFFFFFFFFFFFFFFFFFFFFFFFFFFFFFFFFFFFFFF AND PUSH20 0xFFFFFFFFFFFFFFFFFFFFFFFFFFFFFFFFFFFFFFFF AND DUP2 MSTORE PUSH1 0x20 ADD SWAP1 DUP2 MSTORE PUSH1 0x20 ADD PUSH1 0x0 KECCAK256 PUSH1 0x0 SWAP1 SLOAD SWAP1 PUSH2 0x100 EXP SWAP1 DIV PUSH1 0xFF AND ISZERO PUSH2 0x593 JUMPI PUSH1 0x0 DUP1 REVERT JUMPDEST PUSH1 0xC PUSH1 0x0 DUP4 DUP2 MSTORE PUSH1 0x20 ADD SWAP1 DUP2 MSTORE PUSH1 0x20 ADD PUSH1 0x0 KECCAK256 PUSH1 0x9 ADD PUSH1 0x0 SWAP1 SLOAD SWAP1 PUSH2 0x100 EXP SWAP1 DIV PUSH1 0xFF AND ISZERO PUSH2 0x5C1 JUMPI PUSH1 0x0 DUP1 REVERT JUMPDEST PUSH1 0xC PUSH1 0x0 DUP4 DUP2 MSTORE PUSH1 0x20 ADD SWAP1 DUP2 MSTORE PUSH1 0x20 ADD PUSH1 0x0 KECCAK256 PUSH1 0x9 ADD PUSH1 0x1 SWAP1 SLOAD SWAP1 PUSH2 0x100 EXP SWAP1 DIV PUSH1 0xFF AND ISZERO PUSH2 0x5EF JUMPI PUSH1 0x0 DUP1 REVERT JUMPDEST PUSH1 0xC PUSH1 0x0 DUP4 DUP2 MSTORE PUSH1 0x20 ADD SWAP1 DUP2 MSTORE PUSH1 0x20 ADD PUSH1 0x0 KECCAK256 PUSH1 0x8 ADD PUSH1 0x0 DUP2 SLOAD DUP1 SWAP3 SWAP2 SWAP1 PUSH2 0x616 SWAP1 PUSH2 0x2305 JUMP JUMPDEST SWAP2 SWAP1 POP SSTORE POP PUSH1 0x1 PUSH1 0xC PUSH1 0x0 DUP5 DUP2 MSTORE PUSH1 0x20 ADD SWAP1 DUP2 MSTORE PUSH1 0x20 ADD PUSH1 0x0 KECCAK256 PUSH1 0xB ADD PUSH1 0x0 CALLER PUSH20 0xFFFFFFFFFFFFFFFFFFFFFFFFFFFFFFFFFFFFFFFF AND PUSH20 0xFFFFFFFFFFFFFFFFFFFFFFFFFFFFFFFFFFFFFFFF AND DUP2 MSTORE PUSH1 0x20 ADD SWAP1 DUP2 MSTORE PUSH1 0x20 ADD PUSH1 0x0 KECCAK256 PUSH1 0x0 PUSH2 0x100 EXP DUP2 SLOAD DUP2 PUSH1 0xFF MUL NOT AND SWAP1 DUP4 ISZERO ISZERO MUL OR SWAP1 SSTORE POP PUSH1 0x2 DUP2 PUSH20 0xFFFFFFFFFFFFFFFFFFFFFFFFFFFFFFFFFFFFFFFF AND PUSH4 0x997072F7 PUSH1 0x40 MLOAD DUP2 PUSH4 0xFFFFFFFF AND PUSH1 0xE0 SHL DUP2 MSTORE PUSH1 0x4 ADD PUSH1 0x20 PUSH1 0x40 MLOAD DUP1 DUP4 SUB DUP2 DUP7 DUP1 EXTCODESIZE ISZERO DUP1 ISZERO PUSH2 0x6CF JUMPI PUSH1 0x0 DUP1 REVERT JUMPDEST POP GAS STATICCALL ISZERO DUP1 ISZERO PUSH2 0x6E3 JUMPI RETURNDATASIZE PUSH1 0x0 DUP1 RETURNDATACOPY RETURNDATASIZE PUSH1 0x0 REVERT JUMPDEST POP POP POP POP PUSH1 0x40 MLOAD RETURNDATASIZE PUSH1 0x1F NOT PUSH1 0x1F DUP3 ADD AND DUP3 ADD DUP1 PUSH1 0x40 MSTORE POP DUP2 ADD SWAP1 PUSH2 0x707 SWAP2 SWAP1 PUSH2 0x2363 JUMP JUMPDEST PUSH2 0x711 SWAP2 SWAP1 PUSH2 0x23BF JUMP JUMPDEST PUSH1 0xC PUSH1 0x0 DUP5 DUP2 MSTORE PUSH1 0x20 ADD SWAP1 DUP2 MSTORE PUSH1 0x20 ADD PUSH1 0x0 KECCAK256 PUSH1 0x8 ADD SLOAD GT ISZERO PUSH2 0x75E JUMPI PUSH1 0x1 PUSH1 0xC PUSH1 0x0 DUP5 DUP2 MSTORE PUSH1 0x20 ADD SWAP1 DUP2 MSTORE PUSH1 0x20 ADD PUSH1 0x0 KECCAK256 PUSH1 0x9 ADD PUSH1 0x1 PUSH2 0x100 EXP DUP2 SLOAD DUP2 PUSH1 0xFF MUL NOT AND SWAP1 DUP4 ISZERO ISZERO MUL OR SWAP1 SSTORE POP JUMPDEST POP POP JUMP JUMPDEST PUSH1 0x0 DUP1 SLOAD PUSH2 0x76F SWAP1 PUSH2 0x241F JUMP JUMPDEST DUP1 PUSH1 0x1F ADD PUSH1 0x20 DUP1 SWAP2 DIV MUL PUSH1 0x20 ADD PUSH1 0x40 MLOAD SWAP1 DUP2 ADD PUSH1 0x40 MSTORE DUP1 SWAP3 SWAP2 SWAP1 DUP2 DUP2 MSTORE PUSH1 0x20 ADD DUP3 DUP1 SLOAD PUSH2 0x79B SWAP1 PUSH2 0x241F JUMP JUMPDEST DUP1 ISZERO PUSH2 0x7E8 JUMPI DUP1 PUSH1 0x1F LT PUSH2 0x7BD JUMPI PUSH2 0x100 DUP1 DUP4 SLOAD DIV MUL DUP4 MSTORE SWAP2 PUSH1 0x20 ADD SWAP2 PUSH2 0x7E8 JUMP JUMPDEST DUP3 ADD SWAP2 SWAP1 PUSH1 0x0 MSTORE PUSH1 0x20 PUSH1 0x0 KECCAK256 SWAP1 JUMPDEST DUP2 SLOAD DUP2 MSTORE SWAP1 PUSH1 0x1 ADD SWAP1 PUSH1 0x20 ADD DUP1 DUP4 GT PUSH2 0x7CB JUMPI DUP3 SWAP1 SUB PUSH1 0x1F AND DUP3 ADD SWAP2 JUMPDEST POP POP POP POP POP DUP2 JUMP JUMPDEST PUSH1 0xC PUSH1 0x20 MSTORE DUP1 PUSH1 0x0 MSTORE PUSH1 0x40 PUSH1 0x0 KECCAK256 PUSH1 0x0 SWAP2 POP SWAP1 POP DUP1 PUSH1 0x0 ADD DUP1 SLOAD PUSH2 0x813 SWAP1 PUSH2 0x241F JUMP JUMPDEST DUP1 PUSH1 0x1F ADD PUSH1 0x20 DUP1 SWAP2 DIV MUL PUSH1 0x20 ADD PUSH1 0x40 MLOAD SWAP1 DUP2 ADD PUSH1 0x40 MSTORE DUP1 SWAP3 SWAP2 SWAP1 DUP2 DUP2 MSTORE PUSH1 0x20 ADD DUP3 DUP1 SLOAD PUSH2 0x83F SWAP1 PUSH2 0x241F JUMP JUMPDEST DUP1 ISZERO PUSH2 0x88C JUMPI DUP1 PUSH1 0x1F LT PUSH2 0x861 JUMPI PUSH2 0x100 DUP1 DUP4 SLOAD DIV MUL DUP4 MSTORE SWAP2 PUSH1 0x20 ADD SWAP2 PUSH2 0x88C JUMP JUMPDEST DUP3 ADD SWAP2 SWAP1 PUSH1 0x0 MSTORE PUSH1 0x20 PUSH1 0x0 KECCAK256 SWAP1 JUMPDEST DUP2 SLOAD DUP2 MSTORE SWAP1 PUSH1 0x1 ADD SWAP1 PUSH1 0x20 ADD DUP1 DUP4 GT PUSH2 0x86F JUMPI DUP3 SWAP1 SUB PUSH1 0x1F AND DUP3 ADD SWAP2 JUMPDEST POP POP POP POP POP SWAP1 DUP1 PUSH1 0x1 ADD DUP1 SLOAD PUSH2 0x8A1 SWAP1 PUSH2 0x241F JUMP JUMPDEST DUP1 PUSH1 0x1F ADD PUSH1 0x20 DUP1 SWAP2 DIV MUL PUSH1 0x20 ADD PUSH1 0x40 MLOAD SWAP1 DUP2 ADD PUSH1 0x40 MSTORE DUP1 SWAP3 SWAP2 SWAP1 DUP2 DUP2 MSTORE PUSH1 0x20 ADD DUP3 DUP1 SLOAD PUSH2 0x8CD SWAP1 PUSH2 0x241F JUMP JUMPDEST DUP1 ISZERO PUSH2 0x91A JUMPI DUP1 PUSH1 0x1F LT PUSH2 0x8EF JUMPI PUSH2 0x100 DUP1 DUP4 SLOAD DIV MUL DUP4 MSTORE SWAP2 PUSH1 0x20 ADD SWAP2 PUSH2 0x91A JUMP JUMPDEST DUP3 ADD SWAP2 SWAP1 PUSH1 0x0 MSTORE PUSH1 0x20 PUSH1 0x0 KECCAK256 SWAP1 JUMPDEST DUP2 SLOAD DUP2 MSTORE SWAP1 PUSH1 0x1 ADD SWAP1 PUSH1 0x20 ADD DUP1 DUP4 GT PUSH2 0x8FD JUMPI DUP3 SWAP1 SUB PUSH1 0x1F AND DUP3 ADD SWAP2 JUMPDEST POP POP POP POP POP SWAP1 DUP1 PUSH1 0x2 ADD DUP1 SLOAD PUSH2 0x92F SWAP1 PUSH2 0x241F JUMP JUMPDEST DUP1 PUSH1 0x1F ADD PUSH1 0x20 DUP1 SWAP2 DIV MUL PUSH1 0x20 ADD PUSH1 0x40 MLOAD SWAP1 DUP2 ADD PUSH1 0x40 MSTORE DUP1 SWAP3 SWAP2 SWAP1 DUP2 DUP2 MSTORE PUSH1 0x20 ADD DUP3 DUP1 SLOAD PUSH2 0x95B SWAP1 PUSH2 0x241F JUMP JUMPDEST DUP1 ISZERO PUSH2 0x9A8 JUMPI DUP1 PUSH1 0x1F LT PUSH2 0x97D JUMPI PUSH2 0x100 DUP1 DUP4 SLOAD DIV MUL DUP4 MSTORE SWAP2 PUSH1 0x20 ADD SWAP2 PUSH2 0x9A8 JUMP JUMPDEST DUP3 ADD SWAP2 SWAP1 PUSH1 0x0 MSTORE PUSH1 0x20 PUSH1 0x0 KECCAK256 SWAP1 JUMPDEST DUP2 SLOAD DUP2 MSTORE SWAP1 PUSH1 0x1 ADD SWAP1 PUSH1 0x20 ADD DUP1 DUP4 GT PUSH2 0x98B JUMPI DUP3 SWAP1 SUB PUSH1 0x1F AND DUP3 ADD SWAP2 JUMPDEST POP POP POP POP POP SWAP1 DUP1 PUSH1 0x3 ADD DUP1 SLOAD PUSH2 0x9BD SWAP1 PUSH2 0x241F JUMP JUMPDEST DUP1 PUSH1 0x1F ADD PUSH1 0x20 DUP1 SWAP2 DIV MUL PUSH1 0x20 ADD PUSH1 0x40 MLOAD SWAP1 DUP2 ADD PUSH1 0x40 MSTORE DUP1 SWAP3 SWAP2 SWAP1 DUP2 DUP2 MSTORE PUSH1 0x20 ADD DUP3 DUP1 SLOAD PUSH2 0x9E9 SWAP1 PUSH2 0x241F JUMP JUMPDEST DUP1 ISZERO PUSH2 0xA36 JUMPI DUP1 PUSH1 0x1F LT PUSH2 0xA0B JUMPI PUSH2 0x100 DUP1 DUP4 SLOAD DIV MUL DUP4 MSTORE SWAP2 PUSH1 0x20 ADD SWAP2 PUSH2 0xA36 JUMP JUMPDEST DUP3 ADD SWAP2 SWAP1 PUSH1 0x0 MSTORE PUSH1 0x20 PUSH1 0x0 KECCAK256 SWAP1 JUMPDEST DUP2 SLOAD DUP2 MSTORE SWAP1 PUSH1 0x1 ADD SWAP1 PUSH1 0x20 ADD DUP1 DUP4 GT PUSH2 0xA19 JUMPI DUP3 SWAP1 SUB PUSH1 0x1F AND DUP3 ADD SWAP2 JUMPDEST POP POP POP POP POP SWAP1 DUP1 PUSH1 0x4 ADD DUP1 SLOAD PUSH2 0xA4B SWAP1 PUSH2 0x241F JUMP JUMPDEST DUP1 PUSH1 0x1F ADD PUSH1 0x20 DUP1 SWAP2 DIV MUL PUSH1 0x20 ADD PUSH1 0x40 MLOAD SWAP1 DUP2 ADD PUSH1 0x40 MSTORE DUP1 SWAP3 SWAP2 SWAP1 DUP2 DUP2 MSTORE PUSH1 0x20 ADD DUP3 DUP1 SLOAD PUSH2 0xA77 SWAP1 PUSH2 0x241F JUMP JUMPDEST DUP1 ISZERO PUSH2 0xAC4 JUMPI DUP1 PUSH1 0x1F LT PUSH2 0xA99 JUMPI PUSH2 0x100 DUP1 DUP4 SLOAD DIV MUL DUP4 MSTORE SWAP2 PUSH1 0x20 ADD SWAP2 PUSH2 0xAC4 JUMP JUMPDEST DUP3 ADD SWAP2 SWAP1 PUSH1 0x0 MSTORE PUSH1 0x20 PUSH1 0x0 KECCAK256 SWAP1 JUMPDEST DUP2 SLOAD DUP2 MSTORE SWAP1 PUSH1 0x1 ADD SWAP1 PUSH1 0x20 ADD DUP1 DUP4 GT PUSH2 0xAA7 JUMPI DUP3 SWAP1 SUB PUSH1 0x1F AND DUP3 ADD SWAP2 JUMPDEST POP POP POP POP POP SWAP1 DUP1 PUSH1 0x5 ADD PUSH1 0x0 SWAP1 SLOAD SWAP1 PUSH2 0x100 EXP SWAP1 DIV PUSH20 0xFFFFFFFFFFFFFFFFFFFFFFFFFFFFFFFFFFFFFFFF AND SWAP1 DUP1 PUSH1 0x5 ADD PUSH1 0x14 SWAP1 SLOAD SWAP1 PUSH2 0x100 EXP SWAP1 DIV PUSH1 0xFF AND SWAP1 DUP1 PUSH1 0x6 ADD SLOAD SWAP1 DUP1 PUSH1 0x7 ADD SLOAD SWAP1 DUP1 PUSH1 0x8 ADD SLOAD SWAP1 DUP1 PUSH1 0x9 ADD PUSH1 0x0 SWAP1 SLOAD SWAP1 PUSH2 0x100 EXP SWAP1 DIV PUSH1 0xFF AND SWAP1 DUP1 PUSH1 0x9 ADD PUSH1 0x1 SWAP1 SLOAD SWAP1 PUSH2 0x100 EXP SWAP1 DIV PUSH1 0xFF AND SWAP1 POP DUP13 JUMP JUMPDEST PUSH1 0x0 PUSH1 0xA PUSH1 0x0 SWAP1 SLOAD SWAP1 PUSH2 0x100 EXP SWAP1 DIV PUSH20 0xFFFFFFFFFFFFFFFFFFFFFFFFFFFFFFFFFFFFFFFF AND SWAP1 POP DUP1 PUSH20 0xFFFFFFFFFFFFFFFFFFFFFFFFFFFFFFFFFFFFFFFF AND PUSH4 0x5D672A62 CALLER PUSH1 0x40 MLOAD DUP3 PUSH4 0xFFFFFFFF AND PUSH1 0xE0 SHL DUP2 MSTORE PUSH1 0x4 ADD PUSH2 0xB9F SWAP2 SWAP1 PUSH2 0x2262 JUMP JUMPDEST PUSH1 0x20 PUSH1 0x40 MLOAD DUP1 DUP4 SUB DUP2 DUP7 DUP1 EXTCODESIZE ISZERO DUP1 ISZERO PUSH2 0xBB7 JUMPI PUSH1 0x0 DUP1 REVERT JUMPDEST POP GAS STATICCALL ISZERO DUP1 ISZERO PUSH2 0xBCB JUMPI RETURNDATASIZE PUSH1 0x0 DUP1 RETURNDATACOPY RETURNDATASIZE PUSH1 0x0 REVERT JUMPDEST POP POP POP POP PUSH1 0x40 MLOAD RETURNDATASIZE PUSH1 0x1F NOT PUSH1 0x1F DUP3 ADD AND DUP3 ADD DUP1 PUSH1 0x40 MSTORE POP DUP2 ADD SWAP1 PUSH2 0xBEF SWAP2 SWAP1 PUSH2 0x22A9 JUMP JUMPDEST PUSH2 0xBF8 JUMPI PUSH1 0x0 DUP1 REVERT JUMPDEST PUSH1 0x8 PUSH1 0x0 CALLER PUSH20 0xFFFFFFFFFFFFFFFFFFFFFFFFFFFFFFFFFFFFFFFF AND PUSH20 0xFFFFFFFFFFFFFFFFFFFFFFFFFFFFFFFFFFFFFFFF AND DUP2 MSTORE PUSH1 0x20 ADD SWAP1 DUP2 MSTORE PUSH1 0x20 ADD PUSH1 0x0 KECCAK256 PUSH1 0x0 SWAP1 SLOAD SWAP1 PUSH2 0x100 EXP SWAP1 DIV PUSH1 0xFF AND ISZERO PUSH2 0xC4F JUMPI PUSH1 0x0 DUP1 REVERT JUMPDEST PUSH1 0x9 PUSH1 0x0 CALLER PUSH20 0xFFFFFFFFFFFFFFFFFFFFFFFFFFFFFFFFFFFFFFFF AND PUSH20 0xFFFFFFFFFFFFFFFFFFFFFFFFFFFFFFFFFFFFFFFF AND DUP2 MSTORE PUSH1 0x20 ADD SWAP1 DUP2 MSTORE PUSH1 0x20 ADD PUSH1 0x0 KECCAK256 PUSH1 0x0 SWAP1 SLOAD SWAP1 PUSH2 0x100 EXP SWAP1 DIV PUSH1 0xFF AND ISZERO PUSH2 0xCA6 JUMPI PUSH1 0x0 DUP1 REVERT JUMPDEST PUSH1 0x7 PUSH1 0x0 SWAP1 SLOAD SWAP1 PUSH2 0x100 EXP SWAP1 DIV PUSH1 0xFF AND ISZERO PUSH2 0xCC0 JUMPI PUSH1 0x0 DUP1 REVERT JUMPDEST PUSH1 0x7 PUSH1 0x1 SWAP1 SLOAD SWAP1 PUSH2 0x100 EXP SWAP1 DIV PUSH1 0xFF AND ISZERO PUSH2 0xCDA JUMPI PUSH1 0x0 DUP1 REVERT JUMPDEST PUSH1 0x1 PUSH1 0x9 PUSH1 0x0 CALLER PUSH20 0xFFFFFFFFFFFFFFFFFFFFFFFFFFFFFFFFFFFFFFFF AND PUSH20 0xFFFFFFFFFFFFFFFFFFFFFFFFFFFFFFFFFFFFFFFF AND DUP2 MSTORE PUSH1 0x20 ADD SWAP1 DUP2 MSTORE PUSH1 0x20 ADD PUSH1 0x0 KECCAK256 PUSH1 0x0 PUSH2 0x100 EXP DUP2 SLOAD DUP2 PUSH1 0xFF MUL NOT AND SWAP1 DUP4 ISZERO ISZERO MUL OR SWAP1 SSTORE POP PUSH1 0x6 PUSH1 0x0 DUP2 SLOAD DUP1 SWAP3 SWAP2 SWAP1 PUSH2 0xD45 SWAP1 PUSH2 0x2305 JUMP JUMPDEST SWAP2 SWAP1 POP SSTORE POP PUSH1 0x2 DUP2 PUSH20 0xFFFFFFFFFFFFFFFFFFFFFFFFFFFFFFFFFFFFFFFF AND PUSH4 0x997072F7 PUSH1 0x40 MLOAD DUP2 PUSH4 0xFFFFFFFF AND PUSH1 0xE0 SHL DUP2 MSTORE PUSH1 0x4 ADD PUSH1 0x20 PUSH1 0x40 MLOAD DUP1 DUP4 SUB DUP2 DUP7 DUP1 EXTCODESIZE ISZERO DUP1 ISZERO PUSH2 0xD92 JUMPI PUSH1 0x0 DUP1 REVERT JUMPDEST POP GAS STATICCALL ISZERO DUP1 ISZERO PUSH2 0xDA6 JUMPI RETURNDATASIZE PUSH1 0x0 DUP1 RETURNDATACOPY RETURNDATASIZE PUSH1 0x0 REVERT JUMPDEST POP POP POP POP PUSH1 0x40 MLOAD RETURNDATASIZE PUSH1 0x1F NOT PUSH1 0x1F DUP3 ADD AND DUP3 ADD DUP1 PUSH1 0x40 MSTORE POP DUP2 ADD SWAP1 PUSH2 0xDCA SWAP2 SWAP1 PUSH2 0x2363 JUMP JUMPDEST PUSH2 0xDD4 SWAP2 SWAP1 PUSH2 0x23BF JUMP JUMPDEST PUSH1 0x6 SLOAD GT ISZERO PUSH2 0xDF9 JUMPI PUSH1 0x1 PUSH1 0x7 PUSH1 0x1 PUSH2 0x100 EXP DUP2 SLOAD DUP2 PUSH1 0xFF MUL NOT AND SWAP1 DUP4 ISZERO ISZERO MUL OR SWAP1 SSTORE POP JUMPDEST POP JUMP JUMPDEST PUSH1 0x7 PUSH1 0x0 SWAP1 SLOAD SWAP1 PUSH2 0x100 EXP SWAP1 DIV PUSH1 0xFF AND DUP2 JUMP JUMPDEST PUSH1 0x0 PUSH1 0xA PUSH1 0x0 SWAP1 SLOAD SWAP1 PUSH2 0x100 EXP SWAP1 DIV PUSH20 0xFFFFFFFFFFFFFFFFFFFFFFFFFFFFFFFFFFFFFFFF AND SWAP1 POP DUP1 PUSH20 0xFFFFFFFFFFFFFFFFFFFFFFFFFFFFFFFFFFFFFFFF AND PUSH4 0x18F5472 CALLER PUSH1 0x40 MLOAD DUP3 PUSH4 0xFFFFFFFF AND PUSH1 0xE0 SHL DUP2 MSTORE PUSH1 0x4 ADD PUSH2 0xE6F SWAP2 SWAP1 PUSH2 0x2262 JUMP JUMPDEST PUSH1 0x20 PUSH1 0x40 MLOAD DUP1 DUP4 SUB DUP2 DUP7 DUP1 EXTCODESIZE ISZERO DUP1 ISZERO PUSH2 0xE87 JUMPI PUSH1 0x0 DUP1 REVERT JUMPDEST POP GAS STATICCALL ISZERO DUP1 ISZERO PUSH2 0xE9B JUMPI RETURNDATASIZE PUSH1 0x0 DUP1 RETURNDATACOPY RETURNDATASIZE PUSH1 0x0 REVERT JUMPDEST POP POP POP POP PUSH1 0x40 MLOAD RETURNDATASIZE PUSH1 0x1F NOT PUSH1 0x1F DUP3 ADD AND DUP3 ADD DUP1 PUSH1 0x40 MSTORE POP DUP2 ADD SWAP1 PUSH2 0xEBF SWAP2 SWAP1 PUSH2 0x22A9 JUMP JUMPDEST PUSH2 0xEC8 JUMPI PUSH1 0x0 DUP1 REVERT JUMPDEST DUP1 PUSH20 0xFFFFFFFFFFFFFFFFFFFFFFFFFFFFFFFFFFFFFFFF AND PUSH4 0x5D672A62 CALLER PUSH1 0x40 MLOAD DUP3 PUSH4 0xFFFFFFFF AND PUSH1 0xE0 SHL DUP2 MSTORE PUSH1 0x4 ADD PUSH2 0xF01 SWAP2 SWAP1 PUSH2 0x2262 JUMP JUMPDEST PUSH1 0x20 PUSH1 0x40 MLOAD DUP1 DUP4 SUB DUP2 DUP7 DUP1 EXTCODESIZE ISZERO DUP1 ISZERO PUSH2 0xF19 JUMPI PUSH1 0x0 DUP1 REVERT JUMPDEST POP GAS STATICCALL ISZERO DUP1 ISZERO PUSH2 0xF2D JUMPI RETURNDATASIZE PUSH1 0x0 DUP1 RETURNDATACOPY RETURNDATASIZE PUSH1 0x0 REVERT JUMPDEST POP POP POP POP PUSH1 0x40 MLOAD RETURNDATASIZE PUSH1 0x1F NOT PUSH1 0x1F DUP3 ADD AND DUP3 ADD DUP1 PUSH1 0x40 MSTORE POP DUP2 ADD SWAP1 PUSH2 0xF51 SWAP2 SWAP1 PUSH2 0x22A9 JUMP JUMPDEST ISZERO PUSH2 0xF5B JUMPI PUSH1 0x0 DUP1 REVERT JUMPDEST PUSH1 0xC PUSH1 0x0 DUP4 DUP2 MSTORE PUSH1 0x20 ADD SWAP1 DUP2 MSTORE PUSH1 0x20 ADD PUSH1 0x0 KECCAK256 PUSH1 0x9 ADD PUSH1 0x0 SWAP1 SLOAD SWAP1 PUSH2 0x100 EXP SWAP1 DIV PUSH1 0xFF AND PUSH2 0xF88 JUMPI PUSH1 0x0 DUP1 REVERT JUMPDEST PUSH1 0x0 PUSH1 0xC PUSH1 0x0 DUP5 DUP2 MSTORE PUSH1 0x20 ADD SWAP1 DUP2 MSTORE PUSH1 0x20 ADD PUSH1 0x0 KECCAK256 SWAP1 POP DUP2 PUSH20 0xFFFFFFFFFFFFFFFFFFFFFFFFFFFFFFFFFFFFFFFF AND PUSH4 0xF77AC668 DUP3 PUSH1 0x5 ADD PUSH1 0x0 SWAP1 SLOAD SWAP1 PUSH2 0x100 EXP SWAP1 DIV PUSH20 0xFFFFFFFFFFFFFFFFFFFFFFFFFFFFFFFFFFFFFFFF AND DUP4 PUSH1 0x6 ADD SLOAD PUSH1 0x40 MLOAD DUP4 PUSH4 0xFFFFFFFF AND PUSH1 0xE0 SHL DUP2 MSTORE PUSH1 0x4 ADD PUSH2 0x1002 SWAP3 SWAP2 SWAP1 PUSH2 0x2451 JUMP JUMPDEST PUSH1 0x0 PUSH1 0x40 MLOAD DUP1 DUP4 SUB DUP2 PUSH1 0x0 DUP8 DUP1 EXTCODESIZE ISZERO DUP1 ISZERO PUSH2 0x101C JUMPI PUSH1 0x0 DUP1 REVERT JUMPDEST POP GAS CALL ISZERO DUP1 ISZERO PUSH2 0x1030 JUMPI RETURNDATASIZE PUSH1 0x0 DUP1 RETURNDATACOPY RETURNDATASIZE PUSH1 0x0 REVERT JUMPDEST POP POP POP POP PUSH1 0x1 DUP2 PUSH1 0x5 ADD PUSH1 0x14 PUSH2 0x100 EXP DUP2 SLOAD DUP2 PUSH1 0xFF MUL NOT AND SWAP1 DUP4 ISZERO ISZERO MUL OR SWAP1 SSTORE POP POP POP POP JUMP JUMPDEST PUSH1 0x0 PUSH1 0xA PUSH1 0x0 SWAP1 SLOAD SWAP1 PUSH2 0x100 EXP SWAP1 DIV PUSH20 0xFFFFFFFFFFFFFFFFFFFFFFFFFFFFFFFFFFFFFFFF AND SWAP1 POP DUP1 PUSH20 0xFFFFFFFFFFFFFFFFFFFFFFFFFFFFFFFFFFFFFFFF AND PUSH4 0x18F5472 CALLER PUSH1 0x40 MLOAD DUP3 PUSH4 0xFFFFFFFF AND PUSH1 0xE0 SHL DUP2 MSTORE PUSH1 0x4 ADD PUSH2 0x10B6 SWAP2 SWAP1 PUSH2 0x2262 JUMP JUMPDEST PUSH1 0x20 PUSH1 0x40 MLOAD DUP1 DUP4 SUB DUP2 DUP7 DUP1 EXTCODESIZE ISZERO DUP1 ISZERO PUSH2 0x10CE JUMPI PUSH1 0x0 DUP1 REVERT JUMPDEST POP GAS STATICCALL ISZERO DUP1 ISZERO PUSH2 0x10E2 JUMPI RETURNDATASIZE PUSH1 0x0 DUP1 RETURNDATACOPY RETURNDATASIZE PUSH1 0x0 REVERT JUMPDEST POP POP POP POP PUSH1 0x40 MLOAD RETURNDATASIZE PUSH1 0x1F NOT PUSH1 0x1F DUP3 ADD AND DUP3 ADD DUP1 PUSH1 0x40 MSTORE POP DUP2 ADD SWAP1 PUSH2 0x1106 SWAP2 SWAP1 PUSH2 0x22A9 JUMP JUMPDEST PUSH2 0x110F JUMPI PUSH1 0x0 DUP1 REVERT JUMPDEST DUP1 PUSH20 0xFFFFFFFFFFFFFFFFFFFFFFFFFFFFFFFFFFFFFFFF AND PUSH4 0x5D672A62 CALLER PUSH1 0x40 MLOAD DUP3 PUSH4 0xFFFFFFFF AND PUSH1 0xE0 SHL DUP2 MSTORE PUSH1 0x4 ADD PUSH2 0x1148 SWAP2 SWAP1 PUSH2 0x2262 JUMP JUMPDEST PUSH1 0x20 PUSH1 0x40 MLOAD DUP1 DUP4 SUB DUP2 DUP7 DUP1 EXTCODESIZE ISZERO DUP1 ISZERO PUSH2 0x1160 JUMPI PUSH1 0x0 DUP1 REVERT JUMPDEST POP GAS STATICCALL ISZERO DUP1 ISZERO PUSH2 0x1174 JUMPI RETURNDATASIZE PUSH1 0x0 DUP1 RETURNDATACOPY RETURNDATASIZE PUSH1 0x0 REVERT JUMPDEST POP POP POP POP PUSH1 0x40 MLOAD RETURNDATASIZE PUSH1 0x1F NOT PUSH1 0x1F DUP3 ADD AND DUP3 ADD DUP1 PUSH1 0x40 MSTORE POP DUP2 ADD SWAP1 PUSH2 0x1198 SWAP2 SWAP1 PUSH2 0x22A9 JUMP JUMPDEST ISZERO PUSH2 0x11A2 JUMPI PUSH1 0x0 DUP1 REVERT JUMPDEST PUSH1 0x7 PUSH1 0x0 SWAP1 SLOAD SWAP1 PUSH2 0x100 EXP SWAP1 DIV PUSH1 0xFF AND DUP1 ISZERO PUSH2 0x11CB JUMPI POP PUSH1 0x7 PUSH1 0x1 SWAP1 SLOAD SWAP1 PUSH2 0x100 EXP SWAP1 DIV PUSH1 0xFF AND ISZERO JUMPDEST PUSH2 0x11D4 JUMPI PUSH1 0x0 DUP1 REVERT JUMPDEST PUSH1 0x0 PUSH1 0xC PUSH1 0x0 PUSH1 0xB PUSH1 0x0 DUP2 SLOAD DUP1 SWAP3 SWAP2 SWAP1 PUSH2 0x11ED SWAP1 PUSH2 0x2305 JUMP JUMPDEST SWAP2 SWAP1 POP SSTORE DUP2 MSTORE PUSH1 0x20 ADD SWAP1 DUP2 MSTORE PUSH1 0x20 ADD PUSH1 0x0 KECCAK256 SWAP1 POP DUP9 DUP2 PUSH1 0x0 ADD SWAP1 DUP1 MLOAD SWAP1 PUSH1 0x20 ADD SWAP1 PUSH2 0x1219 SWAP3 SWAP2 SWAP1 PUSH2 0x1C06 JUMP JUMPDEST POP DUP8 DUP2 PUSH1 0x1 ADD SWAP1 DUP1 MLOAD SWAP1 PUSH1 0x20 ADD SWAP1 PUSH2 0x1232 SWAP3 SWAP2 SWAP1 PUSH2 0x1C06 JUMP JUMPDEST POP DUP7 DUP2 PUSH1 0x2 ADD SWAP1 DUP1 MLOAD SWAP1 PUSH1 0x20 ADD SWAP1 PUSH2 0x124B SWAP3 SWAP2 SWAP1 PUSH2 0x1C06 JUMP JUMPDEST POP DUP6 DUP2 PUSH1 0x3 ADD SWAP1 DUP1 MLOAD SWAP1 PUSH1 0x20 ADD SWAP1 PUSH2 0x1264 SWAP3 SWAP2 SWAP1 PUSH2 0x1C06 JUMP JUMPDEST POP DUP5 DUP2 PUSH1 0x4 ADD SWAP1 DUP1 MLOAD SWAP1 PUSH1 0x20 ADD SWAP1 PUSH2 0x127D SWAP3 SWAP2 SWAP1 PUSH2 0x1C06 JUMP JUMPDEST POP DUP4 DUP2 PUSH1 0x5 ADD PUSH1 0x0 PUSH2 0x100 EXP DUP2 SLOAD DUP2 PUSH20 0xFFFFFFFFFFFFFFFFFFFFFFFFFFFFFFFFFFFFFFFF MUL NOT AND SWAP1 DUP4 PUSH20 0xFFFFFFFFFFFFFFFFFFFFFFFFFFFFFFFFFFFFFFFF AND MUL OR SWAP1 SSTORE POP DUP3 DUP2 PUSH1 0x6 ADD DUP2 SWAP1 SSTORE POP PUSH1 0x0 DUP2 PUSH1 0x7 ADD DUP2 SWAP1 SSTORE POP PUSH1 0x0 DUP2 PUSH1 0x8 ADD DUP2 SWAP1 SSTORE POP PUSH1 0x0 DUP2 PUSH1 0x9 ADD PUSH1 0x0 PUSH2 0x100 EXP DUP2 SLOAD DUP2 PUSH1 0xFF MUL NOT AND SWAP1 DUP4 ISZERO ISZERO MUL OR SWAP1 SSTORE POP PUSH1 0x0 DUP2 PUSH1 0x9 ADD PUSH1 0x1 PUSH2 0x100 EXP DUP2 SLOAD DUP2 PUSH1 0xFF MUL NOT AND SWAP1 DUP4 ISZERO ISZERO MUL OR SWAP1 SSTORE POP POP POP POP POP POP POP POP POP POP JUMP JUMPDEST PUSH1 0x1 DUP1 SLOAD PUSH2 0x1330 SWAP1 PUSH2 0x241F JUMP JUMPDEST DUP1 PUSH1 0x1F ADD PUSH1 0x20 DUP1 SWAP2 DIV MUL PUSH1 0x20 ADD PUSH1 0x40 MLOAD SWAP1 DUP2 ADD PUSH1 0x40 MSTORE DUP1 SWAP3 SWAP2 SWAP1 DUP2 DUP2 MSTORE PUSH1 0x20 ADD DUP3 DUP1 SLOAD PUSH2 0x135C SWAP1 PUSH2 0x241F JUMP JUMPDEST DUP1 ISZERO PUSH2 0x13A9 JUMPI DUP1 PUSH1 0x1F LT PUSH2 0x137E JUMPI PUSH2 0x100 DUP1 DUP4 SLOAD DIV MUL DUP4 MSTORE SWAP2 PUSH1 0x20 ADD SWAP2 PUSH2 0x13A9 JUMP JUMPDEST DUP3 ADD SWAP2 SWAP1 PUSH1 0x0 MSTORE PUSH1 0x20 PUSH1 0x0 KECCAK256 SWAP1 JUMPDEST DUP2 SLOAD DUP2 MSTORE SWAP1 PUSH1 0x1 ADD SWAP1 PUSH1 0x20 ADD DUP1 DUP4 GT PUSH2 0x138C JUMPI DUP3 SWAP1 SUB PUSH1 0x1F AND DUP3 ADD SWAP2 JUMPDEST POP POP POP POP POP DUP2 JUMP JUMPDEST PUSH1 0xB SLOAD DUP2 JUMP JUMPDEST PUSH1 0x4 DUP1 SLOAD PUSH2 0x13C4 SWAP1 PUSH2 0x241F JUMP JUMPDEST DUP1 PUSH1 0x1F ADD PUSH1 0x20 DUP1 SWAP2 DIV MUL PUSH1 0x20 ADD PUSH1 0x40 MLOAD SWAP1 DUP2 ADD PUSH1 0x40 MSTORE DUP1 SWAP3 SWAP2 SWAP1 DUP2 DUP2 MSTORE PUSH1 0x20 ADD DUP3 DUP1 SLOAD PUSH2 0x13F0 SWAP1 PUSH2 0x241F JUMP JUMPDEST DUP1 ISZERO PUSH2 0x143D JUMPI DUP1 PUSH1 0x1F LT PUSH2 0x1412 JUMPI PUSH2 0x100 DUP1 DUP4 SLOAD DIV MUL DUP4 MSTORE SWAP2 PUSH1 0x20 ADD SWAP2 PUSH2 0x143D JUMP JUMPDEST DUP3 ADD SWAP2 SWAP1 PUSH1 0x0 MSTORE PUSH1 0x20 PUSH1 0x0 KECCAK256 SWAP1 JUMPDEST DUP2 SLOAD DUP2 MSTORE SWAP1 PUSH1 0x1 ADD SWAP1 PUSH1 0x20 ADD DUP1 DUP4 GT PUSH2 0x1420 JUMPI DUP3 SWAP1 SUB PUSH1 0x1F AND DUP3 ADD SWAP2 JUMPDEST POP POP POP POP POP DUP2 JUMP JUMPDEST PUSH1 0x3 DUP1 SLOAD PUSH2 0x1452 SWAP1 PUSH2 0x241F JUMP JUMPDEST DUP1 PUSH1 0x1F ADD PUSH1 0x20 DUP1 SWAP2 DIV MUL PUSH1 0x20 ADD PUSH1 0x40 MLOAD SWAP1 DUP2 ADD PUSH1 0x40 MSTORE DUP1 SWAP3 SWAP2 SWAP1 DUP2 DUP2 MSTORE PUSH1 0x20 ADD DUP3 DUP1 SLOAD PUSH2 0x147E SWAP1 PUSH2 0x241F JUMP JUMPDEST DUP1 ISZERO PUSH2 0x14CB JUMPI DUP1 PUSH1 0x1F LT PUSH2 0x14A0 JUMPI PUSH2 0x100 DUP1 DUP4 SLOAD DIV MUL DUP4 MSTORE SWAP2 PUSH1 0x20 ADD SWAP2 PUSH2 0x14CB JUMP JUMPDEST DUP3 ADD SWAP2 SWAP1 PUSH1 0x0 MSTORE PUSH1 0x20 PUSH1 0x0 KECCAK256 SWAP1 JUMPDEST DUP2 SLOAD DUP2 MSTORE SWAP1 PUSH1 0x1 ADD SWAP1 PUSH1 0x20 ADD DUP1 DUP4 GT PUSH2 0x14AE JUMPI DUP3 SWAP1 SUB PUSH1 0x1F AND DUP3 ADD SWAP2 JUMPDEST POP POP POP POP POP DUP2 JUMP JUMPDEST PUSH1 0x5 SLOAD DUP2 JUMP JUMPDEST PUSH1 0x7 PUSH1 0x1 SWAP1 SLOAD SWAP1 PUSH2 0x100 EXP SWAP1 DIV PUSH1 0xFF AND DUP2 JUMP JUMPDEST PUSH1 0x8 PUSH1 0x20 MSTORE DUP1 PUSH1 0x0 MSTORE PUSH1 0x40 PUSH1 0x0 KECCAK256 PUSH1 0x0 SWAP2 POP SLOAD SWAP1 PUSH2 0x100 EXP SWAP1 DIV PUSH1 0xFF AND DUP2 JUMP JUMPDEST PUSH1 0x9 PUSH1 0x20 MSTORE DUP1 PUSH1 0x0 MSTORE PUSH1 0x40 PUSH1 0x0 KECCAK256 PUSH1 0x0 SWAP2 POP SLOAD SWAP1 PUSH2 0x100 EXP SWAP1 DIV PUSH1 0xFF AND DUP2 JUMP JUMPDEST PUSH1 0x2 PUSH1 0x0 SWAP1 SLOAD SWAP1 PUSH2 0x100 EXP SWAP1 DIV PUSH20 0xFFFFFFFFFFFFFFFFFFFFFFFFFFFFFFFFFFFFFFFF AND DUP2 JUMP JUMPDEST PUSH1 0x0 PUSH1 0xA PUSH1 0x0 SWAP1 SLOAD SWAP1 PUSH2 0x100 EXP SWAP1 DIV PUSH20 0xFFFFFFFFFFFFFFFFFFFFFFFFFFFFFFFFFFFFFFFF AND SWAP1 POP DUP1 PUSH20 0xFFFFFFFFFFFFFFFFFFFFFFFFFFFFFFFFFFFFFFFF AND PUSH4 0x5D672A62 CALLER PUSH1 0x40 MLOAD DUP3 PUSH4 0xFFFFFFFF AND PUSH1 0xE0 SHL DUP2 MSTORE PUSH1 0x4 ADD PUSH2 0x15B2 SWAP2 SWAP1 PUSH2 0x2262 JUMP JUMPDEST PUSH1 0x20 PUSH1 0x40 MLOAD DUP1 DUP4 SUB DUP2 DUP7 DUP1 EXTCODESIZE ISZERO DUP1 ISZERO PUSH2 0x15CA JUMPI PUSH1 0x0 DUP1 REVERT JUMPDEST POP GAS STATICCALL ISZERO DUP1 ISZERO PUSH2 0x15DE JUMPI RETURNDATASIZE PUSH1 0x0 DUP1 RETURNDATACOPY RETURNDATASIZE PUSH1 0x0 REVERT JUMPDEST POP POP POP POP PUSH1 0x40 MLOAD RETURNDATASIZE PUSH1 0x1F NOT PUSH1 0x1F DUP3 ADD AND DUP3 ADD DUP1 PUSH1 0x40 MSTORE POP DUP2 ADD SWAP1 PUSH2 0x1602 SWAP2 SWAP1 PUSH2 0x22A9 JUMP JUMPDEST PUSH2 0x160B JUMPI PUSH1 0x0 DUP1 REVERT JUMPDEST DUP1 PUSH20 0xFFFFFFFFFFFFFFFFFFFFFFFFFFFFFFFFFFFFFFFF AND PUSH4 0x18F5472 CALLER PUSH1 0x40 MLOAD DUP3 PUSH4 0xFFFFFFFF AND PUSH1 0xE0 SHL DUP2 MSTORE PUSH1 0x4 ADD PUSH2 0x1644 SWAP2 SWAP1 PUSH2 0x2262 JUMP JUMPDEST PUSH1 0x20 PUSH1 0x40 MLOAD DUP1 DUP4 SUB DUP2 DUP7 DUP1 EXTCODESIZE ISZERO DUP1 ISZERO PUSH2 0x165C JUMPI PUSH1 0x0 DUP1 REVERT JUMPDEST POP GAS STATICCALL ISZERO DUP1 ISZERO PUSH2 0x1670 JUMPI RETURNDATASIZE PUSH1 0x0 DUP1 RETURNDATACOPY RETURNDATASIZE PUSH1 0x0 REVERT JUMPDEST POP POP POP POP PUSH1 0x40 MLOAD RETURNDATASIZE PUSH1 0x1F NOT PUSH1 0x1F DUP3 ADD AND DUP3 ADD DUP1 PUSH1 0x40 MSTORE POP DUP2 ADD SWAP1 PUSH2 0x1694 SWAP2 SWAP1 PUSH2 0x22A9 JUMP JUMPDEST ISZERO PUSH2 0x169E JUMPI PUSH1 0x0 DUP1 REVERT JUMPDEST PUSH1 0xC PUSH1 0x0 DUP4 DUP2 MSTORE PUSH1 0x20 ADD SWAP1 DUP2 MSTORE PUSH1 0x20 ADD PUSH1 0x0 KECCAK256 PUSH1 0xA ADD PUSH1 0x0 CALLER PUSH20 0xFFFFFFFFFFFFFFFFFFFFFFFFFFFFFFFFFFFFFFFF AND PUSH20 0xFFFFFFFFFFFFFFFFFFFFFFFFFFFFFFFFFFFFFFFF AND DUP2 MSTORE PUSH1 0x20 ADD SWAP1 DUP2 MSTORE PUSH1 0x20 ADD PUSH1 0x0 KECCAK256 PUSH1 0x0 SWAP1 SLOAD SWAP1 PUSH2 0x100 EXP SWAP1 DIV PUSH1 0xFF AND ISZERO PUSH2 0x1709 JUMPI PUSH1 0x0 DUP1 REVERT JUMPDEST PUSH1 0xC PUSH1 0x0 DUP4 DUP2 MSTORE PUSH1 0x20 ADD SWAP1 DUP2 MSTORE PUSH1 0x20 ADD PUSH1 0x0 KECCAK256 PUSH1 0xB ADD PUSH1 0x0 CALLER PUSH20 0xFFFFFFFFFFFFFFFFFFFFFFFFFFFFFFFFFFFFFFFF AND PUSH20 0xFFFFFFFFFFFFFFFFFFFFFFFFFFFFFFFFFFFFFFFF AND DUP2 MSTORE PUSH1 0x20 ADD SWAP1 DUP2 MSTORE PUSH1 0x20 ADD PUSH1 0x0 KECCAK256 PUSH1 0x0 SWAP1 SLOAD SWAP1 PUSH2 0x100 EXP SWAP1 DIV PUSH1 0xFF AND ISZERO PUSH2 0x1774 JUMPI PUSH1 0x0 DUP1 REVERT JUMPDEST PUSH1 0xC PUSH1 0x0 DUP4 DUP2 MSTORE PUSH1 0x20 ADD SWAP1 DUP2 MSTORE PUSH1 0x20 ADD PUSH1 0x0 KECCAK256 PUSH1 0x9 ADD PUSH1 0x0 SWAP1 SLOAD SWAP1 PUSH2 0x100 EXP SWAP1 DIV PUSH1 0xFF AND ISZERO PUSH2 0x17A2 JUMPI PUSH1 0x0 DUP1 REVERT JUMPDEST PUSH1 0xC PUSH1 0x0 DUP4 DUP2 MSTORE PUSH1 0x20 ADD SWAP1 DUP2 MSTORE PUSH1 0x20 ADD PUSH1 0x0 KECCAK256 PUSH1 0x9 ADD PUSH1 0x1 SWAP1 SLOAD SWAP1 PUSH2 0x100 EXP SWAP1 DIV PUSH1 0xFF AND ISZERO PUSH2 0x17D0 JUMPI PUSH1 0x0 DUP1 REVERT JUMPDEST PUSH1 0xC PUSH1 0x0 DUP4 DUP2 MSTORE PUSH1 0x20 ADD SWAP1 DUP2 MSTORE PUSH1 0x20 ADD PUSH1 0x0 KECCAK256 PUSH1 0x7 ADD PUSH1 0x0 DUP2 SLOAD DUP1 SWAP3 SWAP2 SWAP1 PUSH2 0x17F7 SWAP1 PUSH2 0x2305 JUMP JUMPDEST SWAP2 SWAP1 POP SSTORE POP PUSH1 0x1 PUSH1 0xC PUSH1 0x0 DUP5 DUP2 MSTORE PUSH1 0x20 ADD SWAP1 DUP2 MSTORE PUSH1 0x20 ADD PUSH1 0x0 KECCAK256 PUSH1 0xA ADD PUSH1 0x0 CALLER PUSH20 0xFFFFFFFFFFFFFFFFFFFFFFFFFFFFFFFFFFFFFFFF AND PUSH20 0xFFFFFFFFFFFFFFFFFFFFFFFFFFFFFFFFFFFFFFFF AND DUP2 MSTORE PUSH1 0x20 ADD SWAP1 DUP2 MSTORE PUSH1 0x20 ADD PUSH1 0x0 KECCAK256 PUSH1 0x0 PUSH2 0x100 EXP DUP2 SLOAD DUP2 PUSH1 0xFF MUL NOT AND SWAP1 DUP4 ISZERO ISZERO MUL OR SWAP1 SSTORE POP PUSH1 0x2 DUP2 PUSH20 0xFFFFFFFFFFFFFFFFFFFFFFFFFFFFFFFFFFFFFFFF AND PUSH4 0x997072F7 PUSH1 0x40 MLOAD DUP2 PUSH4 0xFFFFFFFF AND PUSH1 0xE0 SHL DUP2 MSTORE PUSH1 0x4 ADD PUSH1 0x20 PUSH1 0x40 MLOAD DUP1 DUP4 SUB DUP2 DUP7 DUP1 EXTCODESIZE ISZERO DUP1 ISZERO PUSH2 0x18B0 JUMPI PUSH1 0x0 DUP1 REVERT JUMPDEST POP GAS STATICCALL ISZERO DUP1 ISZERO PUSH2 0x18C4 JUMPI RETURNDATASIZE PUSH1 0x0 DUP1 RETURNDATACOPY RETURNDATASIZE PUSH1 0x0 REVERT JUMPDEST POP POP POP POP PUSH1 0x40 MLOAD RETURNDATASIZE PUSH1 0x1F NOT PUSH1 0x1F DUP3 ADD AND DUP3 ADD DUP1 PUSH1 0x40 MSTORE POP DUP2 ADD SWAP1 PUSH2 0x18E8 SWAP2 SWAP1 PUSH2 0x2363 JUMP JUMPDEST PUSH2 0x18F2 SWAP2 SWAP1 PUSH2 0x23BF JUMP JUMPDEST PUSH1 0xC PUSH1 0x0 DUP5 DUP2 MSTORE PUSH1 0x20 ADD SWAP1 DUP2 MSTORE PUSH1 0x20 ADD PUSH1 0x0 KECCAK256 PUSH1 0x7 ADD SLOAD GT ISZERO PUSH2 0x193F JUMPI PUSH1 0x1 PUSH1 0xC PUSH1 0x0 DUP5 DUP2 MSTORE PUSH1 0x20 ADD SWAP1 DUP2 MSTORE PUSH1 0x20 ADD PUSH1 0x0 KECCAK256 PUSH1 0x9 ADD PUSH1 0x0 PUSH2 0x100 EXP DUP2 SLOAD DUP2 PUSH1 0xFF MUL NOT AND SWAP1 DUP4 ISZERO ISZERO MUL OR SWAP1 SSTORE POP JUMPDEST POP POP JUMP JUMPDEST PUSH1 0x0 PUSH1 0xA PUSH1 0x0 SWAP1 SLOAD SWAP1 PUSH2 0x100 EXP SWAP1 DIV PUSH20 0xFFFFFFFFFFFFFFFFFFFFFFFFFFFFFFFFFFFFFFFF AND SWAP1 POP DUP1 PUSH20 0xFFFFFFFFFFFFFFFFFFFFFFFFFFFFFFFFFFFFFFFF AND PUSH4 0x5D672A62 CALLER PUSH1 0x40 MLOAD DUP3 PUSH4 0xFFFFFFFF AND PUSH1 0xE0 SHL DUP2 MSTORE PUSH1 0x4 ADD PUSH2 0x19A3 SWAP2 SWAP1 PUSH2 0x2262 JUMP JUMPDEST PUSH1 0x20 PUSH1 0x40 MLOAD DUP1 DUP4 SUB DUP2 DUP7 DUP1 EXTCODESIZE ISZERO DUP1 ISZERO PUSH2 0x19BB JUMPI PUSH1 0x0 DUP1 REVERT JUMPDEST POP GAS STATICCALL ISZERO DUP1 ISZERO PUSH2 0x19CF JUMPI RETURNDATASIZE PUSH1 0x0 DUP1 RETURNDATACOPY RETURNDATASIZE PUSH1 0x0 REVERT JUMPDEST POP POP POP POP PUSH1 0x40 MLOAD RETURNDATASIZE PUSH1 0x1F NOT PUSH1 0x1F DUP3 ADD AND DUP3 ADD DUP1 PUSH1 0x40 MSTORE POP DUP2 ADD SWAP1 PUSH2 0x19F3 SWAP2 SWAP1 PUSH2 0x22A9 JUMP JUMPDEST PUSH2 0x19FC JUMPI PUSH1 0x0 DUP1 REVERT JUMPDEST PUSH1 0x8 PUSH1 0x0 CALLER PUSH20 0xFFFFFFFFFFFFFFFFFFFFFFFFFFFFFFFFFFFFFFFF AND PUSH20 0xFFFFFFFFFFFFFFFFFFFFFFFFFFFFFFFFFFFFFFFF AND DUP2 MSTORE PUSH1 0x20 ADD SWAP1 DUP2 MSTORE PUSH1 0x20 ADD PUSH1 0x0 KECCAK256 PUSH1 0x0 SWAP1 SLOAD SWAP1 PUSH2 0x100 EXP SWAP1 DIV PUSH1 0xFF AND ISZERO PUSH2 0x1A53 JUMPI PUSH1 0x0 DUP1 REVERT JUMPDEST PUSH1 0x9 PUSH1 0x0 CALLER PUSH20 0xFFFFFFFFFFFFFFFFFFFFFFFFFFFFFFFFFFFFFFFF AND PUSH20 0xFFFFFFFFFFFFFFFFFFFFFFFFFFFFFFFFFFFFFFFF AND DUP2 MSTORE PUSH1 0x20 ADD SWAP1 DUP2 MSTORE PUSH1 0x20 ADD PUSH1 0x0 KECCAK256 PUSH1 0x0 SWAP1 SLOAD SWAP1 PUSH2 0x100 EXP SWAP1 DIV PUSH1 0xFF AND ISZERO PUSH2 0x1AAA JUMPI PUSH1 0x0 DUP1 REVERT JUMPDEST PUSH1 0x7 PUSH1 0x0 SWAP1 SLOAD SWAP1 PUSH2 0x100 EXP SWAP1 DIV PUSH1 0xFF AND ISZERO PUSH2 0x1AC4 JUMPI PUSH1 0x0 DUP1 REVERT JUMPDEST PUSH1 0x7 PUSH1 0x1 SWAP1 SLOAD SWAP1 PUSH2 0x100 EXP SWAP1 DIV PUSH1 0xFF AND ISZERO PUSH2 0x1ADE JUMPI PUSH1 0x0 DUP1 REVERT JUMPDEST PUSH1 0x1 PUSH1 0x8 PUSH1 0x0 CALLER PUSH20 0xFFFFFFFFFFFFFFFFFFFFFFFFFFFFFFFFFFFFFFFF AND PUSH20 0xFFFFFFFFFFFFFFFFFFFFFFFFFFFFFFFFFFFFFFFF AND DUP2 MSTORE PUSH1 0x20 ADD SWAP1 DUP2 MSTORE PUSH1 0x20 ADD PUSH1 0x0 KECCAK256 PUSH1 0x0 PUSH2 0x100 EXP DUP2 SLOAD DUP2 PUSH1 0xFF MUL NOT AND SWAP1 DUP4 ISZERO ISZERO MUL OR SWAP1 SSTORE POP PUSH1 0x5 PUSH1 0x0 DUP2 SLOAD DUP1 SWAP3 SWAP2 SWAP1 PUSH2 0x1B49 SWAP1 PUSH2 0x2305 JUMP JUMPDEST SWAP2 SWAP1 POP SSTORE POP PUSH1 0x2 DUP2 PUSH20 0xFFFFFFFFFFFFFFFFFFFFFFFFFFFFFFFFFFFFFFFF AND PUSH4 0x997072F7 PUSH1 0x40 MLOAD DUP2 PUSH4 0xFFFFFFFF AND PUSH1 0xE0 SHL DUP2 MSTORE PUSH1 0x4 ADD PUSH1 0x20 PUSH1 0x40 MLOAD DUP1 DUP4 SUB DUP2 DUP7 DUP1 EXTCODESIZE ISZERO DUP1 ISZERO PUSH2 0x1B96 JUMPI PUSH1 0x0 DUP1 REVERT JUMPDEST POP GAS STATICCALL ISZERO DUP1 ISZERO PUSH2 0x1BAA JUMPI RETURNDATASIZE PUSH1 0x0 DUP1 RETURNDATACOPY RETURNDATASIZE PUSH1 0x0 REVERT JUMPDEST POP POP POP POP PUSH1 0x40 MLOAD RETURNDATASIZE PUSH1 0x1F NOT PUSH1 0x1F DUP3 ADD AND DUP3 ADD DUP1 PUSH1 0x40 MSTORE POP DUP2 ADD SWAP1 PUSH2 0x1BCE SWAP2 SWAP1 PUSH2 0x2363 JUMP JUMPDEST PUSH2 0x1BD8 SWAP2 SWAP1 PUSH2 0x23BF JUMP JUMPDEST PUSH1 0x5 SLOAD GT ISZERO PUSH2 0x1BFD JUMPI PUSH1 0x1 PUSH1 0x7 PUSH1 0x0 PUSH2 0x100 EXP DUP2 SLOAD DUP2 PUSH1 0xFF MUL NOT AND SWAP1 DUP4 ISZERO ISZERO MUL OR SWAP1 SSTORE POP JUMPDEST POP JUMP JUMPDEST PUSH1 0x6 SLOAD DUP2 JUMP JUMPDEST DUP3 DUP1 SLOAD PUSH2 0x1C12 SWAP1 PUSH2 0x241F JUMP JUMPDEST SWAP1 PUSH1 0x0 MSTORE PUSH1 0x20 PUSH1 0x0 KECCAK256 SWAP1 PUSH1 0x1F ADD PUSH1 0x20 SWAP1 DIV DUP2 ADD SWAP3 DUP3 PUSH2 0x1C34 JUMPI PUSH1 0x0 DUP6 SSTORE PUSH2 0x1C7B JUMP JUMPDEST DUP3 PUSH1 0x1F LT PUSH2 0x1C4D JUMPI DUP1 MLOAD PUSH1 0xFF NOT AND DUP4 DUP1 ADD OR DUP6 SSTORE PUSH2 0x1C7B JUMP JUMPDEST DUP3 DUP1 ADD PUSH1 0x1 ADD DUP6 SSTORE DUP3 ISZERO PUSH2 0x1C7B JUMPI SWAP2 DUP3 ADD JUMPDEST DUP3 DUP2 GT ISZERO PUSH2 0x1C7A JUMPI DUP3 MLOAD DUP3 SSTORE SWAP2 PUSH1 0x20 ADD SWAP2 SWAP1 PUSH1 0x1 ADD SWAP1 PUSH2 0x1C5F JUMP JUMPDEST JUMPDEST POP SWAP1 POP PUSH2 0x1C88 SWAP2 SWAP1 PUSH2 0x1C8C JUMP JUMPDEST POP SWAP1 JUMP JUMPDEST JUMPDEST DUP1 DUP3 GT ISZERO PUSH2 0x1CA5 JUMPI PUSH1 0x0 DUP2 PUSH1 0x0 SWAP1 SSTORE POP PUSH1 0x1 ADD PUSH2 0x1C8D JUMP JUMPDEST POP SWAP1 JUMP JUMPDEST PUSH1 0x0 PUSH1 0x40 MLOAD SWAP1 POP SWAP1 JUMP JUMPDEST PUSH1 0x0 DUP1 REVERT JUMPDEST PUSH1 0x0 DUP1 REVERT JUMPDEST PUSH1 0x0 DUP2 SWAP1 POP SWAP2 SWAP1 POP JUMP JUMPDEST PUSH2 0x1CD0 DUP2 PUSH2 0x1CBD JUMP JUMPDEST DUP2 EQ PUSH2 0x1CDB JUMPI PUSH1 0x0 DUP1 REVERT JUMPDEST POP JUMP JUMPDEST PUSH1 0x0 DUP2 CALLDATALOAD SWAP1 POP PUSH2 0x1CED DUP2 PUSH2 0x1CC7 JUMP JUMPDEST SWAP3 SWAP2 POP POP JUMP JUMPDEST PUSH1 0x0 PUSH1 0x20 DUP3 DUP5 SUB SLT ISZERO PUSH2 0x1D09 JUMPI PUSH2 0x1D08 PUSH2 0x1CB3 JUMP JUMPDEST JUMPDEST PUSH1 0x0 PUSH2 0x1D17 DUP5 DUP3 DUP6 ADD PUSH2 0x1CDE JUMP JUMPDEST SWAP2 POP POP SWAP3 SWAP2 POP POP JUMP JUMPDEST PUSH1 0x0 DUP2 MLOAD SWAP1 POP SWAP2 SWAP1 POP JUMP JUMPDEST PUSH1 0x0 DUP3 DUP3 MSTORE PUSH1 0x20 DUP3 ADD SWAP1 POP SWAP3 SWAP2 POP POP JUMP JUMPDEST PUSH1 0x0 JUMPDEST DUP4 DUP2 LT ISZERO PUSH2 0x1D5A JUMPI DUP1 DUP3 ADD MLOAD DUP2 DUP5 ADD MSTORE PUSH1 0x20 DUP2 ADD SWAP1 POP PUSH2 0x1D3F JUMP JUMPDEST DUP4 DUP2 GT ISZERO PUSH2 0x1D69 JUMPI PUSH1 0x0 DUP5 DUP5 ADD MSTORE JUMPDEST POP POP POP POP JUMP JUMPDEST PUSH1 0x0 PUSH1 0x1F NOT PUSH1 0x1F DUP4 ADD AND SWAP1 POP SWAP2 SWAP1 POP JUMP JUMPDEST PUSH1 0x0 PUSH2 0x1D8B DUP3 PUSH2 0x1D20 JUMP JUMPDEST PUSH2 0x1D95 DUP2 DUP6 PUSH2 0x1D2B JUMP JUMPDEST SWAP4 POP PUSH2 0x1DA5 DUP2 DUP6 PUSH1 0x20 DUP7 ADD PUSH2 0x1D3C JUMP JUMPDEST PUSH2 0x1DAE DUP2 PUSH2 0x1D6F JUMP JUMPDEST DUP5 ADD SWAP2 POP POP SWAP3 SWAP2 POP POP JUMP JUMPDEST PUSH1 0x0 PUSH1 0x20 DUP3 ADD SWAP1 POP DUP2 DUP2 SUB PUSH1 0x0 DUP4 ADD MSTORE PUSH2 0x1DD3 DUP2 DUP5 PUSH2 0x1D80 JUMP JUMPDEST SWAP1 POP SWAP3 SWAP2 POP POP JUMP JUMPDEST PUSH1 0x0 PUSH20 0xFFFFFFFFFFFFFFFFFFFFFFFFFFFFFFFFFFFFFFFF DUP3 AND SWAP1 POP SWAP2 SWAP1 POP JUMP JUMPDEST PUSH1 0x0 PUSH2 0x1E06 DUP3 PUSH2 0x1DDB JUMP JUMPDEST SWAP1 POP SWAP2 SWAP1 POP JUMP JUMPDEST PUSH2 0x1E16 DUP2 PUSH2 0x1DFB JUMP JUMPDEST DUP3 MSTORE POP POP JUMP JUMPDEST PUSH1 0x0 DUP2 ISZERO ISZERO SWAP1 POP SWAP2 SWAP1 POP JUMP JUMPDEST PUSH2 0x1E31 DUP2 PUSH2 0x1E1C JUMP JUMPDEST DUP3 MSTORE POP POP JUMP JUMPDEST PUSH2 0x1E40 DUP2 PUSH2 0x1CBD JUMP JUMPDEST DUP3 MSTORE POP POP JUMP JUMPDEST PUSH1 0x0 PUSH2 0x180 DUP3 ADD SWAP1 POP DUP2 DUP2 SUB PUSH1 0x0 DUP4 ADD MSTORE PUSH2 0x1E61 DUP2 DUP16 PUSH2 0x1D80 JUMP JUMPDEST SWAP1 POP DUP2 DUP2 SUB PUSH1 0x20 DUP4 ADD MSTORE PUSH2 0x1E75 DUP2 DUP15 PUSH2 0x1D80 JUMP JUMPDEST SWAP1 POP DUP2 DUP2 SUB PUSH1 0x40 DUP4 ADD MSTORE PUSH2 0x1E89 DUP2 DUP14 PUSH2 0x1D80 JUMP JUMPDEST SWAP1 POP DUP2 DUP2 SUB PUSH1 0x60 DUP4 ADD MSTORE PUSH2 0x1E9D DUP2 DUP13 PUSH2 0x1D80 JUMP JUMPDEST SWAP1 POP DUP2 DUP2 SUB PUSH1 0x80 DUP4 ADD MSTORE PUSH2 0x1EB1 DUP2 DUP12 PUSH2 0x1D80 JUMP JUMPDEST SWAP1 POP PUSH2 0x1EC0 PUSH1 0xA0 DUP4 ADD DUP11 PUSH2 0x1E0D JUMP JUMPDEST PUSH2 0x1ECD PUSH1 0xC0 DUP4 ADD DUP10 PUSH2 0x1E28 JUMP JUMPDEST PUSH2 0x1EDA PUSH1 0xE0 DUP4 ADD DUP9 PUSH2 0x1E37 JUMP JUMPDEST PUSH2 0x1EE8 PUSH2 0x100 DUP4 ADD DUP8 PUSH2 0x1E37 JUMP JUMPDEST PUSH2 0x1EF6 PUSH2 0x120 DUP4 ADD DUP7 PUSH2 0x1E37 JUMP JUMPDEST PUSH2 0x1F04 PUSH2 0x140 DUP4 ADD DUP6 PUSH2 0x1E28 JUMP JUMPDEST PUSH2 0x1F12 PUSH2 0x160 DUP4 ADD DUP5 PUSH2 0x1E28 JUMP JUMPDEST SWAP14 SWAP13 POP POP POP POP POP POP POP POP POP POP POP POP POP JUMP JUMPDEST PUSH1 0x0 PUSH1 0x20 DUP3 ADD SWAP1 POP PUSH2 0x1F38 PUSH1 0x0 DUP4 ADD DUP5 PUSH2 0x1E28 JUMP JUMPDEST SWAP3 SWAP2 POP POP JUMP JUMPDEST PUSH1 0x0 DUP1 REVERT JUMPDEST PUSH1 0x0 DUP1 REVERT JUMPDEST PUSH32 0x4E487B7100000000000000000000000000000000000000000000000000000000 PUSH1 0x0 MSTORE PUSH1 0x41 PUSH1 0x4 MSTORE PUSH1 0x24 PUSH1 0x0 REVERT JUMPDEST PUSH2 0x1F80 DUP3 PUSH2 0x1D6F JUMP JUMPDEST DUP2 ADD DUP2 DUP2 LT PUSH8 0xFFFFFFFFFFFFFFFF DUP3 GT OR ISZERO PUSH2 0x1F9F JUMPI PUSH2 0x1F9E PUSH2 0x1F48 JUMP JUMPDEST JUMPDEST DUP1 PUSH1 0x40 MSTORE POP POP POP JUMP JUMPDEST PUSH1 0x0 PUSH2 0x1FB2 PUSH2 0x1CA9 JUMP JUMPDEST SWAP1 POP PUSH2 0x1FBE DUP3 DUP3 PUSH2 0x1F77 JUMP JUMPDEST SWAP2 SWAP1 POP JUMP JUMPDEST PUSH1 0x0 PUSH8 0xFFFFFFFFFFFFFFFF DUP3 GT ISZERO PUSH2 0x1FDE JUMPI PUSH2 0x1FDD PUSH2 0x1F48 JUMP JUMPDEST JUMPDEST PUSH2 0x1FE7 DUP3 PUSH2 0x1D6F JUMP JUMPDEST SWAP1 POP PUSH1 0x20 DUP2 ADD SWAP1 POP SWAP2 SWAP1 POP JUMP JUMPDEST DUP3 DUP2 DUP4 CALLDATACOPY PUSH1 0x0 DUP4 DUP4 ADD MSTORE POP POP POP JUMP JUMPDEST PUSH1 0x0 PUSH2 0x2016 PUSH2 0x2011 DUP5 PUSH2 0x1FC3 JUMP JUMPDEST PUSH2 0x1FA8 JUMP JUMPDEST SWAP1 POP DUP3 DUP2 MSTORE PUSH1 0x20 DUP2 ADD DUP5 DUP5 DUP5 ADD GT ISZERO PUSH2 0x2032 JUMPI PUSH2 0x2031 PUSH2 0x1F43 JUMP JUMPDEST JUMPDEST PUSH2 0x203D DUP5 DUP3 DUP6 PUSH2 0x1FF4 JUMP JUMPDEST POP SWAP4 SWAP3 POP POP POP JUMP JUMPDEST PUSH1 0x0 DUP3 PUSH1 0x1F DUP4 ADD SLT PUSH2 0x205A JUMPI PUSH2 0x2059 PUSH2 0x1F3E JUMP JUMPDEST JUMPDEST DUP2 CALLDATALOAD PUSH2 0x206A DUP5 DUP3 PUSH1 0x20 DUP7 ADD PUSH2 0x2003 JUMP JUMPDEST SWAP2 POP POP SWAP3 SWAP2 POP POP JUMP JUMPDEST PUSH2 0x207C DUP2 PUSH2 0x1DFB JUMP JUMPDEST DUP2 EQ PUSH2 0x2087 JUMPI PUSH1 0x0 DUP1 REVERT JUMPDEST POP JUMP JUMPDEST PUSH1 0x0 DUP2 CALLDATALOAD SWAP1 POP PUSH2 0x2099 DUP2 PUSH2 0x2073 JUMP JUMPDEST SWAP3 SWAP2 POP POP JUMP JUMPDEST PUSH1 0x0 DUP1 PUSH1 0x0 DUP1 PUSH1 0x0 DUP1 PUSH1 0x0 PUSH1 0xE0 DUP9 DUP11 SUB SLT ISZERO PUSH2 0x20BE JUMPI PUSH2 0x20BD PUSH2 0x1CB3 JUMP JUMPDEST JUMPDEST PUSH1 0x0 DUP9 ADD CALLDATALOAD PUSH8 0xFFFFFFFFFFFFFFFF DUP2 GT ISZERO PUSH2 0x20DC JUMPI PUSH2 0x20DB PUSH2 0x1CB8 JUMP JUMPDEST JUMPDEST PUSH2 0x20E8 DUP11 DUP3 DUP12 ADD PUSH2 0x2045 JUMP JUMPDEST SWAP8 POP POP PUSH1 0x20 DUP9 ADD CALLDATALOAD PUSH8 0xFFFFFFFFFFFFFFFF DUP2 GT ISZERO PUSH2 0x2109 JUMPI PUSH2 0x2108 PUSH2 0x1CB8 JUMP JUMPDEST JUMPDEST PUSH2 0x2115 DUP11 DUP3 DUP12 ADD PUSH2 0x2045 JUMP JUMPDEST SWAP7 POP POP PUSH1 0x40 DUP9 ADD CALLDATALOAD PUSH8 0xFFFFFFFFFFFFFFFF DUP2 GT ISZERO PUSH2 0x2136 JUMPI PUSH2 0x2135 PUSH2 0x1CB8 JUMP JUMPDEST JUMPDEST PUSH2 0x2142 DUP11 DUP3 DUP12 ADD PUSH2 0x2045 JUMP JUMPDEST SWAP6 POP POP PUSH1 0x60 DUP9 ADD CALLDATALOAD PUSH8 0xFFFFFFFFFFFFFFFF DUP2 GT ISZERO PUSH2 0x2163 JUMPI PUSH2 0x2162 PUSH2 0x1CB8 JUMP JUMPDEST JUMPDEST PUSH2 0x216F DUP11 DUP3 DUP12 ADD PUSH2 0x2045 JUMP JUMPDEST SWAP5 POP POP PUSH1 0x80 DUP9 ADD CALLDATALOAD PUSH8 0xFFFFFFFFFFFFFFFF DUP2 GT ISZERO PUSH2 0x2190 JUMPI PUSH2 0x218F PUSH2 0x1CB8 JUMP JUMPDEST JUMPDEST PUSH2 0x219C DUP11 DUP3 DUP12 ADD PUSH2 0x2045 JUMP JUMPDEST SWAP4 POP POP PUSH1 0xA0 PUSH2 0x21AD DUP11 DUP3 DUP12 ADD PUSH2 0x208A JUMP JUMPDEST SWAP3 POP POP PUSH1 0xC0 PUSH2 0x21BE DUP11 DUP3 DUP12 ADD PUSH2 0x1CDE JUMP JUMPDEST SWAP2 POP POP SWAP3 SWAP6 SWAP9 SWAP2 SWAP5 SWAP8 POP SWAP3 SWAP6 POP JUMP JUMPDEST PUSH1 0x0 PUSH1 0x20 DUP3 ADD SWAP1 POP PUSH2 0x21E2 PUSH1 0x0 DUP4 ADD DUP5 PUSH2 0x1E37 JUMP JUMPDEST SWAP3 SWAP2 POP POP JUMP JUMPDEST PUSH1 0x0 PUSH2 0x21F3 DUP3 PUSH2 0x1DDB JUMP JUMPDEST SWAP1 POP SWAP2 SWAP1 POP JUMP JUMPDEST PUSH2 0x2203 DUP2 PUSH2 0x21E8 JUMP JUMPDEST DUP2 EQ PUSH2 0x220E JUMPI PUSH1 0x0 DUP1 REVERT JUMPDEST POP JUMP JUMPDEST PUSH1 0x0 DUP2 CALLDATALOAD SWAP1 POP PUSH2 0x2220 DUP2 PUSH2 0x21FA JUMP JUMPDEST SWAP3 SWAP2 POP POP JUMP JUMPDEST PUSH1 0x0 PUSH1 0x20 DUP3 DUP5 SUB SLT ISZERO PUSH2 0x223C JUMPI PUSH2 0x223B PUSH2 0x1CB3 JUMP JUMPDEST JUMPDEST PUSH1 0x0 PUSH2 0x224A DUP5 DUP3 DUP6 ADD PUSH2 0x2211 JUMP JUMPDEST SWAP2 POP POP SWAP3 SWAP2 POP POP JUMP JUMPDEST PUSH2 0x225C DUP2 PUSH2 0x21E8 JUMP JUMPDEST DUP3 MSTORE POP POP JUMP JUMPDEST PUSH1 0x0 PUSH1 0x20 DUP3 ADD SWAP1 POP PUSH2 0x2277 PUSH1 0x0 DUP4 ADD DUP5 PUSH2 0x2253 JUMP JUMPDEST SWAP3 SWAP2 POP POP JUMP JUMPDEST PUSH2 0x2286 DUP2 PUSH2 0x1E1C JUMP JUMPDEST DUP2 EQ PUSH2 0x2291 JUMPI PUSH1 0x0 DUP1 REVERT JUMPDEST POP JUMP JUMPDEST PUSH1 0x0 DUP2 MLOAD SWAP1 POP PUSH2 0x22A3 DUP2 PUSH2 0x227D JUMP JUMPDEST SWAP3 SWAP2 POP POP JUMP JUMPDEST PUSH1 0x0 PUSH1 0x20 DUP3 DUP5 SUB SLT ISZERO PUSH2 0x22BF JUMPI PUSH2 0x22BE PUSH2 0x1CB3 JUMP JUMPDEST JUMPDEST PUSH1 0x0 PUSH2 0x22CD DUP5 DUP3 DUP6 ADD PUSH2 0x2294 JUMP JUMPDEST SWAP2 POP POP SWAP3 SWAP2 POP POP JUMP JUMPDEST PUSH32 0x4E487B7100000000000000000000000000000000000000000000000000000000 PUSH1 0x0 MSTORE PUSH1 0x11 PUSH1 0x4 MSTORE PUSH1 0x24 PUSH1 0x0 REVERT JUMPDEST PUSH1 0x0 PUSH2 0x2310 DUP3 PUSH2 0x1CBD JUMP JUMPDEST SWAP2 POP PUSH32 0xFFFFFFFFFFFFFFFFFFFFFFFFFFFFFFFFFFFFFFFFFFFFFFFFFFFFFFFFFFFFFFFF DUP3 EQ ISZERO PUSH2 0x2343 JUMPI PUSH2 0x2342 PUSH2 0x22D6 JUMP JUMPDEST JUMPDEST PUSH1 0x1 DUP3 ADD SWAP1 POP SWAP2 SWAP1 POP JUMP JUMPDEST PUSH1 0x0 DUP2 MLOAD SWAP1 POP PUSH2 0x235D DUP2 PUSH2 0x1CC7 JUMP JUMPDEST SWAP3 SWAP2 POP POP JUMP JUMPDEST PUSH1 0x0 PUSH1 0x20 DUP3 DUP5 SUB SLT ISZERO PUSH2 0x2379 JUMPI PUSH2 0x2378 PUSH2 0x1CB3 JUMP JUMPDEST JUMPDEST PUSH1 0x0 PUSH2 0x2387 DUP5 DUP3 DUP6 ADD PUSH2 0x234E JUMP JUMPDEST SWAP2 POP POP SWAP3 SWAP2 POP POP JUMP JUMPDEST PUSH32 0x4E487B7100000000000000000000000000000000000000000000000000000000 PUSH1 0x0 MSTORE PUSH1 0x12 PUSH1 0x4 MSTORE PUSH1 0x24 PUSH1 0x0 REVERT JUMPDEST PUSH1 0x0 PUSH2 0x23CA DUP3 PUSH2 0x1CBD JUMP JUMPDEST SWAP2 POP PUSH2 0x23D5 DUP4 PUSH2 0x1CBD JUMP JUMPDEST SWAP3 POP DUP3 PUSH2 0x23E5 JUMPI PUSH2 0x23E4 PUSH2 0x2390 JUMP JUMPDEST JUMPDEST DUP3 DUP3 DIV SWAP1 POP SWAP3 SWAP2 POP POP JUMP JUMPDEST PUSH32 0x4E487B7100000000000000000000000000000000000000000000000000000000 PUSH1 0x0 MSTORE PUSH1 0x22 PUSH1 0x4 MSTORE PUSH1 0x24 PUSH1 0x0 REVERT JUMPDEST PUSH1 0x0 PUSH1 0x2 DUP3 DIV SWAP1 POP PUSH1 0x1 DUP3 AND DUP1 PUSH2 0x2437 JUMPI PUSH1 0x7F DUP3 AND SWAP2 POP JUMPDEST PUSH1 0x20 DUP3 LT DUP2 EQ ISZERO PUSH2 0x244B JUMPI PUSH2 0x244A PUSH2 0x23F0 JUMP JUMPDEST JUMPDEST POP SWAP2 SWAP1 POP JUMP JUMPDEST PUSH1 0x0 PUSH1 0x40 DUP3 ADD SWAP1 POP PUSH2 0x2466 PUSH1 0x0 DUP4 ADD DUP6 PUSH2 0x1E0D JUMP JUMPDEST PUSH2 0x2473 PUSH1 0x20 DUP4 ADD DUP5 PUSH2 0x1E37 JUMP JUMPDEST SWAP4 SWAP3 POP POP POP JUMP INVALID LOG2 PUSH5 0x6970667358 0x22 SLT KECCAK256 DUP7 0xD1 CREATE 0x2E 0xBB PUSH25 0x432334FCB53ED32826D54112680BA2B84C0EDA62AF5CC4F33E 0x1F PUSH5 0x736F6C6343 STOP ADDMOD MULMOD STOP CALLER LOG2 PUSH5 0x6970667358 0x22 SLT KECCAK256 0x23 0x21 CALLCODE SWAP12 SELFDESTRUCT 0xB6 NUMBER 0xEE 0xF PUSH29 0xA184F235B55C94AF80E8D23E0D37FA4C3C3029C1CCF264736F6C634300 ADDMOD MULMOD STOP CALLER "},"gasEstimates":{"creation":{"codeDepositCost":"2999800","executionCost":"infinite","totalCost":"infinite"},"external":{"allUsers(uint256)":"infinite","createMember()":"55514","createUser(string,string,string,string)":"infinite","getAllUsers()":"infinite","getMemberCount()":"2548","getPoolAmount()":"384","isAMember(address)":"2963","isAUser(address)":"2897","memberBuyin()":"2473","members(address)":"2868","transact(address,uint256)":"infinite","users(address)":"2867"}},"methodIdentifiers":{"allUsers(uint256)":"a2bdedf4","createMember()":"d815e58d","createUser(string,string,string,string)":"6f7fcddb","getAllUsers()":"e2842d79","getMemberCount()":"997072f7","getPoolAmount()":"4ab4ba42","isAMember(address)":"5d672a62","isAUser(address)":"018f5472","memberBuyin()":"b4c1a368","members(address)":"08ae4b0c","transact(address,uint256)":"f77ac668","users(address)":"a87430ba"}},"storageLayout":{"storage":[{"astId":7,"contract":"CharityDAO.sol:DAO","label":"DAOAddress","offset":0,"slot":"0","type":"t_address"},{"astId":9,"contract":"CharityDAO.sol:DAO","label":"memberBuyin","offset":0,"slot":"1","type":"t_uint256"},{"astId":11,"contract":"CharityDAO.sol:DAO","label":"memberCount","offset":0,"slot":"2","type":"t_uint256"},{"astId":15,"contract":"CharityDAO.sol:DAO","label":"members","offset":0,"slot":"3","type":"t_mapping(t_address,t_bool)"},{"astId":19,"contract":"CharityDAO.sol:DAO","label":"allUsers","offset":0,"slot":"4","type":"t_array(t_contract(User)860)dyn_storage"},{"astId":23,"contract":"CharityDAO.sol:DAO","label":"users","offset":0,"slot":"5","type":"t_mapping(t_address,t_bool)"}],"types":{"t_address":{"encoding":"inplace","label":"address","numberOfBytes":"20"},"t_array(t_contract(User)860)dyn_storage":{"base":"t_contract(User)860","encoding":"dynamic_array","label":"contract User[]","numberOfBytes":"32"},"t_bool":{"encoding":"inplace","label":"bool","numberOfBytes":"1"},"t_contract(User)860":{"encoding":"inplace","label":"contract User","numberOfBytes":"20"},"t_mapping(t_address,t_bool)":{"encoding":"mapping","key":"t_address","label":"mapping(address => bool)","numberOfBytes":"32","value":"t_bool"},"t_uint256":{"encoding":"inplace","label":"uint256","numberOfBytes":"32"}}},"userdoc":{"kind":"user","methods":{},"version":1}}