{"abi":[{"inputs":[{"internalType":"string","name":"_name","type":"string"},{"internalType":"string","name":"_description","type":"string"},{"internalType":"string","name":"_locationAddress","type":"string"},{"internalType":"string","name":"_phone","type":"string"},{"internalType":"string","name":"_email","type":"string"},{"internalType":"address","name":"_creator","type":"address"},{"internalType":"address","name":"_DAOAddress","type":"address"}],"stateMutability":"nonpayable","type":"constructor"},{"inputs":[{"internalType":"uint256","name":"campaignIndex","type":"uint256"}],"name":"approveCampaign","outputs":[],"stateMutability":"nonpayable","type":"function"},{"inputs":[],"name":"approveCount","outputs":[{"internalType":"uint256","name":"","type":"uint256"}],"stateMutability":"view","type":"function"},{"inputs":[],"name":"approveUser","outputs":[],"stateMutability":"nonpayable","type":"function"},{"inputs":[{"internalType":"address","name":"","type":"address"}],"name":"approvedMembers","outputs":[{"internalType":"bool","name":"","type":"bool"}],"stateMutability":"view","type":"function"},{"inputs":[{"internalType":"uint256","name":"","type":"uint256"}],"name":"campaigns","outputs":[{"internalType":"string","name":"title","type":"string"},{"internalType":"string","name":"description","type":"string"},{"internalType":"string","name":"recipientName","type":"string"},{"internalType":"string","name":"recipientPhone","type":"string"},{"internalType":"string","name":"recipientEmail","type":"string"},{"internalType":"address payable","name":"recipient","type":"address"},{"internalType":"bool","name":"transactionComplete","type":"bool"},{"internalType":"uint256","name":"value","type":"uint256"},{"internalType":"uint256","name":"approveCount","type":"uint256"},{"internalType":"uint256","name":"rejectCount","type":"uint256"},{"internalType":"bool","name":"isApproved","type":"bool"},{"internalType":"bool","name":"isRejected","type":"bool"}],"stateMutability":"view","type":"function"},{"inputs":[{"internalType":"string","name":"_title","type":"string"},{"internalType":"string","name":"_description","type":"string"},{"internalType":"string","name":"_recipientName","type":"string"},{"internalType":"string","name":"_recipientPhone","type":"string"},{"internalType":"string","name":"_recipientEmail","type":"string"},{"internalType":"address payable","name":"_recipient","type":"address"},{"internalType":"uint256","name":"_value","type":"uint256"}],"name":"createCampaign","outputs":[],"stateMutability":"nonpayable","type":"function"},{"inputs":[],"name":"description","outputs":[{"internalType":"string","name":"","type":"string"}],"stateMutability":"view","type":"function"},{"inputs":[],"name":"email","outputs":[{"internalType":"string","name":"","type":"string"}],"stateMutability":"view","type":"function"},{"inputs":[{"internalType":"uint256","name":"campaignIndex","type":"uint256"}],"name":"finalizeTransaction","outputs":[],"stateMutability":"nonpayable","type":"function"},{"inputs":[{"internalType":"uint256","name":"campaignIndex","type":"uint256"}],"name":"getMemberApprovalStatus","outputs":[{"internalType":"bool","name":"","type":"bool"}],"stateMutability":"view","type":"function"},{"inputs":[{"internalType":"uint256","name":"campaignIndex","type":"uint256"}],"name":"getMemberRejectionStatus","outputs":[{"internalType":"bool","name":"","type":"bool"}],"stateMutability":"view","type":"function"},{"inputs":[],"name":"isApproved","outputs":[{"internalType":"bool","name":"","type":"bool"}],"stateMutability":"view","type":"function"},{"inputs":[],"name":"isRejected","outputs":[{"internalType":"bool","name":"","type":"bool"}],"stateMutability":"view","type":"function"},{"inputs":[],"name":"locationAddress","outputs":[{"internalType":"string","name":"","type":"string"}],"stateMutability":"view","type":"function"},{"inputs":[],"name":"name","outputs":[{"internalType":"string","name":"","type":"string"}],"stateMutability":"view","type":"function"},{"inputs":[],"name":"numCampaign","outputs":[{"internalType":"uint256","name":"","type":"uint256"}],"stateMutability":"view","type":"function"},{"inputs":[],"name":"phone","outputs":[{"internalType":"string","name":"","type":"string"}],"stateMutability":"view","type":"function"},{"inputs":[{"internalType":"uint256","name":"campaignIndex","type":"uint256"}],"name":"rejectCampaign","outputs":[],"stateMutability":"nonpayable","type":"function"},{"inputs":[],"name":"rejectCount","outputs":[{"internalType":"uint256","name":"","type":"uint256"}],"stateMutability":"view","type":"function"},{"inputs":[],"name":"rejectUser","outputs":[],"stateMutability":"nonpayable","type":"function"},{"inputs":[{"internalType":"address","name":"","type":"address"}],"name":"rejectedMembers","outputs":[{"internalType":"bool","name":"","type":"bool"}],"stateMutability":"view","type":"function"},{"inputs":[],"name":"userAddress","outputs":[{"internalType":"address","name":"","type":"address"}],"stateMutability":"view","type":"function"}],"devdoc":{"kind":"dev","methods":{},"version":1},"evm":{"assembly":"    /* \"CharityDAO.sol\":1803:8040  contract User {... */\n  mstore(0x40, 0x80)\n    /* \"CharityDAO.sol\":2839:3383  constructor(string memory _name, string memory _description, string memory _locationAddress, string memory _phone, string memory _email, address _creator, address _DAOAddress) {... */\n  callvalue\n  dup1\n  iszero\n  tag_1\n  jumpi\n  0x00\n  dup1\n  revert\ntag_1:\n  pop\n  mload(0x40)\n  sub(codesize, bytecodeSize)\n  dup1\n  bytecodeSize\n  dup4\n  codecopy\n  dup2\n  dup2\n  add\n  0x40\n  mstore\n  dup2\n  add\n  swap1\n  tag_2\n  swap2\n  swap1\n  tag_3\n  jump\t// in\ntag_2:\n    /* \"CharityDAO.sol\":3033:3038  _name */\n  dup7\n    /* \"CharityDAO.sol\":3026:3030  name */\n  0x00\n    /* \"CharityDAO.sol\":3026:3038  name = _name */\n  swap1\n  dup1\n  mload\n  swap1\n  0x20\n  add\n  swap1\n  tag_6\n  swap3\n  swap2\n  swap1\n  tag_7\n  jump\t// in\ntag_6:\n  pop\n    /* \"CharityDAO.sol\":3063:3075  _description */\n  dup6\n    /* \"CharityDAO.sol\":3049:3060  description */\n  0x01\n    /* \"CharityDAO.sol\":3049:3075  description = _description */\n  swap1\n  dup1\n  mload\n  swap1\n  0x20\n  add\n  swap1\n  tag_8\n  swap3\n  swap2\n  swap1\n  tag_7\n  jump\t// in\ntag_8:\n  pop\n    /* \"CharityDAO.sol\":3094:3100  _phone */\n  dup4\n    /* \"CharityDAO.sol\":3086:3091  phone */\n  0x03\n    /* \"CharityDAO.sol\":3086:3100  phone = _phone */\n  swap1\n  dup1\n  mload\n  swap1\n  0x20\n  add\n  swap1\n  tag_9\n  swap3\n  swap2\n  swap1\n  tag_7\n  jump\t// in\ntag_9:\n  pop\n    /* \"CharityDAO.sol\":3119:3125  _email */\n  dup3\n    /* \"CharityDAO.sol\":3111:3116  email */\n  0x04\n    /* \"CharityDAO.sol\":3111:3125  email = _email */\n  swap1\n  dup1\n  mload\n  swap1\n  0x20\n  add\n  swap1\n  tag_10\n  swap3\n  swap2\n  swap1\n  tag_7\n  jump\t// in\ntag_10:\n  pop\n    /* \"CharityDAO.sol\":3150:3158  _creator */\n  dup2\n    /* \"CharityDAO.sol\":3136:3147  userAddress */\n  0x02\n  0x00\n    /* \"CharityDAO.sol\":3136:3158  userAddress = _creator */\n  0x0100\n  exp\n  dup2\n  sload\n  dup2\n  0xffffffffffffffffffffffffffffffffffffffff\n  mul\n  not\n  and\n  swap1\n  dup4\n  0xffffffffffffffffffffffffffffffffffffffff\n  and\n  mul\n  or\n  swap1\n  sstore\n  pop\n    /* \"CharityDAO.sol\":3182:3193  _DAOAddress */\n  dup1\n    /* \"CharityDAO.sol\":3169:3179  DAOAddress */\n  0x0b\n  0x00\n    /* \"CharityDAO.sol\":3169:3193  DAOAddress = _DAOAddress */\n  0x0100\n  exp\n  dup2\n  sload\n  dup2\n  0xffffffffffffffffffffffffffffffffffffffff\n  mul\n  not\n  and\n  swap1\n  dup4\n  0xffffffffffffffffffffffffffffffffffffffff\n  and\n  mul\n  or\n  swap1\n  sstore\n  pop\n    /* \"CharityDAO.sol\":3222:3238  _locationAddress */\n  dup5\n    /* \"CharityDAO.sol\":3204:3219  locationAddress */\n  0x05\n    /* \"CharityDAO.sol\":3204:3238  locationAddress = _locationAddress */\n  swap1\n  dup1\n  mload\n  swap1\n  0x20\n  add\n  swap1\n  tag_11\n  swap3\n  swap2\n  swap1\n  tag_7\n  jump\t// in\ntag_11:\n  pop\n    /* \"CharityDAO.sol\":3264:3265  0 */\n  0x00\n    /* \"CharityDAO.sol\":3249:3261  approveCount */\n  0x06\n    /* \"CharityDAO.sol\":3249:3265  approveCount = 0 */\n  dup2\n  swap1\n  sstore\n  pop\n    /* \"CharityDAO.sol\":3290:3291  0 */\n  0x00\n    /* \"CharityDAO.sol\":3276:3287  rejectCount */\n  0x07\n    /* \"CharityDAO.sol\":3276:3291  rejectCount = 0 */\n  dup2\n  swap1\n  sstore\n  pop\n    /* \"CharityDAO.sol\":3315:3320  false */\n  0x00\n    /* \"CharityDAO.sol\":3302:3312  isApproved */\n  0x08\n  0x00\n    /* \"CharityDAO.sol\":3302:3320  isApproved = false */\n  0x0100\n  exp\n  dup2\n  sload\n  dup2\n  0xff\n  mul\n  not\n  and\n  swap1\n  dup4\n  iszero\n  iszero\n  mul\n  or\n  swap1\n  sstore\n  pop\n    /* \"CharityDAO.sol\":3344:3349  false */\n  0x00\n    /* \"CharityDAO.sol\":3331:3341  isRejected */\n  0x08\n  0x01\n    /* \"CharityDAO.sol\":3331:3349  isRejected = false */\n  0x0100\n  exp\n  dup2\n  sload\n  dup2\n  0xff\n  mul\n  not\n  and\n  swap1\n  dup4\n  iszero\n  iszero\n  mul\n  or\n  swap1\n  sstore\n  pop\n    /* \"CharityDAO.sol\":3374:3375  0 */\n  0x00\n    /* \"CharityDAO.sol\":3360:3371  numCampaign */\n  0x0c\n    /* \"CharityDAO.sol\":3360:3375  numCampaign = 0 */\n  dup2\n  swap1\n  sstore\n  pop\n    /* \"CharityDAO.sol\":2839:3383  constructor(string memory _name, string memory _description, string memory _locationAddress, string memory _phone, string memory _email, address _creator, address _DAOAddress) {... */\n  pop\n  pop\n  pop\n  pop\n  pop\n  pop\n  pop\n    /* \"CharityDAO.sol\":1803:8040  contract User {... */\n  jump(tag_12)\ntag_7:\n  dup3\n  dup1\n  sload\n  tag_13\n  swap1\n  tag_14\n  jump\t// in\ntag_13:\n  swap1\n  0x00\n  mstore\n  keccak256(0x00, 0x20)\n  swap1\n  0x1f\n  add\n  0x20\n  swap1\n  div\n  dup2\n  add\n  swap3\n  dup3\n  tag_16\n  jumpi\n  0x00\n  dup6\n  sstore\n  jump(tag_15)\ntag_16:\n  dup3\n  0x1f\n  lt\n  tag_17\n  jumpi\n  dup1\n  mload\n  not(0xff)\n  and\n  dup4\n  dup1\n  add\n  or\n  dup6\n  sstore\n  jump(tag_15)\ntag_17:\n  dup3\n  dup1\n  add\n  0x01\n  add\n  dup6\n  sstore\n  dup3\n  iszero\n  tag_15\n  jumpi\n  swap2\n  dup3\n  add\ntag_18:\n  dup3\n  dup2\n  gt\n  iszero\n  tag_19\n  jumpi\n  dup3\n  mload\n  dup3\n  sstore\n  swap2\n  0x20\n  add\n  swap2\n  swap1\n  0x01\n  add\n  swap1\n  jump(tag_18)\ntag_19:\ntag_15:\n  pop\n  swap1\n  pop\n  tag_20\n  swap2\n  swap1\n  tag_21\n  jump\t// in\ntag_20:\n  pop\n  swap1\n  jump\t// out\ntag_21:\ntag_22:\n  dup1\n  dup3\n  gt\n  iszero\n  tag_23\n  jumpi\n  0x00\n  dup2\n  0x00\n  swap1\n  sstore\n  pop\n  0x01\n  add\n  jump(tag_22)\ntag_23:\n  pop\n  swap1\n  jump\t// out\n    /* \"#utility.yul\":7:82   */\ntag_24:\n    /* \"#utility.yul\":40:46   */\n  0x00\n    /* \"#utility.yul\":73:75   */\n  0x40\n    /* \"#utility.yul\":67:76   */\n  mload\n    /* \"#utility.yul\":57:76   */\n  swap1\n  pop\n    /* \"#utility.yul\":7:82   */\n  swap1\n  jump\t// out\n    /* \"#utility.yul\":88:205   */\ntag_25:\n    /* \"#utility.yul\":197:198   */\n  0x00\n    /* \"#utility.yul\":194:195   */\n  dup1\n    /* \"#utility.yul\":187:199   */\n  revert\n    /* \"#utility.yul\":211:328   */\ntag_26:\n    /* \"#utility.yul\":320:321   */\n  0x00\n    /* \"#utility.yul\":317:318   */\n  dup1\n    /* \"#utility.yul\":310:322   */\n  revert\n    /* \"#utility.yul\":334:451   */\ntag_27:\n    /* \"#utility.yul\":443:444   */\n  0x00\n    /* \"#utility.yul\":440:441   */\n  dup1\n    /* \"#utility.yul\":433:445   */\n  revert\n    /* \"#utility.yul\":457:574   */\ntag_28:\n    /* \"#utility.yul\":566:567   */\n  0x00\n    /* \"#utility.yul\":563:564   */\n  dup1\n    /* \"#utility.yul\":556:568   */\n  revert\n    /* \"#utility.yul\":580:682   */\ntag_29:\n    /* \"#utility.yul\":621:627   */\n  0x00\n    /* \"#utility.yul\":672:674   */\n  0x1f\n    /* \"#utility.yul\":668:675   */\n  not\n    /* \"#utility.yul\":663:665   */\n  0x1f\n    /* \"#utility.yul\":656:661   */\n  dup4\n    /* \"#utility.yul\":652:666   */\n  add\n    /* \"#utility.yul\":648:676   */\n  and\n    /* \"#utility.yul\":638:676   */\n  swap1\n  pop\n    /* \"#utility.yul\":580:682   */\n  swap2\n  swap1\n  pop\n  jump\t// out\n    /* \"#utility.yul\":688:868   */\ntag_30:\n    /* \"#utility.yul\":736:813   */\n  0x4e487b7100000000000000000000000000000000000000000000000000000000\n    /* \"#utility.yul\":733:734   */\n  0x00\n    /* \"#utility.yul\":726:814   */\n  mstore\n    /* \"#utility.yul\":833:837   */\n  0x41\n    /* \"#utility.yul\":830:831   */\n  0x04\n    /* \"#utility.yul\":823:838   */\n  mstore\n    /* \"#utility.yul\":857:861   */\n  0x24\n    /* \"#utility.yul\":854:855   */\n  0x00\n    /* \"#utility.yul\":847:862   */\n  revert\n    /* \"#utility.yul\":874:1155   */\ntag_31:\n    /* \"#utility.yul\":957:984   */\n  tag_51\n    /* \"#utility.yul\":979:983   */\n  dup3\n    /* \"#utility.yul\":957:984   */\n  tag_29\n  jump\t// in\ntag_51:\n    /* \"#utility.yul\":949:955   */\n  dup2\n    /* \"#utility.yul\":945:985   */\n  add\n    /* \"#utility.yul\":1087:1093   */\n  dup2\n    /* \"#utility.yul\":1075:1085   */\n  dup2\n    /* \"#utility.yul\":1072:1094   */\n  lt\n    /* \"#utility.yul\":1051:1069   */\n  0xffffffffffffffff\n    /* \"#utility.yul\":1039:1049   */\n  dup3\n    /* \"#utility.yul\":1036:1070   */\n  gt\n    /* \"#utility.yul\":1033:1095   */\n  or\n    /* \"#utility.yul\":1030:1118   */\n  iszero\n  tag_52\n  jumpi\n    /* \"#utility.yul\":1098:1116   */\n  tag_53\n  tag_30\n  jump\t// in\ntag_53:\n    /* \"#utility.yul\":1030:1118   */\ntag_52:\n    /* \"#utility.yul\":1138:1148   */\n  dup1\n    /* \"#utility.yul\":1134:1136   */\n  0x40\n    /* \"#utility.yul\":1127:1149   */\n  mstore\n    /* \"#utility.yul\":917:1155   */\n  pop\n    /* \"#utility.yul\":874:1155   */\n  pop\n  pop\n  jump\t// out\n    /* \"#utility.yul\":1161:1290   */\ntag_32:\n    /* \"#utility.yul\":1195:1201   */\n  0x00\n    /* \"#utility.yul\":1222:1242   */\n  tag_55\n  tag_24\n  jump\t// in\ntag_55:\n    /* \"#utility.yul\":1212:1242   */\n  swap1\n  pop\n    /* \"#utility.yul\":1251:1284   */\n  tag_56\n    /* \"#utility.yul\":1279:1283   */\n  dup3\n    /* \"#utility.yul\":1271:1277   */\n  dup3\n    /* \"#utility.yul\":1251:1284   */\n  tag_31\n  jump\t// in\ntag_56:\n    /* \"#utility.yul\":1161:1290   */\n  swap2\n  swap1\n  pop\n  jump\t// out\n    /* \"#utility.yul\":1296:1604   */\ntag_33:\n    /* \"#utility.yul\":1358:1362   */\n  0x00\n    /* \"#utility.yul\":1448:1466   */\n  0xffffffffffffffff\n    /* \"#utility.yul\":1440:1446   */\n  dup3\n    /* \"#utility.yul\":1437:1467   */\n  gt\n    /* \"#utility.yul\":1434:1490   */\n  iszero\n  tag_58\n  jumpi\n    /* \"#utility.yul\":1470:1488   */\n  tag_59\n  tag_30\n  jump\t// in\ntag_59:\n    /* \"#utility.yul\":1434:1490   */\ntag_58:\n    /* \"#utility.yul\":1508:1537   */\n  tag_60\n    /* \"#utility.yul\":1530:1536   */\n  dup3\n    /* \"#utility.yul\":1508:1537   */\n  tag_29\n  jump\t// in\ntag_60:\n    /* \"#utility.yul\":1500:1537   */\n  swap1\n  pop\n    /* \"#utility.yul\":1592:1596   */\n  0x20\n    /* \"#utility.yul\":1586:1590   */\n  dup2\n    /* \"#utility.yul\":1582:1597   */\n  add\n    /* \"#utility.yul\":1574:1597   */\n  swap1\n  pop\n    /* \"#utility.yul\":1296:1604   */\n  swap2\n  swap1\n  pop\n  jump\t// out\n    /* \"#utility.yul\":1610:1917   */\ntag_34:\n    /* \"#utility.yul\":1678:1679   */\n  0x00\n    /* \"#utility.yul\":1688:1801   */\ntag_62:\n    /* \"#utility.yul\":1702:1708   */\n  dup4\n    /* \"#utility.yul\":1699:1700   */\n  dup2\n    /* \"#utility.yul\":1696:1709   */\n  lt\n    /* \"#utility.yul\":1688:1801   */\n  iszero\n  tag_64\n  jumpi\n    /* \"#utility.yul\":1787:1788   */\n  dup1\n    /* \"#utility.yul\":1782:1785   */\n  dup3\n    /* \"#utility.yul\":1778:1789   */\n  add\n    /* \"#utility.yul\":1772:1790   */\n  mload\n    /* \"#utility.yul\":1768:1769   */\n  dup2\n    /* \"#utility.yul\":1763:1766   */\n  dup5\n    /* \"#utility.yul\":1759:1770   */\n  add\n    /* \"#utility.yul\":1752:1791   */\n  mstore\n    /* \"#utility.yul\":1724:1726   */\n  0x20\n    /* \"#utility.yul\":1721:1722   */\n  dup2\n    /* \"#utility.yul\":1717:1727   */\n  add\n    /* \"#utility.yul\":1712:1727   */\n  swap1\n  pop\n    /* \"#utility.yul\":1688:1801   */\n  jump(tag_62)\ntag_64:\n    /* \"#utility.yul\":1819:1825   */\n  dup4\n    /* \"#utility.yul\":1816:1817   */\n  dup2\n    /* \"#utility.yul\":1813:1826   */\n  gt\n    /* \"#utility.yul\":1810:1911   */\n  iszero\n  tag_65\n  jumpi\n    /* \"#utility.yul\":1899:1900   */\n  0x00\n    /* \"#utility.yul\":1890:1896   */\n  dup5\n    /* \"#utility.yul\":1885:1888   */\n  dup5\n    /* \"#utility.yul\":1881:1897   */\n  add\n    /* \"#utility.yul\":1874:1901   */\n  mstore\n    /* \"#utility.yul\":1810:1911   */\ntag_65:\n    /* \"#utility.yul\":1659:1917   */\n  pop\n    /* \"#utility.yul\":1610:1917   */\n  pop\n  pop\n  pop\n  jump\t// out\n    /* \"#utility.yul\":1923:2344   */\ntag_35:\n    /* \"#utility.yul\":2012:2017   */\n  0x00\n    /* \"#utility.yul\":2037:2103   */\n  tag_67\n    /* \"#utility.yul\":2053:2102   */\n  tag_68\n    /* \"#utility.yul\":2095:2101   */\n  dup5\n    /* \"#utility.yul\":2053:2102   */\n  tag_33\n  jump\t// in\ntag_68:\n    /* \"#utility.yul\":2037:2103   */\n  tag_32\n  jump\t// in\ntag_67:\n    /* \"#utility.yul\":2028:2103   */\n  swap1\n  pop\n    /* \"#utility.yul\":2126:2132   */\n  dup3\n    /* \"#utility.yul\":2119:2124   */\n  dup2\n    /* \"#utility.yul\":2112:2133   */\n  mstore\n    /* \"#utility.yul\":2164:2168   */\n  0x20\n    /* \"#utility.yul\":2157:2162   */\n  dup2\n    /* \"#utility.yul\":2153:2169   */\n  add\n    /* \"#utility.yul\":2202:2205   */\n  dup5\n    /* \"#utility.yul\":2193:2199   */\n  dup5\n    /* \"#utility.yul\":2188:2191   */\n  dup5\n    /* \"#utility.yul\":2184:2200   */\n  add\n    /* \"#utility.yul\":2181:2206   */\n  gt\n    /* \"#utility.yul\":2178:2290   */\n  iszero\n  tag_69\n  jumpi\n    /* \"#utility.yul\":2209:2288   */\n  tag_70\n  tag_28\n  jump\t// in\ntag_70:\n    /* \"#utility.yul\":2178:2290   */\ntag_69:\n    /* \"#utility.yul\":2299:2338   */\n  tag_71\n    /* \"#utility.yul\":2331:2337   */\n  dup5\n    /* \"#utility.yul\":2326:2329   */\n  dup3\n    /* \"#utility.yul\":2321:2324   */\n  dup6\n    /* \"#utility.yul\":2299:2338   */\n  tag_34\n  jump\t// in\ntag_71:\n    /* \"#utility.yul\":2018:2344   */\n  pop\n    /* \"#utility.yul\":1923:2344   */\n  swap4\n  swap3\n  pop\n  pop\n  pop\n  jump\t// out\n    /* \"#utility.yul\":2364:2719   */\ntag_36:\n    /* \"#utility.yul\":2431:2436   */\n  0x00\n    /* \"#utility.yul\":2480:2483   */\n  dup3\n    /* \"#utility.yul\":2473:2477   */\n  0x1f\n    /* \"#utility.yul\":2465:2471   */\n  dup4\n    /* \"#utility.yul\":2461:2478   */\n  add\n    /* \"#utility.yul\":2457:2484   */\n  slt\n    /* \"#utility.yul\":2447:2569   */\n  tag_73\n  jumpi\n    /* \"#utility.yul\":2488:2567   */\n  tag_74\n  tag_27\n  jump\t// in\ntag_74:\n    /* \"#utility.yul\":2447:2569   */\ntag_73:\n    /* \"#utility.yul\":2598:2604   */\n  dup2\n    /* \"#utility.yul\":2592:2605   */\n  mload\n    /* \"#utility.yul\":2623:2713   */\n  tag_75\n    /* \"#utility.yul\":2709:2712   */\n  dup5\n    /* \"#utility.yul\":2701:2707   */\n  dup3\n    /* \"#utility.yul\":2694:2698   */\n  0x20\n    /* \"#utility.yul\":2686:2692   */\n  dup7\n    /* \"#utility.yul\":2682:2699   */\n  add\n    /* \"#utility.yul\":2623:2713   */\n  tag_35\n  jump\t// in\ntag_75:\n    /* \"#utility.yul\":2614:2713   */\n  swap2\n  pop\n    /* \"#utility.yul\":2437:2719   */\n  pop\n    /* \"#utility.yul\":2364:2719   */\n  swap3\n  swap2\n  pop\n  pop\n  jump\t// out\n    /* \"#utility.yul\":2725:2851   */\ntag_37:\n    /* \"#utility.yul\":2762:2769   */\n  0x00\n    /* \"#utility.yul\":2802:2844   */\n  0xffffffffffffffffffffffffffffffffffffffff\n    /* \"#utility.yul\":2795:2800   */\n  dup3\n    /* \"#utility.yul\":2791:2845   */\n  and\n    /* \"#utility.yul\":2780:2845   */\n  swap1\n  pop\n    /* \"#utility.yul\":2725:2851   */\n  swap2\n  swap1\n  pop\n  jump\t// out\n    /* \"#utility.yul\":2857:2953   */\ntag_38:\n    /* \"#utility.yul\":2894:2901   */\n  0x00\n    /* \"#utility.yul\":2923:2947   */\n  tag_78\n    /* \"#utility.yul\":2941:2946   */\n  dup3\n    /* \"#utility.yul\":2923:2947   */\n  tag_37\n  jump\t// in\ntag_78:\n    /* \"#utility.yul\":2912:2947   */\n  swap1\n  pop\n    /* \"#utility.yul\":2857:2953   */\n  swap2\n  swap1\n  pop\n  jump\t// out\n    /* \"#utility.yul\":2959:3081   */\ntag_39:\n    /* \"#utility.yul\":3032:3056   */\n  tag_80\n    /* \"#utility.yul\":3050:3055   */\n  dup2\n    /* \"#utility.yul\":3032:3056   */\n  tag_38\n  jump\t// in\ntag_80:\n    /* \"#utility.yul\":3025:3030   */\n  dup2\n    /* \"#utility.yul\":3022:3057   */\n  eq\n    /* \"#utility.yul\":3012:3075   */\n  tag_81\n  jumpi\n    /* \"#utility.yul\":3071:3072   */\n  0x00\n    /* \"#utility.yul\":3068:3069   */\n  dup1\n    /* \"#utility.yul\":3061:3073   */\n  revert\n    /* \"#utility.yul\":3012:3075   */\ntag_81:\n    /* \"#utility.yul\":2959:3081   */\n  pop\n  jump\t// out\n    /* \"#utility.yul\":3087:3230   */\ntag_40:\n    /* \"#utility.yul\":3144:3149   */\n  0x00\n    /* \"#utility.yul\":3175:3181   */\n  dup2\n    /* \"#utility.yul\":3169:3182   */\n  mload\n    /* \"#utility.yul\":3160:3182   */\n  swap1\n  pop\n    /* \"#utility.yul\":3191:3224   */\n  tag_83\n    /* \"#utility.yul\":3218:3223   */\n  dup2\n    /* \"#utility.yul\":3191:3224   */\n  tag_39\n  jump\t// in\ntag_83:\n    /* \"#utility.yul\":3087:3230   */\n  swap3\n  swap2\n  pop\n  pop\n  jump\t// out\n    /* \"#utility.yul\":3236:5392   */\ntag_3:\n    /* \"#utility.yul\":3410:3416   */\n  0x00\n    /* \"#utility.yul\":3418:3424   */\n  dup1\n    /* \"#utility.yul\":3426:3432   */\n  0x00\n    /* \"#utility.yul\":3434:3440   */\n  dup1\n    /* \"#utility.yul\":3442:3448   */\n  0x00\n    /* \"#utility.yul\":3450:3456   */\n  dup1\n    /* \"#utility.yul\":3458:3464   */\n  0x00\n    /* \"#utility.yul\":3507:3510   */\n  0xe0\n    /* \"#utility.yul\":3495:3504   */\n  dup9\n    /* \"#utility.yul\":3486:3493   */\n  dup11\n    /* \"#utility.yul\":3482:3505   */\n  sub\n    /* \"#utility.yul\":3478:3511   */\n  slt\n    /* \"#utility.yul\":3475:3595   */\n  iszero\n  tag_85\n  jumpi\n    /* \"#utility.yul\":3514:3593   */\n  tag_86\n  tag_25\n  jump\t// in\ntag_86:\n    /* \"#utility.yul\":3475:3595   */\ntag_85:\n    /* \"#utility.yul\":3655:3656   */\n  0x00\n    /* \"#utility.yul\":3644:3653   */\n  dup9\n    /* \"#utility.yul\":3640:3657   */\n  add\n    /* \"#utility.yul\":3634:3658   */\n  mload\n    /* \"#utility.yul\":3685:3703   */\n  0xffffffffffffffff\n    /* \"#utility.yul\":3677:3683   */\n  dup2\n    /* \"#utility.yul\":3674:3704   */\n  gt\n    /* \"#utility.yul\":3671:3788   */\n  iszero\n  tag_87\n  jumpi\n    /* \"#utility.yul\":3707:3786   */\n  tag_88\n  tag_26\n  jump\t// in\ntag_88:\n    /* \"#utility.yul\":3671:3788   */\ntag_87:\n    /* \"#utility.yul\":3812:3886   */\n  tag_89\n    /* \"#utility.yul\":3878:3885   */\n  dup11\n    /* \"#utility.yul\":3869:3875   */\n  dup3\n    /* \"#utility.yul\":3858:3867   */\n  dup12\n    /* \"#utility.yul\":3854:3876   */\n  add\n    /* \"#utility.yul\":3812:3886   */\n  tag_36\n  jump\t// in\ntag_89:\n    /* \"#utility.yul\":3802:3886   */\n  swap8\n  pop\n    /* \"#utility.yul\":3605:3896   */\n  pop\n    /* \"#utility.yul\":3956:3958   */\n  0x20\n    /* \"#utility.yul\":3945:3954   */\n  dup9\n    /* \"#utility.yul\":3941:3959   */\n  add\n    /* \"#utility.yul\":3935:3960   */\n  mload\n    /* \"#utility.yul\":3987:4005   */\n  0xffffffffffffffff\n    /* \"#utility.yul\":3979:3985   */\n  dup2\n    /* \"#utility.yul\":3976:4006   */\n  gt\n    /* \"#utility.yul\":3973:4090   */\n  iszero\n  tag_90\n  jumpi\n    /* \"#utility.yul\":4009:4088   */\n  tag_91\n  tag_26\n  jump\t// in\ntag_91:\n    /* \"#utility.yul\":3973:4090   */\ntag_90:\n    /* \"#utility.yul\":4114:4188   */\n  tag_92\n    /* \"#utility.yul\":4180:4187   */\n  dup11\n    /* \"#utility.yul\":4171:4177   */\n  dup3\n    /* \"#utility.yul\":4160:4169   */\n  dup12\n    /* \"#utility.yul\":4156:4178   */\n  add\n    /* \"#utility.yul\":4114:4188   */\n  tag_36\n  jump\t// in\ntag_92:\n    /* \"#utility.yul\":4104:4188   */\n  swap7\n  pop\n    /* \"#utility.yul\":3906:4198   */\n  pop\n    /* \"#utility.yul\":4258:4260   */\n  0x40\n    /* \"#utility.yul\":4247:4256   */\n  dup9\n    /* \"#utility.yul\":4243:4261   */\n  add\n    /* \"#utility.yul\":4237:4262   */\n  mload\n    /* \"#utility.yul\":4289:4307   */\n  0xffffffffffffffff\n    /* \"#utility.yul\":4281:4287   */\n  dup2\n    /* \"#utility.yul\":4278:4308   */\n  gt\n    /* \"#utility.yul\":4275:4392   */\n  iszero\n  tag_93\n  jumpi\n    /* \"#utility.yul\":4311:4390   */\n  tag_94\n  tag_26\n  jump\t// in\ntag_94:\n    /* \"#utility.yul\":4275:4392   */\ntag_93:\n    /* \"#utility.yul\":4416:4490   */\n  tag_95\n    /* \"#utility.yul\":4482:4489   */\n  dup11\n    /* \"#utility.yul\":4473:4479   */\n  dup3\n    /* \"#utility.yul\":4462:4471   */\n  dup12\n    /* \"#utility.yul\":4458:4480   */\n  add\n    /* \"#utility.yul\":4416:4490   */\n  tag_36\n  jump\t// in\ntag_95:\n    /* \"#utility.yul\":4406:4490   */\n  swap6\n  pop\n    /* \"#utility.yul\":4208:4500   */\n  pop\n    /* \"#utility.yul\":4560:4562   */\n  0x60\n    /* \"#utility.yul\":4549:4558   */\n  dup9\n    /* \"#utility.yul\":4545:4563   */\n  add\n    /* \"#utility.yul\":4539:4564   */\n  mload\n    /* \"#utility.yul\":4591:4609   */\n  0xffffffffffffffff\n    /* \"#utility.yul\":4583:4589   */\n  dup2\n    /* \"#utility.yul\":4580:4610   */\n  gt\n    /* \"#utility.yul\":4577:4694   */\n  iszero\n  tag_96\n  jumpi\n    /* \"#utility.yul\":4613:4692   */\n  tag_97\n  tag_26\n  jump\t// in\ntag_97:\n    /* \"#utility.yul\":4577:4694   */\ntag_96:\n    /* \"#utility.yul\":4718:4792   */\n  tag_98\n    /* \"#utility.yul\":4784:4791   */\n  dup11\n    /* \"#utility.yul\":4775:4781   */\n  dup3\n    /* \"#utility.yul\":4764:4773   */\n  dup12\n    /* \"#utility.yul\":4760:4782   */\n  add\n    /* \"#utility.yul\":4718:4792   */\n  tag_36\n  jump\t// in\ntag_98:\n    /* \"#utility.yul\":4708:4792   */\n  swap5\n  pop\n    /* \"#utility.yul\":4510:4802   */\n  pop\n    /* \"#utility.yul\":4862:4865   */\n  0x80\n    /* \"#utility.yul\":4851:4860   */\n  dup9\n    /* \"#utility.yul\":4847:4866   */\n  add\n    /* \"#utility.yul\":4841:4867   */\n  mload\n    /* \"#utility.yul\":4894:4912   */\n  0xffffffffffffffff\n    /* \"#utility.yul\":4886:4892   */\n  dup2\n    /* \"#utility.yul\":4883:4913   */\n  gt\n    /* \"#utility.yul\":4880:4997   */\n  iszero\n  tag_99\n  jumpi\n    /* \"#utility.yul\":4916:4995   */\n  tag_100\n  tag_26\n  jump\t// in\ntag_100:\n    /* \"#utility.yul\":4880:4997   */\ntag_99:\n    /* \"#utility.yul\":5021:5095   */\n  tag_101\n    /* \"#utility.yul\":5087:5094   */\n  dup11\n    /* \"#utility.yul\":5078:5084   */\n  dup3\n    /* \"#utility.yul\":5067:5076   */\n  dup12\n    /* \"#utility.yul\":5063:5085   */\n  add\n    /* \"#utility.yul\":5021:5095   */\n  tag_36\n  jump\t// in\ntag_101:\n    /* \"#utility.yul\":5011:5095   */\n  swap4\n  pop\n    /* \"#utility.yul\":4812:5105   */\n  pop\n    /* \"#utility.yul\":5144:5147   */\n  0xa0\n    /* \"#utility.yul\":5171:5235   */\n  tag_102\n    /* \"#utility.yul\":5227:5234   */\n  dup11\n    /* \"#utility.yul\":5218:5224   */\n  dup3\n    /* \"#utility.yul\":5207:5216   */\n  dup12\n    /* \"#utility.yul\":5203:5225   */\n  add\n    /* \"#utility.yul\":5171:5235   */\n  tag_40\n  jump\t// in\ntag_102:\n    /* \"#utility.yul\":5161:5235   */\n  swap3\n  pop\n    /* \"#utility.yul\":5115:5245   */\n  pop\n    /* \"#utility.yul\":5284:5287   */\n  0xc0\n    /* \"#utility.yul\":5311:5375   */\n  tag_103\n    /* \"#utility.yul\":5367:5374   */\n  dup11\n    /* \"#utility.yul\":5358:5364   */\n  dup3\n    /* \"#utility.yul\":5347:5356   */\n  dup12\n    /* \"#utility.yul\":5343:5365   */\n  add\n    /* \"#utility.yul\":5311:5375   */\n  tag_40\n  jump\t// in\ntag_103:\n    /* \"#utility.yul\":5301:5375   */\n  swap2\n  pop\n    /* \"#utility.yul\":5255:5385   */\n  pop\n    /* \"#utility.yul\":3236:5392   */\n  swap3\n  swap6\n  swap9\n  swap2\n  swap5\n  swap8\n  pop\n  swap3\n  swap6\n  pop\n  jump\t// out\n    /* \"#utility.yul\":5398:5578   */\ntag_41:\n    /* \"#utility.yul\":5446:5523   */\n  0x4e487b7100000000000000000000000000000000000000000000000000000000\n    /* \"#utility.yul\":5443:5444   */\n  0x00\n    /* \"#utility.yul\":5436:5524   */\n  mstore\n    /* \"#utility.yul\":5543:5547   */\n  0x22\n    /* \"#utility.yul\":5540:5541   */\n  0x04\n    /* \"#utility.yul\":5533:5548   */\n  mstore\n    /* \"#utility.yul\":5567:5571   */\n  0x24\n    /* \"#utility.yul\":5564:5565   */\n  0x00\n    /* \"#utility.yul\":5557:5572   */\n  revert\n    /* \"#utility.yul\":5584:5904   */\ntag_14:\n    /* \"#utility.yul\":5628:5634   */\n  0x00\n    /* \"#utility.yul\":5665:5666   */\n  0x02\n    /* \"#utility.yul\":5659:5663   */\n  dup3\n    /* \"#utility.yul\":5655:5667   */\n  div\n    /* \"#utility.yul\":5645:5667   */\n  swap1\n  pop\n    /* \"#utility.yul\":5712:5713   */\n  0x01\n    /* \"#utility.yul\":5706:5710   */\n  dup3\n    /* \"#utility.yul\":5702:5714   */\n  and\n    /* \"#utility.yul\":5733:5751   */\n  dup1\n    /* \"#utility.yul\":5723:5804   */\n  tag_106\n  jumpi\n    /* \"#utility.yul\":5789:5793   */\n  0x7f\n    /* \"#utility.yul\":5781:5787   */\n  dup3\n    /* \"#utility.yul\":5777:5794   */\n  and\n    /* \"#utility.yul\":5767:5794   */\n  swap2\n  pop\n    /* \"#utility.yul\":5723:5804   */\ntag_106:\n    /* \"#utility.yul\":5851:5853   */\n  0x20\n    /* \"#utility.yul\":5843:5849   */\n  dup3\n    /* \"#utility.yul\":5840:5854   */\n  lt\n    /* \"#utility.yul\":5820:5838   */\n  dup2\n    /* \"#utility.yul\":5817:5855   */\n  eq\n    /* \"#utility.yul\":5814:5898   */\n  iszero\n  tag_107\n  jumpi\n    /* \"#utility.yul\":5870:5888   */\n  tag_108\n  tag_41\n  jump\t// in\ntag_108:\n    /* \"#utility.yul\":5814:5898   */\ntag_107:\n    /* \"#utility.yul\":5635:5904   */\n  pop\n    /* \"#utility.yul\":5584:5904   */\n  swap2\n  swap1\n  pop\n  jump\t// out\n    /* \"CharityDAO.sol\":1803:8040  contract User {... */\ntag_12:\n  dataSize(sub_0)\n  dup1\n  dataOffset(sub_0)\n  0x00\n  codecopy\n  0x00\n  return\nstop\n\nsub_0: assembly {\n        /* \"CharityDAO.sol\":1803:8040  contract User {... */\n      mstore(0x40, 0x80)\n      callvalue\n      dup1\n      iszero\n      tag_1\n      jumpi\n      0x00\n      dup1\n      revert\n    tag_1:\n      pop\n      jumpi(tag_2, lt(calldatasize, 0x04))\n      shr(0xe0, calldataload(0x00))\n      dup1\n      0x9284f497\n      gt\n      tag_25\n      jumpi\n      dup1\n      0xc9031934\n      gt\n      tag_26\n      jumpi\n      dup1\n      0xc9031934\n      eq\n      tag_19\n      jumpi\n      dup1\n      0xd6e3ee6b\n      eq\n      tag_20\n      jumpi\n      dup1\n      0xe4128fb3\n      eq\n      tag_21\n      jumpi\n      dup1\n      0xee4e1b53\n      eq\n      tag_22\n      jumpi\n      dup1\n      0xf04693d4\n      eq\n      tag_23\n      jumpi\n      dup1\n      0xfb6ff96e\n      eq\n      tag_24\n      jumpi\n      jump(tag_2)\n    tag_26:\n      dup1\n      0x9284f497\n      eq\n      tag_14\n      jumpi\n      dup1\n      0x948c158c\n      eq\n      tag_15\n      jumpi\n      dup1\n      0x9fe7717d\n      eq\n      tag_16\n      jumpi\n      dup1\n      0xb8159a1f\n      eq\n      tag_17\n      jumpi\n      dup1\n      0xc2c706b0\n      eq\n      tag_18\n      jumpi\n      jump(tag_2)\n    tag_25:\n      dup1\n      0x28f371aa\n      gt\n      tag_27\n      jumpi\n      dup1\n      0x28f371aa\n      eq\n      tag_8\n      jumpi\n      dup1\n      0x4a57e1c9\n      eq\n      tag_9\n      jumpi\n      dup1\n      0x6c39bda3\n      eq\n      tag_10\n      jumpi\n      dup1\n      0x7284e416\n      eq\n      tag_11\n      jumpi\n      dup1\n      0x8129dfc9\n      eq\n      tag_12\n      jumpi\n      dup1\n      0x820e93f5\n      eq\n      tag_13\n      jumpi\n      jump(tag_2)\n    tag_27:\n      dup1\n      0x034d09da\n      eq\n      tag_3\n      jumpi\n      dup1\n      0x06fdde03\n      eq\n      tag_4\n      jumpi\n      dup1\n      0x141961bc\n      eq\n      tag_5\n      jumpi\n      dup1\n      0x17bbb931\n      eq\n      tag_6\n      jumpi\n      dup1\n      0x28d0c494\n      eq\n      tag_7\n      jumpi\n    tag_2:\n      0x00\n      dup1\n      revert\n        /* \"CharityDAO.sol\":6092:6856  function rejectCampaign(uint campaignIndex) public {... */\n    tag_3:\n      tag_28\n      0x04\n      dup1\n      calldatasize\n      sub\n      dup2\n      add\n      swap1\n      tag_29\n      swap2\n      swap1\n      tag_30\n      jump\t// in\n    tag_29:\n      tag_31\n      jump\t// in\n    tag_28:\n      stop\n        /* \"CharityDAO.sol\":1826:1844  string public name */\n    tag_4:\n      tag_32\n      tag_33\n      jump\t// in\n    tag_32:\n      mload(0x40)\n      tag_34\n      swap2\n      swap1\n      tag_35\n      jump\t// in\n    tag_34:\n      mload(0x40)\n      dup1\n      swap2\n      sub\n      swap1\n      return\n        /* \"CharityDAO.sol\":2788:2830  mapping(uint => Campaign) public campaigns */\n    tag_5:\n      tag_36\n      0x04\n      dup1\n      calldatasize\n      sub\n      dup2\n      add\n      swap1\n      tag_37\n      swap2\n      swap1\n      tag_30\n      jump\t// in\n    tag_37:\n      tag_38\n      jump\t// in\n    tag_36:\n      mload(0x40)\n      tag_39\n      swap13\n      swap12\n      swap11\n      swap10\n      swap9\n      swap8\n      swap7\n      swap6\n      swap5\n      swap4\n      swap3\n      swap2\n      swap1\n      tag_40\n      jump\t// in\n    tag_39:\n      mload(0x40)\n      dup1\n      swap2\n      sub\n      swap1\n      return\n        /* \"CharityDAO.sol\":1968:1997  string public locationAddress */\n    tag_6:\n      tag_41\n      tag_42\n      jump\t// in\n    tag_41:\n      mload(0x40)\n      tag_43\n      swap2\n      swap1\n      tag_35\n      jump\t// in\n    tag_43:\n      mload(0x40)\n      dup1\n      swap2\n      sub\n      swap1\n      return\n        /* \"CharityDAO.sol\":3866:4326  function rejectUser() public {... */\n    tag_7:\n      tag_44\n      tag_45\n      jump\t// in\n    tag_44:\n      stop\n        /* \"CharityDAO.sol\":2065:2087  bool public isApproved */\n    tag_8:\n      tag_46\n      tag_47\n      jump\t// in\n    tag_46:\n      mload(0x40)\n      tag_48\n      swap2\n      swap1\n      tag_49\n      jump\t// in\n    tag_48:\n      mload(0x40)\n      dup1\n      swap2\n      sub\n      swap1\n      return\n        /* \"CharityDAO.sol\":7603:8035  function finalizeTransaction(uint campaignIndex) public {... */\n    tag_9:\n      tag_50\n      0x04\n      dup1\n      calldatasize\n      sub\n      dup2\n      add\n      swap1\n      tag_51\n      swap2\n      swap1\n      tag_30\n      jump\t// in\n    tag_51:\n      tag_52\n      jump\t// in\n    tag_50:\n      stop\n        /* \"CharityDAO.sol\":4338:5309  function createCampaign(string memory _title, string memory _description, string memory _recipientName, string memory _recipientPhone, string memory _recipientEmail, ... */\n    tag_10:\n      tag_53\n      0x04\n      dup1\n      calldatasize\n      sub\n      dup2\n      add\n      swap1\n      tag_54\n      swap2\n      swap1\n      tag_55\n      jump\t// in\n    tag_54:\n      tag_56\n      jump\t// in\n    tag_53:\n      stop\n        /* \"CharityDAO.sol\":1851:1876  string public description */\n    tag_11:\n      tag_57\n      tag_58\n      jump\t// in\n    tag_57:\n      mload(0x40)\n      tag_59\n      swap2\n      swap1\n      tag_35\n      jump\t// in\n    tag_59:\n      mload(0x40)\n      dup1\n      swap2\n      sub\n      swap1\n      return\n        /* \"CharityDAO.sol\":2758:2781  uint public numCampaign */\n    tag_12:\n      tag_60\n      tag_61\n      jump\t// in\n    tag_60:\n      mload(0x40)\n      tag_62\n      swap2\n      swap1\n      tag_63\n      jump\t// in\n    tag_62:\n      mload(0x40)\n      dup1\n      swap2\n      sub\n      swap1\n      return\n        /* \"CharityDAO.sol\":1942:1961  string public email */\n    tag_13:\n      tag_64\n      tag_65\n      jump\t// in\n    tag_64:\n      mload(0x40)\n      tag_66\n      swap2\n      swap1\n      tag_35\n      jump\t// in\n    tag_66:\n      mload(0x40)\n      dup1\n      swap2\n      sub\n      swap1\n      return\n        /* \"CharityDAO.sol\":1916:1935  string public phone */\n    tag_14:\n      tag_67\n      tag_68\n      jump\t// in\n    tag_67:\n      mload(0x40)\n      tag_69\n      swap2\n      swap1\n      tag_35\n      jump\t// in\n    tag_69:\n      mload(0x40)\n      dup1\n      swap2\n      sub\n      swap1\n      return\n        /* \"CharityDAO.sol\":6864:7225  function getMemberApprovalStatus(uint campaignIndex) public view returns(bool){... */\n    tag_15:\n      tag_70\n      0x04\n      dup1\n      calldatasize\n      sub\n      dup2\n      add\n      swap1\n      tag_71\n      swap2\n      swap1\n      tag_30\n      jump\t// in\n    tag_71:\n      tag_72\n      jump\t// in\n    tag_70:\n      mload(0x40)\n      tag_73\n      swap2\n      swap1\n      tag_49\n      jump\t// in\n    tag_73:\n      mload(0x40)\n      dup1\n      swap2\n      sub\n      swap1\n      return\n        /* \"CharityDAO.sol\":2004:2028  uint public approveCount */\n    tag_16:\n      tag_74\n      tag_75\n      jump\t// in\n    tag_74:\n      mload(0x40)\n      tag_76\n      swap2\n      swap1\n      tag_63\n      jump\t// in\n    tag_76:\n      mload(0x40)\n      dup1\n      swap2\n      sub\n      swap1\n      return\n        /* \"CharityDAO.sol\":7233:7595  function getMemberRejectionStatus(uint campaignIndex) public view returns(bool){... */\n    tag_17:\n      tag_77\n      0x04\n      dup1\n      calldatasize\n      sub\n      dup2\n      add\n      swap1\n      tag_78\n      swap2\n      swap1\n      tag_30\n      jump\t// in\n    tag_78:\n      tag_79\n      jump\t// in\n    tag_77:\n      mload(0x40)\n      tag_80\n      swap2\n      swap1\n      tag_49\n      jump\t// in\n    tag_80:\n      mload(0x40)\n      dup1\n      swap2\n      sub\n      swap1\n      return\n        /* \"CharityDAO.sol\":2094:2116  bool public isRejected */\n    tag_18:\n      tag_81\n      tag_82\n      jump\t// in\n    tag_81:\n      mload(0x40)\n      tag_83\n      swap2\n      swap1\n      tag_49\n      jump\t// in\n    tag_83:\n      mload(0x40)\n      dup1\n      swap2\n      sub\n      swap1\n      return\n        /* \"CharityDAO.sol\":2123:2170  mapping(address => bool) public approvedMembers */\n    tag_19:\n      tag_84\n      0x04\n      dup1\n      calldatasize\n      sub\n      dup2\n      add\n      swap1\n      tag_85\n      swap2\n      swap1\n      tag_86\n      jump\t// in\n    tag_85:\n      tag_87\n      jump\t// in\n    tag_84:\n      mload(0x40)\n      tag_88\n      swap2\n      swap1\n      tag_49\n      jump\t// in\n    tag_88:\n      mload(0x40)\n      dup1\n      swap2\n      sub\n      swap1\n      return\n        /* \"CharityDAO.sol\":2177:2224  mapping(address => bool) public rejectedMembers */\n    tag_20:\n      tag_89\n      0x04\n      dup1\n      calldatasize\n      sub\n      dup2\n      add\n      swap1\n      tag_90\n      swap2\n      swap1\n      tag_86\n      jump\t// in\n    tag_90:\n      tag_91\n      jump\t// in\n    tag_89:\n      mload(0x40)\n      tag_92\n      swap2\n      swap1\n      tag_49\n      jump\t// in\n    tag_92:\n      mload(0x40)\n      dup1\n      swap2\n      sub\n      swap1\n      return\n        /* \"CharityDAO.sol\":1883:1909  address public userAddress */\n    tag_21:\n      tag_93\n      tag_94\n      jump\t// in\n    tag_93:\n      mload(0x40)\n      tag_95\n      swap2\n      swap1\n      tag_96\n      jump\t// in\n    tag_95:\n      mload(0x40)\n      dup1\n      swap2\n      sub\n      swap1\n      return\n        /* \"CharityDAO.sol\":5317:6084  function approveCampaign(uint campaignIndex) public {... */\n    tag_22:\n      tag_97\n      0x04\n      dup1\n      calldatasize\n      sub\n      dup2\n      add\n      swap1\n      tag_98\n      swap2\n      swap1\n      tag_30\n      jump\t// in\n    tag_98:\n      tag_99\n      jump\t// in\n    tag_97:\n      stop\n        /* \"CharityDAO.sol\":3395:3858  function approveUser() public {... */\n    tag_23:\n      tag_100\n      tag_101\n      jump\t// in\n    tag_100:\n      stop\n        /* \"CharityDAO.sol\":2035:2058  uint public rejectCount */\n    tag_24:\n      tag_102\n      tag_103\n      jump\t// in\n    tag_102:\n      mload(0x40)\n      tag_104\n      swap2\n      swap1\n      tag_63\n      jump\t// in\n    tag_104:\n      mload(0x40)\n      dup1\n      swap2\n      sub\n      swap1\n      return\n        /* \"CharityDAO.sol\":6092:6856  function rejectCampaign(uint campaignIndex) public {... */\n    tag_31:\n        /* \"CharityDAO.sol\":6154:6166  DAO instance */\n      0x00\n        /* \"CharityDAO.sol\":6173:6183  DAOAddress */\n      0x0b\n      0x00\n      swap1\n      sload\n      swap1\n      0x0100\n      exp\n      swap1\n      div\n      0xffffffffffffffffffffffffffffffffffffffff\n      and\n        /* \"CharityDAO.sol\":6154:6184  DAO instance = DAO(DAOAddress) */\n      swap1\n      pop\n        /* \"CharityDAO.sol\":6203:6211  instance */\n      dup1\n        /* \"CharityDAO.sol\":6203:6221  instance.isAMember */\n      0xffffffffffffffffffffffffffffffffffffffff\n      and\n      0x5d672a62\n        /* \"CharityDAO.sol\":6222:6232  msg.sender */\n      caller\n        /* \"CharityDAO.sol\":6203:6233  instance.isAMember(msg.sender) */\n      mload(0x40)\n      dup3\n      0xffffffff\n      and\n      0xe0\n      shl\n      dup2\n      mstore\n      0x04\n      add\n      tag_106\n      swap2\n      swap1\n      tag_96\n      jump\t// in\n    tag_106:\n      0x20\n      mload(0x40)\n      dup1\n      dup4\n      sub\n      dup2\n      dup7\n      dup1\n      extcodesize\n      iszero\n      dup1\n      iszero\n      tag_107\n      jumpi\n      0x00\n      dup1\n      revert\n    tag_107:\n      pop\n      gas\n      staticcall\n      iszero\n      dup1\n      iszero\n      tag_109\n      jumpi\n      returndatasize\n      0x00\n      dup1\n      returndatacopy\n      revert(0x00, returndatasize)\n    tag_109:\n      pop\n      pop\n      pop\n      pop\n      mload(0x40)\n      returndatasize\n      not(0x1f)\n      0x1f\n      dup3\n      add\n      and\n      dup3\n      add\n      dup1\n      0x40\n      mstore\n      pop\n      dup2\n      add\n      swap1\n      tag_110\n      swap2\n      swap1\n      tag_111\n      jump\t// in\n    tag_110:\n        /* \"CharityDAO.sol\":6195:6234  require(instance.isAMember(msg.sender)) */\n      tag_112\n      jumpi\n      0x00\n      dup1\n      revert\n    tag_112:\n        /* \"CharityDAO.sol\":6254:6262  instance */\n      dup1\n        /* \"CharityDAO.sol\":6254:6270  instance.isAUser */\n      0xffffffffffffffffffffffffffffffffffffffff\n      and\n      0x018f5472\n        /* \"CharityDAO.sol\":6271:6281  msg.sender */\n      caller\n        /* \"CharityDAO.sol\":6254:6282  instance.isAUser(msg.sender) */\n      mload(0x40)\n      dup3\n      0xffffffff\n      and\n      0xe0\n      shl\n      dup2\n      mstore\n      0x04\n      add\n      tag_113\n      swap2\n      swap1\n      tag_96\n      jump\t// in\n    tag_113:\n      0x20\n      mload(0x40)\n      dup1\n      dup4\n      sub\n      dup2\n      dup7\n      dup1\n      extcodesize\n      iszero\n      dup1\n      iszero\n      tag_114\n      jumpi\n      0x00\n      dup1\n      revert\n    tag_114:\n      pop\n      gas\n      staticcall\n      iszero\n      dup1\n      iszero\n      tag_116\n      jumpi\n      returndatasize\n      0x00\n      dup1\n      returndatacopy\n      revert(0x00, returndatasize)\n    tag_116:\n      pop\n      pop\n      pop\n      pop\n      mload(0x40)\n      returndatasize\n      not(0x1f)\n      0x1f\n      dup3\n      add\n      and\n      dup3\n      add\n      dup1\n      0x40\n      mstore\n      pop\n      dup2\n      add\n      swap1\n      tag_117\n      swap2\n      swap1\n      tag_111\n      jump\t// in\n    tag_117:\n        /* \"CharityDAO.sol\":6253:6282  !instance.isAUser(msg.sender) */\n      iszero\n        /* \"CharityDAO.sol\":6245:6283  require(!instance.isAUser(msg.sender)) */\n      tag_118\n      jumpi\n      0x00\n      dup1\n      revert\n    tag_118:\n        /* \"CharityDAO.sol\":6303:6312  campaigns */\n      0x0d\n        /* \"CharityDAO.sol\":6303:6327  campaigns[campaignIndex] */\n      0x00\n        /* \"CharityDAO.sol\":6313:6326  campaignIndex */\n      dup4\n        /* \"CharityDAO.sol\":6303:6327  campaigns[campaignIndex] */\n      dup2\n      mstore\n      0x20\n      add\n      swap1\n      dup2\n      mstore\n      0x20\n      add\n      0x00\n      keccak256\n        /* \"CharityDAO.sol\":6303:6351  campaigns[campaignIndex].campaignApprovedMembers */\n      0x0a\n      add\n        /* \"CharityDAO.sol\":6303:6363  campaigns[campaignIndex].campaignApprovedMembers[msg.sender] */\n      0x00\n        /* \"CharityDAO.sol\":6352:6362  msg.sender */\n      caller\n        /* \"CharityDAO.sol\":6303:6363  campaigns[campaignIndex].campaignApprovedMembers[msg.sender] */\n      0xffffffffffffffffffffffffffffffffffffffff\n      and\n      0xffffffffffffffffffffffffffffffffffffffff\n      and\n      dup2\n      mstore\n      0x20\n      add\n      swap1\n      dup2\n      mstore\n      0x20\n      add\n      0x00\n      keccak256\n      0x00\n      swap1\n      sload\n      swap1\n      0x0100\n      exp\n      swap1\n      div\n      0xff\n      and\n        /* \"CharityDAO.sol\":6302:6363  !campaigns[campaignIndex].campaignApprovedMembers[msg.sender] */\n      iszero\n        /* \"CharityDAO.sol\":6294:6364  require(!campaigns[campaignIndex].campaignApprovedMembers[msg.sender]) */\n      tag_119\n      jumpi\n      0x00\n      dup1\n      revert\n    tag_119:\n        /* \"CharityDAO.sol\":6384:6393  campaigns */\n      0x0d\n        /* \"CharityDAO.sol\":6384:6408  campaigns[campaignIndex] */\n      0x00\n        /* \"CharityDAO.sol\":6394:6407  campaignIndex */\n      dup4\n        /* \"CharityDAO.sol\":6384:6408  campaigns[campaignIndex] */\n      dup2\n      mstore\n      0x20\n      add\n      swap1\n      dup2\n      mstore\n      0x20\n      add\n      0x00\n      keccak256\n        /* \"CharityDAO.sol\":6384:6432  campaigns[campaignIndex].campaignRejectedMembers */\n      0x0b\n      add\n        /* \"CharityDAO.sol\":6384:6444  campaigns[campaignIndex].campaignRejectedMembers[msg.sender] */\n      0x00\n        /* \"CharityDAO.sol\":6433:6443  msg.sender */\n      caller\n        /* \"CharityDAO.sol\":6384:6444  campaigns[campaignIndex].campaignRejectedMembers[msg.sender] */\n      0xffffffffffffffffffffffffffffffffffffffff\n      and\n      0xffffffffffffffffffffffffffffffffffffffff\n      and\n      dup2\n      mstore\n      0x20\n      add\n      swap1\n      dup2\n      mstore\n      0x20\n      add\n      0x00\n      keccak256\n      0x00\n      swap1\n      sload\n      swap1\n      0x0100\n      exp\n      swap1\n      div\n      0xff\n      and\n        /* \"CharityDAO.sol\":6383:6444  !campaigns[campaignIndex].campaignRejectedMembers[msg.sender] */\n      iszero\n        /* \"CharityDAO.sol\":6375:6445  require(!campaigns[campaignIndex].campaignRejectedMembers[msg.sender]) */\n      tag_120\n      jumpi\n      0x00\n      dup1\n      revert\n    tag_120:\n        /* \"CharityDAO.sol\":6465:6474  campaigns */\n      0x0d\n        /* \"CharityDAO.sol\":6465:6489  campaigns[campaignIndex] */\n      0x00\n        /* \"CharityDAO.sol\":6475:6488  campaignIndex */\n      dup4\n        /* \"CharityDAO.sol\":6465:6489  campaigns[campaignIndex] */\n      dup2\n      mstore\n      0x20\n      add\n      swap1\n      dup2\n      mstore\n      0x20\n      add\n      0x00\n      keccak256\n        /* \"CharityDAO.sol\":6465:6500  campaigns[campaignIndex].isApproved */\n      0x09\n      add\n      0x00\n      swap1\n      sload\n      swap1\n      0x0100\n      exp\n      swap1\n      div\n      0xff\n      and\n        /* \"CharityDAO.sol\":6464:6500  !campaigns[campaignIndex].isApproved */\n      iszero\n        /* \"CharityDAO.sol\":6456:6501  require(!campaigns[campaignIndex].isApproved) */\n      tag_121\n      jumpi\n      0x00\n      dup1\n      revert\n    tag_121:\n        /* \"CharityDAO.sol\":6521:6530  campaigns */\n      0x0d\n        /* \"CharityDAO.sol\":6521:6545  campaigns[campaignIndex] */\n      0x00\n        /* \"CharityDAO.sol\":6531:6544  campaignIndex */\n      dup4\n        /* \"CharityDAO.sol\":6521:6545  campaigns[campaignIndex] */\n      dup2\n      mstore\n      0x20\n      add\n      swap1\n      dup2\n      mstore\n      0x20\n      add\n      0x00\n      keccak256\n        /* \"CharityDAO.sol\":6521:6556  campaigns[campaignIndex].isRejected */\n      0x09\n      add\n      0x01\n      swap1\n      sload\n      swap1\n      0x0100\n      exp\n      swap1\n      div\n      0xff\n      and\n        /* \"CharityDAO.sol\":6520:6556  !campaigns[campaignIndex].isRejected */\n      iszero\n        /* \"CharityDAO.sol\":6512:6557  require(!campaigns[campaignIndex].isRejected) */\n      tag_122\n      jumpi\n      0x00\n      dup1\n      revert\n    tag_122:\n        /* \"CharityDAO.sol\":6570:6579  campaigns */\n      0x0d\n        /* \"CharityDAO.sol\":6570:6594  campaigns[campaignIndex] */\n      0x00\n        /* \"CharityDAO.sol\":6580:6593  campaignIndex */\n      dup4\n        /* \"CharityDAO.sol\":6570:6594  campaigns[campaignIndex] */\n      dup2\n      mstore\n      0x20\n      add\n      swap1\n      dup2\n      mstore\n      0x20\n      add\n      0x00\n      keccak256\n        /* \"CharityDAO.sol\":6570:6606  campaigns[campaignIndex].rejectCount */\n      0x08\n      add\n      0x00\n        /* \"CharityDAO.sol\":6570:6608  campaigns[campaignIndex].rejectCount++ */\n      dup2\n      sload\n      dup1\n      swap3\n      swap2\n      swap1\n      tag_123\n      swap1\n      tag_124\n      jump\t// in\n    tag_123:\n      swap2\n      swap1\n      pop\n      sstore\n      pop\n        /* \"CharityDAO.sol\":6682:6686  true */\n      0x01\n        /* \"CharityDAO.sol\":6619:6628  campaigns */\n      0x0d\n        /* \"CharityDAO.sol\":6619:6643  campaigns[campaignIndex] */\n      0x00\n        /* \"CharityDAO.sol\":6629:6642  campaignIndex */\n      dup5\n        /* \"CharityDAO.sol\":6619:6643  campaigns[campaignIndex] */\n      dup2\n      mstore\n      0x20\n      add\n      swap1\n      dup2\n      mstore\n      0x20\n      add\n      0x00\n      keccak256\n        /* \"CharityDAO.sol\":6619:6667  campaigns[campaignIndex].campaignRejectedMembers */\n      0x0b\n      add\n        /* \"CharityDAO.sol\":6619:6679  campaigns[campaignIndex].campaignRejectedMembers[msg.sender] */\n      0x00\n        /* \"CharityDAO.sol\":6668:6678  msg.sender */\n      caller\n        /* \"CharityDAO.sol\":6619:6679  campaigns[campaignIndex].campaignRejectedMembers[msg.sender] */\n      0xffffffffffffffffffffffffffffffffffffffff\n      and\n      0xffffffffffffffffffffffffffffffffffffffff\n      and\n      dup2\n      mstore\n      0x20\n      add\n      swap1\n      dup2\n      mstore\n      0x20\n      add\n      0x00\n      keccak256\n      0x00\n        /* \"CharityDAO.sol\":6619:6686  campaigns[campaignIndex].campaignRejectedMembers[msg.sender] = true */\n      0x0100\n      exp\n      dup2\n      sload\n      dup2\n      0xff\n      mul\n      not\n      and\n      swap1\n      dup4\n      iszero\n      iszero\n      mul\n      or\n      swap1\n      sstore\n      pop\n        /* \"CharityDAO.sol\":6776:6777  2 */\n      0x02\n        /* \"CharityDAO.sol\":6750:6758  instance */\n      dup2\n        /* \"CharityDAO.sol\":6750:6773  instance.getMemberCount */\n      0xffffffffffffffffffffffffffffffffffffffff\n      and\n      0x997072f7\n        /* \"CharityDAO.sol\":6750:6775  instance.getMemberCount() */\n      mload(0x40)\n      dup2\n      0xffffffff\n      and\n      0xe0\n      shl\n      dup2\n      mstore\n      0x04\n      add\n      0x20\n      mload(0x40)\n      dup1\n      dup4\n      sub\n      dup2\n      dup7\n      dup1\n      extcodesize\n      iszero\n      dup1\n      iszero\n      tag_125\n      jumpi\n      0x00\n      dup1\n      revert\n    tag_125:\n      pop\n      gas\n      staticcall\n      iszero\n      dup1\n      iszero\n      tag_127\n      jumpi\n      returndatasize\n      0x00\n      dup1\n      returndatacopy\n      revert(0x00, returndatasize)\n    tag_127:\n      pop\n      pop\n      pop\n      pop\n      mload(0x40)\n      returndatasize\n      not(0x1f)\n      0x1f\n      dup3\n      add\n      and\n      dup3\n      add\n      dup1\n      0x40\n      mstore\n      pop\n      dup2\n      add\n      swap1\n      tag_128\n      swap2\n      swap1\n      tag_129\n      jump\t// in\n    tag_128:\n        /* \"CharityDAO.sol\":6750:6777  instance.getMemberCount()/2 */\n      tag_130\n      swap2\n      swap1\n      tag_131\n      jump\t// in\n    tag_130:\n        /* \"CharityDAO.sol\":6710:6719  campaigns */\n      0x0d\n        /* \"CharityDAO.sol\":6710:6734  campaigns[campaignIndex] */\n      0x00\n        /* \"CharityDAO.sol\":6720:6733  campaignIndex */\n      dup5\n        /* \"CharityDAO.sol\":6710:6734  campaigns[campaignIndex] */\n      dup2\n      mstore\n      0x20\n      add\n      swap1\n      dup2\n      mstore\n      0x20\n      add\n      0x00\n      keccak256\n        /* \"CharityDAO.sol\":6710:6746  campaigns[campaignIndex].rejectCount */\n      0x08\n      add\n      sload\n        /* \"CharityDAO.sol\":6710:6778  campaigns[campaignIndex].rejectCount > (instance.getMemberCount()/2) */\n      gt\n        /* \"CharityDAO.sol\":6707:6849  if(campaigns[campaignIndex].rejectCount > (instance.getMemberCount()/2)) {... */\n      iszero\n      tag_132\n      jumpi\n        /* \"CharityDAO.sol\":6833:6837  true */\n      0x01\n        /* \"CharityDAO.sol\":6795:6804  campaigns */\n      0x0d\n        /* \"CharityDAO.sol\":6795:6819  campaigns[campaignIndex] */\n      0x00\n        /* \"CharityDAO.sol\":6805:6818  campaignIndex */\n      dup5\n        /* \"CharityDAO.sol\":6795:6819  campaigns[campaignIndex] */\n      dup2\n      mstore\n      0x20\n      add\n      swap1\n      dup2\n      mstore\n      0x20\n      add\n      0x00\n      keccak256\n        /* \"CharityDAO.sol\":6795:6830  campaigns[campaignIndex].isRejected */\n      0x09\n      add\n      0x01\n        /* \"CharityDAO.sol\":6795:6837  campaigns[campaignIndex].isRejected = true */\n      0x0100\n      exp\n      dup2\n      sload\n      dup2\n      0xff\n      mul\n      not\n      and\n      swap1\n      dup4\n      iszero\n      iszero\n      mul\n      or\n      swap1\n      sstore\n      pop\n        /* \"CharityDAO.sol\":6707:6849  if(campaigns[campaignIndex].rejectCount > (instance.getMemberCount()/2)) {... */\n    tag_132:\n        /* \"CharityDAO.sol\":6143:6856  {... */\n      pop\n        /* \"CharityDAO.sol\":6092:6856  function rejectCampaign(uint campaignIndex) public {... */\n      pop\n      jump\t// out\n        /* \"CharityDAO.sol\":1826:1844  string public name */\n    tag_33:\n      0x00\n      dup1\n      sload\n      tag_133\n      swap1\n      tag_134\n      jump\t// in\n    tag_133:\n      dup1\n      0x1f\n      add\n      0x20\n      dup1\n      swap2\n      div\n      mul\n      0x20\n      add\n      mload(0x40)\n      swap1\n      dup2\n      add\n      0x40\n      mstore\n      dup1\n      swap3\n      swap2\n      swap1\n      dup2\n      dup2\n      mstore\n      0x20\n      add\n      dup3\n      dup1\n      sload\n      tag_135\n      swap1\n      tag_134\n      jump\t// in\n    tag_135:\n      dup1\n      iszero\n      tag_136\n      jumpi\n      dup1\n      0x1f\n      lt\n      tag_137\n      jumpi\n      0x0100\n      dup1\n      dup4\n      sload\n      div\n      mul\n      dup4\n      mstore\n      swap2\n      0x20\n      add\n      swap2\n      jump(tag_136)\n    tag_137:\n      dup3\n      add\n      swap2\n      swap1\n      0x00\n      mstore\n      keccak256(0x00, 0x20)\n      swap1\n    tag_138:\n      dup2\n      sload\n      dup2\n      mstore\n      swap1\n      0x01\n      add\n      swap1\n      0x20\n      add\n      dup1\n      dup4\n      gt\n      tag_138\n      jumpi\n      dup3\n      swap1\n      sub\n      0x1f\n      and\n      dup3\n      add\n      swap2\n    tag_136:\n      pop\n      pop\n      pop\n      pop\n      pop\n      dup2\n      jump\t// out\n        /* \"CharityDAO.sol\":2788:2830  mapping(uint => Campaign) public campaigns */\n    tag_38:\n      mstore(0x20, 0x0d)\n      dup1\n      0x00\n      mstore\n      keccak256(0x00, 0x40)\n      0x00\n      swap2\n      pop\n      swap1\n      pop\n      dup1\n      0x00\n      add\n      dup1\n      sload\n      tag_139\n      swap1\n      tag_134\n      jump\t// in\n    tag_139:\n      dup1\n      0x1f\n      add\n      0x20\n      dup1\n      swap2\n      div\n      mul\n      0x20\n      add\n      mload(0x40)\n      swap1\n      dup2\n      add\n      0x40\n      mstore\n      dup1\n      swap3\n      swap2\n      swap1\n      dup2\n      dup2\n      mstore\n      0x20\n      add\n      dup3\n      dup1\n      sload\n      tag_140\n      swap1\n      tag_134\n      jump\t// in\n    tag_140:\n      dup1\n      iszero\n      tag_141\n      jumpi\n      dup1\n      0x1f\n      lt\n      tag_142\n      jumpi\n      0x0100\n      dup1\n      dup4\n      sload\n      div\n      mul\n      dup4\n      mstore\n      swap2\n      0x20\n      add\n      swap2\n      jump(tag_141)\n    tag_142:\n      dup3\n      add\n      swap2\n      swap1\n      0x00\n      mstore\n      keccak256(0x00, 0x20)\n      swap1\n    tag_143:\n      dup2\n      sload\n      dup2\n      mstore\n      swap1\n      0x01\n      add\n      swap1\n      0x20\n      add\n      dup1\n      dup4\n      gt\n      tag_143\n      jumpi\n      dup3\n      swap1\n      sub\n      0x1f\n      and\n      dup3\n      add\n      swap2\n    tag_141:\n      pop\n      pop\n      pop\n      pop\n      pop\n      swap1\n      dup1\n      0x01\n      add\n      dup1\n      sload\n      tag_144\n      swap1\n      tag_134\n      jump\t// in\n    tag_144:\n      dup1\n      0x1f\n      add\n      0x20\n      dup1\n      swap2\n      div\n      mul\n      0x20\n      add\n      mload(0x40)\n      swap1\n      dup2\n      add\n      0x40\n      mstore\n      dup1\n      swap3\n      swap2\n      swap1\n      dup2\n      dup2\n      mstore\n      0x20\n      add\n      dup3\n      dup1\n      sload\n      tag_145\n      swap1\n      tag_134\n      jump\t// in\n    tag_145:\n      dup1\n      iszero\n      tag_146\n      jumpi\n      dup1\n      0x1f\n      lt\n      tag_147\n      jumpi\n      0x0100\n      dup1\n      dup4\n      sload\n      div\n      mul\n      dup4\n      mstore\n      swap2\n      0x20\n      add\n      swap2\n      jump(tag_146)\n    tag_147:\n      dup3\n      add\n      swap2\n      swap1\n      0x00\n      mstore\n      keccak256(0x00, 0x20)\n      swap1\n    tag_148:\n      dup2\n      sload\n      dup2\n      mstore\n      swap1\n      0x01\n      add\n      swap1\n      0x20\n      add\n      dup1\n      dup4\n      gt\n      tag_148\n      jumpi\n      dup3\n      swap1\n      sub\n      0x1f\n      and\n      dup3\n      add\n      swap2\n    tag_146:\n      pop\n      pop\n      pop\n      pop\n      pop\n      swap1\n      dup1\n      0x02\n      add\n      dup1\n      sload\n      tag_149\n      swap1\n      tag_134\n      jump\t// in\n    tag_149:\n      dup1\n      0x1f\n      add\n      0x20\n      dup1\n      swap2\n      div\n      mul\n      0x20\n      add\n      mload(0x40)\n      swap1\n      dup2\n      add\n      0x40\n      mstore\n      dup1\n      swap3\n      swap2\n      swap1\n      dup2\n      dup2\n      mstore\n      0x20\n      add\n      dup3\n      dup1\n      sload\n      tag_150\n      swap1\n      tag_134\n      jump\t// in\n    tag_150:\n      dup1\n      iszero\n      tag_151\n      jumpi\n      dup1\n      0x1f\n      lt\n      tag_152\n      jumpi\n      0x0100\n      dup1\n      dup4\n      sload\n      div\n      mul\n      dup4\n      mstore\n      swap2\n      0x20\n      add\n      swap2\n      jump(tag_151)\n    tag_152:\n      dup3\n      add\n      swap2\n      swap1\n      0x00\n      mstore\n      keccak256(0x00, 0x20)\n      swap1\n    tag_153:\n      dup2\n      sload\n      dup2\n      mstore\n      swap1\n      0x01\n      add\n      swap1\n      0x20\n      add\n      dup1\n      dup4\n      gt\n      tag_153\n      jumpi\n      dup3\n      swap1\n      sub\n      0x1f\n      and\n      dup3\n      add\n      swap2\n    tag_151:\n      pop\n      pop\n      pop\n      pop\n      pop\n      swap1\n      dup1\n      0x03\n      add\n      dup1\n      sload\n      tag_154\n      swap1\n      tag_134\n      jump\t// in\n    tag_154:\n      dup1\n      0x1f\n      add\n      0x20\n      dup1\n      swap2\n      div\n      mul\n      0x20\n      add\n      mload(0x40)\n      swap1\n      dup2\n      add\n      0x40\n      mstore\n      dup1\n      swap3\n      swap2\n      swap1\n      dup2\n      dup2\n      mstore\n      0x20\n      add\n      dup3\n      dup1\n      sload\n      tag_155\n      swap1\n      tag_134\n      jump\t// in\n    tag_155:\n      dup1\n      iszero\n      tag_156\n      jumpi\n      dup1\n      0x1f\n      lt\n      tag_157\n      jumpi\n      0x0100\n      dup1\n      dup4\n      sload\n      div\n      mul\n      dup4\n      mstore\n      swap2\n      0x20\n      add\n      swap2\n      jump(tag_156)\n    tag_157:\n      dup3\n      add\n      swap2\n      swap1\n      0x00\n      mstore\n      keccak256(0x00, 0x20)\n      swap1\n    tag_158:\n      dup2\n      sload\n      dup2\n      mstore\n      swap1\n      0x01\n      add\n      swap1\n      0x20\n      add\n      dup1\n      dup4\n      gt\n      tag_158\n      jumpi\n      dup3\n      swap1\n      sub\n      0x1f\n      and\n      dup3\n      add\n      swap2\n    tag_156:\n      pop\n      pop\n      pop\n      pop\n      pop\n      swap1\n      dup1\n      0x04\n      add\n      dup1\n      sload\n      tag_159\n      swap1\n      tag_134\n      jump\t// in\n    tag_159:\n      dup1\n      0x1f\n      add\n      0x20\n      dup1\n      swap2\n      div\n      mul\n      0x20\n      add\n      mload(0x40)\n      swap1\n      dup2\n      add\n      0x40\n      mstore\n      dup1\n      swap3\n      swap2\n      swap1\n      dup2\n      dup2\n      mstore\n      0x20\n      add\n      dup3\n      dup1\n      sload\n      tag_160\n      swap1\n      tag_134\n      jump\t// in\n    tag_160:\n      dup1\n      iszero\n      tag_161\n      jumpi\n      dup1\n      0x1f\n      lt\n      tag_162\n      jumpi\n      0x0100\n      dup1\n      dup4\n      sload\n      div\n      mul\n      dup4\n      mstore\n      swap2\n      0x20\n      add\n      swap2\n      jump(tag_161)\n    tag_162:\n      dup3\n      add\n      swap2\n      swap1\n      0x00\n      mstore\n      keccak256(0x00, 0x20)\n      swap1\n    tag_163:\n      dup2\n      sload\n      dup2\n      mstore\n      swap1\n      0x01\n      add\n      swap1\n      0x20\n      add\n      dup1\n      dup4\n      gt\n      tag_163\n      jumpi\n      dup3\n      swap1\n      sub\n      0x1f\n      and\n      dup3\n      add\n      swap2\n    tag_161:\n      pop\n      pop\n      pop\n      pop\n      pop\n      swap1\n      dup1\n      0x05\n      add\n      0x00\n      swap1\n      sload\n      swap1\n      0x0100\n      exp\n      swap1\n      div\n      0xffffffffffffffffffffffffffffffffffffffff\n      and\n      swap1\n      dup1\n      0x05\n      add\n      0x14\n      swap1\n      sload\n      swap1\n      0x0100\n      exp\n      swap1\n      div\n      0xff\n      and\n      swap1\n      dup1\n      0x06\n      add\n      sload\n      swap1\n      dup1\n      0x07\n      add\n      sload\n      swap1\n      dup1\n      0x08\n      add\n      sload\n      swap1\n      dup1\n      0x09\n      add\n      0x00\n      swap1\n      sload\n      swap1\n      0x0100\n      exp\n      swap1\n      div\n      0xff\n      and\n      swap1\n      dup1\n      0x09\n      add\n      0x01\n      swap1\n      sload\n      swap1\n      0x0100\n      exp\n      swap1\n      div\n      0xff\n      and\n      swap1\n      pop\n      dup13\n      jump\t// out\n        /* \"CharityDAO.sol\":1968:1997  string public locationAddress */\n    tag_42:\n      0x05\n      dup1\n      sload\n      tag_164\n      swap1\n      tag_134\n      jump\t// in\n    tag_164:\n      dup1\n      0x1f\n      add\n      0x20\n      dup1\n      swap2\n      div\n      mul\n      0x20\n      add\n      mload(0x40)\n      swap1\n      dup2\n      add\n      0x40\n      mstore\n      dup1\n      swap3\n      swap2\n      swap1\n      dup2\n      dup2\n      mstore\n      0x20\n      add\n      dup3\n      dup1\n      sload\n      tag_165\n      swap1\n      tag_134\n      jump\t// in\n    tag_165:\n      dup1\n      iszero\n      tag_166\n      jumpi\n      dup1\n      0x1f\n      lt\n      tag_167\n      jumpi\n      0x0100\n      dup1\n      dup4\n      sload\n      div\n      mul\n      dup4\n      mstore\n      swap2\n      0x20\n      add\n      swap2\n      jump(tag_166)\n    tag_167:\n      dup3\n      add\n      swap2\n      swap1\n      0x00\n      mstore\n      keccak256(0x00, 0x20)\n      swap1\n    tag_168:\n      dup2\n      sload\n      dup2\n      mstore\n      swap1\n      0x01\n      add\n      swap1\n      0x20\n      add\n      dup1\n      dup4\n      gt\n      tag_168\n      jumpi\n      dup3\n      swap1\n      sub\n      0x1f\n      and\n      dup3\n      add\n      swap2\n    tag_166:\n      pop\n      pop\n      pop\n      pop\n      pop\n      dup2\n      jump\t// out\n        /* \"CharityDAO.sol\":3866:4326  function rejectUser() public {... */\n    tag_45:\n        /* \"CharityDAO.sol\":3906:3918  DAO instance */\n      0x00\n        /* \"CharityDAO.sol\":3925:3935  DAOAddress */\n      0x0b\n      0x00\n      swap1\n      sload\n      swap1\n      0x0100\n      exp\n      swap1\n      div\n      0xffffffffffffffffffffffffffffffffffffffff\n      and\n        /* \"CharityDAO.sol\":3906:3936  DAO instance = DAO(DAOAddress) */\n      swap1\n      pop\n        /* \"CharityDAO.sol\":3955:3963  instance */\n      dup1\n        /* \"CharityDAO.sol\":3955:3973  instance.isAMember */\n      0xffffffffffffffffffffffffffffffffffffffff\n      and\n      0x5d672a62\n        /* \"CharityDAO.sol\":3974:3984  msg.sender */\n      caller\n        /* \"CharityDAO.sol\":3955:3985  instance.isAMember(msg.sender) */\n      mload(0x40)\n      dup3\n      0xffffffff\n      and\n      0xe0\n      shl\n      dup2\n      mstore\n      0x04\n      add\n      tag_170\n      swap2\n      swap1\n      tag_96\n      jump\t// in\n    tag_170:\n      0x20\n      mload(0x40)\n      dup1\n      dup4\n      sub\n      dup2\n      dup7\n      dup1\n      extcodesize\n      iszero\n      dup1\n      iszero\n      tag_171\n      jumpi\n      0x00\n      dup1\n      revert\n    tag_171:\n      pop\n      gas\n      staticcall\n      iszero\n      dup1\n      iszero\n      tag_173\n      jumpi\n      returndatasize\n      0x00\n      dup1\n      returndatacopy\n      revert(0x00, returndatasize)\n    tag_173:\n      pop\n      pop\n      pop\n      pop\n      mload(0x40)\n      returndatasize\n      not(0x1f)\n      0x1f\n      dup3\n      add\n      and\n      dup3\n      add\n      dup1\n      0x40\n      mstore\n      pop\n      dup2\n      add\n      swap1\n      tag_174\n      swap2\n      swap1\n      tag_111\n      jump\t// in\n    tag_174:\n        /* \"CharityDAO.sol\":3947:3986  require(instance.isAMember(msg.sender)) */\n      tag_175\n      jumpi\n      0x00\n      dup1\n      revert\n    tag_175:\n        /* \"CharityDAO.sol\":4006:4021  approvedMembers */\n      0x09\n        /* \"CharityDAO.sol\":4006:4033  approvedMembers[msg.sender] */\n      0x00\n        /* \"CharityDAO.sol\":4022:4032  msg.sender */\n      caller\n        /* \"CharityDAO.sol\":4006:4033  approvedMembers[msg.sender] */\n      0xffffffffffffffffffffffffffffffffffffffff\n      and\n      0xffffffffffffffffffffffffffffffffffffffff\n      and\n      dup2\n      mstore\n      0x20\n      add\n      swap1\n      dup2\n      mstore\n      0x20\n      add\n      0x00\n      keccak256\n      0x00\n      swap1\n      sload\n      swap1\n      0x0100\n      exp\n      swap1\n      div\n      0xff\n      and\n        /* \"CharityDAO.sol\":4005:4033  !approvedMembers[msg.sender] */\n      iszero\n        /* \"CharityDAO.sol\":3997:4034  require(!approvedMembers[msg.sender]) */\n      tag_176\n      jumpi\n      0x00\n      dup1\n      revert\n    tag_176:\n        /* \"CharityDAO.sol\":4054:4069  rejectedMembers */\n      0x0a\n        /* \"CharityDAO.sol\":4054:4081  rejectedMembers[msg.sender] */\n      0x00\n        /* \"CharityDAO.sol\":4070:4080  msg.sender */\n      caller\n        /* \"CharityDAO.sol\":4054:4081  rejectedMembers[msg.sender] */\n      0xffffffffffffffffffffffffffffffffffffffff\n      and\n      0xffffffffffffffffffffffffffffffffffffffff\n      and\n      dup2\n      mstore\n      0x20\n      add\n      swap1\n      dup2\n      mstore\n      0x20\n      add\n      0x00\n      keccak256\n      0x00\n      swap1\n      sload\n      swap1\n      0x0100\n      exp\n      swap1\n      div\n      0xff\n      and\n        /* \"CharityDAO.sol\":4053:4081  !rejectedMembers[msg.sender] */\n      iszero\n        /* \"CharityDAO.sol\":4045:4082  require(!rejectedMembers[msg.sender]) */\n      tag_177\n      jumpi\n      0x00\n      dup1\n      revert\n    tag_177:\n        /* \"CharityDAO.sol\":4102:4112  isApproved */\n      0x08\n      0x00\n      swap1\n      sload\n      swap1\n      0x0100\n      exp\n      swap1\n      div\n      0xff\n      and\n        /* \"CharityDAO.sol\":4101:4112  !isApproved */\n      iszero\n        /* \"CharityDAO.sol\":4093:4113  require(!isApproved) */\n      tag_178\n      jumpi\n      0x00\n      dup1\n      revert\n    tag_178:\n        /* \"CharityDAO.sol\":4133:4143  isRejected */\n      0x08\n      0x01\n      swap1\n      sload\n      swap1\n      0x0100\n      exp\n      swap1\n      div\n      0xff\n      and\n        /* \"CharityDAO.sol\":4132:4143  !isRejected */\n      iszero\n        /* \"CharityDAO.sol\":4124:4144  require(!isRejected) */\n      tag_179\n      jumpi\n      0x00\n      dup1\n      revert\n    tag_179:\n        /* \"CharityDAO.sol\":4185:4189  true */\n      0x01\n        /* \"CharityDAO.sol\":4155:4170  rejectedMembers */\n      0x0a\n        /* \"CharityDAO.sol\":4155:4182  rejectedMembers[msg.sender] */\n      0x00\n        /* \"CharityDAO.sol\":4171:4181  msg.sender */\n      caller\n        /* \"CharityDAO.sol\":4155:4182  rejectedMembers[msg.sender] */\n      0xffffffffffffffffffffffffffffffffffffffff\n      and\n      0xffffffffffffffffffffffffffffffffffffffff\n      and\n      dup2\n      mstore\n      0x20\n      add\n      swap1\n      dup2\n      mstore\n      0x20\n      add\n      0x00\n      keccak256\n      0x00\n        /* \"CharityDAO.sol\":4155:4189  rejectedMembers[msg.sender] = true */\n      0x0100\n      exp\n      dup2\n      sload\n      dup2\n      0xff\n      mul\n      not\n      and\n      swap1\n      dup4\n      iszero\n      iszero\n      mul\n      or\n      swap1\n      sstore\n      pop\n        /* \"CharityDAO.sol\":4200:4211  rejectCount */\n      0x07\n      0x00\n        /* \"CharityDAO.sol\":4200:4213  rejectCount++ */\n      dup2\n      sload\n      dup1\n      swap3\n      swap2\n      swap1\n      tag_180\n      swap1\n      tag_124\n      jump\t// in\n    tag_180:\n      swap2\n      swap1\n      pop\n      sstore\n      pop\n        /* \"CharityDAO.sol\":4272:4273  2 */\n      0x02\n        /* \"CharityDAO.sol\":4244:4252  instance */\n      dup2\n        /* \"CharityDAO.sol\":4244:4267  instance.getMemberCount */\n      0xffffffffffffffffffffffffffffffffffffffff\n      and\n      0x997072f7\n        /* \"CharityDAO.sol\":4244:4269  instance.getMemberCount() */\n      mload(0x40)\n      dup2\n      0xffffffff\n      and\n      0xe0\n      shl\n      dup2\n      mstore\n      0x04\n      add\n      0x20\n      mload(0x40)\n      dup1\n      dup4\n      sub\n      dup2\n      dup7\n      dup1\n      extcodesize\n      iszero\n      dup1\n      iszero\n      tag_181\n      jumpi\n      0x00\n      dup1\n      revert\n    tag_181:\n      pop\n      gas\n      staticcall\n      iszero\n      dup1\n      iszero\n      tag_183\n      jumpi\n      returndatasize\n      0x00\n      dup1\n      returndatacopy\n      revert(0x00, returndatasize)\n    tag_183:\n      pop\n      pop\n      pop\n      pop\n      mload(0x40)\n      returndatasize\n      not(0x1f)\n      0x1f\n      dup3\n      add\n      and\n      dup3\n      add\n      dup1\n      0x40\n      mstore\n      pop\n      dup2\n      add\n      swap1\n      tag_184\n      swap2\n      swap1\n      tag_129\n      jump\t// in\n    tag_184:\n        /* \"CharityDAO.sol\":4244:4273  instance.getMemberCount() / 2 */\n      tag_185\n      swap2\n      swap1\n      tag_131\n      jump\t// in\n    tag_185:\n        /* \"CharityDAO.sol\":4229:4240  rejectCount */\n      sload(0x07)\n        /* \"CharityDAO.sol\":4229:4274  rejectCount > (instance.getMemberCount() / 2) */\n      gt\n        /* \"CharityDAO.sol\":4226:4319  if(rejectCount > (instance.getMemberCount() / 2)){... */\n      iszero\n      tag_186\n      jumpi\n        /* \"CharityDAO.sol\":4303:4307  true */\n      0x01\n        /* \"CharityDAO.sol\":4290:4300  isRejected */\n      0x08\n      0x01\n        /* \"CharityDAO.sol\":4290:4307  isRejected = true */\n      0x0100\n      exp\n      dup2\n      sload\n      dup2\n      0xff\n      mul\n      not\n      and\n      swap1\n      dup4\n      iszero\n      iszero\n      mul\n      or\n      swap1\n      sstore\n      pop\n        /* \"CharityDAO.sol\":4226:4319  if(rejectCount > (instance.getMemberCount() / 2)){... */\n    tag_186:\n        /* \"CharityDAO.sol\":3895:4326  {... */\n      pop\n        /* \"CharityDAO.sol\":3866:4326  function rejectUser() public {... */\n      jump\t// out\n        /* \"CharityDAO.sol\":2065:2087  bool public isApproved */\n    tag_47:\n      0x08\n      0x00\n      swap1\n      sload\n      swap1\n      0x0100\n      exp\n      swap1\n      div\n      0xff\n      and\n      dup2\n      jump\t// out\n        /* \"CharityDAO.sol\":7603:8035  function finalizeTransaction(uint campaignIndex) public {... */\n    tag_52:\n        /* \"CharityDAO.sol\":7670:7682  DAO instance */\n      0x00\n        /* \"CharityDAO.sol\":7689:7699  DAOAddress */\n      0x0b\n      0x00\n      swap1\n      sload\n      swap1\n      0x0100\n      exp\n      swap1\n      div\n      0xffffffffffffffffffffffffffffffffffffffff\n      and\n        /* \"CharityDAO.sol\":7670:7700  DAO instance = DAO(DAOAddress) */\n      swap1\n      pop\n        /* \"CharityDAO.sol\":7719:7727  instance */\n      dup1\n        /* \"CharityDAO.sol\":7719:7735  instance.isAUser */\n      0xffffffffffffffffffffffffffffffffffffffff\n      and\n      0x018f5472\n        /* \"CharityDAO.sol\":7736:7746  msg.sender */\n      caller\n        /* \"CharityDAO.sol\":7719:7747  instance.isAUser(msg.sender) */\n      mload(0x40)\n      dup3\n      0xffffffff\n      and\n      0xe0\n      shl\n      dup2\n      mstore\n      0x04\n      add\n      tag_188\n      swap2\n      swap1\n      tag_96\n      jump\t// in\n    tag_188:\n      0x20\n      mload(0x40)\n      dup1\n      dup4\n      sub\n      dup2\n      dup7\n      dup1\n      extcodesize\n      iszero\n      dup1\n      iszero\n      tag_189\n      jumpi\n      0x00\n      dup1\n      revert\n    tag_189:\n      pop\n      gas\n      staticcall\n      iszero\n      dup1\n      iszero\n      tag_191\n      jumpi\n      returndatasize\n      0x00\n      dup1\n      returndatacopy\n      revert(0x00, returndatasize)\n    tag_191:\n      pop\n      pop\n      pop\n      pop\n      mload(0x40)\n      returndatasize\n      not(0x1f)\n      0x1f\n      dup3\n      add\n      and\n      dup3\n      add\n      dup1\n      0x40\n      mstore\n      pop\n      dup2\n      add\n      swap1\n      tag_192\n      swap2\n      swap1\n      tag_111\n      jump\t// in\n    tag_192:\n        /* \"CharityDAO.sol\":7711:7748  require(instance.isAUser(msg.sender)) */\n      tag_193\n      jumpi\n      0x00\n      dup1\n      revert\n    tag_193:\n        /* \"CharityDAO.sol\":7768:7776  instance */\n      dup1\n        /* \"CharityDAO.sol\":7768:7786  instance.isAMember */\n      0xffffffffffffffffffffffffffffffffffffffff\n      and\n      0x5d672a62\n        /* \"CharityDAO.sol\":7787:7797  msg.sender */\n      caller\n        /* \"CharityDAO.sol\":7768:7798  instance.isAMember(msg.sender) */\n      mload(0x40)\n      dup3\n      0xffffffff\n      and\n      0xe0\n      shl\n      dup2\n      mstore\n      0x04\n      add\n      tag_194\n      swap2\n      swap1\n      tag_96\n      jump\t// in\n    tag_194:\n      0x20\n      mload(0x40)\n      dup1\n      dup4\n      sub\n      dup2\n      dup7\n      dup1\n      extcodesize\n      iszero\n      dup1\n      iszero\n      tag_195\n      jumpi\n      0x00\n      dup1\n      revert\n    tag_195:\n      pop\n      gas\n      staticcall\n      iszero\n      dup1\n      iszero\n      tag_197\n      jumpi\n      returndatasize\n      0x00\n      dup1\n      returndatacopy\n      revert(0x00, returndatasize)\n    tag_197:\n      pop\n      pop\n      pop\n      pop\n      mload(0x40)\n      returndatasize\n      not(0x1f)\n      0x1f\n      dup3\n      add\n      and\n      dup3\n      add\n      dup1\n      0x40\n      mstore\n      pop\n      dup2\n      add\n      swap1\n      tag_198\n      swap2\n      swap1\n      tag_111\n      jump\t// in\n    tag_198:\n        /* \"CharityDAO.sol\":7767:7798  !instance.isAMember(msg.sender) */\n      iszero\n        /* \"CharityDAO.sol\":7759:7799  require(!instance.isAMember(msg.sender)) */\n      tag_199\n      jumpi\n      0x00\n      dup1\n      revert\n    tag_199:\n        /* \"CharityDAO.sol\":7818:7827  campaigns */\n      0x0d\n        /* \"CharityDAO.sol\":7818:7842  campaigns[campaignIndex] */\n      0x00\n        /* \"CharityDAO.sol\":7828:7841  campaignIndex */\n      dup4\n        /* \"CharityDAO.sol\":7818:7842  campaigns[campaignIndex] */\n      dup2\n      mstore\n      0x20\n      add\n      swap1\n      dup2\n      mstore\n      0x20\n      add\n      0x00\n      keccak256\n        /* \"CharityDAO.sol\":7818:7853  campaigns[campaignIndex].isApproved */\n      0x09\n      add\n      0x00\n      swap1\n      sload\n      swap1\n      0x0100\n      exp\n      swap1\n      div\n      0xff\n      and\n        /* \"CharityDAO.sol\":7810:7854  require(campaigns[campaignIndex].isApproved) */\n      tag_200\n      jumpi\n      0x00\n      dup1\n      revert\n    tag_200:\n        /* \"CharityDAO.sol\":7865:7890  Campaign storage campaign */\n      0x00\n        /* \"CharityDAO.sol\":7893:7902  campaigns */\n      0x0d\n        /* \"CharityDAO.sol\":7893:7917  campaigns[campaignIndex] */\n      0x00\n        /* \"CharityDAO.sol\":7903:7916  campaignIndex */\n      dup5\n        /* \"CharityDAO.sol\":7893:7917  campaigns[campaignIndex] */\n      dup2\n      mstore\n      0x20\n      add\n      swap1\n      dup2\n      mstore\n      0x20\n      add\n      0x00\n      keccak256\n        /* \"CharityDAO.sol\":7865:7917  Campaign storage campaign = campaigns[campaignIndex] */\n      swap1\n      pop\n        /* \"CharityDAO.sol\":7928:7936  instance */\n      dup2\n        /* \"CharityDAO.sol\":7928:7945  instance.transact */\n      0xffffffffffffffffffffffffffffffffffffffff\n      and\n      0xf77ac668\n        /* \"CharityDAO.sol\":7946:7954  campaign */\n      dup3\n        /* \"CharityDAO.sol\":7946:7964  campaign.recipient */\n      0x05\n      add\n      0x00\n      swap1\n      sload\n      swap1\n      0x0100\n      exp\n      swap1\n      div\n      0xffffffffffffffffffffffffffffffffffffffff\n      and\n        /* \"CharityDAO.sol\":7966:7974  campaign */\n      dup4\n        /* \"CharityDAO.sol\":7966:7980  campaign.value */\n      0x06\n      add\n      sload\n        /* \"CharityDAO.sol\":7928:7981  instance.transact(campaign.recipient, campaign.value) */\n      mload(0x40)\n      dup4\n      0xffffffff\n      and\n      0xe0\n      shl\n      dup2\n      mstore\n      0x04\n      add\n      tag_201\n      swap3\n      swap2\n      swap1\n      tag_202\n      jump\t// in\n    tag_201:\n      0x00\n      mload(0x40)\n      dup1\n      dup4\n      sub\n      dup2\n      0x00\n      dup8\n      dup1\n      extcodesize\n      iszero\n      dup1\n      iszero\n      tag_203\n      jumpi\n      0x00\n      dup1\n      revert\n    tag_203:\n      pop\n      gas\n      call\n      iszero\n      dup1\n      iszero\n      tag_205\n      jumpi\n      returndatasize\n      0x00\n      dup1\n      returndatacopy\n      revert(0x00, returndatasize)\n    tag_205:\n      pop\n      pop\n      pop\n      pop\n        /* \"CharityDAO.sol\":8023:8027  true */\n      0x01\n        /* \"CharityDAO.sol\":7992:8000  campaign */\n      dup2\n        /* \"CharityDAO.sol\":7992:8020  campaign.transactionComplete */\n      0x05\n      add\n      0x14\n        /* \"CharityDAO.sol\":7992:8027  campaign.transactionComplete = true */\n      0x0100\n      exp\n      dup2\n      sload\n      dup2\n      0xff\n      mul\n      not\n      and\n      swap1\n      dup4\n      iszero\n      iszero\n      mul\n      or\n      swap1\n      sstore\n      pop\n        /* \"CharityDAO.sol\":7659:8035  {... */\n      pop\n      pop\n        /* \"CharityDAO.sol\":7603:8035  function finalizeTransaction(uint campaignIndex) public {... */\n      pop\n      jump\t// out\n        /* \"CharityDAO.sol\":4338:5309  function createCampaign(string memory _title, string memory _description, string memory _recipientName, string memory _recipientPhone, string memory _recipientEmail, ... */\n    tag_56:\n        /* \"CharityDAO.sol\":4569:4581  DAO instance */\n      0x00\n        /* \"CharityDAO.sol\":4588:4598  DAOAddress */\n      0x0b\n      0x00\n      swap1\n      sload\n      swap1\n      0x0100\n      exp\n      swap1\n      div\n      0xffffffffffffffffffffffffffffffffffffffff\n      and\n        /* \"CharityDAO.sol\":4569:4599  DAO instance = DAO(DAOAddress) */\n      swap1\n      pop\n        /* \"CharityDAO.sol\":4618:4626  instance */\n      dup1\n        /* \"CharityDAO.sol\":4618:4634  instance.isAUser */\n      0xffffffffffffffffffffffffffffffffffffffff\n      and\n      0x018f5472\n        /* \"CharityDAO.sol\":4635:4645  msg.sender */\n      caller\n        /* \"CharityDAO.sol\":4618:4646  instance.isAUser(msg.sender) */\n      mload(0x40)\n      dup3\n      0xffffffff\n      and\n      0xe0\n      shl\n      dup2\n      mstore\n      0x04\n      add\n      tag_207\n      swap2\n      swap1\n      tag_96\n      jump\t// in\n    tag_207:\n      0x20\n      mload(0x40)\n      dup1\n      dup4\n      sub\n      dup2\n      dup7\n      dup1\n      extcodesize\n      iszero\n      dup1\n      iszero\n      tag_208\n      jumpi\n      0x00\n      dup1\n      revert\n    tag_208:\n      pop\n      gas\n      staticcall\n      iszero\n      dup1\n      iszero\n      tag_210\n      jumpi\n      returndatasize\n      0x00\n      dup1\n      returndatacopy\n      revert(0x00, returndatasize)\n    tag_210:\n      pop\n      pop\n      pop\n      pop\n      mload(0x40)\n      returndatasize\n      not(0x1f)\n      0x1f\n      dup3\n      add\n      and\n      dup3\n      add\n      dup1\n      0x40\n      mstore\n      pop\n      dup2\n      add\n      swap1\n      tag_211\n      swap2\n      swap1\n      tag_111\n      jump\t// in\n    tag_211:\n        /* \"CharityDAO.sol\":4610:4647  require(instance.isAUser(msg.sender)) */\n      tag_212\n      jumpi\n      0x00\n      dup1\n      revert\n    tag_212:\n        /* \"CharityDAO.sol\":4667:4675  instance */\n      dup1\n        /* \"CharityDAO.sol\":4667:4685  instance.isAMember */\n      0xffffffffffffffffffffffffffffffffffffffff\n      and\n      0x5d672a62\n        /* \"CharityDAO.sol\":4686:4696  msg.sender */\n      caller\n        /* \"CharityDAO.sol\":4667:4697  instance.isAMember(msg.sender) */\n      mload(0x40)\n      dup3\n      0xffffffff\n      and\n      0xe0\n      shl\n      dup2\n      mstore\n      0x04\n      add\n      tag_213\n      swap2\n      swap1\n      tag_96\n      jump\t// in\n    tag_213:\n      0x20\n      mload(0x40)\n      dup1\n      dup4\n      sub\n      dup2\n      dup7\n      dup1\n      extcodesize\n      iszero\n      dup1\n      iszero\n      tag_214\n      jumpi\n      0x00\n      dup1\n      revert\n    tag_214:\n      pop\n      gas\n      staticcall\n      iszero\n      dup1\n      iszero\n      tag_216\n      jumpi\n      returndatasize\n      0x00\n      dup1\n      returndatacopy\n      revert(0x00, returndatasize)\n    tag_216:\n      pop\n      pop\n      pop\n      pop\n      mload(0x40)\n      returndatasize\n      not(0x1f)\n      0x1f\n      dup3\n      add\n      and\n      dup3\n      add\n      dup1\n      0x40\n      mstore\n      pop\n      dup2\n      add\n      swap1\n      tag_217\n      swap2\n      swap1\n      tag_111\n      jump\t// in\n    tag_217:\n        /* \"CharityDAO.sol\":4666:4697  !instance.isAMember(msg.sender) */\n      iszero\n        /* \"CharityDAO.sol\":4658:4698  require(!instance.isAMember(msg.sender)) */\n      tag_218\n      jumpi\n      0x00\n      dup1\n      revert\n    tag_218:\n        /* \"CharityDAO.sol\":4717:4727  isApproved */\n      0x08\n      0x00\n      swap1\n      sload\n      swap1\n      0x0100\n      exp\n      swap1\n      div\n      0xff\n      and\n        /* \"CharityDAO.sol\":4717:4742  isApproved && !isRejected */\n      dup1\n      iszero\n      tag_219\n      jumpi\n      pop\n        /* \"CharityDAO.sol\":4732:4742  isRejected */\n      0x08\n      0x01\n      swap1\n      sload\n      swap1\n      0x0100\n      exp\n      swap1\n      div\n      0xff\n      and\n        /* \"CharityDAO.sol\":4731:4742  !isRejected */\n      iszero\n        /* \"CharityDAO.sol\":4717:4742  isApproved && !isRejected */\n    tag_219:\n        /* \"CharityDAO.sol\":4709:4743  require(isApproved && !isRejected) */\n      tag_220\n      jumpi\n      0x00\n      dup1\n      revert\n    tag_220:\n        /* \"CharityDAO.sol\":4756:4784  Campaign storage newCampaign */\n      0x00\n        /* \"CharityDAO.sol\":4787:4796  campaigns */\n      0x0d\n        /* \"CharityDAO.sol\":4787:4811  campaigns[numCampaign++] */\n      0x00\n        /* \"CharityDAO.sol\":4797:4808  numCampaign */\n      0x0c\n      0x00\n        /* \"CharityDAO.sol\":4797:4810  numCampaign++ */\n      dup2\n      sload\n      dup1\n      swap3\n      swap2\n      swap1\n      tag_221\n      swap1\n      tag_124\n      jump\t// in\n    tag_221:\n      swap2\n      swap1\n      pop\n      sstore\n        /* \"CharityDAO.sol\":4787:4811  campaigns[numCampaign++] */\n      dup2\n      mstore\n      0x20\n      add\n      swap1\n      dup2\n      mstore\n      0x20\n      add\n      0x00\n      keccak256\n        /* \"CharityDAO.sol\":4756:4811  Campaign storage newCampaign = campaigns[numCampaign++] */\n      swap1\n      pop\n        /* \"CharityDAO.sol\":4842:4848  _title */\n      dup9\n        /* \"CharityDAO.sol\":4822:4833  newCampaign */\n      dup2\n        /* \"CharityDAO.sol\":4822:4839  newCampaign.title */\n      0x00\n      add\n        /* \"CharityDAO.sol\":4822:4848  newCampaign.title = _title */\n      swap1\n      dup1\n      mload\n      swap1\n      0x20\n      add\n      swap1\n      tag_222\n      swap3\n      swap2\n      swap1\n      tag_223\n      jump\t// in\n    tag_222:\n      pop\n        /* \"CharityDAO.sol\":4885:4897  _description */\n      dup8\n        /* \"CharityDAO.sol\":4859:4870  newCampaign */\n      dup2\n        /* \"CharityDAO.sol\":4859:4882  newCampaign.description */\n      0x01\n      add\n        /* \"CharityDAO.sol\":4859:4897  newCampaign.description = _description */\n      swap1\n      dup1\n      mload\n      swap1\n      0x20\n      add\n      swap1\n      tag_224\n      swap3\n      swap2\n      swap1\n      tag_223\n      jump\t// in\n    tag_224:\n      pop\n        /* \"CharityDAO.sol\":4936:4950  _recipientName */\n      dup7\n        /* \"CharityDAO.sol\":4908:4919  newCampaign */\n      dup2\n        /* \"CharityDAO.sol\":4908:4933  newCampaign.recipientName */\n      0x02\n      add\n        /* \"CharityDAO.sol\":4908:4950  newCampaign.recipientName = _recipientName */\n      swap1\n      dup1\n      mload\n      swap1\n      0x20\n      add\n      swap1\n      tag_225\n      swap3\n      swap2\n      swap1\n      tag_223\n      jump\t// in\n    tag_225:\n      pop\n        /* \"CharityDAO.sol\":4990:5005  _recipientPhone */\n      dup6\n        /* \"CharityDAO.sol\":4961:4972  newCampaign */\n      dup2\n        /* \"CharityDAO.sol\":4961:4987  newCampaign.recipientPhone */\n      0x03\n      add\n        /* \"CharityDAO.sol\":4961:5005  newCampaign.recipientPhone = _recipientPhone */\n      swap1\n      dup1\n      mload\n      swap1\n      0x20\n      add\n      swap1\n      tag_226\n      swap3\n      swap2\n      swap1\n      tag_223\n      jump\t// in\n    tag_226:\n      pop\n        /* \"CharityDAO.sol\":5045:5060  _recipientEmail */\n      dup5\n        /* \"CharityDAO.sol\":5016:5027  newCampaign */\n      dup2\n        /* \"CharityDAO.sol\":5016:5042  newCampaign.recipientEmail */\n      0x04\n      add\n        /* \"CharityDAO.sol\":5016:5060  newCampaign.recipientEmail = _recipientEmail */\n      swap1\n      dup1\n      mload\n      swap1\n      0x20\n      add\n      swap1\n      tag_227\n      swap3\n      swap2\n      swap1\n      tag_223\n      jump\t// in\n    tag_227:\n      pop\n        /* \"CharityDAO.sol\":5095:5105  _recipient */\n      dup4\n        /* \"CharityDAO.sol\":5071:5082  newCampaign */\n      dup2\n        /* \"CharityDAO.sol\":5071:5092  newCampaign.recipient */\n      0x05\n      add\n      0x00\n        /* \"CharityDAO.sol\":5071:5105  newCampaign.recipient = _recipient */\n      0x0100\n      exp\n      dup2\n      sload\n      dup2\n      0xffffffffffffffffffffffffffffffffffffffff\n      mul\n      not\n      and\n      swap1\n      dup4\n      0xffffffffffffffffffffffffffffffffffffffff\n      and\n      mul\n      or\n      swap1\n      sstore\n      pop\n        /* \"CharityDAO.sol\":5136:5142  _value */\n      dup3\n        /* \"CharityDAO.sol\":5116:5127  newCampaign */\n      dup2\n        /* \"CharityDAO.sol\":5116:5133  newCampaign.value */\n      0x06\n      add\n        /* \"CharityDAO.sol\":5116:5142  newCampaign.value = _value */\n      dup2\n      swap1\n      sstore\n      pop\n        /* \"CharityDAO.sol\":5180:5181  0 */\n      0x00\n        /* \"CharityDAO.sol\":5153:5164  newCampaign */\n      dup2\n        /* \"CharityDAO.sol\":5153:5177  newCampaign.approveCount */\n      0x07\n      add\n        /* \"CharityDAO.sol\":5153:5181  newCampaign.approveCount = 0 */\n      dup2\n      swap1\n      sstore\n      pop\n        /* \"CharityDAO.sol\":5218:5219  0 */\n      0x00\n        /* \"CharityDAO.sol\":5192:5203  newCampaign */\n      dup2\n        /* \"CharityDAO.sol\":5192:5215  newCampaign.rejectCount */\n      0x08\n      add\n        /* \"CharityDAO.sol\":5192:5219  newCampaign.rejectCount = 0 */\n      dup2\n      swap1\n      sstore\n      pop\n        /* \"CharityDAO.sol\":5255:5260  false */\n      0x00\n        /* \"CharityDAO.sol\":5230:5241  newCampaign */\n      dup2\n        /* \"CharityDAO.sol\":5230:5252  newCampaign.isApproved */\n      0x09\n      add\n      0x00\n        /* \"CharityDAO.sol\":5230:5260  newCampaign.isApproved = false */\n      0x0100\n      exp\n      dup2\n      sload\n      dup2\n      0xff\n      mul\n      not\n      and\n      swap1\n      dup4\n      iszero\n      iszero\n      mul\n      or\n      swap1\n      sstore\n      pop\n        /* \"CharityDAO.sol\":5296:5301  false */\n      0x00\n        /* \"CharityDAO.sol\":5271:5282  newCampaign */\n      dup2\n        /* \"CharityDAO.sol\":5271:5293  newCampaign.isRejected */\n      0x09\n      add\n      0x01\n        /* \"CharityDAO.sol\":5271:5301  newCampaign.isRejected = false */\n      0x0100\n      exp\n      dup2\n      sload\n      dup2\n      0xff\n      mul\n      not\n      and\n      swap1\n      dup4\n      iszero\n      iszero\n      mul\n      or\n      swap1\n      sstore\n      pop\n        /* \"CharityDAO.sol\":4558:5309  {... */\n      pop\n      pop\n        /* \"CharityDAO.sol\":4338:5309  function createCampaign(string memory _title, string memory _description, string memory _recipientName, string memory _recipientPhone, string memory _recipientEmail, ... */\n      pop\n      pop\n      pop\n      pop\n      pop\n      pop\n      pop\n      jump\t// out\n        /* \"CharityDAO.sol\":1851:1876  string public description */\n    tag_58:\n      0x01\n      dup1\n      sload\n      tag_228\n      swap1\n      tag_134\n      jump\t// in\n    tag_228:\n      dup1\n      0x1f\n      add\n      0x20\n      dup1\n      swap2\n      div\n      mul\n      0x20\n      add\n      mload(0x40)\n      swap1\n      dup2\n      add\n      0x40\n      mstore\n      dup1\n      swap3\n      swap2\n      swap1\n      dup2\n      dup2\n      mstore\n      0x20\n      add\n      dup3\n      dup1\n      sload\n      tag_229\n      swap1\n      tag_134\n      jump\t// in\n    tag_229:\n      dup1\n      iszero\n      tag_230\n      jumpi\n      dup1\n      0x1f\n      lt\n      tag_231\n      jumpi\n      0x0100\n      dup1\n      dup4\n      sload\n      div\n      mul\n      dup4\n      mstore\n      swap2\n      0x20\n      add\n      swap2\n      jump(tag_230)\n    tag_231:\n      dup3\n      add\n      swap2\n      swap1\n      0x00\n      mstore\n      keccak256(0x00, 0x20)\n      swap1\n    tag_232:\n      dup2\n      sload\n      dup2\n      mstore\n      swap1\n      0x01\n      add\n      swap1\n      0x20\n      add\n      dup1\n      dup4\n      gt\n      tag_232\n      jumpi\n      dup3\n      swap1\n      sub\n      0x1f\n      and\n      dup3\n      add\n      swap2\n    tag_230:\n      pop\n      pop\n      pop\n      pop\n      pop\n      dup2\n      jump\t// out\n        /* \"CharityDAO.sol\":2758:2781  uint public numCampaign */\n    tag_61:\n      sload(0x0c)\n      dup2\n      jump\t// out\n        /* \"CharityDAO.sol\":1942:1961  string public email */\n    tag_65:\n      0x04\n      dup1\n      sload\n      tag_233\n      swap1\n      tag_134\n      jump\t// in\n    tag_233:\n      dup1\n      0x1f\n      add\n      0x20\n      dup1\n      swap2\n      div\n      mul\n      0x20\n      add\n      mload(0x40)\n      swap1\n      dup2\n      add\n      0x40\n      mstore\n      dup1\n      swap3\n      swap2\n      swap1\n      dup2\n      dup2\n      mstore\n      0x20\n      add\n      dup3\n      dup1\n      sload\n      tag_234\n      swap1\n      tag_134\n      jump\t// in\n    tag_234:\n      dup1\n      iszero\n      tag_235\n      jumpi\n      dup1\n      0x1f\n      lt\n      tag_236\n      jumpi\n      0x0100\n      dup1\n      dup4\n      sload\n      div\n      mul\n      dup4\n      mstore\n      swap2\n      0x20\n      add\n      swap2\n      jump(tag_235)\n    tag_236:\n      dup3\n      add\n      swap2\n      swap1\n      0x00\n      mstore\n      keccak256(0x00, 0x20)\n      swap1\n    tag_237:\n      dup2\n      sload\n      dup2\n      mstore\n      swap1\n      0x01\n      add\n      swap1\n      0x20\n      add\n      dup1\n      dup4\n      gt\n      tag_237\n      jumpi\n      dup3\n      swap1\n      sub\n      0x1f\n      and\n      dup3\n      add\n      swap2\n    tag_235:\n      pop\n      pop\n      pop\n      pop\n      pop\n      dup2\n      jump\t// out\n        /* \"CharityDAO.sol\":1916:1935  string public phone */\n    tag_68:\n      0x03\n      dup1\n      sload\n      tag_238\n      swap1\n      tag_134\n      jump\t// in\n    tag_238:\n      dup1\n      0x1f\n      add\n      0x20\n      dup1\n      swap2\n      div\n      mul\n      0x20\n      add\n      mload(0x40)\n      swap1\n      dup2\n      add\n      0x40\n      mstore\n      dup1\n      swap3\n      swap2\n      swap1\n      dup2\n      dup2\n      mstore\n      0x20\n      add\n      dup3\n      dup1\n      sload\n      tag_239\n      swap1\n      tag_134\n      jump\t// in\n    tag_239:\n      dup1\n      iszero\n      tag_240\n      jumpi\n      dup1\n      0x1f\n      lt\n      tag_241\n      jumpi\n      0x0100\n      dup1\n      dup4\n      sload\n      div\n      mul\n      dup4\n      mstore\n      swap2\n      0x20\n      add\n      swap2\n      jump(tag_240)\n    tag_241:\n      dup3\n      add\n      swap2\n      swap1\n      0x00\n      mstore\n      keccak256(0x00, 0x20)\n      swap1\n    tag_242:\n      dup2\n      sload\n      dup2\n      mstore\n      swap1\n      0x01\n      add\n      swap1\n      0x20\n      add\n      dup1\n      dup4\n      gt\n      tag_242\n      jumpi\n      dup3\n      swap1\n      sub\n      0x1f\n      and\n      dup3\n      add\n      swap2\n    tag_240:\n      pop\n      pop\n      pop\n      pop\n      pop\n      dup2\n      jump\t// out\n        /* \"CharityDAO.sol\":6864:7225  function getMemberApprovalStatus(uint campaignIndex) public view returns(bool){... */\n    tag_72:\n        /* \"CharityDAO.sol\":6937:6941  bool */\n      0x00\n        /* \"CharityDAO.sol\":6953:6965  DAO instance */\n      dup1\n        /* \"CharityDAO.sol\":6972:6982  DAOAddress */\n      0x0b\n      0x00\n      swap1\n      sload\n      swap1\n      0x0100\n      exp\n      swap1\n      div\n      0xffffffffffffffffffffffffffffffffffffffff\n      and\n        /* \"CharityDAO.sol\":6953:6983  DAO instance = DAO(DAOAddress) */\n      swap1\n      pop\n        /* \"CharityDAO.sol\":7002:7010  instance */\n      dup1\n        /* \"CharityDAO.sol\":7002:7020  instance.isAMember */\n      0xffffffffffffffffffffffffffffffffffffffff\n      and\n      0x5d672a62\n        /* \"CharityDAO.sol\":7021:7031  msg.sender */\n      caller\n        /* \"CharityDAO.sol\":7002:7032  instance.isAMember(msg.sender) */\n      mload(0x40)\n      dup3\n      0xffffffff\n      and\n      0xe0\n      shl\n      dup2\n      mstore\n      0x04\n      add\n      tag_244\n      swap2\n      swap1\n      tag_96\n      jump\t// in\n    tag_244:\n      0x20\n      mload(0x40)\n      dup1\n      dup4\n      sub\n      dup2\n      dup7\n      dup1\n      extcodesize\n      iszero\n      dup1\n      iszero\n      tag_245\n      jumpi\n      0x00\n      dup1\n      revert\n    tag_245:\n      pop\n      gas\n      staticcall\n      iszero\n      dup1\n      iszero\n      tag_247\n      jumpi\n      returndatasize\n      0x00\n      dup1\n      returndatacopy\n      revert(0x00, returndatasize)\n    tag_247:\n      pop\n      pop\n      pop\n      pop\n      mload(0x40)\n      returndatasize\n      not(0x1f)\n      0x1f\n      dup3\n      add\n      and\n      dup3\n      add\n      dup1\n      0x40\n      mstore\n      pop\n      dup2\n      add\n      swap1\n      tag_248\n      swap2\n      swap1\n      tag_111\n      jump\t// in\n    tag_248:\n        /* \"CharityDAO.sol\":6994:7033  require(instance.isAMember(msg.sender)) */\n      tag_249\n      jumpi\n      0x00\n      dup1\n      revert\n    tag_249:\n        /* \"CharityDAO.sol\":7053:7061  instance */\n      dup1\n        /* \"CharityDAO.sol\":7053:7069  instance.isAUser */\n      0xffffffffffffffffffffffffffffffffffffffff\n      and\n      0x018f5472\n        /* \"CharityDAO.sol\":7070:7080  msg.sender */\n      caller\n        /* \"CharityDAO.sol\":7053:7081  instance.isAUser(msg.sender) */\n      mload(0x40)\n      dup3\n      0xffffffff\n      and\n      0xe0\n      shl\n      dup2\n      mstore\n      0x04\n      add\n      tag_250\n      swap2\n      swap1\n      tag_96\n      jump\t// in\n    tag_250:\n      0x20\n      mload(0x40)\n      dup1\n      dup4\n      sub\n      dup2\n      dup7\n      dup1\n      extcodesize\n      iszero\n      dup1\n      iszero\n      tag_251\n      jumpi\n      0x00\n      dup1\n      revert\n    tag_251:\n      pop\n      gas\n      staticcall\n      iszero\n      dup1\n      iszero\n      tag_253\n      jumpi\n      returndatasize\n      0x00\n      dup1\n      returndatacopy\n      revert(0x00, returndatasize)\n    tag_253:\n      pop\n      pop\n      pop\n      pop\n      mload(0x40)\n      returndatasize\n      not(0x1f)\n      0x1f\n      dup3\n      add\n      and\n      dup3\n      add\n      dup1\n      0x40\n      mstore\n      pop\n      dup2\n      add\n      swap1\n      tag_254\n      swap2\n      swap1\n      tag_111\n      jump\t// in\n    tag_254:\n        /* \"CharityDAO.sol\":7052:7081  !instance.isAUser(msg.sender) */\n      iszero\n        /* \"CharityDAO.sol\":7044:7082  require(!instance.isAUser(msg.sender)) */\n      tag_255\n      jumpi\n      0x00\n      dup1\n      revert\n    tag_255:\n        /* \"CharityDAO.sol\":7096:7105  campaigns */\n      0x0d\n        /* \"CharityDAO.sol\":7096:7120  campaigns[campaignIndex] */\n      0x00\n        /* \"CharityDAO.sol\":7106:7119  campaignIndex */\n      dup5\n        /* \"CharityDAO.sol\":7096:7120  campaigns[campaignIndex] */\n      dup2\n      mstore\n      0x20\n      add\n      swap1\n      dup2\n      mstore\n      0x20\n      add\n      0x00\n      keccak256\n        /* \"CharityDAO.sol\":7096:7144  campaigns[campaignIndex].campaignApprovedMembers */\n      0x0a\n      add\n        /* \"CharityDAO.sol\":7096:7156  campaigns[campaignIndex].campaignApprovedMembers[msg.sender] */\n      0x00\n        /* \"CharityDAO.sol\":7145:7155  msg.sender */\n      caller\n        /* \"CharityDAO.sol\":7096:7156  campaigns[campaignIndex].campaignApprovedMembers[msg.sender] */\n      0xffffffffffffffffffffffffffffffffffffffff\n      and\n      0xffffffffffffffffffffffffffffffffffffffff\n      and\n      dup2\n      mstore\n      0x20\n      add\n      swap1\n      dup2\n      mstore\n      0x20\n      add\n      0x00\n      keccak256\n      0x00\n      swap1\n      sload\n      swap1\n      0x0100\n      exp\n      swap1\n      div\n      0xff\n      and\n        /* \"CharityDAO.sol\":7093:7195  if(campaigns[campaignIndex].campaignApprovedMembers[msg.sender]){... */\n      iszero\n      tag_256\n      jumpi\n        /* \"CharityDAO.sol\":7179:7183  true */\n      0x01\n        /* \"CharityDAO.sol\":7172:7183  return true */\n      swap2\n      pop\n      pop\n      jump(tag_243)\n        /* \"CharityDAO.sol\":7093:7195  if(campaigns[campaignIndex].campaignApprovedMembers[msg.sender]){... */\n    tag_256:\n        /* \"CharityDAO.sol\":7212:7217  false */\n      0x00\n        /* \"CharityDAO.sol\":7205:7217  return false */\n      swap2\n      pop\n      pop\n        /* \"CharityDAO.sol\":6864:7225  function getMemberApprovalStatus(uint campaignIndex) public view returns(bool){... */\n    tag_243:\n      swap2\n      swap1\n      pop\n      jump\t// out\n        /* \"CharityDAO.sol\":2004:2028  uint public approveCount */\n    tag_75:\n      sload(0x06)\n      dup2\n      jump\t// out\n        /* \"CharityDAO.sol\":7233:7595  function getMemberRejectionStatus(uint campaignIndex) public view returns(bool){... */\n    tag_79:\n        /* \"CharityDAO.sol\":7307:7311  bool */\n      0x00\n        /* \"CharityDAO.sol\":7323:7335  DAO instance */\n      dup1\n        /* \"CharityDAO.sol\":7342:7352  DAOAddress */\n      0x0b\n      0x00\n      swap1\n      sload\n      swap1\n      0x0100\n      exp\n      swap1\n      div\n      0xffffffffffffffffffffffffffffffffffffffff\n      and\n        /* \"CharityDAO.sol\":7323:7353  DAO instance = DAO(DAOAddress) */\n      swap1\n      pop\n        /* \"CharityDAO.sol\":7372:7380  instance */\n      dup1\n        /* \"CharityDAO.sol\":7372:7390  instance.isAMember */\n      0xffffffffffffffffffffffffffffffffffffffff\n      and\n      0x5d672a62\n        /* \"CharityDAO.sol\":7391:7401  msg.sender */\n      caller\n        /* \"CharityDAO.sol\":7372:7402  instance.isAMember(msg.sender) */\n      mload(0x40)\n      dup3\n      0xffffffff\n      and\n      0xe0\n      shl\n      dup2\n      mstore\n      0x04\n      add\n      tag_258\n      swap2\n      swap1\n      tag_96\n      jump\t// in\n    tag_258:\n      0x20\n      mload(0x40)\n      dup1\n      dup4\n      sub\n      dup2\n      dup7\n      dup1\n      extcodesize\n      iszero\n      dup1\n      iszero\n      tag_259\n      jumpi\n      0x00\n      dup1\n      revert\n    tag_259:\n      pop\n      gas\n      staticcall\n      iszero\n      dup1\n      iszero\n      tag_261\n      jumpi\n      returndatasize\n      0x00\n      dup1\n      returndatacopy\n      revert(0x00, returndatasize)\n    tag_261:\n      pop\n      pop\n      pop\n      pop\n      mload(0x40)\n      returndatasize\n      not(0x1f)\n      0x1f\n      dup3\n      add\n      and\n      dup3\n      add\n      dup1\n      0x40\n      mstore\n      pop\n      dup2\n      add\n      swap1\n      tag_262\n      swap2\n      swap1\n      tag_111\n      jump\t// in\n    tag_262:\n        /* \"CharityDAO.sol\":7364:7403  require(instance.isAMember(msg.sender)) */\n      tag_263\n      jumpi\n      0x00\n      dup1\n      revert\n    tag_263:\n        /* \"CharityDAO.sol\":7423:7431  instance */\n      dup1\n        /* \"CharityDAO.sol\":7423:7439  instance.isAUser */\n      0xffffffffffffffffffffffffffffffffffffffff\n      and\n      0x018f5472\n        /* \"CharityDAO.sol\":7440:7450  msg.sender */\n      caller\n        /* \"CharityDAO.sol\":7423:7451  instance.isAUser(msg.sender) */\n      mload(0x40)\n      dup3\n      0xffffffff\n      and\n      0xe0\n      shl\n      dup2\n      mstore\n      0x04\n      add\n      tag_264\n      swap2\n      swap1\n      tag_96\n      jump\t// in\n    tag_264:\n      0x20\n      mload(0x40)\n      dup1\n      dup4\n      sub\n      dup2\n      dup7\n      dup1\n      extcodesize\n      iszero\n      dup1\n      iszero\n      tag_265\n      jumpi\n      0x00\n      dup1\n      revert\n    tag_265:\n      pop\n      gas\n      staticcall\n      iszero\n      dup1\n      iszero\n      tag_267\n      jumpi\n      returndatasize\n      0x00\n      dup1\n      returndatacopy\n      revert(0x00, returndatasize)\n    tag_267:\n      pop\n      pop\n      pop\n      pop\n      mload(0x40)\n      returndatasize\n      not(0x1f)\n      0x1f\n      dup3\n      add\n      and\n      dup3\n      add\n      dup1\n      0x40\n      mstore\n      pop\n      dup2\n      add\n      swap1\n      tag_268\n      swap2\n      swap1\n      tag_111\n      jump\t// in\n    tag_268:\n        /* \"CharityDAO.sol\":7422:7451  !instance.isAUser(msg.sender) */\n      iszero\n        /* \"CharityDAO.sol\":7414:7452  require(!instance.isAUser(msg.sender)) */\n      tag_269\n      jumpi\n      0x00\n      dup1\n      revert\n    tag_269:\n        /* \"CharityDAO.sol\":7466:7475  campaigns */\n      0x0d\n        /* \"CharityDAO.sol\":7466:7490  campaigns[campaignIndex] */\n      0x00\n        /* \"CharityDAO.sol\":7476:7489  campaignIndex */\n      dup5\n        /* \"CharityDAO.sol\":7466:7490  campaigns[campaignIndex] */\n      dup2\n      mstore\n      0x20\n      add\n      swap1\n      dup2\n      mstore\n      0x20\n      add\n      0x00\n      keccak256\n        /* \"CharityDAO.sol\":7466:7514  campaigns[campaignIndex].campaignRejectedMembers */\n      0x0b\n      add\n        /* \"CharityDAO.sol\":7466:7526  campaigns[campaignIndex].campaignRejectedMembers[msg.sender] */\n      0x00\n        /* \"CharityDAO.sol\":7515:7525  msg.sender */\n      caller\n        /* \"CharityDAO.sol\":7466:7526  campaigns[campaignIndex].campaignRejectedMembers[msg.sender] */\n      0xffffffffffffffffffffffffffffffffffffffff\n      and\n      0xffffffffffffffffffffffffffffffffffffffff\n      and\n      dup2\n      mstore\n      0x20\n      add\n      swap1\n      dup2\n      mstore\n      0x20\n      add\n      0x00\n      keccak256\n      0x00\n      swap1\n      sload\n      swap1\n      0x0100\n      exp\n      swap1\n      div\n      0xff\n      and\n        /* \"CharityDAO.sol\":7463:7565  if(campaigns[campaignIndex].campaignRejectedMembers[msg.sender]){... */\n      iszero\n      tag_270\n      jumpi\n        /* \"CharityDAO.sol\":7549:7553  true */\n      0x01\n        /* \"CharityDAO.sol\":7542:7553  return true */\n      swap2\n      pop\n      pop\n      jump(tag_257)\n        /* \"CharityDAO.sol\":7463:7565  if(campaigns[campaignIndex].campaignRejectedMembers[msg.sender]){... */\n    tag_270:\n        /* \"CharityDAO.sol\":7582:7587  false */\n      0x00\n        /* \"CharityDAO.sol\":7575:7587  return false */\n      swap2\n      pop\n      pop\n        /* \"CharityDAO.sol\":7233:7595  function getMemberRejectionStatus(uint campaignIndex) public view returns(bool){... */\n    tag_257:\n      swap2\n      swap1\n      pop\n      jump\t// out\n        /* \"CharityDAO.sol\":2094:2116  bool public isRejected */\n    tag_82:\n      0x08\n      0x01\n      swap1\n      sload\n      swap1\n      0x0100\n      exp\n      swap1\n      div\n      0xff\n      and\n      dup2\n      jump\t// out\n        /* \"CharityDAO.sol\":2123:2170  mapping(address => bool) public approvedMembers */\n    tag_87:\n      mstore(0x20, 0x09)\n      dup1\n      0x00\n      mstore\n      keccak256(0x00, 0x40)\n      0x00\n      swap2\n      pop\n      sload\n      swap1\n      0x0100\n      exp\n      swap1\n      div\n      0xff\n      and\n      dup2\n      jump\t// out\n        /* \"CharityDAO.sol\":2177:2224  mapping(address => bool) public rejectedMembers */\n    tag_91:\n      mstore(0x20, 0x0a)\n      dup1\n      0x00\n      mstore\n      keccak256(0x00, 0x40)\n      0x00\n      swap2\n      pop\n      sload\n      swap1\n      0x0100\n      exp\n      swap1\n      div\n      0xff\n      and\n      dup2\n      jump\t// out\n        /* \"CharityDAO.sol\":1883:1909  address public userAddress */\n    tag_94:\n      0x02\n      0x00\n      swap1\n      sload\n      swap1\n      0x0100\n      exp\n      swap1\n      div\n      0xffffffffffffffffffffffffffffffffffffffff\n      and\n      dup2\n      jump\t// out\n        /* \"CharityDAO.sol\":5317:6084  function approveCampaign(uint campaignIndex) public {... */\n    tag_99:\n        /* \"CharityDAO.sol\":5380:5392  DAO instance */\n      0x00\n        /* \"CharityDAO.sol\":5399:5409  DAOAddress */\n      0x0b\n      0x00\n      swap1\n      sload\n      swap1\n      0x0100\n      exp\n      swap1\n      div\n      0xffffffffffffffffffffffffffffffffffffffff\n      and\n        /* \"CharityDAO.sol\":5380:5410  DAO instance = DAO(DAOAddress) */\n      swap1\n      pop\n        /* \"CharityDAO.sol\":5429:5437  instance */\n      dup1\n        /* \"CharityDAO.sol\":5429:5447  instance.isAMember */\n      0xffffffffffffffffffffffffffffffffffffffff\n      and\n      0x5d672a62\n        /* \"CharityDAO.sol\":5448:5458  msg.sender */\n      caller\n        /* \"CharityDAO.sol\":5429:5459  instance.isAMember(msg.sender) */\n      mload(0x40)\n      dup3\n      0xffffffff\n      and\n      0xe0\n      shl\n      dup2\n      mstore\n      0x04\n      add\n      tag_272\n      swap2\n      swap1\n      tag_96\n      jump\t// in\n    tag_272:\n      0x20\n      mload(0x40)\n      dup1\n      dup4\n      sub\n      dup2\n      dup7\n      dup1\n      extcodesize\n      iszero\n      dup1\n      iszero\n      tag_273\n      jumpi\n      0x00\n      dup1\n      revert\n    tag_273:\n      pop\n      gas\n      staticcall\n      iszero\n      dup1\n      iszero\n      tag_275\n      jumpi\n      returndatasize\n      0x00\n      dup1\n      returndatacopy\n      revert(0x00, returndatasize)\n    tag_275:\n      pop\n      pop\n      pop\n      pop\n      mload(0x40)\n      returndatasize\n      not(0x1f)\n      0x1f\n      dup3\n      add\n      and\n      dup3\n      add\n      dup1\n      0x40\n      mstore\n      pop\n      dup2\n      add\n      swap1\n      tag_276\n      swap2\n      swap1\n      tag_111\n      jump\t// in\n    tag_276:\n        /* \"CharityDAO.sol\":5421:5460  require(instance.isAMember(msg.sender)) */\n      tag_277\n      jumpi\n      0x00\n      dup1\n      revert\n    tag_277:\n        /* \"CharityDAO.sol\":5480:5488  instance */\n      dup1\n        /* \"CharityDAO.sol\":5480:5496  instance.isAUser */\n      0xffffffffffffffffffffffffffffffffffffffff\n      and\n      0x018f5472\n        /* \"CharityDAO.sol\":5497:5507  msg.sender */\n      caller\n        /* \"CharityDAO.sol\":5480:5508  instance.isAUser(msg.sender) */\n      mload(0x40)\n      dup3\n      0xffffffff\n      and\n      0xe0\n      shl\n      dup2\n      mstore\n      0x04\n      add\n      tag_278\n      swap2\n      swap1\n      tag_96\n      jump\t// in\n    tag_278:\n      0x20\n      mload(0x40)\n      dup1\n      dup4\n      sub\n      dup2\n      dup7\n      dup1\n      extcodesize\n      iszero\n      dup1\n      iszero\n      tag_279\n      jumpi\n      0x00\n      dup1\n      revert\n    tag_279:\n      pop\n      gas\n      staticcall\n      iszero\n      dup1\n      iszero\n      tag_281\n      jumpi\n      returndatasize\n      0x00\n      dup1\n      returndatacopy\n      revert(0x00, returndatasize)\n    tag_281:\n      pop\n      pop\n      pop\n      pop\n      mload(0x40)\n      returndatasize\n      not(0x1f)\n      0x1f\n      dup3\n      add\n      and\n      dup3\n      add\n      dup1\n      0x40\n      mstore\n      pop\n      dup2\n      add\n      swap1\n      tag_282\n      swap2\n      swap1\n      tag_111\n      jump\t// in\n    tag_282:\n        /* \"CharityDAO.sol\":5479:5508  !instance.isAUser(msg.sender) */\n      iszero\n        /* \"CharityDAO.sol\":5471:5509  require(!instance.isAUser(msg.sender)) */\n      tag_283\n      jumpi\n      0x00\n      dup1\n      revert\n    tag_283:\n        /* \"CharityDAO.sol\":5529:5538  campaigns */\n      0x0d\n        /* \"CharityDAO.sol\":5529:5553  campaigns[campaignIndex] */\n      0x00\n        /* \"CharityDAO.sol\":5539:5552  campaignIndex */\n      dup4\n        /* \"CharityDAO.sol\":5529:5553  campaigns[campaignIndex] */\n      dup2\n      mstore\n      0x20\n      add\n      swap1\n      dup2\n      mstore\n      0x20\n      add\n      0x00\n      keccak256\n        /* \"CharityDAO.sol\":5529:5577  campaigns[campaignIndex].campaignApprovedMembers */\n      0x0a\n      add\n        /* \"CharityDAO.sol\":5529:5589  campaigns[campaignIndex].campaignApprovedMembers[msg.sender] */\n      0x00\n        /* \"CharityDAO.sol\":5578:5588  msg.sender */\n      caller\n        /* \"CharityDAO.sol\":5529:5589  campaigns[campaignIndex].campaignApprovedMembers[msg.sender] */\n      0xffffffffffffffffffffffffffffffffffffffff\n      and\n      0xffffffffffffffffffffffffffffffffffffffff\n      and\n      dup2\n      mstore\n      0x20\n      add\n      swap1\n      dup2\n      mstore\n      0x20\n      add\n      0x00\n      keccak256\n      0x00\n      swap1\n      sload\n      swap1\n      0x0100\n      exp\n      swap1\n      div\n      0xff\n      and\n        /* \"CharityDAO.sol\":5528:5589  !campaigns[campaignIndex].campaignApprovedMembers[msg.sender] */\n      iszero\n        /* \"CharityDAO.sol\":5520:5590  require(!campaigns[campaignIndex].campaignApprovedMembers[msg.sender]) */\n      tag_284\n      jumpi\n      0x00\n      dup1\n      revert\n    tag_284:\n        /* \"CharityDAO.sol\":5610:5619  campaigns */\n      0x0d\n        /* \"CharityDAO.sol\":5610:5634  campaigns[campaignIndex] */\n      0x00\n        /* \"CharityDAO.sol\":5620:5633  campaignIndex */\n      dup4\n        /* \"CharityDAO.sol\":5610:5634  campaigns[campaignIndex] */\n      dup2\n      mstore\n      0x20\n      add\n      swap1\n      dup2\n      mstore\n      0x20\n      add\n      0x00\n      keccak256\n        /* \"CharityDAO.sol\":5610:5658  campaigns[campaignIndex].campaignRejectedMembers */\n      0x0b\n      add\n        /* \"CharityDAO.sol\":5610:5670  campaigns[campaignIndex].campaignRejectedMembers[msg.sender] */\n      0x00\n        /* \"CharityDAO.sol\":5659:5669  msg.sender */\n      caller\n        /* \"CharityDAO.sol\":5610:5670  campaigns[campaignIndex].campaignRejectedMembers[msg.sender] */\n      0xffffffffffffffffffffffffffffffffffffffff\n      and\n      0xffffffffffffffffffffffffffffffffffffffff\n      and\n      dup2\n      mstore\n      0x20\n      add\n      swap1\n      dup2\n      mstore\n      0x20\n      add\n      0x00\n      keccak256\n      0x00\n      swap1\n      sload\n      swap1\n      0x0100\n      exp\n      swap1\n      div\n      0xff\n      and\n        /* \"CharityDAO.sol\":5609:5670  !campaigns[campaignIndex].campaignRejectedMembers[msg.sender] */\n      iszero\n        /* \"CharityDAO.sol\":5601:5671  require(!campaigns[campaignIndex].campaignRejectedMembers[msg.sender]) */\n      tag_285\n      jumpi\n      0x00\n      dup1\n      revert\n    tag_285:\n        /* \"CharityDAO.sol\":5691:5700  campaigns */\n      0x0d\n        /* \"CharityDAO.sol\":5691:5715  campaigns[campaignIndex] */\n      0x00\n        /* \"CharityDAO.sol\":5701:5714  campaignIndex */\n      dup4\n        /* \"CharityDAO.sol\":5691:5715  campaigns[campaignIndex] */\n      dup2\n      mstore\n      0x20\n      add\n      swap1\n      dup2\n      mstore\n      0x20\n      add\n      0x00\n      keccak256\n        /* \"CharityDAO.sol\":5691:5726  campaigns[campaignIndex].isApproved */\n      0x09\n      add\n      0x00\n      swap1\n      sload\n      swap1\n      0x0100\n      exp\n      swap1\n      div\n      0xff\n      and\n        /* \"CharityDAO.sol\":5690:5726  !campaigns[campaignIndex].isApproved */\n      iszero\n        /* \"CharityDAO.sol\":5682:5727  require(!campaigns[campaignIndex].isApproved) */\n      tag_286\n      jumpi\n      0x00\n      dup1\n      revert\n    tag_286:\n        /* \"CharityDAO.sol\":5747:5756  campaigns */\n      0x0d\n        /* \"CharityDAO.sol\":5747:5771  campaigns[campaignIndex] */\n      0x00\n        /* \"CharityDAO.sol\":5757:5770  campaignIndex */\n      dup4\n        /* \"CharityDAO.sol\":5747:5771  campaigns[campaignIndex] */\n      dup2\n      mstore\n      0x20\n      add\n      swap1\n      dup2\n      mstore\n      0x20\n      add\n      0x00\n      keccak256\n        /* \"CharityDAO.sol\":5747:5782  campaigns[campaignIndex].isRejected */\n      0x09\n      add\n      0x01\n      swap1\n      sload\n      swap1\n      0x0100\n      exp\n      swap1\n      div\n      0xff\n      and\n        /* \"CharityDAO.sol\":5746:5782  !campaigns[campaignIndex].isRejected */\n      iszero\n        /* \"CharityDAO.sol\":5738:5783  require(!campaigns[campaignIndex].isRejected) */\n      tag_287\n      jumpi\n      0x00\n      dup1\n      revert\n    tag_287:\n        /* \"CharityDAO.sol\":5796:5805  campaigns */\n      0x0d\n        /* \"CharityDAO.sol\":5796:5820  campaigns[campaignIndex] */\n      0x00\n        /* \"CharityDAO.sol\":5806:5819  campaignIndex */\n      dup4\n        /* \"CharityDAO.sol\":5796:5820  campaigns[campaignIndex] */\n      dup2\n      mstore\n      0x20\n      add\n      swap1\n      dup2\n      mstore\n      0x20\n      add\n      0x00\n      keccak256\n        /* \"CharityDAO.sol\":5796:5833  campaigns[campaignIndex].approveCount */\n      0x07\n      add\n      0x00\n        /* \"CharityDAO.sol\":5796:5835  campaigns[campaignIndex].approveCount++ */\n      dup2\n      sload\n      dup1\n      swap3\n      swap2\n      swap1\n      tag_288\n      swap1\n      tag_124\n      jump\t// in\n    tag_288:\n      swap2\n      swap1\n      pop\n      sstore\n      pop\n        /* \"CharityDAO.sol\":5909:5913  true */\n      0x01\n        /* \"CharityDAO.sol\":5846:5855  campaigns */\n      0x0d\n        /* \"CharityDAO.sol\":5846:5870  campaigns[campaignIndex] */\n      0x00\n        /* \"CharityDAO.sol\":5856:5869  campaignIndex */\n      dup5\n        /* \"CharityDAO.sol\":5846:5870  campaigns[campaignIndex] */\n      dup2\n      mstore\n      0x20\n      add\n      swap1\n      dup2\n      mstore\n      0x20\n      add\n      0x00\n      keccak256\n        /* \"CharityDAO.sol\":5846:5894  campaigns[campaignIndex].campaignApprovedMembers */\n      0x0a\n      add\n        /* \"CharityDAO.sol\":5846:5906  campaigns[campaignIndex].campaignApprovedMembers[msg.sender] */\n      0x00\n        /* \"CharityDAO.sol\":5895:5905  msg.sender */\n      caller\n        /* \"CharityDAO.sol\":5846:5906  campaigns[campaignIndex].campaignApprovedMembers[msg.sender] */\n      0xffffffffffffffffffffffffffffffffffffffff\n      and\n      0xffffffffffffffffffffffffffffffffffffffff\n      and\n      dup2\n      mstore\n      0x20\n      add\n      swap1\n      dup2\n      mstore\n      0x20\n      add\n      0x00\n      keccak256\n      0x00\n        /* \"CharityDAO.sol\":5846:5913  campaigns[campaignIndex].campaignApprovedMembers[msg.sender] = true */\n      0x0100\n      exp\n      dup2\n      sload\n      dup2\n      0xff\n      mul\n      not\n      and\n      swap1\n      dup4\n      iszero\n      iszero\n      mul\n      or\n      swap1\n      sstore\n      pop\n        /* \"CharityDAO.sol\":6004:6005  2 */\n      0x02\n        /* \"CharityDAO.sol\":5978:5986  instance */\n      dup2\n        /* \"CharityDAO.sol\":5978:6001  instance.getMemberCount */\n      0xffffffffffffffffffffffffffffffffffffffff\n      and\n      0x997072f7\n        /* \"CharityDAO.sol\":5978:6003  instance.getMemberCount() */\n      mload(0x40)\n      dup2\n      0xffffffff\n      and\n      0xe0\n      shl\n      dup2\n      mstore\n      0x04\n      add\n      0x20\n      mload(0x40)\n      dup1\n      dup4\n      sub\n      dup2\n      dup7\n      dup1\n      extcodesize\n      iszero\n      dup1\n      iszero\n      tag_289\n      jumpi\n      0x00\n      dup1\n      revert\n    tag_289:\n      pop\n      gas\n      staticcall\n      iszero\n      dup1\n      iszero\n      tag_291\n      jumpi\n      returndatasize\n      0x00\n      dup1\n      returndatacopy\n      revert(0x00, returndatasize)\n    tag_291:\n      pop\n      pop\n      pop\n      pop\n      mload(0x40)\n      returndatasize\n      not(0x1f)\n      0x1f\n      dup3\n      add\n      and\n      dup3\n      add\n      dup1\n      0x40\n      mstore\n      pop\n      dup2\n      add\n      swap1\n      tag_292\n      swap2\n      swap1\n      tag_129\n      jump\t// in\n    tag_292:\n        /* \"CharityDAO.sol\":5978:6005  instance.getMemberCount()/2 */\n      tag_293\n      swap2\n      swap1\n      tag_131\n      jump\t// in\n    tag_293:\n        /* \"CharityDAO.sol\":5937:5946  campaigns */\n      0x0d\n        /* \"CharityDAO.sol\":5937:5961  campaigns[campaignIndex] */\n      0x00\n        /* \"CharityDAO.sol\":5947:5960  campaignIndex */\n      dup5\n        /* \"CharityDAO.sol\":5937:5961  campaigns[campaignIndex] */\n      dup2\n      mstore\n      0x20\n      add\n      swap1\n      dup2\n      mstore\n      0x20\n      add\n      0x00\n      keccak256\n        /* \"CharityDAO.sol\":5937:5974  campaigns[campaignIndex].approveCount */\n      0x07\n      add\n      sload\n        /* \"CharityDAO.sol\":5937:6006  campaigns[campaignIndex].approveCount > (instance.getMemberCount()/2) */\n      gt\n        /* \"CharityDAO.sol\":5934:6077  if(campaigns[campaignIndex].approveCount > (instance.getMemberCount()/2)) {... */\n      iszero\n      tag_294\n      jumpi\n        /* \"CharityDAO.sol\":6061:6065  true */\n      0x01\n        /* \"CharityDAO.sol\":6023:6032  campaigns */\n      0x0d\n        /* \"CharityDAO.sol\":6023:6047  campaigns[campaignIndex] */\n      0x00\n        /* \"CharityDAO.sol\":6033:6046  campaignIndex */\n      dup5\n        /* \"CharityDAO.sol\":6023:6047  campaigns[campaignIndex] */\n      dup2\n      mstore\n      0x20\n      add\n      swap1\n      dup2\n      mstore\n      0x20\n      add\n      0x00\n      keccak256\n        /* \"CharityDAO.sol\":6023:6058  campaigns[campaignIndex].isApproved */\n      0x09\n      add\n      0x00\n        /* \"CharityDAO.sol\":6023:6065  campaigns[campaignIndex].isApproved = true */\n      0x0100\n      exp\n      dup2\n      sload\n      dup2\n      0xff\n      mul\n      not\n      and\n      swap1\n      dup4\n      iszero\n      iszero\n      mul\n      or\n      swap1\n      sstore\n      pop\n        /* \"CharityDAO.sol\":5934:6077  if(campaigns[campaignIndex].approveCount > (instance.getMemberCount()/2)) {... */\n    tag_294:\n        /* \"CharityDAO.sol\":5369:6084  {... */\n      pop\n        /* \"CharityDAO.sol\":5317:6084  function approveCampaign(uint campaignIndex) public {... */\n      pop\n      jump\t// out\n        /* \"CharityDAO.sol\":3395:3858  function approveUser() public {... */\n    tag_101:\n        /* \"CharityDAO.sol\":3436:3448  DAO instance */\n      0x00\n        /* \"CharityDAO.sol\":3455:3465  DAOAddress */\n      0x0b\n      0x00\n      swap1\n      sload\n      swap1\n      0x0100\n      exp\n      swap1\n      div\n      0xffffffffffffffffffffffffffffffffffffffff\n      and\n        /* \"CharityDAO.sol\":3436:3466  DAO instance = DAO(DAOAddress) */\n      swap1\n      pop\n        /* \"CharityDAO.sol\":3485:3493  instance */\n      dup1\n        /* \"CharityDAO.sol\":3485:3503  instance.isAMember */\n      0xffffffffffffffffffffffffffffffffffffffff\n      and\n      0x5d672a62\n        /* \"CharityDAO.sol\":3504:3514  msg.sender */\n      caller\n        /* \"CharityDAO.sol\":3485:3515  instance.isAMember(msg.sender) */\n      mload(0x40)\n      dup3\n      0xffffffff\n      and\n      0xe0\n      shl\n      dup2\n      mstore\n      0x04\n      add\n      tag_296\n      swap2\n      swap1\n      tag_96\n      jump\t// in\n    tag_296:\n      0x20\n      mload(0x40)\n      dup1\n      dup4\n      sub\n      dup2\n      dup7\n      dup1\n      extcodesize\n      iszero\n      dup1\n      iszero\n      tag_297\n      jumpi\n      0x00\n      dup1\n      revert\n    tag_297:\n      pop\n      gas\n      staticcall\n      iszero\n      dup1\n      iszero\n      tag_299\n      jumpi\n      returndatasize\n      0x00\n      dup1\n      returndatacopy\n      revert(0x00, returndatasize)\n    tag_299:\n      pop\n      pop\n      pop\n      pop\n      mload(0x40)\n      returndatasize\n      not(0x1f)\n      0x1f\n      dup3\n      add\n      and\n      dup3\n      add\n      dup1\n      0x40\n      mstore\n      pop\n      dup2\n      add\n      swap1\n      tag_300\n      swap2\n      swap1\n      tag_111\n      jump\t// in\n    tag_300:\n        /* \"CharityDAO.sol\":3477:3516  require(instance.isAMember(msg.sender)) */\n      tag_301\n      jumpi\n      0x00\n      dup1\n      revert\n    tag_301:\n        /* \"CharityDAO.sol\":3536:3551  approvedMembers */\n      0x09\n        /* \"CharityDAO.sol\":3536:3563  approvedMembers[msg.sender] */\n      0x00\n        /* \"CharityDAO.sol\":3552:3562  msg.sender */\n      caller\n        /* \"CharityDAO.sol\":3536:3563  approvedMembers[msg.sender] */\n      0xffffffffffffffffffffffffffffffffffffffff\n      and\n      0xffffffffffffffffffffffffffffffffffffffff\n      and\n      dup2\n      mstore\n      0x20\n      add\n      swap1\n      dup2\n      mstore\n      0x20\n      add\n      0x00\n      keccak256\n      0x00\n      swap1\n      sload\n      swap1\n      0x0100\n      exp\n      swap1\n      div\n      0xff\n      and\n        /* \"CharityDAO.sol\":3535:3563  !approvedMembers[msg.sender] */\n      iszero\n        /* \"CharityDAO.sol\":3527:3564  require(!approvedMembers[msg.sender]) */\n      tag_302\n      jumpi\n      0x00\n      dup1\n      revert\n    tag_302:\n        /* \"CharityDAO.sol\":3584:3599  rejectedMembers */\n      0x0a\n        /* \"CharityDAO.sol\":3584:3611  rejectedMembers[msg.sender] */\n      0x00\n        /* \"CharityDAO.sol\":3600:3610  msg.sender */\n      caller\n        /* \"CharityDAO.sol\":3584:3611  rejectedMembers[msg.sender] */\n      0xffffffffffffffffffffffffffffffffffffffff\n      and\n      0xffffffffffffffffffffffffffffffffffffffff\n      and\n      dup2\n      mstore\n      0x20\n      add\n      swap1\n      dup2\n      mstore\n      0x20\n      add\n      0x00\n      keccak256\n      0x00\n      swap1\n      sload\n      swap1\n      0x0100\n      exp\n      swap1\n      div\n      0xff\n      and\n        /* \"CharityDAO.sol\":3583:3611  !rejectedMembers[msg.sender] */\n      iszero\n        /* \"CharityDAO.sol\":3575:3612  require(!rejectedMembers[msg.sender]) */\n      tag_303\n      jumpi\n      0x00\n      dup1\n      revert\n    tag_303:\n        /* \"CharityDAO.sol\":3632:3642  isApproved */\n      0x08\n      0x00\n      swap1\n      sload\n      swap1\n      0x0100\n      exp\n      swap1\n      div\n      0xff\n      and\n        /* \"CharityDAO.sol\":3631:3642  !isApproved */\n      iszero\n        /* \"CharityDAO.sol\":3623:3643  require(!isApproved) */\n      tag_304\n      jumpi\n      0x00\n      dup1\n      revert\n    tag_304:\n        /* \"CharityDAO.sol\":3663:3673  isRejected */\n      0x08\n      0x01\n      swap1\n      sload\n      swap1\n      0x0100\n      exp\n      swap1\n      div\n      0xff\n      and\n        /* \"CharityDAO.sol\":3662:3673  !isRejected */\n      iszero\n        /* \"CharityDAO.sol\":3654:3674  require(!isRejected) */\n      tag_305\n      jumpi\n      0x00\n      dup1\n      revert\n    tag_305:\n        /* \"CharityDAO.sol\":3715:3719  true */\n      0x01\n        /* \"CharityDAO.sol\":3685:3700  approvedMembers */\n      0x09\n        /* \"CharityDAO.sol\":3685:3712  approvedMembers[msg.sender] */\n      0x00\n        /* \"CharityDAO.sol\":3701:3711  msg.sender */\n      caller\n        /* \"CharityDAO.sol\":3685:3712  approvedMembers[msg.sender] */\n      0xffffffffffffffffffffffffffffffffffffffff\n      and\n      0xffffffffffffffffffffffffffffffffffffffff\n      and\n      dup2\n      mstore\n      0x20\n      add\n      swap1\n      dup2\n      mstore\n      0x20\n      add\n      0x00\n      keccak256\n      0x00\n        /* \"CharityDAO.sol\":3685:3719  approvedMembers[msg.sender] = true */\n      0x0100\n      exp\n      dup2\n      sload\n      dup2\n      0xff\n      mul\n      not\n      and\n      swap1\n      dup4\n      iszero\n      iszero\n      mul\n      or\n      swap1\n      sstore\n      pop\n        /* \"CharityDAO.sol\":3730:3742  approveCount */\n      0x06\n      0x00\n        /* \"CharityDAO.sol\":3730:3744  approveCount++ */\n      dup2\n      sload\n      dup1\n      swap3\n      swap2\n      swap1\n      tag_306\n      swap1\n      tag_124\n      jump\t// in\n    tag_306:\n      swap2\n      swap1\n      pop\n      sstore\n      pop\n        /* \"CharityDAO.sol\":3804:3805  2 */\n      0x02\n        /* \"CharityDAO.sol\":3776:3784  instance */\n      dup2\n        /* \"CharityDAO.sol\":3776:3799  instance.getMemberCount */\n      0xffffffffffffffffffffffffffffffffffffffff\n      and\n      0x997072f7\n        /* \"CharityDAO.sol\":3776:3801  instance.getMemberCount() */\n      mload(0x40)\n      dup2\n      0xffffffff\n      and\n      0xe0\n      shl\n      dup2\n      mstore\n      0x04\n      add\n      0x20\n      mload(0x40)\n      dup1\n      dup4\n      sub\n      dup2\n      dup7\n      dup1\n      extcodesize\n      iszero\n      dup1\n      iszero\n      tag_307\n      jumpi\n      0x00\n      dup1\n      revert\n    tag_307:\n      pop\n      gas\n      staticcall\n      iszero\n      dup1\n      iszero\n      tag_309\n      jumpi\n      returndatasize\n      0x00\n      dup1\n      returndatacopy\n      revert(0x00, returndatasize)\n    tag_309:\n      pop\n      pop\n      pop\n      pop\n      mload(0x40)\n      returndatasize\n      not(0x1f)\n      0x1f\n      dup3\n      add\n      and\n      dup3\n      add\n      dup1\n      0x40\n      mstore\n      pop\n      dup2\n      add\n      swap1\n      tag_310\n      swap2\n      swap1\n      tag_129\n      jump\t// in\n    tag_310:\n        /* \"CharityDAO.sol\":3776:3805  instance.getMemberCount() / 2 */\n      tag_311\n      swap2\n      swap1\n      tag_131\n      jump\t// in\n    tag_311:\n        /* \"CharityDAO.sol\":3760:3772  approveCount */\n      sload(0x06)\n        /* \"CharityDAO.sol\":3760:3806  approveCount > (instance.getMemberCount() / 2) */\n      gt\n        /* \"CharityDAO.sol\":3757:3851  if(approveCount > (instance.getMemberCount() / 2)){... */\n      iszero\n      tag_312\n      jumpi\n        /* \"CharityDAO.sol\":3835:3839  true */\n      0x01\n        /* \"CharityDAO.sol\":3822:3832  isApproved */\n      0x08\n      0x00\n        /* \"CharityDAO.sol\":3822:3839  isApproved = true */\n      0x0100\n      exp\n      dup2\n      sload\n      dup2\n      0xff\n      mul\n      not\n      and\n      swap1\n      dup4\n      iszero\n      iszero\n      mul\n      or\n      swap1\n      sstore\n      pop\n        /* \"CharityDAO.sol\":3757:3851  if(approveCount > (instance.getMemberCount() / 2)){... */\n    tag_312:\n        /* \"CharityDAO.sol\":3425:3858  {... */\n      pop\n        /* \"CharityDAO.sol\":3395:3858  function approveUser() public {... */\n      jump\t// out\n        /* \"CharityDAO.sol\":2035:2058  uint public rejectCount */\n    tag_103:\n      sload(0x07)\n      dup2\n      jump\t// out\n    tag_223:\n      dup3\n      dup1\n      sload\n      tag_313\n      swap1\n      tag_134\n      jump\t// in\n    tag_313:\n      swap1\n      0x00\n      mstore\n      keccak256(0x00, 0x20)\n      swap1\n      0x1f\n      add\n      0x20\n      swap1\n      div\n      dup2\n      add\n      swap3\n      dup3\n      tag_315\n      jumpi\n      0x00\n      dup6\n      sstore\n      jump(tag_314)\n    tag_315:\n      dup3\n      0x1f\n      lt\n      tag_316\n      jumpi\n      dup1\n      mload\n      not(0xff)\n      and\n      dup4\n      dup1\n      add\n      or\n      dup6\n      sstore\n      jump(tag_314)\n    tag_316:\n      dup3\n      dup1\n      add\n      0x01\n      add\n      dup6\n      sstore\n      dup3\n      iszero\n      tag_314\n      jumpi\n      swap2\n      dup3\n      add\n    tag_317:\n      dup3\n      dup2\n      gt\n      iszero\n      tag_318\n      jumpi\n      dup3\n      mload\n      dup3\n      sstore\n      swap2\n      0x20\n      add\n      swap2\n      swap1\n      0x01\n      add\n      swap1\n      jump(tag_317)\n    tag_318:\n    tag_314:\n      pop\n      swap1\n      pop\n      tag_319\n      swap2\n      swap1\n      tag_320\n      jump\t// in\n    tag_319:\n      pop\n      swap1\n      jump\t// out\n    tag_320:\n    tag_321:\n      dup1\n      dup3\n      gt\n      iszero\n      tag_322\n      jumpi\n      0x00\n      dup2\n      0x00\n      swap1\n      sstore\n      pop\n      0x01\n      add\n      jump(tag_321)\n    tag_322:\n      pop\n      swap1\n      jump\t// out\n        /* \"#utility.yul\":7:82   */\n    tag_323:\n        /* \"#utility.yul\":40:46   */\n      0x00\n        /* \"#utility.yul\":73:75   */\n      0x40\n        /* \"#utility.yul\":67:76   */\n      mload\n        /* \"#utility.yul\":57:76   */\n      swap1\n      pop\n        /* \"#utility.yul\":7:82   */\n      swap1\n      jump\t// out\n        /* \"#utility.yul\":88:205   */\n    tag_324:\n        /* \"#utility.yul\":197:198   */\n      0x00\n        /* \"#utility.yul\":194:195   */\n      dup1\n        /* \"#utility.yul\":187:199   */\n      revert\n        /* \"#utility.yul\":211:328   */\n    tag_325:\n        /* \"#utility.yul\":320:321   */\n      0x00\n        /* \"#utility.yul\":317:318   */\n      dup1\n        /* \"#utility.yul\":310:322   */\n      revert\n        /* \"#utility.yul\":334:411   */\n    tag_326:\n        /* \"#utility.yul\":371:378   */\n      0x00\n        /* \"#utility.yul\":400:405   */\n      dup2\n        /* \"#utility.yul\":389:405   */\n      swap1\n      pop\n        /* \"#utility.yul\":334:411   */\n      swap2\n      swap1\n      pop\n      jump\t// out\n        /* \"#utility.yul\":417:539   */\n    tag_327:\n        /* \"#utility.yul\":490:514   */\n      tag_367\n        /* \"#utility.yul\":508:513   */\n      dup2\n        /* \"#utility.yul\":490:514   */\n      tag_326\n      jump\t// in\n    tag_367:\n        /* \"#utility.yul\":483:488   */\n      dup2\n        /* \"#utility.yul\":480:515   */\n      eq\n        /* \"#utility.yul\":470:533   */\n      tag_368\n      jumpi\n        /* \"#utility.yul\":529:530   */\n      0x00\n        /* \"#utility.yul\":526:527   */\n      dup1\n        /* \"#utility.yul\":519:531   */\n      revert\n        /* \"#utility.yul\":470:533   */\n    tag_368:\n        /* \"#utility.yul\":417:539   */\n      pop\n      jump\t// out\n        /* \"#utility.yul\":545:684   */\n    tag_328:\n        /* \"#utility.yul\":591:596   */\n      0x00\n        /* \"#utility.yul\":629:635   */\n      dup2\n        /* \"#utility.yul\":616:636   */\n      calldataload\n        /* \"#utility.yul\":607:636   */\n      swap1\n      pop\n        /* \"#utility.yul\":645:678   */\n      tag_370\n        /* \"#utility.yul\":672:677   */\n      dup2\n        /* \"#utility.yul\":645:678   */\n      tag_327\n      jump\t// in\n    tag_370:\n        /* \"#utility.yul\":545:684   */\n      swap3\n      swap2\n      pop\n      pop\n      jump\t// out\n        /* \"#utility.yul\":690:1019   */\n    tag_30:\n        /* \"#utility.yul\":749:755   */\n      0x00\n        /* \"#utility.yul\":798:800   */\n      0x20\n        /* \"#utility.yul\":786:795   */\n      dup3\n        /* \"#utility.yul\":777:784   */\n      dup5\n        /* \"#utility.yul\":773:796   */\n      sub\n        /* \"#utility.yul\":769:801   */\n      slt\n        /* \"#utility.yul\":766:885   */\n      iszero\n      tag_372\n      jumpi\n        /* \"#utility.yul\":804:883   */\n      tag_373\n      tag_324\n      jump\t// in\n    tag_373:\n        /* \"#utility.yul\":766:885   */\n    tag_372:\n        /* \"#utility.yul\":924:925   */\n      0x00\n        /* \"#utility.yul\":949:1002   */\n      tag_374\n        /* \"#utility.yul\":994:1001   */\n      dup5\n        /* \"#utility.yul\":985:991   */\n      dup3\n        /* \"#utility.yul\":974:983   */\n      dup6\n        /* \"#utility.yul\":970:992   */\n      add\n        /* \"#utility.yul\":949:1002   */\n      tag_328\n      jump\t// in\n    tag_374:\n        /* \"#utility.yul\":939:1002   */\n      swap2\n      pop\n        /* \"#utility.yul\":895:1012   */\n      pop\n        /* \"#utility.yul\":690:1019   */\n      swap3\n      swap2\n      pop\n      pop\n      jump\t// out\n        /* \"#utility.yul\":1025:1124   */\n    tag_329:\n        /* \"#utility.yul\":1077:1083   */\n      0x00\n        /* \"#utility.yul\":1111:1116   */\n      dup2\n        /* \"#utility.yul\":1105:1117   */\n      mload\n        /* \"#utility.yul\":1095:1117   */\n      swap1\n      pop\n        /* \"#utility.yul\":1025:1124   */\n      swap2\n      swap1\n      pop\n      jump\t// out\n        /* \"#utility.yul\":1130:1299   */\n    tag_330:\n        /* \"#utility.yul\":1214:1225   */\n      0x00\n        /* \"#utility.yul\":1248:1254   */\n      dup3\n        /* \"#utility.yul\":1243:1246   */\n      dup3\n        /* \"#utility.yul\":1236:1255   */\n      mstore\n        /* \"#utility.yul\":1288:1292   */\n      0x20\n        /* \"#utility.yul\":1283:1286   */\n      dup3\n        /* \"#utility.yul\":1279:1293   */\n      add\n        /* \"#utility.yul\":1264:1293   */\n      swap1\n      pop\n        /* \"#utility.yul\":1130:1299   */\n      swap3\n      swap2\n      pop\n      pop\n      jump\t// out\n        /* \"#utility.yul\":1305:1612   */\n    tag_331:\n        /* \"#utility.yul\":1373:1374   */\n      0x00\n        /* \"#utility.yul\":1383:1496   */\n    tag_378:\n        /* \"#utility.yul\":1397:1403   */\n      dup4\n        /* \"#utility.yul\":1394:1395   */\n      dup2\n        /* \"#utility.yul\":1391:1404   */\n      lt\n        /* \"#utility.yul\":1383:1496   */\n      iszero\n      tag_380\n      jumpi\n        /* \"#utility.yul\":1482:1483   */\n      dup1\n        /* \"#utility.yul\":1477:1480   */\n      dup3\n        /* \"#utility.yul\":1473:1484   */\n      add\n        /* \"#utility.yul\":1467:1485   */\n      mload\n        /* \"#utility.yul\":1463:1464   */\n      dup2\n        /* \"#utility.yul\":1458:1461   */\n      dup5\n        /* \"#utility.yul\":1454:1465   */\n      add\n        /* \"#utility.yul\":1447:1486   */\n      mstore\n        /* \"#utility.yul\":1419:1421   */\n      0x20\n        /* \"#utility.yul\":1416:1417   */\n      dup2\n        /* \"#utility.yul\":1412:1422   */\n      add\n        /* \"#utility.yul\":1407:1422   */\n      swap1\n      pop\n        /* \"#utility.yul\":1383:1496   */\n      jump(tag_378)\n    tag_380:\n        /* \"#utility.yul\":1514:1520   */\n      dup4\n        /* \"#utility.yul\":1511:1512   */\n      dup2\n        /* \"#utility.yul\":1508:1521   */\n      gt\n        /* \"#utility.yul\":1505:1606   */\n      iszero\n      tag_381\n      jumpi\n        /* \"#utility.yul\":1594:1595   */\n      0x00\n        /* \"#utility.yul\":1585:1591   */\n      dup5\n        /* \"#utility.yul\":1580:1583   */\n      dup5\n        /* \"#utility.yul\":1576:1592   */\n      add\n        /* \"#utility.yul\":1569:1596   */\n      mstore\n        /* \"#utility.yul\":1505:1606   */\n    tag_381:\n        /* \"#utility.yul\":1354:1612   */\n      pop\n        /* \"#utility.yul\":1305:1612   */\n      pop\n      pop\n      pop\n      jump\t// out\n        /* \"#utility.yul\":1618:1720   */\n    tag_332:\n        /* \"#utility.yul\":1659:1665   */\n      0x00\n        /* \"#utility.yul\":1710:1712   */\n      0x1f\n        /* \"#utility.yul\":1706:1713   */\n      not\n        /* \"#utility.yul\":1701:1703   */\n      0x1f\n        /* \"#utility.yul\":1694:1699   */\n      dup4\n        /* \"#utility.yul\":1690:1704   */\n      add\n        /* \"#utility.yul\":1686:1714   */\n      and\n        /* \"#utility.yul\":1676:1714   */\n      swap1\n      pop\n        /* \"#utility.yul\":1618:1720   */\n      swap2\n      swap1\n      pop\n      jump\t// out\n        /* \"#utility.yul\":1726:2090   */\n    tag_333:\n        /* \"#utility.yul\":1814:1817   */\n      0x00\n        /* \"#utility.yul\":1842:1881   */\n      tag_384\n        /* \"#utility.yul\":1875:1880   */\n      dup3\n        /* \"#utility.yul\":1842:1881   */\n      tag_329\n      jump\t// in\n    tag_384:\n        /* \"#utility.yul\":1897:1968   */\n      tag_385\n        /* \"#utility.yul\":1961:1967   */\n      dup2\n        /* \"#utility.yul\":1956:1959   */\n      dup6\n        /* \"#utility.yul\":1897:1968   */\n      tag_330\n      jump\t// in\n    tag_385:\n        /* \"#utility.yul\":1890:1968   */\n      swap4\n      pop\n        /* \"#utility.yul\":1977:2029   */\n      tag_386\n        /* \"#utility.yul\":2022:2028   */\n      dup2\n        /* \"#utility.yul\":2017:2020   */\n      dup6\n        /* \"#utility.yul\":2010:2014   */\n      0x20\n        /* \"#utility.yul\":2003:2008   */\n      dup7\n        /* \"#utility.yul\":1999:2015   */\n      add\n        /* \"#utility.yul\":1977:2029   */\n      tag_331\n      jump\t// in\n    tag_386:\n        /* \"#utility.yul\":2054:2083   */\n      tag_387\n        /* \"#utility.yul\":2076:2082   */\n      dup2\n        /* \"#utility.yul\":2054:2083   */\n      tag_332\n      jump\t// in\n    tag_387:\n        /* \"#utility.yul\":2049:2052   */\n      dup5\n        /* \"#utility.yul\":2045:2084   */\n      add\n        /* \"#utility.yul\":2038:2084   */\n      swap2\n      pop\n        /* \"#utility.yul\":1818:2090   */\n      pop\n        /* \"#utility.yul\":1726:2090   */\n      swap3\n      swap2\n      pop\n      pop\n      jump\t// out\n        /* \"#utility.yul\":2096:2409   */\n    tag_35:\n        /* \"#utility.yul\":2209:2213   */\n      0x00\n        /* \"#utility.yul\":2247:2249   */\n      0x20\n        /* \"#utility.yul\":2236:2245   */\n      dup3\n        /* \"#utility.yul\":2232:2250   */\n      add\n        /* \"#utility.yul\":2224:2250   */\n      swap1\n      pop\n        /* \"#utility.yul\":2296:2305   */\n      dup2\n        /* \"#utility.yul\":2290:2294   */\n      dup2\n        /* \"#utility.yul\":2286:2306   */\n      sub\n        /* \"#utility.yul\":2282:2283   */\n      0x00\n        /* \"#utility.yul\":2271:2280   */\n      dup4\n        /* \"#utility.yul\":2267:2284   */\n      add\n        /* \"#utility.yul\":2260:2307   */\n      mstore\n        /* \"#utility.yul\":2324:2402   */\n      tag_389\n        /* \"#utility.yul\":2397:2401   */\n      dup2\n        /* \"#utility.yul\":2388:2394   */\n      dup5\n        /* \"#utility.yul\":2324:2402   */\n      tag_333\n      jump\t// in\n    tag_389:\n        /* \"#utility.yul\":2316:2402   */\n      swap1\n      pop\n        /* \"#utility.yul\":2096:2409   */\n      swap3\n      swap2\n      pop\n      pop\n      jump\t// out\n        /* \"#utility.yul\":2415:2541   */\n    tag_334:\n        /* \"#utility.yul\":2452:2459   */\n      0x00\n        /* \"#utility.yul\":2492:2534   */\n      0xffffffffffffffffffffffffffffffffffffffff\n        /* \"#utility.yul\":2485:2490   */\n      dup3\n        /* \"#utility.yul\":2481:2535   */\n      and\n        /* \"#utility.yul\":2470:2535   */\n      swap1\n      pop\n        /* \"#utility.yul\":2415:2541   */\n      swap2\n      swap1\n      pop\n      jump\t// out\n        /* \"#utility.yul\":2547:2651   */\n    tag_335:\n        /* \"#utility.yul\":2592:2599   */\n      0x00\n        /* \"#utility.yul\":2621:2645   */\n      tag_392\n        /* \"#utility.yul\":2639:2644   */\n      dup3\n        /* \"#utility.yul\":2621:2645   */\n      tag_334\n      jump\t// in\n    tag_392:\n        /* \"#utility.yul\":2610:2645   */\n      swap1\n      pop\n        /* \"#utility.yul\":2547:2651   */\n      swap2\n      swap1\n      pop\n      jump\t// out\n        /* \"#utility.yul\":2657:2799   */\n    tag_336:\n        /* \"#utility.yul\":2760:2792   */\n      tag_394\n        /* \"#utility.yul\":2786:2791   */\n      dup2\n        /* \"#utility.yul\":2760:2792   */\n      tag_335\n      jump\t// in\n    tag_394:\n        /* \"#utility.yul\":2755:2758   */\n      dup3\n        /* \"#utility.yul\":2748:2793   */\n      mstore\n        /* \"#utility.yul\":2657:2799   */\n      pop\n      pop\n      jump\t// out\n        /* \"#utility.yul\":2805:2895   */\n    tag_337:\n        /* \"#utility.yul\":2839:2846   */\n      0x00\n        /* \"#utility.yul\":2882:2887   */\n      dup2\n        /* \"#utility.yul\":2875:2888   */\n      iszero\n        /* \"#utility.yul\":2868:2889   */\n      iszero\n        /* \"#utility.yul\":2857:2889   */\n      swap1\n      pop\n        /* \"#utility.yul\":2805:2895   */\n      swap2\n      swap1\n      pop\n      jump\t// out\n        /* \"#utility.yul\":2901:3010   */\n    tag_338:\n        /* \"#utility.yul\":2982:3003   */\n      tag_397\n        /* \"#utility.yul\":2997:3002   */\n      dup2\n        /* \"#utility.yul\":2982:3003   */\n      tag_337\n      jump\t// in\n    tag_397:\n        /* \"#utility.yul\":2977:2980   */\n      dup3\n        /* \"#utility.yul\":2970:3004   */\n      mstore\n        /* \"#utility.yul\":2901:3010   */\n      pop\n      pop\n      jump\t// out\n        /* \"#utility.yul\":3016:3134   */\n    tag_339:\n        /* \"#utility.yul\":3103:3127   */\n      tag_399\n        /* \"#utility.yul\":3121:3126   */\n      dup2\n        /* \"#utility.yul\":3103:3127   */\n      tag_326\n      jump\t// in\n    tag_399:\n        /* \"#utility.yul\":3098:3101   */\n      dup3\n        /* \"#utility.yul\":3091:3128   */\n      mstore\n        /* \"#utility.yul\":3016:3134   */\n      pop\n      pop\n      jump\t// out\n        /* \"#utility.yul\":3140:5036   */\n    tag_40:\n        /* \"#utility.yul\":3641:3645   */\n      0x00\n        /* \"#utility.yul\":3679:3682   */\n      0x0180\n        /* \"#utility.yul\":3668:3677   */\n      dup3\n        /* \"#utility.yul\":3664:3683   */\n      add\n        /* \"#utility.yul\":3656:3683   */\n      swap1\n      pop\n        /* \"#utility.yul\":3729:3738   */\n      dup2\n        /* \"#utility.yul\":3723:3727   */\n      dup2\n        /* \"#utility.yul\":3719:3739   */\n      sub\n        /* \"#utility.yul\":3715:3716   */\n      0x00\n        /* \"#utility.yul\":3704:3713   */\n      dup4\n        /* \"#utility.yul\":3700:3717   */\n      add\n        /* \"#utility.yul\":3693:3740   */\n      mstore\n        /* \"#utility.yul\":3757:3835   */\n      tag_401\n        /* \"#utility.yul\":3830:3834   */\n      dup2\n        /* \"#utility.yul\":3821:3827   */\n      dup16\n        /* \"#utility.yul\":3757:3835   */\n      tag_333\n      jump\t// in\n    tag_401:\n        /* \"#utility.yul\":3749:3835   */\n      swap1\n      pop\n        /* \"#utility.yul\":3882:3891   */\n      dup2\n        /* \"#utility.yul\":3876:3880   */\n      dup2\n        /* \"#utility.yul\":3872:3892   */\n      sub\n        /* \"#utility.yul\":3867:3869   */\n      0x20\n        /* \"#utility.yul\":3856:3865   */\n      dup4\n        /* \"#utility.yul\":3852:3870   */\n      add\n        /* \"#utility.yul\":3845:3893   */\n      mstore\n        /* \"#utility.yul\":3910:3988   */\n      tag_402\n        /* \"#utility.yul\":3983:3987   */\n      dup2\n        /* \"#utility.yul\":3974:3980   */\n      dup15\n        /* \"#utility.yul\":3910:3988   */\n      tag_333\n      jump\t// in\n    tag_402:\n        /* \"#utility.yul\":3902:3988   */\n      swap1\n      pop\n        /* \"#utility.yul\":4035:4044   */\n      dup2\n        /* \"#utility.yul\":4029:4033   */\n      dup2\n        /* \"#utility.yul\":4025:4045   */\n      sub\n        /* \"#utility.yul\":4020:4022   */\n      0x40\n        /* \"#utility.yul\":4009:4018   */\n      dup4\n        /* \"#utility.yul\":4005:4023   */\n      add\n        /* \"#utility.yul\":3998:4046   */\n      mstore\n        /* \"#utility.yul\":4063:4141   */\n      tag_403\n        /* \"#utility.yul\":4136:4140   */\n      dup2\n        /* \"#utility.yul\":4127:4133   */\n      dup14\n        /* \"#utility.yul\":4063:4141   */\n      tag_333\n      jump\t// in\n    tag_403:\n        /* \"#utility.yul\":4055:4141   */\n      swap1\n      pop\n        /* \"#utility.yul\":4188:4197   */\n      dup2\n        /* \"#utility.yul\":4182:4186   */\n      dup2\n        /* \"#utility.yul\":4178:4198   */\n      sub\n        /* \"#utility.yul\":4173:4175   */\n      0x60\n        /* \"#utility.yul\":4162:4171   */\n      dup4\n        /* \"#utility.yul\":4158:4176   */\n      add\n        /* \"#utility.yul\":4151:4199   */\n      mstore\n        /* \"#utility.yul\":4216:4294   */\n      tag_404\n        /* \"#utility.yul\":4289:4293   */\n      dup2\n        /* \"#utility.yul\":4280:4286   */\n      dup13\n        /* \"#utility.yul\":4216:4294   */\n      tag_333\n      jump\t// in\n    tag_404:\n        /* \"#utility.yul\":4208:4294   */\n      swap1\n      pop\n        /* \"#utility.yul\":4342:4351   */\n      dup2\n        /* \"#utility.yul\":4336:4340   */\n      dup2\n        /* \"#utility.yul\":4332:4352   */\n      sub\n        /* \"#utility.yul\":4326:4329   */\n      0x80\n        /* \"#utility.yul\":4315:4324   */\n      dup4\n        /* \"#utility.yul\":4311:4330   */\n      add\n        /* \"#utility.yul\":4304:4353   */\n      mstore\n        /* \"#utility.yul\":4370:4448   */\n      tag_405\n        /* \"#utility.yul\":4443:4447   */\n      dup2\n        /* \"#utility.yul\":4434:4440   */\n      dup12\n        /* \"#utility.yul\":4370:4448   */\n      tag_333\n      jump\t// in\n    tag_405:\n        /* \"#utility.yul\":4362:4448   */\n      swap1\n      pop\n        /* \"#utility.yul\":4458:4547   */\n      tag_406\n        /* \"#utility.yul\":4542:4545   */\n      0xa0\n        /* \"#utility.yul\":4531:4540   */\n      dup4\n        /* \"#utility.yul\":4527:4546   */\n      add\n        /* \"#utility.yul\":4518:4524   */\n      dup11\n        /* \"#utility.yul\":4458:4547   */\n      tag_336\n      jump\t// in\n    tag_406:\n        /* \"#utility.yul\":4557:4624   */\n      tag_407\n        /* \"#utility.yul\":4619:4622   */\n      0xc0\n        /* \"#utility.yul\":4608:4617   */\n      dup4\n        /* \"#utility.yul\":4604:4623   */\n      add\n        /* \"#utility.yul\":4595:4601   */\n      dup10\n        /* \"#utility.yul\":4557:4624   */\n      tag_338\n      jump\t// in\n    tag_407:\n        /* \"#utility.yul\":4634:4707   */\n      tag_408\n        /* \"#utility.yul\":4702:4705   */\n      0xe0\n        /* \"#utility.yul\":4691:4700   */\n      dup4\n        /* \"#utility.yul\":4687:4706   */\n      add\n        /* \"#utility.yul\":4678:4684   */\n      dup9\n        /* \"#utility.yul\":4634:4707   */\n      tag_339\n      jump\t// in\n    tag_408:\n        /* \"#utility.yul\":4717:4790   */\n      tag_409\n        /* \"#utility.yul\":4785:4788   */\n      0x0100\n        /* \"#utility.yul\":4774:4783   */\n      dup4\n        /* \"#utility.yul\":4770:4789   */\n      add\n        /* \"#utility.yul\":4761:4767   */\n      dup8\n        /* \"#utility.yul\":4717:4790   */\n      tag_339\n      jump\t// in\n    tag_409:\n        /* \"#utility.yul\":4800:4873   */\n      tag_410\n        /* \"#utility.yul\":4868:4871   */\n      0x0120\n        /* \"#utility.yul\":4857:4866   */\n      dup4\n        /* \"#utility.yul\":4853:4872   */\n      add\n        /* \"#utility.yul\":4844:4850   */\n      dup7\n        /* \"#utility.yul\":4800:4873   */\n      tag_339\n      jump\t// in\n    tag_410:\n        /* \"#utility.yul\":4883:4951   */\n      tag_411\n        /* \"#utility.yul\":4946:4949   */\n      0x0140\n        /* \"#utility.yul\":4935:4944   */\n      dup4\n        /* \"#utility.yul\":4931:4950   */\n      add\n        /* \"#utility.yul\":4921:4928   */\n      dup6\n        /* \"#utility.yul\":4883:4951   */\n      tag_338\n      jump\t// in\n    tag_411:\n        /* \"#utility.yul\":4961:5029   */\n      tag_412\n        /* \"#utility.yul\":5024:5027   */\n      0x0160\n        /* \"#utility.yul\":5013:5022   */\n      dup4\n        /* \"#utility.yul\":5009:5028   */\n      add\n        /* \"#utility.yul\":4999:5006   */\n      dup5\n        /* \"#utility.yul\":4961:5029   */\n      tag_338\n      jump\t// in\n    tag_412:\n        /* \"#utility.yul\":3140:5036   */\n      swap14\n      swap13\n      pop\n      pop\n      pop\n      pop\n      pop\n      pop\n      pop\n      pop\n      pop\n      pop\n      pop\n      pop\n      pop\n      jump\t// out\n        /* \"#utility.yul\":5042:5252   */\n    tag_49:\n        /* \"#utility.yul\":5129:5133   */\n      0x00\n        /* \"#utility.yul\":5167:5169   */\n      0x20\n        /* \"#utility.yul\":5156:5165   */\n      dup3\n        /* \"#utility.yul\":5152:5170   */\n      add\n        /* \"#utility.yul\":5144:5170   */\n      swap1\n      pop\n        /* \"#utility.yul\":5180:5245   */\n      tag_414\n        /* \"#utility.yul\":5242:5243   */\n      0x00\n        /* \"#utility.yul\":5231:5240   */\n      dup4\n        /* \"#utility.yul\":5227:5244   */\n      add\n        /* \"#utility.yul\":5218:5224   */\n      dup5\n        /* \"#utility.yul\":5180:5245   */\n      tag_338\n      jump\t// in\n    tag_414:\n        /* \"#utility.yul\":5042:5252   */\n      swap3\n      swap2\n      pop\n      pop\n      jump\t// out\n        /* \"#utility.yul\":5258:5375   */\n    tag_340:\n        /* \"#utility.yul\":5367:5368   */\n      0x00\n        /* \"#utility.yul\":5364:5365   */\n      dup1\n        /* \"#utility.yul\":5357:5369   */\n      revert\n        /* \"#utility.yul\":5381:5498   */\n    tag_341:\n        /* \"#utility.yul\":5490:5491   */\n      0x00\n        /* \"#utility.yul\":5487:5488   */\n      dup1\n        /* \"#utility.yul\":5480:5492   */\n      revert\n        /* \"#utility.yul\":5504:5684   */\n    tag_342:\n        /* \"#utility.yul\":5552:5629   */\n      0x4e487b7100000000000000000000000000000000000000000000000000000000\n        /* \"#utility.yul\":5549:5550   */\n      0x00\n        /* \"#utility.yul\":5542:5630   */\n      mstore\n        /* \"#utility.yul\":5649:5653   */\n      0x41\n        /* \"#utility.yul\":5646:5647   */\n      0x04\n        /* \"#utility.yul\":5639:5654   */\n      mstore\n        /* \"#utility.yul\":5673:5677   */\n      0x24\n        /* \"#utility.yul\":5670:5671   */\n      0x00\n        /* \"#utility.yul\":5663:5678   */\n      revert\n        /* \"#utility.yul\":5690:5971   */\n    tag_343:\n        /* \"#utility.yul\":5773:5800   */\n      tag_419\n        /* \"#utility.yul\":5795:5799   */\n      dup3\n        /* \"#utility.yul\":5773:5800   */\n      tag_332\n      jump\t// in\n    tag_419:\n        /* \"#utility.yul\":5765:5771   */\n      dup2\n        /* \"#utility.yul\":5761:5801   */\n      add\n        /* \"#utility.yul\":5903:5909   */\n      dup2\n        /* \"#utility.yul\":5891:5901   */\n      dup2\n        /* \"#utility.yul\":5888:5910   */\n      lt\n        /* \"#utility.yul\":5867:5885   */\n      0xffffffffffffffff\n        /* \"#utility.yul\":5855:5865   */\n      dup3\n        /* \"#utility.yul\":5852:5886   */\n      gt\n        /* \"#utility.yul\":5849:5911   */\n      or\n        /* \"#utility.yul\":5846:5934   */\n      iszero\n      tag_420\n      jumpi\n        /* \"#utility.yul\":5914:5932   */\n      tag_421\n      tag_342\n      jump\t// in\n    tag_421:\n        /* \"#utility.yul\":5846:5934   */\n    tag_420:\n        /* \"#utility.yul\":5954:5964   */\n      dup1\n        /* \"#utility.yul\":5950:5952   */\n      0x40\n        /* \"#utility.yul\":5943:5965   */\n      mstore\n        /* \"#utility.yul\":5733:5971   */\n      pop\n        /* \"#utility.yul\":5690:5971   */\n      pop\n      pop\n      jump\t// out\n        /* \"#utility.yul\":5977:6106   */\n    tag_344:\n        /* \"#utility.yul\":6011:6017   */\n      0x00\n        /* \"#utility.yul\":6038:6058   */\n      tag_423\n      tag_323\n      jump\t// in\n    tag_423:\n        /* \"#utility.yul\":6028:6058   */\n      swap1\n      pop\n        /* \"#utility.yul\":6067:6100   */\n      tag_424\n        /* \"#utility.yul\":6095:6099   */\n      dup3\n        /* \"#utility.yul\":6087:6093   */\n      dup3\n        /* \"#utility.yul\":6067:6100   */\n      tag_343\n      jump\t// in\n    tag_424:\n        /* \"#utility.yul\":5977:6106   */\n      swap2\n      swap1\n      pop\n      jump\t// out\n        /* \"#utility.yul\":6112:6420   */\n    tag_345:\n        /* \"#utility.yul\":6174:6178   */\n      0x00\n        /* \"#utility.yul\":6264:6282   */\n      0xffffffffffffffff\n        /* \"#utility.yul\":6256:6262   */\n      dup3\n        /* \"#utility.yul\":6253:6283   */\n      gt\n        /* \"#utility.yul\":6250:6306   */\n      iszero\n      tag_426\n      jumpi\n        /* \"#utility.yul\":6286:6304   */\n      tag_427\n      tag_342\n      jump\t// in\n    tag_427:\n        /* \"#utility.yul\":6250:6306   */\n    tag_426:\n        /* \"#utility.yul\":6324:6353   */\n      tag_428\n        /* \"#utility.yul\":6346:6352   */\n      dup3\n        /* \"#utility.yul\":6324:6353   */\n      tag_332\n      jump\t// in\n    tag_428:\n        /* \"#utility.yul\":6316:6353   */\n      swap1\n      pop\n        /* \"#utility.yul\":6408:6412   */\n      0x20\n        /* \"#utility.yul\":6402:6406   */\n      dup2\n        /* \"#utility.yul\":6398:6413   */\n      add\n        /* \"#utility.yul\":6390:6413   */\n      swap1\n      pop\n        /* \"#utility.yul\":6112:6420   */\n      swap2\n      swap1\n      pop\n      jump\t// out\n        /* \"#utility.yul\":6426:6580   */\n    tag_346:\n        /* \"#utility.yul\":6510:6516   */\n      dup3\n        /* \"#utility.yul\":6505:6508   */\n      dup2\n        /* \"#utility.yul\":6500:6503   */\n      dup4\n        /* \"#utility.yul\":6487:6517   */\n      calldatacopy\n        /* \"#utility.yul\":6572:6573   */\n      0x00\n        /* \"#utility.yul\":6563:6569   */\n      dup4\n        /* \"#utility.yul\":6558:6561   */\n      dup4\n        /* \"#utility.yul\":6554:6570   */\n      add\n        /* \"#utility.yul\":6547:6574   */\n      mstore\n        /* \"#utility.yul\":6426:6580   */\n      pop\n      pop\n      pop\n      jump\t// out\n        /* \"#utility.yul\":6586:6998   */\n    tag_347:\n        /* \"#utility.yul\":6664:6669   */\n      0x00\n        /* \"#utility.yul\":6689:6755   */\n      tag_431\n        /* \"#utility.yul\":6705:6754   */\n      tag_432\n        /* \"#utility.yul\":6747:6753   */\n      dup5\n        /* \"#utility.yul\":6705:6754   */\n      tag_345\n      jump\t// in\n    tag_432:\n        /* \"#utility.yul\":6689:6755   */\n      tag_344\n      jump\t// in\n    tag_431:\n        /* \"#utility.yul\":6680:6755   */\n      swap1\n      pop\n        /* \"#utility.yul\":6778:6784   */\n      dup3\n        /* \"#utility.yul\":6771:6776   */\n      dup2\n        /* \"#utility.yul\":6764:6785   */\n      mstore\n        /* \"#utility.yul\":6816:6820   */\n      0x20\n        /* \"#utility.yul\":6809:6814   */\n      dup2\n        /* \"#utility.yul\":6805:6821   */\n      add\n        /* \"#utility.yul\":6854:6857   */\n      dup5\n        /* \"#utility.yul\":6845:6851   */\n      dup5\n        /* \"#utility.yul\":6840:6843   */\n      dup5\n        /* \"#utility.yul\":6836:6852   */\n      add\n        /* \"#utility.yul\":6833:6858   */\n      gt\n        /* \"#utility.yul\":6830:6942   */\n      iszero\n      tag_433\n      jumpi\n        /* \"#utility.yul\":6861:6940   */\n      tag_434\n      tag_341\n      jump\t// in\n    tag_434:\n        /* \"#utility.yul\":6830:6942   */\n    tag_433:\n        /* \"#utility.yul\":6951:6992   */\n      tag_435\n        /* \"#utility.yul\":6985:6991   */\n      dup5\n        /* \"#utility.yul\":6980:6983   */\n      dup3\n        /* \"#utility.yul\":6975:6978   */\n      dup6\n        /* \"#utility.yul\":6951:6992   */\n      tag_346\n      jump\t// in\n    tag_435:\n        /* \"#utility.yul\":6670:6998   */\n      pop\n        /* \"#utility.yul\":6586:6998   */\n      swap4\n      swap3\n      pop\n      pop\n      pop\n      jump\t// out\n        /* \"#utility.yul\":7018:7358   */\n    tag_348:\n        /* \"#utility.yul\":7074:7079   */\n      0x00\n        /* \"#utility.yul\":7123:7126   */\n      dup3\n        /* \"#utility.yul\":7116:7120   */\n      0x1f\n        /* \"#utility.yul\":7108:7114   */\n      dup4\n        /* \"#utility.yul\":7104:7121   */\n      add\n        /* \"#utility.yul\":7100:7127   */\n      slt\n        /* \"#utility.yul\":7090:7212   */\n      tag_437\n      jumpi\n        /* \"#utility.yul\":7131:7210   */\n      tag_438\n      tag_340\n      jump\t// in\n    tag_438:\n        /* \"#utility.yul\":7090:7212   */\n    tag_437:\n        /* \"#utility.yul\":7248:7254   */\n      dup2\n        /* \"#utility.yul\":7235:7255   */\n      calldataload\n        /* \"#utility.yul\":7273:7352   */\n      tag_439\n        /* \"#utility.yul\":7348:7351   */\n      dup5\n        /* \"#utility.yul\":7340:7346   */\n      dup3\n        /* \"#utility.yul\":7333:7337   */\n      0x20\n        /* \"#utility.yul\":7325:7331   */\n      dup7\n        /* \"#utility.yul\":7321:7338   */\n      add\n        /* \"#utility.yul\":7273:7352   */\n      tag_347\n      jump\t// in\n    tag_439:\n        /* \"#utility.yul\":7264:7352   */\n      swap2\n      pop\n        /* \"#utility.yul\":7080:7358   */\n      pop\n        /* \"#utility.yul\":7018:7358   */\n      swap3\n      swap2\n      pop\n      pop\n      jump\t// out\n        /* \"#utility.yul\":7364:7502   */\n    tag_349:\n        /* \"#utility.yul\":7445:7477   */\n      tag_441\n        /* \"#utility.yul\":7471:7476   */\n      dup2\n        /* \"#utility.yul\":7445:7477   */\n      tag_335\n      jump\t// in\n    tag_441:\n        /* \"#utility.yul\":7438:7443   */\n      dup2\n        /* \"#utility.yul\":7435:7478   */\n      eq\n        /* \"#utility.yul\":7425:7496   */\n      tag_442\n      jumpi\n        /* \"#utility.yul\":7492:7493   */\n      0x00\n        /* \"#utility.yul\":7489:7490   */\n      dup1\n        /* \"#utility.yul\":7482:7494   */\n      revert\n        /* \"#utility.yul\":7425:7496   */\n    tag_442:\n        /* \"#utility.yul\":7364:7502   */\n      pop\n      jump\t// out\n        /* \"#utility.yul\":7508:7663   */\n    tag_350:\n        /* \"#utility.yul\":7562:7567   */\n      0x00\n        /* \"#utility.yul\":7600:7606   */\n      dup2\n        /* \"#utility.yul\":7587:7607   */\n      calldataload\n        /* \"#utility.yul\":7578:7607   */\n      swap1\n      pop\n        /* \"#utility.yul\":7616:7657   */\n      tag_444\n        /* \"#utility.yul\":7651:7656   */\n      dup2\n        /* \"#utility.yul\":7616:7657   */\n      tag_349\n      jump\t// in\n    tag_444:\n        /* \"#utility.yul\":7508:7663   */\n      swap3\n      swap2\n      pop\n      pop\n      jump\t// out\n        /* \"#utility.yul\":7669:9788   */\n    tag_55:\n        /* \"#utility.yul\":7840:7846   */\n      0x00\n        /* \"#utility.yul\":7848:7854   */\n      dup1\n        /* \"#utility.yul\":7856:7862   */\n      0x00\n        /* \"#utility.yul\":7864:7870   */\n      dup1\n        /* \"#utility.yul\":7872:7878   */\n      0x00\n        /* \"#utility.yul\":7880:7886   */\n      dup1\n        /* \"#utility.yul\":7888:7894   */\n      0x00\n        /* \"#utility.yul\":7937:7940   */\n      0xe0\n        /* \"#utility.yul\":7925:7934   */\n      dup9\n        /* \"#utility.yul\":7916:7923   */\n      dup11\n        /* \"#utility.yul\":7912:7935   */\n      sub\n        /* \"#utility.yul\":7908:7941   */\n      slt\n        /* \"#utility.yul\":7905:8025   */\n      iszero\n      tag_446\n      jumpi\n        /* \"#utility.yul\":7944:8023   */\n      tag_447\n      tag_324\n      jump\t// in\n    tag_447:\n        /* \"#utility.yul\":7905:8025   */\n    tag_446:\n        /* \"#utility.yul\":8092:8093   */\n      0x00\n        /* \"#utility.yul\":8081:8090   */\n      dup9\n        /* \"#utility.yul\":8077:8094   */\n      add\n        /* \"#utility.yul\":8064:8095   */\n      calldataload\n        /* \"#utility.yul\":8122:8140   */\n      0xffffffffffffffff\n        /* \"#utility.yul\":8114:8120   */\n      dup2\n        /* \"#utility.yul\":8111:8141   */\n      gt\n        /* \"#utility.yul\":8108:8225   */\n      iszero\n      tag_448\n      jumpi\n        /* \"#utility.yul\":8144:8223   */\n      tag_449\n      tag_325\n      jump\t// in\n    tag_449:\n        /* \"#utility.yul\":8108:8225   */\n    tag_448:\n        /* \"#utility.yul\":8249:8312   */\n      tag_450\n        /* \"#utility.yul\":8304:8311   */\n      dup11\n        /* \"#utility.yul\":8295:8301   */\n      dup3\n        /* \"#utility.yul\":8284:8293   */\n      dup12\n        /* \"#utility.yul\":8280:8302   */\n      add\n        /* \"#utility.yul\":8249:8312   */\n      tag_348\n      jump\t// in\n    tag_450:\n        /* \"#utility.yul\":8239:8312   */\n      swap8\n      pop\n        /* \"#utility.yul\":8035:8322   */\n      pop\n        /* \"#utility.yul\":8389:8391   */\n      0x20\n        /* \"#utility.yul\":8378:8387   */\n      dup9\n        /* \"#utility.yul\":8374:8392   */\n      add\n        /* \"#utility.yul\":8361:8393   */\n      calldataload\n        /* \"#utility.yul\":8420:8438   */\n      0xffffffffffffffff\n        /* \"#utility.yul\":8412:8418   */\n      dup2\n        /* \"#utility.yul\":8409:8439   */\n      gt\n        /* \"#utility.yul\":8406:8523   */\n      iszero\n      tag_451\n      jumpi\n        /* \"#utility.yul\":8442:8521   */\n      tag_452\n      tag_325\n      jump\t// in\n    tag_452:\n        /* \"#utility.yul\":8406:8523   */\n    tag_451:\n        /* \"#utility.yul\":8547:8610   */\n      tag_453\n        /* \"#utility.yul\":8602:8609   */\n      dup11\n        /* \"#utility.yul\":8593:8599   */\n      dup3\n        /* \"#utility.yul\":8582:8591   */\n      dup12\n        /* \"#utility.yul\":8578:8600   */\n      add\n        /* \"#utility.yul\":8547:8610   */\n      tag_348\n      jump\t// in\n    tag_453:\n        /* \"#utility.yul\":8537:8610   */\n      swap7\n      pop\n        /* \"#utility.yul\":8332:8620   */\n      pop\n        /* \"#utility.yul\":8687:8689   */\n      0x40\n        /* \"#utility.yul\":8676:8685   */\n      dup9\n        /* \"#utility.yul\":8672:8690   */\n      add\n        /* \"#utility.yul\":8659:8691   */\n      calldataload\n        /* \"#utility.yul\":8718:8736   */\n      0xffffffffffffffff\n        /* \"#utility.yul\":8710:8716   */\n      dup2\n        /* \"#utility.yul\":8707:8737   */\n      gt\n        /* \"#utility.yul\":8704:8821   */\n      iszero\n      tag_454\n      jumpi\n        /* \"#utility.yul\":8740:8819   */\n      tag_455\n      tag_325\n      jump\t// in\n    tag_455:\n        /* \"#utility.yul\":8704:8821   */\n    tag_454:\n        /* \"#utility.yul\":8845:8908   */\n      tag_456\n        /* \"#utility.yul\":8900:8907   */\n      dup11\n        /* \"#utility.yul\":8891:8897   */\n      dup3\n        /* \"#utility.yul\":8880:8889   */\n      dup12\n        /* \"#utility.yul\":8876:8898   */\n      add\n        /* \"#utility.yul\":8845:8908   */\n      tag_348\n      jump\t// in\n    tag_456:\n        /* \"#utility.yul\":8835:8908   */\n      swap6\n      pop\n        /* \"#utility.yul\":8630:8918   */\n      pop\n        /* \"#utility.yul\":8985:8987   */\n      0x60\n        /* \"#utility.yul\":8974:8983   */\n      dup9\n        /* \"#utility.yul\":8970:8988   */\n      add\n        /* \"#utility.yul\":8957:8989   */\n      calldataload\n        /* \"#utility.yul\":9016:9034   */\n      0xffffffffffffffff\n        /* \"#utility.yul\":9008:9014   */\n      dup2\n        /* \"#utility.yul\":9005:9035   */\n      gt\n        /* \"#utility.yul\":9002:9119   */\n      iszero\n      tag_457\n      jumpi\n        /* \"#utility.yul\":9038:9117   */\n      tag_458\n      tag_325\n      jump\t// in\n    tag_458:\n        /* \"#utility.yul\":9002:9119   */\n    tag_457:\n        /* \"#utility.yul\":9143:9206   */\n      tag_459\n        /* \"#utility.yul\":9198:9205   */\n      dup11\n        /* \"#utility.yul\":9189:9195   */\n      dup3\n        /* \"#utility.yul\":9178:9187   */\n      dup12\n        /* \"#utility.yul\":9174:9196   */\n      add\n        /* \"#utility.yul\":9143:9206   */\n      tag_348\n      jump\t// in\n    tag_459:\n        /* \"#utility.yul\":9133:9206   */\n      swap5\n      pop\n        /* \"#utility.yul\":8928:9216   */\n      pop\n        /* \"#utility.yul\":9283:9286   */\n      0x80\n        /* \"#utility.yul\":9272:9281   */\n      dup9\n        /* \"#utility.yul\":9268:9287   */\n      add\n        /* \"#utility.yul\":9255:9288   */\n      calldataload\n        /* \"#utility.yul\":9315:9333   */\n      0xffffffffffffffff\n        /* \"#utility.yul\":9307:9313   */\n      dup2\n        /* \"#utility.yul\":9304:9334   */\n      gt\n        /* \"#utility.yul\":9301:9418   */\n      iszero\n      tag_460\n      jumpi\n        /* \"#utility.yul\":9337:9416   */\n      tag_461\n      tag_325\n      jump\t// in\n    tag_461:\n        /* \"#utility.yul\":9301:9418   */\n    tag_460:\n        /* \"#utility.yul\":9442:9505   */\n      tag_462\n        /* \"#utility.yul\":9497:9504   */\n      dup11\n        /* \"#utility.yul\":9488:9494   */\n      dup3\n        /* \"#utility.yul\":9477:9486   */\n      dup12\n        /* \"#utility.yul\":9473:9495   */\n      add\n        /* \"#utility.yul\":9442:9505   */\n      tag_348\n      jump\t// in\n    tag_462:\n        /* \"#utility.yul\":9432:9505   */\n      swap4\n      pop\n        /* \"#utility.yul\":9226:9515   */\n      pop\n        /* \"#utility.yul\":9554:9557   */\n      0xa0\n        /* \"#utility.yul\":9581:9642   */\n      tag_463\n        /* \"#utility.yul\":9634:9641   */\n      dup11\n        /* \"#utility.yul\":9625:9631   */\n      dup3\n        /* \"#utility.yul\":9614:9623   */\n      dup12\n        /* \"#utility.yul\":9610:9632   */\n      add\n        /* \"#utility.yul\":9581:9642   */\n      tag_350\n      jump\t// in\n    tag_463:\n        /* \"#utility.yul\":9571:9642   */\n      swap3\n      pop\n        /* \"#utility.yul\":9525:9652   */\n      pop\n        /* \"#utility.yul\":9691:9694   */\n      0xc0\n        /* \"#utility.yul\":9718:9771   */\n      tag_464\n        /* \"#utility.yul\":9763:9770   */\n      dup11\n        /* \"#utility.yul\":9754:9760   */\n      dup3\n        /* \"#utility.yul\":9743:9752   */\n      dup12\n        /* \"#utility.yul\":9739:9761   */\n      add\n        /* \"#utility.yul\":9718:9771   */\n      tag_328\n      jump\t// in\n    tag_464:\n        /* \"#utility.yul\":9708:9771   */\n      swap2\n      pop\n        /* \"#utility.yul\":9662:9781   */\n      pop\n        /* \"#utility.yul\":7669:9788   */\n      swap3\n      swap6\n      swap9\n      swap2\n      swap5\n      swap8\n      pop\n      swap3\n      swap6\n      pop\n      jump\t// out\n        /* \"#utility.yul\":9794:10016   */\n    tag_63:\n        /* \"#utility.yul\":9887:9891   */\n      0x00\n        /* \"#utility.yul\":9925:9927   */\n      0x20\n        /* \"#utility.yul\":9914:9923   */\n      dup3\n        /* \"#utility.yul\":9910:9928   */\n      add\n        /* \"#utility.yul\":9902:9928   */\n      swap1\n      pop\n        /* \"#utility.yul\":9938:10009   */\n      tag_466\n        /* \"#utility.yul\":10006:10007   */\n      0x00\n        /* \"#utility.yul\":9995:10004   */\n      dup4\n        /* \"#utility.yul\":9991:10008   */\n      add\n        /* \"#utility.yul\":9982:9988   */\n      dup5\n        /* \"#utility.yul\":9938:10009   */\n      tag_339\n      jump\t// in\n    tag_466:\n        /* \"#utility.yul\":9794:10016   */\n      swap3\n      swap2\n      pop\n      pop\n      jump\t// out\n        /* \"#utility.yul\":10022:10118   */\n    tag_351:\n        /* \"#utility.yul\":10059:10066   */\n      0x00\n        /* \"#utility.yul\":10088:10112   */\n      tag_468\n        /* \"#utility.yul\":10106:10111   */\n      dup3\n        /* \"#utility.yul\":10088:10112   */\n      tag_334\n      jump\t// in\n    tag_468:\n        /* \"#utility.yul\":10077:10112   */\n      swap1\n      pop\n        /* \"#utility.yul\":10022:10118   */\n      swap2\n      swap1\n      pop\n      jump\t// out\n        /* \"#utility.yul\":10124:10246   */\n    tag_352:\n        /* \"#utility.yul\":10197:10221   */\n      tag_470\n        /* \"#utility.yul\":10215:10220   */\n      dup2\n        /* \"#utility.yul\":10197:10221   */\n      tag_351\n      jump\t// in\n    tag_470:\n        /* \"#utility.yul\":10190:10195   */\n      dup2\n        /* \"#utility.yul\":10187:10222   */\n      eq\n        /* \"#utility.yul\":10177:10240   */\n      tag_471\n      jumpi\n        /* \"#utility.yul\":10236:10237   */\n      0x00\n        /* \"#utility.yul\":10233:10234   */\n      dup1\n        /* \"#utility.yul\":10226:10238   */\n      revert\n        /* \"#utility.yul\":10177:10240   */\n    tag_471:\n        /* \"#utility.yul\":10124:10246   */\n      pop\n      jump\t// out\n        /* \"#utility.yul\":10252:10391   */\n    tag_353:\n        /* \"#utility.yul\":10298:10303   */\n      0x00\n        /* \"#utility.yul\":10336:10342   */\n      dup2\n        /* \"#utility.yul\":10323:10343   */\n      calldataload\n        /* \"#utility.yul\":10314:10343   */\n      swap1\n      pop\n        /* \"#utility.yul\":10352:10385   */\n      tag_473\n        /* \"#utility.yul\":10379:10384   */\n      dup2\n        /* \"#utility.yul\":10352:10385   */\n      tag_352\n      jump\t// in\n    tag_473:\n        /* \"#utility.yul\":10252:10391   */\n      swap3\n      swap2\n      pop\n      pop\n      jump\t// out\n        /* \"#utility.yul\":10397:10726   */\n    tag_86:\n        /* \"#utility.yul\":10456:10462   */\n      0x00\n        /* \"#utility.yul\":10505:10507   */\n      0x20\n        /* \"#utility.yul\":10493:10502   */\n      dup3\n        /* \"#utility.yul\":10484:10491   */\n      dup5\n        /* \"#utility.yul\":10480:10503   */\n      sub\n        /* \"#utility.yul\":10476:10508   */\n      slt\n        /* \"#utility.yul\":10473:10592   */\n      iszero\n      tag_475\n      jumpi\n        /* \"#utility.yul\":10511:10590   */\n      tag_476\n      tag_324\n      jump\t// in\n    tag_476:\n        /* \"#utility.yul\":10473:10592   */\n    tag_475:\n        /* \"#utility.yul\":10631:10632   */\n      0x00\n        /* \"#utility.yul\":10656:10709   */\n      tag_477\n        /* \"#utility.yul\":10701:10708   */\n      dup5\n        /* \"#utility.yul\":10692:10698   */\n      dup3\n        /* \"#utility.yul\":10681:10690   */\n      dup6\n        /* \"#utility.yul\":10677:10699   */\n      add\n        /* \"#utility.yul\":10656:10709   */\n      tag_353\n      jump\t// in\n    tag_477:\n        /* \"#utility.yul\":10646:10709   */\n      swap2\n      pop\n        /* \"#utility.yul\":10602:10719   */\n      pop\n        /* \"#utility.yul\":10397:10726   */\n      swap3\n      swap2\n      pop\n      pop\n      jump\t// out\n        /* \"#utility.yul\":10732:10850   */\n    tag_354:\n        /* \"#utility.yul\":10819:10843   */\n      tag_479\n        /* \"#utility.yul\":10837:10842   */\n      dup2\n        /* \"#utility.yul\":10819:10843   */\n      tag_351\n      jump\t// in\n    tag_479:\n        /* \"#utility.yul\":10814:10817   */\n      dup3\n        /* \"#utility.yul\":10807:10844   */\n      mstore\n        /* \"#utility.yul\":10732:10850   */\n      pop\n      pop\n      jump\t// out\n        /* \"#utility.yul\":10856:11078   */\n    tag_96:\n        /* \"#utility.yul\":10949:10953   */\n      0x00\n        /* \"#utility.yul\":10987:10989   */\n      0x20\n        /* \"#utility.yul\":10976:10985   */\n      dup3\n        /* \"#utility.yul\":10972:10990   */\n      add\n        /* \"#utility.yul\":10964:10990   */\n      swap1\n      pop\n        /* \"#utility.yul\":11000:11071   */\n      tag_481\n        /* \"#utility.yul\":11068:11069   */\n      0x00\n        /* \"#utility.yul\":11057:11066   */\n      dup4\n        /* \"#utility.yul\":11053:11070   */\n      add\n        /* \"#utility.yul\":11044:11050   */\n      dup5\n        /* \"#utility.yul\":11000:11071   */\n      tag_354\n      jump\t// in\n    tag_481:\n        /* \"#utility.yul\":10856:11078   */\n      swap3\n      swap2\n      pop\n      pop\n      jump\t// out\n        /* \"#utility.yul\":11084:11200   */\n    tag_355:\n        /* \"#utility.yul\":11154:11175   */\n      tag_483\n        /* \"#utility.yul\":11169:11174   */\n      dup2\n        /* \"#utility.yul\":11154:11175   */\n      tag_337\n      jump\t// in\n    tag_483:\n        /* \"#utility.yul\":11147:11152   */\n      dup2\n        /* \"#utility.yul\":11144:11176   */\n      eq\n        /* \"#utility.yul\":11134:11194   */\n      tag_484\n      jumpi\n        /* \"#utility.yul\":11190:11191   */\n      0x00\n        /* \"#utility.yul\":11187:11188   */\n      dup1\n        /* \"#utility.yul\":11180:11192   */\n      revert\n        /* \"#utility.yul\":11134:11194   */\n    tag_484:\n        /* \"#utility.yul\":11084:11200   */\n      pop\n      jump\t// out\n        /* \"#utility.yul\":11206:11343   */\n    tag_356:\n        /* \"#utility.yul\":11260:11265   */\n      0x00\n        /* \"#utility.yul\":11291:11297   */\n      dup2\n        /* \"#utility.yul\":11285:11298   */\n      mload\n        /* \"#utility.yul\":11276:11298   */\n      swap1\n      pop\n        /* \"#utility.yul\":11307:11337   */\n      tag_486\n        /* \"#utility.yul\":11331:11336   */\n      dup2\n        /* \"#utility.yul\":11307:11337   */\n      tag_355\n      jump\t// in\n    tag_486:\n        /* \"#utility.yul\":11206:11343   */\n      swap3\n      swap2\n      pop\n      pop\n      jump\t// out\n        /* \"#utility.yul\":11349:11694   */\n    tag_111:\n        /* \"#utility.yul\":11416:11422   */\n      0x00\n        /* \"#utility.yul\":11465:11467   */\n      0x20\n        /* \"#utility.yul\":11453:11462   */\n      dup3\n        /* \"#utility.yul\":11444:11451   */\n      dup5\n        /* \"#utility.yul\":11440:11463   */\n      sub\n        /* \"#utility.yul\":11436:11468   */\n      slt\n        /* \"#utility.yul\":11433:11552   */\n      iszero\n      tag_488\n      jumpi\n        /* \"#utility.yul\":11471:11550   */\n      tag_489\n      tag_324\n      jump\t// in\n    tag_489:\n        /* \"#utility.yul\":11433:11552   */\n    tag_488:\n        /* \"#utility.yul\":11591:11592   */\n      0x00\n        /* \"#utility.yul\":11616:11677   */\n      tag_490\n        /* \"#utility.yul\":11669:11676   */\n      dup5\n        /* \"#utility.yul\":11660:11666   */\n      dup3\n        /* \"#utility.yul\":11649:11658   */\n      dup6\n        /* \"#utility.yul\":11645:11667   */\n      add\n        /* \"#utility.yul\":11616:11677   */\n      tag_356\n      jump\t// in\n    tag_490:\n        /* \"#utility.yul\":11606:11677   */\n      swap2\n      pop\n        /* \"#utility.yul\":11562:11687   */\n      pop\n        /* \"#utility.yul\":11349:11694   */\n      swap3\n      swap2\n      pop\n      pop\n      jump\t// out\n        /* \"#utility.yul\":11700:11880   */\n    tag_357:\n        /* \"#utility.yul\":11748:11825   */\n      0x4e487b7100000000000000000000000000000000000000000000000000000000\n        /* \"#utility.yul\":11745:11746   */\n      0x00\n        /* \"#utility.yul\":11738:11826   */\n      mstore\n        /* \"#utility.yul\":11845:11849   */\n      0x11\n        /* \"#utility.yul\":11842:11843   */\n      0x04\n        /* \"#utility.yul\":11835:11850   */\n      mstore\n        /* \"#utility.yul\":11869:11873   */\n      0x24\n        /* \"#utility.yul\":11866:11867   */\n      0x00\n        /* \"#utility.yul\":11859:11874   */\n      revert\n        /* \"#utility.yul\":11886:12119   */\n    tag_124:\n        /* \"#utility.yul\":11925:11928   */\n      0x00\n        /* \"#utility.yul\":11948:11972   */\n      tag_493\n        /* \"#utility.yul\":11966:11971   */\n      dup3\n        /* \"#utility.yul\":11948:11972   */\n      tag_326\n      jump\t// in\n    tag_493:\n        /* \"#utility.yul\":11939:11972   */\n      swap2\n      pop\n        /* \"#utility.yul\":11994:12060   */\n      0xffffffffffffffffffffffffffffffffffffffffffffffffffffffffffffffff\n        /* \"#utility.yul\":11987:11992   */\n      dup3\n        /* \"#utility.yul\":11984:12061   */\n      eq\n        /* \"#utility.yul\":11981:12084   */\n      iszero\n      tag_494\n      jumpi\n        /* \"#utility.yul\":12064:12082   */\n      tag_495\n      tag_357\n      jump\t// in\n    tag_495:\n        /* \"#utility.yul\":11981:12084   */\n    tag_494:\n        /* \"#utility.yul\":12111:12112   */\n      0x01\n        /* \"#utility.yul\":12104:12109   */\n      dup3\n        /* \"#utility.yul\":12100:12113   */\n      add\n        /* \"#utility.yul\":12093:12113   */\n      swap1\n      pop\n        /* \"#utility.yul\":11886:12119   */\n      swap2\n      swap1\n      pop\n      jump\t// out\n        /* \"#utility.yul\":12125:12268   */\n    tag_358:\n        /* \"#utility.yul\":12182:12187   */\n      0x00\n        /* \"#utility.yul\":12213:12219   */\n      dup2\n        /* \"#utility.yul\":12207:12220   */\n      mload\n        /* \"#utility.yul\":12198:12220   */\n      swap1\n      pop\n        /* \"#utility.yul\":12229:12262   */\n      tag_497\n        /* \"#utility.yul\":12256:12261   */\n      dup2\n        /* \"#utility.yul\":12229:12262   */\n      tag_327\n      jump\t// in\n    tag_497:\n        /* \"#utility.yul\":12125:12268   */\n      swap3\n      swap2\n      pop\n      pop\n      jump\t// out\n        /* \"#utility.yul\":12274:12625   */\n    tag_129:\n        /* \"#utility.yul\":12344:12350   */\n      0x00\n        /* \"#utility.yul\":12393:12395   */\n      0x20\n        /* \"#utility.yul\":12381:12390   */\n      dup3\n        /* \"#utility.yul\":12372:12379   */\n      dup5\n        /* \"#utility.yul\":12368:12391   */\n      sub\n        /* \"#utility.yul\":12364:12396   */\n      slt\n        /* \"#utility.yul\":12361:12480   */\n      iszero\n      tag_499\n      jumpi\n        /* \"#utility.yul\":12399:12478   */\n      tag_500\n      tag_324\n      jump\t// in\n    tag_500:\n        /* \"#utility.yul\":12361:12480   */\n    tag_499:\n        /* \"#utility.yul\":12519:12520   */\n      0x00\n        /* \"#utility.yul\":12544:12608   */\n      tag_501\n        /* \"#utility.yul\":12600:12607   */\n      dup5\n        /* \"#utility.yul\":12591:12597   */\n      dup3\n        /* \"#utility.yul\":12580:12589   */\n      dup6\n        /* \"#utility.yul\":12576:12598   */\n      add\n        /* \"#utility.yul\":12544:12608   */\n      tag_358\n      jump\t// in\n    tag_501:\n        /* \"#utility.yul\":12534:12608   */\n      swap2\n      pop\n        /* \"#utility.yul\":12490:12618   */\n      pop\n        /* \"#utility.yul\":12274:12625   */\n      swap3\n      swap2\n      pop\n      pop\n      jump\t// out\n        /* \"#utility.yul\":12631:12811   */\n    tag_359:\n        /* \"#utility.yul\":12679:12756   */\n      0x4e487b7100000000000000000000000000000000000000000000000000000000\n        /* \"#utility.yul\":12676:12677   */\n      0x00\n        /* \"#utility.yul\":12669:12757   */\n      mstore\n        /* \"#utility.yul\":12776:12780   */\n      0x12\n        /* \"#utility.yul\":12773:12774   */\n      0x04\n        /* \"#utility.yul\":12766:12781   */\n      mstore\n        /* \"#utility.yul\":12800:12804   */\n      0x24\n        /* \"#utility.yul\":12797:12798   */\n      0x00\n        /* \"#utility.yul\":12790:12805   */\n      revert\n        /* \"#utility.yul\":12817:13002   */\n    tag_131:\n        /* \"#utility.yul\":12857:12858   */\n      0x00\n        /* \"#utility.yul\":12874:12894   */\n      tag_504\n        /* \"#utility.yul\":12892:12893   */\n      dup3\n        /* \"#utility.yul\":12874:12894   */\n      tag_326\n      jump\t// in\n    tag_504:\n        /* \"#utility.yul\":12869:12894   */\n      swap2\n      pop\n        /* \"#utility.yul\":12908:12928   */\n      tag_505\n        /* \"#utility.yul\":12926:12927   */\n      dup4\n        /* \"#utility.yul\":12908:12928   */\n      tag_326\n      jump\t// in\n    tag_505:\n        /* \"#utility.yul\":12903:12928   */\n      swap3\n      pop\n        /* \"#utility.yul\":12947:12948   */\n      dup3\n        /* \"#utility.yul\":12937:12972   */\n      tag_506\n      jumpi\n        /* \"#utility.yul\":12952:12970   */\n      tag_507\n      tag_359\n      jump\t// in\n    tag_507:\n        /* \"#utility.yul\":12937:12972   */\n    tag_506:\n        /* \"#utility.yul\":12994:12995   */\n      dup3\n        /* \"#utility.yul\":12991:12992   */\n      dup3\n        /* \"#utility.yul\":12987:12996   */\n      div\n        /* \"#utility.yul\":12982:12996   */\n      swap1\n      pop\n        /* \"#utility.yul\":12817:13002   */\n      swap3\n      swap2\n      pop\n      pop\n      jump\t// out\n        /* \"#utility.yul\":13008:13188   */\n    tag_360:\n        /* \"#utility.yul\":13056:13133   */\n      0x4e487b7100000000000000000000000000000000000000000000000000000000\n        /* \"#utility.yul\":13053:13054   */\n      0x00\n        /* \"#utility.yul\":13046:13134   */\n      mstore\n        /* \"#utility.yul\":13153:13157   */\n      0x22\n        /* \"#utility.yul\":13150:13151   */\n      0x04\n        /* \"#utility.yul\":13143:13158   */\n      mstore\n        /* \"#utility.yul\":13177:13181   */\n      0x24\n        /* \"#utility.yul\":13174:13175   */\n      0x00\n        /* \"#utility.yul\":13167:13182   */\n      revert\n        /* \"#utility.yul\":13194:13514   */\n    tag_134:\n        /* \"#utility.yul\":13238:13244   */\n      0x00\n        /* \"#utility.yul\":13275:13276   */\n      0x02\n        /* \"#utility.yul\":13269:13273   */\n      dup3\n        /* \"#utility.yul\":13265:13277   */\n      div\n        /* \"#utility.yul\":13255:13277   */\n      swap1\n      pop\n        /* \"#utility.yul\":13322:13323   */\n      0x01\n        /* \"#utility.yul\":13316:13320   */\n      dup3\n        /* \"#utility.yul\":13312:13324   */\n      and\n        /* \"#utility.yul\":13343:13361   */\n      dup1\n        /* \"#utility.yul\":13333:13414   */\n      tag_510\n      jumpi\n        /* \"#utility.yul\":13399:13403   */\n      0x7f\n        /* \"#utility.yul\":13391:13397   */\n      dup3\n        /* \"#utility.yul\":13387:13404   */\n      and\n        /* \"#utility.yul\":13377:13404   */\n      swap2\n      pop\n        /* \"#utility.yul\":13333:13414   */\n    tag_510:\n        /* \"#utility.yul\":13461:13463   */\n      0x20\n        /* \"#utility.yul\":13453:13459   */\n      dup3\n        /* \"#utility.yul\":13450:13464   */\n      lt\n        /* \"#utility.yul\":13430:13448   */\n      dup2\n        /* \"#utility.yul\":13427:13465   */\n      eq\n        /* \"#utility.yul\":13424:13508   */\n      iszero\n      tag_511\n      jumpi\n        /* \"#utility.yul\":13480:13498   */\n      tag_512\n      tag_360\n      jump\t// in\n    tag_512:\n        /* \"#utility.yul\":13424:13508   */\n    tag_511:\n        /* \"#utility.yul\":13245:13514   */\n      pop\n        /* \"#utility.yul\":13194:13514   */\n      swap2\n      swap1\n      pop\n      jump\t// out\n        /* \"#utility.yul\":13520:13884   */\n    tag_202:\n        /* \"#utility.yul\":13657:13661   */\n      0x00\n        /* \"#utility.yul\":13695:13697   */\n      0x40\n        /* \"#utility.yul\":13684:13693   */\n      dup3\n        /* \"#utility.yul\":13680:13698   */\n      add\n        /* \"#utility.yul\":13672:13698   */\n      swap1\n      pop\n        /* \"#utility.yul\":13708:13795   */\n      tag_514\n        /* \"#utility.yul\":13792:13793   */\n      0x00\n        /* \"#utility.yul\":13781:13790   */\n      dup4\n        /* \"#utility.yul\":13777:13794   */\n      add\n        /* \"#utility.yul\":13768:13774   */\n      dup6\n        /* \"#utility.yul\":13708:13795   */\n      tag_336\n      jump\t// in\n    tag_514:\n        /* \"#utility.yul\":13805:13877   */\n      tag_515\n        /* \"#utility.yul\":13873:13875   */\n      0x20\n        /* \"#utility.yul\":13862:13871   */\n      dup4\n        /* \"#utility.yul\":13858:13876   */\n      add\n        /* \"#utility.yul\":13849:13855   */\n      dup5\n        /* \"#utility.yul\":13805:13877   */\n      tag_339\n      jump\t// in\n    tag_515:\n        /* \"#utility.yul\":13520:13884   */\n      swap4\n      swap3\n      pop\n      pop\n      pop\n      jump\t// out\n\n    auxdata: 0xa2646970667358221220d804dbea378791f4829cc16a694671a77c0a57b9adb724c307527539da3da67c64736f6c63430008090033\n}\n","bytecode":{"linkReferences":{},"object":"60806040523480156200001157600080fd5b5060405162002f7338038062002f73833981810160405281019062000037919062000443565b86600090805190602001906200004f92919062000191565b5085600190805190602001906200006892919062000191565b5083600390805190602001906200008192919062000191565b5082600490805190602001906200009a92919062000191565b5081600260006101000a81548173ffffffffffffffffffffffffffffffffffffffff021916908373ffffffffffffffffffffffffffffffffffffffff16021790555080600b60006101000a81548173ffffffffffffffffffffffffffffffffffffffff021916908373ffffffffffffffffffffffffffffffffffffffff16021790555084600590805190602001906200013592919062000191565b50600060068190555060006007819055506000600860006101000a81548160ff0219169083151502179055506000600860016101000a81548160ff0219169083151502179055506000600c8190555050505050505050620005f6565b8280546200019f90620005c0565b90600052602060002090601f016020900481019282620001c357600085556200020f565b82601f10620001de57805160ff19168380011785556200020f565b828001600101855582156200020f579182015b828111156200020e578251825591602001919060010190620001f1565b5b5090506200021e919062000222565b5090565b5b808211156200023d57600081600090555060010162000223565b5090565b6000604051905090565b600080fd5b600080fd5b600080fd5b600080fd5b6000601f19601f8301169050919050565b7f4e487b7100000000000000000000000000000000000000000000000000000000600052604160045260246000fd5b620002aa826200025f565b810181811067ffffffffffffffff82111715620002cc57620002cb62000270565b5b80604052505050565b6000620002e162000241565b9050620002ef82826200029f565b919050565b600067ffffffffffffffff82111562000312576200031162000270565b5b6200031d826200025f565b9050602081019050919050565b60005b838110156200034a5780820151818401526020810190506200032d565b838111156200035a576000848401525b50505050565b6000620003776200037184620002f4565b620002d5565b9050828152602081018484840111156200039657620003956200025a565b5b620003a38482856200032a565b509392505050565b600082601f830112620003c357620003c262000255565b5b8151620003d584826020860162000360565b91505092915050565b600073ffffffffffffffffffffffffffffffffffffffff82169050919050565b60006200040b82620003de565b9050919050565b6200041d81620003fe565b81146200042957600080fd5b50565b6000815190506200043d8162000412565b92915050565b600080600080600080600060e0888a0312156200046557620004646200024b565b5b600088015167ffffffffffffffff81111562000486576200048562000250565b5b620004948a828b01620003ab565b975050602088015167ffffffffffffffff811115620004b857620004b762000250565b5b620004c68a828b01620003ab565b965050604088015167ffffffffffffffff811115620004ea57620004e962000250565b5b620004f88a828b01620003ab565b955050606088015167ffffffffffffffff8111156200051c576200051b62000250565b5b6200052a8a828b01620003ab565b945050608088015167ffffffffffffffff8111156200054e576200054d62000250565b5b6200055c8a828b01620003ab565b93505060a06200056f8a828b016200042c565b92505060c0620005828a828b016200042c565b91505092959891949750929550565b7f4e487b7100000000000000000000000000000000000000000000000000000000600052602260045260246000fd5b60006002820490506001821680620005d957607f821691505b60208210811415620005f057620005ef62000591565b5b50919050565b61296d80620006066000396000f3fe608060405234801561001057600080fd5b50600436106101425760003560e01c80639284f497116100b8578063c90319341161007c578063c90319341461034e578063d6e3ee6b1461037e578063e4128fb3146103ae578063ee4e1b53146103cc578063f04693d4146103e8578063fb6ff96e146103f257610142565b80639284f49714610294578063948c158c146102b25780639fe7717d146102e2578063b8159a1f14610300578063c2c706b01461033057610142565b806328f371aa1161010a57806328f371aa146101e45780634a57e1c9146102025780636c39bda31461021e5780637284e4161461023a5780638129dfc914610258578063820e93f51461027657610142565b8063034d09da1461014757806306fdde0314610163578063141961bc1461018157806317bbb931146101bc57806328d0c494146101da575b600080fd5b610161600480360381019061015c91906121b0565b610410565b005b61016b610801565b6040516101789190612276565b60405180910390f35b61019b600480360381019061019691906121b0565b61088f565b6040516101b39c9b9a99989796959493929190612303565b60405180910390f35b6101c4610bde565b6040516101d19190612276565b60405180910390f35b6101e2610c6c565b005b6101ec610f29565b6040516101f991906123e0565b60405180910390f35b61021c600480360381019061021791906121b0565b610f3c565b005b6102386004803603810190610233919061255c565b611183565b005b610242611450565b60405161024f9190612276565b60405180910390f35b6102606114de565b60405161026d919061268a565b60405180910390f35b61027e6114e4565b60405161028b9190612276565b60405180910390f35b61029c611572565b6040516102a99190612276565b60405180910390f35b6102cc60048036038101906102c791906121b0565b611600565b6040516102d991906123e0565b60405180910390f35b6102ea6117c8565b6040516102f7919061268a565b60405180910390f35b61031a600480360381019061031591906121b0565b6117ce565b60405161032791906123e0565b60405180910390f35b610338611996565b60405161034591906123e0565b60405180910390f35b610368600480360381019061036391906126e3565b6119a9565b60405161037591906123e0565b60405180910390f35b610398600480360381019061039391906126e3565b6119c9565b6040516103a591906123e0565b60405180910390f35b6103b66119e9565b6040516103c3919061271f565b60405180910390f35b6103e660048036038101906103e191906121b0565b611a0f565b005b6103f0611e00565b005b6103fa6120bd565b604051610407919061268a565b60405180910390f35b6000600b60009054906101000a900473ffffffffffffffffffffffffffffffffffffffff1690508073ffffffffffffffffffffffffffffffffffffffff16635d672a62336040518263ffffffff1660e01b8152600401610470919061271f565b60206040518083038186803b15801561048857600080fd5b505afa15801561049c573d6000803e3d6000fd5b505050506040513d601f19601f820116820180604052508101906104c09190612766565b6104c957600080fd5b8073ffffffffffffffffffffffffffffffffffffffff1663018f5472336040518263ffffffff1660e01b8152600401610502919061271f565b60206040518083038186803b15801561051a57600080fd5b505afa15801561052e573d6000803e3d6000fd5b505050506040513d601f19601f820116820180604052508101906105529190612766565b1561055c57600080fd5b600d6000838152602001908152602001600020600a0160003373ffffffffffffffffffffffffffffffffffffffff1673ffffffffffffffffffffffffffffffffffffffff16815260200190815260200160002060009054906101000a900460ff16156105c757600080fd5b600d6000838152602001908152602001600020600b0160003373ffffffffffffffffffffffffffffffffffffffff1673ffffffffffffffffffffffffffffffffffffffff16815260200190815260200160002060009054906101000a900460ff161561063257600080fd5b600d600083815260200190815260200160002060090160009054906101000a900460ff161561066057600080fd5b600d600083815260200190815260200160002060090160019054906101000a900460ff161561068e57600080fd5b600d600083815260200190815260200160002060080160008154809291906106b5906127c2565b91905055506001600d6000848152602001908152602001600020600b0160003373ffffffffffffffffffffffffffffffffffffffff1673ffffffffffffffffffffffffffffffffffffffff16815260200190815260200160002060006101000a81548160ff02191690831515021790555060028173ffffffffffffffffffffffffffffffffffffffff1663997072f76040518163ffffffff1660e01b815260040160206040518083038186803b15801561076e57600080fd5b505afa158015610782573d6000803e3d6000fd5b505050506040513d601f19601f820116820180604052508101906107a69190612820565b6107b0919061287c565b600d60008481526020019081526020016000206008015411156107fd576001600d600084815260200190815260200160002060090160016101000a81548160ff0219169083151502179055505b5050565b6000805461080e906128dc565b80601f016020809104026020016040519081016040528092919081815260200182805461083a906128dc565b80156108875780601f1061085c57610100808354040283529160200191610887565b820191906000526020600020905b81548152906001019060200180831161086a57829003601f168201915b505050505081565b600d6020528060005260406000206000915090508060000180546108b2906128dc565b80601f01602080910402602001604051908101604052809291908181526020018280546108de906128dc565b801561092b5780601f106109005761010080835404028352916020019161092b565b820191906000526020600020905b81548152906001019060200180831161090e57829003601f168201915b505050505090806001018054610940906128dc565b80601f016020809104026020016040519081016040528092919081815260200182805461096c906128dc565b80156109b95780601f1061098e576101008083540402835291602001916109b9565b820191906000526020600020905b81548152906001019060200180831161099c57829003601f168201915b5050505050908060020180546109ce906128dc565b80601f01602080910402602001604051908101604052809291908181526020018280546109fa906128dc565b8015610a475780601f10610a1c57610100808354040283529160200191610a47565b820191906000526020600020905b815481529060010190602001808311610a2a57829003601f168201915b505050505090806003018054610a5c906128dc565b80601f0160208091040260200160405190810160405280929190818152602001828054610a88906128dc565b8015610ad55780601f10610aaa57610100808354040283529160200191610ad5565b820191906000526020600020905b815481529060010190602001808311610ab857829003601f168201915b505050505090806004018054610aea906128dc565b80601f0160208091040260200160405190810160405280929190818152602001828054610b16906128dc565b8015610b635780601f10610b3857610100808354040283529160200191610b63565b820191906000526020600020905b815481529060010190602001808311610b4657829003601f168201915b5050505050908060050160009054906101000a900473ffffffffffffffffffffffffffffffffffffffff16908060050160149054906101000a900460ff16908060060154908060070154908060080154908060090160009054906101000a900460ff16908060090160019054906101000a900460ff1690508c565b60058054610beb906128dc565b80601f0160208091040260200160405190810160405280929190818152602001828054610c17906128dc565b8015610c645780601f10610c3957610100808354040283529160200191610c64565b820191906000526020600020905b815481529060010190602001808311610c4757829003601f168201915b505050505081565b6000600b60009054906101000a900473ffffffffffffffffffffffffffffffffffffffff1690508073ffffffffffffffffffffffffffffffffffffffff16635d672a62336040518263ffffffff1660e01b8152600401610ccc919061271f565b60206040518083038186803b158015610ce457600080fd5b505afa158015610cf8573d6000803e3d6000fd5b505050506040513d601f19601f82011682018060405250810190610d1c9190612766565b610d2557600080fd5b600960003373ffffffffffffffffffffffffffffffffffffffff1673ffffffffffffffffffffffffffffffffffffffff16815260200190815260200160002060009054906101000a900460ff1615610d7c57600080fd5b600a60003373ffffffffffffffffffffffffffffffffffffffff1673ffffffffffffffffffffffffffffffffffffffff16815260200190815260200160002060009054906101000a900460ff1615610dd357600080fd5b600860009054906101000a900460ff1615610ded57600080fd5b600860019054906101000a900460ff1615610e0757600080fd5b6001600a60003373ffffffffffffffffffffffffffffffffffffffff1673ffffffffffffffffffffffffffffffffffffffff16815260200190815260200160002060006101000a81548160ff02191690831515021790555060076000815480929190610e72906127c2565b919050555060028173ffffffffffffffffffffffffffffffffffffffff1663997072f76040518163ffffffff1660e01b815260040160206040518083038186803b158015610ebf57600080fd5b505afa158015610ed3573d6000803e3d6000fd5b505050506040513d601f19601f82011682018060405250810190610ef79190612820565b610f01919061287c565b6007541115610f26576001600860016101000a81548160ff0219169083151502179055505b50565b600860009054906101000a900460ff1681565b6000600b60009054906101000a900473ffffffffffffffffffffffffffffffffffffffff1690508073ffffffffffffffffffffffffffffffffffffffff1663018f5472336040518263ffffffff1660e01b8152600401610f9c919061271f565b60206040518083038186803b158015610fb457600080fd5b505afa158015610fc8573d6000803e3d6000fd5b505050506040513d601f19601f82011682018060405250810190610fec9190612766565b610ff557600080fd5b8073ffffffffffffffffffffffffffffffffffffffff16635d672a62336040518263ffffffff1660e01b815260040161102e919061271f565b60206040518083038186803b15801561104657600080fd5b505afa15801561105a573d6000803e3d6000fd5b505050506040513d601f19601f8201168201806040525081019061107e9190612766565b1561108857600080fd5b600d600083815260200190815260200160002060090160009054906101000a900460ff166110b557600080fd5b6000600d600084815260200190815260200160002090508173ffffffffffffffffffffffffffffffffffffffff1663f77ac6688260050160009054906101000a900473ffffffffffffffffffffffffffffffffffffffff1683600601546040518363ffffffff1660e01b815260040161112f92919061290e565b600060405180830381600087803b15801561114957600080fd5b505af115801561115d573d6000803e3d6000fd5b5050505060018160050160146101000a81548160ff021916908315150217905550505050565b6000600b60009054906101000a900473ffffffffffffffffffffffffffffffffffffffff1690508073ffffffffffffffffffffffffffffffffffffffff1663018f5472336040518263ffffffff1660e01b81526004016111e3919061271f565b60206040518083038186803b1580156111fb57600080fd5b505afa15801561120f573d6000803e3d6000fd5b505050506040513d601f19601f820116820180604052508101906112339190612766565b61123c57600080fd5b8073ffffffffffffffffffffffffffffffffffffffff16635d672a62336040518263ffffffff1660e01b8152600401611275919061271f565b60206040518083038186803b15801561128d57600080fd5b505afa1580156112a1573d6000803e3d6000fd5b505050506040513d601f19601f820116820180604052508101906112c59190612766565b156112cf57600080fd5b600860009054906101000a900460ff1680156112f85750600860019054906101000a900460ff16155b61130157600080fd5b6000600d6000600c600081548092919061131a906127c2565b9190505581526020019081526020016000209050888160000190805190602001906113469291906120c3565b508781600101908051906020019061135f9291906120c3565b50868160020190805190602001906113789291906120c3565b50858160030190805190602001906113919291906120c3565b50848160040190805190602001906113aa9291906120c3565b50838160050160006101000a81548173ffffffffffffffffffffffffffffffffffffffff021916908373ffffffffffffffffffffffffffffffffffffffff160217905550828160060181905550600081600701819055506000816008018190555060008160090160006101000a81548160ff02191690831515021790555060008160090160016101000a81548160ff021916908315150217905550505050505050505050565b6001805461145d906128dc565b80601f0160208091040260200160405190810160405280929190818152602001828054611489906128dc565b80156114d65780601f106114ab576101008083540402835291602001916114d6565b820191906000526020600020905b8154815290600101906020018083116114b957829003601f168201915b505050505081565b600c5481565b600480546114f1906128dc565b80601f016020809104026020016040519081016040528092919081815260200182805461151d906128dc565b801561156a5780601f1061153f5761010080835404028352916020019161156a565b820191906000526020600020905b81548152906001019060200180831161154d57829003601f168201915b505050505081565b6003805461157f906128dc565b80601f01602080910402602001604051908101604052809291908181526020018280546115ab906128dc565b80156115f85780601f106115cd576101008083540402835291602001916115f8565b820191906000526020600020905b8154815290600101906020018083116115db57829003601f168201915b505050505081565b600080600b60009054906101000a900473ffffffffffffffffffffffffffffffffffffffff1690508073ffffffffffffffffffffffffffffffffffffffff16635d672a62336040518263ffffffff1660e01b8152600401611661919061271f565b60206040518083038186803b15801561167957600080fd5b505afa15801561168d573d6000803e3d6000fd5b505050506040513d601f19601f820116820180604052508101906116b19190612766565b6116ba57600080fd5b8073ffffffffffffffffffffffffffffffffffffffff1663018f5472336040518263ffffffff1660e01b81526004016116f3919061271f565b60206040518083038186803b15801561170b57600080fd5b505afa15801561171f573d6000803e3d6000fd5b505050506040513d601f19601f820116820180604052508101906117439190612766565b1561174d57600080fd5b600d6000848152602001908152602001600020600a0160003373ffffffffffffffffffffffffffffffffffffffff1673ffffffffffffffffffffffffffffffffffffffff16815260200190815260200160002060009054906101000a900460ff16156117bd5760019150506117c3565b60009150505b919050565b60065481565b600080600b60009054906101000a900473ffffffffffffffffffffffffffffffffffffffff1690508073ffffffffffffffffffffffffffffffffffffffff16635d672a62336040518263ffffffff1660e01b815260040161182f919061271f565b60206040518083038186803b15801561184757600080fd5b505afa15801561185b573d6000803e3d6000fd5b505050506040513d601f19601f8201168201806040525081019061187f9190612766565b61188857600080fd5b8073ffffffffffffffffffffffffffffffffffffffff1663018f5472336040518263ffffffff1660e01b81526004016118c1919061271f565b60206040518083038186803b1580156118d957600080fd5b505afa1580156118ed573d6000803e3d6000fd5b505050506040513d601f19601f820116820180604052508101906119119190612766565b1561191b57600080fd5b600d6000848152602001908152602001600020600b0160003373ffffffffffffffffffffffffffffffffffffffff1673ffffffffffffffffffffffffffffffffffffffff16815260200190815260200160002060009054906101000a900460ff161561198b576001915050611991565b60009150505b919050565b600860019054906101000a900460ff1681565b60096020528060005260406000206000915054906101000a900460ff1681565b600a6020528060005260406000206000915054906101000a900460ff1681565b600260009054906101000a900473ffffffffffffffffffffffffffffffffffffffff1681565b6000600b60009054906101000a900473ffffffffffffffffffffffffffffffffffffffff1690508073ffffffffffffffffffffffffffffffffffffffff16635d672a62336040518263ffffffff1660e01b8152600401611a6f919061271f565b60206040518083038186803b158015611a8757600080fd5b505afa158015611a9b573d6000803e3d6000fd5b505050506040513d601f19601f82011682018060405250810190611abf9190612766565b611ac857600080fd5b8073ffffffffffffffffffffffffffffffffffffffff1663018f5472336040518263ffffffff1660e01b8152600401611b01919061271f565b60206040518083038186803b158015611b1957600080fd5b505afa158015611b2d573d6000803e3d6000fd5b505050506040513d601f19601f82011682018060405250810190611b519190612766565b15611b5b57600080fd5b600d6000838152602001908152602001600020600a0160003373ffffffffffffffffffffffffffffffffffffffff1673ffffffffffffffffffffffffffffffffffffffff16815260200190815260200160002060009054906101000a900460ff1615611bc657600080fd5b600d6000838152602001908152602001600020600b0160003373ffffffffffffffffffffffffffffffffffffffff1673ffffffffffffffffffffffffffffffffffffffff16815260200190815260200160002060009054906101000a900460ff1615611c3157600080fd5b600d600083815260200190815260200160002060090160009054906101000a900460ff1615611c5f57600080fd5b600d600083815260200190815260200160002060090160019054906101000a900460ff1615611c8d57600080fd5b600d60008381526020019081526020016000206007016000815480929190611cb4906127c2565b91905055506001600d6000848152602001908152602001600020600a0160003373ffffffffffffffffffffffffffffffffffffffff1673ffffffffffffffffffffffffffffffffffffffff16815260200190815260200160002060006101000a81548160ff02191690831515021790555060028173ffffffffffffffffffffffffffffffffffffffff1663997072f76040518163ffffffff1660e01b815260040160206040518083038186803b158015611d6d57600080fd5b505afa158015611d81573d6000803e3d6000fd5b505050506040513d601f19601f82011682018060405250810190611da59190612820565b611daf919061287c565b600d6000848152602001908152602001600020600701541115611dfc576001600d600084815260200190815260200160002060090160006101000a81548160ff0219169083151502179055505b5050565b6000600b60009054906101000a900473ffffffffffffffffffffffffffffffffffffffff1690508073ffffffffffffffffffffffffffffffffffffffff16635d672a62336040518263ffffffff1660e01b8152600401611e60919061271f565b60206040518083038186803b158015611e7857600080fd5b505afa158015611e8c573d6000803e3d6000fd5b505050506040513d601f19601f82011682018060405250810190611eb09190612766565b611eb957600080fd5b600960003373ffffffffffffffffffffffffffffffffffffffff1673ffffffffffffffffffffffffffffffffffffffff16815260200190815260200160002060009054906101000a900460ff1615611f1057600080fd5b600a60003373ffffffffffffffffffffffffffffffffffffffff1673ffffffffffffffffffffffffffffffffffffffff16815260200190815260200160002060009054906101000a900460ff1615611f6757600080fd5b600860009054906101000a900460ff1615611f8157600080fd5b600860019054906101000a900460ff1615611f9b57600080fd5b6001600960003373ffffffffffffffffffffffffffffffffffffffff1673ffffffffffffffffffffffffffffffffffffffff16815260200190815260200160002060006101000a81548160ff02191690831515021790555060066000815480929190612006906127c2565b919050555060028173ffffffffffffffffffffffffffffffffffffffff1663997072f76040518163ffffffff1660e01b815260040160206040518083038186803b15801561205357600080fd5b505afa158015612067573d6000803e3d6000fd5b505050506040513d601f19601f8201168201806040525081019061208b9190612820565b612095919061287c565b60065411156120ba576001600860006101000a81548160ff0219169083151502179055505b50565b60075481565b8280546120cf906128dc565b90600052602060002090601f0160209004810192826120f15760008555612138565b82601f1061210a57805160ff1916838001178555612138565b82800160010185558215612138579182015b8281111561213757825182559160200191906001019061211c565b5b5090506121459190612149565b5090565b5b8082111561216257600081600090555060010161214a565b5090565b6000604051905090565b600080fd5b600080fd5b6000819050919050565b61218d8161217a565b811461219857600080fd5b50565b6000813590506121aa81612184565b92915050565b6000602082840312156121c6576121c5612170565b5b60006121d48482850161219b565b91505092915050565b600081519050919050565b600082825260208201905092915050565b60005b838110156122175780820151818401526020810190506121fc565b83811115612226576000848401525b50505050565b6000601f19601f8301169050919050565b6000612248826121dd565b61225281856121e8565b93506122628185602086016121f9565b61226b8161222c565b840191505092915050565b60006020820190508181036000830152612290818461223d565b905092915050565b600073ffffffffffffffffffffffffffffffffffffffff82169050919050565b60006122c382612298565b9050919050565b6122d3816122b8565b82525050565b60008115159050919050565b6122ee816122d9565b82525050565b6122fd8161217a565b82525050565b600061018082019050818103600083015261231e818f61223d565b90508181036020830152612332818e61223d565b90508181036040830152612346818d61223d565b9050818103606083015261235a818c61223d565b9050818103608083015261236e818b61223d565b905061237d60a083018a6122ca565b61238a60c08301896122e5565b61239760e08301886122f4565b6123a56101008301876122f4565b6123b36101208301866122f4565b6123c16101408301856122e5565b6123cf6101608301846122e5565b9d9c50505050505050505050505050565b60006020820190506123f560008301846122e5565b92915050565b600080fd5b600080fd5b7f4e487b7100000000000000000000000000000000000000000000000000000000600052604160045260246000fd5b61243d8261222c565b810181811067ffffffffffffffff8211171561245c5761245b612405565b5b80604052505050565b600061246f612166565b905061247b8282612434565b919050565b600067ffffffffffffffff82111561249b5761249a612405565b5b6124a48261222c565b9050602081019050919050565b82818337600083830152505050565b60006124d36124ce84612480565b612465565b9050828152602081018484840111156124ef576124ee612400565b5b6124fa8482856124b1565b509392505050565b600082601f830112612517576125166123fb565b5b81356125278482602086016124c0565b91505092915050565b612539816122b8565b811461254457600080fd5b50565b60008135905061255681612530565b92915050565b600080600080600080600060e0888a03121561257b5761257a612170565b5b600088013567ffffffffffffffff81111561259957612598612175565b5b6125a58a828b01612502565b975050602088013567ffffffffffffffff8111156125c6576125c5612175565b5b6125d28a828b01612502565b965050604088013567ffffffffffffffff8111156125f3576125f2612175565b5b6125ff8a828b01612502565b955050606088013567ffffffffffffffff8111156126205761261f612175565b5b61262c8a828b01612502565b945050608088013567ffffffffffffffff81111561264d5761264c612175565b5b6126598a828b01612502565b93505060a061266a8a828b01612547565b92505060c061267b8a828b0161219b565b91505092959891949750929550565b600060208201905061269f60008301846122f4565b92915050565b60006126b082612298565b9050919050565b6126c0816126a5565b81146126cb57600080fd5b50565b6000813590506126dd816126b7565b92915050565b6000602082840312156126f9576126f8612170565b5b6000612707848285016126ce565b91505092915050565b612719816126a5565b82525050565b60006020820190506127346000830184612710565b92915050565b612743816122d9565b811461274e57600080fd5b50565b6000815190506127608161273a565b92915050565b60006020828403121561277c5761277b612170565b5b600061278a84828501612751565b91505092915050565b7f4e487b7100000000000000000000000000000000000000000000000000000000600052601160045260246000fd5b60006127cd8261217a565b91507fffffffffffffffffffffffffffffffffffffffffffffffffffffffffffffffff821415612800576127ff612793565b5b600182019050919050565b60008151905061281a81612184565b92915050565b60006020828403121561283657612835612170565b5b60006128448482850161280b565b91505092915050565b7f4e487b7100000000000000000000000000000000000000000000000000000000600052601260045260246000fd5b60006128878261217a565b91506128928361217a565b9250826128a2576128a161284d565b5b828204905092915050565b7f4e487b7100000000000000000000000000000000000000000000000000000000600052602260045260246000fd5b600060028204905060018216806128f457607f821691505b60208210811415612908576129076128ad565b5b50919050565b600060408201905061292360008301856122ca565b61293060208301846122f4565b939250505056fea2646970667358221220d804dbea378791f4829cc16a694671a77c0a57b9adb724c307527539da3da67c64736f6c63430008090033","opcodes":"PUSH1 0x80 PUSH1 0x40 MSTORE CALLVALUE DUP1 ISZERO PUSH3 0x11 JUMPI PUSH1 0x0 DUP1 REVERT JUMPDEST POP PUSH1 0x40 MLOAD PUSH3 0x2F73 CODESIZE SUB DUP1 PUSH3 0x2F73 DUP4 CODECOPY DUP2 DUP2 ADD PUSH1 0x40 MSTORE DUP2 ADD SWAP1 PUSH3 0x37 SWAP2 SWAP1 PUSH3 0x443 JUMP JUMPDEST DUP7 PUSH1 0x0 SWAP1 DUP1 MLOAD SWAP1 PUSH1 0x20 ADD SWAP1 PUSH3 0x4F SWAP3 SWAP2 SWAP1 PUSH3 0x191 JUMP JUMPDEST POP DUP6 PUSH1 0x1 SWAP1 DUP1 MLOAD SWAP1 PUSH1 0x20 ADD SWAP1 PUSH3 0x68 SWAP3 SWAP2 SWAP1 PUSH3 0x191 JUMP JUMPDEST POP DUP4 PUSH1 0x3 SWAP1 DUP1 MLOAD SWAP1 PUSH1 0x20 ADD SWAP1 PUSH3 0x81 SWAP3 SWAP2 SWAP1 PUSH3 0x191 JUMP JUMPDEST POP DUP3 PUSH1 0x4 SWAP1 DUP1 MLOAD SWAP1 PUSH1 0x20 ADD SWAP1 PUSH3 0x9A SWAP3 SWAP2 SWAP1 PUSH3 0x191 JUMP JUMPDEST POP DUP2 PUSH1 0x2 PUSH1 0x0 PUSH2 0x100 EXP DUP2 SLOAD DUP2 PUSH20 0xFFFFFFFFFFFFFFFFFFFFFFFFFFFFFFFFFFFFFFFF MUL NOT AND SWAP1 DUP4 PUSH20 0xFFFFFFFFFFFFFFFFFFFFFFFFFFFFFFFFFFFFFFFF AND MUL OR SWAP1 SSTORE POP DUP1 PUSH1 0xB PUSH1 0x0 PUSH2 0x100 EXP DUP2 SLOAD DUP2 PUSH20 0xFFFFFFFFFFFFFFFFFFFFFFFFFFFFFFFFFFFFFFFF MUL NOT AND SWAP1 DUP4 PUSH20 0xFFFFFFFFFFFFFFFFFFFFFFFFFFFFFFFFFFFFFFFF AND MUL OR SWAP1 SSTORE POP DUP5 PUSH1 0x5 SWAP1 DUP1 MLOAD SWAP1 PUSH1 0x20 ADD SWAP1 PUSH3 0x135 SWAP3 SWAP2 SWAP1 PUSH3 0x191 JUMP JUMPDEST POP PUSH1 0x0 PUSH1 0x6 DUP2 SWAP1 SSTORE POP PUSH1 0x0 PUSH1 0x7 DUP2 SWAP1 SSTORE POP PUSH1 0x0 PUSH1 0x8 PUSH1 0x0 PUSH2 0x100 EXP DUP2 SLOAD DUP2 PUSH1 0xFF MUL NOT AND SWAP1 DUP4 ISZERO ISZERO MUL OR SWAP1 SSTORE POP PUSH1 0x0 PUSH1 0x8 PUSH1 0x1 PUSH2 0x100 EXP DUP2 SLOAD DUP2 PUSH1 0xFF MUL NOT AND SWAP1 DUP4 ISZERO ISZERO MUL OR SWAP1 SSTORE POP PUSH1 0x0 PUSH1 0xC DUP2 SWAP1 SSTORE POP POP POP POP POP POP POP POP PUSH3 0x5F6 JUMP JUMPDEST DUP3 DUP1 SLOAD PUSH3 0x19F SWAP1 PUSH3 0x5C0 JUMP JUMPDEST SWAP1 PUSH1 0x0 MSTORE PUSH1 0x20 PUSH1 0x0 KECCAK256 SWAP1 PUSH1 0x1F ADD PUSH1 0x20 SWAP1 DIV DUP2 ADD SWAP3 DUP3 PUSH3 0x1C3 JUMPI PUSH1 0x0 DUP6 SSTORE PUSH3 0x20F JUMP JUMPDEST DUP3 PUSH1 0x1F LT PUSH3 0x1DE JUMPI DUP1 MLOAD PUSH1 0xFF NOT AND DUP4 DUP1 ADD OR DUP6 SSTORE PUSH3 0x20F JUMP JUMPDEST DUP3 DUP1 ADD PUSH1 0x1 ADD DUP6 SSTORE DUP3 ISZERO PUSH3 0x20F JUMPI SWAP2 DUP3 ADD JUMPDEST DUP3 DUP2 GT ISZERO PUSH3 0x20E JUMPI DUP3 MLOAD DUP3 SSTORE SWAP2 PUSH1 0x20 ADD SWAP2 SWAP1 PUSH1 0x1 ADD SWAP1 PUSH3 0x1F1 JUMP JUMPDEST JUMPDEST POP SWAP1 POP PUSH3 0x21E SWAP2 SWAP1 PUSH3 0x222 JUMP JUMPDEST POP SWAP1 JUMP JUMPDEST JUMPDEST DUP1 DUP3 GT ISZERO PUSH3 0x23D JUMPI PUSH1 0x0 DUP2 PUSH1 0x0 SWAP1 SSTORE POP PUSH1 0x1 ADD PUSH3 0x223 JUMP JUMPDEST POP SWAP1 JUMP JUMPDEST PUSH1 0x0 PUSH1 0x40 MLOAD SWAP1 POP SWAP1 JUMP JUMPDEST PUSH1 0x0 DUP1 REVERT JUMPDEST PUSH1 0x0 DUP1 REVERT JUMPDEST PUSH1 0x0 DUP1 REVERT JUMPDEST PUSH1 0x0 DUP1 REVERT JUMPDEST PUSH1 0x0 PUSH1 0x1F NOT PUSH1 0x1F DUP4 ADD AND SWAP1 POP SWAP2 SWAP1 POP JUMP JUMPDEST PUSH32 0x4E487B7100000000000000000000000000000000000000000000000000000000 PUSH1 0x0 MSTORE PUSH1 0x41 PUSH1 0x4 MSTORE PUSH1 0x24 PUSH1 0x0 REVERT JUMPDEST PUSH3 0x2AA DUP3 PUSH3 0x25F JUMP JUMPDEST DUP2 ADD DUP2 DUP2 LT PUSH8 0xFFFFFFFFFFFFFFFF DUP3 GT OR ISZERO PUSH3 0x2CC JUMPI PUSH3 0x2CB PUSH3 0x270 JUMP JUMPDEST JUMPDEST DUP1 PUSH1 0x40 MSTORE POP POP POP JUMP JUMPDEST PUSH1 0x0 PUSH3 0x2E1 PUSH3 0x241 JUMP JUMPDEST SWAP1 POP PUSH3 0x2EF DUP3 DUP3 PUSH3 0x29F JUMP JUMPDEST SWAP2 SWAP1 POP JUMP JUMPDEST PUSH1 0x0 PUSH8 0xFFFFFFFFFFFFFFFF DUP3 GT ISZERO PUSH3 0x312 JUMPI PUSH3 0x311 PUSH3 0x270 JUMP JUMPDEST JUMPDEST PUSH3 0x31D DUP3 PUSH3 0x25F JUMP JUMPDEST SWAP1 POP PUSH1 0x20 DUP2 ADD SWAP1 POP SWAP2 SWAP1 POP JUMP JUMPDEST PUSH1 0x0 JUMPDEST DUP4 DUP2 LT ISZERO PUSH3 0x34A JUMPI DUP1 DUP3 ADD MLOAD DUP2 DUP5 ADD MSTORE PUSH1 0x20 DUP2 ADD SWAP1 POP PUSH3 0x32D JUMP JUMPDEST DUP4 DUP2 GT ISZERO PUSH3 0x35A JUMPI PUSH1 0x0 DUP5 DUP5 ADD MSTORE JUMPDEST POP POP POP POP JUMP JUMPDEST PUSH1 0x0 PUSH3 0x377 PUSH3 0x371 DUP5 PUSH3 0x2F4 JUMP JUMPDEST PUSH3 0x2D5 JUMP JUMPDEST SWAP1 POP DUP3 DUP2 MSTORE PUSH1 0x20 DUP2 ADD DUP5 DUP5 DUP5 ADD GT ISZERO PUSH3 0x396 JUMPI PUSH3 0x395 PUSH3 0x25A JUMP JUMPDEST JUMPDEST PUSH3 0x3A3 DUP5 DUP3 DUP6 PUSH3 0x32A JUMP JUMPDEST POP SWAP4 SWAP3 POP POP POP JUMP JUMPDEST PUSH1 0x0 DUP3 PUSH1 0x1F DUP4 ADD SLT PUSH3 0x3C3 JUMPI PUSH3 0x3C2 PUSH3 0x255 JUMP JUMPDEST JUMPDEST DUP2 MLOAD PUSH3 0x3D5 DUP5 DUP3 PUSH1 0x20 DUP7 ADD PUSH3 0x360 JUMP JUMPDEST SWAP2 POP POP SWAP3 SWAP2 POP POP JUMP JUMPDEST PUSH1 0x0 PUSH20 0xFFFFFFFFFFFFFFFFFFFFFFFFFFFFFFFFFFFFFFFF DUP3 AND SWAP1 POP SWAP2 SWAP1 POP JUMP JUMPDEST PUSH1 0x0 PUSH3 0x40B DUP3 PUSH3 0x3DE JUMP JUMPDEST SWAP1 POP SWAP2 SWAP1 POP JUMP JUMPDEST PUSH3 0x41D DUP2 PUSH3 0x3FE JUMP JUMPDEST DUP2 EQ PUSH3 0x429 JUMPI PUSH1 0x0 DUP1 REVERT JUMPDEST POP JUMP JUMPDEST PUSH1 0x0 DUP2 MLOAD SWAP1 POP PUSH3 0x43D DUP2 PUSH3 0x412 JUMP JUMPDEST SWAP3 SWAP2 POP POP JUMP JUMPDEST PUSH1 0x0 DUP1 PUSH1 0x0 DUP1 PUSH1 0x0 DUP1 PUSH1 0x0 PUSH1 0xE0 DUP9 DUP11 SUB SLT ISZERO PUSH3 0x465 JUMPI PUSH3 0x464 PUSH3 0x24B JUMP JUMPDEST JUMPDEST PUSH1 0x0 DUP9 ADD MLOAD PUSH8 0xFFFFFFFFFFFFFFFF DUP2 GT ISZERO PUSH3 0x486 JUMPI PUSH3 0x485 PUSH3 0x250 JUMP JUMPDEST JUMPDEST PUSH3 0x494 DUP11 DUP3 DUP12 ADD PUSH3 0x3AB JUMP JUMPDEST SWAP8 POP POP PUSH1 0x20 DUP9 ADD MLOAD PUSH8 0xFFFFFFFFFFFFFFFF DUP2 GT ISZERO PUSH3 0x4B8 JUMPI PUSH3 0x4B7 PUSH3 0x250 JUMP JUMPDEST JUMPDEST PUSH3 0x4C6 DUP11 DUP3 DUP12 ADD PUSH3 0x3AB JUMP JUMPDEST SWAP7 POP POP PUSH1 0x40 DUP9 ADD MLOAD PUSH8 0xFFFFFFFFFFFFFFFF DUP2 GT ISZERO PUSH3 0x4EA JUMPI PUSH3 0x4E9 PUSH3 0x250 JUMP JUMPDEST JUMPDEST PUSH3 0x4F8 DUP11 DUP3 DUP12 ADD PUSH3 0x3AB JUMP JUMPDEST SWAP6 POP POP PUSH1 0x60 DUP9 ADD MLOAD PUSH8 0xFFFFFFFFFFFFFFFF DUP2 GT ISZERO PUSH3 0x51C JUMPI PUSH3 0x51B PUSH3 0x250 JUMP JUMPDEST JUMPDEST PUSH3 0x52A DUP11 DUP3 DUP12 ADD PUSH3 0x3AB JUMP JUMPDEST SWAP5 POP POP PUSH1 0x80 DUP9 ADD MLOAD PUSH8 0xFFFFFFFFFFFFFFFF DUP2 GT ISZERO PUSH3 0x54E JUMPI PUSH3 0x54D PUSH3 0x250 JUMP JUMPDEST JUMPDEST PUSH3 0x55C DUP11 DUP3 DUP12 ADD PUSH3 0x3AB JUMP JUMPDEST SWAP4 POP POP PUSH1 0xA0 PUSH3 0x56F DUP11 DUP3 DUP12 ADD PUSH3 0x42C JUMP JUMPDEST SWAP3 POP POP PUSH1 0xC0 PUSH3 0x582 DUP11 DUP3 DUP12 ADD PUSH3 0x42C JUMP JUMPDEST SWAP2 POP POP SWAP3 SWAP6 SWAP9 SWAP2 SWAP5 SWAP8 POP SWAP3 SWAP6 POP JUMP JUMPDEST PUSH32 0x4E487B7100000000000000000000000000000000000000000000000000000000 PUSH1 0x0 MSTORE PUSH1 0x22 PUSH1 0x4 MSTORE PUSH1 0x24 PUSH1 0x0 REVERT JUMPDEST PUSH1 0x0 PUSH1 0x2 DUP3 DIV SWAP1 POP PUSH1 0x1 DUP3 AND DUP1 PUSH3 0x5D9 JUMPI PUSH1 0x7F DUP3 AND SWAP2 POP JUMPDEST PUSH1 0x20 DUP3 LT DUP2 EQ ISZERO PUSH3 0x5F0 JUMPI PUSH3 0x5EF PUSH3 0x591 JUMP JUMPDEST JUMPDEST POP SWAP2 SWAP1 POP JUMP JUMPDEST PUSH2 0x296D DUP1 PUSH3 0x606 PUSH1 0x0 CODECOPY PUSH1 0x0 RETURN INVALID PUSH1 0x80 PUSH1 0x40 MSTORE CALLVALUE DUP1 ISZERO PUSH2 0x10 JUMPI PUSH1 0x0 DUP1 REVERT JUMPDEST POP PUSH1 0x4 CALLDATASIZE LT PUSH2 0x142 JUMPI PUSH1 0x0 CALLDATALOAD PUSH1 0xE0 SHR DUP1 PUSH4 0x9284F497 GT PUSH2 0xB8 JUMPI DUP1 PUSH4 0xC9031934 GT PUSH2 0x7C JUMPI DUP1 PUSH4 0xC9031934 EQ PUSH2 0x34E JUMPI DUP1 PUSH4 0xD6E3EE6B EQ PUSH2 0x37E JUMPI DUP1 PUSH4 0xE4128FB3 EQ PUSH2 0x3AE JUMPI DUP1 PUSH4 0xEE4E1B53 EQ PUSH2 0x3CC JUMPI DUP1 PUSH4 0xF04693D4 EQ PUSH2 0x3E8 JUMPI DUP1 PUSH4 0xFB6FF96E EQ PUSH2 0x3F2 JUMPI PUSH2 0x142 JUMP JUMPDEST DUP1 PUSH4 0x9284F497 EQ PUSH2 0x294 JUMPI DUP1 PUSH4 0x948C158C EQ PUSH2 0x2B2 JUMPI DUP1 PUSH4 0x9FE7717D EQ PUSH2 0x2E2 JUMPI DUP1 PUSH4 0xB8159A1F EQ PUSH2 0x300 JUMPI DUP1 PUSH4 0xC2C706B0 EQ PUSH2 0x330 JUMPI PUSH2 0x142 JUMP JUMPDEST DUP1 PUSH4 0x28F371AA GT PUSH2 0x10A JUMPI DUP1 PUSH4 0x28F371AA EQ PUSH2 0x1E4 JUMPI DUP1 PUSH4 0x4A57E1C9 EQ PUSH2 0x202 JUMPI DUP1 PUSH4 0x6C39BDA3 EQ PUSH2 0x21E JUMPI DUP1 PUSH4 0x7284E416 EQ PUSH2 0x23A JUMPI DUP1 PUSH4 0x8129DFC9 EQ PUSH2 0x258 JUMPI DUP1 PUSH4 0x820E93F5 EQ PUSH2 0x276 JUMPI PUSH2 0x142 JUMP JUMPDEST DUP1 PUSH4 0x34D09DA EQ PUSH2 0x147 JUMPI DUP1 PUSH4 0x6FDDE03 EQ PUSH2 0x163 JUMPI DUP1 PUSH4 0x141961BC EQ PUSH2 0x181 JUMPI DUP1 PUSH4 0x17BBB931 EQ PUSH2 0x1BC JUMPI DUP1 PUSH4 0x28D0C494 EQ PUSH2 0x1DA JUMPI JUMPDEST PUSH1 0x0 DUP1 REVERT JUMPDEST PUSH2 0x161 PUSH1 0x4 DUP1 CALLDATASIZE SUB DUP2 ADD SWAP1 PUSH2 0x15C SWAP2 SWAP1 PUSH2 0x21B0 JUMP JUMPDEST PUSH2 0x410 JUMP JUMPDEST STOP JUMPDEST PUSH2 0x16B PUSH2 0x801 JUMP JUMPDEST PUSH1 0x40 MLOAD PUSH2 0x178 SWAP2 SWAP1 PUSH2 0x2276 JUMP JUMPDEST PUSH1 0x40 MLOAD DUP1 SWAP2 SUB SWAP1 RETURN JUMPDEST PUSH2 0x19B PUSH1 0x4 DUP1 CALLDATASIZE SUB DUP2 ADD SWAP1 PUSH2 0x196 SWAP2 SWAP1 PUSH2 0x21B0 JUMP JUMPDEST PUSH2 0x88F JUMP JUMPDEST PUSH1 0x40 MLOAD PUSH2 0x1B3 SWAP13 SWAP12 SWAP11 SWAP10 SWAP9 SWAP8 SWAP7 SWAP6 SWAP5 SWAP4 SWAP3 SWAP2 SWAP1 PUSH2 0x2303 JUMP JUMPDEST PUSH1 0x40 MLOAD DUP1 SWAP2 SUB SWAP1 RETURN JUMPDEST PUSH2 0x1C4 PUSH2 0xBDE JUMP JUMPDEST PUSH1 0x40 MLOAD PUSH2 0x1D1 SWAP2 SWAP1 PUSH2 0x2276 JUMP JUMPDEST PUSH1 0x40 MLOAD DUP1 SWAP2 SUB SWAP1 RETURN JUMPDEST PUSH2 0x1E2 PUSH2 0xC6C JUMP JUMPDEST STOP JUMPDEST PUSH2 0x1EC PUSH2 0xF29 JUMP JUMPDEST PUSH1 0x40 MLOAD PUSH2 0x1F9 SWAP2 SWAP1 PUSH2 0x23E0 JUMP JUMPDEST PUSH1 0x40 MLOAD DUP1 SWAP2 SUB SWAP1 RETURN JUMPDEST PUSH2 0x21C PUSH1 0x4 DUP1 CALLDATASIZE SUB DUP2 ADD SWAP1 PUSH2 0x217 SWAP2 SWAP1 PUSH2 0x21B0 JUMP JUMPDEST PUSH2 0xF3C JUMP JUMPDEST STOP JUMPDEST PUSH2 0x238 PUSH1 0x4 DUP1 CALLDATASIZE SUB DUP2 ADD SWAP1 PUSH2 0x233 SWAP2 SWAP1 PUSH2 0x255C JUMP JUMPDEST PUSH2 0x1183 JUMP JUMPDEST STOP JUMPDEST PUSH2 0x242 PUSH2 0x1450 JUMP JUMPDEST PUSH1 0x40 MLOAD PUSH2 0x24F SWAP2 SWAP1 PUSH2 0x2276 JUMP JUMPDEST PUSH1 0x40 MLOAD DUP1 SWAP2 SUB SWAP1 RETURN JUMPDEST PUSH2 0x260 PUSH2 0x14DE JUMP JUMPDEST PUSH1 0x40 MLOAD PUSH2 0x26D SWAP2 SWAP1 PUSH2 0x268A JUMP JUMPDEST PUSH1 0x40 MLOAD DUP1 SWAP2 SUB SWAP1 RETURN JUMPDEST PUSH2 0x27E PUSH2 0x14E4 JUMP JUMPDEST PUSH1 0x40 MLOAD PUSH2 0x28B SWAP2 SWAP1 PUSH2 0x2276 JUMP JUMPDEST PUSH1 0x40 MLOAD DUP1 SWAP2 SUB SWAP1 RETURN JUMPDEST PUSH2 0x29C PUSH2 0x1572 JUMP JUMPDEST PUSH1 0x40 MLOAD PUSH2 0x2A9 SWAP2 SWAP1 PUSH2 0x2276 JUMP JUMPDEST PUSH1 0x40 MLOAD DUP1 SWAP2 SUB SWAP1 RETURN JUMPDEST PUSH2 0x2CC PUSH1 0x4 DUP1 CALLDATASIZE SUB DUP2 ADD SWAP1 PUSH2 0x2C7 SWAP2 SWAP1 PUSH2 0x21B0 JUMP JUMPDEST PUSH2 0x1600 JUMP JUMPDEST PUSH1 0x40 MLOAD PUSH2 0x2D9 SWAP2 SWAP1 PUSH2 0x23E0 JUMP JUMPDEST PUSH1 0x40 MLOAD DUP1 SWAP2 SUB SWAP1 RETURN JUMPDEST PUSH2 0x2EA PUSH2 0x17C8 JUMP JUMPDEST PUSH1 0x40 MLOAD PUSH2 0x2F7 SWAP2 SWAP1 PUSH2 0x268A JUMP JUMPDEST PUSH1 0x40 MLOAD DUP1 SWAP2 SUB SWAP1 RETURN JUMPDEST PUSH2 0x31A PUSH1 0x4 DUP1 CALLDATASIZE SUB DUP2 ADD SWAP1 PUSH2 0x315 SWAP2 SWAP1 PUSH2 0x21B0 JUMP JUMPDEST PUSH2 0x17CE JUMP JUMPDEST PUSH1 0x40 MLOAD PUSH2 0x327 SWAP2 SWAP1 PUSH2 0x23E0 JUMP JUMPDEST PUSH1 0x40 MLOAD DUP1 SWAP2 SUB SWAP1 RETURN JUMPDEST PUSH2 0x338 PUSH2 0x1996 JUMP JUMPDEST PUSH1 0x40 MLOAD PUSH2 0x345 SWAP2 SWAP1 PUSH2 0x23E0 JUMP JUMPDEST PUSH1 0x40 MLOAD DUP1 SWAP2 SUB SWAP1 RETURN JUMPDEST PUSH2 0x368 PUSH1 0x4 DUP1 CALLDATASIZE SUB DUP2 ADD SWAP1 PUSH2 0x363 SWAP2 SWAP1 PUSH2 0x26E3 JUMP JUMPDEST PUSH2 0x19A9 JUMP JUMPDEST PUSH1 0x40 MLOAD PUSH2 0x375 SWAP2 SWAP1 PUSH2 0x23E0 JUMP JUMPDEST PUSH1 0x40 MLOAD DUP1 SWAP2 SUB SWAP1 RETURN JUMPDEST PUSH2 0x398 PUSH1 0x4 DUP1 CALLDATASIZE SUB DUP2 ADD SWAP1 PUSH2 0x393 SWAP2 SWAP1 PUSH2 0x26E3 JUMP JUMPDEST PUSH2 0x19C9 JUMP JUMPDEST PUSH1 0x40 MLOAD PUSH2 0x3A5 SWAP2 SWAP1 PUSH2 0x23E0 JUMP JUMPDEST PUSH1 0x40 MLOAD DUP1 SWAP2 SUB SWAP1 RETURN JUMPDEST PUSH2 0x3B6 PUSH2 0x19E9 JUMP JUMPDEST PUSH1 0x40 MLOAD PUSH2 0x3C3 SWAP2 SWAP1 PUSH2 0x271F JUMP JUMPDEST PUSH1 0x40 MLOAD DUP1 SWAP2 SUB SWAP1 RETURN JUMPDEST PUSH2 0x3E6 PUSH1 0x4 DUP1 CALLDATASIZE SUB DUP2 ADD SWAP1 PUSH2 0x3E1 SWAP2 SWAP1 PUSH2 0x21B0 JUMP JUMPDEST PUSH2 0x1A0F JUMP JUMPDEST STOP JUMPDEST PUSH2 0x3F0 PUSH2 0x1E00 JUMP JUMPDEST STOP JUMPDEST PUSH2 0x3FA PUSH2 0x20BD JUMP JUMPDEST PUSH1 0x40 MLOAD PUSH2 0x407 SWAP2 SWAP1 PUSH2 0x268A JUMP JUMPDEST PUSH1 0x40 MLOAD DUP1 SWAP2 SUB SWAP1 RETURN JUMPDEST PUSH1 0x0 PUSH1 0xB PUSH1 0x0 SWAP1 SLOAD SWAP1 PUSH2 0x100 EXP SWAP1 DIV PUSH20 0xFFFFFFFFFFFFFFFFFFFFFFFFFFFFFFFFFFFFFFFF AND SWAP1 POP DUP1 PUSH20 0xFFFFFFFFFFFFFFFFFFFFFFFFFFFFFFFFFFFFFFFF AND PUSH4 0x5D672A62 CALLER PUSH1 0x40 MLOAD DUP3 PUSH4 0xFFFFFFFF AND PUSH1 0xE0 SHL DUP2 MSTORE PUSH1 0x4 ADD PUSH2 0x470 SWAP2 SWAP1 PUSH2 0x271F JUMP JUMPDEST PUSH1 0x20 PUSH1 0x40 MLOAD DUP1 DUP4 SUB DUP2 DUP7 DUP1 EXTCODESIZE ISZERO DUP1 ISZERO PUSH2 0x488 JUMPI PUSH1 0x0 DUP1 REVERT JUMPDEST POP GAS STATICCALL ISZERO DUP1 ISZERO PUSH2 0x49C JUMPI RETURNDATASIZE PUSH1 0x0 DUP1 RETURNDATACOPY RETURNDATASIZE PUSH1 0x0 REVERT JUMPDEST POP POP POP POP PUSH1 0x40 MLOAD RETURNDATASIZE PUSH1 0x1F NOT PUSH1 0x1F DUP3 ADD AND DUP3 ADD DUP1 PUSH1 0x40 MSTORE POP DUP2 ADD SWAP1 PUSH2 0x4C0 SWAP2 SWAP1 PUSH2 0x2766 JUMP JUMPDEST PUSH2 0x4C9 JUMPI PUSH1 0x0 DUP1 REVERT JUMPDEST DUP1 PUSH20 0xFFFFFFFFFFFFFFFFFFFFFFFFFFFFFFFFFFFFFFFF AND PUSH4 0x18F5472 CALLER PUSH1 0x40 MLOAD DUP3 PUSH4 0xFFFFFFFF AND PUSH1 0xE0 SHL DUP2 MSTORE PUSH1 0x4 ADD PUSH2 0x502 SWAP2 SWAP1 PUSH2 0x271F JUMP JUMPDEST PUSH1 0x20 PUSH1 0x40 MLOAD DUP1 DUP4 SUB DUP2 DUP7 DUP1 EXTCODESIZE ISZERO DUP1 ISZERO PUSH2 0x51A JUMPI PUSH1 0x0 DUP1 REVERT JUMPDEST POP GAS STATICCALL ISZERO DUP1 ISZERO PUSH2 0x52E JUMPI RETURNDATASIZE PUSH1 0x0 DUP1 RETURNDATACOPY RETURNDATASIZE PUSH1 0x0 REVERT JUMPDEST POP POP POP POP PUSH1 0x40 MLOAD RETURNDATASIZE PUSH1 0x1F NOT PUSH1 0x1F DUP3 ADD AND DUP3 ADD DUP1 PUSH1 0x40 MSTORE POP DUP2 ADD SWAP1 PUSH2 0x552 SWAP2 SWAP1 PUSH2 0x2766 JUMP JUMPDEST ISZERO PUSH2 0x55C JUMPI PUSH1 0x0 DUP1 REVERT JUMPDEST PUSH1 0xD PUSH1 0x0 DUP4 DUP2 MSTORE PUSH1 0x20 ADD SWAP1 DUP2 MSTORE PUSH1 0x20 ADD PUSH1 0x0 KECCAK256 PUSH1 0xA ADD PUSH1 0x0 CALLER PUSH20 0xFFFFFFFFFFFFFFFFFFFFFFFFFFFFFFFFFFFFFFFF AND PUSH20 0xFFFFFFFFFFFFFFFFFFFFFFFFFFFFFFFFFFFFFFFF AND DUP2 MSTORE PUSH1 0x20 ADD SWAP1 DUP2 MSTORE PUSH1 0x20 ADD PUSH1 0x0 KECCAK256 PUSH1 0x0 SWAP1 SLOAD SWAP1 PUSH2 0x100 EXP SWAP1 DIV PUSH1 0xFF AND ISZERO PUSH2 0x5C7 JUMPI PUSH1 0x0 DUP1 REVERT JUMPDEST PUSH1 0xD PUSH1 0x0 DUP4 DUP2 MSTORE PUSH1 0x20 ADD SWAP1 DUP2 MSTORE PUSH1 0x20 ADD PUSH1 0x0 KECCAK256 PUSH1 0xB ADD PUSH1 0x0 CALLER PUSH20 0xFFFFFFFFFFFFFFFFFFFFFFFFFFFFFFFFFFFFFFFF AND PUSH20 0xFFFFFFFFFFFFFFFFFFFFFFFFFFFFFFFFFFFFFFFF AND DUP2 MSTORE PUSH1 0x20 ADD SWAP1 DUP2 MSTORE PUSH1 0x20 ADD PUSH1 0x0 KECCAK256 PUSH1 0x0 SWAP1 SLOAD SWAP1 PUSH2 0x100 EXP SWAP1 DIV PUSH1 0xFF AND ISZERO PUSH2 0x632 JUMPI PUSH1 0x0 DUP1 REVERT JUMPDEST PUSH1 0xD PUSH1 0x0 DUP4 DUP2 MSTORE PUSH1 0x20 ADD SWAP1 DUP2 MSTORE PUSH1 0x20 ADD PUSH1 0x0 KECCAK256 PUSH1 0x9 ADD PUSH1 0x0 SWAP1 SLOAD SWAP1 PUSH2 0x100 EXP SWAP1 DIV PUSH1 0xFF AND ISZERO PUSH2 0x660 JUMPI PUSH1 0x0 DUP1 REVERT JUMPDEST PUSH1 0xD PUSH1 0x0 DUP4 DUP2 MSTORE PUSH1 0x20 ADD SWAP1 DUP2 MSTORE PUSH1 0x20 ADD PUSH1 0x0 KECCAK256 PUSH1 0x9 ADD PUSH1 0x1 SWAP1 SLOAD SWAP1 PUSH2 0x100 EXP SWAP1 DIV PUSH1 0xFF AND ISZERO PUSH2 0x68E JUMPI PUSH1 0x0 DUP1 REVERT JUMPDEST PUSH1 0xD PUSH1 0x0 DUP4 DUP2 MSTORE PUSH1 0x20 ADD SWAP1 DUP2 MSTORE PUSH1 0x20 ADD PUSH1 0x0 KECCAK256 PUSH1 0x8 ADD PUSH1 0x0 DUP2 SLOAD DUP1 SWAP3 SWAP2 SWAP1 PUSH2 0x6B5 SWAP1 PUSH2 0x27C2 JUMP JUMPDEST SWAP2 SWAP1 POP SSTORE POP PUSH1 0x1 PUSH1 0xD PUSH1 0x0 DUP5 DUP2 MSTORE PUSH1 0x20 ADD SWAP1 DUP2 MSTORE PUSH1 0x20 ADD PUSH1 0x0 KECCAK256 PUSH1 0xB ADD PUSH1 0x0 CALLER PUSH20 0xFFFFFFFFFFFFFFFFFFFFFFFFFFFFFFFFFFFFFFFF AND PUSH20 0xFFFFFFFFFFFFFFFFFFFFFFFFFFFFFFFFFFFFFFFF AND DUP2 MSTORE PUSH1 0x20 ADD SWAP1 DUP2 MSTORE PUSH1 0x20 ADD PUSH1 0x0 KECCAK256 PUSH1 0x0 PUSH2 0x100 EXP DUP2 SLOAD DUP2 PUSH1 0xFF MUL NOT AND SWAP1 DUP4 ISZERO ISZERO MUL OR SWAP1 SSTORE POP PUSH1 0x2 DUP2 PUSH20 0xFFFFFFFFFFFFFFFFFFFFFFFFFFFFFFFFFFFFFFFF AND PUSH4 0x997072F7 PUSH1 0x40 MLOAD DUP2 PUSH4 0xFFFFFFFF AND PUSH1 0xE0 SHL DUP2 MSTORE PUSH1 0x4 ADD PUSH1 0x20 PUSH1 0x40 MLOAD DUP1 DUP4 SUB DUP2 DUP7 DUP1 EXTCODESIZE ISZERO DUP1 ISZERO PUSH2 0x76E JUMPI PUSH1 0x0 DUP1 REVERT JUMPDEST POP GAS STATICCALL ISZERO DUP1 ISZERO PUSH2 0x782 JUMPI RETURNDATASIZE PUSH1 0x0 DUP1 RETURNDATACOPY RETURNDATASIZE PUSH1 0x0 REVERT JUMPDEST POP POP POP POP PUSH1 0x40 MLOAD RETURNDATASIZE PUSH1 0x1F NOT PUSH1 0x1F DUP3 ADD AND DUP3 ADD DUP1 PUSH1 0x40 MSTORE POP DUP2 ADD SWAP1 PUSH2 0x7A6 SWAP2 SWAP1 PUSH2 0x2820 JUMP JUMPDEST PUSH2 0x7B0 SWAP2 SWAP1 PUSH2 0x287C JUMP JUMPDEST PUSH1 0xD PUSH1 0x0 DUP5 DUP2 MSTORE PUSH1 0x20 ADD SWAP1 DUP2 MSTORE PUSH1 0x20 ADD PUSH1 0x0 KECCAK256 PUSH1 0x8 ADD SLOAD GT ISZERO PUSH2 0x7FD JUMPI PUSH1 0x1 PUSH1 0xD PUSH1 0x0 DUP5 DUP2 MSTORE PUSH1 0x20 ADD SWAP1 DUP2 MSTORE PUSH1 0x20 ADD PUSH1 0x0 KECCAK256 PUSH1 0x9 ADD PUSH1 0x1 PUSH2 0x100 EXP DUP2 SLOAD DUP2 PUSH1 0xFF MUL NOT AND SWAP1 DUP4 ISZERO ISZERO MUL OR SWAP1 SSTORE POP JUMPDEST POP POP JUMP JUMPDEST PUSH1 0x0 DUP1 SLOAD PUSH2 0x80E SWAP1 PUSH2 0x28DC JUMP JUMPDEST DUP1 PUSH1 0x1F ADD PUSH1 0x20 DUP1 SWAP2 DIV MUL PUSH1 0x20 ADD PUSH1 0x40 MLOAD SWAP1 DUP2 ADD PUSH1 0x40 MSTORE DUP1 SWAP3 SWAP2 SWAP1 DUP2 DUP2 MSTORE PUSH1 0x20 ADD DUP3 DUP1 SLOAD PUSH2 0x83A SWAP1 PUSH2 0x28DC JUMP JUMPDEST DUP1 ISZERO PUSH2 0x887 JUMPI DUP1 PUSH1 0x1F LT PUSH2 0x85C JUMPI PUSH2 0x100 DUP1 DUP4 SLOAD DIV MUL DUP4 MSTORE SWAP2 PUSH1 0x20 ADD SWAP2 PUSH2 0x887 JUMP JUMPDEST DUP3 ADD SWAP2 SWAP1 PUSH1 0x0 MSTORE PUSH1 0x20 PUSH1 0x0 KECCAK256 SWAP1 JUMPDEST DUP2 SLOAD DUP2 MSTORE SWAP1 PUSH1 0x1 ADD SWAP1 PUSH1 0x20 ADD DUP1 DUP4 GT PUSH2 0x86A JUMPI DUP3 SWAP1 SUB PUSH1 0x1F AND DUP3 ADD SWAP2 JUMPDEST POP POP POP POP POP DUP2 JUMP JUMPDEST PUSH1 0xD PUSH1 0x20 MSTORE DUP1 PUSH1 0x0 MSTORE PUSH1 0x40 PUSH1 0x0 KECCAK256 PUSH1 0x0 SWAP2 POP SWAP1 POP DUP1 PUSH1 0x0 ADD DUP1 SLOAD PUSH2 0x8B2 SWAP1 PUSH2 0x28DC JUMP JUMPDEST DUP1 PUSH1 0x1F ADD PUSH1 0x20 DUP1 SWAP2 DIV MUL PUSH1 0x20 ADD PUSH1 0x40 MLOAD SWAP1 DUP2 ADD PUSH1 0x40 MSTORE DUP1 SWAP3 SWAP2 SWAP1 DUP2 DUP2 MSTORE PUSH1 0x20 ADD DUP3 DUP1 SLOAD PUSH2 0x8DE SWAP1 PUSH2 0x28DC JUMP JUMPDEST DUP1 ISZERO PUSH2 0x92B JUMPI DUP1 PUSH1 0x1F LT PUSH2 0x900 JUMPI PUSH2 0x100 DUP1 DUP4 SLOAD DIV MUL DUP4 MSTORE SWAP2 PUSH1 0x20 ADD SWAP2 PUSH2 0x92B JUMP JUMPDEST DUP3 ADD SWAP2 SWAP1 PUSH1 0x0 MSTORE PUSH1 0x20 PUSH1 0x0 KECCAK256 SWAP1 JUMPDEST DUP2 SLOAD DUP2 MSTORE SWAP1 PUSH1 0x1 ADD SWAP1 PUSH1 0x20 ADD DUP1 DUP4 GT PUSH2 0x90E JUMPI DUP3 SWAP1 SUB PUSH1 0x1F AND DUP3 ADD SWAP2 JUMPDEST POP POP POP POP POP SWAP1 DUP1 PUSH1 0x1 ADD DUP1 SLOAD PUSH2 0x940 SWAP1 PUSH2 0x28DC JUMP JUMPDEST DUP1 PUSH1 0x1F ADD PUSH1 0x20 DUP1 SWAP2 DIV MUL PUSH1 0x20 ADD PUSH1 0x40 MLOAD SWAP1 DUP2 ADD PUSH1 0x40 MSTORE DUP1 SWAP3 SWAP2 SWAP1 DUP2 DUP2 MSTORE PUSH1 0x20 ADD DUP3 DUP1 SLOAD PUSH2 0x96C SWAP1 PUSH2 0x28DC JUMP JUMPDEST DUP1 ISZERO PUSH2 0x9B9 JUMPI DUP1 PUSH1 0x1F LT PUSH2 0x98E JUMPI PUSH2 0x100 DUP1 DUP4 SLOAD DIV MUL DUP4 MSTORE SWAP2 PUSH1 0x20 ADD SWAP2 PUSH2 0x9B9 JUMP JUMPDEST DUP3 ADD SWAP2 SWAP1 PUSH1 0x0 MSTORE PUSH1 0x20 PUSH1 0x0 KECCAK256 SWAP1 JUMPDEST DUP2 SLOAD DUP2 MSTORE SWAP1 PUSH1 0x1 ADD SWAP1 PUSH1 0x20 ADD DUP1 DUP4 GT PUSH2 0x99C JUMPI DUP3 SWAP1 SUB PUSH1 0x1F AND DUP3 ADD SWAP2 JUMPDEST POP POP POP POP POP SWAP1 DUP1 PUSH1 0x2 ADD DUP1 SLOAD PUSH2 0x9CE SWAP1 PUSH2 0x28DC JUMP JUMPDEST DUP1 PUSH1 0x1F ADD PUSH1 0x20 DUP1 SWAP2 DIV MUL PUSH1 0x20 ADD PUSH1 0x40 MLOAD SWAP1 DUP2 ADD PUSH1 0x40 MSTORE DUP1 SWAP3 SWAP2 SWAP1 DUP2 DUP2 MSTORE PUSH1 0x20 ADD DUP3 DUP1 SLOAD PUSH2 0x9FA SWAP1 PUSH2 0x28DC JUMP JUMPDEST DUP1 ISZERO PUSH2 0xA47 JUMPI DUP1 PUSH1 0x1F LT PUSH2 0xA1C JUMPI PUSH2 0x100 DUP1 DUP4 SLOAD DIV MUL DUP4 MSTORE SWAP2 PUSH1 0x20 ADD SWAP2 PUSH2 0xA47 JUMP JUMPDEST DUP3 ADD SWAP2 SWAP1 PUSH1 0x0 MSTORE PUSH1 0x20 PUSH1 0x0 KECCAK256 SWAP1 JUMPDEST DUP2 SLOAD DUP2 MSTORE SWAP1 PUSH1 0x1 ADD SWAP1 PUSH1 0x20 ADD DUP1 DUP4 GT PUSH2 0xA2A JUMPI DUP3 SWAP1 SUB PUSH1 0x1F AND DUP3 ADD SWAP2 JUMPDEST POP POP POP POP POP SWAP1 DUP1 PUSH1 0x3 ADD DUP1 SLOAD PUSH2 0xA5C SWAP1 PUSH2 0x28DC JUMP JUMPDEST DUP1 PUSH1 0x1F ADD PUSH1 0x20 DUP1 SWAP2 DIV MUL PUSH1 0x20 ADD PUSH1 0x40 MLOAD SWAP1 DUP2 ADD PUSH1 0x40 MSTORE DUP1 SWAP3 SWAP2 SWAP1 DUP2 DUP2 MSTORE PUSH1 0x20 ADD DUP3 DUP1 SLOAD PUSH2 0xA88 SWAP1 PUSH2 0x28DC JUMP JUMPDEST DUP1 ISZERO PUSH2 0xAD5 JUMPI DUP1 PUSH1 0x1F LT PUSH2 0xAAA JUMPI PUSH2 0x100 DUP1 DUP4 SLOAD DIV MUL DUP4 MSTORE SWAP2 PUSH1 0x20 ADD SWAP2 PUSH2 0xAD5 JUMP JUMPDEST DUP3 ADD SWAP2 SWAP1 PUSH1 0x0 MSTORE PUSH1 0x20 PUSH1 0x0 KECCAK256 SWAP1 JUMPDEST DUP2 SLOAD DUP2 MSTORE SWAP1 PUSH1 0x1 ADD SWAP1 PUSH1 0x20 ADD DUP1 DUP4 GT PUSH2 0xAB8 JUMPI DUP3 SWAP1 SUB PUSH1 0x1F AND DUP3 ADD SWAP2 JUMPDEST POP POP POP POP POP SWAP1 DUP1 PUSH1 0x4 ADD DUP1 SLOAD PUSH2 0xAEA SWAP1 PUSH2 0x28DC JUMP JUMPDEST DUP1 PUSH1 0x1F ADD PUSH1 0x20 DUP1 SWAP2 DIV MUL PUSH1 0x20 ADD PUSH1 0x40 MLOAD SWAP1 DUP2 ADD PUSH1 0x40 MSTORE DUP1 SWAP3 SWAP2 SWAP1 DUP2 DUP2 MSTORE PUSH1 0x20 ADD DUP3 DUP1 SLOAD PUSH2 0xB16 SWAP1 PUSH2 0x28DC JUMP JUMPDEST DUP1 ISZERO PUSH2 0xB63 JUMPI DUP1 PUSH1 0x1F LT PUSH2 0xB38 JUMPI PUSH2 0x100 DUP1 DUP4 SLOAD DIV MUL DUP4 MSTORE SWAP2 PUSH1 0x20 ADD SWAP2 PUSH2 0xB63 JUMP JUMPDEST DUP3 ADD SWAP2 SWAP1 PUSH1 0x0 MSTORE PUSH1 0x20 PUSH1 0x0 KECCAK256 SWAP1 JUMPDEST DUP2 SLOAD DUP2 MSTORE SWAP1 PUSH1 0x1 ADD SWAP1 PUSH1 0x20 ADD DUP1 DUP4 GT PUSH2 0xB46 JUMPI DUP3 SWAP1 SUB PUSH1 0x1F AND DUP3 ADD SWAP2 JUMPDEST POP POP POP POP POP SWAP1 DUP1 PUSH1 0x5 ADD PUSH1 0x0 SWAP1 SLOAD SWAP1 PUSH2 0x100 EXP SWAP1 DIV PUSH20 0xFFFFFFFFFFFFFFFFFFFFFFFFFFFFFFFFFFFFFFFF AND SWAP1 DUP1 PUSH1 0x5 ADD PUSH1 0x14 SWAP1 SLOAD SWAP1 PUSH2 0x100 EXP SWAP1 DIV PUSH1 0xFF AND SWAP1 DUP1 PUSH1 0x6 ADD SLOAD SWAP1 DUP1 PUSH1 0x7 ADD SLOAD SWAP1 DUP1 PUSH1 0x8 ADD SLOAD SWAP1 DUP1 PUSH1 0x9 ADD PUSH1 0x0 SWAP1 SLOAD SWAP1 PUSH2 0x100 EXP SWAP1 DIV PUSH1 0xFF AND SWAP1 DUP1 PUSH1 0x9 ADD PUSH1 0x1 SWAP1 SLOAD SWAP1 PUSH2 0x100 EXP SWAP1 DIV PUSH1 0xFF AND SWAP1 POP DUP13 JUMP JUMPDEST PUSH1 0x5 DUP1 SLOAD PUSH2 0xBEB SWAP1 PUSH2 0x28DC JUMP JUMPDEST DUP1 PUSH1 0x1F ADD PUSH1 0x20 DUP1 SWAP2 DIV MUL PUSH1 0x20 ADD PUSH1 0x40 MLOAD SWAP1 DUP2 ADD PUSH1 0x40 MSTORE DUP1 SWAP3 SWAP2 SWAP1 DUP2 DUP2 MSTORE PUSH1 0x20 ADD DUP3 DUP1 SLOAD PUSH2 0xC17 SWAP1 PUSH2 0x28DC JUMP JUMPDEST DUP1 ISZERO PUSH2 0xC64 JUMPI DUP1 PUSH1 0x1F LT PUSH2 0xC39 JUMPI PUSH2 0x100 DUP1 DUP4 SLOAD DIV MUL DUP4 MSTORE SWAP2 PUSH1 0x20 ADD SWAP2 PUSH2 0xC64 JUMP JUMPDEST DUP3 ADD SWAP2 SWAP1 PUSH1 0x0 MSTORE PUSH1 0x20 PUSH1 0x0 KECCAK256 SWAP1 JUMPDEST DUP2 SLOAD DUP2 MSTORE SWAP1 PUSH1 0x1 ADD SWAP1 PUSH1 0x20 ADD DUP1 DUP4 GT PUSH2 0xC47 JUMPI DUP3 SWAP1 SUB PUSH1 0x1F AND DUP3 ADD SWAP2 JUMPDEST POP POP POP POP POP DUP2 JUMP JUMPDEST PUSH1 0x0 PUSH1 0xB PUSH1 0x0 SWAP1 SLOAD SWAP1 PUSH2 0x100 EXP SWAP1 DIV PUSH20 0xFFFFFFFFFFFFFFFFFFFFFFFFFFFFFFFFFFFFFFFF AND SWAP1 POP DUP1 PUSH20 0xFFFFFFFFFFFFFFFFFFFFFFFFFFFFFFFFFFFFFFFF AND PUSH4 0x5D672A62 CALLER PUSH1 0x40 MLOAD DUP3 PUSH4 0xFFFFFFFF AND PUSH1 0xE0 SHL DUP2 MSTORE PUSH1 0x4 ADD PUSH2 0xCCC SWAP2 SWAP1 PUSH2 0x271F JUMP JUMPDEST PUSH1 0x20 PUSH1 0x40 MLOAD DUP1 DUP4 SUB DUP2 DUP7 DUP1 EXTCODESIZE ISZERO DUP1 ISZERO PUSH2 0xCE4 JUMPI PUSH1 0x0 DUP1 REVERT JUMPDEST POP GAS STATICCALL ISZERO DUP1 ISZERO PUSH2 0xCF8 JUMPI RETURNDATASIZE PUSH1 0x0 DUP1 RETURNDATACOPY RETURNDATASIZE PUSH1 0x0 REVERT JUMPDEST POP POP POP POP PUSH1 0x40 MLOAD RETURNDATASIZE PUSH1 0x1F NOT PUSH1 0x1F DUP3 ADD AND DUP3 ADD DUP1 PUSH1 0x40 MSTORE POP DUP2 ADD SWAP1 PUSH2 0xD1C SWAP2 SWAP1 PUSH2 0x2766 JUMP JUMPDEST PUSH2 0xD25 JUMPI PUSH1 0x0 DUP1 REVERT JUMPDEST PUSH1 0x9 PUSH1 0x0 CALLER PUSH20 0xFFFFFFFFFFFFFFFFFFFFFFFFFFFFFFFFFFFFFFFF AND PUSH20 0xFFFFFFFFFFFFFFFFFFFFFFFFFFFFFFFFFFFFFFFF AND DUP2 MSTORE PUSH1 0x20 ADD SWAP1 DUP2 MSTORE PUSH1 0x20 ADD PUSH1 0x0 KECCAK256 PUSH1 0x0 SWAP1 SLOAD SWAP1 PUSH2 0x100 EXP SWAP1 DIV PUSH1 0xFF AND ISZERO PUSH2 0xD7C JUMPI PUSH1 0x0 DUP1 REVERT JUMPDEST PUSH1 0xA PUSH1 0x0 CALLER PUSH20 0xFFFFFFFFFFFFFFFFFFFFFFFFFFFFFFFFFFFFFFFF AND PUSH20 0xFFFFFFFFFFFFFFFFFFFFFFFFFFFFFFFFFFFFFFFF AND DUP2 MSTORE PUSH1 0x20 ADD SWAP1 DUP2 MSTORE PUSH1 0x20 ADD PUSH1 0x0 KECCAK256 PUSH1 0x0 SWAP1 SLOAD SWAP1 PUSH2 0x100 EXP SWAP1 DIV PUSH1 0xFF AND ISZERO PUSH2 0xDD3 JUMPI PUSH1 0x0 DUP1 REVERT JUMPDEST PUSH1 0x8 PUSH1 0x0 SWAP1 SLOAD SWAP1 PUSH2 0x100 EXP SWAP1 DIV PUSH1 0xFF AND ISZERO PUSH2 0xDED JUMPI PUSH1 0x0 DUP1 REVERT JUMPDEST PUSH1 0x8 PUSH1 0x1 SWAP1 SLOAD SWAP1 PUSH2 0x100 EXP SWAP1 DIV PUSH1 0xFF AND ISZERO PUSH2 0xE07 JUMPI PUSH1 0x0 DUP1 REVERT JUMPDEST PUSH1 0x1 PUSH1 0xA PUSH1 0x0 CALLER PUSH20 0xFFFFFFFFFFFFFFFFFFFFFFFFFFFFFFFFFFFFFFFF AND PUSH20 0xFFFFFFFFFFFFFFFFFFFFFFFFFFFFFFFFFFFFFFFF AND DUP2 MSTORE PUSH1 0x20 ADD SWAP1 DUP2 MSTORE PUSH1 0x20 ADD PUSH1 0x0 KECCAK256 PUSH1 0x0 PUSH2 0x100 EXP DUP2 SLOAD DUP2 PUSH1 0xFF MUL NOT AND SWAP1 DUP4 ISZERO ISZERO MUL OR SWAP1 SSTORE POP PUSH1 0x7 PUSH1 0x0 DUP2 SLOAD DUP1 SWAP3 SWAP2 SWAP1 PUSH2 0xE72 SWAP1 PUSH2 0x27C2 JUMP JUMPDEST SWAP2 SWAP1 POP SSTORE POP PUSH1 0x2 DUP2 PUSH20 0xFFFFFFFFFFFFFFFFFFFFFFFFFFFFFFFFFFFFFFFF AND PUSH4 0x997072F7 PUSH1 0x40 MLOAD DUP2 PUSH4 0xFFFFFFFF AND PUSH1 0xE0 SHL DUP2 MSTORE PUSH1 0x4 ADD PUSH1 0x20 PUSH1 0x40 MLOAD DUP1 DUP4 SUB DUP2 DUP7 DUP1 EXTCODESIZE ISZERO DUP1 ISZERO PUSH2 0xEBF JUMPI PUSH1 0x0 DUP1 REVERT JUMPDEST POP GAS STATICCALL ISZERO DUP1 ISZERO PUSH2 0xED3 JUMPI RETURNDATASIZE PUSH1 0x0 DUP1 RETURNDATACOPY RETURNDATASIZE PUSH1 0x0 REVERT JUMPDEST POP POP POP POP PUSH1 0x40 MLOAD RETURNDATASIZE PUSH1 0x1F NOT PUSH1 0x1F DUP3 ADD AND DUP3 ADD DUP1 PUSH1 0x40 MSTORE POP DUP2 ADD SWAP1 PUSH2 0xEF7 SWAP2 SWAP1 PUSH2 0x2820 JUMP JUMPDEST PUSH2 0xF01 SWAP2 SWAP1 PUSH2 0x287C JUMP JUMPDEST PUSH1 0x7 SLOAD GT ISZERO PUSH2 0xF26 JUMPI PUSH1 0x1 PUSH1 0x8 PUSH1 0x1 PUSH2 0x100 EXP DUP2 SLOAD DUP2 PUSH1 0xFF MUL NOT AND SWAP1 DUP4 ISZERO ISZERO MUL OR SWAP1 SSTORE POP JUMPDEST POP JUMP JUMPDEST PUSH1 0x8 PUSH1 0x0 SWAP1 SLOAD SWAP1 PUSH2 0x100 EXP SWAP1 DIV PUSH1 0xFF AND DUP2 JUMP JUMPDEST PUSH1 0x0 PUSH1 0xB PUSH1 0x0 SWAP1 SLOAD SWAP1 PUSH2 0x100 EXP SWAP1 DIV PUSH20 0xFFFFFFFFFFFFFFFFFFFFFFFFFFFFFFFFFFFFFFFF AND SWAP1 POP DUP1 PUSH20 0xFFFFFFFFFFFFFFFFFFFFFFFFFFFFFFFFFFFFFFFF AND PUSH4 0x18F5472 CALLER PUSH1 0x40 MLOAD DUP3 PUSH4 0xFFFFFFFF AND PUSH1 0xE0 SHL DUP2 MSTORE PUSH1 0x4 ADD PUSH2 0xF9C SWAP2 SWAP1 PUSH2 0x271F JUMP JUMPDEST PUSH1 0x20 PUSH1 0x40 MLOAD DUP1 DUP4 SUB DUP2 DUP7 DUP1 EXTCODESIZE ISZERO DUP1 ISZERO PUSH2 0xFB4 JUMPI PUSH1 0x0 DUP1 REVERT JUMPDEST POP GAS STATICCALL ISZERO DUP1 ISZERO PUSH2 0xFC8 JUMPI RETURNDATASIZE PUSH1 0x0 DUP1 RETURNDATACOPY RETURNDATASIZE PUSH1 0x0 REVERT JUMPDEST POP POP POP POP PUSH1 0x40 MLOAD RETURNDATASIZE PUSH1 0x1F NOT PUSH1 0x1F DUP3 ADD AND DUP3 ADD DUP1 PUSH1 0x40 MSTORE POP DUP2 ADD SWAP1 PUSH2 0xFEC SWAP2 SWAP1 PUSH2 0x2766 JUMP JUMPDEST PUSH2 0xFF5 JUMPI PUSH1 0x0 DUP1 REVERT JUMPDEST DUP1 PUSH20 0xFFFFFFFFFFFFFFFFFFFFFFFFFFFFFFFFFFFFFFFF AND PUSH4 0x5D672A62 CALLER PUSH1 0x40 MLOAD DUP3 PUSH4 0xFFFFFFFF AND PUSH1 0xE0 SHL DUP2 MSTORE PUSH1 0x4 ADD PUSH2 0x102E SWAP2 SWAP1 PUSH2 0x271F JUMP JUMPDEST PUSH1 0x20 PUSH1 0x40 MLOAD DUP1 DUP4 SUB DUP2 DUP7 DUP1 EXTCODESIZE ISZERO DUP1 ISZERO PUSH2 0x1046 JUMPI PUSH1 0x0 DUP1 REVERT JUMPDEST POP GAS STATICCALL ISZERO DUP1 ISZERO PUSH2 0x105A JUMPI RETURNDATASIZE PUSH1 0x0 DUP1 RETURNDATACOPY RETURNDATASIZE PUSH1 0x0 REVERT JUMPDEST POP POP POP POP PUSH1 0x40 MLOAD RETURNDATASIZE PUSH1 0x1F NOT PUSH1 0x1F DUP3 ADD AND DUP3 ADD DUP1 PUSH1 0x40 MSTORE POP DUP2 ADD SWAP1 PUSH2 0x107E SWAP2 SWAP1 PUSH2 0x2766 JUMP JUMPDEST ISZERO PUSH2 0x1088 JUMPI PUSH1 0x0 DUP1 REVERT JUMPDEST PUSH1 0xD PUSH1 0x0 DUP4 DUP2 MSTORE PUSH1 0x20 ADD SWAP1 DUP2 MSTORE PUSH1 0x20 ADD PUSH1 0x0 KECCAK256 PUSH1 0x9 ADD PUSH1 0x0 SWAP1 SLOAD SWAP1 PUSH2 0x100 EXP SWAP1 DIV PUSH1 0xFF AND PUSH2 0x10B5 JUMPI PUSH1 0x0 DUP1 REVERT JUMPDEST PUSH1 0x0 PUSH1 0xD PUSH1 0x0 DUP5 DUP2 MSTORE PUSH1 0x20 ADD SWAP1 DUP2 MSTORE PUSH1 0x20 ADD PUSH1 0x0 KECCAK256 SWAP1 POP DUP2 PUSH20 0xFFFFFFFFFFFFFFFFFFFFFFFFFFFFFFFFFFFFFFFF AND PUSH4 0xF77AC668 DUP3 PUSH1 0x5 ADD PUSH1 0x0 SWAP1 SLOAD SWAP1 PUSH2 0x100 EXP SWAP1 DIV PUSH20 0xFFFFFFFFFFFFFFFFFFFFFFFFFFFFFFFFFFFFFFFF AND DUP4 PUSH1 0x6 ADD SLOAD PUSH1 0x40 MLOAD DUP4 PUSH4 0xFFFFFFFF AND PUSH1 0xE0 SHL DUP2 MSTORE PUSH1 0x4 ADD PUSH2 0x112F SWAP3 SWAP2 SWAP1 PUSH2 0x290E JUMP JUMPDEST PUSH1 0x0 PUSH1 0x40 MLOAD DUP1 DUP4 SUB DUP2 PUSH1 0x0 DUP8 DUP1 EXTCODESIZE ISZERO DUP1 ISZERO PUSH2 0x1149 JUMPI PUSH1 0x0 DUP1 REVERT JUMPDEST POP GAS CALL ISZERO DUP1 ISZERO PUSH2 0x115D JUMPI RETURNDATASIZE PUSH1 0x0 DUP1 RETURNDATACOPY RETURNDATASIZE PUSH1 0x0 REVERT JUMPDEST POP POP POP POP PUSH1 0x1 DUP2 PUSH1 0x5 ADD PUSH1 0x14 PUSH2 0x100 EXP DUP2 SLOAD DUP2 PUSH1 0xFF MUL NOT AND SWAP1 DUP4 ISZERO ISZERO MUL OR SWAP1 SSTORE POP POP POP POP JUMP JUMPDEST PUSH1 0x0 PUSH1 0xB PUSH1 0x0 SWAP1 SLOAD SWAP1 PUSH2 0x100 EXP SWAP1 DIV PUSH20 0xFFFFFFFFFFFFFFFFFFFFFFFFFFFFFFFFFFFFFFFF AND SWAP1 POP DUP1 PUSH20 0xFFFFFFFFFFFFFFFFFFFFFFFFFFFFFFFFFFFFFFFF AND PUSH4 0x18F5472 CALLER PUSH1 0x40 MLOAD DUP3 PUSH4 0xFFFFFFFF AND PUSH1 0xE0 SHL DUP2 MSTORE PUSH1 0x4 ADD PUSH2 0x11E3 SWAP2 SWAP1 PUSH2 0x271F JUMP JUMPDEST PUSH1 0x20 PUSH1 0x40 MLOAD DUP1 DUP4 SUB DUP2 DUP7 DUP1 EXTCODESIZE ISZERO DUP1 ISZERO PUSH2 0x11FB JUMPI PUSH1 0x0 DUP1 REVERT JUMPDEST POP GAS STATICCALL ISZERO DUP1 ISZERO PUSH2 0x120F JUMPI RETURNDATASIZE PUSH1 0x0 DUP1 RETURNDATACOPY RETURNDATASIZE PUSH1 0x0 REVERT JUMPDEST POP POP POP POP PUSH1 0x40 MLOAD RETURNDATASIZE PUSH1 0x1F NOT PUSH1 0x1F DUP3 ADD AND DUP3 ADD DUP1 PUSH1 0x40 MSTORE POP DUP2 ADD SWAP1 PUSH2 0x1233 SWAP2 SWAP1 PUSH2 0x2766 JUMP JUMPDEST PUSH2 0x123C JUMPI PUSH1 0x0 DUP1 REVERT JUMPDEST DUP1 PUSH20 0xFFFFFFFFFFFFFFFFFFFFFFFFFFFFFFFFFFFFFFFF AND PUSH4 0x5D672A62 CALLER PUSH1 0x40 MLOAD DUP3 PUSH4 0xFFFFFFFF AND PUSH1 0xE0 SHL DUP2 MSTORE PUSH1 0x4 ADD PUSH2 0x1275 SWAP2 SWAP1 PUSH2 0x271F JUMP JUMPDEST PUSH1 0x20 PUSH1 0x40 MLOAD DUP1 DUP4 SUB DUP2 DUP7 DUP1 EXTCODESIZE ISZERO DUP1 ISZERO PUSH2 0x128D JUMPI PUSH1 0x0 DUP1 REVERT JUMPDEST POP GAS STATICCALL ISZERO DUP1 ISZERO PUSH2 0x12A1 JUMPI RETURNDATASIZE PUSH1 0x0 DUP1 RETURNDATACOPY RETURNDATASIZE PUSH1 0x0 REVERT JUMPDEST POP POP POP POP PUSH1 0x40 MLOAD RETURNDATASIZE PUSH1 0x1F NOT PUSH1 0x1F DUP3 ADD AND DUP3 ADD DUP1 PUSH1 0x40 MSTORE POP DUP2 ADD SWAP1 PUSH2 0x12C5 SWAP2 SWAP1 PUSH2 0x2766 JUMP JUMPDEST ISZERO PUSH2 0x12CF JUMPI PUSH1 0x0 DUP1 REVERT JUMPDEST PUSH1 0x8 PUSH1 0x0 SWAP1 SLOAD SWAP1 PUSH2 0x100 EXP SWAP1 DIV PUSH1 0xFF AND DUP1 ISZERO PUSH2 0x12F8 JUMPI POP PUSH1 0x8 PUSH1 0x1 SWAP1 SLOAD SWAP1 PUSH2 0x100 EXP SWAP1 DIV PUSH1 0xFF AND ISZERO JUMPDEST PUSH2 0x1301 JUMPI PUSH1 0x0 DUP1 REVERT JUMPDEST PUSH1 0x0 PUSH1 0xD PUSH1 0x0 PUSH1 0xC PUSH1 0x0 DUP2 SLOAD DUP1 SWAP3 SWAP2 SWAP1 PUSH2 0x131A SWAP1 PUSH2 0x27C2 JUMP JUMPDEST SWAP2 SWAP1 POP SSTORE DUP2 MSTORE PUSH1 0x20 ADD SWAP1 DUP2 MSTORE PUSH1 0x20 ADD PUSH1 0x0 KECCAK256 SWAP1 POP DUP9 DUP2 PUSH1 0x0 ADD SWAP1 DUP1 MLOAD SWAP1 PUSH1 0x20 ADD SWAP1 PUSH2 0x1346 SWAP3 SWAP2 SWAP1 PUSH2 0x20C3 JUMP JUMPDEST POP DUP8 DUP2 PUSH1 0x1 ADD SWAP1 DUP1 MLOAD SWAP1 PUSH1 0x20 ADD SWAP1 PUSH2 0x135F SWAP3 SWAP2 SWAP1 PUSH2 0x20C3 JUMP JUMPDEST POP DUP7 DUP2 PUSH1 0x2 ADD SWAP1 DUP1 MLOAD SWAP1 PUSH1 0x20 ADD SWAP1 PUSH2 0x1378 SWAP3 SWAP2 SWAP1 PUSH2 0x20C3 JUMP JUMPDEST POP DUP6 DUP2 PUSH1 0x3 ADD SWAP1 DUP1 MLOAD SWAP1 PUSH1 0x20 ADD SWAP1 PUSH2 0x1391 SWAP3 SWAP2 SWAP1 PUSH2 0x20C3 JUMP JUMPDEST POP DUP5 DUP2 PUSH1 0x4 ADD SWAP1 DUP1 MLOAD SWAP1 PUSH1 0x20 ADD SWAP1 PUSH2 0x13AA SWAP3 SWAP2 SWAP1 PUSH2 0x20C3 JUMP JUMPDEST POP DUP4 DUP2 PUSH1 0x5 ADD PUSH1 0x0 PUSH2 0x100 EXP DUP2 SLOAD DUP2 PUSH20 0xFFFFFFFFFFFFFFFFFFFFFFFFFFFFFFFFFFFFFFFF MUL NOT AND SWAP1 DUP4 PUSH20 0xFFFFFFFFFFFFFFFFFFFFFFFFFFFFFFFFFFFFFFFF AND MUL OR SWAP1 SSTORE POP DUP3 DUP2 PUSH1 0x6 ADD DUP2 SWAP1 SSTORE POP PUSH1 0x0 DUP2 PUSH1 0x7 ADD DUP2 SWAP1 SSTORE POP PUSH1 0x0 DUP2 PUSH1 0x8 ADD DUP2 SWAP1 SSTORE POP PUSH1 0x0 DUP2 PUSH1 0x9 ADD PUSH1 0x0 PUSH2 0x100 EXP DUP2 SLOAD DUP2 PUSH1 0xFF MUL NOT AND SWAP1 DUP4 ISZERO ISZERO MUL OR SWAP1 SSTORE POP PUSH1 0x0 DUP2 PUSH1 0x9 ADD PUSH1 0x1 PUSH2 0x100 EXP DUP2 SLOAD DUP2 PUSH1 0xFF MUL NOT AND SWAP1 DUP4 ISZERO ISZERO MUL OR SWAP1 SSTORE POP POP POP POP POP POP POP POP POP POP JUMP JUMPDEST PUSH1 0x1 DUP1 SLOAD PUSH2 0x145D SWAP1 PUSH2 0x28DC JUMP JUMPDEST DUP1 PUSH1 0x1F ADD PUSH1 0x20 DUP1 SWAP2 DIV MUL PUSH1 0x20 ADD PUSH1 0x40 MLOAD SWAP1 DUP2 ADD PUSH1 0x40 MSTORE DUP1 SWAP3 SWAP2 SWAP1 DUP2 DUP2 MSTORE PUSH1 0x20 ADD DUP3 DUP1 SLOAD PUSH2 0x1489 SWAP1 PUSH2 0x28DC JUMP JUMPDEST DUP1 ISZERO PUSH2 0x14D6 JUMPI DUP1 PUSH1 0x1F LT PUSH2 0x14AB JUMPI PUSH2 0x100 DUP1 DUP4 SLOAD DIV MUL DUP4 MSTORE SWAP2 PUSH1 0x20 ADD SWAP2 PUSH2 0x14D6 JUMP JUMPDEST DUP3 ADD SWAP2 SWAP1 PUSH1 0x0 MSTORE PUSH1 0x20 PUSH1 0x0 KECCAK256 SWAP1 JUMPDEST DUP2 SLOAD DUP2 MSTORE SWAP1 PUSH1 0x1 ADD SWAP1 PUSH1 0x20 ADD DUP1 DUP4 GT PUSH2 0x14B9 JUMPI DUP3 SWAP1 SUB PUSH1 0x1F AND DUP3 ADD SWAP2 JUMPDEST POP POP POP POP POP DUP2 JUMP JUMPDEST PUSH1 0xC SLOAD DUP2 JUMP JUMPDEST PUSH1 0x4 DUP1 SLOAD PUSH2 0x14F1 SWAP1 PUSH2 0x28DC JUMP JUMPDEST DUP1 PUSH1 0x1F ADD PUSH1 0x20 DUP1 SWAP2 DIV MUL PUSH1 0x20 ADD PUSH1 0x40 MLOAD SWAP1 DUP2 ADD PUSH1 0x40 MSTORE DUP1 SWAP3 SWAP2 SWAP1 DUP2 DUP2 MSTORE PUSH1 0x20 ADD DUP3 DUP1 SLOAD PUSH2 0x151D SWAP1 PUSH2 0x28DC JUMP JUMPDEST DUP1 ISZERO PUSH2 0x156A JUMPI DUP1 PUSH1 0x1F LT PUSH2 0x153F JUMPI PUSH2 0x100 DUP1 DUP4 SLOAD DIV MUL DUP4 MSTORE SWAP2 PUSH1 0x20 ADD SWAP2 PUSH2 0x156A JUMP JUMPDEST DUP3 ADD SWAP2 SWAP1 PUSH1 0x0 MSTORE PUSH1 0x20 PUSH1 0x0 KECCAK256 SWAP1 JUMPDEST DUP2 SLOAD DUP2 MSTORE SWAP1 PUSH1 0x1 ADD SWAP1 PUSH1 0x20 ADD DUP1 DUP4 GT PUSH2 0x154D JUMPI DUP3 SWAP1 SUB PUSH1 0x1F AND DUP3 ADD SWAP2 JUMPDEST POP POP POP POP POP DUP2 JUMP JUMPDEST PUSH1 0x3 DUP1 SLOAD PUSH2 0x157F SWAP1 PUSH2 0x28DC JUMP JUMPDEST DUP1 PUSH1 0x1F ADD PUSH1 0x20 DUP1 SWAP2 DIV MUL PUSH1 0x20 ADD PUSH1 0x40 MLOAD SWAP1 DUP2 ADD PUSH1 0x40 MSTORE DUP1 SWAP3 SWAP2 SWAP1 DUP2 DUP2 MSTORE PUSH1 0x20 ADD DUP3 DUP1 SLOAD PUSH2 0x15AB SWAP1 PUSH2 0x28DC JUMP JUMPDEST DUP1 ISZERO PUSH2 0x15F8 JUMPI DUP1 PUSH1 0x1F LT PUSH2 0x15CD JUMPI PUSH2 0x100 DUP1 DUP4 SLOAD DIV MUL DUP4 MSTORE SWAP2 PUSH1 0x20 ADD SWAP2 PUSH2 0x15F8 JUMP JUMPDEST DUP3 ADD SWAP2 SWAP1 PUSH1 0x0 MSTORE PUSH1 0x20 PUSH1 0x0 KECCAK256 SWAP1 JUMPDEST DUP2 SLOAD DUP2 MSTORE SWAP1 PUSH1 0x1 ADD SWAP1 PUSH1 0x20 ADD DUP1 DUP4 GT PUSH2 0x15DB JUMPI DUP3 SWAP1 SUB PUSH1 0x1F AND DUP3 ADD SWAP2 JUMPDEST POP POP POP POP POP DUP2 JUMP JUMPDEST PUSH1 0x0 DUP1 PUSH1 0xB PUSH1 0x0 SWAP1 SLOAD SWAP1 PUSH2 0x100 EXP SWAP1 DIV PUSH20 0xFFFFFFFFFFFFFFFFFFFFFFFFFFFFFFFFFFFFFFFF AND SWAP1 POP DUP1 PUSH20 0xFFFFFFFFFFFFFFFFFFFFFFFFFFFFFFFFFFFFFFFF AND PUSH4 0x5D672A62 CALLER PUSH1 0x40 MLOAD DUP3 PUSH4 0xFFFFFFFF AND PUSH1 0xE0 SHL DUP2 MSTORE PUSH1 0x4 ADD PUSH2 0x1661 SWAP2 SWAP1 PUSH2 0x271F JUMP JUMPDEST PUSH1 0x20 PUSH1 0x40 MLOAD DUP1 DUP4 SUB DUP2 DUP7 DUP1 EXTCODESIZE ISZERO DUP1 ISZERO PUSH2 0x1679 JUMPI PUSH1 0x0 DUP1 REVERT JUMPDEST POP GAS STATICCALL ISZERO DUP1 ISZERO PUSH2 0x168D JUMPI RETURNDATASIZE PUSH1 0x0 DUP1 RETURNDATACOPY RETURNDATASIZE PUSH1 0x0 REVERT JUMPDEST POP POP POP POP PUSH1 0x40 MLOAD RETURNDATASIZE PUSH1 0x1F NOT PUSH1 0x1F DUP3 ADD AND DUP3 ADD DUP1 PUSH1 0x40 MSTORE POP DUP2 ADD SWAP1 PUSH2 0x16B1 SWAP2 SWAP1 PUSH2 0x2766 JUMP JUMPDEST PUSH2 0x16BA JUMPI PUSH1 0x0 DUP1 REVERT JUMPDEST DUP1 PUSH20 0xFFFFFFFFFFFFFFFFFFFFFFFFFFFFFFFFFFFFFFFF AND PUSH4 0x18F5472 CALLER PUSH1 0x40 MLOAD DUP3 PUSH4 0xFFFFFFFF AND PUSH1 0xE0 SHL DUP2 MSTORE PUSH1 0x4 ADD PUSH2 0x16F3 SWAP2 SWAP1 PUSH2 0x271F JUMP JUMPDEST PUSH1 0x20 PUSH1 0x40 MLOAD DUP1 DUP4 SUB DUP2 DUP7 DUP1 EXTCODESIZE ISZERO DUP1 ISZERO PUSH2 0x170B JUMPI PUSH1 0x0 DUP1 REVERT JUMPDEST POP GAS STATICCALL ISZERO DUP1 ISZERO PUSH2 0x171F JUMPI RETURNDATASIZE PUSH1 0x0 DUP1 RETURNDATACOPY RETURNDATASIZE PUSH1 0x0 REVERT JUMPDEST POP POP POP POP PUSH1 0x40 MLOAD RETURNDATASIZE PUSH1 0x1F NOT PUSH1 0x1F DUP3 ADD AND DUP3 ADD DUP1 PUSH1 0x40 MSTORE POP DUP2 ADD SWAP1 PUSH2 0x1743 SWAP2 SWAP1 PUSH2 0x2766 JUMP JUMPDEST ISZERO PUSH2 0x174D JUMPI PUSH1 0x0 DUP1 REVERT JUMPDEST PUSH1 0xD PUSH1 0x0 DUP5 DUP2 MSTORE PUSH1 0x20 ADD SWAP1 DUP2 MSTORE PUSH1 0x20 ADD PUSH1 0x0 KECCAK256 PUSH1 0xA ADD PUSH1 0x0 CALLER PUSH20 0xFFFFFFFFFFFFFFFFFFFFFFFFFFFFFFFFFFFFFFFF AND PUSH20 0xFFFFFFFFFFFFFFFFFFFFFFFFFFFFFFFFFFFFFFFF AND DUP2 MSTORE PUSH1 0x20 ADD SWAP1 DUP2 MSTORE PUSH1 0x20 ADD PUSH1 0x0 KECCAK256 PUSH1 0x0 SWAP1 SLOAD SWAP1 PUSH2 0x100 EXP SWAP1 DIV PUSH1 0xFF AND ISZERO PUSH2 0x17BD JUMPI PUSH1 0x1 SWAP2 POP POP PUSH2 0x17C3 JUMP JUMPDEST PUSH1 0x0 SWAP2 POP POP JUMPDEST SWAP2 SWAP1 POP JUMP JUMPDEST PUSH1 0x6 SLOAD DUP2 JUMP JUMPDEST PUSH1 0x0 DUP1 PUSH1 0xB PUSH1 0x0 SWAP1 SLOAD SWAP1 PUSH2 0x100 EXP SWAP1 DIV PUSH20 0xFFFFFFFFFFFFFFFFFFFFFFFFFFFFFFFFFFFFFFFF AND SWAP1 POP DUP1 PUSH20 0xFFFFFFFFFFFFFFFFFFFFFFFFFFFFFFFFFFFFFFFF AND PUSH4 0x5D672A62 CALLER PUSH1 0x40 MLOAD DUP3 PUSH4 0xFFFFFFFF AND PUSH1 0xE0 SHL DUP2 MSTORE PUSH1 0x4 ADD PUSH2 0x182F SWAP2 SWAP1 PUSH2 0x271F JUMP JUMPDEST PUSH1 0x20 PUSH1 0x40 MLOAD DUP1 DUP4 SUB DUP2 DUP7 DUP1 EXTCODESIZE ISZERO DUP1 ISZERO PUSH2 0x1847 JUMPI PUSH1 0x0 DUP1 REVERT JUMPDEST POP GAS STATICCALL ISZERO DUP1 ISZERO PUSH2 0x185B JUMPI RETURNDATASIZE PUSH1 0x0 DUP1 RETURNDATACOPY RETURNDATASIZE PUSH1 0x0 REVERT JUMPDEST POP POP POP POP PUSH1 0x40 MLOAD RETURNDATASIZE PUSH1 0x1F NOT PUSH1 0x1F DUP3 ADD AND DUP3 ADD DUP1 PUSH1 0x40 MSTORE POP DUP2 ADD SWAP1 PUSH2 0x187F SWAP2 SWAP1 PUSH2 0x2766 JUMP JUMPDEST PUSH2 0x1888 JUMPI PUSH1 0x0 DUP1 REVERT JUMPDEST DUP1 PUSH20 0xFFFFFFFFFFFFFFFFFFFFFFFFFFFFFFFFFFFFFFFF AND PUSH4 0x18F5472 CALLER PUSH1 0x40 MLOAD DUP3 PUSH4 0xFFFFFFFF AND PUSH1 0xE0 SHL DUP2 MSTORE PUSH1 0x4 ADD PUSH2 0x18C1 SWAP2 SWAP1 PUSH2 0x271F JUMP JUMPDEST PUSH1 0x20 PUSH1 0x40 MLOAD DUP1 DUP4 SUB DUP2 DUP7 DUP1 EXTCODESIZE ISZERO DUP1 ISZERO PUSH2 0x18D9 JUMPI PUSH1 0x0 DUP1 REVERT JUMPDEST POP GAS STATICCALL ISZERO DUP1 ISZERO PUSH2 0x18ED JUMPI RETURNDATASIZE PUSH1 0x0 DUP1 RETURNDATACOPY RETURNDATASIZE PUSH1 0x0 REVERT JUMPDEST POP POP POP POP PUSH1 0x40 MLOAD RETURNDATASIZE PUSH1 0x1F NOT PUSH1 0x1F DUP3 ADD AND DUP3 ADD DUP1 PUSH1 0x40 MSTORE POP DUP2 ADD SWAP1 PUSH2 0x1911 SWAP2 SWAP1 PUSH2 0x2766 JUMP JUMPDEST ISZERO PUSH2 0x191B JUMPI PUSH1 0x0 DUP1 REVERT JUMPDEST PUSH1 0xD PUSH1 0x0 DUP5 DUP2 MSTORE PUSH1 0x20 ADD SWAP1 DUP2 MSTORE PUSH1 0x20 ADD PUSH1 0x0 KECCAK256 PUSH1 0xB ADD PUSH1 0x0 CALLER PUSH20 0xFFFFFFFFFFFFFFFFFFFFFFFFFFFFFFFFFFFFFFFF AND PUSH20 0xFFFFFFFFFFFFFFFFFFFFFFFFFFFFFFFFFFFFFFFF AND DUP2 MSTORE PUSH1 0x20 ADD SWAP1 DUP2 MSTORE PUSH1 0x20 ADD PUSH1 0x0 KECCAK256 PUSH1 0x0 SWAP1 SLOAD SWAP1 PUSH2 0x100 EXP SWAP1 DIV PUSH1 0xFF AND ISZERO PUSH2 0x198B JUMPI PUSH1 0x1 SWAP2 POP POP PUSH2 0x1991 JUMP JUMPDEST PUSH1 0x0 SWAP2 POP POP JUMPDEST SWAP2 SWAP1 POP JUMP JUMPDEST PUSH1 0x8 PUSH1 0x1 SWAP1 SLOAD SWAP1 PUSH2 0x100 EXP SWAP1 DIV PUSH1 0xFF AND DUP2 JUMP JUMPDEST PUSH1 0x9 PUSH1 0x20 MSTORE DUP1 PUSH1 0x0 MSTORE PUSH1 0x40 PUSH1 0x0 KECCAK256 PUSH1 0x0 SWAP2 POP SLOAD SWAP1 PUSH2 0x100 EXP SWAP1 DIV PUSH1 0xFF AND DUP2 JUMP JUMPDEST PUSH1 0xA PUSH1 0x20 MSTORE DUP1 PUSH1 0x0 MSTORE PUSH1 0x40 PUSH1 0x0 KECCAK256 PUSH1 0x0 SWAP2 POP SLOAD SWAP1 PUSH2 0x100 EXP SWAP1 DIV PUSH1 0xFF AND DUP2 JUMP JUMPDEST PUSH1 0x2 PUSH1 0x0 SWAP1 SLOAD SWAP1 PUSH2 0x100 EXP SWAP1 DIV PUSH20 0xFFFFFFFFFFFFFFFFFFFFFFFFFFFFFFFFFFFFFFFF AND DUP2 JUMP JUMPDEST PUSH1 0x0 PUSH1 0xB PUSH1 0x0 SWAP1 SLOAD SWAP1 PUSH2 0x100 EXP SWAP1 DIV PUSH20 0xFFFFFFFFFFFFFFFFFFFFFFFFFFFFFFFFFFFFFFFF AND SWAP1 POP DUP1 PUSH20 0xFFFFFFFFFFFFFFFFFFFFFFFFFFFFFFFFFFFFFFFF AND PUSH4 0x5D672A62 CALLER PUSH1 0x40 MLOAD DUP3 PUSH4 0xFFFFFFFF AND PUSH1 0xE0 SHL DUP2 MSTORE PUSH1 0x4 ADD PUSH2 0x1A6F SWAP2 SWAP1 PUSH2 0x271F JUMP JUMPDEST PUSH1 0x20 PUSH1 0x40 MLOAD DUP1 DUP4 SUB DUP2 DUP7 DUP1 EXTCODESIZE ISZERO DUP1 ISZERO PUSH2 0x1A87 JUMPI PUSH1 0x0 DUP1 REVERT JUMPDEST POP GAS STATICCALL ISZERO DUP1 ISZERO PUSH2 0x1A9B JUMPI RETURNDATASIZE PUSH1 0x0 DUP1 RETURNDATACOPY RETURNDATASIZE PUSH1 0x0 REVERT JUMPDEST POP POP POP POP PUSH1 0x40 MLOAD RETURNDATASIZE PUSH1 0x1F NOT PUSH1 0x1F DUP3 ADD AND DUP3 ADD DUP1 PUSH1 0x40 MSTORE POP DUP2 ADD SWAP1 PUSH2 0x1ABF SWAP2 SWAP1 PUSH2 0x2766 JUMP JUMPDEST PUSH2 0x1AC8 JUMPI PUSH1 0x0 DUP1 REVERT JUMPDEST DUP1 PUSH20 0xFFFFFFFFFFFFFFFFFFFFFFFFFFFFFFFFFFFFFFFF AND PUSH4 0x18F5472 CALLER PUSH1 0x40 MLOAD DUP3 PUSH4 0xFFFFFFFF AND PUSH1 0xE0 SHL DUP2 MSTORE PUSH1 0x4 ADD PUSH2 0x1B01 SWAP2 SWAP1 PUSH2 0x271F JUMP JUMPDEST PUSH1 0x20 PUSH1 0x40 MLOAD DUP1 DUP4 SUB DUP2 DUP7 DUP1 EXTCODESIZE ISZERO DUP1 ISZERO PUSH2 0x1B19 JUMPI PUSH1 0x0 DUP1 REVERT JUMPDEST POP GAS STATICCALL ISZERO DUP1 ISZERO PUSH2 0x1B2D JUMPI RETURNDATASIZE PUSH1 0x0 DUP1 RETURNDATACOPY RETURNDATASIZE PUSH1 0x0 REVERT JUMPDEST POP POP POP POP PUSH1 0x40 MLOAD RETURNDATASIZE PUSH1 0x1F NOT PUSH1 0x1F DUP3 ADD AND DUP3 ADD DUP1 PUSH1 0x40 MSTORE POP DUP2 ADD SWAP1 PUSH2 0x1B51 SWAP2 SWAP1 PUSH2 0x2766 JUMP JUMPDEST ISZERO PUSH2 0x1B5B JUMPI PUSH1 0x0 DUP1 REVERT JUMPDEST PUSH1 0xD PUSH1 0x0 DUP4 DUP2 MSTORE PUSH1 0x20 ADD SWAP1 DUP2 MSTORE PUSH1 0x20 ADD PUSH1 0x0 KECCAK256 PUSH1 0xA ADD PUSH1 0x0 CALLER PUSH20 0xFFFFFFFFFFFFFFFFFFFFFFFFFFFFFFFFFFFFFFFF AND PUSH20 0xFFFFFFFFFFFFFFFFFFFFFFFFFFFFFFFFFFFFFFFF AND DUP2 MSTORE PUSH1 0x20 ADD SWAP1 DUP2 MSTORE PUSH1 0x20 ADD PUSH1 0x0 KECCAK256 PUSH1 0x0 SWAP1 SLOAD SWAP1 PUSH2 0x100 EXP SWAP1 DIV PUSH1 0xFF AND ISZERO PUSH2 0x1BC6 JUMPI PUSH1 0x0 DUP1 REVERT JUMPDEST PUSH1 0xD PUSH1 0x0 DUP4 DUP2 MSTORE PUSH1 0x20 ADD SWAP1 DUP2 MSTORE PUSH1 0x20 ADD PUSH1 0x0 KECCAK256 PUSH1 0xB ADD PUSH1 0x0 CALLER PUSH20 0xFFFFFFFFFFFFFFFFFFFFFFFFFFFFFFFFFFFFFFFF AND PUSH20 0xFFFFFFFFFFFFFFFFFFFFFFFFFFFFFFFFFFFFFFFF AND DUP2 MSTORE PUSH1 0x20 ADD SWAP1 DUP2 MSTORE PUSH1 0x20 ADD PUSH1 0x0 KECCAK256 PUSH1 0x0 SWAP1 SLOAD SWAP1 PUSH2 0x100 EXP SWAP1 DIV PUSH1 0xFF AND ISZERO PUSH2 0x1C31 JUMPI PUSH1 0x0 DUP1 REVERT JUMPDEST PUSH1 0xD PUSH1 0x0 DUP4 DUP2 MSTORE PUSH1 0x20 ADD SWAP1 DUP2 MSTORE PUSH1 0x20 ADD PUSH1 0x0 KECCAK256 PUSH1 0x9 ADD PUSH1 0x0 SWAP1 SLOAD SWAP1 PUSH2 0x100 EXP SWAP1 DIV PUSH1 0xFF AND ISZERO PUSH2 0x1C5F JUMPI PUSH1 0x0 DUP1 REVERT JUMPDEST PUSH1 0xD PUSH1 0x0 DUP4 DUP2 MSTORE PUSH1 0x20 ADD SWAP1 DUP2 MSTORE PUSH1 0x20 ADD PUSH1 0x0 KECCAK256 PUSH1 0x9 ADD PUSH1 0x1 SWAP1 SLOAD SWAP1 PUSH2 0x100 EXP SWAP1 DIV PUSH1 0xFF AND ISZERO PUSH2 0x1C8D JUMPI PUSH1 0x0 DUP1 REVERT JUMPDEST PUSH1 0xD PUSH1 0x0 DUP4 DUP2 MSTORE PUSH1 0x20 ADD SWAP1 DUP2 MSTORE PUSH1 0x20 ADD PUSH1 0x0 KECCAK256 PUSH1 0x7 ADD PUSH1 0x0 DUP2 SLOAD DUP1 SWAP3 SWAP2 SWAP1 PUSH2 0x1CB4 SWAP1 PUSH2 0x27C2 JUMP JUMPDEST SWAP2 SWAP1 POP SSTORE POP PUSH1 0x1 PUSH1 0xD PUSH1 0x0 DUP5 DUP2 MSTORE PUSH1 0x20 ADD SWAP1 DUP2 MSTORE PUSH1 0x20 ADD PUSH1 0x0 KECCAK256 PUSH1 0xA ADD PUSH1 0x0 CALLER PUSH20 0xFFFFFFFFFFFFFFFFFFFFFFFFFFFFFFFFFFFFFFFF AND PUSH20 0xFFFFFFFFFFFFFFFFFFFFFFFFFFFFFFFFFFFFFFFF AND DUP2 MSTORE PUSH1 0x20 ADD SWAP1 DUP2 MSTORE PUSH1 0x20 ADD PUSH1 0x0 KECCAK256 PUSH1 0x0 PUSH2 0x100 EXP DUP2 SLOAD DUP2 PUSH1 0xFF MUL NOT AND SWAP1 DUP4 ISZERO ISZERO MUL OR SWAP1 SSTORE POP PUSH1 0x2 DUP2 PUSH20 0xFFFFFFFFFFFFFFFFFFFFFFFFFFFFFFFFFFFFFFFF AND PUSH4 0x997072F7 PUSH1 0x40 MLOAD DUP2 PUSH4 0xFFFFFFFF AND PUSH1 0xE0 SHL DUP2 MSTORE PUSH1 0x4 ADD PUSH1 0x20 PUSH1 0x40 MLOAD DUP1 DUP4 SUB DUP2 DUP7 DUP1 EXTCODESIZE ISZERO DUP1 ISZERO PUSH2 0x1D6D JUMPI PUSH1 0x0 DUP1 REVERT JUMPDEST POP GAS STATICCALL ISZERO DUP1 ISZERO PUSH2 0x1D81 JUMPI RETURNDATASIZE PUSH1 0x0 DUP1 RETURNDATACOPY RETURNDATASIZE PUSH1 0x0 REVERT JUMPDEST POP POP POP POP PUSH1 0x40 MLOAD RETURNDATASIZE PUSH1 0x1F NOT PUSH1 0x1F DUP3 ADD AND DUP3 ADD DUP1 PUSH1 0x40 MSTORE POP DUP2 ADD SWAP1 PUSH2 0x1DA5 SWAP2 SWAP1 PUSH2 0x2820 JUMP JUMPDEST PUSH2 0x1DAF SWAP2 SWAP1 PUSH2 0x287C JUMP JUMPDEST PUSH1 0xD PUSH1 0x0 DUP5 DUP2 MSTORE PUSH1 0x20 ADD SWAP1 DUP2 MSTORE PUSH1 0x20 ADD PUSH1 0x0 KECCAK256 PUSH1 0x7 ADD SLOAD GT ISZERO PUSH2 0x1DFC JUMPI PUSH1 0x1 PUSH1 0xD PUSH1 0x0 DUP5 DUP2 MSTORE PUSH1 0x20 ADD SWAP1 DUP2 MSTORE PUSH1 0x20 ADD PUSH1 0x0 KECCAK256 PUSH1 0x9 ADD PUSH1 0x0 PUSH2 0x100 EXP DUP2 SLOAD DUP2 PUSH1 0xFF MUL NOT AND SWAP1 DUP4 ISZERO ISZERO MUL OR SWAP1 SSTORE POP JUMPDEST POP POP JUMP JUMPDEST PUSH1 0x0 PUSH1 0xB PUSH1 0x0 SWAP1 SLOAD SWAP1 PUSH2 0x100 EXP SWAP1 DIV PUSH20 0xFFFFFFFFFFFFFFFFFFFFFFFFFFFFFFFFFFFFFFFF AND SWAP1 POP DUP1 PUSH20 0xFFFFFFFFFFFFFFFFFFFFFFFFFFFFFFFFFFFFFFFF AND PUSH4 0x5D672A62 CALLER PUSH1 0x40 MLOAD DUP3 PUSH4 0xFFFFFFFF AND PUSH1 0xE0 SHL DUP2 MSTORE PUSH1 0x4 ADD PUSH2 0x1E60 SWAP2 SWAP1 PUSH2 0x271F JUMP JUMPDEST PUSH1 0x20 PUSH1 0x40 MLOAD DUP1 DUP4 SUB DUP2 DUP7 DUP1 EXTCODESIZE ISZERO DUP1 ISZERO PUSH2 0x1E78 JUMPI PUSH1 0x0 DUP1 REVERT JUMPDEST POP GAS STATICCALL ISZERO DUP1 ISZERO PUSH2 0x1E8C JUMPI RETURNDATASIZE PUSH1 0x0 DUP1 RETURNDATACOPY RETURNDATASIZE PUSH1 0x0 REVERT JUMPDEST POP POP POP POP PUSH1 0x40 MLOAD RETURNDATASIZE PUSH1 0x1F NOT PUSH1 0x1F DUP3 ADD AND DUP3 ADD DUP1 PUSH1 0x40 MSTORE POP DUP2 ADD SWAP1 PUSH2 0x1EB0 SWAP2 SWAP1 PUSH2 0x2766 JUMP JUMPDEST PUSH2 0x1EB9 JUMPI PUSH1 0x0 DUP1 REVERT JUMPDEST PUSH1 0x9 PUSH1 0x0 CALLER PUSH20 0xFFFFFFFFFFFFFFFFFFFFFFFFFFFFFFFFFFFFFFFF AND PUSH20 0xFFFFFFFFFFFFFFFFFFFFFFFFFFFFFFFFFFFFFFFF AND DUP2 MSTORE PUSH1 0x20 ADD SWAP1 DUP2 MSTORE PUSH1 0x20 ADD PUSH1 0x0 KECCAK256 PUSH1 0x0 SWAP1 SLOAD SWAP1 PUSH2 0x100 EXP SWAP1 DIV PUSH1 0xFF AND ISZERO PUSH2 0x1F10 JUMPI PUSH1 0x0 DUP1 REVERT JUMPDEST PUSH1 0xA PUSH1 0x0 CALLER PUSH20 0xFFFFFFFFFFFFFFFFFFFFFFFFFFFFFFFFFFFFFFFF AND PUSH20 0xFFFFFFFFFFFFFFFFFFFFFFFFFFFFFFFFFFFFFFFF AND DUP2 MSTORE PUSH1 0x20 ADD SWAP1 DUP2 MSTORE PUSH1 0x20 ADD PUSH1 0x0 KECCAK256 PUSH1 0x0 SWAP1 SLOAD SWAP1 PUSH2 0x100 EXP SWAP1 DIV PUSH1 0xFF AND ISZERO PUSH2 0x1F67 JUMPI PUSH1 0x0 DUP1 REVERT JUMPDEST PUSH1 0x8 PUSH1 0x0 SWAP1 SLOAD SWAP1 PUSH2 0x100 EXP SWAP1 DIV PUSH1 0xFF AND ISZERO PUSH2 0x1F81 JUMPI PUSH1 0x0 DUP1 REVERT JUMPDEST PUSH1 0x8 PUSH1 0x1 SWAP1 SLOAD SWAP1 PUSH2 0x100 EXP SWAP1 DIV PUSH1 0xFF AND ISZERO PUSH2 0x1F9B JUMPI PUSH1 0x0 DUP1 REVERT JUMPDEST PUSH1 0x1 PUSH1 0x9 PUSH1 0x0 CALLER PUSH20 0xFFFFFFFFFFFFFFFFFFFFFFFFFFFFFFFFFFFFFFFF AND PUSH20 0xFFFFFFFFFFFFFFFFFFFFFFFFFFFFFFFFFFFFFFFF AND DUP2 MSTORE PUSH1 0x20 ADD SWAP1 DUP2 MSTORE PUSH1 0x20 ADD PUSH1 0x0 KECCAK256 PUSH1 0x0 PUSH2 0x100 EXP DUP2 SLOAD DUP2 PUSH1 0xFF MUL NOT AND SWAP1 DUP4 ISZERO ISZERO MUL OR SWAP1 SSTORE POP PUSH1 0x6 PUSH1 0x0 DUP2 SLOAD DUP1 SWAP3 SWAP2 SWAP1 PUSH2 0x2006 SWAP1 PUSH2 0x27C2 JUMP JUMPDEST SWAP2 SWAP1 POP SSTORE POP PUSH1 0x2 DUP2 PUSH20 0xFFFFFFFFFFFFFFFFFFFFFFFFFFFFFFFFFFFFFFFF AND PUSH4 0x997072F7 PUSH1 0x40 MLOAD DUP2 PUSH4 0xFFFFFFFF AND PUSH1 0xE0 SHL DUP2 MSTORE PUSH1 0x4 ADD PUSH1 0x20 PUSH1 0x40 MLOAD DUP1 DUP4 SUB DUP2 DUP7 DUP1 EXTCODESIZE ISZERO DUP1 ISZERO PUSH2 0x2053 JUMPI PUSH1 0x0 DUP1 REVERT JUMPDEST POP GAS STATICCALL ISZERO DUP1 ISZERO PUSH2 0x2067 JUMPI RETURNDATASIZE PUSH1 0x0 DUP1 RETURNDATACOPY RETURNDATASIZE PUSH1 0x0 REVERT JUMPDEST POP POP POP POP PUSH1 0x40 MLOAD RETURNDATASIZE PUSH1 0x1F NOT PUSH1 0x1F DUP3 ADD AND DUP3 ADD DUP1 PUSH1 0x40 MSTORE POP DUP2 ADD SWAP1 PUSH2 0x208B SWAP2 SWAP1 PUSH2 0x2820 JUMP JUMPDEST PUSH2 0x2095 SWAP2 SWAP1 PUSH2 0x287C JUMP JUMPDEST PUSH1 0x6 SLOAD GT ISZERO PUSH2 0x20BA JUMPI PUSH1 0x1 PUSH1 0x8 PUSH1 0x0 PUSH2 0x100 EXP DUP2 SLOAD DUP2 PUSH1 0xFF MUL NOT AND SWAP1 DUP4 ISZERO ISZERO MUL OR SWAP1 SSTORE POP JUMPDEST POP JUMP JUMPDEST PUSH1 0x7 SLOAD DUP2 JUMP JUMPDEST DUP3 DUP1 SLOAD PUSH2 0x20CF SWAP1 PUSH2 0x28DC JUMP JUMPDEST SWAP1 PUSH1 0x0 MSTORE PUSH1 0x20 PUSH1 0x0 KECCAK256 SWAP1 PUSH1 0x1F ADD PUSH1 0x20 SWAP1 DIV DUP2 ADD SWAP3 DUP3 PUSH2 0x20F1 JUMPI PUSH1 0x0 DUP6 SSTORE PUSH2 0x2138 JUMP JUMPDEST DUP3 PUSH1 0x1F LT PUSH2 0x210A JUMPI DUP1 MLOAD PUSH1 0xFF NOT AND DUP4 DUP1 ADD OR DUP6 SSTORE PUSH2 0x2138 JUMP JUMPDEST DUP3 DUP1 ADD PUSH1 0x1 ADD DUP6 SSTORE DUP3 ISZERO PUSH2 0x2138 JUMPI SWAP2 DUP3 ADD JUMPDEST DUP3 DUP2 GT ISZERO PUSH2 0x2137 JUMPI DUP3 MLOAD DUP3 SSTORE SWAP2 PUSH1 0x20 ADD SWAP2 SWAP1 PUSH1 0x1 ADD SWAP1 PUSH2 0x211C JUMP JUMPDEST JUMPDEST POP SWAP1 POP PUSH2 0x2145 SWAP2 SWAP1 PUSH2 0x2149 JUMP JUMPDEST POP SWAP1 JUMP JUMPDEST JUMPDEST DUP1 DUP3 GT ISZERO PUSH2 0x2162 JUMPI PUSH1 0x0 DUP2 PUSH1 0x0 SWAP1 SSTORE POP PUSH1 0x1 ADD PUSH2 0x214A JUMP JUMPDEST POP SWAP1 JUMP JUMPDEST PUSH1 0x0 PUSH1 0x40 MLOAD SWAP1 POP SWAP1 JUMP JUMPDEST PUSH1 0x0 DUP1 REVERT JUMPDEST PUSH1 0x0 DUP1 REVERT JUMPDEST PUSH1 0x0 DUP2 SWAP1 POP SWAP2 SWAP1 POP JUMP JUMPDEST PUSH2 0x218D DUP2 PUSH2 0x217A JUMP JUMPDEST DUP2 EQ PUSH2 0x2198 JUMPI PUSH1 0x0 DUP1 REVERT JUMPDEST POP JUMP JUMPDEST PUSH1 0x0 DUP2 CALLDATALOAD SWAP1 POP PUSH2 0x21AA DUP2 PUSH2 0x2184 JUMP JUMPDEST SWAP3 SWAP2 POP POP JUMP JUMPDEST PUSH1 0x0 PUSH1 0x20 DUP3 DUP5 SUB SLT ISZERO PUSH2 0x21C6 JUMPI PUSH2 0x21C5 PUSH2 0x2170 JUMP JUMPDEST JUMPDEST PUSH1 0x0 PUSH2 0x21D4 DUP5 DUP3 DUP6 ADD PUSH2 0x219B JUMP JUMPDEST SWAP2 POP POP SWAP3 SWAP2 POP POP JUMP JUMPDEST PUSH1 0x0 DUP2 MLOAD SWAP1 POP SWAP2 SWAP1 POP JUMP JUMPDEST PUSH1 0x0 DUP3 DUP3 MSTORE PUSH1 0x20 DUP3 ADD SWAP1 POP SWAP3 SWAP2 POP POP JUMP JUMPDEST PUSH1 0x0 JUMPDEST DUP4 DUP2 LT ISZERO PUSH2 0x2217 JUMPI DUP1 DUP3 ADD MLOAD DUP2 DUP5 ADD MSTORE PUSH1 0x20 DUP2 ADD SWAP1 POP PUSH2 0x21FC JUMP JUMPDEST DUP4 DUP2 GT ISZERO PUSH2 0x2226 JUMPI PUSH1 0x0 DUP5 DUP5 ADD MSTORE JUMPDEST POP POP POP POP JUMP JUMPDEST PUSH1 0x0 PUSH1 0x1F NOT PUSH1 0x1F DUP4 ADD AND SWAP1 POP SWAP2 SWAP1 POP JUMP JUMPDEST PUSH1 0x0 PUSH2 0x2248 DUP3 PUSH2 0x21DD JUMP JUMPDEST PUSH2 0x2252 DUP2 DUP6 PUSH2 0x21E8 JUMP JUMPDEST SWAP4 POP PUSH2 0x2262 DUP2 DUP6 PUSH1 0x20 DUP7 ADD PUSH2 0x21F9 JUMP JUMPDEST PUSH2 0x226B DUP2 PUSH2 0x222C JUMP JUMPDEST DUP5 ADD SWAP2 POP POP SWAP3 SWAP2 POP POP JUMP JUMPDEST PUSH1 0x0 PUSH1 0x20 DUP3 ADD SWAP1 POP DUP2 DUP2 SUB PUSH1 0x0 DUP4 ADD MSTORE PUSH2 0x2290 DUP2 DUP5 PUSH2 0x223D JUMP JUMPDEST SWAP1 POP SWAP3 SWAP2 POP POP JUMP JUMPDEST PUSH1 0x0 PUSH20 0xFFFFFFFFFFFFFFFFFFFFFFFFFFFFFFFFFFFFFFFF DUP3 AND SWAP1 POP SWAP2 SWAP1 POP JUMP JUMPDEST PUSH1 0x0 PUSH2 0x22C3 DUP3 PUSH2 0x2298 JUMP JUMPDEST SWAP1 POP SWAP2 SWAP1 POP JUMP JUMPDEST PUSH2 0x22D3 DUP2 PUSH2 0x22B8 JUMP JUMPDEST DUP3 MSTORE POP POP JUMP JUMPDEST PUSH1 0x0 DUP2 ISZERO ISZERO SWAP1 POP SWAP2 SWAP1 POP JUMP JUMPDEST PUSH2 0x22EE DUP2 PUSH2 0x22D9 JUMP JUMPDEST DUP3 MSTORE POP POP JUMP JUMPDEST PUSH2 0x22FD DUP2 PUSH2 0x217A JUMP JUMPDEST DUP3 MSTORE POP POP JUMP JUMPDEST PUSH1 0x0 PUSH2 0x180 DUP3 ADD SWAP1 POP DUP2 DUP2 SUB PUSH1 0x0 DUP4 ADD MSTORE PUSH2 0x231E DUP2 DUP16 PUSH2 0x223D JUMP JUMPDEST SWAP1 POP DUP2 DUP2 SUB PUSH1 0x20 DUP4 ADD MSTORE PUSH2 0x2332 DUP2 DUP15 PUSH2 0x223D JUMP JUMPDEST SWAP1 POP DUP2 DUP2 SUB PUSH1 0x40 DUP4 ADD MSTORE PUSH2 0x2346 DUP2 DUP14 PUSH2 0x223D JUMP JUMPDEST SWAP1 POP DUP2 DUP2 SUB PUSH1 0x60 DUP4 ADD MSTORE PUSH2 0x235A DUP2 DUP13 PUSH2 0x223D JUMP JUMPDEST SWAP1 POP DUP2 DUP2 SUB PUSH1 0x80 DUP4 ADD MSTORE PUSH2 0x236E DUP2 DUP12 PUSH2 0x223D JUMP JUMPDEST SWAP1 POP PUSH2 0x237D PUSH1 0xA0 DUP4 ADD DUP11 PUSH2 0x22CA JUMP JUMPDEST PUSH2 0x238A PUSH1 0xC0 DUP4 ADD DUP10 PUSH2 0x22E5 JUMP JUMPDEST PUSH2 0x2397 PUSH1 0xE0 DUP4 ADD DUP9 PUSH2 0x22F4 JUMP JUMPDEST PUSH2 0x23A5 PUSH2 0x100 DUP4 ADD DUP8 PUSH2 0x22F4 JUMP JUMPDEST PUSH2 0x23B3 PUSH2 0x120 DUP4 ADD DUP7 PUSH2 0x22F4 JUMP JUMPDEST PUSH2 0x23C1 PUSH2 0x140 DUP4 ADD DUP6 PUSH2 0x22E5 JUMP JUMPDEST PUSH2 0x23CF PUSH2 0x160 DUP4 ADD DUP5 PUSH2 0x22E5 JUMP JUMPDEST SWAP14 SWAP13 POP POP POP POP POP POP POP POP POP POP POP POP POP JUMP JUMPDEST PUSH1 0x0 PUSH1 0x20 DUP3 ADD SWAP1 POP PUSH2 0x23F5 PUSH1 0x0 DUP4 ADD DUP5 PUSH2 0x22E5 JUMP JUMPDEST SWAP3 SWAP2 POP POP JUMP JUMPDEST PUSH1 0x0 DUP1 REVERT JUMPDEST PUSH1 0x0 DUP1 REVERT JUMPDEST PUSH32 0x4E487B7100000000000000000000000000000000000000000000000000000000 PUSH1 0x0 MSTORE PUSH1 0x41 PUSH1 0x4 MSTORE PUSH1 0x24 PUSH1 0x0 REVERT JUMPDEST PUSH2 0x243D DUP3 PUSH2 0x222C JUMP JUMPDEST DUP2 ADD DUP2 DUP2 LT PUSH8 0xFFFFFFFFFFFFFFFF DUP3 GT OR ISZERO PUSH2 0x245C JUMPI PUSH2 0x245B PUSH2 0x2405 JUMP JUMPDEST JUMPDEST DUP1 PUSH1 0x40 MSTORE POP POP POP JUMP JUMPDEST PUSH1 0x0 PUSH2 0x246F PUSH2 0x2166 JUMP JUMPDEST SWAP1 POP PUSH2 0x247B DUP3 DUP3 PUSH2 0x2434 JUMP JUMPDEST SWAP2 SWAP1 POP JUMP JUMPDEST PUSH1 0x0 PUSH8 0xFFFFFFFFFFFFFFFF DUP3 GT ISZERO PUSH2 0x249B JUMPI PUSH2 0x249A PUSH2 0x2405 JUMP JUMPDEST JUMPDEST PUSH2 0x24A4 DUP3 PUSH2 0x222C JUMP JUMPDEST SWAP1 POP PUSH1 0x20 DUP2 ADD SWAP1 POP SWAP2 SWAP1 POP JUMP JUMPDEST DUP3 DUP2 DUP4 CALLDATACOPY PUSH1 0x0 DUP4 DUP4 ADD MSTORE POP POP POP JUMP JUMPDEST PUSH1 0x0 PUSH2 0x24D3 PUSH2 0x24CE DUP5 PUSH2 0x2480 JUMP JUMPDEST PUSH2 0x2465 JUMP JUMPDEST SWAP1 POP DUP3 DUP2 MSTORE PUSH1 0x20 DUP2 ADD DUP5 DUP5 DUP5 ADD GT ISZERO PUSH2 0x24EF JUMPI PUSH2 0x24EE PUSH2 0x2400 JUMP JUMPDEST JUMPDEST PUSH2 0x24FA DUP5 DUP3 DUP6 PUSH2 0x24B1 JUMP JUMPDEST POP SWAP4 SWAP3 POP POP POP JUMP JUMPDEST PUSH1 0x0 DUP3 PUSH1 0x1F DUP4 ADD SLT PUSH2 0x2517 JUMPI PUSH2 0x2516 PUSH2 0x23FB JUMP JUMPDEST JUMPDEST DUP2 CALLDATALOAD PUSH2 0x2527 DUP5 DUP3 PUSH1 0x20 DUP7 ADD PUSH2 0x24C0 JUMP JUMPDEST SWAP2 POP POP SWAP3 SWAP2 POP POP JUMP JUMPDEST PUSH2 0x2539 DUP2 PUSH2 0x22B8 JUMP JUMPDEST DUP2 EQ PUSH2 0x2544 JUMPI PUSH1 0x0 DUP1 REVERT JUMPDEST POP JUMP JUMPDEST PUSH1 0x0 DUP2 CALLDATALOAD SWAP1 POP PUSH2 0x2556 DUP2 PUSH2 0x2530 JUMP JUMPDEST SWAP3 SWAP2 POP POP JUMP JUMPDEST PUSH1 0x0 DUP1 PUSH1 0x0 DUP1 PUSH1 0x0 DUP1 PUSH1 0x0 PUSH1 0xE0 DUP9 DUP11 SUB SLT ISZERO PUSH2 0x257B JUMPI PUSH2 0x257A PUSH2 0x2170 JUMP JUMPDEST JUMPDEST PUSH1 0x0 DUP9 ADD CALLDATALOAD PUSH8 0xFFFFFFFFFFFFFFFF DUP2 GT ISZERO PUSH2 0x2599 JUMPI PUSH2 0x2598 PUSH2 0x2175 JUMP JUMPDEST JUMPDEST PUSH2 0x25A5 DUP11 DUP3 DUP12 ADD PUSH2 0x2502 JUMP JUMPDEST SWAP8 POP POP PUSH1 0x20 DUP9 ADD CALLDATALOAD PUSH8 0xFFFFFFFFFFFFFFFF DUP2 GT ISZERO PUSH2 0x25C6 JUMPI PUSH2 0x25C5 PUSH2 0x2175 JUMP JUMPDEST JUMPDEST PUSH2 0x25D2 DUP11 DUP3 DUP12 ADD PUSH2 0x2502 JUMP JUMPDEST SWAP7 POP POP PUSH1 0x40 DUP9 ADD CALLDATALOAD PUSH8 0xFFFFFFFFFFFFFFFF DUP2 GT ISZERO PUSH2 0x25F3 JUMPI PUSH2 0x25F2 PUSH2 0x2175 JUMP JUMPDEST JUMPDEST PUSH2 0x25FF DUP11 DUP3 DUP12 ADD PUSH2 0x2502 JUMP JUMPDEST SWAP6 POP POP PUSH1 0x60 DUP9 ADD CALLDATALOAD PUSH8 0xFFFFFFFFFFFFFFFF DUP2 GT ISZERO PUSH2 0x2620 JUMPI PUSH2 0x261F PUSH2 0x2175 JUMP JUMPDEST JUMPDEST PUSH2 0x262C DUP11 DUP3 DUP12 ADD PUSH2 0x2502 JUMP JUMPDEST SWAP5 POP POP PUSH1 0x80 DUP9 ADD CALLDATALOAD PUSH8 0xFFFFFFFFFFFFFFFF DUP2 GT ISZERO PUSH2 0x264D JUMPI PUSH2 0x264C PUSH2 0x2175 JUMP JUMPDEST JUMPDEST PUSH2 0x2659 DUP11 DUP3 DUP12 ADD PUSH2 0x2502 JUMP JUMPDEST SWAP4 POP POP PUSH1 0xA0 PUSH2 0x266A DUP11 DUP3 DUP12 ADD PUSH2 0x2547 JUMP JUMPDEST SWAP3 POP POP PUSH1 0xC0 PUSH2 0x267B DUP11 DUP3 DUP12 ADD PUSH2 0x219B JUMP JUMPDEST SWAP2 POP POP SWAP3 SWAP6 SWAP9 SWAP2 SWAP5 SWAP8 POP SWAP3 SWAP6 POP JUMP JUMPDEST PUSH1 0x0 PUSH1 0x20 DUP3 ADD SWAP1 POP PUSH2 0x269F PUSH1 0x0 DUP4 ADD DUP5 PUSH2 0x22F4 JUMP JUMPDEST SWAP3 SWAP2 POP POP JUMP JUMPDEST PUSH1 0x0 PUSH2 0x26B0 DUP3 PUSH2 0x2298 JUMP JUMPDEST SWAP1 POP SWAP2 SWAP1 POP JUMP JUMPDEST PUSH2 0x26C0 DUP2 PUSH2 0x26A5 JUMP JUMPDEST DUP2 EQ PUSH2 0x26CB JUMPI PUSH1 0x0 DUP1 REVERT JUMPDEST POP JUMP JUMPDEST PUSH1 0x0 DUP2 CALLDATALOAD SWAP1 POP PUSH2 0x26DD DUP2 PUSH2 0x26B7 JUMP JUMPDEST SWAP3 SWAP2 POP POP JUMP JUMPDEST PUSH1 0x0 PUSH1 0x20 DUP3 DUP5 SUB SLT ISZERO PUSH2 0x26F9 JUMPI PUSH2 0x26F8 PUSH2 0x2170 JUMP JUMPDEST JUMPDEST PUSH1 0x0 PUSH2 0x2707 DUP5 DUP3 DUP6 ADD PUSH2 0x26CE JUMP JUMPDEST SWAP2 POP POP SWAP3 SWAP2 POP POP JUMP JUMPDEST PUSH2 0x2719 DUP2 PUSH2 0x26A5 JUMP JUMPDEST DUP3 MSTORE POP POP JUMP JUMPDEST PUSH1 0x0 PUSH1 0x20 DUP3 ADD SWAP1 POP PUSH2 0x2734 PUSH1 0x0 DUP4 ADD DUP5 PUSH2 0x2710 JUMP JUMPDEST SWAP3 SWAP2 POP POP JUMP JUMPDEST PUSH2 0x2743 DUP2 PUSH2 0x22D9 JUMP JUMPDEST DUP2 EQ PUSH2 0x274E JUMPI PUSH1 0x0 DUP1 REVERT JUMPDEST POP JUMP JUMPDEST PUSH1 0x0 DUP2 MLOAD SWAP1 POP PUSH2 0x2760 DUP2 PUSH2 0x273A JUMP JUMPDEST SWAP3 SWAP2 POP POP JUMP JUMPDEST PUSH1 0x0 PUSH1 0x20 DUP3 DUP5 SUB SLT ISZERO PUSH2 0x277C JUMPI PUSH2 0x277B PUSH2 0x2170 JUMP JUMPDEST JUMPDEST PUSH1 0x0 PUSH2 0x278A DUP5 DUP3 DUP6 ADD PUSH2 0x2751 JUMP JUMPDEST SWAP2 POP POP SWAP3 SWAP2 POP POP JUMP JUMPDEST PUSH32 0x4E487B7100000000000000000000000000000000000000000000000000000000 PUSH1 0x0 MSTORE PUSH1 0x11 PUSH1 0x4 MSTORE PUSH1 0x24 PUSH1 0x0 REVERT JUMPDEST PUSH1 0x0 PUSH2 0x27CD DUP3 PUSH2 0x217A JUMP JUMPDEST SWAP2 POP PUSH32 0xFFFFFFFFFFFFFFFFFFFFFFFFFFFFFFFFFFFFFFFFFFFFFFFFFFFFFFFFFFFFFFFF DUP3 EQ ISZERO PUSH2 0x2800 JUMPI PUSH2 0x27FF PUSH2 0x2793 JUMP JUMPDEST JUMPDEST PUSH1 0x1 DUP3 ADD SWAP1 POP SWAP2 SWAP1 POP JUMP JUMPDEST PUSH1 0x0 DUP2 MLOAD SWAP1 POP PUSH2 0x281A DUP2 PUSH2 0x2184 JUMP JUMPDEST SWAP3 SWAP2 POP POP JUMP JUMPDEST PUSH1 0x0 PUSH1 0x20 DUP3 DUP5 SUB SLT ISZERO PUSH2 0x2836 JUMPI PUSH2 0x2835 PUSH2 0x2170 JUMP JUMPDEST JUMPDEST PUSH1 0x0 PUSH2 0x2844 DUP5 DUP3 DUP6 ADD PUSH2 0x280B JUMP JUMPDEST SWAP2 POP POP SWAP3 SWAP2 POP POP JUMP JUMPDEST PUSH32 0x4E487B7100000000000000000000000000000000000000000000000000000000 PUSH1 0x0 MSTORE PUSH1 0x12 PUSH1 0x4 MSTORE PUSH1 0x24 PUSH1 0x0 REVERT JUMPDEST PUSH1 0x0 PUSH2 0x2887 DUP3 PUSH2 0x217A JUMP JUMPDEST SWAP2 POP PUSH2 0x2892 DUP4 PUSH2 0x217A JUMP JUMPDEST SWAP3 POP DUP3 PUSH2 0x28A2 JUMPI PUSH2 0x28A1 PUSH2 0x284D JUMP JUMPDEST JUMPDEST DUP3 DUP3 DIV SWAP1 POP SWAP3 SWAP2 POP POP JUMP JUMPDEST PUSH32 0x4E487B7100000000000000000000000000000000000000000000000000000000 PUSH1 0x0 MSTORE PUSH1 0x22 PUSH1 0x4 MSTORE PUSH1 0x24 PUSH1 0x0 REVERT JUMPDEST PUSH1 0x0 PUSH1 0x2 DUP3 DIV SWAP1 POP PUSH1 0x1 DUP3 AND DUP1 PUSH2 0x28F4 JUMPI PUSH1 0x7F DUP3 AND SWAP2 POP JUMPDEST PUSH1 0x20 DUP3 LT DUP2 EQ ISZERO PUSH2 0x2908 JUMPI PUSH2 0x2907 PUSH2 0x28AD JUMP JUMPDEST JUMPDEST POP SWAP2 SWAP1 POP JUMP JUMPDEST PUSH1 0x0 PUSH1 0x40 DUP3 ADD SWAP1 POP PUSH2 0x2923 PUSH1 0x0 DUP4 ADD DUP6 PUSH2 0x22CA JUMP JUMPDEST PUSH2 0x2930 PUSH1 0x20 DUP4 ADD DUP5 PUSH2 0x22F4 JUMP JUMPDEST SWAP4 SWAP3 POP POP POP JUMP INVALID LOG2 PUSH5 0x6970667358 0x22 SLT KECCAK256 0xD8 DIV 0xDB 0xEA CALLDATACOPY DUP8 SWAP2 DELEGATECALL DUP3 SWAP13 0xC1 PUSH11 0x694671A77C0A57B9ADB724 0xC3 SMOD MSTORE PUSH22 0x39DA3DA67C64736F6C63430008090033000000000000 "},"gasEstimates":{"creation":{"codeDepositCost":"2121000","executionCost":"infinite","totalCost":"infinite"},"external":{"approveCampaign(uint256)":"infinite","approveCount()":"2496","approveUser()":"infinite","approvedMembers(address)":"2867","campaigns(uint256)":"infinite","createCampaign(string,string,string,string,string,address,uint256)":"infinite","description()":"infinite","email()":"infinite","finalizeTransaction(uint256)":"infinite","getMemberApprovalStatus(uint256)":"infinite","getMemberRejectionStatus(uint256)":"infinite","isApproved()":"2494","isRejected()":"2632","locationAddress()":"infinite","name()":"infinite","numCampaign()":"2540","phone()":"infinite","rejectCampaign(uint256)":"infinite","rejectCount()":"2561","rejectUser()":"infinite","rejectedMembers(address)":"2889","userAddress()":"2580"}},"methodIdentifiers":{"approveCampaign(uint256)":"ee4e1b53","approveCount()":"9fe7717d","approveUser()":"f04693d4","approvedMembers(address)":"c9031934","campaigns(uint256)":"141961bc","createCampaign(string,string,string,string,string,address,uint256)":"6c39bda3","description()":"7284e416","email()":"820e93f5","finalizeTransaction(uint256)":"4a57e1c9","getMemberApprovalStatus(uint256)":"948c158c","getMemberRejectionStatus(uint256)":"b8159a1f","isApproved()":"28f371aa","isRejected()":"c2c706b0","locationAddress()":"17bbb931","name()":"06fdde03","numCampaign()":"8129dfc9","phone()":"9284f497","rejectCampaign(uint256)":"034d09da","rejectCount()":"fb6ff96e","rejectUser()":"28d0c494","rejectedMembers(address)":"d6e3ee6b","userAddress()":"e4128fb3"}},"storageLayout":{"storage":[{"astId":219,"contract":"CharityDAO.sol:User","label":"name","offset":0,"slot":"0","type":"t_string_storage"},{"astId":221,"contract":"CharityDAO.sol:User","label":"description","offset":0,"slot":"1","type":"t_string_storage"},{"astId":223,"contract":"CharityDAO.sol:User","label":"userAddress","offset":0,"slot":"2","type":"t_address"},{"astId":225,"contract":"CharityDAO.sol:User","label":"phone","offset":0,"slot":"3","type":"t_string_storage"},{"astId":227,"contract":"CharityDAO.sol:User","label":"email","offset":0,"slot":"4","type":"t_string_storage"},{"astId":229,"contract":"CharityDAO.sol:User","label":"locationAddress","offset":0,"slot":"5","type":"t_string_storage"},{"astId":231,"contract":"CharityDAO.sol:User","label":"approveCount","offset":0,"slot":"6","type":"t_uint256"},{"astId":233,"contract":"CharityDAO.sol:User","label":"rejectCount","offset":0,"slot":"7","type":"t_uint256"},{"astId":235,"contract":"CharityDAO.sol:User","label":"isApproved","offset":0,"slot":"8","type":"t_bool"},{"astId":237,"contract":"CharityDAO.sol:User","label":"isRejected","offset":1,"slot":"8","type":"t_bool"},{"astId":241,"contract":"CharityDAO.sol:User","label":"approvedMembers","offset":0,"slot":"9","type":"t_mapping(t_address,t_bool)"},{"astId":245,"contract":"CharityDAO.sol:User","label":"rejectedMembers","offset":0,"slot":"10","type":"t_mapping(t_address,t_bool)"},{"astId":247,"contract":"CharityDAO.sol:User","label":"DAOAddress","offset":0,"slot":"11","type":"t_address"},{"astId":282,"contract":"CharityDAO.sol:User","label":"numCampaign","offset":0,"slot":"12","type":"t_uint256"},{"astId":287,"contract":"CharityDAO.sol:User","label":"campaigns","offset":0,"slot":"13","type":"t_mapping(t_uint256,t_struct(Campaign)280_storage)"}],"types":{"t_address":{"encoding":"inplace","label":"address","numberOfBytes":"20"},"t_address_payable":{"encoding":"inplace","label":"address payable","numberOfBytes":"20"},"t_bool":{"encoding":"inplace","label":"bool","numberOfBytes":"1"},"t_mapping(t_address,t_bool)":{"encoding":"mapping","key":"t_address","label":"mapping(address => bool)","numberOfBytes":"32","value":"t_bool"},"t_mapping(t_uint256,t_struct(Campaign)280_storage)":{"encoding":"mapping","key":"t_uint256","label":"mapping(uint256 => struct User.Campaign)","numberOfBytes":"32","value":"t_struct(Campaign)280_storage"},"t_string_storage":{"encoding":"bytes","label":"string","numberOfBytes":"32"},"t_struct(Campaign)280_storage":{"encoding":"inplace","label":"struct User.Campaign","members":[{"astId":249,"contract":"CharityDAO.sol:User","label":"title","offset":0,"slot":"0","type":"t_string_storage"},{"astId":251,"contract":"CharityDAO.sol:User","label":"description","offset":0,"slot":"1","type":"t_string_storage"},{"astId":253,"contract":"CharityDAO.sol:User","label":"recipientName","offset":0,"slot":"2","type":"t_string_storage"},{"astId":255,"contract":"CharityDAO.sol:User","label":"recipientPhone","offset":0,"slot":"3","type":"t_string_storage"},{"astId":257,"contract":"CharityDAO.sol:User","label":"recipientEmail","offset":0,"slot":"4","type":"t_string_storage"},{"astId":259,"contract":"CharityDAO.sol:User","label":"recipient","offset":0,"slot":"5","type":"t_address_payable"},{"astId":261,"contract":"CharityDAO.sol:User","label":"transactionComplete","offset":20,"slot":"5","type":"t_bool"},{"astId":263,"contract":"CharityDAO.sol:User","label":"value","offset":0,"slot":"6","type":"t_uint256"},{"astId":265,"contract":"CharityDAO.sol:User","label":"approveCount","offset":0,"slot":"7","type":"t_uint256"},{"astId":267,"contract":"CharityDAO.sol:User","label":"rejectCount","offset":0,"slot":"8","type":"t_uint256"},{"astId":269,"contract":"CharityDAO.sol:User","label":"isApproved","offset":0,"slot":"9","type":"t_bool"},{"astId":271,"contract":"CharityDAO.sol:User","label":"isRejected","offset":1,"slot":"9","type":"t_bool"},{"astId":275,"contract":"CharityDAO.sol:User","label":"campaignApprovedMembers","offset":0,"slot":"10","type":"t_mapping(t_address,t_bool)"},{"astId":279,"contract":"CharityDAO.sol:User","label":"campaignRejectedMembers","offset":0,"slot":"11","type":"t_mapping(t_address,t_bool)"}],"numberOfBytes":"384"},"t_uint256":{"encoding":"inplace","label":"uint256","numberOfBytes":"32"}}},"userdoc":{"kind":"user","methods":{},"version":1}}