{"abi":[{"inputs":[{"internalType":"string","name":"_name","type":"string"},{"internalType":"string","name":"_description","type":"string"},{"internalType":"string","name":"_locationAddress","type":"string"},{"internalType":"string","name":"_phone","type":"string"},{"internalType":"string","name":"_email","type":"string"},{"internalType":"address","name":"_creator","type":"address"},{"internalType":"address","name":"_DAOAddress","type":"address"}],"stateMutability":"nonpayable","type":"constructor"},{"inputs":[{"internalType":"uint256","name":"campaignIndex","type":"uint256"}],"name":"approveCampaign","outputs":[],"stateMutability":"nonpayable","type":"function"},{"inputs":[],"name":"approveCount","outputs":[{"internalType":"uint256","name":"","type":"uint256"}],"stateMutability":"view","type":"function"},{"inputs":[],"name":"approveUser","outputs":[],"stateMutability":"nonpayable","type":"function"},{"inputs":[{"internalType":"address","name":"","type":"address"}],"name":"approvedMembers","outputs":[{"internalType":"bool","name":"","type":"bool"}],"stateMutability":"view","type":"function"},{"inputs":[{"internalType":"uint256","name":"","type":"uint256"}],"name":"campaigns","outputs":[{"internalType":"string","name":"title","type":"string"},{"internalType":"string","name":"description","type":"string"},{"internalType":"string","name":"recipientName","type":"string"},{"internalType":"string","name":"recipientPhone","type":"string"},{"internalType":"string","name":"recipientEmail","type":"string"},{"internalType":"address payable","name":"recipient","type":"address"},{"internalType":"bool","name":"transactionComplete","type":"bool"},{"internalType":"uint256","name":"value","type":"uint256"},{"internalType":"uint256","name":"approveCount","type":"uint256"},{"internalType":"uint256","name":"rejectCount","type":"uint256"},{"internalType":"bool","name":"isApproved","type":"bool"},{"internalType":"bool","name":"isRejected","type":"bool"}],"stateMutability":"view","type":"function"},{"inputs":[{"internalType":"string","name":"_title","type":"string"},{"internalType":"string","name":"_description","type":"string"},{"internalType":"string","name":"_recipientName","type":"string"},{"internalType":"string","name":"_recipientPhone","type":"string"},{"internalType":"string","name":"_recipientEmail","type":"string"},{"internalType":"address payable","name":"_recipient","type":"address"},{"internalType":"uint256","name":"_value","type":"uint256"}],"name":"createCampaign","outputs":[],"stateMutability":"nonpayable","type":"function"},{"inputs":[],"name":"description","outputs":[{"internalType":"string","name":"","type":"string"}],"stateMutability":"view","type":"function"},{"inputs":[],"name":"email","outputs":[{"internalType":"string","name":"","type":"string"}],"stateMutability":"view","type":"function"},{"inputs":[{"internalType":"uint256","name":"campaignIndex","type":"uint256"}],"name":"finalizeTransaction","outputs":[],"stateMutability":"nonpayable","type":"function"},{"inputs":[],"name":"isApproved","outputs":[{"internalType":"bool","name":"","type":"bool"}],"stateMutability":"view","type":"function"},{"inputs":[],"name":"isRejected","outputs":[{"internalType":"bool","name":"","type":"bool"}],"stateMutability":"view","type":"function"},{"inputs":[],"name":"locationAddress","outputs":[{"internalType":"string","name":"","type":"string"}],"stateMutability":"view","type":"function"},{"inputs":[],"name":"name","outputs":[{"internalType":"string","name":"","type":"string"}],"stateMutability":"view","type":"function"},{"inputs":[],"name":"numCampaign","outputs":[{"internalType":"uint256","name":"","type":"uint256"}],"stateMutability":"view","type":"function"},{"inputs":[],"name":"phone","outputs":[{"internalType":"string","name":"","type":"string"}],"stateMutability":"view","type":"function"},{"inputs":[{"internalType":"uint256","name":"campaignIndex","type":"uint256"}],"name":"rejectCampaign","outputs":[],"stateMutability":"nonpayable","type":"function"},{"inputs":[],"name":"rejectCount","outputs":[{"internalType":"uint256","name":"","type":"uint256"}],"stateMutability":"view","type":"function"},{"inputs":[],"name":"rejectUser","outputs":[],"stateMutability":"nonpayable","type":"function"},{"inputs":[{"internalType":"address","name":"","type":"address"}],"name":"rejectedMembers","outputs":[{"internalType":"bool","name":"","type":"bool"}],"stateMutability":"view","type":"function"},{"inputs":[],"name":"userAddress","outputs":[{"internalType":"address","name":"","type":"address"}],"stateMutability":"view","type":"function"}],"devdoc":{"kind":"dev","methods":{},"version":1},"evm":{"assembly":"    /* \"CharityDAO.sol\":1919:7417  contract User {... */\n  mstore(0x40, 0x80)\n    /* \"CharityDAO.sol\":2955:3499  constructor(string memory _name, string memory _description, string memory _locationAddress, string memory _phone, string memory _email, address _creator, address _DAOAddress) {... */\n  callvalue\n  dup1\n  iszero\n  tag_1\n  jumpi\n  0x00\n  dup1\n  revert\ntag_1:\n  pop\n  mload(0x40)\n  sub(codesize, bytecodeSize)\n  dup1\n  bytecodeSize\n  dup4\n  codecopy\n  dup2\n  dup2\n  add\n  0x40\n  mstore\n  dup2\n  add\n  swap1\n  tag_2\n  swap2\n  swap1\n  tag_3\n  jump\t// in\ntag_2:\n    /* \"CharityDAO.sol\":3149:3154  _name */\n  dup7\n    /* \"CharityDAO.sol\":3142:3146  name */\n  0x00\n    /* \"CharityDAO.sol\":3142:3154  name = _name */\n  swap1\n  dup1\n  mload\n  swap1\n  0x20\n  add\n  swap1\n  tag_6\n  swap3\n  swap2\n  swap1\n  tag_7\n  jump\t// in\ntag_6:\n  pop\n    /* \"CharityDAO.sol\":3179:3191  _description */\n  dup6\n    /* \"CharityDAO.sol\":3165:3176  description */\n  0x01\n    /* \"CharityDAO.sol\":3165:3191  description = _description */\n  swap1\n  dup1\n  mload\n  swap1\n  0x20\n  add\n  swap1\n  tag_8\n  swap3\n  swap2\n  swap1\n  tag_7\n  jump\t// in\ntag_8:\n  pop\n    /* \"CharityDAO.sol\":3210:3216  _phone */\n  dup4\n    /* \"CharityDAO.sol\":3202:3207  phone */\n  0x03\n    /* \"CharityDAO.sol\":3202:3216  phone = _phone */\n  swap1\n  dup1\n  mload\n  swap1\n  0x20\n  add\n  swap1\n  tag_9\n  swap3\n  swap2\n  swap1\n  tag_7\n  jump\t// in\ntag_9:\n  pop\n    /* \"CharityDAO.sol\":3235:3241  _email */\n  dup3\n    /* \"CharityDAO.sol\":3227:3232  email */\n  0x04\n    /* \"CharityDAO.sol\":3227:3241  email = _email */\n  swap1\n  dup1\n  mload\n  swap1\n  0x20\n  add\n  swap1\n  tag_10\n  swap3\n  swap2\n  swap1\n  tag_7\n  jump\t// in\ntag_10:\n  pop\n    /* \"CharityDAO.sol\":3266:3274  _creator */\n  dup2\n    /* \"CharityDAO.sol\":3252:3263  userAddress */\n  0x02\n  0x00\n    /* \"CharityDAO.sol\":3252:3274  userAddress = _creator */\n  0x0100\n  exp\n  dup2\n  sload\n  dup2\n  0xffffffffffffffffffffffffffffffffffffffff\n  mul\n  not\n  and\n  swap1\n  dup4\n  0xffffffffffffffffffffffffffffffffffffffff\n  and\n  mul\n  or\n  swap1\n  sstore\n  pop\n    /* \"CharityDAO.sol\":3298:3309  _DAOAddress */\n  dup1\n    /* \"CharityDAO.sol\":3285:3295  DAOAddress */\n  0x0b\n  0x00\n    /* \"CharityDAO.sol\":3285:3309  DAOAddress = _DAOAddress */\n  0x0100\n  exp\n  dup2\n  sload\n  dup2\n  0xffffffffffffffffffffffffffffffffffffffff\n  mul\n  not\n  and\n  swap1\n  dup4\n  0xffffffffffffffffffffffffffffffffffffffff\n  and\n  mul\n  or\n  swap1\n  sstore\n  pop\n    /* \"CharityDAO.sol\":3338:3354  _locationAddress */\n  dup5\n    /* \"CharityDAO.sol\":3320:3335  locationAddress */\n  0x05\n    /* \"CharityDAO.sol\":3320:3354  locationAddress = _locationAddress */\n  swap1\n  dup1\n  mload\n  swap1\n  0x20\n  add\n  swap1\n  tag_11\n  swap3\n  swap2\n  swap1\n  tag_7\n  jump\t// in\ntag_11:\n  pop\n    /* \"CharityDAO.sol\":3380:3381  0 */\n  0x00\n    /* \"CharityDAO.sol\":3365:3377  approveCount */\n  0x06\n    /* \"CharityDAO.sol\":3365:3381  approveCount = 0 */\n  dup2\n  swap1\n  sstore\n  pop\n    /* \"CharityDAO.sol\":3406:3407  0 */\n  0x00\n    /* \"CharityDAO.sol\":3392:3403  rejectCount */\n  0x07\n    /* \"CharityDAO.sol\":3392:3407  rejectCount = 0 */\n  dup2\n  swap1\n  sstore\n  pop\n    /* \"CharityDAO.sol\":3431:3436  false */\n  0x00\n    /* \"CharityDAO.sol\":3418:3428  isApproved */\n  0x08\n  0x00\n    /* \"CharityDAO.sol\":3418:3436  isApproved = false */\n  0x0100\n  exp\n  dup2\n  sload\n  dup2\n  0xff\n  mul\n  not\n  and\n  swap1\n  dup4\n  iszero\n  iszero\n  mul\n  or\n  swap1\n  sstore\n  pop\n    /* \"CharityDAO.sol\":3460:3465  false */\n  0x00\n    /* \"CharityDAO.sol\":3447:3457  isRejected */\n  0x08\n  0x01\n    /* \"CharityDAO.sol\":3447:3465  isRejected = false */\n  0x0100\n  exp\n  dup2\n  sload\n  dup2\n  0xff\n  mul\n  not\n  and\n  swap1\n  dup4\n  iszero\n  iszero\n  mul\n  or\n  swap1\n  sstore\n  pop\n    /* \"CharityDAO.sol\":3490:3491  0 */\n  0x00\n    /* \"CharityDAO.sol\":3476:3487  numCampaign */\n  0x0c\n    /* \"CharityDAO.sol\":3476:3491  numCampaign = 0 */\n  dup2\n  swap1\n  sstore\n  pop\n    /* \"CharityDAO.sol\":2955:3499  constructor(string memory _name, string memory _description, string memory _locationAddress, string memory _phone, string memory _email, address _creator, address _DAOAddress) {... */\n  pop\n  pop\n  pop\n  pop\n  pop\n  pop\n  pop\n    /* \"CharityDAO.sol\":1919:7417  contract User {... */\n  jump(tag_12)\ntag_7:\n  dup3\n  dup1\n  sload\n  tag_13\n  swap1\n  tag_14\n  jump\t// in\ntag_13:\n  swap1\n  0x00\n  mstore\n  keccak256(0x00, 0x20)\n  swap1\n  0x1f\n  add\n  0x20\n  swap1\n  div\n  dup2\n  add\n  swap3\n  dup3\n  tag_16\n  jumpi\n  0x00\n  dup6\n  sstore\n  jump(tag_15)\ntag_16:\n  dup3\n  0x1f\n  lt\n  tag_17\n  jumpi\n  dup1\n  mload\n  not(0xff)\n  and\n  dup4\n  dup1\n  add\n  or\n  dup6\n  sstore\n  jump(tag_15)\ntag_17:\n  dup3\n  dup1\n  add\n  0x01\n  add\n  dup6\n  sstore\n  dup3\n  iszero\n  tag_15\n  jumpi\n  swap2\n  dup3\n  add\ntag_18:\n  dup3\n  dup2\n  gt\n  iszero\n  tag_19\n  jumpi\n  dup3\n  mload\n  dup3\n  sstore\n  swap2\n  0x20\n  add\n  swap2\n  swap1\n  0x01\n  add\n  swap1\n  jump(tag_18)\ntag_19:\ntag_15:\n  pop\n  swap1\n  pop\n  tag_20\n  swap2\n  swap1\n  tag_21\n  jump\t// in\ntag_20:\n  pop\n  swap1\n  jump\t// out\ntag_21:\ntag_22:\n  dup1\n  dup3\n  gt\n  iszero\n  tag_23\n  jumpi\n  0x00\n  dup2\n  0x00\n  swap1\n  sstore\n  pop\n  0x01\n  add\n  jump(tag_22)\ntag_23:\n  pop\n  swap1\n  jump\t// out\n    /* \"#utility.yul\":7:82   */\ntag_24:\n    /* \"#utility.yul\":40:46   */\n  0x00\n    /* \"#utility.yul\":73:75   */\n  0x40\n    /* \"#utility.yul\":67:76   */\n  mload\n    /* \"#utility.yul\":57:76   */\n  swap1\n  pop\n    /* \"#utility.yul\":7:82   */\n  swap1\n  jump\t// out\n    /* \"#utility.yul\":88:205   */\ntag_25:\n    /* \"#utility.yul\":197:198   */\n  0x00\n    /* \"#utility.yul\":194:195   */\n  dup1\n    /* \"#utility.yul\":187:199   */\n  revert\n    /* \"#utility.yul\":211:328   */\ntag_26:\n    /* \"#utility.yul\":320:321   */\n  0x00\n    /* \"#utility.yul\":317:318   */\n  dup1\n    /* \"#utility.yul\":310:322   */\n  revert\n    /* \"#utility.yul\":334:451   */\ntag_27:\n    /* \"#utility.yul\":443:444   */\n  0x00\n    /* \"#utility.yul\":440:441   */\n  dup1\n    /* \"#utility.yul\":433:445   */\n  revert\n    /* \"#utility.yul\":457:574   */\ntag_28:\n    /* \"#utility.yul\":566:567   */\n  0x00\n    /* \"#utility.yul\":563:564   */\n  dup1\n    /* \"#utility.yul\":556:568   */\n  revert\n    /* \"#utility.yul\":580:682   */\ntag_29:\n    /* \"#utility.yul\":621:627   */\n  0x00\n    /* \"#utility.yul\":672:674   */\n  0x1f\n    /* \"#utility.yul\":668:675   */\n  not\n    /* \"#utility.yul\":663:665   */\n  0x1f\n    /* \"#utility.yul\":656:661   */\n  dup4\n    /* \"#utility.yul\":652:666   */\n  add\n    /* \"#utility.yul\":648:676   */\n  and\n    /* \"#utility.yul\":638:676   */\n  swap1\n  pop\n    /* \"#utility.yul\":580:682   */\n  swap2\n  swap1\n  pop\n  jump\t// out\n    /* \"#utility.yul\":688:868   */\ntag_30:\n    /* \"#utility.yul\":736:813   */\n  0x4e487b7100000000000000000000000000000000000000000000000000000000\n    /* \"#utility.yul\":733:734   */\n  0x00\n    /* \"#utility.yul\":726:814   */\n  mstore\n    /* \"#utility.yul\":833:837   */\n  0x41\n    /* \"#utility.yul\":830:831   */\n  0x04\n    /* \"#utility.yul\":823:838   */\n  mstore\n    /* \"#utility.yul\":857:861   */\n  0x24\n    /* \"#utility.yul\":854:855   */\n  0x00\n    /* \"#utility.yul\":847:862   */\n  revert\n    /* \"#utility.yul\":874:1155   */\ntag_31:\n    /* \"#utility.yul\":957:984   */\n  tag_51\n    /* \"#utility.yul\":979:983   */\n  dup3\n    /* \"#utility.yul\":957:984   */\n  tag_29\n  jump\t// in\ntag_51:\n    /* \"#utility.yul\":949:955   */\n  dup2\n    /* \"#utility.yul\":945:985   */\n  add\n    /* \"#utility.yul\":1087:1093   */\n  dup2\n    /* \"#utility.yul\":1075:1085   */\n  dup2\n    /* \"#utility.yul\":1072:1094   */\n  lt\n    /* \"#utility.yul\":1051:1069   */\n  0xffffffffffffffff\n    /* \"#utility.yul\":1039:1049   */\n  dup3\n    /* \"#utility.yul\":1036:1070   */\n  gt\n    /* \"#utility.yul\":1033:1095   */\n  or\n    /* \"#utility.yul\":1030:1118   */\n  iszero\n  tag_52\n  jumpi\n    /* \"#utility.yul\":1098:1116   */\n  tag_53\n  tag_30\n  jump\t// in\ntag_53:\n    /* \"#utility.yul\":1030:1118   */\ntag_52:\n    /* \"#utility.yul\":1138:1148   */\n  dup1\n    /* \"#utility.yul\":1134:1136   */\n  0x40\n    /* \"#utility.yul\":1127:1149   */\n  mstore\n    /* \"#utility.yul\":917:1155   */\n  pop\n    /* \"#utility.yul\":874:1155   */\n  pop\n  pop\n  jump\t// out\n    /* \"#utility.yul\":1161:1290   */\ntag_32:\n    /* \"#utility.yul\":1195:1201   */\n  0x00\n    /* \"#utility.yul\":1222:1242   */\n  tag_55\n  tag_24\n  jump\t// in\ntag_55:\n    /* \"#utility.yul\":1212:1242   */\n  swap1\n  pop\n    /* \"#utility.yul\":1251:1284   */\n  tag_56\n    /* \"#utility.yul\":1279:1283   */\n  dup3\n    /* \"#utility.yul\":1271:1277   */\n  dup3\n    /* \"#utility.yul\":1251:1284   */\n  tag_31\n  jump\t// in\ntag_56:\n    /* \"#utility.yul\":1161:1290   */\n  swap2\n  swap1\n  pop\n  jump\t// out\n    /* \"#utility.yul\":1296:1604   */\ntag_33:\n    /* \"#utility.yul\":1358:1362   */\n  0x00\n    /* \"#utility.yul\":1448:1466   */\n  0xffffffffffffffff\n    /* \"#utility.yul\":1440:1446   */\n  dup3\n    /* \"#utility.yul\":1437:1467   */\n  gt\n    /* \"#utility.yul\":1434:1490   */\n  iszero\n  tag_58\n  jumpi\n    /* \"#utility.yul\":1470:1488   */\n  tag_59\n  tag_30\n  jump\t// in\ntag_59:\n    /* \"#utility.yul\":1434:1490   */\ntag_58:\n    /* \"#utility.yul\":1508:1537   */\n  tag_60\n    /* \"#utility.yul\":1530:1536   */\n  dup3\n    /* \"#utility.yul\":1508:1537   */\n  tag_29\n  jump\t// in\ntag_60:\n    /* \"#utility.yul\":1500:1537   */\n  swap1\n  pop\n    /* \"#utility.yul\":1592:1596   */\n  0x20\n    /* \"#utility.yul\":1586:1590   */\n  dup2\n    /* \"#utility.yul\":1582:1597   */\n  add\n    /* \"#utility.yul\":1574:1597   */\n  swap1\n  pop\n    /* \"#utility.yul\":1296:1604   */\n  swap2\n  swap1\n  pop\n  jump\t// out\n    /* \"#utility.yul\":1610:1917   */\ntag_34:\n    /* \"#utility.yul\":1678:1679   */\n  0x00\n    /* \"#utility.yul\":1688:1801   */\ntag_62:\n    /* \"#utility.yul\":1702:1708   */\n  dup4\n    /* \"#utility.yul\":1699:1700   */\n  dup2\n    /* \"#utility.yul\":1696:1709   */\n  lt\n    /* \"#utility.yul\":1688:1801   */\n  iszero\n  tag_64\n  jumpi\n    /* \"#utility.yul\":1787:1788   */\n  dup1\n    /* \"#utility.yul\":1782:1785   */\n  dup3\n    /* \"#utility.yul\":1778:1789   */\n  add\n    /* \"#utility.yul\":1772:1790   */\n  mload\n    /* \"#utility.yul\":1768:1769   */\n  dup2\n    /* \"#utility.yul\":1763:1766   */\n  dup5\n    /* \"#utility.yul\":1759:1770   */\n  add\n    /* \"#utility.yul\":1752:1791   */\n  mstore\n    /* \"#utility.yul\":1724:1726   */\n  0x20\n    /* \"#utility.yul\":1721:1722   */\n  dup2\n    /* \"#utility.yul\":1717:1727   */\n  add\n    /* \"#utility.yul\":1712:1727   */\n  swap1\n  pop\n    /* \"#utility.yul\":1688:1801   */\n  jump(tag_62)\ntag_64:\n    /* \"#utility.yul\":1819:1825   */\n  dup4\n    /* \"#utility.yul\":1816:1817   */\n  dup2\n    /* \"#utility.yul\":1813:1826   */\n  gt\n    /* \"#utility.yul\":1810:1911   */\n  iszero\n  tag_65\n  jumpi\n    /* \"#utility.yul\":1899:1900   */\n  0x00\n    /* \"#utility.yul\":1890:1896   */\n  dup5\n    /* \"#utility.yul\":1885:1888   */\n  dup5\n    /* \"#utility.yul\":1881:1897   */\n  add\n    /* \"#utility.yul\":1874:1901   */\n  mstore\n    /* \"#utility.yul\":1810:1911   */\ntag_65:\n    /* \"#utility.yul\":1659:1917   */\n  pop\n    /* \"#utility.yul\":1610:1917   */\n  pop\n  pop\n  pop\n  jump\t// out\n    /* \"#utility.yul\":1923:2344   */\ntag_35:\n    /* \"#utility.yul\":2012:2017   */\n  0x00\n    /* \"#utility.yul\":2037:2103   */\n  tag_67\n    /* \"#utility.yul\":2053:2102   */\n  tag_68\n    /* \"#utility.yul\":2095:2101   */\n  dup5\n    /* \"#utility.yul\":2053:2102   */\n  tag_33\n  jump\t// in\ntag_68:\n    /* \"#utility.yul\":2037:2103   */\n  tag_32\n  jump\t// in\ntag_67:\n    /* \"#utility.yul\":2028:2103   */\n  swap1\n  pop\n    /* \"#utility.yul\":2126:2132   */\n  dup3\n    /* \"#utility.yul\":2119:2124   */\n  dup2\n    /* \"#utility.yul\":2112:2133   */\n  mstore\n    /* \"#utility.yul\":2164:2168   */\n  0x20\n    /* \"#utility.yul\":2157:2162   */\n  dup2\n    /* \"#utility.yul\":2153:2169   */\n  add\n    /* \"#utility.yul\":2202:2205   */\n  dup5\n    /* \"#utility.yul\":2193:2199   */\n  dup5\n    /* \"#utility.yul\":2188:2191   */\n  dup5\n    /* \"#utility.yul\":2184:2200   */\n  add\n    /* \"#utility.yul\":2181:2206   */\n  gt\n    /* \"#utility.yul\":2178:2290   */\n  iszero\n  tag_69\n  jumpi\n    /* \"#utility.yul\":2209:2288   */\n  tag_70\n  tag_28\n  jump\t// in\ntag_70:\n    /* \"#utility.yul\":2178:2290   */\ntag_69:\n    /* \"#utility.yul\":2299:2338   */\n  tag_71\n    /* \"#utility.yul\":2331:2337   */\n  dup5\n    /* \"#utility.yul\":2326:2329   */\n  dup3\n    /* \"#utility.yul\":2321:2324   */\n  dup6\n    /* \"#utility.yul\":2299:2338   */\n  tag_34\n  jump\t// in\ntag_71:\n    /* \"#utility.yul\":2018:2344   */\n  pop\n    /* \"#utility.yul\":1923:2344   */\n  swap4\n  swap3\n  pop\n  pop\n  pop\n  jump\t// out\n    /* \"#utility.yul\":2364:2719   */\ntag_36:\n    /* \"#utility.yul\":2431:2436   */\n  0x00\n    /* \"#utility.yul\":2480:2483   */\n  dup3\n    /* \"#utility.yul\":2473:2477   */\n  0x1f\n    /* \"#utility.yul\":2465:2471   */\n  dup4\n    /* \"#utility.yul\":2461:2478   */\n  add\n    /* \"#utility.yul\":2457:2484   */\n  slt\n    /* \"#utility.yul\":2447:2569   */\n  tag_73\n  jumpi\n    /* \"#utility.yul\":2488:2567   */\n  tag_74\n  tag_27\n  jump\t// in\ntag_74:\n    /* \"#utility.yul\":2447:2569   */\ntag_73:\n    /* \"#utility.yul\":2598:2604   */\n  dup2\n    /* \"#utility.yul\":2592:2605   */\n  mload\n    /* \"#utility.yul\":2623:2713   */\n  tag_75\n    /* \"#utility.yul\":2709:2712   */\n  dup5\n    /* \"#utility.yul\":2701:2707   */\n  dup3\n    /* \"#utility.yul\":2694:2698   */\n  0x20\n    /* \"#utility.yul\":2686:2692   */\n  dup7\n    /* \"#utility.yul\":2682:2699   */\n  add\n    /* \"#utility.yul\":2623:2713   */\n  tag_35\n  jump\t// in\ntag_75:\n    /* \"#utility.yul\":2614:2713   */\n  swap2\n  pop\n    /* \"#utility.yul\":2437:2719   */\n  pop\n    /* \"#utility.yul\":2364:2719   */\n  swap3\n  swap2\n  pop\n  pop\n  jump\t// out\n    /* \"#utility.yul\":2725:2851   */\ntag_37:\n    /* \"#utility.yul\":2762:2769   */\n  0x00\n    /* \"#utility.yul\":2802:2844   */\n  0xffffffffffffffffffffffffffffffffffffffff\n    /* \"#utility.yul\":2795:2800   */\n  dup3\n    /* \"#utility.yul\":2791:2845   */\n  and\n    /* \"#utility.yul\":2780:2845   */\n  swap1\n  pop\n    /* \"#utility.yul\":2725:2851   */\n  swap2\n  swap1\n  pop\n  jump\t// out\n    /* \"#utility.yul\":2857:2953   */\ntag_38:\n    /* \"#utility.yul\":2894:2901   */\n  0x00\n    /* \"#utility.yul\":2923:2947   */\n  tag_78\n    /* \"#utility.yul\":2941:2946   */\n  dup3\n    /* \"#utility.yul\":2923:2947   */\n  tag_37\n  jump\t// in\ntag_78:\n    /* \"#utility.yul\":2912:2947   */\n  swap1\n  pop\n    /* \"#utility.yul\":2857:2953   */\n  swap2\n  swap1\n  pop\n  jump\t// out\n    /* \"#utility.yul\":2959:3081   */\ntag_39:\n    /* \"#utility.yul\":3032:3056   */\n  tag_80\n    /* \"#utility.yul\":3050:3055   */\n  dup2\n    /* \"#utility.yul\":3032:3056   */\n  tag_38\n  jump\t// in\ntag_80:\n    /* \"#utility.yul\":3025:3030   */\n  dup2\n    /* \"#utility.yul\":3022:3057   */\n  eq\n    /* \"#utility.yul\":3012:3075   */\n  tag_81\n  jumpi\n    /* \"#utility.yul\":3071:3072   */\n  0x00\n    /* \"#utility.yul\":3068:3069   */\n  dup1\n    /* \"#utility.yul\":3061:3073   */\n  revert\n    /* \"#utility.yul\":3012:3075   */\ntag_81:\n    /* \"#utility.yul\":2959:3081   */\n  pop\n  jump\t// out\n    /* \"#utility.yul\":3087:3230   */\ntag_40:\n    /* \"#utility.yul\":3144:3149   */\n  0x00\n    /* \"#utility.yul\":3175:3181   */\n  dup2\n    /* \"#utility.yul\":3169:3182   */\n  mload\n    /* \"#utility.yul\":3160:3182   */\n  swap1\n  pop\n    /* \"#utility.yul\":3191:3224   */\n  tag_83\n    /* \"#utility.yul\":3218:3223   */\n  dup2\n    /* \"#utility.yul\":3191:3224   */\n  tag_39\n  jump\t// in\ntag_83:\n    /* \"#utility.yul\":3087:3230   */\n  swap3\n  swap2\n  pop\n  pop\n  jump\t// out\n    /* \"#utility.yul\":3236:5392   */\ntag_3:\n    /* \"#utility.yul\":3410:3416   */\n  0x00\n    /* \"#utility.yul\":3418:3424   */\n  dup1\n    /* \"#utility.yul\":3426:3432   */\n  0x00\n    /* \"#utility.yul\":3434:3440   */\n  dup1\n    /* \"#utility.yul\":3442:3448   */\n  0x00\n    /* \"#utility.yul\":3450:3456   */\n  dup1\n    /* \"#utility.yul\":3458:3464   */\n  0x00\n    /* \"#utility.yul\":3507:3510   */\n  0xe0\n    /* \"#utility.yul\":3495:3504   */\n  dup9\n    /* \"#utility.yul\":3486:3493   */\n  dup11\n    /* \"#utility.yul\":3482:3505   */\n  sub\n    /* \"#utility.yul\":3478:3511   */\n  slt\n    /* \"#utility.yul\":3475:3595   */\n  iszero\n  tag_85\n  jumpi\n    /* \"#utility.yul\":3514:3593   */\n  tag_86\n  tag_25\n  jump\t// in\ntag_86:\n    /* \"#utility.yul\":3475:3595   */\ntag_85:\n    /* \"#utility.yul\":3655:3656   */\n  0x00\n    /* \"#utility.yul\":3644:3653   */\n  dup9\n    /* \"#utility.yul\":3640:3657   */\n  add\n    /* \"#utility.yul\":3634:3658   */\n  mload\n    /* \"#utility.yul\":3685:3703   */\n  0xffffffffffffffff\n    /* \"#utility.yul\":3677:3683   */\n  dup2\n    /* \"#utility.yul\":3674:3704   */\n  gt\n    /* \"#utility.yul\":3671:3788   */\n  iszero\n  tag_87\n  jumpi\n    /* \"#utility.yul\":3707:3786   */\n  tag_88\n  tag_26\n  jump\t// in\ntag_88:\n    /* \"#utility.yul\":3671:3788   */\ntag_87:\n    /* \"#utility.yul\":3812:3886   */\n  tag_89\n    /* \"#utility.yul\":3878:3885   */\n  dup11\n    /* \"#utility.yul\":3869:3875   */\n  dup3\n    /* \"#utility.yul\":3858:3867   */\n  dup12\n    /* \"#utility.yul\":3854:3876   */\n  add\n    /* \"#utility.yul\":3812:3886   */\n  tag_36\n  jump\t// in\ntag_89:\n    /* \"#utility.yul\":3802:3886   */\n  swap8\n  pop\n    /* \"#utility.yul\":3605:3896   */\n  pop\n    /* \"#utility.yul\":3956:3958   */\n  0x20\n    /* \"#utility.yul\":3945:3954   */\n  dup9\n    /* \"#utility.yul\":3941:3959   */\n  add\n    /* \"#utility.yul\":3935:3960   */\n  mload\n    /* \"#utility.yul\":3987:4005   */\n  0xffffffffffffffff\n    /* \"#utility.yul\":3979:3985   */\n  dup2\n    /* \"#utility.yul\":3976:4006   */\n  gt\n    /* \"#utility.yul\":3973:4090   */\n  iszero\n  tag_90\n  jumpi\n    /* \"#utility.yul\":4009:4088   */\n  tag_91\n  tag_26\n  jump\t// in\ntag_91:\n    /* \"#utility.yul\":3973:4090   */\ntag_90:\n    /* \"#utility.yul\":4114:4188   */\n  tag_92\n    /* \"#utility.yul\":4180:4187   */\n  dup11\n    /* \"#utility.yul\":4171:4177   */\n  dup3\n    /* \"#utility.yul\":4160:4169   */\n  dup12\n    /* \"#utility.yul\":4156:4178   */\n  add\n    /* \"#utility.yul\":4114:4188   */\n  tag_36\n  jump\t// in\ntag_92:\n    /* \"#utility.yul\":4104:4188   */\n  swap7\n  pop\n    /* \"#utility.yul\":3906:4198   */\n  pop\n    /* \"#utility.yul\":4258:4260   */\n  0x40\n    /* \"#utility.yul\":4247:4256   */\n  dup9\n    /* \"#utility.yul\":4243:4261   */\n  add\n    /* \"#utility.yul\":4237:4262   */\n  mload\n    /* \"#utility.yul\":4289:4307   */\n  0xffffffffffffffff\n    /* \"#utility.yul\":4281:4287   */\n  dup2\n    /* \"#utility.yul\":4278:4308   */\n  gt\n    /* \"#utility.yul\":4275:4392   */\n  iszero\n  tag_93\n  jumpi\n    /* \"#utility.yul\":4311:4390   */\n  tag_94\n  tag_26\n  jump\t// in\ntag_94:\n    /* \"#utility.yul\":4275:4392   */\ntag_93:\n    /* \"#utility.yul\":4416:4490   */\n  tag_95\n    /* \"#utility.yul\":4482:4489   */\n  dup11\n    /* \"#utility.yul\":4473:4479   */\n  dup3\n    /* \"#utility.yul\":4462:4471   */\n  dup12\n    /* \"#utility.yul\":4458:4480   */\n  add\n    /* \"#utility.yul\":4416:4490   */\n  tag_36\n  jump\t// in\ntag_95:\n    /* \"#utility.yul\":4406:4490   */\n  swap6\n  pop\n    /* \"#utility.yul\":4208:4500   */\n  pop\n    /* \"#utility.yul\":4560:4562   */\n  0x60\n    /* \"#utility.yul\":4549:4558   */\n  dup9\n    /* \"#utility.yul\":4545:4563   */\n  add\n    /* \"#utility.yul\":4539:4564   */\n  mload\n    /* \"#utility.yul\":4591:4609   */\n  0xffffffffffffffff\n    /* \"#utility.yul\":4583:4589   */\n  dup2\n    /* \"#utility.yul\":4580:4610   */\n  gt\n    /* \"#utility.yul\":4577:4694   */\n  iszero\n  tag_96\n  jumpi\n    /* \"#utility.yul\":4613:4692   */\n  tag_97\n  tag_26\n  jump\t// in\ntag_97:\n    /* \"#utility.yul\":4577:4694   */\ntag_96:\n    /* \"#utility.yul\":4718:4792   */\n  tag_98\n    /* \"#utility.yul\":4784:4791   */\n  dup11\n    /* \"#utility.yul\":4775:4781   */\n  dup3\n    /* \"#utility.yul\":4764:4773   */\n  dup12\n    /* \"#utility.yul\":4760:4782   */\n  add\n    /* \"#utility.yul\":4718:4792   */\n  tag_36\n  jump\t// in\ntag_98:\n    /* \"#utility.yul\":4708:4792   */\n  swap5\n  pop\n    /* \"#utility.yul\":4510:4802   */\n  pop\n    /* \"#utility.yul\":4862:4865   */\n  0x80\n    /* \"#utility.yul\":4851:4860   */\n  dup9\n    /* \"#utility.yul\":4847:4866   */\n  add\n    /* \"#utility.yul\":4841:4867   */\n  mload\n    /* \"#utility.yul\":4894:4912   */\n  0xffffffffffffffff\n    /* \"#utility.yul\":4886:4892   */\n  dup2\n    /* \"#utility.yul\":4883:4913   */\n  gt\n    /* \"#utility.yul\":4880:4997   */\n  iszero\n  tag_99\n  jumpi\n    /* \"#utility.yul\":4916:4995   */\n  tag_100\n  tag_26\n  jump\t// in\ntag_100:\n    /* \"#utility.yul\":4880:4997   */\ntag_99:\n    /* \"#utility.yul\":5021:5095   */\n  tag_101\n    /* \"#utility.yul\":5087:5094   */\n  dup11\n    /* \"#utility.yul\":5078:5084   */\n  dup3\n    /* \"#utility.yul\":5067:5076   */\n  dup12\n    /* \"#utility.yul\":5063:5085   */\n  add\n    /* \"#utility.yul\":5021:5095   */\n  tag_36\n  jump\t// in\ntag_101:\n    /* \"#utility.yul\":5011:5095   */\n  swap4\n  pop\n    /* \"#utility.yul\":4812:5105   */\n  pop\n    /* \"#utility.yul\":5144:5147   */\n  0xa0\n    /* \"#utility.yul\":5171:5235   */\n  tag_102\n    /* \"#utility.yul\":5227:5234   */\n  dup11\n    /* \"#utility.yul\":5218:5224   */\n  dup3\n    /* \"#utility.yul\":5207:5216   */\n  dup12\n    /* \"#utility.yul\":5203:5225   */\n  add\n    /* \"#utility.yul\":5171:5235   */\n  tag_40\n  jump\t// in\ntag_102:\n    /* \"#utility.yul\":5161:5235   */\n  swap3\n  pop\n    /* \"#utility.yul\":5115:5245   */\n  pop\n    /* \"#utility.yul\":5284:5287   */\n  0xc0\n    /* \"#utility.yul\":5311:5375   */\n  tag_103\n    /* \"#utility.yul\":5367:5374   */\n  dup11\n    /* \"#utility.yul\":5358:5364   */\n  dup3\n    /* \"#utility.yul\":5347:5356   */\n  dup12\n    /* \"#utility.yul\":5343:5365   */\n  add\n    /* \"#utility.yul\":5311:5375   */\n  tag_40\n  jump\t// in\ntag_103:\n    /* \"#utility.yul\":5301:5375   */\n  swap2\n  pop\n    /* \"#utility.yul\":5255:5385   */\n  pop\n    /* \"#utility.yul\":3236:5392   */\n  swap3\n  swap6\n  swap9\n  swap2\n  swap5\n  swap8\n  pop\n  swap3\n  swap6\n  pop\n  jump\t// out\n    /* \"#utility.yul\":5398:5578   */\ntag_41:\n    /* \"#utility.yul\":5446:5523   */\n  0x4e487b7100000000000000000000000000000000000000000000000000000000\n    /* \"#utility.yul\":5443:5444   */\n  0x00\n    /* \"#utility.yul\":5436:5524   */\n  mstore\n    /* \"#utility.yul\":5543:5547   */\n  0x22\n    /* \"#utility.yul\":5540:5541   */\n  0x04\n    /* \"#utility.yul\":5533:5548   */\n  mstore\n    /* \"#utility.yul\":5567:5571   */\n  0x24\n    /* \"#utility.yul\":5564:5565   */\n  0x00\n    /* \"#utility.yul\":5557:5572   */\n  revert\n    /* \"#utility.yul\":5584:5904   */\ntag_14:\n    /* \"#utility.yul\":5628:5634   */\n  0x00\n    /* \"#utility.yul\":5665:5666   */\n  0x02\n    /* \"#utility.yul\":5659:5663   */\n  dup3\n    /* \"#utility.yul\":5655:5667   */\n  div\n    /* \"#utility.yul\":5645:5667   */\n  swap1\n  pop\n    /* \"#utility.yul\":5712:5713   */\n  0x01\n    /* \"#utility.yul\":5706:5710   */\n  dup3\n    /* \"#utility.yul\":5702:5714   */\n  and\n    /* \"#utility.yul\":5733:5751   */\n  dup1\n    /* \"#utility.yul\":5723:5804   */\n  tag_106\n  jumpi\n    /* \"#utility.yul\":5789:5793   */\n  0x7f\n    /* \"#utility.yul\":5781:5787   */\n  dup3\n    /* \"#utility.yul\":5777:5794   */\n  and\n    /* \"#utility.yul\":5767:5794   */\n  swap2\n  pop\n    /* \"#utility.yul\":5723:5804   */\ntag_106:\n    /* \"#utility.yul\":5851:5853   */\n  0x20\n    /* \"#utility.yul\":5843:5849   */\n  dup3\n    /* \"#utility.yul\":5840:5854   */\n  lt\n    /* \"#utility.yul\":5820:5838   */\n  dup2\n    /* \"#utility.yul\":5817:5855   */\n  eq\n    /* \"#utility.yul\":5814:5898   */\n  iszero\n  tag_107\n  jumpi\n    /* \"#utility.yul\":5870:5888   */\n  tag_108\n  tag_41\n  jump\t// in\ntag_108:\n    /* \"#utility.yul\":5814:5898   */\ntag_107:\n    /* \"#utility.yul\":5635:5904   */\n  pop\n    /* \"#utility.yul\":5584:5904   */\n  swap2\n  swap1\n  pop\n  jump\t// out\n    /* \"CharityDAO.sol\":1919:7417  contract User {... */\ntag_12:\n  dataSize(sub_0)\n  dup1\n  dataOffset(sub_0)\n  0x00\n  codecopy\n  0x00\n  return\nstop\n\nsub_0: assembly {\n        /* \"CharityDAO.sol\":1919:7417  contract User {... */\n      mstore(0x40, 0x80)\n      callvalue\n      dup1\n      iszero\n      tag_1\n      jumpi\n      0x00\n      dup1\n      revert\n    tag_1:\n      pop\n      jumpi(tag_2, lt(calldatasize, 0x04))\n      shr(0xe0, calldataload(0x00))\n      dup1\n      0x820e93f5\n      gt\n      tag_23\n      jumpi\n      dup1\n      0xd6e3ee6b\n      gt\n      tag_24\n      jumpi\n      dup1\n      0xd6e3ee6b\n      eq\n      tag_18\n      jumpi\n      dup1\n      0xe4128fb3\n      eq\n      tag_19\n      jumpi\n      dup1\n      0xee4e1b53\n      eq\n      tag_20\n      jumpi\n      dup1\n      0xf04693d4\n      eq\n      tag_21\n      jumpi\n      dup1\n      0xfb6ff96e\n      eq\n      tag_22\n      jumpi\n      jump(tag_2)\n    tag_24:\n      dup1\n      0x820e93f5\n      eq\n      tag_13\n      jumpi\n      dup1\n      0x9284f497\n      eq\n      tag_14\n      jumpi\n      dup1\n      0x9fe7717d\n      eq\n      tag_15\n      jumpi\n      dup1\n      0xc2c706b0\n      eq\n      tag_16\n      jumpi\n      dup1\n      0xc9031934\n      eq\n      tag_17\n      jumpi\n      jump(tag_2)\n    tag_23:\n      dup1\n      0x28f371aa\n      gt\n      tag_25\n      jumpi\n      dup1\n      0x28f371aa\n      eq\n      tag_8\n      jumpi\n      dup1\n      0x4a57e1c9\n      eq\n      tag_9\n      jumpi\n      dup1\n      0x6c39bda3\n      eq\n      tag_10\n      jumpi\n      dup1\n      0x7284e416\n      eq\n      tag_11\n      jumpi\n      dup1\n      0x8129dfc9\n      eq\n      tag_12\n      jumpi\n      jump(tag_2)\n    tag_25:\n      dup1\n      0x034d09da\n      eq\n      tag_3\n      jumpi\n      dup1\n      0x06fdde03\n      eq\n      tag_4\n      jumpi\n      dup1\n      0x141961bc\n      eq\n      tag_5\n      jumpi\n      dup1\n      0x17bbb931\n      eq\n      tag_6\n      jumpi\n      dup1\n      0x28d0c494\n      eq\n      tag_7\n      jumpi\n    tag_2:\n      0x00\n      dup1\n      revert\n        /* \"CharityDAO.sol\":6208:6972  function rejectCampaign(uint campaignIndex) public {... */\n    tag_3:\n      tag_26\n      0x04\n      dup1\n      calldatasize\n      sub\n      dup2\n      add\n      swap1\n      tag_27\n      swap2\n      swap1\n      tag_28\n      jump\t// in\n    tag_27:\n      tag_29\n      jump\t// in\n    tag_26:\n      stop\n        /* \"CharityDAO.sol\":1942:1960  string public name */\n    tag_4:\n      tag_30\n      tag_31\n      jump\t// in\n    tag_30:\n      mload(0x40)\n      tag_32\n      swap2\n      swap1\n      tag_33\n      jump\t// in\n    tag_32:\n      mload(0x40)\n      dup1\n      swap2\n      sub\n      swap1\n      return\n        /* \"CharityDAO.sol\":2904:2946  mapping(uint => Campaign) public campaigns */\n    tag_5:\n      tag_34\n      0x04\n      dup1\n      calldatasize\n      sub\n      dup2\n      add\n      swap1\n      tag_35\n      swap2\n      swap1\n      tag_28\n      jump\t// in\n    tag_35:\n      tag_36\n      jump\t// in\n    tag_34:\n      mload(0x40)\n      tag_37\n      swap13\n      swap12\n      swap11\n      swap10\n      swap9\n      swap8\n      swap7\n      swap6\n      swap5\n      swap4\n      swap3\n      swap2\n      swap1\n      tag_38\n      jump\t// in\n    tag_37:\n      mload(0x40)\n      dup1\n      swap2\n      sub\n      swap1\n      return\n        /* \"CharityDAO.sol\":2084:2113  string public locationAddress */\n    tag_6:\n      tag_39\n      tag_40\n      jump\t// in\n    tag_39:\n      mload(0x40)\n      tag_41\n      swap2\n      swap1\n      tag_33\n      jump\t// in\n    tag_41:\n      mload(0x40)\n      dup1\n      swap2\n      sub\n      swap1\n      return\n        /* \"CharityDAO.sol\":3982:4442  function rejectUser() public {... */\n    tag_7:\n      tag_42\n      tag_43\n      jump\t// in\n    tag_42:\n      stop\n        /* \"CharityDAO.sol\":2181:2203  bool public isApproved */\n    tag_8:\n      tag_44\n      tag_45\n      jump\t// in\n    tag_44:\n      mload(0x40)\n      tag_46\n      swap2\n      swap1\n      tag_47\n      jump\t// in\n    tag_46:\n      mload(0x40)\n      dup1\n      swap2\n      sub\n      swap1\n      return\n        /* \"CharityDAO.sol\":6980:7412  function finalizeTransaction(uint campaignIndex) public {... */\n    tag_9:\n      tag_48\n      0x04\n      dup1\n      calldatasize\n      sub\n      dup2\n      add\n      swap1\n      tag_49\n      swap2\n      swap1\n      tag_28\n      jump\t// in\n    tag_49:\n      tag_50\n      jump\t// in\n    tag_48:\n      stop\n        /* \"CharityDAO.sol\":4454:5425  function createCampaign(string memory _title, string memory _description, string memory _recipientName, string memory _recipientPhone, string memory _recipientEmail, ... */\n    tag_10:\n      tag_51\n      0x04\n      dup1\n      calldatasize\n      sub\n      dup2\n      add\n      swap1\n      tag_52\n      swap2\n      swap1\n      tag_53\n      jump\t// in\n    tag_52:\n      tag_54\n      jump\t// in\n    tag_51:\n      stop\n        /* \"CharityDAO.sol\":1967:1992  string public description */\n    tag_11:\n      tag_55\n      tag_56\n      jump\t// in\n    tag_55:\n      mload(0x40)\n      tag_57\n      swap2\n      swap1\n      tag_33\n      jump\t// in\n    tag_57:\n      mload(0x40)\n      dup1\n      swap2\n      sub\n      swap1\n      return\n        /* \"CharityDAO.sol\":2874:2897  uint public numCampaign */\n    tag_12:\n      tag_58\n      tag_59\n      jump\t// in\n    tag_58:\n      mload(0x40)\n      tag_60\n      swap2\n      swap1\n      tag_61\n      jump\t// in\n    tag_60:\n      mload(0x40)\n      dup1\n      swap2\n      sub\n      swap1\n      return\n        /* \"CharityDAO.sol\":2058:2077  string public email */\n    tag_13:\n      tag_62\n      tag_63\n      jump\t// in\n    tag_62:\n      mload(0x40)\n      tag_64\n      swap2\n      swap1\n      tag_33\n      jump\t// in\n    tag_64:\n      mload(0x40)\n      dup1\n      swap2\n      sub\n      swap1\n      return\n        /* \"CharityDAO.sol\":2032:2051  string public phone */\n    tag_14:\n      tag_65\n      tag_66\n      jump\t// in\n    tag_65:\n      mload(0x40)\n      tag_67\n      swap2\n      swap1\n      tag_33\n      jump\t// in\n    tag_67:\n      mload(0x40)\n      dup1\n      swap2\n      sub\n      swap1\n      return\n        /* \"CharityDAO.sol\":2120:2144  uint public approveCount */\n    tag_15:\n      tag_68\n      tag_69\n      jump\t// in\n    tag_68:\n      mload(0x40)\n      tag_70\n      swap2\n      swap1\n      tag_61\n      jump\t// in\n    tag_70:\n      mload(0x40)\n      dup1\n      swap2\n      sub\n      swap1\n      return\n        /* \"CharityDAO.sol\":2210:2232  bool public isRejected */\n    tag_16:\n      tag_71\n      tag_72\n      jump\t// in\n    tag_71:\n      mload(0x40)\n      tag_73\n      swap2\n      swap1\n      tag_47\n      jump\t// in\n    tag_73:\n      mload(0x40)\n      dup1\n      swap2\n      sub\n      swap1\n      return\n        /* \"CharityDAO.sol\":2239:2286  mapping(address => bool) public approvedMembers */\n    tag_17:\n      tag_74\n      0x04\n      dup1\n      calldatasize\n      sub\n      dup2\n      add\n      swap1\n      tag_75\n      swap2\n      swap1\n      tag_76\n      jump\t// in\n    tag_75:\n      tag_77\n      jump\t// in\n    tag_74:\n      mload(0x40)\n      tag_78\n      swap2\n      swap1\n      tag_47\n      jump\t// in\n    tag_78:\n      mload(0x40)\n      dup1\n      swap2\n      sub\n      swap1\n      return\n        /* \"CharityDAO.sol\":2293:2340  mapping(address => bool) public rejectedMembers */\n    tag_18:\n      tag_79\n      0x04\n      dup1\n      calldatasize\n      sub\n      dup2\n      add\n      swap1\n      tag_80\n      swap2\n      swap1\n      tag_76\n      jump\t// in\n    tag_80:\n      tag_81\n      jump\t// in\n    tag_79:\n      mload(0x40)\n      tag_82\n      swap2\n      swap1\n      tag_47\n      jump\t// in\n    tag_82:\n      mload(0x40)\n      dup1\n      swap2\n      sub\n      swap1\n      return\n        /* \"CharityDAO.sol\":1999:2025  address public userAddress */\n    tag_19:\n      tag_83\n      tag_84\n      jump\t// in\n    tag_83:\n      mload(0x40)\n      tag_85\n      swap2\n      swap1\n      tag_86\n      jump\t// in\n    tag_85:\n      mload(0x40)\n      dup1\n      swap2\n      sub\n      swap1\n      return\n        /* \"CharityDAO.sol\":5433:6200  function approveCampaign(uint campaignIndex) public {... */\n    tag_20:\n      tag_87\n      0x04\n      dup1\n      calldatasize\n      sub\n      dup2\n      add\n      swap1\n      tag_88\n      swap2\n      swap1\n      tag_28\n      jump\t// in\n    tag_88:\n      tag_89\n      jump\t// in\n    tag_87:\n      stop\n        /* \"CharityDAO.sol\":3511:3974  function approveUser() public {... */\n    tag_21:\n      tag_90\n      tag_91\n      jump\t// in\n    tag_90:\n      stop\n        /* \"CharityDAO.sol\":2151:2174  uint public rejectCount */\n    tag_22:\n      tag_92\n      tag_93\n      jump\t// in\n    tag_92:\n      mload(0x40)\n      tag_94\n      swap2\n      swap1\n      tag_61\n      jump\t// in\n    tag_94:\n      mload(0x40)\n      dup1\n      swap2\n      sub\n      swap1\n      return\n        /* \"CharityDAO.sol\":6208:6972  function rejectCampaign(uint campaignIndex) public {... */\n    tag_29:\n        /* \"CharityDAO.sol\":6270:6282  DAO instance */\n      0x00\n        /* \"CharityDAO.sol\":6289:6299  DAOAddress */\n      0x0b\n      0x00\n      swap1\n      sload\n      swap1\n      0x0100\n      exp\n      swap1\n      div\n      0xffffffffffffffffffffffffffffffffffffffff\n      and\n        /* \"CharityDAO.sol\":6270:6300  DAO instance = DAO(DAOAddress) */\n      swap1\n      pop\n        /* \"CharityDAO.sol\":6319:6327  instance */\n      dup1\n        /* \"CharityDAO.sol\":6319:6337  instance.isAMember */\n      0xffffffffffffffffffffffffffffffffffffffff\n      and\n      0x5d672a62\n        /* \"CharityDAO.sol\":6338:6348  msg.sender */\n      caller\n        /* \"CharityDAO.sol\":6319:6349  instance.isAMember(msg.sender) */\n      mload(0x40)\n      dup3\n      0xffffffff\n      and\n      0xe0\n      shl\n      dup2\n      mstore\n      0x04\n      add\n      tag_96\n      swap2\n      swap1\n      tag_86\n      jump\t// in\n    tag_96:\n      0x20\n      mload(0x40)\n      dup1\n      dup4\n      sub\n      dup2\n      dup7\n      dup1\n      extcodesize\n      iszero\n      dup1\n      iszero\n      tag_97\n      jumpi\n      0x00\n      dup1\n      revert\n    tag_97:\n      pop\n      gas\n      staticcall\n      iszero\n      dup1\n      iszero\n      tag_99\n      jumpi\n      returndatasize\n      0x00\n      dup1\n      returndatacopy\n      revert(0x00, returndatasize)\n    tag_99:\n      pop\n      pop\n      pop\n      pop\n      mload(0x40)\n      returndatasize\n      not(0x1f)\n      0x1f\n      dup3\n      add\n      and\n      dup3\n      add\n      dup1\n      0x40\n      mstore\n      pop\n      dup2\n      add\n      swap1\n      tag_100\n      swap2\n      swap1\n      tag_101\n      jump\t// in\n    tag_100:\n        /* \"CharityDAO.sol\":6311:6350  require(instance.isAMember(msg.sender)) */\n      tag_102\n      jumpi\n      0x00\n      dup1\n      revert\n    tag_102:\n        /* \"CharityDAO.sol\":6370:6378  instance */\n      dup1\n        /* \"CharityDAO.sol\":6370:6386  instance.isAUser */\n      0xffffffffffffffffffffffffffffffffffffffff\n      and\n      0x018f5472\n        /* \"CharityDAO.sol\":6387:6397  msg.sender */\n      caller\n        /* \"CharityDAO.sol\":6370:6398  instance.isAUser(msg.sender) */\n      mload(0x40)\n      dup3\n      0xffffffff\n      and\n      0xe0\n      shl\n      dup2\n      mstore\n      0x04\n      add\n      tag_103\n      swap2\n      swap1\n      tag_86\n      jump\t// in\n    tag_103:\n      0x20\n      mload(0x40)\n      dup1\n      dup4\n      sub\n      dup2\n      dup7\n      dup1\n      extcodesize\n      iszero\n      dup1\n      iszero\n      tag_104\n      jumpi\n      0x00\n      dup1\n      revert\n    tag_104:\n      pop\n      gas\n      staticcall\n      iszero\n      dup1\n      iszero\n      tag_106\n      jumpi\n      returndatasize\n      0x00\n      dup1\n      returndatacopy\n      revert(0x00, returndatasize)\n    tag_106:\n      pop\n      pop\n      pop\n      pop\n      mload(0x40)\n      returndatasize\n      not(0x1f)\n      0x1f\n      dup3\n      add\n      and\n      dup3\n      add\n      dup1\n      0x40\n      mstore\n      pop\n      dup2\n      add\n      swap1\n      tag_107\n      swap2\n      swap1\n      tag_101\n      jump\t// in\n    tag_107:\n        /* \"CharityDAO.sol\":6369:6398  !instance.isAUser(msg.sender) */\n      iszero\n        /* \"CharityDAO.sol\":6361:6399  require(!instance.isAUser(msg.sender)) */\n      tag_108\n      jumpi\n      0x00\n      dup1\n      revert\n    tag_108:\n        /* \"CharityDAO.sol\":6419:6428  campaigns */\n      0x0d\n        /* \"CharityDAO.sol\":6419:6443  campaigns[campaignIndex] */\n      0x00\n        /* \"CharityDAO.sol\":6429:6442  campaignIndex */\n      dup4\n        /* \"CharityDAO.sol\":6419:6443  campaigns[campaignIndex] */\n      dup2\n      mstore\n      0x20\n      add\n      swap1\n      dup2\n      mstore\n      0x20\n      add\n      0x00\n      keccak256\n        /* \"CharityDAO.sol\":6419:6467  campaigns[campaignIndex].campaignApprovedMembers */\n      0x0a\n      add\n        /* \"CharityDAO.sol\":6419:6479  campaigns[campaignIndex].campaignApprovedMembers[msg.sender] */\n      0x00\n        /* \"CharityDAO.sol\":6468:6478  msg.sender */\n      caller\n        /* \"CharityDAO.sol\":6419:6479  campaigns[campaignIndex].campaignApprovedMembers[msg.sender] */\n      0xffffffffffffffffffffffffffffffffffffffff\n      and\n      0xffffffffffffffffffffffffffffffffffffffff\n      and\n      dup2\n      mstore\n      0x20\n      add\n      swap1\n      dup2\n      mstore\n      0x20\n      add\n      0x00\n      keccak256\n      0x00\n      swap1\n      sload\n      swap1\n      0x0100\n      exp\n      swap1\n      div\n      0xff\n      and\n        /* \"CharityDAO.sol\":6418:6479  !campaigns[campaignIndex].campaignApprovedMembers[msg.sender] */\n      iszero\n        /* \"CharityDAO.sol\":6410:6480  require(!campaigns[campaignIndex].campaignApprovedMembers[msg.sender]) */\n      tag_109\n      jumpi\n      0x00\n      dup1\n      revert\n    tag_109:\n        /* \"CharityDAO.sol\":6500:6509  campaigns */\n      0x0d\n        /* \"CharityDAO.sol\":6500:6524  campaigns[campaignIndex] */\n      0x00\n        /* \"CharityDAO.sol\":6510:6523  campaignIndex */\n      dup4\n        /* \"CharityDAO.sol\":6500:6524  campaigns[campaignIndex] */\n      dup2\n      mstore\n      0x20\n      add\n      swap1\n      dup2\n      mstore\n      0x20\n      add\n      0x00\n      keccak256\n        /* \"CharityDAO.sol\":6500:6548  campaigns[campaignIndex].campaignRejectedMembers */\n      0x0b\n      add\n        /* \"CharityDAO.sol\":6500:6560  campaigns[campaignIndex].campaignRejectedMembers[msg.sender] */\n      0x00\n        /* \"CharityDAO.sol\":6549:6559  msg.sender */\n      caller\n        /* \"CharityDAO.sol\":6500:6560  campaigns[campaignIndex].campaignRejectedMembers[msg.sender] */\n      0xffffffffffffffffffffffffffffffffffffffff\n      and\n      0xffffffffffffffffffffffffffffffffffffffff\n      and\n      dup2\n      mstore\n      0x20\n      add\n      swap1\n      dup2\n      mstore\n      0x20\n      add\n      0x00\n      keccak256\n      0x00\n      swap1\n      sload\n      swap1\n      0x0100\n      exp\n      swap1\n      div\n      0xff\n      and\n        /* \"CharityDAO.sol\":6499:6560  !campaigns[campaignIndex].campaignRejectedMembers[msg.sender] */\n      iszero\n        /* \"CharityDAO.sol\":6491:6561  require(!campaigns[campaignIndex].campaignRejectedMembers[msg.sender]) */\n      tag_110\n      jumpi\n      0x00\n      dup1\n      revert\n    tag_110:\n        /* \"CharityDAO.sol\":6581:6590  campaigns */\n      0x0d\n        /* \"CharityDAO.sol\":6581:6605  campaigns[campaignIndex] */\n      0x00\n        /* \"CharityDAO.sol\":6591:6604  campaignIndex */\n      dup4\n        /* \"CharityDAO.sol\":6581:6605  campaigns[campaignIndex] */\n      dup2\n      mstore\n      0x20\n      add\n      swap1\n      dup2\n      mstore\n      0x20\n      add\n      0x00\n      keccak256\n        /* \"CharityDAO.sol\":6581:6616  campaigns[campaignIndex].isApproved */\n      0x09\n      add\n      0x00\n      swap1\n      sload\n      swap1\n      0x0100\n      exp\n      swap1\n      div\n      0xff\n      and\n        /* \"CharityDAO.sol\":6580:6616  !campaigns[campaignIndex].isApproved */\n      iszero\n        /* \"CharityDAO.sol\":6572:6617  require(!campaigns[campaignIndex].isApproved) */\n      tag_111\n      jumpi\n      0x00\n      dup1\n      revert\n    tag_111:\n        /* \"CharityDAO.sol\":6637:6646  campaigns */\n      0x0d\n        /* \"CharityDAO.sol\":6637:6661  campaigns[campaignIndex] */\n      0x00\n        /* \"CharityDAO.sol\":6647:6660  campaignIndex */\n      dup4\n        /* \"CharityDAO.sol\":6637:6661  campaigns[campaignIndex] */\n      dup2\n      mstore\n      0x20\n      add\n      swap1\n      dup2\n      mstore\n      0x20\n      add\n      0x00\n      keccak256\n        /* \"CharityDAO.sol\":6637:6672  campaigns[campaignIndex].isRejected */\n      0x09\n      add\n      0x01\n      swap1\n      sload\n      swap1\n      0x0100\n      exp\n      swap1\n      div\n      0xff\n      and\n        /* \"CharityDAO.sol\":6636:6672  !campaigns[campaignIndex].isRejected */\n      iszero\n        /* \"CharityDAO.sol\":6628:6673  require(!campaigns[campaignIndex].isRejected) */\n      tag_112\n      jumpi\n      0x00\n      dup1\n      revert\n    tag_112:\n        /* \"CharityDAO.sol\":6686:6695  campaigns */\n      0x0d\n        /* \"CharityDAO.sol\":6686:6710  campaigns[campaignIndex] */\n      0x00\n        /* \"CharityDAO.sol\":6696:6709  campaignIndex */\n      dup4\n        /* \"CharityDAO.sol\":6686:6710  campaigns[campaignIndex] */\n      dup2\n      mstore\n      0x20\n      add\n      swap1\n      dup2\n      mstore\n      0x20\n      add\n      0x00\n      keccak256\n        /* \"CharityDAO.sol\":6686:6722  campaigns[campaignIndex].rejectCount */\n      0x08\n      add\n      0x00\n        /* \"CharityDAO.sol\":6686:6724  campaigns[campaignIndex].rejectCount++ */\n      dup2\n      sload\n      dup1\n      swap3\n      swap2\n      swap1\n      tag_113\n      swap1\n      tag_114\n      jump\t// in\n    tag_113:\n      swap2\n      swap1\n      pop\n      sstore\n      pop\n        /* \"CharityDAO.sol\":6798:6802  true */\n      0x01\n        /* \"CharityDAO.sol\":6735:6744  campaigns */\n      0x0d\n        /* \"CharityDAO.sol\":6735:6759  campaigns[campaignIndex] */\n      0x00\n        /* \"CharityDAO.sol\":6745:6758  campaignIndex */\n      dup5\n        /* \"CharityDAO.sol\":6735:6759  campaigns[campaignIndex] */\n      dup2\n      mstore\n      0x20\n      add\n      swap1\n      dup2\n      mstore\n      0x20\n      add\n      0x00\n      keccak256\n        /* \"CharityDAO.sol\":6735:6783  campaigns[campaignIndex].campaignRejectedMembers */\n      0x0b\n      add\n        /* \"CharityDAO.sol\":6735:6795  campaigns[campaignIndex].campaignRejectedMembers[msg.sender] */\n      0x00\n        /* \"CharityDAO.sol\":6784:6794  msg.sender */\n      caller\n        /* \"CharityDAO.sol\":6735:6795  campaigns[campaignIndex].campaignRejectedMembers[msg.sender] */\n      0xffffffffffffffffffffffffffffffffffffffff\n      and\n      0xffffffffffffffffffffffffffffffffffffffff\n      and\n      dup2\n      mstore\n      0x20\n      add\n      swap1\n      dup2\n      mstore\n      0x20\n      add\n      0x00\n      keccak256\n      0x00\n        /* \"CharityDAO.sol\":6735:6802  campaigns[campaignIndex].campaignRejectedMembers[msg.sender] = true */\n      0x0100\n      exp\n      dup2\n      sload\n      dup2\n      0xff\n      mul\n      not\n      and\n      swap1\n      dup4\n      iszero\n      iszero\n      mul\n      or\n      swap1\n      sstore\n      pop\n        /* \"CharityDAO.sol\":6892:6893  2 */\n      0x02\n        /* \"CharityDAO.sol\":6866:6874  instance */\n      dup2\n        /* \"CharityDAO.sol\":6866:6889  instance.getMemberCount */\n      0xffffffffffffffffffffffffffffffffffffffff\n      and\n      0x997072f7\n        /* \"CharityDAO.sol\":6866:6891  instance.getMemberCount() */\n      mload(0x40)\n      dup2\n      0xffffffff\n      and\n      0xe0\n      shl\n      dup2\n      mstore\n      0x04\n      add\n      0x20\n      mload(0x40)\n      dup1\n      dup4\n      sub\n      dup2\n      dup7\n      dup1\n      extcodesize\n      iszero\n      dup1\n      iszero\n      tag_115\n      jumpi\n      0x00\n      dup1\n      revert\n    tag_115:\n      pop\n      gas\n      staticcall\n      iszero\n      dup1\n      iszero\n      tag_117\n      jumpi\n      returndatasize\n      0x00\n      dup1\n      returndatacopy\n      revert(0x00, returndatasize)\n    tag_117:\n      pop\n      pop\n      pop\n      pop\n      mload(0x40)\n      returndatasize\n      not(0x1f)\n      0x1f\n      dup3\n      add\n      and\n      dup3\n      add\n      dup1\n      0x40\n      mstore\n      pop\n      dup2\n      add\n      swap1\n      tag_118\n      swap2\n      swap1\n      tag_119\n      jump\t// in\n    tag_118:\n        /* \"CharityDAO.sol\":6866:6893  instance.getMemberCount()/2 */\n      tag_120\n      swap2\n      swap1\n      tag_121\n      jump\t// in\n    tag_120:\n        /* \"CharityDAO.sol\":6826:6835  campaigns */\n      0x0d\n        /* \"CharityDAO.sol\":6826:6850  campaigns[campaignIndex] */\n      0x00\n        /* \"CharityDAO.sol\":6836:6849  campaignIndex */\n      dup5\n        /* \"CharityDAO.sol\":6826:6850  campaigns[campaignIndex] */\n      dup2\n      mstore\n      0x20\n      add\n      swap1\n      dup2\n      mstore\n      0x20\n      add\n      0x00\n      keccak256\n        /* \"CharityDAO.sol\":6826:6862  campaigns[campaignIndex].rejectCount */\n      0x08\n      add\n      sload\n        /* \"CharityDAO.sol\":6826:6894  campaigns[campaignIndex].rejectCount > (instance.getMemberCount()/2) */\n      gt\n        /* \"CharityDAO.sol\":6823:6965  if(campaigns[campaignIndex].rejectCount > (instance.getMemberCount()/2)) {... */\n      iszero\n      tag_122\n      jumpi\n        /* \"CharityDAO.sol\":6949:6953  true */\n      0x01\n        /* \"CharityDAO.sol\":6911:6920  campaigns */\n      0x0d\n        /* \"CharityDAO.sol\":6911:6935  campaigns[campaignIndex] */\n      0x00\n        /* \"CharityDAO.sol\":6921:6934  campaignIndex */\n      dup5\n        /* \"CharityDAO.sol\":6911:6935  campaigns[campaignIndex] */\n      dup2\n      mstore\n      0x20\n      add\n      swap1\n      dup2\n      mstore\n      0x20\n      add\n      0x00\n      keccak256\n        /* \"CharityDAO.sol\":6911:6946  campaigns[campaignIndex].isRejected */\n      0x09\n      add\n      0x01\n        /* \"CharityDAO.sol\":6911:6953  campaigns[campaignIndex].isRejected = true */\n      0x0100\n      exp\n      dup2\n      sload\n      dup2\n      0xff\n      mul\n      not\n      and\n      swap1\n      dup4\n      iszero\n      iszero\n      mul\n      or\n      swap1\n      sstore\n      pop\n        /* \"CharityDAO.sol\":6823:6965  if(campaigns[campaignIndex].rejectCount > (instance.getMemberCount()/2)) {... */\n    tag_122:\n        /* \"CharityDAO.sol\":6259:6972  {... */\n      pop\n        /* \"CharityDAO.sol\":6208:6972  function rejectCampaign(uint campaignIndex) public {... */\n      pop\n      jump\t// out\n        /* \"CharityDAO.sol\":1942:1960  string public name */\n    tag_31:\n      0x00\n      dup1\n      sload\n      tag_123\n      swap1\n      tag_124\n      jump\t// in\n    tag_123:\n      dup1\n      0x1f\n      add\n      0x20\n      dup1\n      swap2\n      div\n      mul\n      0x20\n      add\n      mload(0x40)\n      swap1\n      dup2\n      add\n      0x40\n      mstore\n      dup1\n      swap3\n      swap2\n      swap1\n      dup2\n      dup2\n      mstore\n      0x20\n      add\n      dup3\n      dup1\n      sload\n      tag_125\n      swap1\n      tag_124\n      jump\t// in\n    tag_125:\n      dup1\n      iszero\n      tag_126\n      jumpi\n      dup1\n      0x1f\n      lt\n      tag_127\n      jumpi\n      0x0100\n      dup1\n      dup4\n      sload\n      div\n      mul\n      dup4\n      mstore\n      swap2\n      0x20\n      add\n      swap2\n      jump(tag_126)\n    tag_127:\n      dup3\n      add\n      swap2\n      swap1\n      0x00\n      mstore\n      keccak256(0x00, 0x20)\n      swap1\n    tag_128:\n      dup2\n      sload\n      dup2\n      mstore\n      swap1\n      0x01\n      add\n      swap1\n      0x20\n      add\n      dup1\n      dup4\n      gt\n      tag_128\n      jumpi\n      dup3\n      swap1\n      sub\n      0x1f\n      and\n      dup3\n      add\n      swap2\n    tag_126:\n      pop\n      pop\n      pop\n      pop\n      pop\n      dup2\n      jump\t// out\n        /* \"CharityDAO.sol\":2904:2946  mapping(uint => Campaign) public campaigns */\n    tag_36:\n      mstore(0x20, 0x0d)\n      dup1\n      0x00\n      mstore\n      keccak256(0x00, 0x40)\n      0x00\n      swap2\n      pop\n      swap1\n      pop\n      dup1\n      0x00\n      add\n      dup1\n      sload\n      tag_129\n      swap1\n      tag_124\n      jump\t// in\n    tag_129:\n      dup1\n      0x1f\n      add\n      0x20\n      dup1\n      swap2\n      div\n      mul\n      0x20\n      add\n      mload(0x40)\n      swap1\n      dup2\n      add\n      0x40\n      mstore\n      dup1\n      swap3\n      swap2\n      swap1\n      dup2\n      dup2\n      mstore\n      0x20\n      add\n      dup3\n      dup1\n      sload\n      tag_130\n      swap1\n      tag_124\n      jump\t// in\n    tag_130:\n      dup1\n      iszero\n      tag_131\n      jumpi\n      dup1\n      0x1f\n      lt\n      tag_132\n      jumpi\n      0x0100\n      dup1\n      dup4\n      sload\n      div\n      mul\n      dup4\n      mstore\n      swap2\n      0x20\n      add\n      swap2\n      jump(tag_131)\n    tag_132:\n      dup3\n      add\n      swap2\n      swap1\n      0x00\n      mstore\n      keccak256(0x00, 0x20)\n      swap1\n    tag_133:\n      dup2\n      sload\n      dup2\n      mstore\n      swap1\n      0x01\n      add\n      swap1\n      0x20\n      add\n      dup1\n      dup4\n      gt\n      tag_133\n      jumpi\n      dup3\n      swap1\n      sub\n      0x1f\n      and\n      dup3\n      add\n      swap2\n    tag_131:\n      pop\n      pop\n      pop\n      pop\n      pop\n      swap1\n      dup1\n      0x01\n      add\n      dup1\n      sload\n      tag_134\n      swap1\n      tag_124\n      jump\t// in\n    tag_134:\n      dup1\n      0x1f\n      add\n      0x20\n      dup1\n      swap2\n      div\n      mul\n      0x20\n      add\n      mload(0x40)\n      swap1\n      dup2\n      add\n      0x40\n      mstore\n      dup1\n      swap3\n      swap2\n      swap1\n      dup2\n      dup2\n      mstore\n      0x20\n      add\n      dup3\n      dup1\n      sload\n      tag_135\n      swap1\n      tag_124\n      jump\t// in\n    tag_135:\n      dup1\n      iszero\n      tag_136\n      jumpi\n      dup1\n      0x1f\n      lt\n      tag_137\n      jumpi\n      0x0100\n      dup1\n      dup4\n      sload\n      div\n      mul\n      dup4\n      mstore\n      swap2\n      0x20\n      add\n      swap2\n      jump(tag_136)\n    tag_137:\n      dup3\n      add\n      swap2\n      swap1\n      0x00\n      mstore\n      keccak256(0x00, 0x20)\n      swap1\n    tag_138:\n      dup2\n      sload\n      dup2\n      mstore\n      swap1\n      0x01\n      add\n      swap1\n      0x20\n      add\n      dup1\n      dup4\n      gt\n      tag_138\n      jumpi\n      dup3\n      swap1\n      sub\n      0x1f\n      and\n      dup3\n      add\n      swap2\n    tag_136:\n      pop\n      pop\n      pop\n      pop\n      pop\n      swap1\n      dup1\n      0x02\n      add\n      dup1\n      sload\n      tag_139\n      swap1\n      tag_124\n      jump\t// in\n    tag_139:\n      dup1\n      0x1f\n      add\n      0x20\n      dup1\n      swap2\n      div\n      mul\n      0x20\n      add\n      mload(0x40)\n      swap1\n      dup2\n      add\n      0x40\n      mstore\n      dup1\n      swap3\n      swap2\n      swap1\n      dup2\n      dup2\n      mstore\n      0x20\n      add\n      dup3\n      dup1\n      sload\n      tag_140\n      swap1\n      tag_124\n      jump\t// in\n    tag_140:\n      dup1\n      iszero\n      tag_141\n      jumpi\n      dup1\n      0x1f\n      lt\n      tag_142\n      jumpi\n      0x0100\n      dup1\n      dup4\n      sload\n      div\n      mul\n      dup4\n      mstore\n      swap2\n      0x20\n      add\n      swap2\n      jump(tag_141)\n    tag_142:\n      dup3\n      add\n      swap2\n      swap1\n      0x00\n      mstore\n      keccak256(0x00, 0x20)\n      swap1\n    tag_143:\n      dup2\n      sload\n      dup2\n      mstore\n      swap1\n      0x01\n      add\n      swap1\n      0x20\n      add\n      dup1\n      dup4\n      gt\n      tag_143\n      jumpi\n      dup3\n      swap1\n      sub\n      0x1f\n      and\n      dup3\n      add\n      swap2\n    tag_141:\n      pop\n      pop\n      pop\n      pop\n      pop\n      swap1\n      dup1\n      0x03\n      add\n      dup1\n      sload\n      tag_144\n      swap1\n      tag_124\n      jump\t// in\n    tag_144:\n      dup1\n      0x1f\n      add\n      0x20\n      dup1\n      swap2\n      div\n      mul\n      0x20\n      add\n      mload(0x40)\n      swap1\n      dup2\n      add\n      0x40\n      mstore\n      dup1\n      swap3\n      swap2\n      swap1\n      dup2\n      dup2\n      mstore\n      0x20\n      add\n      dup3\n      dup1\n      sload\n      tag_145\n      swap1\n      tag_124\n      jump\t// in\n    tag_145:\n      dup1\n      iszero\n      tag_146\n      jumpi\n      dup1\n      0x1f\n      lt\n      tag_147\n      jumpi\n      0x0100\n      dup1\n      dup4\n      sload\n      div\n      mul\n      dup4\n      mstore\n      swap2\n      0x20\n      add\n      swap2\n      jump(tag_146)\n    tag_147:\n      dup3\n      add\n      swap2\n      swap1\n      0x00\n      mstore\n      keccak256(0x00, 0x20)\n      swap1\n    tag_148:\n      dup2\n      sload\n      dup2\n      mstore\n      swap1\n      0x01\n      add\n      swap1\n      0x20\n      add\n      dup1\n      dup4\n      gt\n      tag_148\n      jumpi\n      dup3\n      swap1\n      sub\n      0x1f\n      and\n      dup3\n      add\n      swap2\n    tag_146:\n      pop\n      pop\n      pop\n      pop\n      pop\n      swap1\n      dup1\n      0x04\n      add\n      dup1\n      sload\n      tag_149\n      swap1\n      tag_124\n      jump\t// in\n    tag_149:\n      dup1\n      0x1f\n      add\n      0x20\n      dup1\n      swap2\n      div\n      mul\n      0x20\n      add\n      mload(0x40)\n      swap1\n      dup2\n      add\n      0x40\n      mstore\n      dup1\n      swap3\n      swap2\n      swap1\n      dup2\n      dup2\n      mstore\n      0x20\n      add\n      dup3\n      dup1\n      sload\n      tag_150\n      swap1\n      tag_124\n      jump\t// in\n    tag_150:\n      dup1\n      iszero\n      tag_151\n      jumpi\n      dup1\n      0x1f\n      lt\n      tag_152\n      jumpi\n      0x0100\n      dup1\n      dup4\n      sload\n      div\n      mul\n      dup4\n      mstore\n      swap2\n      0x20\n      add\n      swap2\n      jump(tag_151)\n    tag_152:\n      dup3\n      add\n      swap2\n      swap1\n      0x00\n      mstore\n      keccak256(0x00, 0x20)\n      swap1\n    tag_153:\n      dup2\n      sload\n      dup2\n      mstore\n      swap1\n      0x01\n      add\n      swap1\n      0x20\n      add\n      dup1\n      dup4\n      gt\n      tag_153\n      jumpi\n      dup3\n      swap1\n      sub\n      0x1f\n      and\n      dup3\n      add\n      swap2\n    tag_151:\n      pop\n      pop\n      pop\n      pop\n      pop\n      swap1\n      dup1\n      0x05\n      add\n      0x00\n      swap1\n      sload\n      swap1\n      0x0100\n      exp\n      swap1\n      div\n      0xffffffffffffffffffffffffffffffffffffffff\n      and\n      swap1\n      dup1\n      0x05\n      add\n      0x14\n      swap1\n      sload\n      swap1\n      0x0100\n      exp\n      swap1\n      div\n      0xff\n      and\n      swap1\n      dup1\n      0x06\n      add\n      sload\n      swap1\n      dup1\n      0x07\n      add\n      sload\n      swap1\n      dup1\n      0x08\n      add\n      sload\n      swap1\n      dup1\n      0x09\n      add\n      0x00\n      swap1\n      sload\n      swap1\n      0x0100\n      exp\n      swap1\n      div\n      0xff\n      and\n      swap1\n      dup1\n      0x09\n      add\n      0x01\n      swap1\n      sload\n      swap1\n      0x0100\n      exp\n      swap1\n      div\n      0xff\n      and\n      swap1\n      pop\n      dup13\n      jump\t// out\n        /* \"CharityDAO.sol\":2084:2113  string public locationAddress */\n    tag_40:\n      0x05\n      dup1\n      sload\n      tag_154\n      swap1\n      tag_124\n      jump\t// in\n    tag_154:\n      dup1\n      0x1f\n      add\n      0x20\n      dup1\n      swap2\n      div\n      mul\n      0x20\n      add\n      mload(0x40)\n      swap1\n      dup2\n      add\n      0x40\n      mstore\n      dup1\n      swap3\n      swap2\n      swap1\n      dup2\n      dup2\n      mstore\n      0x20\n      add\n      dup3\n      dup1\n      sload\n      tag_155\n      swap1\n      tag_124\n      jump\t// in\n    tag_155:\n      dup1\n      iszero\n      tag_156\n      jumpi\n      dup1\n      0x1f\n      lt\n      tag_157\n      jumpi\n      0x0100\n      dup1\n      dup4\n      sload\n      div\n      mul\n      dup4\n      mstore\n      swap2\n      0x20\n      add\n      swap2\n      jump(tag_156)\n    tag_157:\n      dup3\n      add\n      swap2\n      swap1\n      0x00\n      mstore\n      keccak256(0x00, 0x20)\n      swap1\n    tag_158:\n      dup2\n      sload\n      dup2\n      mstore\n      swap1\n      0x01\n      add\n      swap1\n      0x20\n      add\n      dup1\n      dup4\n      gt\n      tag_158\n      jumpi\n      dup3\n      swap1\n      sub\n      0x1f\n      and\n      dup3\n      add\n      swap2\n    tag_156:\n      pop\n      pop\n      pop\n      pop\n      pop\n      dup2\n      jump\t// out\n        /* \"CharityDAO.sol\":3982:4442  function rejectUser() public {... */\n    tag_43:\n        /* \"CharityDAO.sol\":4022:4034  DAO instance */\n      0x00\n        /* \"CharityDAO.sol\":4041:4051  DAOAddress */\n      0x0b\n      0x00\n      swap1\n      sload\n      swap1\n      0x0100\n      exp\n      swap1\n      div\n      0xffffffffffffffffffffffffffffffffffffffff\n      and\n        /* \"CharityDAO.sol\":4022:4052  DAO instance = DAO(DAOAddress) */\n      swap1\n      pop\n        /* \"CharityDAO.sol\":4071:4079  instance */\n      dup1\n        /* \"CharityDAO.sol\":4071:4089  instance.isAMember */\n      0xffffffffffffffffffffffffffffffffffffffff\n      and\n      0x5d672a62\n        /* \"CharityDAO.sol\":4090:4100  msg.sender */\n      caller\n        /* \"CharityDAO.sol\":4071:4101  instance.isAMember(msg.sender) */\n      mload(0x40)\n      dup3\n      0xffffffff\n      and\n      0xe0\n      shl\n      dup2\n      mstore\n      0x04\n      add\n      tag_160\n      swap2\n      swap1\n      tag_86\n      jump\t// in\n    tag_160:\n      0x20\n      mload(0x40)\n      dup1\n      dup4\n      sub\n      dup2\n      dup7\n      dup1\n      extcodesize\n      iszero\n      dup1\n      iszero\n      tag_161\n      jumpi\n      0x00\n      dup1\n      revert\n    tag_161:\n      pop\n      gas\n      staticcall\n      iszero\n      dup1\n      iszero\n      tag_163\n      jumpi\n      returndatasize\n      0x00\n      dup1\n      returndatacopy\n      revert(0x00, returndatasize)\n    tag_163:\n      pop\n      pop\n      pop\n      pop\n      mload(0x40)\n      returndatasize\n      not(0x1f)\n      0x1f\n      dup3\n      add\n      and\n      dup3\n      add\n      dup1\n      0x40\n      mstore\n      pop\n      dup2\n      add\n      swap1\n      tag_164\n      swap2\n      swap1\n      tag_101\n      jump\t// in\n    tag_164:\n        /* \"CharityDAO.sol\":4063:4102  require(instance.isAMember(msg.sender)) */\n      tag_165\n      jumpi\n      0x00\n      dup1\n      revert\n    tag_165:\n        /* \"CharityDAO.sol\":4122:4137  approvedMembers */\n      0x09\n        /* \"CharityDAO.sol\":4122:4149  approvedMembers[msg.sender] */\n      0x00\n        /* \"CharityDAO.sol\":4138:4148  msg.sender */\n      caller\n        /* \"CharityDAO.sol\":4122:4149  approvedMembers[msg.sender] */\n      0xffffffffffffffffffffffffffffffffffffffff\n      and\n      0xffffffffffffffffffffffffffffffffffffffff\n      and\n      dup2\n      mstore\n      0x20\n      add\n      swap1\n      dup2\n      mstore\n      0x20\n      add\n      0x00\n      keccak256\n      0x00\n      swap1\n      sload\n      swap1\n      0x0100\n      exp\n      swap1\n      div\n      0xff\n      and\n        /* \"CharityDAO.sol\":4121:4149  !approvedMembers[msg.sender] */\n      iszero\n        /* \"CharityDAO.sol\":4113:4150  require(!approvedMembers[msg.sender]) */\n      tag_166\n      jumpi\n      0x00\n      dup1\n      revert\n    tag_166:\n        /* \"CharityDAO.sol\":4170:4185  rejectedMembers */\n      0x0a\n        /* \"CharityDAO.sol\":4170:4197  rejectedMembers[msg.sender] */\n      0x00\n        /* \"CharityDAO.sol\":4186:4196  msg.sender */\n      caller\n        /* \"CharityDAO.sol\":4170:4197  rejectedMembers[msg.sender] */\n      0xffffffffffffffffffffffffffffffffffffffff\n      and\n      0xffffffffffffffffffffffffffffffffffffffff\n      and\n      dup2\n      mstore\n      0x20\n      add\n      swap1\n      dup2\n      mstore\n      0x20\n      add\n      0x00\n      keccak256\n      0x00\n      swap1\n      sload\n      swap1\n      0x0100\n      exp\n      swap1\n      div\n      0xff\n      and\n        /* \"CharityDAO.sol\":4169:4197  !rejectedMembers[msg.sender] */\n      iszero\n        /* \"CharityDAO.sol\":4161:4198  require(!rejectedMembers[msg.sender]) */\n      tag_167\n      jumpi\n      0x00\n      dup1\n      revert\n    tag_167:\n        /* \"CharityDAO.sol\":4218:4228  isApproved */\n      0x08\n      0x00\n      swap1\n      sload\n      swap1\n      0x0100\n      exp\n      swap1\n      div\n      0xff\n      and\n        /* \"CharityDAO.sol\":4217:4228  !isApproved */\n      iszero\n        /* \"CharityDAO.sol\":4209:4229  require(!isApproved) */\n      tag_168\n      jumpi\n      0x00\n      dup1\n      revert\n    tag_168:\n        /* \"CharityDAO.sol\":4249:4259  isRejected */\n      0x08\n      0x01\n      swap1\n      sload\n      swap1\n      0x0100\n      exp\n      swap1\n      div\n      0xff\n      and\n        /* \"CharityDAO.sol\":4248:4259  !isRejected */\n      iszero\n        /* \"CharityDAO.sol\":4240:4260  require(!isRejected) */\n      tag_169\n      jumpi\n      0x00\n      dup1\n      revert\n    tag_169:\n        /* \"CharityDAO.sol\":4301:4305  true */\n      0x01\n        /* \"CharityDAO.sol\":4271:4286  rejectedMembers */\n      0x0a\n        /* \"CharityDAO.sol\":4271:4298  rejectedMembers[msg.sender] */\n      0x00\n        /* \"CharityDAO.sol\":4287:4297  msg.sender */\n      caller\n        /* \"CharityDAO.sol\":4271:4298  rejectedMembers[msg.sender] */\n      0xffffffffffffffffffffffffffffffffffffffff\n      and\n      0xffffffffffffffffffffffffffffffffffffffff\n      and\n      dup2\n      mstore\n      0x20\n      add\n      swap1\n      dup2\n      mstore\n      0x20\n      add\n      0x00\n      keccak256\n      0x00\n        /* \"CharityDAO.sol\":4271:4305  rejectedMembers[msg.sender] = true */\n      0x0100\n      exp\n      dup2\n      sload\n      dup2\n      0xff\n      mul\n      not\n      and\n      swap1\n      dup4\n      iszero\n      iszero\n      mul\n      or\n      swap1\n      sstore\n      pop\n        /* \"CharityDAO.sol\":4316:4327  rejectCount */\n      0x07\n      0x00\n        /* \"CharityDAO.sol\":4316:4329  rejectCount++ */\n      dup2\n      sload\n      dup1\n      swap3\n      swap2\n      swap1\n      tag_170\n      swap1\n      tag_114\n      jump\t// in\n    tag_170:\n      swap2\n      swap1\n      pop\n      sstore\n      pop\n        /* \"CharityDAO.sol\":4388:4389  2 */\n      0x02\n        /* \"CharityDAO.sol\":4360:4368  instance */\n      dup2\n        /* \"CharityDAO.sol\":4360:4383  instance.getMemberCount */\n      0xffffffffffffffffffffffffffffffffffffffff\n      and\n      0x997072f7\n        /* \"CharityDAO.sol\":4360:4385  instance.getMemberCount() */\n      mload(0x40)\n      dup2\n      0xffffffff\n      and\n      0xe0\n      shl\n      dup2\n      mstore\n      0x04\n      add\n      0x20\n      mload(0x40)\n      dup1\n      dup4\n      sub\n      dup2\n      dup7\n      dup1\n      extcodesize\n      iszero\n      dup1\n      iszero\n      tag_171\n      jumpi\n      0x00\n      dup1\n      revert\n    tag_171:\n      pop\n      gas\n      staticcall\n      iszero\n      dup1\n      iszero\n      tag_173\n      jumpi\n      returndatasize\n      0x00\n      dup1\n      returndatacopy\n      revert(0x00, returndatasize)\n    tag_173:\n      pop\n      pop\n      pop\n      pop\n      mload(0x40)\n      returndatasize\n      not(0x1f)\n      0x1f\n      dup3\n      add\n      and\n      dup3\n      add\n      dup1\n      0x40\n      mstore\n      pop\n      dup2\n      add\n      swap1\n      tag_174\n      swap2\n      swap1\n      tag_119\n      jump\t// in\n    tag_174:\n        /* \"CharityDAO.sol\":4360:4389  instance.getMemberCount() / 2 */\n      tag_175\n      swap2\n      swap1\n      tag_121\n      jump\t// in\n    tag_175:\n        /* \"CharityDAO.sol\":4345:4356  rejectCount */\n      sload(0x07)\n        /* \"CharityDAO.sol\":4345:4390  rejectCount > (instance.getMemberCount() / 2) */\n      gt\n        /* \"CharityDAO.sol\":4342:4435  if(rejectCount > (instance.getMemberCount() / 2)){... */\n      iszero\n      tag_176\n      jumpi\n        /* \"CharityDAO.sol\":4419:4423  true */\n      0x01\n        /* \"CharityDAO.sol\":4406:4416  isRejected */\n      0x08\n      0x01\n        /* \"CharityDAO.sol\":4406:4423  isRejected = true */\n      0x0100\n      exp\n      dup2\n      sload\n      dup2\n      0xff\n      mul\n      not\n      and\n      swap1\n      dup4\n      iszero\n      iszero\n      mul\n      or\n      swap1\n      sstore\n      pop\n        /* \"CharityDAO.sol\":4342:4435  if(rejectCount > (instance.getMemberCount() / 2)){... */\n    tag_176:\n        /* \"CharityDAO.sol\":4011:4442  {... */\n      pop\n        /* \"CharityDAO.sol\":3982:4442  function rejectUser() public {... */\n      jump\t// out\n        /* \"CharityDAO.sol\":2181:2203  bool public isApproved */\n    tag_45:\n      0x08\n      0x00\n      swap1\n      sload\n      swap1\n      0x0100\n      exp\n      swap1\n      div\n      0xff\n      and\n      dup2\n      jump\t// out\n        /* \"CharityDAO.sol\":6980:7412  function finalizeTransaction(uint campaignIndex) public {... */\n    tag_50:\n        /* \"CharityDAO.sol\":7047:7059  DAO instance */\n      0x00\n        /* \"CharityDAO.sol\":7066:7076  DAOAddress */\n      0x0b\n      0x00\n      swap1\n      sload\n      swap1\n      0x0100\n      exp\n      swap1\n      div\n      0xffffffffffffffffffffffffffffffffffffffff\n      and\n        /* \"CharityDAO.sol\":7047:7077  DAO instance = DAO(DAOAddress) */\n      swap1\n      pop\n        /* \"CharityDAO.sol\":7096:7104  instance */\n      dup1\n        /* \"CharityDAO.sol\":7096:7112  instance.isAUser */\n      0xffffffffffffffffffffffffffffffffffffffff\n      and\n      0x018f5472\n        /* \"CharityDAO.sol\":7113:7123  msg.sender */\n      caller\n        /* \"CharityDAO.sol\":7096:7124  instance.isAUser(msg.sender) */\n      mload(0x40)\n      dup3\n      0xffffffff\n      and\n      0xe0\n      shl\n      dup2\n      mstore\n      0x04\n      add\n      tag_178\n      swap2\n      swap1\n      tag_86\n      jump\t// in\n    tag_178:\n      0x20\n      mload(0x40)\n      dup1\n      dup4\n      sub\n      dup2\n      dup7\n      dup1\n      extcodesize\n      iszero\n      dup1\n      iszero\n      tag_179\n      jumpi\n      0x00\n      dup1\n      revert\n    tag_179:\n      pop\n      gas\n      staticcall\n      iszero\n      dup1\n      iszero\n      tag_181\n      jumpi\n      returndatasize\n      0x00\n      dup1\n      returndatacopy\n      revert(0x00, returndatasize)\n    tag_181:\n      pop\n      pop\n      pop\n      pop\n      mload(0x40)\n      returndatasize\n      not(0x1f)\n      0x1f\n      dup3\n      add\n      and\n      dup3\n      add\n      dup1\n      0x40\n      mstore\n      pop\n      dup2\n      add\n      swap1\n      tag_182\n      swap2\n      swap1\n      tag_101\n      jump\t// in\n    tag_182:\n        /* \"CharityDAO.sol\":7088:7125  require(instance.isAUser(msg.sender)) */\n      tag_183\n      jumpi\n      0x00\n      dup1\n      revert\n    tag_183:\n        /* \"CharityDAO.sol\":7145:7153  instance */\n      dup1\n        /* \"CharityDAO.sol\":7145:7163  instance.isAMember */\n      0xffffffffffffffffffffffffffffffffffffffff\n      and\n      0x5d672a62\n        /* \"CharityDAO.sol\":7164:7174  msg.sender */\n      caller\n        /* \"CharityDAO.sol\":7145:7175  instance.isAMember(msg.sender) */\n      mload(0x40)\n      dup3\n      0xffffffff\n      and\n      0xe0\n      shl\n      dup2\n      mstore\n      0x04\n      add\n      tag_184\n      swap2\n      swap1\n      tag_86\n      jump\t// in\n    tag_184:\n      0x20\n      mload(0x40)\n      dup1\n      dup4\n      sub\n      dup2\n      dup7\n      dup1\n      extcodesize\n      iszero\n      dup1\n      iszero\n      tag_185\n      jumpi\n      0x00\n      dup1\n      revert\n    tag_185:\n      pop\n      gas\n      staticcall\n      iszero\n      dup1\n      iszero\n      tag_187\n      jumpi\n      returndatasize\n      0x00\n      dup1\n      returndatacopy\n      revert(0x00, returndatasize)\n    tag_187:\n      pop\n      pop\n      pop\n      pop\n      mload(0x40)\n      returndatasize\n      not(0x1f)\n      0x1f\n      dup3\n      add\n      and\n      dup3\n      add\n      dup1\n      0x40\n      mstore\n      pop\n      dup2\n      add\n      swap1\n      tag_188\n      swap2\n      swap1\n      tag_101\n      jump\t// in\n    tag_188:\n        /* \"CharityDAO.sol\":7144:7175  !instance.isAMember(msg.sender) */\n      iszero\n        /* \"CharityDAO.sol\":7136:7176  require(!instance.isAMember(msg.sender)) */\n      tag_189\n      jumpi\n      0x00\n      dup1\n      revert\n    tag_189:\n        /* \"CharityDAO.sol\":7195:7204  campaigns */\n      0x0d\n        /* \"CharityDAO.sol\":7195:7219  campaigns[campaignIndex] */\n      0x00\n        /* \"CharityDAO.sol\":7205:7218  campaignIndex */\n      dup4\n        /* \"CharityDAO.sol\":7195:7219  campaigns[campaignIndex] */\n      dup2\n      mstore\n      0x20\n      add\n      swap1\n      dup2\n      mstore\n      0x20\n      add\n      0x00\n      keccak256\n        /* \"CharityDAO.sol\":7195:7230  campaigns[campaignIndex].isApproved */\n      0x09\n      add\n      0x00\n      swap1\n      sload\n      swap1\n      0x0100\n      exp\n      swap1\n      div\n      0xff\n      and\n        /* \"CharityDAO.sol\":7187:7231  require(campaigns[campaignIndex].isApproved) */\n      tag_190\n      jumpi\n      0x00\n      dup1\n      revert\n    tag_190:\n        /* \"CharityDAO.sol\":7242:7267  Campaign storage campaign */\n      0x00\n        /* \"CharityDAO.sol\":7270:7279  campaigns */\n      0x0d\n        /* \"CharityDAO.sol\":7270:7294  campaigns[campaignIndex] */\n      0x00\n        /* \"CharityDAO.sol\":7280:7293  campaignIndex */\n      dup5\n        /* \"CharityDAO.sol\":7270:7294  campaigns[campaignIndex] */\n      dup2\n      mstore\n      0x20\n      add\n      swap1\n      dup2\n      mstore\n      0x20\n      add\n      0x00\n      keccak256\n        /* \"CharityDAO.sol\":7242:7294  Campaign storage campaign = campaigns[campaignIndex] */\n      swap1\n      pop\n        /* \"CharityDAO.sol\":7305:7313  instance */\n      dup2\n        /* \"CharityDAO.sol\":7305:7322  instance.transact */\n      0xffffffffffffffffffffffffffffffffffffffff\n      and\n      0xf77ac668\n        /* \"CharityDAO.sol\":7323:7331  campaign */\n      dup3\n        /* \"CharityDAO.sol\":7323:7341  campaign.recipient */\n      0x05\n      add\n      0x00\n      swap1\n      sload\n      swap1\n      0x0100\n      exp\n      swap1\n      div\n      0xffffffffffffffffffffffffffffffffffffffff\n      and\n        /* \"CharityDAO.sol\":7343:7351  campaign */\n      dup4\n        /* \"CharityDAO.sol\":7343:7357  campaign.value */\n      0x06\n      add\n      sload\n        /* \"CharityDAO.sol\":7305:7358  instance.transact(campaign.recipient, campaign.value) */\n      mload(0x40)\n      dup4\n      0xffffffff\n      and\n      0xe0\n      shl\n      dup2\n      mstore\n      0x04\n      add\n      tag_191\n      swap3\n      swap2\n      swap1\n      tag_192\n      jump\t// in\n    tag_191:\n      0x00\n      mload(0x40)\n      dup1\n      dup4\n      sub\n      dup2\n      0x00\n      dup8\n      dup1\n      extcodesize\n      iszero\n      dup1\n      iszero\n      tag_193\n      jumpi\n      0x00\n      dup1\n      revert\n    tag_193:\n      pop\n      gas\n      call\n      iszero\n      dup1\n      iszero\n      tag_195\n      jumpi\n      returndatasize\n      0x00\n      dup1\n      returndatacopy\n      revert(0x00, returndatasize)\n    tag_195:\n      pop\n      pop\n      pop\n      pop\n        /* \"CharityDAO.sol\":7400:7404  true */\n      0x01\n        /* \"CharityDAO.sol\":7369:7377  campaign */\n      dup2\n        /* \"CharityDAO.sol\":7369:7397  campaign.transactionComplete */\n      0x05\n      add\n      0x14\n        /* \"CharityDAO.sol\":7369:7404  campaign.transactionComplete = true */\n      0x0100\n      exp\n      dup2\n      sload\n      dup2\n      0xff\n      mul\n      not\n      and\n      swap1\n      dup4\n      iszero\n      iszero\n      mul\n      or\n      swap1\n      sstore\n      pop\n        /* \"CharityDAO.sol\":7036:7412  {... */\n      pop\n      pop\n        /* \"CharityDAO.sol\":6980:7412  function finalizeTransaction(uint campaignIndex) public {... */\n      pop\n      jump\t// out\n        /* \"CharityDAO.sol\":4454:5425  function createCampaign(string memory _title, string memory _description, string memory _recipientName, string memory _recipientPhone, string memory _recipientEmail, ... */\n    tag_54:\n        /* \"CharityDAO.sol\":4685:4697  DAO instance */\n      0x00\n        /* \"CharityDAO.sol\":4704:4714  DAOAddress */\n      0x0b\n      0x00\n      swap1\n      sload\n      swap1\n      0x0100\n      exp\n      swap1\n      div\n      0xffffffffffffffffffffffffffffffffffffffff\n      and\n        /* \"CharityDAO.sol\":4685:4715  DAO instance = DAO(DAOAddress) */\n      swap1\n      pop\n        /* \"CharityDAO.sol\":4734:4742  instance */\n      dup1\n        /* \"CharityDAO.sol\":4734:4750  instance.isAUser */\n      0xffffffffffffffffffffffffffffffffffffffff\n      and\n      0x018f5472\n        /* \"CharityDAO.sol\":4751:4761  msg.sender */\n      caller\n        /* \"CharityDAO.sol\":4734:4762  instance.isAUser(msg.sender) */\n      mload(0x40)\n      dup3\n      0xffffffff\n      and\n      0xe0\n      shl\n      dup2\n      mstore\n      0x04\n      add\n      tag_197\n      swap2\n      swap1\n      tag_86\n      jump\t// in\n    tag_197:\n      0x20\n      mload(0x40)\n      dup1\n      dup4\n      sub\n      dup2\n      dup7\n      dup1\n      extcodesize\n      iszero\n      dup1\n      iszero\n      tag_198\n      jumpi\n      0x00\n      dup1\n      revert\n    tag_198:\n      pop\n      gas\n      staticcall\n      iszero\n      dup1\n      iszero\n      tag_200\n      jumpi\n      returndatasize\n      0x00\n      dup1\n      returndatacopy\n      revert(0x00, returndatasize)\n    tag_200:\n      pop\n      pop\n      pop\n      pop\n      mload(0x40)\n      returndatasize\n      not(0x1f)\n      0x1f\n      dup3\n      add\n      and\n      dup3\n      add\n      dup1\n      0x40\n      mstore\n      pop\n      dup2\n      add\n      swap1\n      tag_201\n      swap2\n      swap1\n      tag_101\n      jump\t// in\n    tag_201:\n        /* \"CharityDAO.sol\":4726:4763  require(instance.isAUser(msg.sender)) */\n      tag_202\n      jumpi\n      0x00\n      dup1\n      revert\n    tag_202:\n        /* \"CharityDAO.sol\":4783:4791  instance */\n      dup1\n        /* \"CharityDAO.sol\":4783:4801  instance.isAMember */\n      0xffffffffffffffffffffffffffffffffffffffff\n      and\n      0x5d672a62\n        /* \"CharityDAO.sol\":4802:4812  msg.sender */\n      caller\n        /* \"CharityDAO.sol\":4783:4813  instance.isAMember(msg.sender) */\n      mload(0x40)\n      dup3\n      0xffffffff\n      and\n      0xe0\n      shl\n      dup2\n      mstore\n      0x04\n      add\n      tag_203\n      swap2\n      swap1\n      tag_86\n      jump\t// in\n    tag_203:\n      0x20\n      mload(0x40)\n      dup1\n      dup4\n      sub\n      dup2\n      dup7\n      dup1\n      extcodesize\n      iszero\n      dup1\n      iszero\n      tag_204\n      jumpi\n      0x00\n      dup1\n      revert\n    tag_204:\n      pop\n      gas\n      staticcall\n      iszero\n      dup1\n      iszero\n      tag_206\n      jumpi\n      returndatasize\n      0x00\n      dup1\n      returndatacopy\n      revert(0x00, returndatasize)\n    tag_206:\n      pop\n      pop\n      pop\n      pop\n      mload(0x40)\n      returndatasize\n      not(0x1f)\n      0x1f\n      dup3\n      add\n      and\n      dup3\n      add\n      dup1\n      0x40\n      mstore\n      pop\n      dup2\n      add\n      swap1\n      tag_207\n      swap2\n      swap1\n      tag_101\n      jump\t// in\n    tag_207:\n        /* \"CharityDAO.sol\":4782:4813  !instance.isAMember(msg.sender) */\n      iszero\n        /* \"CharityDAO.sol\":4774:4814  require(!instance.isAMember(msg.sender)) */\n      tag_208\n      jumpi\n      0x00\n      dup1\n      revert\n    tag_208:\n        /* \"CharityDAO.sol\":4833:4843  isApproved */\n      0x08\n      0x00\n      swap1\n      sload\n      swap1\n      0x0100\n      exp\n      swap1\n      div\n      0xff\n      and\n        /* \"CharityDAO.sol\":4833:4858  isApproved && !isRejected */\n      dup1\n      iszero\n      tag_209\n      jumpi\n      pop\n        /* \"CharityDAO.sol\":4848:4858  isRejected */\n      0x08\n      0x01\n      swap1\n      sload\n      swap1\n      0x0100\n      exp\n      swap1\n      div\n      0xff\n      and\n        /* \"CharityDAO.sol\":4847:4858  !isRejected */\n      iszero\n        /* \"CharityDAO.sol\":4833:4858  isApproved && !isRejected */\n    tag_209:\n        /* \"CharityDAO.sol\":4825:4859  require(isApproved && !isRejected) */\n      tag_210\n      jumpi\n      0x00\n      dup1\n      revert\n    tag_210:\n        /* \"CharityDAO.sol\":4872:4900  Campaign storage newCampaign */\n      0x00\n        /* \"CharityDAO.sol\":4903:4912  campaigns */\n      0x0d\n        /* \"CharityDAO.sol\":4903:4927  campaigns[numCampaign++] */\n      0x00\n        /* \"CharityDAO.sol\":4913:4924  numCampaign */\n      0x0c\n      0x00\n        /* \"CharityDAO.sol\":4913:4926  numCampaign++ */\n      dup2\n      sload\n      dup1\n      swap3\n      swap2\n      swap1\n      tag_211\n      swap1\n      tag_114\n      jump\t// in\n    tag_211:\n      swap2\n      swap1\n      pop\n      sstore\n        /* \"CharityDAO.sol\":4903:4927  campaigns[numCampaign++] */\n      dup2\n      mstore\n      0x20\n      add\n      swap1\n      dup2\n      mstore\n      0x20\n      add\n      0x00\n      keccak256\n        /* \"CharityDAO.sol\":4872:4927  Campaign storage newCampaign = campaigns[numCampaign++] */\n      swap1\n      pop\n        /* \"CharityDAO.sol\":4958:4964  _title */\n      dup9\n        /* \"CharityDAO.sol\":4938:4949  newCampaign */\n      dup2\n        /* \"CharityDAO.sol\":4938:4955  newCampaign.title */\n      0x00\n      add\n        /* \"CharityDAO.sol\":4938:4964  newCampaign.title = _title */\n      swap1\n      dup1\n      mload\n      swap1\n      0x20\n      add\n      swap1\n      tag_212\n      swap3\n      swap2\n      swap1\n      tag_213\n      jump\t// in\n    tag_212:\n      pop\n        /* \"CharityDAO.sol\":5001:5013  _description */\n      dup8\n        /* \"CharityDAO.sol\":4975:4986  newCampaign */\n      dup2\n        /* \"CharityDAO.sol\":4975:4998  newCampaign.description */\n      0x01\n      add\n        /* \"CharityDAO.sol\":4975:5013  newCampaign.description = _description */\n      swap1\n      dup1\n      mload\n      swap1\n      0x20\n      add\n      swap1\n      tag_214\n      swap3\n      swap2\n      swap1\n      tag_213\n      jump\t// in\n    tag_214:\n      pop\n        /* \"CharityDAO.sol\":5052:5066  _recipientName */\n      dup7\n        /* \"CharityDAO.sol\":5024:5035  newCampaign */\n      dup2\n        /* \"CharityDAO.sol\":5024:5049  newCampaign.recipientName */\n      0x02\n      add\n        /* \"CharityDAO.sol\":5024:5066  newCampaign.recipientName = _recipientName */\n      swap1\n      dup1\n      mload\n      swap1\n      0x20\n      add\n      swap1\n      tag_215\n      swap3\n      swap2\n      swap1\n      tag_213\n      jump\t// in\n    tag_215:\n      pop\n        /* \"CharityDAO.sol\":5106:5121  _recipientPhone */\n      dup6\n        /* \"CharityDAO.sol\":5077:5088  newCampaign */\n      dup2\n        /* \"CharityDAO.sol\":5077:5103  newCampaign.recipientPhone */\n      0x03\n      add\n        /* \"CharityDAO.sol\":5077:5121  newCampaign.recipientPhone = _recipientPhone */\n      swap1\n      dup1\n      mload\n      swap1\n      0x20\n      add\n      swap1\n      tag_216\n      swap3\n      swap2\n      swap1\n      tag_213\n      jump\t// in\n    tag_216:\n      pop\n        /* \"CharityDAO.sol\":5161:5176  _recipientEmail */\n      dup5\n        /* \"CharityDAO.sol\":5132:5143  newCampaign */\n      dup2\n        /* \"CharityDAO.sol\":5132:5158  newCampaign.recipientEmail */\n      0x04\n      add\n        /* \"CharityDAO.sol\":5132:5176  newCampaign.recipientEmail = _recipientEmail */\n      swap1\n      dup1\n      mload\n      swap1\n      0x20\n      add\n      swap1\n      tag_217\n      swap3\n      swap2\n      swap1\n      tag_213\n      jump\t// in\n    tag_217:\n      pop\n        /* \"CharityDAO.sol\":5211:5221  _recipient */\n      dup4\n        /* \"CharityDAO.sol\":5187:5198  newCampaign */\n      dup2\n        /* \"CharityDAO.sol\":5187:5208  newCampaign.recipient */\n      0x05\n      add\n      0x00\n        /* \"CharityDAO.sol\":5187:5221  newCampaign.recipient = _recipient */\n      0x0100\n      exp\n      dup2\n      sload\n      dup2\n      0xffffffffffffffffffffffffffffffffffffffff\n      mul\n      not\n      and\n      swap1\n      dup4\n      0xffffffffffffffffffffffffffffffffffffffff\n      and\n      mul\n      or\n      swap1\n      sstore\n      pop\n        /* \"CharityDAO.sol\":5252:5258  _value */\n      dup3\n        /* \"CharityDAO.sol\":5232:5243  newCampaign */\n      dup2\n        /* \"CharityDAO.sol\":5232:5249  newCampaign.value */\n      0x06\n      add\n        /* \"CharityDAO.sol\":5232:5258  newCampaign.value = _value */\n      dup2\n      swap1\n      sstore\n      pop\n        /* \"CharityDAO.sol\":5296:5297  0 */\n      0x00\n        /* \"CharityDAO.sol\":5269:5280  newCampaign */\n      dup2\n        /* \"CharityDAO.sol\":5269:5293  newCampaign.approveCount */\n      0x07\n      add\n        /* \"CharityDAO.sol\":5269:5297  newCampaign.approveCount = 0 */\n      dup2\n      swap1\n      sstore\n      pop\n        /* \"CharityDAO.sol\":5334:5335  0 */\n      0x00\n        /* \"CharityDAO.sol\":5308:5319  newCampaign */\n      dup2\n        /* \"CharityDAO.sol\":5308:5331  newCampaign.rejectCount */\n      0x08\n      add\n        /* \"CharityDAO.sol\":5308:5335  newCampaign.rejectCount = 0 */\n      dup2\n      swap1\n      sstore\n      pop\n        /* \"CharityDAO.sol\":5371:5376  false */\n      0x00\n        /* \"CharityDAO.sol\":5346:5357  newCampaign */\n      dup2\n        /* \"CharityDAO.sol\":5346:5368  newCampaign.isApproved */\n      0x09\n      add\n      0x00\n        /* \"CharityDAO.sol\":5346:5376  newCampaign.isApproved = false */\n      0x0100\n      exp\n      dup2\n      sload\n      dup2\n      0xff\n      mul\n      not\n      and\n      swap1\n      dup4\n      iszero\n      iszero\n      mul\n      or\n      swap1\n      sstore\n      pop\n        /* \"CharityDAO.sol\":5412:5417  false */\n      0x00\n        /* \"CharityDAO.sol\":5387:5398  newCampaign */\n      dup2\n        /* \"CharityDAO.sol\":5387:5409  newCampaign.isRejected */\n      0x09\n      add\n      0x01\n        /* \"CharityDAO.sol\":5387:5417  newCampaign.isRejected = false */\n      0x0100\n      exp\n      dup2\n      sload\n      dup2\n      0xff\n      mul\n      not\n      and\n      swap1\n      dup4\n      iszero\n      iszero\n      mul\n      or\n      swap1\n      sstore\n      pop\n        /* \"CharityDAO.sol\":4674:5425  {... */\n      pop\n      pop\n        /* \"CharityDAO.sol\":4454:5425  function createCampaign(string memory _title, string memory _description, string memory _recipientName, string memory _recipientPhone, string memory _recipientEmail, ... */\n      pop\n      pop\n      pop\n      pop\n      pop\n      pop\n      pop\n      jump\t// out\n        /* \"CharityDAO.sol\":1967:1992  string public description */\n    tag_56:\n      0x01\n      dup1\n      sload\n      tag_218\n      swap1\n      tag_124\n      jump\t// in\n    tag_218:\n      dup1\n      0x1f\n      add\n      0x20\n      dup1\n      swap2\n      div\n      mul\n      0x20\n      add\n      mload(0x40)\n      swap1\n      dup2\n      add\n      0x40\n      mstore\n      dup1\n      swap3\n      swap2\n      swap1\n      dup2\n      dup2\n      mstore\n      0x20\n      add\n      dup3\n      dup1\n      sload\n      tag_219\n      swap1\n      tag_124\n      jump\t// in\n    tag_219:\n      dup1\n      iszero\n      tag_220\n      jumpi\n      dup1\n      0x1f\n      lt\n      tag_221\n      jumpi\n      0x0100\n      dup1\n      dup4\n      sload\n      div\n      mul\n      dup4\n      mstore\n      swap2\n      0x20\n      add\n      swap2\n      jump(tag_220)\n    tag_221:\n      dup3\n      add\n      swap2\n      swap1\n      0x00\n      mstore\n      keccak256(0x00, 0x20)\n      swap1\n    tag_222:\n      dup2\n      sload\n      dup2\n      mstore\n      swap1\n      0x01\n      add\n      swap1\n      0x20\n      add\n      dup1\n      dup4\n      gt\n      tag_222\n      jumpi\n      dup3\n      swap1\n      sub\n      0x1f\n      and\n      dup3\n      add\n      swap2\n    tag_220:\n      pop\n      pop\n      pop\n      pop\n      pop\n      dup2\n      jump\t// out\n        /* \"CharityDAO.sol\":2874:2897  uint public numCampaign */\n    tag_59:\n      sload(0x0c)\n      dup2\n      jump\t// out\n        /* \"CharityDAO.sol\":2058:2077  string public email */\n    tag_63:\n      0x04\n      dup1\n      sload\n      tag_223\n      swap1\n      tag_124\n      jump\t// in\n    tag_223:\n      dup1\n      0x1f\n      add\n      0x20\n      dup1\n      swap2\n      div\n      mul\n      0x20\n      add\n      mload(0x40)\n      swap1\n      dup2\n      add\n      0x40\n      mstore\n      dup1\n      swap3\n      swap2\n      swap1\n      dup2\n      dup2\n      mstore\n      0x20\n      add\n      dup3\n      dup1\n      sload\n      tag_224\n      swap1\n      tag_124\n      jump\t// in\n    tag_224:\n      dup1\n      iszero\n      tag_225\n      jumpi\n      dup1\n      0x1f\n      lt\n      tag_226\n      jumpi\n      0x0100\n      dup1\n      dup4\n      sload\n      div\n      mul\n      dup4\n      mstore\n      swap2\n      0x20\n      add\n      swap2\n      jump(tag_225)\n    tag_226:\n      dup3\n      add\n      swap2\n      swap1\n      0x00\n      mstore\n      keccak256(0x00, 0x20)\n      swap1\n    tag_227:\n      dup2\n      sload\n      dup2\n      mstore\n      swap1\n      0x01\n      add\n      swap1\n      0x20\n      add\n      dup1\n      dup4\n      gt\n      tag_227\n      jumpi\n      dup3\n      swap1\n      sub\n      0x1f\n      and\n      dup3\n      add\n      swap2\n    tag_225:\n      pop\n      pop\n      pop\n      pop\n      pop\n      dup2\n      jump\t// out\n        /* \"CharityDAO.sol\":2032:2051  string public phone */\n    tag_66:\n      0x03\n      dup1\n      sload\n      tag_228\n      swap1\n      tag_124\n      jump\t// in\n    tag_228:\n      dup1\n      0x1f\n      add\n      0x20\n      dup1\n      swap2\n      div\n      mul\n      0x20\n      add\n      mload(0x40)\n      swap1\n      dup2\n      add\n      0x40\n      mstore\n      dup1\n      swap3\n      swap2\n      swap1\n      dup2\n      dup2\n      mstore\n      0x20\n      add\n      dup3\n      dup1\n      sload\n      tag_229\n      swap1\n      tag_124\n      jump\t// in\n    tag_229:\n      dup1\n      iszero\n      tag_230\n      jumpi\n      dup1\n      0x1f\n      lt\n      tag_231\n      jumpi\n      0x0100\n      dup1\n      dup4\n      sload\n      div\n      mul\n      dup4\n      mstore\n      swap2\n      0x20\n      add\n      swap2\n      jump(tag_230)\n    tag_231:\n      dup3\n      add\n      swap2\n      swap1\n      0x00\n      mstore\n      keccak256(0x00, 0x20)\n      swap1\n    tag_232:\n      dup2\n      sload\n      dup2\n      mstore\n      swap1\n      0x01\n      add\n      swap1\n      0x20\n      add\n      dup1\n      dup4\n      gt\n      tag_232\n      jumpi\n      dup3\n      swap1\n      sub\n      0x1f\n      and\n      dup3\n      add\n      swap2\n    tag_230:\n      pop\n      pop\n      pop\n      pop\n      pop\n      dup2\n      jump\t// out\n        /* \"CharityDAO.sol\":2120:2144  uint public approveCount */\n    tag_69:\n      sload(0x06)\n      dup2\n      jump\t// out\n        /* \"CharityDAO.sol\":2210:2232  bool public isRejected */\n    tag_72:\n      0x08\n      0x01\n      swap1\n      sload\n      swap1\n      0x0100\n      exp\n      swap1\n      div\n      0xff\n      and\n      dup2\n      jump\t// out\n        /* \"CharityDAO.sol\":2239:2286  mapping(address => bool) public approvedMembers */\n    tag_77:\n      mstore(0x20, 0x09)\n      dup1\n      0x00\n      mstore\n      keccak256(0x00, 0x40)\n      0x00\n      swap2\n      pop\n      sload\n      swap1\n      0x0100\n      exp\n      swap1\n      div\n      0xff\n      and\n      dup2\n      jump\t// out\n        /* \"CharityDAO.sol\":2293:2340  mapping(address => bool) public rejectedMembers */\n    tag_81:\n      mstore(0x20, 0x0a)\n      dup1\n      0x00\n      mstore\n      keccak256(0x00, 0x40)\n      0x00\n      swap2\n      pop\n      sload\n      swap1\n      0x0100\n      exp\n      swap1\n      div\n      0xff\n      and\n      dup2\n      jump\t// out\n        /* \"CharityDAO.sol\":1999:2025  address public userAddress */\n    tag_84:\n      0x02\n      0x00\n      swap1\n      sload\n      swap1\n      0x0100\n      exp\n      swap1\n      div\n      0xffffffffffffffffffffffffffffffffffffffff\n      and\n      dup2\n      jump\t// out\n        /* \"CharityDAO.sol\":5433:6200  function approveCampaign(uint campaignIndex) public {... */\n    tag_89:\n        /* \"CharityDAO.sol\":5496:5508  DAO instance */\n      0x00\n        /* \"CharityDAO.sol\":5515:5525  DAOAddress */\n      0x0b\n      0x00\n      swap1\n      sload\n      swap1\n      0x0100\n      exp\n      swap1\n      div\n      0xffffffffffffffffffffffffffffffffffffffff\n      and\n        /* \"CharityDAO.sol\":5496:5526  DAO instance = DAO(DAOAddress) */\n      swap1\n      pop\n        /* \"CharityDAO.sol\":5545:5553  instance */\n      dup1\n        /* \"CharityDAO.sol\":5545:5563  instance.isAMember */\n      0xffffffffffffffffffffffffffffffffffffffff\n      and\n      0x5d672a62\n        /* \"CharityDAO.sol\":5564:5574  msg.sender */\n      caller\n        /* \"CharityDAO.sol\":5545:5575  instance.isAMember(msg.sender) */\n      mload(0x40)\n      dup3\n      0xffffffff\n      and\n      0xe0\n      shl\n      dup2\n      mstore\n      0x04\n      add\n      tag_234\n      swap2\n      swap1\n      tag_86\n      jump\t// in\n    tag_234:\n      0x20\n      mload(0x40)\n      dup1\n      dup4\n      sub\n      dup2\n      dup7\n      dup1\n      extcodesize\n      iszero\n      dup1\n      iszero\n      tag_235\n      jumpi\n      0x00\n      dup1\n      revert\n    tag_235:\n      pop\n      gas\n      staticcall\n      iszero\n      dup1\n      iszero\n      tag_237\n      jumpi\n      returndatasize\n      0x00\n      dup1\n      returndatacopy\n      revert(0x00, returndatasize)\n    tag_237:\n      pop\n      pop\n      pop\n      pop\n      mload(0x40)\n      returndatasize\n      not(0x1f)\n      0x1f\n      dup3\n      add\n      and\n      dup3\n      add\n      dup1\n      0x40\n      mstore\n      pop\n      dup2\n      add\n      swap1\n      tag_238\n      swap2\n      swap1\n      tag_101\n      jump\t// in\n    tag_238:\n        /* \"CharityDAO.sol\":5537:5576  require(instance.isAMember(msg.sender)) */\n      tag_239\n      jumpi\n      0x00\n      dup1\n      revert\n    tag_239:\n        /* \"CharityDAO.sol\":5596:5604  instance */\n      dup1\n        /* \"CharityDAO.sol\":5596:5612  instance.isAUser */\n      0xffffffffffffffffffffffffffffffffffffffff\n      and\n      0x018f5472\n        /* \"CharityDAO.sol\":5613:5623  msg.sender */\n      caller\n        /* \"CharityDAO.sol\":5596:5624  instance.isAUser(msg.sender) */\n      mload(0x40)\n      dup3\n      0xffffffff\n      and\n      0xe0\n      shl\n      dup2\n      mstore\n      0x04\n      add\n      tag_240\n      swap2\n      swap1\n      tag_86\n      jump\t// in\n    tag_240:\n      0x20\n      mload(0x40)\n      dup1\n      dup4\n      sub\n      dup2\n      dup7\n      dup1\n      extcodesize\n      iszero\n      dup1\n      iszero\n      tag_241\n      jumpi\n      0x00\n      dup1\n      revert\n    tag_241:\n      pop\n      gas\n      staticcall\n      iszero\n      dup1\n      iszero\n      tag_243\n      jumpi\n      returndatasize\n      0x00\n      dup1\n      returndatacopy\n      revert(0x00, returndatasize)\n    tag_243:\n      pop\n      pop\n      pop\n      pop\n      mload(0x40)\n      returndatasize\n      not(0x1f)\n      0x1f\n      dup3\n      add\n      and\n      dup3\n      add\n      dup1\n      0x40\n      mstore\n      pop\n      dup2\n      add\n      swap1\n      tag_244\n      swap2\n      swap1\n      tag_101\n      jump\t// in\n    tag_244:\n        /* \"CharityDAO.sol\":5595:5624  !instance.isAUser(msg.sender) */\n      iszero\n        /* \"CharityDAO.sol\":5587:5625  require(!instance.isAUser(msg.sender)) */\n      tag_245\n      jumpi\n      0x00\n      dup1\n      revert\n    tag_245:\n        /* \"CharityDAO.sol\":5645:5654  campaigns */\n      0x0d\n        /* \"CharityDAO.sol\":5645:5669  campaigns[campaignIndex] */\n      0x00\n        /* \"CharityDAO.sol\":5655:5668  campaignIndex */\n      dup4\n        /* \"CharityDAO.sol\":5645:5669  campaigns[campaignIndex] */\n      dup2\n      mstore\n      0x20\n      add\n      swap1\n      dup2\n      mstore\n      0x20\n      add\n      0x00\n      keccak256\n        /* \"CharityDAO.sol\":5645:5693  campaigns[campaignIndex].campaignApprovedMembers */\n      0x0a\n      add\n        /* \"CharityDAO.sol\":5645:5705  campaigns[campaignIndex].campaignApprovedMembers[msg.sender] */\n      0x00\n        /* \"CharityDAO.sol\":5694:5704  msg.sender */\n      caller\n        /* \"CharityDAO.sol\":5645:5705  campaigns[campaignIndex].campaignApprovedMembers[msg.sender] */\n      0xffffffffffffffffffffffffffffffffffffffff\n      and\n      0xffffffffffffffffffffffffffffffffffffffff\n      and\n      dup2\n      mstore\n      0x20\n      add\n      swap1\n      dup2\n      mstore\n      0x20\n      add\n      0x00\n      keccak256\n      0x00\n      swap1\n      sload\n      swap1\n      0x0100\n      exp\n      swap1\n      div\n      0xff\n      and\n        /* \"CharityDAO.sol\":5644:5705  !campaigns[campaignIndex].campaignApprovedMembers[msg.sender] */\n      iszero\n        /* \"CharityDAO.sol\":5636:5706  require(!campaigns[campaignIndex].campaignApprovedMembers[msg.sender]) */\n      tag_246\n      jumpi\n      0x00\n      dup1\n      revert\n    tag_246:\n        /* \"CharityDAO.sol\":5726:5735  campaigns */\n      0x0d\n        /* \"CharityDAO.sol\":5726:5750  campaigns[campaignIndex] */\n      0x00\n        /* \"CharityDAO.sol\":5736:5749  campaignIndex */\n      dup4\n        /* \"CharityDAO.sol\":5726:5750  campaigns[campaignIndex] */\n      dup2\n      mstore\n      0x20\n      add\n      swap1\n      dup2\n      mstore\n      0x20\n      add\n      0x00\n      keccak256\n        /* \"CharityDAO.sol\":5726:5774  campaigns[campaignIndex].campaignRejectedMembers */\n      0x0b\n      add\n        /* \"CharityDAO.sol\":5726:5786  campaigns[campaignIndex].campaignRejectedMembers[msg.sender] */\n      0x00\n        /* \"CharityDAO.sol\":5775:5785  msg.sender */\n      caller\n        /* \"CharityDAO.sol\":5726:5786  campaigns[campaignIndex].campaignRejectedMembers[msg.sender] */\n      0xffffffffffffffffffffffffffffffffffffffff\n      and\n      0xffffffffffffffffffffffffffffffffffffffff\n      and\n      dup2\n      mstore\n      0x20\n      add\n      swap1\n      dup2\n      mstore\n      0x20\n      add\n      0x00\n      keccak256\n      0x00\n      swap1\n      sload\n      swap1\n      0x0100\n      exp\n      swap1\n      div\n      0xff\n      and\n        /* \"CharityDAO.sol\":5725:5786  !campaigns[campaignIndex].campaignRejectedMembers[msg.sender] */\n      iszero\n        /* \"CharityDAO.sol\":5717:5787  require(!campaigns[campaignIndex].campaignRejectedMembers[msg.sender]) */\n      tag_247\n      jumpi\n      0x00\n      dup1\n      revert\n    tag_247:\n        /* \"CharityDAO.sol\":5807:5816  campaigns */\n      0x0d\n        /* \"CharityDAO.sol\":5807:5831  campaigns[campaignIndex] */\n      0x00\n        /* \"CharityDAO.sol\":5817:5830  campaignIndex */\n      dup4\n        /* \"CharityDAO.sol\":5807:5831  campaigns[campaignIndex] */\n      dup2\n      mstore\n      0x20\n      add\n      swap1\n      dup2\n      mstore\n      0x20\n      add\n      0x00\n      keccak256\n        /* \"CharityDAO.sol\":5807:5842  campaigns[campaignIndex].isApproved */\n      0x09\n      add\n      0x00\n      swap1\n      sload\n      swap1\n      0x0100\n      exp\n      swap1\n      div\n      0xff\n      and\n        /* \"CharityDAO.sol\":5806:5842  !campaigns[campaignIndex].isApproved */\n      iszero\n        /* \"CharityDAO.sol\":5798:5843  require(!campaigns[campaignIndex].isApproved) */\n      tag_248\n      jumpi\n      0x00\n      dup1\n      revert\n    tag_248:\n        /* \"CharityDAO.sol\":5863:5872  campaigns */\n      0x0d\n        /* \"CharityDAO.sol\":5863:5887  campaigns[campaignIndex] */\n      0x00\n        /* \"CharityDAO.sol\":5873:5886  campaignIndex */\n      dup4\n        /* \"CharityDAO.sol\":5863:5887  campaigns[campaignIndex] */\n      dup2\n      mstore\n      0x20\n      add\n      swap1\n      dup2\n      mstore\n      0x20\n      add\n      0x00\n      keccak256\n        /* \"CharityDAO.sol\":5863:5898  campaigns[campaignIndex].isRejected */\n      0x09\n      add\n      0x01\n      swap1\n      sload\n      swap1\n      0x0100\n      exp\n      swap1\n      div\n      0xff\n      and\n        /* \"CharityDAO.sol\":5862:5898  !campaigns[campaignIndex].isRejected */\n      iszero\n        /* \"CharityDAO.sol\":5854:5899  require(!campaigns[campaignIndex].isRejected) */\n      tag_249\n      jumpi\n      0x00\n      dup1\n      revert\n    tag_249:\n        /* \"CharityDAO.sol\":5912:5921  campaigns */\n      0x0d\n        /* \"CharityDAO.sol\":5912:5936  campaigns[campaignIndex] */\n      0x00\n        /* \"CharityDAO.sol\":5922:5935  campaignIndex */\n      dup4\n        /* \"CharityDAO.sol\":5912:5936  campaigns[campaignIndex] */\n      dup2\n      mstore\n      0x20\n      add\n      swap1\n      dup2\n      mstore\n      0x20\n      add\n      0x00\n      keccak256\n        /* \"CharityDAO.sol\":5912:5949  campaigns[campaignIndex].approveCount */\n      0x07\n      add\n      0x00\n        /* \"CharityDAO.sol\":5912:5951  campaigns[campaignIndex].approveCount++ */\n      dup2\n      sload\n      dup1\n      swap3\n      swap2\n      swap1\n      tag_250\n      swap1\n      tag_114\n      jump\t// in\n    tag_250:\n      swap2\n      swap1\n      pop\n      sstore\n      pop\n        /* \"CharityDAO.sol\":6025:6029  true */\n      0x01\n        /* \"CharityDAO.sol\":5962:5971  campaigns */\n      0x0d\n        /* \"CharityDAO.sol\":5962:5986  campaigns[campaignIndex] */\n      0x00\n        /* \"CharityDAO.sol\":5972:5985  campaignIndex */\n      dup5\n        /* \"CharityDAO.sol\":5962:5986  campaigns[campaignIndex] */\n      dup2\n      mstore\n      0x20\n      add\n      swap1\n      dup2\n      mstore\n      0x20\n      add\n      0x00\n      keccak256\n        /* \"CharityDAO.sol\":5962:6010  campaigns[campaignIndex].campaignApprovedMembers */\n      0x0a\n      add\n        /* \"CharityDAO.sol\":5962:6022  campaigns[campaignIndex].campaignApprovedMembers[msg.sender] */\n      0x00\n        /* \"CharityDAO.sol\":6011:6021  msg.sender */\n      caller\n        /* \"CharityDAO.sol\":5962:6022  campaigns[campaignIndex].campaignApprovedMembers[msg.sender] */\n      0xffffffffffffffffffffffffffffffffffffffff\n      and\n      0xffffffffffffffffffffffffffffffffffffffff\n      and\n      dup2\n      mstore\n      0x20\n      add\n      swap1\n      dup2\n      mstore\n      0x20\n      add\n      0x00\n      keccak256\n      0x00\n        /* \"CharityDAO.sol\":5962:6029  campaigns[campaignIndex].campaignApprovedMembers[msg.sender] = true */\n      0x0100\n      exp\n      dup2\n      sload\n      dup2\n      0xff\n      mul\n      not\n      and\n      swap1\n      dup4\n      iszero\n      iszero\n      mul\n      or\n      swap1\n      sstore\n      pop\n        /* \"CharityDAO.sol\":6120:6121  2 */\n      0x02\n        /* \"CharityDAO.sol\":6094:6102  instance */\n      dup2\n        /* \"CharityDAO.sol\":6094:6117  instance.getMemberCount */\n      0xffffffffffffffffffffffffffffffffffffffff\n      and\n      0x997072f7\n        /* \"CharityDAO.sol\":6094:6119  instance.getMemberCount() */\n      mload(0x40)\n      dup2\n      0xffffffff\n      and\n      0xe0\n      shl\n      dup2\n      mstore\n      0x04\n      add\n      0x20\n      mload(0x40)\n      dup1\n      dup4\n      sub\n      dup2\n      dup7\n      dup1\n      extcodesize\n      iszero\n      dup1\n      iszero\n      tag_251\n      jumpi\n      0x00\n      dup1\n      revert\n    tag_251:\n      pop\n      gas\n      staticcall\n      iszero\n      dup1\n      iszero\n      tag_253\n      jumpi\n      returndatasize\n      0x00\n      dup1\n      returndatacopy\n      revert(0x00, returndatasize)\n    tag_253:\n      pop\n      pop\n      pop\n      pop\n      mload(0x40)\n      returndatasize\n      not(0x1f)\n      0x1f\n      dup3\n      add\n      and\n      dup3\n      add\n      dup1\n      0x40\n      mstore\n      pop\n      dup2\n      add\n      swap1\n      tag_254\n      swap2\n      swap1\n      tag_119\n      jump\t// in\n    tag_254:\n        /* \"CharityDAO.sol\":6094:6121  instance.getMemberCount()/2 */\n      tag_255\n      swap2\n      swap1\n      tag_121\n      jump\t// in\n    tag_255:\n        /* \"CharityDAO.sol\":6053:6062  campaigns */\n      0x0d\n        /* \"CharityDAO.sol\":6053:6077  campaigns[campaignIndex] */\n      0x00\n        /* \"CharityDAO.sol\":6063:6076  campaignIndex */\n      dup5\n        /* \"CharityDAO.sol\":6053:6077  campaigns[campaignIndex] */\n      dup2\n      mstore\n      0x20\n      add\n      swap1\n      dup2\n      mstore\n      0x20\n      add\n      0x00\n      keccak256\n        /* \"CharityDAO.sol\":6053:6090  campaigns[campaignIndex].approveCount */\n      0x07\n      add\n      sload\n        /* \"CharityDAO.sol\":6053:6122  campaigns[campaignIndex].approveCount > (instance.getMemberCount()/2) */\n      gt\n        /* \"CharityDAO.sol\":6050:6193  if(campaigns[campaignIndex].approveCount > (instance.getMemberCount()/2)) {... */\n      iszero\n      tag_256\n      jumpi\n        /* \"CharityDAO.sol\":6177:6181  true */\n      0x01\n        /* \"CharityDAO.sol\":6139:6148  campaigns */\n      0x0d\n        /* \"CharityDAO.sol\":6139:6163  campaigns[campaignIndex] */\n      0x00\n        /* \"CharityDAO.sol\":6149:6162  campaignIndex */\n      dup5\n        /* \"CharityDAO.sol\":6139:6163  campaigns[campaignIndex] */\n      dup2\n      mstore\n      0x20\n      add\n      swap1\n      dup2\n      mstore\n      0x20\n      add\n      0x00\n      keccak256\n        /* \"CharityDAO.sol\":6139:6174  campaigns[campaignIndex].isApproved */\n      0x09\n      add\n      0x00\n        /* \"CharityDAO.sol\":6139:6181  campaigns[campaignIndex].isApproved = true */\n      0x0100\n      exp\n      dup2\n      sload\n      dup2\n      0xff\n      mul\n      not\n      and\n      swap1\n      dup4\n      iszero\n      iszero\n      mul\n      or\n      swap1\n      sstore\n      pop\n        /* \"CharityDAO.sol\":6050:6193  if(campaigns[campaignIndex].approveCount > (instance.getMemberCount()/2)) {... */\n    tag_256:\n        /* \"CharityDAO.sol\":5485:6200  {... */\n      pop\n        /* \"CharityDAO.sol\":5433:6200  function approveCampaign(uint campaignIndex) public {... */\n      pop\n      jump\t// out\n        /* \"CharityDAO.sol\":3511:3974  function approveUser() public {... */\n    tag_91:\n        /* \"CharityDAO.sol\":3552:3564  DAO instance */\n      0x00\n        /* \"CharityDAO.sol\":3571:3581  DAOAddress */\n      0x0b\n      0x00\n      swap1\n      sload\n      swap1\n      0x0100\n      exp\n      swap1\n      div\n      0xffffffffffffffffffffffffffffffffffffffff\n      and\n        /* \"CharityDAO.sol\":3552:3582  DAO instance = DAO(DAOAddress) */\n      swap1\n      pop\n        /* \"CharityDAO.sol\":3601:3609  instance */\n      dup1\n        /* \"CharityDAO.sol\":3601:3619  instance.isAMember */\n      0xffffffffffffffffffffffffffffffffffffffff\n      and\n      0x5d672a62\n        /* \"CharityDAO.sol\":3620:3630  msg.sender */\n      caller\n        /* \"CharityDAO.sol\":3601:3631  instance.isAMember(msg.sender) */\n      mload(0x40)\n      dup3\n      0xffffffff\n      and\n      0xe0\n      shl\n      dup2\n      mstore\n      0x04\n      add\n      tag_258\n      swap2\n      swap1\n      tag_86\n      jump\t// in\n    tag_258:\n      0x20\n      mload(0x40)\n      dup1\n      dup4\n      sub\n      dup2\n      dup7\n      dup1\n      extcodesize\n      iszero\n      dup1\n      iszero\n      tag_259\n      jumpi\n      0x00\n      dup1\n      revert\n    tag_259:\n      pop\n      gas\n      staticcall\n      iszero\n      dup1\n      iszero\n      tag_261\n      jumpi\n      returndatasize\n      0x00\n      dup1\n      returndatacopy\n      revert(0x00, returndatasize)\n    tag_261:\n      pop\n      pop\n      pop\n      pop\n      mload(0x40)\n      returndatasize\n      not(0x1f)\n      0x1f\n      dup3\n      add\n      and\n      dup3\n      add\n      dup1\n      0x40\n      mstore\n      pop\n      dup2\n      add\n      swap1\n      tag_262\n      swap2\n      swap1\n      tag_101\n      jump\t// in\n    tag_262:\n        /* \"CharityDAO.sol\":3593:3632  require(instance.isAMember(msg.sender)) */\n      tag_263\n      jumpi\n      0x00\n      dup1\n      revert\n    tag_263:\n        /* \"CharityDAO.sol\":3652:3667  approvedMembers */\n      0x09\n        /* \"CharityDAO.sol\":3652:3679  approvedMembers[msg.sender] */\n      0x00\n        /* \"CharityDAO.sol\":3668:3678  msg.sender */\n      caller\n        /* \"CharityDAO.sol\":3652:3679  approvedMembers[msg.sender] */\n      0xffffffffffffffffffffffffffffffffffffffff\n      and\n      0xffffffffffffffffffffffffffffffffffffffff\n      and\n      dup2\n      mstore\n      0x20\n      add\n      swap1\n      dup2\n      mstore\n      0x20\n      add\n      0x00\n      keccak256\n      0x00\n      swap1\n      sload\n      swap1\n      0x0100\n      exp\n      swap1\n      div\n      0xff\n      and\n        /* \"CharityDAO.sol\":3651:3679  !approvedMembers[msg.sender] */\n      iszero\n        /* \"CharityDAO.sol\":3643:3680  require(!approvedMembers[msg.sender]) */\n      tag_264\n      jumpi\n      0x00\n      dup1\n      revert\n    tag_264:\n        /* \"CharityDAO.sol\":3700:3715  rejectedMembers */\n      0x0a\n        /* \"CharityDAO.sol\":3700:3727  rejectedMembers[msg.sender] */\n      0x00\n        /* \"CharityDAO.sol\":3716:3726  msg.sender */\n      caller\n        /* \"CharityDAO.sol\":3700:3727  rejectedMembers[msg.sender] */\n      0xffffffffffffffffffffffffffffffffffffffff\n      and\n      0xffffffffffffffffffffffffffffffffffffffff\n      and\n      dup2\n      mstore\n      0x20\n      add\n      swap1\n      dup2\n      mstore\n      0x20\n      add\n      0x00\n      keccak256\n      0x00\n      swap1\n      sload\n      swap1\n      0x0100\n      exp\n      swap1\n      div\n      0xff\n      and\n        /* \"CharityDAO.sol\":3699:3727  !rejectedMembers[msg.sender] */\n      iszero\n        /* \"CharityDAO.sol\":3691:3728  require(!rejectedMembers[msg.sender]) */\n      tag_265\n      jumpi\n      0x00\n      dup1\n      revert\n    tag_265:\n        /* \"CharityDAO.sol\":3748:3758  isApproved */\n      0x08\n      0x00\n      swap1\n      sload\n      swap1\n      0x0100\n      exp\n      swap1\n      div\n      0xff\n      and\n        /* \"CharityDAO.sol\":3747:3758  !isApproved */\n      iszero\n        /* \"CharityDAO.sol\":3739:3759  require(!isApproved) */\n      tag_266\n      jumpi\n      0x00\n      dup1\n      revert\n    tag_266:\n        /* \"CharityDAO.sol\":3779:3789  isRejected */\n      0x08\n      0x01\n      swap1\n      sload\n      swap1\n      0x0100\n      exp\n      swap1\n      div\n      0xff\n      and\n        /* \"CharityDAO.sol\":3778:3789  !isRejected */\n      iszero\n        /* \"CharityDAO.sol\":3770:3790  require(!isRejected) */\n      tag_267\n      jumpi\n      0x00\n      dup1\n      revert\n    tag_267:\n        /* \"CharityDAO.sol\":3831:3835  true */\n      0x01\n        /* \"CharityDAO.sol\":3801:3816  approvedMembers */\n      0x09\n        /* \"CharityDAO.sol\":3801:3828  approvedMembers[msg.sender] */\n      0x00\n        /* \"CharityDAO.sol\":3817:3827  msg.sender */\n      caller\n        /* \"CharityDAO.sol\":3801:3828  approvedMembers[msg.sender] */\n      0xffffffffffffffffffffffffffffffffffffffff\n      and\n      0xffffffffffffffffffffffffffffffffffffffff\n      and\n      dup2\n      mstore\n      0x20\n      add\n      swap1\n      dup2\n      mstore\n      0x20\n      add\n      0x00\n      keccak256\n      0x00\n        /* \"CharityDAO.sol\":3801:3835  approvedMembers[msg.sender] = true */\n      0x0100\n      exp\n      dup2\n      sload\n      dup2\n      0xff\n      mul\n      not\n      and\n      swap1\n      dup4\n      iszero\n      iszero\n      mul\n      or\n      swap1\n      sstore\n      pop\n        /* \"CharityDAO.sol\":3846:3858  approveCount */\n      0x06\n      0x00\n        /* \"CharityDAO.sol\":3846:3860  approveCount++ */\n      dup2\n      sload\n      dup1\n      swap3\n      swap2\n      swap1\n      tag_268\n      swap1\n      tag_114\n      jump\t// in\n    tag_268:\n      swap2\n      swap1\n      pop\n      sstore\n      pop\n        /* \"CharityDAO.sol\":3920:3921  2 */\n      0x02\n        /* \"CharityDAO.sol\":3892:3900  instance */\n      dup2\n        /* \"CharityDAO.sol\":3892:3915  instance.getMemberCount */\n      0xffffffffffffffffffffffffffffffffffffffff\n      and\n      0x997072f7\n        /* \"CharityDAO.sol\":3892:3917  instance.getMemberCount() */\n      mload(0x40)\n      dup2\n      0xffffffff\n      and\n      0xe0\n      shl\n      dup2\n      mstore\n      0x04\n      add\n      0x20\n      mload(0x40)\n      dup1\n      dup4\n      sub\n      dup2\n      dup7\n      dup1\n      extcodesize\n      iszero\n      dup1\n      iszero\n      tag_269\n      jumpi\n      0x00\n      dup1\n      revert\n    tag_269:\n      pop\n      gas\n      staticcall\n      iszero\n      dup1\n      iszero\n      tag_271\n      jumpi\n      returndatasize\n      0x00\n      dup1\n      returndatacopy\n      revert(0x00, returndatasize)\n    tag_271:\n      pop\n      pop\n      pop\n      pop\n      mload(0x40)\n      returndatasize\n      not(0x1f)\n      0x1f\n      dup3\n      add\n      and\n      dup3\n      add\n      dup1\n      0x40\n      mstore\n      pop\n      dup2\n      add\n      swap1\n      tag_272\n      swap2\n      swap1\n      tag_119\n      jump\t// in\n    tag_272:\n        /* \"CharityDAO.sol\":3892:3921  instance.getMemberCount() / 2 */\n      tag_273\n      swap2\n      swap1\n      tag_121\n      jump\t// in\n    tag_273:\n        /* \"CharityDAO.sol\":3876:3888  approveCount */\n      sload(0x06)\n        /* \"CharityDAO.sol\":3876:3922  approveCount > (instance.getMemberCount() / 2) */\n      gt\n        /* \"CharityDAO.sol\":3873:3967  if(approveCount > (instance.getMemberCount() / 2)){... */\n      iszero\n      tag_274\n      jumpi\n        /* \"CharityDAO.sol\":3951:3955  true */\n      0x01\n        /* \"CharityDAO.sol\":3938:3948  isApproved */\n      0x08\n      0x00\n        /* \"CharityDAO.sol\":3938:3955  isApproved = true */\n      0x0100\n      exp\n      dup2\n      sload\n      dup2\n      0xff\n      mul\n      not\n      and\n      swap1\n      dup4\n      iszero\n      iszero\n      mul\n      or\n      swap1\n      sstore\n      pop\n        /* \"CharityDAO.sol\":3873:3967  if(approveCount > (instance.getMemberCount() / 2)){... */\n    tag_274:\n        /* \"CharityDAO.sol\":3541:3974  {... */\n      pop\n        /* \"CharityDAO.sol\":3511:3974  function approveUser() public {... */\n      jump\t// out\n        /* \"CharityDAO.sol\":2151:2174  uint public rejectCount */\n    tag_93:\n      sload(0x07)\n      dup2\n      jump\t// out\n    tag_213:\n      dup3\n      dup1\n      sload\n      tag_275\n      swap1\n      tag_124\n      jump\t// in\n    tag_275:\n      swap1\n      0x00\n      mstore\n      keccak256(0x00, 0x20)\n      swap1\n      0x1f\n      add\n      0x20\n      swap1\n      div\n      dup2\n      add\n      swap3\n      dup3\n      tag_277\n      jumpi\n      0x00\n      dup6\n      sstore\n      jump(tag_276)\n    tag_277:\n      dup3\n      0x1f\n      lt\n      tag_278\n      jumpi\n      dup1\n      mload\n      not(0xff)\n      and\n      dup4\n      dup1\n      add\n      or\n      dup6\n      sstore\n      jump(tag_276)\n    tag_278:\n      dup3\n      dup1\n      add\n      0x01\n      add\n      dup6\n      sstore\n      dup3\n      iszero\n      tag_276\n      jumpi\n      swap2\n      dup3\n      add\n    tag_279:\n      dup3\n      dup2\n      gt\n      iszero\n      tag_280\n      jumpi\n      dup3\n      mload\n      dup3\n      sstore\n      swap2\n      0x20\n      add\n      swap2\n      swap1\n      0x01\n      add\n      swap1\n      jump(tag_279)\n    tag_280:\n    tag_276:\n      pop\n      swap1\n      pop\n      tag_281\n      swap2\n      swap1\n      tag_282\n      jump\t// in\n    tag_281:\n      pop\n      swap1\n      jump\t// out\n    tag_282:\n    tag_283:\n      dup1\n      dup3\n      gt\n      iszero\n      tag_284\n      jumpi\n      0x00\n      dup2\n      0x00\n      swap1\n      sstore\n      pop\n      0x01\n      add\n      jump(tag_283)\n    tag_284:\n      pop\n      swap1\n      jump\t// out\n        /* \"#utility.yul\":7:82   */\n    tag_285:\n        /* \"#utility.yul\":40:46   */\n      0x00\n        /* \"#utility.yul\":73:75   */\n      0x40\n        /* \"#utility.yul\":67:76   */\n      mload\n        /* \"#utility.yul\":57:76   */\n      swap1\n      pop\n        /* \"#utility.yul\":7:82   */\n      swap1\n      jump\t// out\n        /* \"#utility.yul\":88:205   */\n    tag_286:\n        /* \"#utility.yul\":197:198   */\n      0x00\n        /* \"#utility.yul\":194:195   */\n      dup1\n        /* \"#utility.yul\":187:199   */\n      revert\n        /* \"#utility.yul\":211:328   */\n    tag_287:\n        /* \"#utility.yul\":320:321   */\n      0x00\n        /* \"#utility.yul\":317:318   */\n      dup1\n        /* \"#utility.yul\":310:322   */\n      revert\n        /* \"#utility.yul\":334:411   */\n    tag_288:\n        /* \"#utility.yul\":371:378   */\n      0x00\n        /* \"#utility.yul\":400:405   */\n      dup2\n        /* \"#utility.yul\":389:405   */\n      swap1\n      pop\n        /* \"#utility.yul\":334:411   */\n      swap2\n      swap1\n      pop\n      jump\t// out\n        /* \"#utility.yul\":417:539   */\n    tag_289:\n        /* \"#utility.yul\":490:514   */\n      tag_329\n        /* \"#utility.yul\":508:513   */\n      dup2\n        /* \"#utility.yul\":490:514   */\n      tag_288\n      jump\t// in\n    tag_329:\n        /* \"#utility.yul\":483:488   */\n      dup2\n        /* \"#utility.yul\":480:515   */\n      eq\n        /* \"#utility.yul\":470:533   */\n      tag_330\n      jumpi\n        /* \"#utility.yul\":529:530   */\n      0x00\n        /* \"#utility.yul\":526:527   */\n      dup1\n        /* \"#utility.yul\":519:531   */\n      revert\n        /* \"#utility.yul\":470:533   */\n    tag_330:\n        /* \"#utility.yul\":417:539   */\n      pop\n      jump\t// out\n        /* \"#utility.yul\":545:684   */\n    tag_290:\n        /* \"#utility.yul\":591:596   */\n      0x00\n        /* \"#utility.yul\":629:635   */\n      dup2\n        /* \"#utility.yul\":616:636   */\n      calldataload\n        /* \"#utility.yul\":607:636   */\n      swap1\n      pop\n        /* \"#utility.yul\":645:678   */\n      tag_332\n        /* \"#utility.yul\":672:677   */\n      dup2\n        /* \"#utility.yul\":645:678   */\n      tag_289\n      jump\t// in\n    tag_332:\n        /* \"#utility.yul\":545:684   */\n      swap3\n      swap2\n      pop\n      pop\n      jump\t// out\n        /* \"#utility.yul\":690:1019   */\n    tag_28:\n        /* \"#utility.yul\":749:755   */\n      0x00\n        /* \"#utility.yul\":798:800   */\n      0x20\n        /* \"#utility.yul\":786:795   */\n      dup3\n        /* \"#utility.yul\":777:784   */\n      dup5\n        /* \"#utility.yul\":773:796   */\n      sub\n        /* \"#utility.yul\":769:801   */\n      slt\n        /* \"#utility.yul\":766:885   */\n      iszero\n      tag_334\n      jumpi\n        /* \"#utility.yul\":804:883   */\n      tag_335\n      tag_286\n      jump\t// in\n    tag_335:\n        /* \"#utility.yul\":766:885   */\n    tag_334:\n        /* \"#utility.yul\":924:925   */\n      0x00\n        /* \"#utility.yul\":949:1002   */\n      tag_336\n        /* \"#utility.yul\":994:1001   */\n      dup5\n        /* \"#utility.yul\":985:991   */\n      dup3\n        /* \"#utility.yul\":974:983   */\n      dup6\n        /* \"#utility.yul\":970:992   */\n      add\n        /* \"#utility.yul\":949:1002   */\n      tag_290\n      jump\t// in\n    tag_336:\n        /* \"#utility.yul\":939:1002   */\n      swap2\n      pop\n        /* \"#utility.yul\":895:1012   */\n      pop\n        /* \"#utility.yul\":690:1019   */\n      swap3\n      swap2\n      pop\n      pop\n      jump\t// out\n        /* \"#utility.yul\":1025:1124   */\n    tag_291:\n        /* \"#utility.yul\":1077:1083   */\n      0x00\n        /* \"#utility.yul\":1111:1116   */\n      dup2\n        /* \"#utility.yul\":1105:1117   */\n      mload\n        /* \"#utility.yul\":1095:1117   */\n      swap1\n      pop\n        /* \"#utility.yul\":1025:1124   */\n      swap2\n      swap1\n      pop\n      jump\t// out\n        /* \"#utility.yul\":1130:1299   */\n    tag_292:\n        /* \"#utility.yul\":1214:1225   */\n      0x00\n        /* \"#utility.yul\":1248:1254   */\n      dup3\n        /* \"#utility.yul\":1243:1246   */\n      dup3\n        /* \"#utility.yul\":1236:1255   */\n      mstore\n        /* \"#utility.yul\":1288:1292   */\n      0x20\n        /* \"#utility.yul\":1283:1286   */\n      dup3\n        /* \"#utility.yul\":1279:1293   */\n      add\n        /* \"#utility.yul\":1264:1293   */\n      swap1\n      pop\n        /* \"#utility.yul\":1130:1299   */\n      swap3\n      swap2\n      pop\n      pop\n      jump\t// out\n        /* \"#utility.yul\":1305:1612   */\n    tag_293:\n        /* \"#utility.yul\":1373:1374   */\n      0x00\n        /* \"#utility.yul\":1383:1496   */\n    tag_340:\n        /* \"#utility.yul\":1397:1403   */\n      dup4\n        /* \"#utility.yul\":1394:1395   */\n      dup2\n        /* \"#utility.yul\":1391:1404   */\n      lt\n        /* \"#utility.yul\":1383:1496   */\n      iszero\n      tag_342\n      jumpi\n        /* \"#utility.yul\":1482:1483   */\n      dup1\n        /* \"#utility.yul\":1477:1480   */\n      dup3\n        /* \"#utility.yul\":1473:1484   */\n      add\n        /* \"#utility.yul\":1467:1485   */\n      mload\n        /* \"#utility.yul\":1463:1464   */\n      dup2\n        /* \"#utility.yul\":1458:1461   */\n      dup5\n        /* \"#utility.yul\":1454:1465   */\n      add\n        /* \"#utility.yul\":1447:1486   */\n      mstore\n        /* \"#utility.yul\":1419:1421   */\n      0x20\n        /* \"#utility.yul\":1416:1417   */\n      dup2\n        /* \"#utility.yul\":1412:1422   */\n      add\n        /* \"#utility.yul\":1407:1422   */\n      swap1\n      pop\n        /* \"#utility.yul\":1383:1496   */\n      jump(tag_340)\n    tag_342:\n        /* \"#utility.yul\":1514:1520   */\n      dup4\n        /* \"#utility.yul\":1511:1512   */\n      dup2\n        /* \"#utility.yul\":1508:1521   */\n      gt\n        /* \"#utility.yul\":1505:1606   */\n      iszero\n      tag_343\n      jumpi\n        /* \"#utility.yul\":1594:1595   */\n      0x00\n        /* \"#utility.yul\":1585:1591   */\n      dup5\n        /* \"#utility.yul\":1580:1583   */\n      dup5\n        /* \"#utility.yul\":1576:1592   */\n      add\n        /* \"#utility.yul\":1569:1596   */\n      mstore\n        /* \"#utility.yul\":1505:1606   */\n    tag_343:\n        /* \"#utility.yul\":1354:1612   */\n      pop\n        /* \"#utility.yul\":1305:1612   */\n      pop\n      pop\n      pop\n      jump\t// out\n        /* \"#utility.yul\":1618:1720   */\n    tag_294:\n        /* \"#utility.yul\":1659:1665   */\n      0x00\n        /* \"#utility.yul\":1710:1712   */\n      0x1f\n        /* \"#utility.yul\":1706:1713   */\n      not\n        /* \"#utility.yul\":1701:1703   */\n      0x1f\n        /* \"#utility.yul\":1694:1699   */\n      dup4\n        /* \"#utility.yul\":1690:1704   */\n      add\n        /* \"#utility.yul\":1686:1714   */\n      and\n        /* \"#utility.yul\":1676:1714   */\n      swap1\n      pop\n        /* \"#utility.yul\":1618:1720   */\n      swap2\n      swap1\n      pop\n      jump\t// out\n        /* \"#utility.yul\":1726:2090   */\n    tag_295:\n        /* \"#utility.yul\":1814:1817   */\n      0x00\n        /* \"#utility.yul\":1842:1881   */\n      tag_346\n        /* \"#utility.yul\":1875:1880   */\n      dup3\n        /* \"#utility.yul\":1842:1881   */\n      tag_291\n      jump\t// in\n    tag_346:\n        /* \"#utility.yul\":1897:1968   */\n      tag_347\n        /* \"#utility.yul\":1961:1967   */\n      dup2\n        /* \"#utility.yul\":1956:1959   */\n      dup6\n        /* \"#utility.yul\":1897:1968   */\n      tag_292\n      jump\t// in\n    tag_347:\n        /* \"#utility.yul\":1890:1968   */\n      swap4\n      pop\n        /* \"#utility.yul\":1977:2029   */\n      tag_348\n        /* \"#utility.yul\":2022:2028   */\n      dup2\n        /* \"#utility.yul\":2017:2020   */\n      dup6\n        /* \"#utility.yul\":2010:2014   */\n      0x20\n        /* \"#utility.yul\":2003:2008   */\n      dup7\n        /* \"#utility.yul\":1999:2015   */\n      add\n        /* \"#utility.yul\":1977:2029   */\n      tag_293\n      jump\t// in\n    tag_348:\n        /* \"#utility.yul\":2054:2083   */\n      tag_349\n        /* \"#utility.yul\":2076:2082   */\n      dup2\n        /* \"#utility.yul\":2054:2083   */\n      tag_294\n      jump\t// in\n    tag_349:\n        /* \"#utility.yul\":2049:2052   */\n      dup5\n        /* \"#utility.yul\":2045:2084   */\n      add\n        /* \"#utility.yul\":2038:2084   */\n      swap2\n      pop\n        /* \"#utility.yul\":1818:2090   */\n      pop\n        /* \"#utility.yul\":1726:2090   */\n      swap3\n      swap2\n      pop\n      pop\n      jump\t// out\n        /* \"#utility.yul\":2096:2409   */\n    tag_33:\n        /* \"#utility.yul\":2209:2213   */\n      0x00\n        /* \"#utility.yul\":2247:2249   */\n      0x20\n        /* \"#utility.yul\":2236:2245   */\n      dup3\n        /* \"#utility.yul\":2232:2250   */\n      add\n        /* \"#utility.yul\":2224:2250   */\n      swap1\n      pop\n        /* \"#utility.yul\":2296:2305   */\n      dup2\n        /* \"#utility.yul\":2290:2294   */\n      dup2\n        /* \"#utility.yul\":2286:2306   */\n      sub\n        /* \"#utility.yul\":2282:2283   */\n      0x00\n        /* \"#utility.yul\":2271:2280   */\n      dup4\n        /* \"#utility.yul\":2267:2284   */\n      add\n        /* \"#utility.yul\":2260:2307   */\n      mstore\n        /* \"#utility.yul\":2324:2402   */\n      tag_351\n        /* \"#utility.yul\":2397:2401   */\n      dup2\n        /* \"#utility.yul\":2388:2394   */\n      dup5\n        /* \"#utility.yul\":2324:2402   */\n      tag_295\n      jump\t// in\n    tag_351:\n        /* \"#utility.yul\":2316:2402   */\n      swap1\n      pop\n        /* \"#utility.yul\":2096:2409   */\n      swap3\n      swap2\n      pop\n      pop\n      jump\t// out\n        /* \"#utility.yul\":2415:2541   */\n    tag_296:\n        /* \"#utility.yul\":2452:2459   */\n      0x00\n        /* \"#utility.yul\":2492:2534   */\n      0xffffffffffffffffffffffffffffffffffffffff\n        /* \"#utility.yul\":2485:2490   */\n      dup3\n        /* \"#utility.yul\":2481:2535   */\n      and\n        /* \"#utility.yul\":2470:2535   */\n      swap1\n      pop\n        /* \"#utility.yul\":2415:2541   */\n      swap2\n      swap1\n      pop\n      jump\t// out\n        /* \"#utility.yul\":2547:2651   */\n    tag_297:\n        /* \"#utility.yul\":2592:2599   */\n      0x00\n        /* \"#utility.yul\":2621:2645   */\n      tag_354\n        /* \"#utility.yul\":2639:2644   */\n      dup3\n        /* \"#utility.yul\":2621:2645   */\n      tag_296\n      jump\t// in\n    tag_354:\n        /* \"#utility.yul\":2610:2645   */\n      swap1\n      pop\n        /* \"#utility.yul\":2547:2651   */\n      swap2\n      swap1\n      pop\n      jump\t// out\n        /* \"#utility.yul\":2657:2799   */\n    tag_298:\n        /* \"#utility.yul\":2760:2792   */\n      tag_356\n        /* \"#utility.yul\":2786:2791   */\n      dup2\n        /* \"#utility.yul\":2760:2792   */\n      tag_297\n      jump\t// in\n    tag_356:\n        /* \"#utility.yul\":2755:2758   */\n      dup3\n        /* \"#utility.yul\":2748:2793   */\n      mstore\n        /* \"#utility.yul\":2657:2799   */\n      pop\n      pop\n      jump\t// out\n        /* \"#utility.yul\":2805:2895   */\n    tag_299:\n        /* \"#utility.yul\":2839:2846   */\n      0x00\n        /* \"#utility.yul\":2882:2887   */\n      dup2\n        /* \"#utility.yul\":2875:2888   */\n      iszero\n        /* \"#utility.yul\":2868:2889   */\n      iszero\n        /* \"#utility.yul\":2857:2889   */\n      swap1\n      pop\n        /* \"#utility.yul\":2805:2895   */\n      swap2\n      swap1\n      pop\n      jump\t// out\n        /* \"#utility.yul\":2901:3010   */\n    tag_300:\n        /* \"#utility.yul\":2982:3003   */\n      tag_359\n        /* \"#utility.yul\":2997:3002   */\n      dup2\n        /* \"#utility.yul\":2982:3003   */\n      tag_299\n      jump\t// in\n    tag_359:\n        /* \"#utility.yul\":2977:2980   */\n      dup3\n        /* \"#utility.yul\":2970:3004   */\n      mstore\n        /* \"#utility.yul\":2901:3010   */\n      pop\n      pop\n      jump\t// out\n        /* \"#utility.yul\":3016:3134   */\n    tag_301:\n        /* \"#utility.yul\":3103:3127   */\n      tag_361\n        /* \"#utility.yul\":3121:3126   */\n      dup2\n        /* \"#utility.yul\":3103:3127   */\n      tag_288\n      jump\t// in\n    tag_361:\n        /* \"#utility.yul\":3098:3101   */\n      dup3\n        /* \"#utility.yul\":3091:3128   */\n      mstore\n        /* \"#utility.yul\":3016:3134   */\n      pop\n      pop\n      jump\t// out\n        /* \"#utility.yul\":3140:5036   */\n    tag_38:\n        /* \"#utility.yul\":3641:3645   */\n      0x00\n        /* \"#utility.yul\":3679:3682   */\n      0x0180\n        /* \"#utility.yul\":3668:3677   */\n      dup3\n        /* \"#utility.yul\":3664:3683   */\n      add\n        /* \"#utility.yul\":3656:3683   */\n      swap1\n      pop\n        /* \"#utility.yul\":3729:3738   */\n      dup2\n        /* \"#utility.yul\":3723:3727   */\n      dup2\n        /* \"#utility.yul\":3719:3739   */\n      sub\n        /* \"#utility.yul\":3715:3716   */\n      0x00\n        /* \"#utility.yul\":3704:3713   */\n      dup4\n        /* \"#utility.yul\":3700:3717   */\n      add\n        /* \"#utility.yul\":3693:3740   */\n      mstore\n        /* \"#utility.yul\":3757:3835   */\n      tag_363\n        /* \"#utility.yul\":3830:3834   */\n      dup2\n        /* \"#utility.yul\":3821:3827   */\n      dup16\n        /* \"#utility.yul\":3757:3835   */\n      tag_295\n      jump\t// in\n    tag_363:\n        /* \"#utility.yul\":3749:3835   */\n      swap1\n      pop\n        /* \"#utility.yul\":3882:3891   */\n      dup2\n        /* \"#utility.yul\":3876:3880   */\n      dup2\n        /* \"#utility.yul\":3872:3892   */\n      sub\n        /* \"#utility.yul\":3867:3869   */\n      0x20\n        /* \"#utility.yul\":3856:3865   */\n      dup4\n        /* \"#utility.yul\":3852:3870   */\n      add\n        /* \"#utility.yul\":3845:3893   */\n      mstore\n        /* \"#utility.yul\":3910:3988   */\n      tag_364\n        /* \"#utility.yul\":3983:3987   */\n      dup2\n        /* \"#utility.yul\":3974:3980   */\n      dup15\n        /* \"#utility.yul\":3910:3988   */\n      tag_295\n      jump\t// in\n    tag_364:\n        /* \"#utility.yul\":3902:3988   */\n      swap1\n      pop\n        /* \"#utility.yul\":4035:4044   */\n      dup2\n        /* \"#utility.yul\":4029:4033   */\n      dup2\n        /* \"#utility.yul\":4025:4045   */\n      sub\n        /* \"#utility.yul\":4020:4022   */\n      0x40\n        /* \"#utility.yul\":4009:4018   */\n      dup4\n        /* \"#utility.yul\":4005:4023   */\n      add\n        /* \"#utility.yul\":3998:4046   */\n      mstore\n        /* \"#utility.yul\":4063:4141   */\n      tag_365\n        /* \"#utility.yul\":4136:4140   */\n      dup2\n        /* \"#utility.yul\":4127:4133   */\n      dup14\n        /* \"#utility.yul\":4063:4141   */\n      tag_295\n      jump\t// in\n    tag_365:\n        /* \"#utility.yul\":4055:4141   */\n      swap1\n      pop\n        /* \"#utility.yul\":4188:4197   */\n      dup2\n        /* \"#utility.yul\":4182:4186   */\n      dup2\n        /* \"#utility.yul\":4178:4198   */\n      sub\n        /* \"#utility.yul\":4173:4175   */\n      0x60\n        /* \"#utility.yul\":4162:4171   */\n      dup4\n        /* \"#utility.yul\":4158:4176   */\n      add\n        /* \"#utility.yul\":4151:4199   */\n      mstore\n        /* \"#utility.yul\":4216:4294   */\n      tag_366\n        /* \"#utility.yul\":4289:4293   */\n      dup2\n        /* \"#utility.yul\":4280:4286   */\n      dup13\n        /* \"#utility.yul\":4216:4294   */\n      tag_295\n      jump\t// in\n    tag_366:\n        /* \"#utility.yul\":4208:4294   */\n      swap1\n      pop\n        /* \"#utility.yul\":4342:4351   */\n      dup2\n        /* \"#utility.yul\":4336:4340   */\n      dup2\n        /* \"#utility.yul\":4332:4352   */\n      sub\n        /* \"#utility.yul\":4326:4329   */\n      0x80\n        /* \"#utility.yul\":4315:4324   */\n      dup4\n        /* \"#utility.yul\":4311:4330   */\n      add\n        /* \"#utility.yul\":4304:4353   */\n      mstore\n        /* \"#utility.yul\":4370:4448   */\n      tag_367\n        /* \"#utility.yul\":4443:4447   */\n      dup2\n        /* \"#utility.yul\":4434:4440   */\n      dup12\n        /* \"#utility.yul\":4370:4448   */\n      tag_295\n      jump\t// in\n    tag_367:\n        /* \"#utility.yul\":4362:4448   */\n      swap1\n      pop\n        /* \"#utility.yul\":4458:4547   */\n      tag_368\n        /* \"#utility.yul\":4542:4545   */\n      0xa0\n        /* \"#utility.yul\":4531:4540   */\n      dup4\n        /* \"#utility.yul\":4527:4546   */\n      add\n        /* \"#utility.yul\":4518:4524   */\n      dup11\n        /* \"#utility.yul\":4458:4547   */\n      tag_298\n      jump\t// in\n    tag_368:\n        /* \"#utility.yul\":4557:4624   */\n      tag_369\n        /* \"#utility.yul\":4619:4622   */\n      0xc0\n        /* \"#utility.yul\":4608:4617   */\n      dup4\n        /* \"#utility.yul\":4604:4623   */\n      add\n        /* \"#utility.yul\":4595:4601   */\n      dup10\n        /* \"#utility.yul\":4557:4624   */\n      tag_300\n      jump\t// in\n    tag_369:\n        /* \"#utility.yul\":4634:4707   */\n      tag_370\n        /* \"#utility.yul\":4702:4705   */\n      0xe0\n        /* \"#utility.yul\":4691:4700   */\n      dup4\n        /* \"#utility.yul\":4687:4706   */\n      add\n        /* \"#utility.yul\":4678:4684   */\n      dup9\n        /* \"#utility.yul\":4634:4707   */\n      tag_301\n      jump\t// in\n    tag_370:\n        /* \"#utility.yul\":4717:4790   */\n      tag_371\n        /* \"#utility.yul\":4785:4788   */\n      0x0100\n        /* \"#utility.yul\":4774:4783   */\n      dup4\n        /* \"#utility.yul\":4770:4789   */\n      add\n        /* \"#utility.yul\":4761:4767   */\n      dup8\n        /* \"#utility.yul\":4717:4790   */\n      tag_301\n      jump\t// in\n    tag_371:\n        /* \"#utility.yul\":4800:4873   */\n      tag_372\n        /* \"#utility.yul\":4868:4871   */\n      0x0120\n        /* \"#utility.yul\":4857:4866   */\n      dup4\n        /* \"#utility.yul\":4853:4872   */\n      add\n        /* \"#utility.yul\":4844:4850   */\n      dup7\n        /* \"#utility.yul\":4800:4873   */\n      tag_301\n      jump\t// in\n    tag_372:\n        /* \"#utility.yul\":4883:4951   */\n      tag_373\n        /* \"#utility.yul\":4946:4949   */\n      0x0140\n        /* \"#utility.yul\":4935:4944   */\n      dup4\n        /* \"#utility.yul\":4931:4950   */\n      add\n        /* \"#utility.yul\":4921:4928   */\n      dup6\n        /* \"#utility.yul\":4883:4951   */\n      tag_300\n      jump\t// in\n    tag_373:\n        /* \"#utility.yul\":4961:5029   */\n      tag_374\n        /* \"#utility.yul\":5024:5027   */\n      0x0160\n        /* \"#utility.yul\":5013:5022   */\n      dup4\n        /* \"#utility.yul\":5009:5028   */\n      add\n        /* \"#utility.yul\":4999:5006   */\n      dup5\n        /* \"#utility.yul\":4961:5029   */\n      tag_300\n      jump\t// in\n    tag_374:\n        /* \"#utility.yul\":3140:5036   */\n      swap14\n      swap13\n      pop\n      pop\n      pop\n      pop\n      pop\n      pop\n      pop\n      pop\n      pop\n      pop\n      pop\n      pop\n      pop\n      jump\t// out\n        /* \"#utility.yul\":5042:5252   */\n    tag_47:\n        /* \"#utility.yul\":5129:5133   */\n      0x00\n        /* \"#utility.yul\":5167:5169   */\n      0x20\n        /* \"#utility.yul\":5156:5165   */\n      dup3\n        /* \"#utility.yul\":5152:5170   */\n      add\n        /* \"#utility.yul\":5144:5170   */\n      swap1\n      pop\n        /* \"#utility.yul\":5180:5245   */\n      tag_376\n        /* \"#utility.yul\":5242:5243   */\n      0x00\n        /* \"#utility.yul\":5231:5240   */\n      dup4\n        /* \"#utility.yul\":5227:5244   */\n      add\n        /* \"#utility.yul\":5218:5224   */\n      dup5\n        /* \"#utility.yul\":5180:5245   */\n      tag_300\n      jump\t// in\n    tag_376:\n        /* \"#utility.yul\":5042:5252   */\n      swap3\n      swap2\n      pop\n      pop\n      jump\t// out\n        /* \"#utility.yul\":5258:5375   */\n    tag_302:\n        /* \"#utility.yul\":5367:5368   */\n      0x00\n        /* \"#utility.yul\":5364:5365   */\n      dup1\n        /* \"#utility.yul\":5357:5369   */\n      revert\n        /* \"#utility.yul\":5381:5498   */\n    tag_303:\n        /* \"#utility.yul\":5490:5491   */\n      0x00\n        /* \"#utility.yul\":5487:5488   */\n      dup1\n        /* \"#utility.yul\":5480:5492   */\n      revert\n        /* \"#utility.yul\":5504:5684   */\n    tag_304:\n        /* \"#utility.yul\":5552:5629   */\n      0x4e487b7100000000000000000000000000000000000000000000000000000000\n        /* \"#utility.yul\":5549:5550   */\n      0x00\n        /* \"#utility.yul\":5542:5630   */\n      mstore\n        /* \"#utility.yul\":5649:5653   */\n      0x41\n        /* \"#utility.yul\":5646:5647   */\n      0x04\n        /* \"#utility.yul\":5639:5654   */\n      mstore\n        /* \"#utility.yul\":5673:5677   */\n      0x24\n        /* \"#utility.yul\":5670:5671   */\n      0x00\n        /* \"#utility.yul\":5663:5678   */\n      revert\n        /* \"#utility.yul\":5690:5971   */\n    tag_305:\n        /* \"#utility.yul\":5773:5800   */\n      tag_381\n        /* \"#utility.yul\":5795:5799   */\n      dup3\n        /* \"#utility.yul\":5773:5800   */\n      tag_294\n      jump\t// in\n    tag_381:\n        /* \"#utility.yul\":5765:5771   */\n      dup2\n        /* \"#utility.yul\":5761:5801   */\n      add\n        /* \"#utility.yul\":5903:5909   */\n      dup2\n        /* \"#utility.yul\":5891:5901   */\n      dup2\n        /* \"#utility.yul\":5888:5910   */\n      lt\n        /* \"#utility.yul\":5867:5885   */\n      0xffffffffffffffff\n        /* \"#utility.yul\":5855:5865   */\n      dup3\n        /* \"#utility.yul\":5852:5886   */\n      gt\n        /* \"#utility.yul\":5849:5911   */\n      or\n        /* \"#utility.yul\":5846:5934   */\n      iszero\n      tag_382\n      jumpi\n        /* \"#utility.yul\":5914:5932   */\n      tag_383\n      tag_304\n      jump\t// in\n    tag_383:\n        /* \"#utility.yul\":5846:5934   */\n    tag_382:\n        /* \"#utility.yul\":5954:5964   */\n      dup1\n        /* \"#utility.yul\":5950:5952   */\n      0x40\n        /* \"#utility.yul\":5943:5965   */\n      mstore\n        /* \"#utility.yul\":5733:5971   */\n      pop\n        /* \"#utility.yul\":5690:5971   */\n      pop\n      pop\n      jump\t// out\n        /* \"#utility.yul\":5977:6106   */\n    tag_306:\n        /* \"#utility.yul\":6011:6017   */\n      0x00\n        /* \"#utility.yul\":6038:6058   */\n      tag_385\n      tag_285\n      jump\t// in\n    tag_385:\n        /* \"#utility.yul\":6028:6058   */\n      swap1\n      pop\n        /* \"#utility.yul\":6067:6100   */\n      tag_386\n        /* \"#utility.yul\":6095:6099   */\n      dup3\n        /* \"#utility.yul\":6087:6093   */\n      dup3\n        /* \"#utility.yul\":6067:6100   */\n      tag_305\n      jump\t// in\n    tag_386:\n        /* \"#utility.yul\":5977:6106   */\n      swap2\n      swap1\n      pop\n      jump\t// out\n        /* \"#utility.yul\":6112:6420   */\n    tag_307:\n        /* \"#utility.yul\":6174:6178   */\n      0x00\n        /* \"#utility.yul\":6264:6282   */\n      0xffffffffffffffff\n        /* \"#utility.yul\":6256:6262   */\n      dup3\n        /* \"#utility.yul\":6253:6283   */\n      gt\n        /* \"#utility.yul\":6250:6306   */\n      iszero\n      tag_388\n      jumpi\n        /* \"#utility.yul\":6286:6304   */\n      tag_389\n      tag_304\n      jump\t// in\n    tag_389:\n        /* \"#utility.yul\":6250:6306   */\n    tag_388:\n        /* \"#utility.yul\":6324:6353   */\n      tag_390\n        /* \"#utility.yul\":6346:6352   */\n      dup3\n        /* \"#utility.yul\":6324:6353   */\n      tag_294\n      jump\t// in\n    tag_390:\n        /* \"#utility.yul\":6316:6353   */\n      swap1\n      pop\n        /* \"#utility.yul\":6408:6412   */\n      0x20\n        /* \"#utility.yul\":6402:6406   */\n      dup2\n        /* \"#utility.yul\":6398:6413   */\n      add\n        /* \"#utility.yul\":6390:6413   */\n      swap1\n      pop\n        /* \"#utility.yul\":6112:6420   */\n      swap2\n      swap1\n      pop\n      jump\t// out\n        /* \"#utility.yul\":6426:6580   */\n    tag_308:\n        /* \"#utility.yul\":6510:6516   */\n      dup3\n        /* \"#utility.yul\":6505:6508   */\n      dup2\n        /* \"#utility.yul\":6500:6503   */\n      dup4\n        /* \"#utility.yul\":6487:6517   */\n      calldatacopy\n        /* \"#utility.yul\":6572:6573   */\n      0x00\n        /* \"#utility.yul\":6563:6569   */\n      dup4\n        /* \"#utility.yul\":6558:6561   */\n      dup4\n        /* \"#utility.yul\":6554:6570   */\n      add\n        /* \"#utility.yul\":6547:6574   */\n      mstore\n        /* \"#utility.yul\":6426:6580   */\n      pop\n      pop\n      pop\n      jump\t// out\n        /* \"#utility.yul\":6586:6998   */\n    tag_309:\n        /* \"#utility.yul\":6664:6669   */\n      0x00\n        /* \"#utility.yul\":6689:6755   */\n      tag_393\n        /* \"#utility.yul\":6705:6754   */\n      tag_394\n        /* \"#utility.yul\":6747:6753   */\n      dup5\n        /* \"#utility.yul\":6705:6754   */\n      tag_307\n      jump\t// in\n    tag_394:\n        /* \"#utility.yul\":6689:6755   */\n      tag_306\n      jump\t// in\n    tag_393:\n        /* \"#utility.yul\":6680:6755   */\n      swap1\n      pop\n        /* \"#utility.yul\":6778:6784   */\n      dup3\n        /* \"#utility.yul\":6771:6776   */\n      dup2\n        /* \"#utility.yul\":6764:6785   */\n      mstore\n        /* \"#utility.yul\":6816:6820   */\n      0x20\n        /* \"#utility.yul\":6809:6814   */\n      dup2\n        /* \"#utility.yul\":6805:6821   */\n      add\n        /* \"#utility.yul\":6854:6857   */\n      dup5\n        /* \"#utility.yul\":6845:6851   */\n      dup5\n        /* \"#utility.yul\":6840:6843   */\n      dup5\n        /* \"#utility.yul\":6836:6852   */\n      add\n        /* \"#utility.yul\":6833:6858   */\n      gt\n        /* \"#utility.yul\":6830:6942   */\n      iszero\n      tag_395\n      jumpi\n        /* \"#utility.yul\":6861:6940   */\n      tag_396\n      tag_303\n      jump\t// in\n    tag_396:\n        /* \"#utility.yul\":6830:6942   */\n    tag_395:\n        /* \"#utility.yul\":6951:6992   */\n      tag_397\n        /* \"#utility.yul\":6985:6991   */\n      dup5\n        /* \"#utility.yul\":6980:6983   */\n      dup3\n        /* \"#utility.yul\":6975:6978   */\n      dup6\n        /* \"#utility.yul\":6951:6992   */\n      tag_308\n      jump\t// in\n    tag_397:\n        /* \"#utility.yul\":6670:6998   */\n      pop\n        /* \"#utility.yul\":6586:6998   */\n      swap4\n      swap3\n      pop\n      pop\n      pop\n      jump\t// out\n        /* \"#utility.yul\":7018:7358   */\n    tag_310:\n        /* \"#utility.yul\":7074:7079   */\n      0x00\n        /* \"#utility.yul\":7123:7126   */\n      dup3\n        /* \"#utility.yul\":7116:7120   */\n      0x1f\n        /* \"#utility.yul\":7108:7114   */\n      dup4\n        /* \"#utility.yul\":7104:7121   */\n      add\n        /* \"#utility.yul\":7100:7127   */\n      slt\n        /* \"#utility.yul\":7090:7212   */\n      tag_399\n      jumpi\n        /* \"#utility.yul\":7131:7210   */\n      tag_400\n      tag_302\n      jump\t// in\n    tag_400:\n        /* \"#utility.yul\":7090:7212   */\n    tag_399:\n        /* \"#utility.yul\":7248:7254   */\n      dup2\n        /* \"#utility.yul\":7235:7255   */\n      calldataload\n        /* \"#utility.yul\":7273:7352   */\n      tag_401\n        /* \"#utility.yul\":7348:7351   */\n      dup5\n        /* \"#utility.yul\":7340:7346   */\n      dup3\n        /* \"#utility.yul\":7333:7337   */\n      0x20\n        /* \"#utility.yul\":7325:7331   */\n      dup7\n        /* \"#utility.yul\":7321:7338   */\n      add\n        /* \"#utility.yul\":7273:7352   */\n      tag_309\n      jump\t// in\n    tag_401:\n        /* \"#utility.yul\":7264:7352   */\n      swap2\n      pop\n        /* \"#utility.yul\":7080:7358   */\n      pop\n        /* \"#utility.yul\":7018:7358   */\n      swap3\n      swap2\n      pop\n      pop\n      jump\t// out\n        /* \"#utility.yul\":7364:7502   */\n    tag_311:\n        /* \"#utility.yul\":7445:7477   */\n      tag_403\n        /* \"#utility.yul\":7471:7476   */\n      dup2\n        /* \"#utility.yul\":7445:7477   */\n      tag_297\n      jump\t// in\n    tag_403:\n        /* \"#utility.yul\":7438:7443   */\n      dup2\n        /* \"#utility.yul\":7435:7478   */\n      eq\n        /* \"#utility.yul\":7425:7496   */\n      tag_404\n      jumpi\n        /* \"#utility.yul\":7492:7493   */\n      0x00\n        /* \"#utility.yul\":7489:7490   */\n      dup1\n        /* \"#utility.yul\":7482:7494   */\n      revert\n        /* \"#utility.yul\":7425:7496   */\n    tag_404:\n        /* \"#utility.yul\":7364:7502   */\n      pop\n      jump\t// out\n        /* \"#utility.yul\":7508:7663   */\n    tag_312:\n        /* \"#utility.yul\":7562:7567   */\n      0x00\n        /* \"#utility.yul\":7600:7606   */\n      dup2\n        /* \"#utility.yul\":7587:7607   */\n      calldataload\n        /* \"#utility.yul\":7578:7607   */\n      swap1\n      pop\n        /* \"#utility.yul\":7616:7657   */\n      tag_406\n        /* \"#utility.yul\":7651:7656   */\n      dup2\n        /* \"#utility.yul\":7616:7657   */\n      tag_311\n      jump\t// in\n    tag_406:\n        /* \"#utility.yul\":7508:7663   */\n      swap3\n      swap2\n      pop\n      pop\n      jump\t// out\n        /* \"#utility.yul\":7669:9788   */\n    tag_53:\n        /* \"#utility.yul\":7840:7846   */\n      0x00\n        /* \"#utility.yul\":7848:7854   */\n      dup1\n        /* \"#utility.yul\":7856:7862   */\n      0x00\n        /* \"#utility.yul\":7864:7870   */\n      dup1\n        /* \"#utility.yul\":7872:7878   */\n      0x00\n        /* \"#utility.yul\":7880:7886   */\n      dup1\n        /* \"#utility.yul\":7888:7894   */\n      0x00\n        /* \"#utility.yul\":7937:7940   */\n      0xe0\n        /* \"#utility.yul\":7925:7934   */\n      dup9\n        /* \"#utility.yul\":7916:7923   */\n      dup11\n        /* \"#utility.yul\":7912:7935   */\n      sub\n        /* \"#utility.yul\":7908:7941   */\n      slt\n        /* \"#utility.yul\":7905:8025   */\n      iszero\n      tag_408\n      jumpi\n        /* \"#utility.yul\":7944:8023   */\n      tag_409\n      tag_286\n      jump\t// in\n    tag_409:\n        /* \"#utility.yul\":7905:8025   */\n    tag_408:\n        /* \"#utility.yul\":8092:8093   */\n      0x00\n        /* \"#utility.yul\":8081:8090   */\n      dup9\n        /* \"#utility.yul\":8077:8094   */\n      add\n        /* \"#utility.yul\":8064:8095   */\n      calldataload\n        /* \"#utility.yul\":8122:8140   */\n      0xffffffffffffffff\n        /* \"#utility.yul\":8114:8120   */\n      dup2\n        /* \"#utility.yul\":8111:8141   */\n      gt\n        /* \"#utility.yul\":8108:8225   */\n      iszero\n      tag_410\n      jumpi\n        /* \"#utility.yul\":8144:8223   */\n      tag_411\n      tag_287\n      jump\t// in\n    tag_411:\n        /* \"#utility.yul\":8108:8225   */\n    tag_410:\n        /* \"#utility.yul\":8249:8312   */\n      tag_412\n        /* \"#utility.yul\":8304:8311   */\n      dup11\n        /* \"#utility.yul\":8295:8301   */\n      dup3\n        /* \"#utility.yul\":8284:8293   */\n      dup12\n        /* \"#utility.yul\":8280:8302   */\n      add\n        /* \"#utility.yul\":8249:8312   */\n      tag_310\n      jump\t// in\n    tag_412:\n        /* \"#utility.yul\":8239:8312   */\n      swap8\n      pop\n        /* \"#utility.yul\":8035:8322   */\n      pop\n        /* \"#utility.yul\":8389:8391   */\n      0x20\n        /* \"#utility.yul\":8378:8387   */\n      dup9\n        /* \"#utility.yul\":8374:8392   */\n      add\n        /* \"#utility.yul\":8361:8393   */\n      calldataload\n        /* \"#utility.yul\":8420:8438   */\n      0xffffffffffffffff\n        /* \"#utility.yul\":8412:8418   */\n      dup2\n        /* \"#utility.yul\":8409:8439   */\n      gt\n        /* \"#utility.yul\":8406:8523   */\n      iszero\n      tag_413\n      jumpi\n        /* \"#utility.yul\":8442:8521   */\n      tag_414\n      tag_287\n      jump\t// in\n    tag_414:\n        /* \"#utility.yul\":8406:8523   */\n    tag_413:\n        /* \"#utility.yul\":8547:8610   */\n      tag_415\n        /* \"#utility.yul\":8602:8609   */\n      dup11\n        /* \"#utility.yul\":8593:8599   */\n      dup3\n        /* \"#utility.yul\":8582:8591   */\n      dup12\n        /* \"#utility.yul\":8578:8600   */\n      add\n        /* \"#utility.yul\":8547:8610   */\n      tag_310\n      jump\t// in\n    tag_415:\n        /* \"#utility.yul\":8537:8610   */\n      swap7\n      pop\n        /* \"#utility.yul\":8332:8620   */\n      pop\n        /* \"#utility.yul\":8687:8689   */\n      0x40\n        /* \"#utility.yul\":8676:8685   */\n      dup9\n        /* \"#utility.yul\":8672:8690   */\n      add\n        /* \"#utility.yul\":8659:8691   */\n      calldataload\n        /* \"#utility.yul\":8718:8736   */\n      0xffffffffffffffff\n        /* \"#utility.yul\":8710:8716   */\n      dup2\n        /* \"#utility.yul\":8707:8737   */\n      gt\n        /* \"#utility.yul\":8704:8821   */\n      iszero\n      tag_416\n      jumpi\n        /* \"#utility.yul\":8740:8819   */\n      tag_417\n      tag_287\n      jump\t// in\n    tag_417:\n        /* \"#utility.yul\":8704:8821   */\n    tag_416:\n        /* \"#utility.yul\":8845:8908   */\n      tag_418\n        /* \"#utility.yul\":8900:8907   */\n      dup11\n        /* \"#utility.yul\":8891:8897   */\n      dup3\n        /* \"#utility.yul\":8880:8889   */\n      dup12\n        /* \"#utility.yul\":8876:8898   */\n      add\n        /* \"#utility.yul\":8845:8908   */\n      tag_310\n      jump\t// in\n    tag_418:\n        /* \"#utility.yul\":8835:8908   */\n      swap6\n      pop\n        /* \"#utility.yul\":8630:8918   */\n      pop\n        /* \"#utility.yul\":8985:8987   */\n      0x60\n        /* \"#utility.yul\":8974:8983   */\n      dup9\n        /* \"#utility.yul\":8970:8988   */\n      add\n        /* \"#utility.yul\":8957:8989   */\n      calldataload\n        /* \"#utility.yul\":9016:9034   */\n      0xffffffffffffffff\n        /* \"#utility.yul\":9008:9014   */\n      dup2\n        /* \"#utility.yul\":9005:9035   */\n      gt\n        /* \"#utility.yul\":9002:9119   */\n      iszero\n      tag_419\n      jumpi\n        /* \"#utility.yul\":9038:9117   */\n      tag_420\n      tag_287\n      jump\t// in\n    tag_420:\n        /* \"#utility.yul\":9002:9119   */\n    tag_419:\n        /* \"#utility.yul\":9143:9206   */\n      tag_421\n        /* \"#utility.yul\":9198:9205   */\n      dup11\n        /* \"#utility.yul\":9189:9195   */\n      dup3\n        /* \"#utility.yul\":9178:9187   */\n      dup12\n        /* \"#utility.yul\":9174:9196   */\n      add\n        /* \"#utility.yul\":9143:9206   */\n      tag_310\n      jump\t// in\n    tag_421:\n        /* \"#utility.yul\":9133:9206   */\n      swap5\n      pop\n        /* \"#utility.yul\":8928:9216   */\n      pop\n        /* \"#utility.yul\":9283:9286   */\n      0x80\n        /* \"#utility.yul\":9272:9281   */\n      dup9\n        /* \"#utility.yul\":9268:9287   */\n      add\n        /* \"#utility.yul\":9255:9288   */\n      calldataload\n        /* \"#utility.yul\":9315:9333   */\n      0xffffffffffffffff\n        /* \"#utility.yul\":9307:9313   */\n      dup2\n        /* \"#utility.yul\":9304:9334   */\n      gt\n        /* \"#utility.yul\":9301:9418   */\n      iszero\n      tag_422\n      jumpi\n        /* \"#utility.yul\":9337:9416   */\n      tag_423\n      tag_287\n      jump\t// in\n    tag_423:\n        /* \"#utility.yul\":9301:9418   */\n    tag_422:\n        /* \"#utility.yul\":9442:9505   */\n      tag_424\n        /* \"#utility.yul\":9497:9504   */\n      dup11\n        /* \"#utility.yul\":9488:9494   */\n      dup3\n        /* \"#utility.yul\":9477:9486   */\n      dup12\n        /* \"#utility.yul\":9473:9495   */\n      add\n        /* \"#utility.yul\":9442:9505   */\n      tag_310\n      jump\t// in\n    tag_424:\n        /* \"#utility.yul\":9432:9505   */\n      swap4\n      pop\n        /* \"#utility.yul\":9226:9515   */\n      pop\n        /* \"#utility.yul\":9554:9557   */\n      0xa0\n        /* \"#utility.yul\":9581:9642   */\n      tag_425\n        /* \"#utility.yul\":9634:9641   */\n      dup11\n        /* \"#utility.yul\":9625:9631   */\n      dup3\n        /* \"#utility.yul\":9614:9623   */\n      dup12\n        /* \"#utility.yul\":9610:9632   */\n      add\n        /* \"#utility.yul\":9581:9642   */\n      tag_312\n      jump\t// in\n    tag_425:\n        /* \"#utility.yul\":9571:9642   */\n      swap3\n      pop\n        /* \"#utility.yul\":9525:9652   */\n      pop\n        /* \"#utility.yul\":9691:9694   */\n      0xc0\n        /* \"#utility.yul\":9718:9771   */\n      tag_426\n        /* \"#utility.yul\":9763:9770   */\n      dup11\n        /* \"#utility.yul\":9754:9760   */\n      dup3\n        /* \"#utility.yul\":9743:9752   */\n      dup12\n        /* \"#utility.yul\":9739:9761   */\n      add\n        /* \"#utility.yul\":9718:9771   */\n      tag_290\n      jump\t// in\n    tag_426:\n        /* \"#utility.yul\":9708:9771   */\n      swap2\n      pop\n        /* \"#utility.yul\":9662:9781   */\n      pop\n        /* \"#utility.yul\":7669:9788   */\n      swap3\n      swap6\n      swap9\n      swap2\n      swap5\n      swap8\n      pop\n      swap3\n      swap6\n      pop\n      jump\t// out\n        /* \"#utility.yul\":9794:10016   */\n    tag_61:\n        /* \"#utility.yul\":9887:9891   */\n      0x00\n        /* \"#utility.yul\":9925:9927   */\n      0x20\n        /* \"#utility.yul\":9914:9923   */\n      dup3\n        /* \"#utility.yul\":9910:9928   */\n      add\n        /* \"#utility.yul\":9902:9928   */\n      swap1\n      pop\n        /* \"#utility.yul\":9938:10009   */\n      tag_428\n        /* \"#utility.yul\":10006:10007   */\n      0x00\n        /* \"#utility.yul\":9995:10004   */\n      dup4\n        /* \"#utility.yul\":9991:10008   */\n      add\n        /* \"#utility.yul\":9982:9988   */\n      dup5\n        /* \"#utility.yul\":9938:10009   */\n      tag_301\n      jump\t// in\n    tag_428:\n        /* \"#utility.yul\":9794:10016   */\n      swap3\n      swap2\n      pop\n      pop\n      jump\t// out\n        /* \"#utility.yul\":10022:10118   */\n    tag_313:\n        /* \"#utility.yul\":10059:10066   */\n      0x00\n        /* \"#utility.yul\":10088:10112   */\n      tag_430\n        /* \"#utility.yul\":10106:10111   */\n      dup3\n        /* \"#utility.yul\":10088:10112   */\n      tag_296\n      jump\t// in\n    tag_430:\n        /* \"#utility.yul\":10077:10112   */\n      swap1\n      pop\n        /* \"#utility.yul\":10022:10118   */\n      swap2\n      swap1\n      pop\n      jump\t// out\n        /* \"#utility.yul\":10124:10246   */\n    tag_314:\n        /* \"#utility.yul\":10197:10221   */\n      tag_432\n        /* \"#utility.yul\":10215:10220   */\n      dup2\n        /* \"#utility.yul\":10197:10221   */\n      tag_313\n      jump\t// in\n    tag_432:\n        /* \"#utility.yul\":10190:10195   */\n      dup2\n        /* \"#utility.yul\":10187:10222   */\n      eq\n        /* \"#utility.yul\":10177:10240   */\n      tag_433\n      jumpi\n        /* \"#utility.yul\":10236:10237   */\n      0x00\n        /* \"#utility.yul\":10233:10234   */\n      dup1\n        /* \"#utility.yul\":10226:10238   */\n      revert\n        /* \"#utility.yul\":10177:10240   */\n    tag_433:\n        /* \"#utility.yul\":10124:10246   */\n      pop\n      jump\t// out\n        /* \"#utility.yul\":10252:10391   */\n    tag_315:\n        /* \"#utility.yul\":10298:10303   */\n      0x00\n        /* \"#utility.yul\":10336:10342   */\n      dup2\n        /* \"#utility.yul\":10323:10343   */\n      calldataload\n        /* \"#utility.yul\":10314:10343   */\n      swap1\n      pop\n        /* \"#utility.yul\":10352:10385   */\n      tag_435\n        /* \"#utility.yul\":10379:10384   */\n      dup2\n        /* \"#utility.yul\":10352:10385   */\n      tag_314\n      jump\t// in\n    tag_435:\n        /* \"#utility.yul\":10252:10391   */\n      swap3\n      swap2\n      pop\n      pop\n      jump\t// out\n        /* \"#utility.yul\":10397:10726   */\n    tag_76:\n        /* \"#utility.yul\":10456:10462   */\n      0x00\n        /* \"#utility.yul\":10505:10507   */\n      0x20\n        /* \"#utility.yul\":10493:10502   */\n      dup3\n        /* \"#utility.yul\":10484:10491   */\n      dup5\n        /* \"#utility.yul\":10480:10503   */\n      sub\n        /* \"#utility.yul\":10476:10508   */\n      slt\n        /* \"#utility.yul\":10473:10592   */\n      iszero\n      tag_437\n      jumpi\n        /* \"#utility.yul\":10511:10590   */\n      tag_438\n      tag_286\n      jump\t// in\n    tag_438:\n        /* \"#utility.yul\":10473:10592   */\n    tag_437:\n        /* \"#utility.yul\":10631:10632   */\n      0x00\n        /* \"#utility.yul\":10656:10709   */\n      tag_439\n        /* \"#utility.yul\":10701:10708   */\n      dup5\n        /* \"#utility.yul\":10692:10698   */\n      dup3\n        /* \"#utility.yul\":10681:10690   */\n      dup6\n        /* \"#utility.yul\":10677:10699   */\n      add\n        /* \"#utility.yul\":10656:10709   */\n      tag_315\n      jump\t// in\n    tag_439:\n        /* \"#utility.yul\":10646:10709   */\n      swap2\n      pop\n        /* \"#utility.yul\":10602:10719   */\n      pop\n        /* \"#utility.yul\":10397:10726   */\n      swap3\n      swap2\n      pop\n      pop\n      jump\t// out\n        /* \"#utility.yul\":10732:10850   */\n    tag_316:\n        /* \"#utility.yul\":10819:10843   */\n      tag_441\n        /* \"#utility.yul\":10837:10842   */\n      dup2\n        /* \"#utility.yul\":10819:10843   */\n      tag_313\n      jump\t// in\n    tag_441:\n        /* \"#utility.yul\":10814:10817   */\n      dup3\n        /* \"#utility.yul\":10807:10844   */\n      mstore\n        /* \"#utility.yul\":10732:10850   */\n      pop\n      pop\n      jump\t// out\n        /* \"#utility.yul\":10856:11078   */\n    tag_86:\n        /* \"#utility.yul\":10949:10953   */\n      0x00\n        /* \"#utility.yul\":10987:10989   */\n      0x20\n        /* \"#utility.yul\":10976:10985   */\n      dup3\n        /* \"#utility.yul\":10972:10990   */\n      add\n        /* \"#utility.yul\":10964:10990   */\n      swap1\n      pop\n        /* \"#utility.yul\":11000:11071   */\n      tag_443\n        /* \"#utility.yul\":11068:11069   */\n      0x00\n        /* \"#utility.yul\":11057:11066   */\n      dup4\n        /* \"#utility.yul\":11053:11070   */\n      add\n        /* \"#utility.yul\":11044:11050   */\n      dup5\n        /* \"#utility.yul\":11000:11071   */\n      tag_316\n      jump\t// in\n    tag_443:\n        /* \"#utility.yul\":10856:11078   */\n      swap3\n      swap2\n      pop\n      pop\n      jump\t// out\n        /* \"#utility.yul\":11084:11200   */\n    tag_317:\n        /* \"#utility.yul\":11154:11175   */\n      tag_445\n        /* \"#utility.yul\":11169:11174   */\n      dup2\n        /* \"#utility.yul\":11154:11175   */\n      tag_299\n      jump\t// in\n    tag_445:\n        /* \"#utility.yul\":11147:11152   */\n      dup2\n        /* \"#utility.yul\":11144:11176   */\n      eq\n        /* \"#utility.yul\":11134:11194   */\n      tag_446\n      jumpi\n        /* \"#utility.yul\":11190:11191   */\n      0x00\n        /* \"#utility.yul\":11187:11188   */\n      dup1\n        /* \"#utility.yul\":11180:11192   */\n      revert\n        /* \"#utility.yul\":11134:11194   */\n    tag_446:\n        /* \"#utility.yul\":11084:11200   */\n      pop\n      jump\t// out\n        /* \"#utility.yul\":11206:11343   */\n    tag_318:\n        /* \"#utility.yul\":11260:11265   */\n      0x00\n        /* \"#utility.yul\":11291:11297   */\n      dup2\n        /* \"#utility.yul\":11285:11298   */\n      mload\n        /* \"#utility.yul\":11276:11298   */\n      swap1\n      pop\n        /* \"#utility.yul\":11307:11337   */\n      tag_448\n        /* \"#utility.yul\":11331:11336   */\n      dup2\n        /* \"#utility.yul\":11307:11337   */\n      tag_317\n      jump\t// in\n    tag_448:\n        /* \"#utility.yul\":11206:11343   */\n      swap3\n      swap2\n      pop\n      pop\n      jump\t// out\n        /* \"#utility.yul\":11349:11694   */\n    tag_101:\n        /* \"#utility.yul\":11416:11422   */\n      0x00\n        /* \"#utility.yul\":11465:11467   */\n      0x20\n        /* \"#utility.yul\":11453:11462   */\n      dup3\n        /* \"#utility.yul\":11444:11451   */\n      dup5\n        /* \"#utility.yul\":11440:11463   */\n      sub\n        /* \"#utility.yul\":11436:11468   */\n      slt\n        /* \"#utility.yul\":11433:11552   */\n      iszero\n      tag_450\n      jumpi\n        /* \"#utility.yul\":11471:11550   */\n      tag_451\n      tag_286\n      jump\t// in\n    tag_451:\n        /* \"#utility.yul\":11433:11552   */\n    tag_450:\n        /* \"#utility.yul\":11591:11592   */\n      0x00\n        /* \"#utility.yul\":11616:11677   */\n      tag_452\n        /* \"#utility.yul\":11669:11676   */\n      dup5\n        /* \"#utility.yul\":11660:11666   */\n      dup3\n        /* \"#utility.yul\":11649:11658   */\n      dup6\n        /* \"#utility.yul\":11645:11667   */\n      add\n        /* \"#utility.yul\":11616:11677   */\n      tag_318\n      jump\t// in\n    tag_452:\n        /* \"#utility.yul\":11606:11677   */\n      swap2\n      pop\n        /* \"#utility.yul\":11562:11687   */\n      pop\n        /* \"#utility.yul\":11349:11694   */\n      swap3\n      swap2\n      pop\n      pop\n      jump\t// out\n        /* \"#utility.yul\":11700:11880   */\n    tag_319:\n        /* \"#utility.yul\":11748:11825   */\n      0x4e487b7100000000000000000000000000000000000000000000000000000000\n        /* \"#utility.yul\":11745:11746   */\n      0x00\n        /* \"#utility.yul\":11738:11826   */\n      mstore\n        /* \"#utility.yul\":11845:11849   */\n      0x11\n        /* \"#utility.yul\":11842:11843   */\n      0x04\n        /* \"#utility.yul\":11835:11850   */\n      mstore\n        /* \"#utility.yul\":11869:11873   */\n      0x24\n        /* \"#utility.yul\":11866:11867   */\n      0x00\n        /* \"#utility.yul\":11859:11874   */\n      revert\n        /* \"#utility.yul\":11886:12119   */\n    tag_114:\n        /* \"#utility.yul\":11925:11928   */\n      0x00\n        /* \"#utility.yul\":11948:11972   */\n      tag_455\n        /* \"#utility.yul\":11966:11971   */\n      dup3\n        /* \"#utility.yul\":11948:11972   */\n      tag_288\n      jump\t// in\n    tag_455:\n        /* \"#utility.yul\":11939:11972   */\n      swap2\n      pop\n        /* \"#utility.yul\":11994:12060   */\n      0xffffffffffffffffffffffffffffffffffffffffffffffffffffffffffffffff\n        /* \"#utility.yul\":11987:11992   */\n      dup3\n        /* \"#utility.yul\":11984:12061   */\n      eq\n        /* \"#utility.yul\":11981:12084   */\n      iszero\n      tag_456\n      jumpi\n        /* \"#utility.yul\":12064:12082   */\n      tag_457\n      tag_319\n      jump\t// in\n    tag_457:\n        /* \"#utility.yul\":11981:12084   */\n    tag_456:\n        /* \"#utility.yul\":12111:12112   */\n      0x01\n        /* \"#utility.yul\":12104:12109   */\n      dup3\n        /* \"#utility.yul\":12100:12113   */\n      add\n        /* \"#utility.yul\":12093:12113   */\n      swap1\n      pop\n        /* \"#utility.yul\":11886:12119   */\n      swap2\n      swap1\n      pop\n      jump\t// out\n        /* \"#utility.yul\":12125:12268   */\n    tag_320:\n        /* \"#utility.yul\":12182:12187   */\n      0x00\n        /* \"#utility.yul\":12213:12219   */\n      dup2\n        /* \"#utility.yul\":12207:12220   */\n      mload\n        /* \"#utility.yul\":12198:12220   */\n      swap1\n      pop\n        /* \"#utility.yul\":12229:12262   */\n      tag_459\n        /* \"#utility.yul\":12256:12261   */\n      dup2\n        /* \"#utility.yul\":12229:12262   */\n      tag_289\n      jump\t// in\n    tag_459:\n        /* \"#utility.yul\":12125:12268   */\n      swap3\n      swap2\n      pop\n      pop\n      jump\t// out\n        /* \"#utility.yul\":12274:12625   */\n    tag_119:\n        /* \"#utility.yul\":12344:12350   */\n      0x00\n        /* \"#utility.yul\":12393:12395   */\n      0x20\n        /* \"#utility.yul\":12381:12390   */\n      dup3\n        /* \"#utility.yul\":12372:12379   */\n      dup5\n        /* \"#utility.yul\":12368:12391   */\n      sub\n        /* \"#utility.yul\":12364:12396   */\n      slt\n        /* \"#utility.yul\":12361:12480   */\n      iszero\n      tag_461\n      jumpi\n        /* \"#utility.yul\":12399:12478   */\n      tag_462\n      tag_286\n      jump\t// in\n    tag_462:\n        /* \"#utility.yul\":12361:12480   */\n    tag_461:\n        /* \"#utility.yul\":12519:12520   */\n      0x00\n        /* \"#utility.yul\":12544:12608   */\n      tag_463\n        /* \"#utility.yul\":12600:12607   */\n      dup5\n        /* \"#utility.yul\":12591:12597   */\n      dup3\n        /* \"#utility.yul\":12580:12589   */\n      dup6\n        /* \"#utility.yul\":12576:12598   */\n      add\n        /* \"#utility.yul\":12544:12608   */\n      tag_320\n      jump\t// in\n    tag_463:\n        /* \"#utility.yul\":12534:12608   */\n      swap2\n      pop\n        /* \"#utility.yul\":12490:12618   */\n      pop\n        /* \"#utility.yul\":12274:12625   */\n      swap3\n      swap2\n      pop\n      pop\n      jump\t// out\n        /* \"#utility.yul\":12631:12811   */\n    tag_321:\n        /* \"#utility.yul\":12679:12756   */\n      0x4e487b7100000000000000000000000000000000000000000000000000000000\n        /* \"#utility.yul\":12676:12677   */\n      0x00\n        /* \"#utility.yul\":12669:12757   */\n      mstore\n        /* \"#utility.yul\":12776:12780   */\n      0x12\n        /* \"#utility.yul\":12773:12774   */\n      0x04\n        /* \"#utility.yul\":12766:12781   */\n      mstore\n        /* \"#utility.yul\":12800:12804   */\n      0x24\n        /* \"#utility.yul\":12797:12798   */\n      0x00\n        /* \"#utility.yul\":12790:12805   */\n      revert\n        /* \"#utility.yul\":12817:13002   */\n    tag_121:\n        /* \"#utility.yul\":12857:12858   */\n      0x00\n        /* \"#utility.yul\":12874:12894   */\n      tag_466\n        /* \"#utility.yul\":12892:12893   */\n      dup3\n        /* \"#utility.yul\":12874:12894   */\n      tag_288\n      jump\t// in\n    tag_466:\n        /* \"#utility.yul\":12869:12894   */\n      swap2\n      pop\n        /* \"#utility.yul\":12908:12928   */\n      tag_467\n        /* \"#utility.yul\":12926:12927   */\n      dup4\n        /* \"#utility.yul\":12908:12928   */\n      tag_288\n      jump\t// in\n    tag_467:\n        /* \"#utility.yul\":12903:12928   */\n      swap3\n      pop\n        /* \"#utility.yul\":12947:12948   */\n      dup3\n        /* \"#utility.yul\":12937:12972   */\n      tag_468\n      jumpi\n        /* \"#utility.yul\":12952:12970   */\n      tag_469\n      tag_321\n      jump\t// in\n    tag_469:\n        /* \"#utility.yul\":12937:12972   */\n    tag_468:\n        /* \"#utility.yul\":12994:12995   */\n      dup3\n        /* \"#utility.yul\":12991:12992   */\n      dup3\n        /* \"#utility.yul\":12987:12996   */\n      div\n        /* \"#utility.yul\":12982:12996   */\n      swap1\n      pop\n        /* \"#utility.yul\":12817:13002   */\n      swap3\n      swap2\n      pop\n      pop\n      jump\t// out\n        /* \"#utility.yul\":13008:13188   */\n    tag_322:\n        /* \"#utility.yul\":13056:13133   */\n      0x4e487b7100000000000000000000000000000000000000000000000000000000\n        /* \"#utility.yul\":13053:13054   */\n      0x00\n        /* \"#utility.yul\":13046:13134   */\n      mstore\n        /* \"#utility.yul\":13153:13157   */\n      0x22\n        /* \"#utility.yul\":13150:13151   */\n      0x04\n        /* \"#utility.yul\":13143:13158   */\n      mstore\n        /* \"#utility.yul\":13177:13181   */\n      0x24\n        /* \"#utility.yul\":13174:13175   */\n      0x00\n        /* \"#utility.yul\":13167:13182   */\n      revert\n        /* \"#utility.yul\":13194:13514   */\n    tag_124:\n        /* \"#utility.yul\":13238:13244   */\n      0x00\n        /* \"#utility.yul\":13275:13276   */\n      0x02\n        /* \"#utility.yul\":13269:13273   */\n      dup3\n        /* \"#utility.yul\":13265:13277   */\n      div\n        /* \"#utility.yul\":13255:13277   */\n      swap1\n      pop\n        /* \"#utility.yul\":13322:13323   */\n      0x01\n        /* \"#utility.yul\":13316:13320   */\n      dup3\n        /* \"#utility.yul\":13312:13324   */\n      and\n        /* \"#utility.yul\":13343:13361   */\n      dup1\n        /* \"#utility.yul\":13333:13414   */\n      tag_472\n      jumpi\n        /* \"#utility.yul\":13399:13403   */\n      0x7f\n        /* \"#utility.yul\":13391:13397   */\n      dup3\n        /* \"#utility.yul\":13387:13404   */\n      and\n        /* \"#utility.yul\":13377:13404   */\n      swap2\n      pop\n        /* \"#utility.yul\":13333:13414   */\n    tag_472:\n        /* \"#utility.yul\":13461:13463   */\n      0x20\n        /* \"#utility.yul\":13453:13459   */\n      dup3\n        /* \"#utility.yul\":13450:13464   */\n      lt\n        /* \"#utility.yul\":13430:13448   */\n      dup2\n        /* \"#utility.yul\":13427:13465   */\n      eq\n        /* \"#utility.yul\":13424:13508   */\n      iszero\n      tag_473\n      jumpi\n        /* \"#utility.yul\":13480:13498   */\n      tag_474\n      tag_322\n      jump\t// in\n    tag_474:\n        /* \"#utility.yul\":13424:13508   */\n    tag_473:\n        /* \"#utility.yul\":13245:13514   */\n      pop\n        /* \"#utility.yul\":13194:13514   */\n      swap2\n      swap1\n      pop\n      jump\t// out\n        /* \"#utility.yul\":13520:13884   */\n    tag_192:\n        /* \"#utility.yul\":13657:13661   */\n      0x00\n        /* \"#utility.yul\":13695:13697   */\n      0x40\n        /* \"#utility.yul\":13684:13693   */\n      dup3\n        /* \"#utility.yul\":13680:13698   */\n      add\n        /* \"#utility.yul\":13672:13698   */\n      swap1\n      pop\n        /* \"#utility.yul\":13708:13795   */\n      tag_476\n        /* \"#utility.yul\":13792:13793   */\n      0x00\n        /* \"#utility.yul\":13781:13790   */\n      dup4\n        /* \"#utility.yul\":13777:13794   */\n      add\n        /* \"#utility.yul\":13768:13774   */\n      dup6\n        /* \"#utility.yul\":13708:13795   */\n      tag_298\n      jump\t// in\n    tag_476:\n        /* \"#utility.yul\":13805:13877   */\n      tag_477\n        /* \"#utility.yul\":13873:13875   */\n      0x20\n        /* \"#utility.yul\":13862:13871   */\n      dup4\n        /* \"#utility.yul\":13858:13876   */\n      add\n        /* \"#utility.yul\":13849:13855   */\n      dup5\n        /* \"#utility.yul\":13805:13877   */\n      tag_301\n      jump\t// in\n    tag_477:\n        /* \"#utility.yul\":13520:13884   */\n      swap4\n      swap3\n      pop\n      pop\n      pop\n      jump\t// out\n\n    auxdata: 0xa2646970667358221220cbf809a6609e5bec8ef7ac83b1ade59ac5206c3e5240fad36e803350ee166a6664736f6c63430008090033\n}\n","bytecode":{"linkReferences":{},"object":"60806040523480156200001157600080fd5b5060405162002b6d38038062002b6d833981810160405281019062000037919062000443565b86600090805190602001906200004f92919062000191565b5085600190805190602001906200006892919062000191565b5083600390805190602001906200008192919062000191565b5082600490805190602001906200009a92919062000191565b5081600260006101000a81548173ffffffffffffffffffffffffffffffffffffffff021916908373ffffffffffffffffffffffffffffffffffffffff16021790555080600b60006101000a81548173ffffffffffffffffffffffffffffffffffffffff021916908373ffffffffffffffffffffffffffffffffffffffff16021790555084600590805190602001906200013592919062000191565b50600060068190555060006007819055506000600860006101000a81548160ff0219169083151502179055506000600860016101000a81548160ff0219169083151502179055506000600c8190555050505050505050620005f6565b8280546200019f90620005c0565b90600052602060002090601f016020900481019282620001c357600085556200020f565b82601f10620001de57805160ff19168380011785556200020f565b828001600101855582156200020f579182015b828111156200020e578251825591602001919060010190620001f1565b5b5090506200021e919062000222565b5090565b5b808211156200023d57600081600090555060010162000223565b5090565b6000604051905090565b600080fd5b600080fd5b600080fd5b600080fd5b6000601f19601f8301169050919050565b7f4e487b7100000000000000000000000000000000000000000000000000000000600052604160045260246000fd5b620002aa826200025f565b810181811067ffffffffffffffff82111715620002cc57620002cb62000270565b5b80604052505050565b6000620002e162000241565b9050620002ef82826200029f565b919050565b600067ffffffffffffffff82111562000312576200031162000270565b5b6200031d826200025f565b9050602081019050919050565b60005b838110156200034a5780820151818401526020810190506200032d565b838111156200035a576000848401525b50505050565b6000620003776200037184620002f4565b620002d5565b9050828152602081018484840111156200039657620003956200025a565b5b620003a38482856200032a565b509392505050565b600082601f830112620003c357620003c262000255565b5b8151620003d584826020860162000360565b91505092915050565b600073ffffffffffffffffffffffffffffffffffffffff82169050919050565b60006200040b82620003de565b9050919050565b6200041d81620003fe565b81146200042957600080fd5b50565b6000815190506200043d8162000412565b92915050565b600080600080600080600060e0888a0312156200046557620004646200024b565b5b600088015167ffffffffffffffff81111562000486576200048562000250565b5b620004948a828b01620003ab565b975050602088015167ffffffffffffffff811115620004b857620004b762000250565b5b620004c68a828b01620003ab565b965050604088015167ffffffffffffffff811115620004ea57620004e962000250565b5b620004f88a828b01620003ab565b955050606088015167ffffffffffffffff8111156200051c576200051b62000250565b5b6200052a8a828b01620003ab565b945050608088015167ffffffffffffffff8111156200054e576200054d62000250565b5b6200055c8a828b01620003ab565b93505060a06200056f8a828b016200042c565b92505060c0620005828a828b016200042c565b91505092959891949750929550565b7f4e487b7100000000000000000000000000000000000000000000000000000000600052602260045260246000fd5b60006002820490506001821680620005d957607f821691505b60208210811415620005f057620005ef62000591565b5b50919050565b61256780620006066000396000f3fe608060405234801561001057600080fd5b506004361061012c5760003560e01c8063820e93f5116100ad578063d6e3ee6b11610071578063d6e3ee6b14610308578063e4128fb314610338578063ee4e1b5314610356578063f04693d414610372578063fb6ff96e1461037c5761012c565b8063820e93f5146102605780639284f4971461027e5780639fe7717d1461029c578063c2c706b0146102ba578063c9031934146102d85761012c565b806328f371aa116100f457806328f371aa146101ce5780634a57e1c9146101ec5780636c39bda3146102085780637284e416146102245780638129dfc9146102425761012c565b8063034d09da1461013157806306fdde031461014d578063141961bc1461016b57806317bbb931146101a657806328d0c494146101c4575b600080fd5b61014b60048036038101906101469190611daa565b61039a565b005b61015561078b565b6040516101629190611e70565b60405180910390f35b61018560048036038101906101809190611daa565b610819565b60405161019d9c9b9a99989796959493929190611efd565b60405180910390f35b6101ae610b68565b6040516101bb9190611e70565b60405180910390f35b6101cc610bf6565b005b6101d6610eb3565b6040516101e39190611fda565b60405180910390f35b61020660048036038101906102019190611daa565b610ec6565b005b610222600480360381019061021d9190612156565b61110d565b005b61022c6113da565b6040516102399190611e70565b60405180910390f35b61024a611468565b6040516102579190612284565b60405180910390f35b61026861146e565b6040516102759190611e70565b60405180910390f35b6102866114fc565b6040516102939190611e70565b60405180910390f35b6102a461158a565b6040516102b19190612284565b60405180910390f35b6102c2611590565b6040516102cf9190611fda565b60405180910390f35b6102f260048036038101906102ed91906122dd565b6115a3565b6040516102ff9190611fda565b60405180910390f35b610322600480360381019061031d91906122dd565b6115c3565b60405161032f9190611fda565b60405180910390f35b6103406115e3565b60405161034d9190612319565b60405180910390f35b610370600480360381019061036b9190611daa565b611609565b005b61037a6119fa565b005b610384611cb7565b6040516103919190612284565b60405180910390f35b6000600b60009054906101000a900473ffffffffffffffffffffffffffffffffffffffff1690508073ffffffffffffffffffffffffffffffffffffffff16635d672a62336040518263ffffffff1660e01b81526004016103fa9190612319565b60206040518083038186803b15801561041257600080fd5b505afa158015610426573d6000803e3d6000fd5b505050506040513d601f19601f8201168201806040525081019061044a9190612360565b61045357600080fd5b8073ffffffffffffffffffffffffffffffffffffffff1663018f5472336040518263ffffffff1660e01b815260040161048c9190612319565b60206040518083038186803b1580156104a457600080fd5b505afa1580156104b8573d6000803e3d6000fd5b505050506040513d601f19601f820116820180604052508101906104dc9190612360565b156104e657600080fd5b600d6000838152602001908152602001600020600a0160003373ffffffffffffffffffffffffffffffffffffffff1673ffffffffffffffffffffffffffffffffffffffff16815260200190815260200160002060009054906101000a900460ff161561055157600080fd5b600d6000838152602001908152602001600020600b0160003373ffffffffffffffffffffffffffffffffffffffff1673ffffffffffffffffffffffffffffffffffffffff16815260200190815260200160002060009054906101000a900460ff16156105bc57600080fd5b600d600083815260200190815260200160002060090160009054906101000a900460ff16156105ea57600080fd5b600d600083815260200190815260200160002060090160019054906101000a900460ff161561061857600080fd5b600d6000838152602001908152602001600020600801600081548092919061063f906123bc565b91905055506001600d6000848152602001908152602001600020600b0160003373ffffffffffffffffffffffffffffffffffffffff1673ffffffffffffffffffffffffffffffffffffffff16815260200190815260200160002060006101000a81548160ff02191690831515021790555060028173ffffffffffffffffffffffffffffffffffffffff1663997072f76040518163ffffffff1660e01b815260040160206040518083038186803b1580156106f857600080fd5b505afa15801561070c573d6000803e3d6000fd5b505050506040513d601f19601f82011682018060405250810190610730919061241a565b61073a9190612476565b600d6000848152602001908152602001600020600801541115610787576001600d600084815260200190815260200160002060090160016101000a81548160ff0219169083151502179055505b5050565b60008054610798906124d6565b80601f01602080910402602001604051908101604052809291908181526020018280546107c4906124d6565b80156108115780601f106107e657610100808354040283529160200191610811565b820191906000526020600020905b8154815290600101906020018083116107f457829003601f168201915b505050505081565b600d60205280600052604060002060009150905080600001805461083c906124d6565b80601f0160208091040260200160405190810160405280929190818152602001828054610868906124d6565b80156108b55780601f1061088a576101008083540402835291602001916108b5565b820191906000526020600020905b81548152906001019060200180831161089857829003601f168201915b5050505050908060010180546108ca906124d6565b80601f01602080910402602001604051908101604052809291908181526020018280546108f6906124d6565b80156109435780601f1061091857610100808354040283529160200191610943565b820191906000526020600020905b81548152906001019060200180831161092657829003601f168201915b505050505090806002018054610958906124d6565b80601f0160208091040260200160405190810160405280929190818152602001828054610984906124d6565b80156109d15780601f106109a6576101008083540402835291602001916109d1565b820191906000526020600020905b8154815290600101906020018083116109b457829003601f168201915b5050505050908060030180546109e6906124d6565b80601f0160208091040260200160405190810160405280929190818152602001828054610a12906124d6565b8015610a5f5780601f10610a3457610100808354040283529160200191610a5f565b820191906000526020600020905b815481529060010190602001808311610a4257829003601f168201915b505050505090806004018054610a74906124d6565b80601f0160208091040260200160405190810160405280929190818152602001828054610aa0906124d6565b8015610aed5780601f10610ac257610100808354040283529160200191610aed565b820191906000526020600020905b815481529060010190602001808311610ad057829003601f168201915b5050505050908060050160009054906101000a900473ffffffffffffffffffffffffffffffffffffffff16908060050160149054906101000a900460ff16908060060154908060070154908060080154908060090160009054906101000a900460ff16908060090160019054906101000a900460ff1690508c565b60058054610b75906124d6565b80601f0160208091040260200160405190810160405280929190818152602001828054610ba1906124d6565b8015610bee5780601f10610bc357610100808354040283529160200191610bee565b820191906000526020600020905b815481529060010190602001808311610bd157829003601f168201915b505050505081565b6000600b60009054906101000a900473ffffffffffffffffffffffffffffffffffffffff1690508073ffffffffffffffffffffffffffffffffffffffff16635d672a62336040518263ffffffff1660e01b8152600401610c569190612319565b60206040518083038186803b158015610c6e57600080fd5b505afa158015610c82573d6000803e3d6000fd5b505050506040513d601f19601f82011682018060405250810190610ca69190612360565b610caf57600080fd5b600960003373ffffffffffffffffffffffffffffffffffffffff1673ffffffffffffffffffffffffffffffffffffffff16815260200190815260200160002060009054906101000a900460ff1615610d0657600080fd5b600a60003373ffffffffffffffffffffffffffffffffffffffff1673ffffffffffffffffffffffffffffffffffffffff16815260200190815260200160002060009054906101000a900460ff1615610d5d57600080fd5b600860009054906101000a900460ff1615610d7757600080fd5b600860019054906101000a900460ff1615610d9157600080fd5b6001600a60003373ffffffffffffffffffffffffffffffffffffffff1673ffffffffffffffffffffffffffffffffffffffff16815260200190815260200160002060006101000a81548160ff02191690831515021790555060076000815480929190610dfc906123bc565b919050555060028173ffffffffffffffffffffffffffffffffffffffff1663997072f76040518163ffffffff1660e01b815260040160206040518083038186803b158015610e4957600080fd5b505afa158015610e5d573d6000803e3d6000fd5b505050506040513d601f19601f82011682018060405250810190610e81919061241a565b610e8b9190612476565b6007541115610eb0576001600860016101000a81548160ff0219169083151502179055505b50565b600860009054906101000a900460ff1681565b6000600b60009054906101000a900473ffffffffffffffffffffffffffffffffffffffff1690508073ffffffffffffffffffffffffffffffffffffffff1663018f5472336040518263ffffffff1660e01b8152600401610f269190612319565b60206040518083038186803b158015610f3e57600080fd5b505afa158015610f52573d6000803e3d6000fd5b505050506040513d601f19601f82011682018060405250810190610f769190612360565b610f7f57600080fd5b8073ffffffffffffffffffffffffffffffffffffffff16635d672a62336040518263ffffffff1660e01b8152600401610fb89190612319565b60206040518083038186803b158015610fd057600080fd5b505afa158015610fe4573d6000803e3d6000fd5b505050506040513d601f19601f820116820180604052508101906110089190612360565b1561101257600080fd5b600d600083815260200190815260200160002060090160009054906101000a900460ff1661103f57600080fd5b6000600d600084815260200190815260200160002090508173ffffffffffffffffffffffffffffffffffffffff1663f77ac6688260050160009054906101000a900473ffffffffffffffffffffffffffffffffffffffff1683600601546040518363ffffffff1660e01b81526004016110b9929190612508565b600060405180830381600087803b1580156110d357600080fd5b505af11580156110e7573d6000803e3d6000fd5b5050505060018160050160146101000a81548160ff021916908315150217905550505050565b6000600b60009054906101000a900473ffffffffffffffffffffffffffffffffffffffff1690508073ffffffffffffffffffffffffffffffffffffffff1663018f5472336040518263ffffffff1660e01b815260040161116d9190612319565b60206040518083038186803b15801561118557600080fd5b505afa158015611199573d6000803e3d6000fd5b505050506040513d601f19601f820116820180604052508101906111bd9190612360565b6111c657600080fd5b8073ffffffffffffffffffffffffffffffffffffffff16635d672a62336040518263ffffffff1660e01b81526004016111ff9190612319565b60206040518083038186803b15801561121757600080fd5b505afa15801561122b573d6000803e3d6000fd5b505050506040513d601f19601f8201168201806040525081019061124f9190612360565b1561125957600080fd5b600860009054906101000a900460ff1680156112825750600860019054906101000a900460ff16155b61128b57600080fd5b6000600d6000600c60008154809291906112a4906123bc565b9190505581526020019081526020016000209050888160000190805190602001906112d0929190611cbd565b50878160010190805190602001906112e9929190611cbd565b5086816002019080519060200190611302929190611cbd565b508581600301908051906020019061131b929190611cbd565b5084816004019080519060200190611334929190611cbd565b50838160050160006101000a81548173ffffffffffffffffffffffffffffffffffffffff021916908373ffffffffffffffffffffffffffffffffffffffff160217905550828160060181905550600081600701819055506000816008018190555060008160090160006101000a81548160ff02191690831515021790555060008160090160016101000a81548160ff021916908315150217905550505050505050505050565b600180546113e7906124d6565b80601f0160208091040260200160405190810160405280929190818152602001828054611413906124d6565b80156114605780601f1061143557610100808354040283529160200191611460565b820191906000526020600020905b81548152906001019060200180831161144357829003601f168201915b505050505081565b600c5481565b6004805461147b906124d6565b80601f01602080910402602001604051908101604052809291908181526020018280546114a7906124d6565b80156114f45780601f106114c9576101008083540402835291602001916114f4565b820191906000526020600020905b8154815290600101906020018083116114d757829003601f168201915b505050505081565b60038054611509906124d6565b80601f0160208091040260200160405190810160405280929190818152602001828054611535906124d6565b80156115825780601f1061155757610100808354040283529160200191611582565b820191906000526020600020905b81548152906001019060200180831161156557829003601f168201915b505050505081565b60065481565b600860019054906101000a900460ff1681565b60096020528060005260406000206000915054906101000a900460ff1681565b600a6020528060005260406000206000915054906101000a900460ff1681565b600260009054906101000a900473ffffffffffffffffffffffffffffffffffffffff1681565b6000600b60009054906101000a900473ffffffffffffffffffffffffffffffffffffffff1690508073ffffffffffffffffffffffffffffffffffffffff16635d672a62336040518263ffffffff1660e01b81526004016116699190612319565b60206040518083038186803b15801561168157600080fd5b505afa158015611695573d6000803e3d6000fd5b505050506040513d601f19601f820116820180604052508101906116b99190612360565b6116c257600080fd5b8073ffffffffffffffffffffffffffffffffffffffff1663018f5472336040518263ffffffff1660e01b81526004016116fb9190612319565b60206040518083038186803b15801561171357600080fd5b505afa158015611727573d6000803e3d6000fd5b505050506040513d601f19601f8201168201806040525081019061174b9190612360565b1561175557600080fd5b600d6000838152602001908152602001600020600a0160003373ffffffffffffffffffffffffffffffffffffffff1673ffffffffffffffffffffffffffffffffffffffff16815260200190815260200160002060009054906101000a900460ff16156117c057600080fd5b600d6000838152602001908152602001600020600b0160003373ffffffffffffffffffffffffffffffffffffffff1673ffffffffffffffffffffffffffffffffffffffff16815260200190815260200160002060009054906101000a900460ff161561182b57600080fd5b600d600083815260200190815260200160002060090160009054906101000a900460ff161561185957600080fd5b600d600083815260200190815260200160002060090160019054906101000a900460ff161561188757600080fd5b600d600083815260200190815260200160002060070160008154809291906118ae906123bc565b91905055506001600d6000848152602001908152602001600020600a0160003373ffffffffffffffffffffffffffffffffffffffff1673ffffffffffffffffffffffffffffffffffffffff16815260200190815260200160002060006101000a81548160ff02191690831515021790555060028173ffffffffffffffffffffffffffffffffffffffff1663997072f76040518163ffffffff1660e01b815260040160206040518083038186803b15801561196757600080fd5b505afa15801561197b573d6000803e3d6000fd5b505050506040513d601f19601f8201168201806040525081019061199f919061241a565b6119a99190612476565b600d60008481526020019081526020016000206007015411156119f6576001600d600084815260200190815260200160002060090160006101000a81548160ff0219169083151502179055505b5050565b6000600b60009054906101000a900473ffffffffffffffffffffffffffffffffffffffff1690508073ffffffffffffffffffffffffffffffffffffffff16635d672a62336040518263ffffffff1660e01b8152600401611a5a9190612319565b60206040518083038186803b158015611a7257600080fd5b505afa158015611a86573d6000803e3d6000fd5b505050506040513d601f19601f82011682018060405250810190611aaa9190612360565b611ab357600080fd5b600960003373ffffffffffffffffffffffffffffffffffffffff1673ffffffffffffffffffffffffffffffffffffffff16815260200190815260200160002060009054906101000a900460ff1615611b0a57600080fd5b600a60003373ffffffffffffffffffffffffffffffffffffffff1673ffffffffffffffffffffffffffffffffffffffff16815260200190815260200160002060009054906101000a900460ff1615611b6157600080fd5b600860009054906101000a900460ff1615611b7b57600080fd5b600860019054906101000a900460ff1615611b9557600080fd5b6001600960003373ffffffffffffffffffffffffffffffffffffffff1673ffffffffffffffffffffffffffffffffffffffff16815260200190815260200160002060006101000a81548160ff02191690831515021790555060066000815480929190611c00906123bc565b919050555060028173ffffffffffffffffffffffffffffffffffffffff1663997072f76040518163ffffffff1660e01b815260040160206040518083038186803b158015611c4d57600080fd5b505afa158015611c61573d6000803e3d6000fd5b505050506040513d601f19601f82011682018060405250810190611c85919061241a565b611c8f9190612476565b6006541115611cb4576001600860006101000a81548160ff0219169083151502179055505b50565b60075481565b828054611cc9906124d6565b90600052602060002090601f016020900481019282611ceb5760008555611d32565b82601f10611d0457805160ff1916838001178555611d32565b82800160010185558215611d32579182015b82811115611d31578251825591602001919060010190611d16565b5b509050611d3f9190611d43565b5090565b5b80821115611d5c576000816000905550600101611d44565b5090565b6000604051905090565b600080fd5b600080fd5b6000819050919050565b611d8781611d74565b8114611d9257600080fd5b50565b600081359050611da481611d7e565b92915050565b600060208284031215611dc057611dbf611d6a565b5b6000611dce84828501611d95565b91505092915050565b600081519050919050565b600082825260208201905092915050565b60005b83811015611e11578082015181840152602081019050611df6565b83811115611e20576000848401525b50505050565b6000601f19601f8301169050919050565b6000611e4282611dd7565b611e4c8185611de2565b9350611e5c818560208601611df3565b611e6581611e26565b840191505092915050565b60006020820190508181036000830152611e8a8184611e37565b905092915050565b600073ffffffffffffffffffffffffffffffffffffffff82169050919050565b6000611ebd82611e92565b9050919050565b611ecd81611eb2565b82525050565b60008115159050919050565b611ee881611ed3565b82525050565b611ef781611d74565b82525050565b6000610180820190508181036000830152611f18818f611e37565b90508181036020830152611f2c818e611e37565b90508181036040830152611f40818d611e37565b90508181036060830152611f54818c611e37565b90508181036080830152611f68818b611e37565b9050611f7760a083018a611ec4565b611f8460c0830189611edf565b611f9160e0830188611eee565b611f9f610100830187611eee565b611fad610120830186611eee565b611fbb610140830185611edf565b611fc9610160830184611edf565b9d9c50505050505050505050505050565b6000602082019050611fef6000830184611edf565b92915050565b600080fd5b600080fd5b7f4e487b7100000000000000000000000000000000000000000000000000000000600052604160045260246000fd5b61203782611e26565b810181811067ffffffffffffffff8211171561205657612055611fff565b5b80604052505050565b6000612069611d60565b9050612075828261202e565b919050565b600067ffffffffffffffff82111561209557612094611fff565b5b61209e82611e26565b9050602081019050919050565b82818337600083830152505050565b60006120cd6120c88461207a565b61205f565b9050828152602081018484840111156120e9576120e8611ffa565b5b6120f48482856120ab565b509392505050565b600082601f83011261211157612110611ff5565b5b81356121218482602086016120ba565b91505092915050565b61213381611eb2565b811461213e57600080fd5b50565b6000813590506121508161212a565b92915050565b600080600080600080600060e0888a03121561217557612174611d6a565b5b600088013567ffffffffffffffff81111561219357612192611d6f565b5b61219f8a828b016120fc565b975050602088013567ffffffffffffffff8111156121c0576121bf611d6f565b5b6121cc8a828b016120fc565b965050604088013567ffffffffffffffff8111156121ed576121ec611d6f565b5b6121f98a828b016120fc565b955050606088013567ffffffffffffffff81111561221a57612219611d6f565b5b6122268a828b016120fc565b945050608088013567ffffffffffffffff81111561224757612246611d6f565b5b6122538a828b016120fc565b93505060a06122648a828b01612141565b92505060c06122758a828b01611d95565b91505092959891949750929550565b60006020820190506122996000830184611eee565b92915050565b60006122aa82611e92565b9050919050565b6122ba8161229f565b81146122c557600080fd5b50565b6000813590506122d7816122b1565b92915050565b6000602082840312156122f3576122f2611d6a565b5b6000612301848285016122c8565b91505092915050565b6123138161229f565b82525050565b600060208201905061232e600083018461230a565b92915050565b61233d81611ed3565b811461234857600080fd5b50565b60008151905061235a81612334565b92915050565b60006020828403121561237657612375611d6a565b5b60006123848482850161234b565b91505092915050565b7f4e487b7100000000000000000000000000000000000000000000000000000000600052601160045260246000fd5b60006123c782611d74565b91507fffffffffffffffffffffffffffffffffffffffffffffffffffffffffffffffff8214156123fa576123f961238d565b5b600182019050919050565b60008151905061241481611d7e565b92915050565b6000602082840312156124305761242f611d6a565b5b600061243e84828501612405565b91505092915050565b7f4e487b7100000000000000000000000000000000000000000000000000000000600052601260045260246000fd5b600061248182611d74565b915061248c83611d74565b92508261249c5761249b612447565b5b828204905092915050565b7f4e487b7100000000000000000000000000000000000000000000000000000000600052602260045260246000fd5b600060028204905060018216806124ee57607f821691505b60208210811415612502576125016124a7565b5b50919050565b600060408201905061251d6000830185611ec4565b61252a6020830184611eee565b939250505056fea2646970667358221220cbf809a6609e5bec8ef7ac83b1ade59ac5206c3e5240fad36e803350ee166a6664736f6c63430008090033","opcodes":"PUSH1 0x80 PUSH1 0x40 MSTORE CALLVALUE DUP1 ISZERO PUSH3 0x11 JUMPI PUSH1 0x0 DUP1 REVERT JUMPDEST POP PUSH1 0x40 MLOAD PUSH3 0x2B6D CODESIZE SUB DUP1 PUSH3 0x2B6D DUP4 CODECOPY DUP2 DUP2 ADD PUSH1 0x40 MSTORE DUP2 ADD SWAP1 PUSH3 0x37 SWAP2 SWAP1 PUSH3 0x443 JUMP JUMPDEST DUP7 PUSH1 0x0 SWAP1 DUP1 MLOAD SWAP1 PUSH1 0x20 ADD SWAP1 PUSH3 0x4F SWAP3 SWAP2 SWAP1 PUSH3 0x191 JUMP JUMPDEST POP DUP6 PUSH1 0x1 SWAP1 DUP1 MLOAD SWAP1 PUSH1 0x20 ADD SWAP1 PUSH3 0x68 SWAP3 SWAP2 SWAP1 PUSH3 0x191 JUMP JUMPDEST POP DUP4 PUSH1 0x3 SWAP1 DUP1 MLOAD SWAP1 PUSH1 0x20 ADD SWAP1 PUSH3 0x81 SWAP3 SWAP2 SWAP1 PUSH3 0x191 JUMP JUMPDEST POP DUP3 PUSH1 0x4 SWAP1 DUP1 MLOAD SWAP1 PUSH1 0x20 ADD SWAP1 PUSH3 0x9A SWAP3 SWAP2 SWAP1 PUSH3 0x191 JUMP JUMPDEST POP DUP2 PUSH1 0x2 PUSH1 0x0 PUSH2 0x100 EXP DUP2 SLOAD DUP2 PUSH20 0xFFFFFFFFFFFFFFFFFFFFFFFFFFFFFFFFFFFFFFFF MUL NOT AND SWAP1 DUP4 PUSH20 0xFFFFFFFFFFFFFFFFFFFFFFFFFFFFFFFFFFFFFFFF AND MUL OR SWAP1 SSTORE POP DUP1 PUSH1 0xB PUSH1 0x0 PUSH2 0x100 EXP DUP2 SLOAD DUP2 PUSH20 0xFFFFFFFFFFFFFFFFFFFFFFFFFFFFFFFFFFFFFFFF MUL NOT AND SWAP1 DUP4 PUSH20 0xFFFFFFFFFFFFFFFFFFFFFFFFFFFFFFFFFFFFFFFF AND MUL OR SWAP1 SSTORE POP DUP5 PUSH1 0x5 SWAP1 DUP1 MLOAD SWAP1 PUSH1 0x20 ADD SWAP1 PUSH3 0x135 SWAP3 SWAP2 SWAP1 PUSH3 0x191 JUMP JUMPDEST POP PUSH1 0x0 PUSH1 0x6 DUP2 SWAP1 SSTORE POP PUSH1 0x0 PUSH1 0x7 DUP2 SWAP1 SSTORE POP PUSH1 0x0 PUSH1 0x8 PUSH1 0x0 PUSH2 0x100 EXP DUP2 SLOAD DUP2 PUSH1 0xFF MUL NOT AND SWAP1 DUP4 ISZERO ISZERO MUL OR SWAP1 SSTORE POP PUSH1 0x0 PUSH1 0x8 PUSH1 0x1 PUSH2 0x100 EXP DUP2 SLOAD DUP2 PUSH1 0xFF MUL NOT AND SWAP1 DUP4 ISZERO ISZERO MUL OR SWAP1 SSTORE POP PUSH1 0x0 PUSH1 0xC DUP2 SWAP1 SSTORE POP POP POP POP POP POP POP POP PUSH3 0x5F6 JUMP JUMPDEST DUP3 DUP1 SLOAD PUSH3 0x19F SWAP1 PUSH3 0x5C0 JUMP JUMPDEST SWAP1 PUSH1 0x0 MSTORE PUSH1 0x20 PUSH1 0x0 KECCAK256 SWAP1 PUSH1 0x1F ADD PUSH1 0x20 SWAP1 DIV DUP2 ADD SWAP3 DUP3 PUSH3 0x1C3 JUMPI PUSH1 0x0 DUP6 SSTORE PUSH3 0x20F JUMP JUMPDEST DUP3 PUSH1 0x1F LT PUSH3 0x1DE JUMPI DUP1 MLOAD PUSH1 0xFF NOT AND DUP4 DUP1 ADD OR DUP6 SSTORE PUSH3 0x20F JUMP JUMPDEST DUP3 DUP1 ADD PUSH1 0x1 ADD DUP6 SSTORE DUP3 ISZERO PUSH3 0x20F JUMPI SWAP2 DUP3 ADD JUMPDEST DUP3 DUP2 GT ISZERO PUSH3 0x20E JUMPI DUP3 MLOAD DUP3 SSTORE SWAP2 PUSH1 0x20 ADD SWAP2 SWAP1 PUSH1 0x1 ADD SWAP1 PUSH3 0x1F1 JUMP JUMPDEST JUMPDEST POP SWAP1 POP PUSH3 0x21E SWAP2 SWAP1 PUSH3 0x222 JUMP JUMPDEST POP SWAP1 JUMP JUMPDEST JUMPDEST DUP1 DUP3 GT ISZERO PUSH3 0x23D JUMPI PUSH1 0x0 DUP2 PUSH1 0x0 SWAP1 SSTORE POP PUSH1 0x1 ADD PUSH3 0x223 JUMP JUMPDEST POP SWAP1 JUMP JUMPDEST PUSH1 0x0 PUSH1 0x40 MLOAD SWAP1 POP SWAP1 JUMP JUMPDEST PUSH1 0x0 DUP1 REVERT JUMPDEST PUSH1 0x0 DUP1 REVERT JUMPDEST PUSH1 0x0 DUP1 REVERT JUMPDEST PUSH1 0x0 DUP1 REVERT JUMPDEST PUSH1 0x0 PUSH1 0x1F NOT PUSH1 0x1F DUP4 ADD AND SWAP1 POP SWAP2 SWAP1 POP JUMP JUMPDEST PUSH32 0x4E487B7100000000000000000000000000000000000000000000000000000000 PUSH1 0x0 MSTORE PUSH1 0x41 PUSH1 0x4 MSTORE PUSH1 0x24 PUSH1 0x0 REVERT JUMPDEST PUSH3 0x2AA DUP3 PUSH3 0x25F JUMP JUMPDEST DUP2 ADD DUP2 DUP2 LT PUSH8 0xFFFFFFFFFFFFFFFF DUP3 GT OR ISZERO PUSH3 0x2CC JUMPI PUSH3 0x2CB PUSH3 0x270 JUMP JUMPDEST JUMPDEST DUP1 PUSH1 0x40 MSTORE POP POP POP JUMP JUMPDEST PUSH1 0x0 PUSH3 0x2E1 PUSH3 0x241 JUMP JUMPDEST SWAP1 POP PUSH3 0x2EF DUP3 DUP3 PUSH3 0x29F JUMP JUMPDEST SWAP2 SWAP1 POP JUMP JUMPDEST PUSH1 0x0 PUSH8 0xFFFFFFFFFFFFFFFF DUP3 GT ISZERO PUSH3 0x312 JUMPI PUSH3 0x311 PUSH3 0x270 JUMP JUMPDEST JUMPDEST PUSH3 0x31D DUP3 PUSH3 0x25F JUMP JUMPDEST SWAP1 POP PUSH1 0x20 DUP2 ADD SWAP1 POP SWAP2 SWAP1 POP JUMP JUMPDEST PUSH1 0x0 JUMPDEST DUP4 DUP2 LT ISZERO PUSH3 0x34A JUMPI DUP1 DUP3 ADD MLOAD DUP2 DUP5 ADD MSTORE PUSH1 0x20 DUP2 ADD SWAP1 POP PUSH3 0x32D JUMP JUMPDEST DUP4 DUP2 GT ISZERO PUSH3 0x35A JUMPI PUSH1 0x0 DUP5 DUP5 ADD MSTORE JUMPDEST POP POP POP POP JUMP JUMPDEST PUSH1 0x0 PUSH3 0x377 PUSH3 0x371 DUP5 PUSH3 0x2F4 JUMP JUMPDEST PUSH3 0x2D5 JUMP JUMPDEST SWAP1 POP DUP3 DUP2 MSTORE PUSH1 0x20 DUP2 ADD DUP5 DUP5 DUP5 ADD GT ISZERO PUSH3 0x396 JUMPI PUSH3 0x395 PUSH3 0x25A JUMP JUMPDEST JUMPDEST PUSH3 0x3A3 DUP5 DUP3 DUP6 PUSH3 0x32A JUMP JUMPDEST POP SWAP4 SWAP3 POP POP POP JUMP JUMPDEST PUSH1 0x0 DUP3 PUSH1 0x1F DUP4 ADD SLT PUSH3 0x3C3 JUMPI PUSH3 0x3C2 PUSH3 0x255 JUMP JUMPDEST JUMPDEST DUP2 MLOAD PUSH3 0x3D5 DUP5 DUP3 PUSH1 0x20 DUP7 ADD PUSH3 0x360 JUMP JUMPDEST SWAP2 POP POP SWAP3 SWAP2 POP POP JUMP JUMPDEST PUSH1 0x0 PUSH20 0xFFFFFFFFFFFFFFFFFFFFFFFFFFFFFFFFFFFFFFFF DUP3 AND SWAP1 POP SWAP2 SWAP1 POP JUMP JUMPDEST PUSH1 0x0 PUSH3 0x40B DUP3 PUSH3 0x3DE JUMP JUMPDEST SWAP1 POP SWAP2 SWAP1 POP JUMP JUMPDEST PUSH3 0x41D DUP2 PUSH3 0x3FE JUMP JUMPDEST DUP2 EQ PUSH3 0x429 JUMPI PUSH1 0x0 DUP1 REVERT JUMPDEST POP JUMP JUMPDEST PUSH1 0x0 DUP2 MLOAD SWAP1 POP PUSH3 0x43D DUP2 PUSH3 0x412 JUMP JUMPDEST SWAP3 SWAP2 POP POP JUMP JUMPDEST PUSH1 0x0 DUP1 PUSH1 0x0 DUP1 PUSH1 0x0 DUP1 PUSH1 0x0 PUSH1 0xE0 DUP9 DUP11 SUB SLT ISZERO PUSH3 0x465 JUMPI PUSH3 0x464 PUSH3 0x24B JUMP JUMPDEST JUMPDEST PUSH1 0x0 DUP9 ADD MLOAD PUSH8 0xFFFFFFFFFFFFFFFF DUP2 GT ISZERO PUSH3 0x486 JUMPI PUSH3 0x485 PUSH3 0x250 JUMP JUMPDEST JUMPDEST PUSH3 0x494 DUP11 DUP3 DUP12 ADD PUSH3 0x3AB JUMP JUMPDEST SWAP8 POP POP PUSH1 0x20 DUP9 ADD MLOAD PUSH8 0xFFFFFFFFFFFFFFFF DUP2 GT ISZERO PUSH3 0x4B8 JUMPI PUSH3 0x4B7 PUSH3 0x250 JUMP JUMPDEST JUMPDEST PUSH3 0x4C6 DUP11 DUP3 DUP12 ADD PUSH3 0x3AB JUMP JUMPDEST SWAP7 POP POP PUSH1 0x40 DUP9 ADD MLOAD PUSH8 0xFFFFFFFFFFFFFFFF DUP2 GT ISZERO PUSH3 0x4EA JUMPI PUSH3 0x4E9 PUSH3 0x250 JUMP JUMPDEST JUMPDEST PUSH3 0x4F8 DUP11 DUP3 DUP12 ADD PUSH3 0x3AB JUMP JUMPDEST SWAP6 POP POP PUSH1 0x60 DUP9 ADD MLOAD PUSH8 0xFFFFFFFFFFFFFFFF DUP2 GT ISZERO PUSH3 0x51C JUMPI PUSH3 0x51B PUSH3 0x250 JUMP JUMPDEST JUMPDEST PUSH3 0x52A DUP11 DUP3 DUP12 ADD PUSH3 0x3AB JUMP JUMPDEST SWAP5 POP POP PUSH1 0x80 DUP9 ADD MLOAD PUSH8 0xFFFFFFFFFFFFFFFF DUP2 GT ISZERO PUSH3 0x54E JUMPI PUSH3 0x54D PUSH3 0x250 JUMP JUMPDEST JUMPDEST PUSH3 0x55C DUP11 DUP3 DUP12 ADD PUSH3 0x3AB JUMP JUMPDEST SWAP4 POP POP PUSH1 0xA0 PUSH3 0x56F DUP11 DUP3 DUP12 ADD PUSH3 0x42C JUMP JUMPDEST SWAP3 POP POP PUSH1 0xC0 PUSH3 0x582 DUP11 DUP3 DUP12 ADD PUSH3 0x42C JUMP JUMPDEST SWAP2 POP POP SWAP3 SWAP6 SWAP9 SWAP2 SWAP5 SWAP8 POP SWAP3 SWAP6 POP JUMP JUMPDEST PUSH32 0x4E487B7100000000000000000000000000000000000000000000000000000000 PUSH1 0x0 MSTORE PUSH1 0x22 PUSH1 0x4 MSTORE PUSH1 0x24 PUSH1 0x0 REVERT JUMPDEST PUSH1 0x0 PUSH1 0x2 DUP3 DIV SWAP1 POP PUSH1 0x1 DUP3 AND DUP1 PUSH3 0x5D9 JUMPI PUSH1 0x7F DUP3 AND SWAP2 POP JUMPDEST PUSH1 0x20 DUP3 LT DUP2 EQ ISZERO PUSH3 0x5F0 JUMPI PUSH3 0x5EF PUSH3 0x591 JUMP JUMPDEST JUMPDEST POP SWAP2 SWAP1 POP JUMP JUMPDEST PUSH2 0x2567 DUP1 PUSH3 0x606 PUSH1 0x0 CODECOPY PUSH1 0x0 RETURN INVALID PUSH1 0x80 PUSH1 0x40 MSTORE CALLVALUE DUP1 ISZERO PUSH2 0x10 JUMPI PUSH1 0x0 DUP1 REVERT JUMPDEST POP PUSH1 0x4 CALLDATASIZE LT PUSH2 0x12C JUMPI PUSH1 0x0 CALLDATALOAD PUSH1 0xE0 SHR DUP1 PUSH4 0x820E93F5 GT PUSH2 0xAD JUMPI DUP1 PUSH4 0xD6E3EE6B GT PUSH2 0x71 JUMPI DUP1 PUSH4 0xD6E3EE6B EQ PUSH2 0x308 JUMPI DUP1 PUSH4 0xE4128FB3 EQ PUSH2 0x338 JUMPI DUP1 PUSH4 0xEE4E1B53 EQ PUSH2 0x356 JUMPI DUP1 PUSH4 0xF04693D4 EQ PUSH2 0x372 JUMPI DUP1 PUSH4 0xFB6FF96E EQ PUSH2 0x37C JUMPI PUSH2 0x12C JUMP JUMPDEST DUP1 PUSH4 0x820E93F5 EQ PUSH2 0x260 JUMPI DUP1 PUSH4 0x9284F497 EQ PUSH2 0x27E JUMPI DUP1 PUSH4 0x9FE7717D EQ PUSH2 0x29C JUMPI DUP1 PUSH4 0xC2C706B0 EQ PUSH2 0x2BA JUMPI DUP1 PUSH4 0xC9031934 EQ PUSH2 0x2D8 JUMPI PUSH2 0x12C JUMP JUMPDEST DUP1 PUSH4 0x28F371AA GT PUSH2 0xF4 JUMPI DUP1 PUSH4 0x28F371AA EQ PUSH2 0x1CE JUMPI DUP1 PUSH4 0x4A57E1C9 EQ PUSH2 0x1EC JUMPI DUP1 PUSH4 0x6C39BDA3 EQ PUSH2 0x208 JUMPI DUP1 PUSH4 0x7284E416 EQ PUSH2 0x224 JUMPI DUP1 PUSH4 0x8129DFC9 EQ PUSH2 0x242 JUMPI PUSH2 0x12C JUMP JUMPDEST DUP1 PUSH4 0x34D09DA EQ PUSH2 0x131 JUMPI DUP1 PUSH4 0x6FDDE03 EQ PUSH2 0x14D JUMPI DUP1 PUSH4 0x141961BC EQ PUSH2 0x16B JUMPI DUP1 PUSH4 0x17BBB931 EQ PUSH2 0x1A6 JUMPI DUP1 PUSH4 0x28D0C494 EQ PUSH2 0x1C4 JUMPI JUMPDEST PUSH1 0x0 DUP1 REVERT JUMPDEST PUSH2 0x14B PUSH1 0x4 DUP1 CALLDATASIZE SUB DUP2 ADD SWAP1 PUSH2 0x146 SWAP2 SWAP1 PUSH2 0x1DAA JUMP JUMPDEST PUSH2 0x39A JUMP JUMPDEST STOP JUMPDEST PUSH2 0x155 PUSH2 0x78B JUMP JUMPDEST PUSH1 0x40 MLOAD PUSH2 0x162 SWAP2 SWAP1 PUSH2 0x1E70 JUMP JUMPDEST PUSH1 0x40 MLOAD DUP1 SWAP2 SUB SWAP1 RETURN JUMPDEST PUSH2 0x185 PUSH1 0x4 DUP1 CALLDATASIZE SUB DUP2 ADD SWAP1 PUSH2 0x180 SWAP2 SWAP1 PUSH2 0x1DAA JUMP JUMPDEST PUSH2 0x819 JUMP JUMPDEST PUSH1 0x40 MLOAD PUSH2 0x19D SWAP13 SWAP12 SWAP11 SWAP10 SWAP9 SWAP8 SWAP7 SWAP6 SWAP5 SWAP4 SWAP3 SWAP2 SWAP1 PUSH2 0x1EFD JUMP JUMPDEST PUSH1 0x40 MLOAD DUP1 SWAP2 SUB SWAP1 RETURN JUMPDEST PUSH2 0x1AE PUSH2 0xB68 JUMP JUMPDEST PUSH1 0x40 MLOAD PUSH2 0x1BB SWAP2 SWAP1 PUSH2 0x1E70 JUMP JUMPDEST PUSH1 0x40 MLOAD DUP1 SWAP2 SUB SWAP1 RETURN JUMPDEST PUSH2 0x1CC PUSH2 0xBF6 JUMP JUMPDEST STOP JUMPDEST PUSH2 0x1D6 PUSH2 0xEB3 JUMP JUMPDEST PUSH1 0x40 MLOAD PUSH2 0x1E3 SWAP2 SWAP1 PUSH2 0x1FDA JUMP JUMPDEST PUSH1 0x40 MLOAD DUP1 SWAP2 SUB SWAP1 RETURN JUMPDEST PUSH2 0x206 PUSH1 0x4 DUP1 CALLDATASIZE SUB DUP2 ADD SWAP1 PUSH2 0x201 SWAP2 SWAP1 PUSH2 0x1DAA JUMP JUMPDEST PUSH2 0xEC6 JUMP JUMPDEST STOP JUMPDEST PUSH2 0x222 PUSH1 0x4 DUP1 CALLDATASIZE SUB DUP2 ADD SWAP1 PUSH2 0x21D SWAP2 SWAP1 PUSH2 0x2156 JUMP JUMPDEST PUSH2 0x110D JUMP JUMPDEST STOP JUMPDEST PUSH2 0x22C PUSH2 0x13DA JUMP JUMPDEST PUSH1 0x40 MLOAD PUSH2 0x239 SWAP2 SWAP1 PUSH2 0x1E70 JUMP JUMPDEST PUSH1 0x40 MLOAD DUP1 SWAP2 SUB SWAP1 RETURN JUMPDEST PUSH2 0x24A PUSH2 0x1468 JUMP JUMPDEST PUSH1 0x40 MLOAD PUSH2 0x257 SWAP2 SWAP1 PUSH2 0x2284 JUMP JUMPDEST PUSH1 0x40 MLOAD DUP1 SWAP2 SUB SWAP1 RETURN JUMPDEST PUSH2 0x268 PUSH2 0x146E JUMP JUMPDEST PUSH1 0x40 MLOAD PUSH2 0x275 SWAP2 SWAP1 PUSH2 0x1E70 JUMP JUMPDEST PUSH1 0x40 MLOAD DUP1 SWAP2 SUB SWAP1 RETURN JUMPDEST PUSH2 0x286 PUSH2 0x14FC JUMP JUMPDEST PUSH1 0x40 MLOAD PUSH2 0x293 SWAP2 SWAP1 PUSH2 0x1E70 JUMP JUMPDEST PUSH1 0x40 MLOAD DUP1 SWAP2 SUB SWAP1 RETURN JUMPDEST PUSH2 0x2A4 PUSH2 0x158A JUMP JUMPDEST PUSH1 0x40 MLOAD PUSH2 0x2B1 SWAP2 SWAP1 PUSH2 0x2284 JUMP JUMPDEST PUSH1 0x40 MLOAD DUP1 SWAP2 SUB SWAP1 RETURN JUMPDEST PUSH2 0x2C2 PUSH2 0x1590 JUMP JUMPDEST PUSH1 0x40 MLOAD PUSH2 0x2CF SWAP2 SWAP1 PUSH2 0x1FDA JUMP JUMPDEST PUSH1 0x40 MLOAD DUP1 SWAP2 SUB SWAP1 RETURN JUMPDEST PUSH2 0x2F2 PUSH1 0x4 DUP1 CALLDATASIZE SUB DUP2 ADD SWAP1 PUSH2 0x2ED SWAP2 SWAP1 PUSH2 0x22DD JUMP JUMPDEST PUSH2 0x15A3 JUMP JUMPDEST PUSH1 0x40 MLOAD PUSH2 0x2FF SWAP2 SWAP1 PUSH2 0x1FDA JUMP JUMPDEST PUSH1 0x40 MLOAD DUP1 SWAP2 SUB SWAP1 RETURN JUMPDEST PUSH2 0x322 PUSH1 0x4 DUP1 CALLDATASIZE SUB DUP2 ADD SWAP1 PUSH2 0x31D SWAP2 SWAP1 PUSH2 0x22DD JUMP JUMPDEST PUSH2 0x15C3 JUMP JUMPDEST PUSH1 0x40 MLOAD PUSH2 0x32F SWAP2 SWAP1 PUSH2 0x1FDA JUMP JUMPDEST PUSH1 0x40 MLOAD DUP1 SWAP2 SUB SWAP1 RETURN JUMPDEST PUSH2 0x340 PUSH2 0x15E3 JUMP JUMPDEST PUSH1 0x40 MLOAD PUSH2 0x34D SWAP2 SWAP1 PUSH2 0x2319 JUMP JUMPDEST PUSH1 0x40 MLOAD DUP1 SWAP2 SUB SWAP1 RETURN JUMPDEST PUSH2 0x370 PUSH1 0x4 DUP1 CALLDATASIZE SUB DUP2 ADD SWAP1 PUSH2 0x36B SWAP2 SWAP1 PUSH2 0x1DAA JUMP JUMPDEST PUSH2 0x1609 JUMP JUMPDEST STOP JUMPDEST PUSH2 0x37A PUSH2 0x19FA JUMP JUMPDEST STOP JUMPDEST PUSH2 0x384 PUSH2 0x1CB7 JUMP JUMPDEST PUSH1 0x40 MLOAD PUSH2 0x391 SWAP2 SWAP1 PUSH2 0x2284 JUMP JUMPDEST PUSH1 0x40 MLOAD DUP1 SWAP2 SUB SWAP1 RETURN JUMPDEST PUSH1 0x0 PUSH1 0xB PUSH1 0x0 SWAP1 SLOAD SWAP1 PUSH2 0x100 EXP SWAP1 DIV PUSH20 0xFFFFFFFFFFFFFFFFFFFFFFFFFFFFFFFFFFFFFFFF AND SWAP1 POP DUP1 PUSH20 0xFFFFFFFFFFFFFFFFFFFFFFFFFFFFFFFFFFFFFFFF AND PUSH4 0x5D672A62 CALLER PUSH1 0x40 MLOAD DUP3 PUSH4 0xFFFFFFFF AND PUSH1 0xE0 SHL DUP2 MSTORE PUSH1 0x4 ADD PUSH2 0x3FA SWAP2 SWAP1 PUSH2 0x2319 JUMP JUMPDEST PUSH1 0x20 PUSH1 0x40 MLOAD DUP1 DUP4 SUB DUP2 DUP7 DUP1 EXTCODESIZE ISZERO DUP1 ISZERO PUSH2 0x412 JUMPI PUSH1 0x0 DUP1 REVERT JUMPDEST POP GAS STATICCALL ISZERO DUP1 ISZERO PUSH2 0x426 JUMPI RETURNDATASIZE PUSH1 0x0 DUP1 RETURNDATACOPY RETURNDATASIZE PUSH1 0x0 REVERT JUMPDEST POP POP POP POP PUSH1 0x40 MLOAD RETURNDATASIZE PUSH1 0x1F NOT PUSH1 0x1F DUP3 ADD AND DUP3 ADD DUP1 PUSH1 0x40 MSTORE POP DUP2 ADD SWAP1 PUSH2 0x44A SWAP2 SWAP1 PUSH2 0x2360 JUMP JUMPDEST PUSH2 0x453 JUMPI PUSH1 0x0 DUP1 REVERT JUMPDEST DUP1 PUSH20 0xFFFFFFFFFFFFFFFFFFFFFFFFFFFFFFFFFFFFFFFF AND PUSH4 0x18F5472 CALLER PUSH1 0x40 MLOAD DUP3 PUSH4 0xFFFFFFFF AND PUSH1 0xE0 SHL DUP2 MSTORE PUSH1 0x4 ADD PUSH2 0x48C SWAP2 SWAP1 PUSH2 0x2319 JUMP JUMPDEST PUSH1 0x20 PUSH1 0x40 MLOAD DUP1 DUP4 SUB DUP2 DUP7 DUP1 EXTCODESIZE ISZERO DUP1 ISZERO PUSH2 0x4A4 JUMPI PUSH1 0x0 DUP1 REVERT JUMPDEST POP GAS STATICCALL ISZERO DUP1 ISZERO PUSH2 0x4B8 JUMPI RETURNDATASIZE PUSH1 0x0 DUP1 RETURNDATACOPY RETURNDATASIZE PUSH1 0x0 REVERT JUMPDEST POP POP POP POP PUSH1 0x40 MLOAD RETURNDATASIZE PUSH1 0x1F NOT PUSH1 0x1F DUP3 ADD AND DUP3 ADD DUP1 PUSH1 0x40 MSTORE POP DUP2 ADD SWAP1 PUSH2 0x4DC SWAP2 SWAP1 PUSH2 0x2360 JUMP JUMPDEST ISZERO PUSH2 0x4E6 JUMPI PUSH1 0x0 DUP1 REVERT JUMPDEST PUSH1 0xD PUSH1 0x0 DUP4 DUP2 MSTORE PUSH1 0x20 ADD SWAP1 DUP2 MSTORE PUSH1 0x20 ADD PUSH1 0x0 KECCAK256 PUSH1 0xA ADD PUSH1 0x0 CALLER PUSH20 0xFFFFFFFFFFFFFFFFFFFFFFFFFFFFFFFFFFFFFFFF AND PUSH20 0xFFFFFFFFFFFFFFFFFFFFFFFFFFFFFFFFFFFFFFFF AND DUP2 MSTORE PUSH1 0x20 ADD SWAP1 DUP2 MSTORE PUSH1 0x20 ADD PUSH1 0x0 KECCAK256 PUSH1 0x0 SWAP1 SLOAD SWAP1 PUSH2 0x100 EXP SWAP1 DIV PUSH1 0xFF AND ISZERO PUSH2 0x551 JUMPI PUSH1 0x0 DUP1 REVERT JUMPDEST PUSH1 0xD PUSH1 0x0 DUP4 DUP2 MSTORE PUSH1 0x20 ADD SWAP1 DUP2 MSTORE PUSH1 0x20 ADD PUSH1 0x0 KECCAK256 PUSH1 0xB ADD PUSH1 0x0 CALLER PUSH20 0xFFFFFFFFFFFFFFFFFFFFFFFFFFFFFFFFFFFFFFFF AND PUSH20 0xFFFFFFFFFFFFFFFFFFFFFFFFFFFFFFFFFFFFFFFF AND DUP2 MSTORE PUSH1 0x20 ADD SWAP1 DUP2 MSTORE PUSH1 0x20 ADD PUSH1 0x0 KECCAK256 PUSH1 0x0 SWAP1 SLOAD SWAP1 PUSH2 0x100 EXP SWAP1 DIV PUSH1 0xFF AND ISZERO PUSH2 0x5BC JUMPI PUSH1 0x0 DUP1 REVERT JUMPDEST PUSH1 0xD PUSH1 0x0 DUP4 DUP2 MSTORE PUSH1 0x20 ADD SWAP1 DUP2 MSTORE PUSH1 0x20 ADD PUSH1 0x0 KECCAK256 PUSH1 0x9 ADD PUSH1 0x0 SWAP1 SLOAD SWAP1 PUSH2 0x100 EXP SWAP1 DIV PUSH1 0xFF AND ISZERO PUSH2 0x5EA JUMPI PUSH1 0x0 DUP1 REVERT JUMPDEST PUSH1 0xD PUSH1 0x0 DUP4 DUP2 MSTORE PUSH1 0x20 ADD SWAP1 DUP2 MSTORE PUSH1 0x20 ADD PUSH1 0x0 KECCAK256 PUSH1 0x9 ADD PUSH1 0x1 SWAP1 SLOAD SWAP1 PUSH2 0x100 EXP SWAP1 DIV PUSH1 0xFF AND ISZERO PUSH2 0x618 JUMPI PUSH1 0x0 DUP1 REVERT JUMPDEST PUSH1 0xD PUSH1 0x0 DUP4 DUP2 MSTORE PUSH1 0x20 ADD SWAP1 DUP2 MSTORE PUSH1 0x20 ADD PUSH1 0x0 KECCAK256 PUSH1 0x8 ADD PUSH1 0x0 DUP2 SLOAD DUP1 SWAP3 SWAP2 SWAP1 PUSH2 0x63F SWAP1 PUSH2 0x23BC JUMP JUMPDEST SWAP2 SWAP1 POP SSTORE POP PUSH1 0x1 PUSH1 0xD PUSH1 0x0 DUP5 DUP2 MSTORE PUSH1 0x20 ADD SWAP1 DUP2 MSTORE PUSH1 0x20 ADD PUSH1 0x0 KECCAK256 PUSH1 0xB ADD PUSH1 0x0 CALLER PUSH20 0xFFFFFFFFFFFFFFFFFFFFFFFFFFFFFFFFFFFFFFFF AND PUSH20 0xFFFFFFFFFFFFFFFFFFFFFFFFFFFFFFFFFFFFFFFF AND DUP2 MSTORE PUSH1 0x20 ADD SWAP1 DUP2 MSTORE PUSH1 0x20 ADD PUSH1 0x0 KECCAK256 PUSH1 0x0 PUSH2 0x100 EXP DUP2 SLOAD DUP2 PUSH1 0xFF MUL NOT AND SWAP1 DUP4 ISZERO ISZERO MUL OR SWAP1 SSTORE POP PUSH1 0x2 DUP2 PUSH20 0xFFFFFFFFFFFFFFFFFFFFFFFFFFFFFFFFFFFFFFFF AND PUSH4 0x997072F7 PUSH1 0x40 MLOAD DUP2 PUSH4 0xFFFFFFFF AND PUSH1 0xE0 SHL DUP2 MSTORE PUSH1 0x4 ADD PUSH1 0x20 PUSH1 0x40 MLOAD DUP1 DUP4 SUB DUP2 DUP7 DUP1 EXTCODESIZE ISZERO DUP1 ISZERO PUSH2 0x6F8 JUMPI PUSH1 0x0 DUP1 REVERT JUMPDEST POP GAS STATICCALL ISZERO DUP1 ISZERO PUSH2 0x70C JUMPI RETURNDATASIZE PUSH1 0x0 DUP1 RETURNDATACOPY RETURNDATASIZE PUSH1 0x0 REVERT JUMPDEST POP POP POP POP PUSH1 0x40 MLOAD RETURNDATASIZE PUSH1 0x1F NOT PUSH1 0x1F DUP3 ADD AND DUP3 ADD DUP1 PUSH1 0x40 MSTORE POP DUP2 ADD SWAP1 PUSH2 0x730 SWAP2 SWAP1 PUSH2 0x241A JUMP JUMPDEST PUSH2 0x73A SWAP2 SWAP1 PUSH2 0x2476 JUMP JUMPDEST PUSH1 0xD PUSH1 0x0 DUP5 DUP2 MSTORE PUSH1 0x20 ADD SWAP1 DUP2 MSTORE PUSH1 0x20 ADD PUSH1 0x0 KECCAK256 PUSH1 0x8 ADD SLOAD GT ISZERO PUSH2 0x787 JUMPI PUSH1 0x1 PUSH1 0xD PUSH1 0x0 DUP5 DUP2 MSTORE PUSH1 0x20 ADD SWAP1 DUP2 MSTORE PUSH1 0x20 ADD PUSH1 0x0 KECCAK256 PUSH1 0x9 ADD PUSH1 0x1 PUSH2 0x100 EXP DUP2 SLOAD DUP2 PUSH1 0xFF MUL NOT AND SWAP1 DUP4 ISZERO ISZERO MUL OR SWAP1 SSTORE POP JUMPDEST POP POP JUMP JUMPDEST PUSH1 0x0 DUP1 SLOAD PUSH2 0x798 SWAP1 PUSH2 0x24D6 JUMP JUMPDEST DUP1 PUSH1 0x1F ADD PUSH1 0x20 DUP1 SWAP2 DIV MUL PUSH1 0x20 ADD PUSH1 0x40 MLOAD SWAP1 DUP2 ADD PUSH1 0x40 MSTORE DUP1 SWAP3 SWAP2 SWAP1 DUP2 DUP2 MSTORE PUSH1 0x20 ADD DUP3 DUP1 SLOAD PUSH2 0x7C4 SWAP1 PUSH2 0x24D6 JUMP JUMPDEST DUP1 ISZERO PUSH2 0x811 JUMPI DUP1 PUSH1 0x1F LT PUSH2 0x7E6 JUMPI PUSH2 0x100 DUP1 DUP4 SLOAD DIV MUL DUP4 MSTORE SWAP2 PUSH1 0x20 ADD SWAP2 PUSH2 0x811 JUMP JUMPDEST DUP3 ADD SWAP2 SWAP1 PUSH1 0x0 MSTORE PUSH1 0x20 PUSH1 0x0 KECCAK256 SWAP1 JUMPDEST DUP2 SLOAD DUP2 MSTORE SWAP1 PUSH1 0x1 ADD SWAP1 PUSH1 0x20 ADD DUP1 DUP4 GT PUSH2 0x7F4 JUMPI DUP3 SWAP1 SUB PUSH1 0x1F AND DUP3 ADD SWAP2 JUMPDEST POP POP POP POP POP DUP2 JUMP JUMPDEST PUSH1 0xD PUSH1 0x20 MSTORE DUP1 PUSH1 0x0 MSTORE PUSH1 0x40 PUSH1 0x0 KECCAK256 PUSH1 0x0 SWAP2 POP SWAP1 POP DUP1 PUSH1 0x0 ADD DUP1 SLOAD PUSH2 0x83C SWAP1 PUSH2 0x24D6 JUMP JUMPDEST DUP1 PUSH1 0x1F ADD PUSH1 0x20 DUP1 SWAP2 DIV MUL PUSH1 0x20 ADD PUSH1 0x40 MLOAD SWAP1 DUP2 ADD PUSH1 0x40 MSTORE DUP1 SWAP3 SWAP2 SWAP1 DUP2 DUP2 MSTORE PUSH1 0x20 ADD DUP3 DUP1 SLOAD PUSH2 0x868 SWAP1 PUSH2 0x24D6 JUMP JUMPDEST DUP1 ISZERO PUSH2 0x8B5 JUMPI DUP1 PUSH1 0x1F LT PUSH2 0x88A JUMPI PUSH2 0x100 DUP1 DUP4 SLOAD DIV MUL DUP4 MSTORE SWAP2 PUSH1 0x20 ADD SWAP2 PUSH2 0x8B5 JUMP JUMPDEST DUP3 ADD SWAP2 SWAP1 PUSH1 0x0 MSTORE PUSH1 0x20 PUSH1 0x0 KECCAK256 SWAP1 JUMPDEST DUP2 SLOAD DUP2 MSTORE SWAP1 PUSH1 0x1 ADD SWAP1 PUSH1 0x20 ADD DUP1 DUP4 GT PUSH2 0x898 JUMPI DUP3 SWAP1 SUB PUSH1 0x1F AND DUP3 ADD SWAP2 JUMPDEST POP POP POP POP POP SWAP1 DUP1 PUSH1 0x1 ADD DUP1 SLOAD PUSH2 0x8CA SWAP1 PUSH2 0x24D6 JUMP JUMPDEST DUP1 PUSH1 0x1F ADD PUSH1 0x20 DUP1 SWAP2 DIV MUL PUSH1 0x20 ADD PUSH1 0x40 MLOAD SWAP1 DUP2 ADD PUSH1 0x40 MSTORE DUP1 SWAP3 SWAP2 SWAP1 DUP2 DUP2 MSTORE PUSH1 0x20 ADD DUP3 DUP1 SLOAD PUSH2 0x8F6 SWAP1 PUSH2 0x24D6 JUMP JUMPDEST DUP1 ISZERO PUSH2 0x943 JUMPI DUP1 PUSH1 0x1F LT PUSH2 0x918 JUMPI PUSH2 0x100 DUP1 DUP4 SLOAD DIV MUL DUP4 MSTORE SWAP2 PUSH1 0x20 ADD SWAP2 PUSH2 0x943 JUMP JUMPDEST DUP3 ADD SWAP2 SWAP1 PUSH1 0x0 MSTORE PUSH1 0x20 PUSH1 0x0 KECCAK256 SWAP1 JUMPDEST DUP2 SLOAD DUP2 MSTORE SWAP1 PUSH1 0x1 ADD SWAP1 PUSH1 0x20 ADD DUP1 DUP4 GT PUSH2 0x926 JUMPI DUP3 SWAP1 SUB PUSH1 0x1F AND DUP3 ADD SWAP2 JUMPDEST POP POP POP POP POP SWAP1 DUP1 PUSH1 0x2 ADD DUP1 SLOAD PUSH2 0x958 SWAP1 PUSH2 0x24D6 JUMP JUMPDEST DUP1 PUSH1 0x1F ADD PUSH1 0x20 DUP1 SWAP2 DIV MUL PUSH1 0x20 ADD PUSH1 0x40 MLOAD SWAP1 DUP2 ADD PUSH1 0x40 MSTORE DUP1 SWAP3 SWAP2 SWAP1 DUP2 DUP2 MSTORE PUSH1 0x20 ADD DUP3 DUP1 SLOAD PUSH2 0x984 SWAP1 PUSH2 0x24D6 JUMP JUMPDEST DUP1 ISZERO PUSH2 0x9D1 JUMPI DUP1 PUSH1 0x1F LT PUSH2 0x9A6 JUMPI PUSH2 0x100 DUP1 DUP4 SLOAD DIV MUL DUP4 MSTORE SWAP2 PUSH1 0x20 ADD SWAP2 PUSH2 0x9D1 JUMP JUMPDEST DUP3 ADD SWAP2 SWAP1 PUSH1 0x0 MSTORE PUSH1 0x20 PUSH1 0x0 KECCAK256 SWAP1 JUMPDEST DUP2 SLOAD DUP2 MSTORE SWAP1 PUSH1 0x1 ADD SWAP1 PUSH1 0x20 ADD DUP1 DUP4 GT PUSH2 0x9B4 JUMPI DUP3 SWAP1 SUB PUSH1 0x1F AND DUP3 ADD SWAP2 JUMPDEST POP POP POP POP POP SWAP1 DUP1 PUSH1 0x3 ADD DUP1 SLOAD PUSH2 0x9E6 SWAP1 PUSH2 0x24D6 JUMP JUMPDEST DUP1 PUSH1 0x1F ADD PUSH1 0x20 DUP1 SWAP2 DIV MUL PUSH1 0x20 ADD PUSH1 0x40 MLOAD SWAP1 DUP2 ADD PUSH1 0x40 MSTORE DUP1 SWAP3 SWAP2 SWAP1 DUP2 DUP2 MSTORE PUSH1 0x20 ADD DUP3 DUP1 SLOAD PUSH2 0xA12 SWAP1 PUSH2 0x24D6 JUMP JUMPDEST DUP1 ISZERO PUSH2 0xA5F JUMPI DUP1 PUSH1 0x1F LT PUSH2 0xA34 JUMPI PUSH2 0x100 DUP1 DUP4 SLOAD DIV MUL DUP4 MSTORE SWAP2 PUSH1 0x20 ADD SWAP2 PUSH2 0xA5F JUMP JUMPDEST DUP3 ADD SWAP2 SWAP1 PUSH1 0x0 MSTORE PUSH1 0x20 PUSH1 0x0 KECCAK256 SWAP1 JUMPDEST DUP2 SLOAD DUP2 MSTORE SWAP1 PUSH1 0x1 ADD SWAP1 PUSH1 0x20 ADD DUP1 DUP4 GT PUSH2 0xA42 JUMPI DUP3 SWAP1 SUB PUSH1 0x1F AND DUP3 ADD SWAP2 JUMPDEST POP POP POP POP POP SWAP1 DUP1 PUSH1 0x4 ADD DUP1 SLOAD PUSH2 0xA74 SWAP1 PUSH2 0x24D6 JUMP JUMPDEST DUP1 PUSH1 0x1F ADD PUSH1 0x20 DUP1 SWAP2 DIV MUL PUSH1 0x20 ADD PUSH1 0x40 MLOAD SWAP1 DUP2 ADD PUSH1 0x40 MSTORE DUP1 SWAP3 SWAP2 SWAP1 DUP2 DUP2 MSTORE PUSH1 0x20 ADD DUP3 DUP1 SLOAD PUSH2 0xAA0 SWAP1 PUSH2 0x24D6 JUMP JUMPDEST DUP1 ISZERO PUSH2 0xAED JUMPI DUP1 PUSH1 0x1F LT PUSH2 0xAC2 JUMPI PUSH2 0x100 DUP1 DUP4 SLOAD DIV MUL DUP4 MSTORE SWAP2 PUSH1 0x20 ADD SWAP2 PUSH2 0xAED JUMP JUMPDEST DUP3 ADD SWAP2 SWAP1 PUSH1 0x0 MSTORE PUSH1 0x20 PUSH1 0x0 KECCAK256 SWAP1 JUMPDEST DUP2 SLOAD DUP2 MSTORE SWAP1 PUSH1 0x1 ADD SWAP1 PUSH1 0x20 ADD DUP1 DUP4 GT PUSH2 0xAD0 JUMPI DUP3 SWAP1 SUB PUSH1 0x1F AND DUP3 ADD SWAP2 JUMPDEST POP POP POP POP POP SWAP1 DUP1 PUSH1 0x5 ADD PUSH1 0x0 SWAP1 SLOAD SWAP1 PUSH2 0x100 EXP SWAP1 DIV PUSH20 0xFFFFFFFFFFFFFFFFFFFFFFFFFFFFFFFFFFFFFFFF AND SWAP1 DUP1 PUSH1 0x5 ADD PUSH1 0x14 SWAP1 SLOAD SWAP1 PUSH2 0x100 EXP SWAP1 DIV PUSH1 0xFF AND SWAP1 DUP1 PUSH1 0x6 ADD SLOAD SWAP1 DUP1 PUSH1 0x7 ADD SLOAD SWAP1 DUP1 PUSH1 0x8 ADD SLOAD SWAP1 DUP1 PUSH1 0x9 ADD PUSH1 0x0 SWAP1 SLOAD SWAP1 PUSH2 0x100 EXP SWAP1 DIV PUSH1 0xFF AND SWAP1 DUP1 PUSH1 0x9 ADD PUSH1 0x1 SWAP1 SLOAD SWAP1 PUSH2 0x100 EXP SWAP1 DIV PUSH1 0xFF AND SWAP1 POP DUP13 JUMP JUMPDEST PUSH1 0x5 DUP1 SLOAD PUSH2 0xB75 SWAP1 PUSH2 0x24D6 JUMP JUMPDEST DUP1 PUSH1 0x1F ADD PUSH1 0x20 DUP1 SWAP2 DIV MUL PUSH1 0x20 ADD PUSH1 0x40 MLOAD SWAP1 DUP2 ADD PUSH1 0x40 MSTORE DUP1 SWAP3 SWAP2 SWAP1 DUP2 DUP2 MSTORE PUSH1 0x20 ADD DUP3 DUP1 SLOAD PUSH2 0xBA1 SWAP1 PUSH2 0x24D6 JUMP JUMPDEST DUP1 ISZERO PUSH2 0xBEE JUMPI DUP1 PUSH1 0x1F LT PUSH2 0xBC3 JUMPI PUSH2 0x100 DUP1 DUP4 SLOAD DIV MUL DUP4 MSTORE SWAP2 PUSH1 0x20 ADD SWAP2 PUSH2 0xBEE JUMP JUMPDEST DUP3 ADD SWAP2 SWAP1 PUSH1 0x0 MSTORE PUSH1 0x20 PUSH1 0x0 KECCAK256 SWAP1 JUMPDEST DUP2 SLOAD DUP2 MSTORE SWAP1 PUSH1 0x1 ADD SWAP1 PUSH1 0x20 ADD DUP1 DUP4 GT PUSH2 0xBD1 JUMPI DUP3 SWAP1 SUB PUSH1 0x1F AND DUP3 ADD SWAP2 JUMPDEST POP POP POP POP POP DUP2 JUMP JUMPDEST PUSH1 0x0 PUSH1 0xB PUSH1 0x0 SWAP1 SLOAD SWAP1 PUSH2 0x100 EXP SWAP1 DIV PUSH20 0xFFFFFFFFFFFFFFFFFFFFFFFFFFFFFFFFFFFFFFFF AND SWAP1 POP DUP1 PUSH20 0xFFFFFFFFFFFFFFFFFFFFFFFFFFFFFFFFFFFFFFFF AND PUSH4 0x5D672A62 CALLER PUSH1 0x40 MLOAD DUP3 PUSH4 0xFFFFFFFF AND PUSH1 0xE0 SHL DUP2 MSTORE PUSH1 0x4 ADD PUSH2 0xC56 SWAP2 SWAP1 PUSH2 0x2319 JUMP JUMPDEST PUSH1 0x20 PUSH1 0x40 MLOAD DUP1 DUP4 SUB DUP2 DUP7 DUP1 EXTCODESIZE ISZERO DUP1 ISZERO PUSH2 0xC6E JUMPI PUSH1 0x0 DUP1 REVERT JUMPDEST POP GAS STATICCALL ISZERO DUP1 ISZERO PUSH2 0xC82 JUMPI RETURNDATASIZE PUSH1 0x0 DUP1 RETURNDATACOPY RETURNDATASIZE PUSH1 0x0 REVERT JUMPDEST POP POP POP POP PUSH1 0x40 MLOAD RETURNDATASIZE PUSH1 0x1F NOT PUSH1 0x1F DUP3 ADD AND DUP3 ADD DUP1 PUSH1 0x40 MSTORE POP DUP2 ADD SWAP1 PUSH2 0xCA6 SWAP2 SWAP1 PUSH2 0x2360 JUMP JUMPDEST PUSH2 0xCAF JUMPI PUSH1 0x0 DUP1 REVERT JUMPDEST PUSH1 0x9 PUSH1 0x0 CALLER PUSH20 0xFFFFFFFFFFFFFFFFFFFFFFFFFFFFFFFFFFFFFFFF AND PUSH20 0xFFFFFFFFFFFFFFFFFFFFFFFFFFFFFFFFFFFFFFFF AND DUP2 MSTORE PUSH1 0x20 ADD SWAP1 DUP2 MSTORE PUSH1 0x20 ADD PUSH1 0x0 KECCAK256 PUSH1 0x0 SWAP1 SLOAD SWAP1 PUSH2 0x100 EXP SWAP1 DIV PUSH1 0xFF AND ISZERO PUSH2 0xD06 JUMPI PUSH1 0x0 DUP1 REVERT JUMPDEST PUSH1 0xA PUSH1 0x0 CALLER PUSH20 0xFFFFFFFFFFFFFFFFFFFFFFFFFFFFFFFFFFFFFFFF AND PUSH20 0xFFFFFFFFFFFFFFFFFFFFFFFFFFFFFFFFFFFFFFFF AND DUP2 MSTORE PUSH1 0x20 ADD SWAP1 DUP2 MSTORE PUSH1 0x20 ADD PUSH1 0x0 KECCAK256 PUSH1 0x0 SWAP1 SLOAD SWAP1 PUSH2 0x100 EXP SWAP1 DIV PUSH1 0xFF AND ISZERO PUSH2 0xD5D JUMPI PUSH1 0x0 DUP1 REVERT JUMPDEST PUSH1 0x8 PUSH1 0x0 SWAP1 SLOAD SWAP1 PUSH2 0x100 EXP SWAP1 DIV PUSH1 0xFF AND ISZERO PUSH2 0xD77 JUMPI PUSH1 0x0 DUP1 REVERT JUMPDEST PUSH1 0x8 PUSH1 0x1 SWAP1 SLOAD SWAP1 PUSH2 0x100 EXP SWAP1 DIV PUSH1 0xFF AND ISZERO PUSH2 0xD91 JUMPI PUSH1 0x0 DUP1 REVERT JUMPDEST PUSH1 0x1 PUSH1 0xA PUSH1 0x0 CALLER PUSH20 0xFFFFFFFFFFFFFFFFFFFFFFFFFFFFFFFFFFFFFFFF AND PUSH20 0xFFFFFFFFFFFFFFFFFFFFFFFFFFFFFFFFFFFFFFFF AND DUP2 MSTORE PUSH1 0x20 ADD SWAP1 DUP2 MSTORE PUSH1 0x20 ADD PUSH1 0x0 KECCAK256 PUSH1 0x0 PUSH2 0x100 EXP DUP2 SLOAD DUP2 PUSH1 0xFF MUL NOT AND SWAP1 DUP4 ISZERO ISZERO MUL OR SWAP1 SSTORE POP PUSH1 0x7 PUSH1 0x0 DUP2 SLOAD DUP1 SWAP3 SWAP2 SWAP1 PUSH2 0xDFC SWAP1 PUSH2 0x23BC JUMP JUMPDEST SWAP2 SWAP1 POP SSTORE POP PUSH1 0x2 DUP2 PUSH20 0xFFFFFFFFFFFFFFFFFFFFFFFFFFFFFFFFFFFFFFFF AND PUSH4 0x997072F7 PUSH1 0x40 MLOAD DUP2 PUSH4 0xFFFFFFFF AND PUSH1 0xE0 SHL DUP2 MSTORE PUSH1 0x4 ADD PUSH1 0x20 PUSH1 0x40 MLOAD DUP1 DUP4 SUB DUP2 DUP7 DUP1 EXTCODESIZE ISZERO DUP1 ISZERO PUSH2 0xE49 JUMPI PUSH1 0x0 DUP1 REVERT JUMPDEST POP GAS STATICCALL ISZERO DUP1 ISZERO PUSH2 0xE5D JUMPI RETURNDATASIZE PUSH1 0x0 DUP1 RETURNDATACOPY RETURNDATASIZE PUSH1 0x0 REVERT JUMPDEST POP POP POP POP PUSH1 0x40 MLOAD RETURNDATASIZE PUSH1 0x1F NOT PUSH1 0x1F DUP3 ADD AND DUP3 ADD DUP1 PUSH1 0x40 MSTORE POP DUP2 ADD SWAP1 PUSH2 0xE81 SWAP2 SWAP1 PUSH2 0x241A JUMP JUMPDEST PUSH2 0xE8B SWAP2 SWAP1 PUSH2 0x2476 JUMP JUMPDEST PUSH1 0x7 SLOAD GT ISZERO PUSH2 0xEB0 JUMPI PUSH1 0x1 PUSH1 0x8 PUSH1 0x1 PUSH2 0x100 EXP DUP2 SLOAD DUP2 PUSH1 0xFF MUL NOT AND SWAP1 DUP4 ISZERO ISZERO MUL OR SWAP1 SSTORE POP JUMPDEST POP JUMP JUMPDEST PUSH1 0x8 PUSH1 0x0 SWAP1 SLOAD SWAP1 PUSH2 0x100 EXP SWAP1 DIV PUSH1 0xFF AND DUP2 JUMP JUMPDEST PUSH1 0x0 PUSH1 0xB PUSH1 0x0 SWAP1 SLOAD SWAP1 PUSH2 0x100 EXP SWAP1 DIV PUSH20 0xFFFFFFFFFFFFFFFFFFFFFFFFFFFFFFFFFFFFFFFF AND SWAP1 POP DUP1 PUSH20 0xFFFFFFFFFFFFFFFFFFFFFFFFFFFFFFFFFFFFFFFF AND PUSH4 0x18F5472 CALLER PUSH1 0x40 MLOAD DUP3 PUSH4 0xFFFFFFFF AND PUSH1 0xE0 SHL DUP2 MSTORE PUSH1 0x4 ADD PUSH2 0xF26 SWAP2 SWAP1 PUSH2 0x2319 JUMP JUMPDEST PUSH1 0x20 PUSH1 0x40 MLOAD DUP1 DUP4 SUB DUP2 DUP7 DUP1 EXTCODESIZE ISZERO DUP1 ISZERO PUSH2 0xF3E JUMPI PUSH1 0x0 DUP1 REVERT JUMPDEST POP GAS STATICCALL ISZERO DUP1 ISZERO PUSH2 0xF52 JUMPI RETURNDATASIZE PUSH1 0x0 DUP1 RETURNDATACOPY RETURNDATASIZE PUSH1 0x0 REVERT JUMPDEST POP POP POP POP PUSH1 0x40 MLOAD RETURNDATASIZE PUSH1 0x1F NOT PUSH1 0x1F DUP3 ADD AND DUP3 ADD DUP1 PUSH1 0x40 MSTORE POP DUP2 ADD SWAP1 PUSH2 0xF76 SWAP2 SWAP1 PUSH2 0x2360 JUMP JUMPDEST PUSH2 0xF7F JUMPI PUSH1 0x0 DUP1 REVERT JUMPDEST DUP1 PUSH20 0xFFFFFFFFFFFFFFFFFFFFFFFFFFFFFFFFFFFFFFFF AND PUSH4 0x5D672A62 CALLER PUSH1 0x40 MLOAD DUP3 PUSH4 0xFFFFFFFF AND PUSH1 0xE0 SHL DUP2 MSTORE PUSH1 0x4 ADD PUSH2 0xFB8 SWAP2 SWAP1 PUSH2 0x2319 JUMP JUMPDEST PUSH1 0x20 PUSH1 0x40 MLOAD DUP1 DUP4 SUB DUP2 DUP7 DUP1 EXTCODESIZE ISZERO DUP1 ISZERO PUSH2 0xFD0 JUMPI PUSH1 0x0 DUP1 REVERT JUMPDEST POP GAS STATICCALL ISZERO DUP1 ISZERO PUSH2 0xFE4 JUMPI RETURNDATASIZE PUSH1 0x0 DUP1 RETURNDATACOPY RETURNDATASIZE PUSH1 0x0 REVERT JUMPDEST POP POP POP POP PUSH1 0x40 MLOAD RETURNDATASIZE PUSH1 0x1F NOT PUSH1 0x1F DUP3 ADD AND DUP3 ADD DUP1 PUSH1 0x40 MSTORE POP DUP2 ADD SWAP1 PUSH2 0x1008 SWAP2 SWAP1 PUSH2 0x2360 JUMP JUMPDEST ISZERO PUSH2 0x1012 JUMPI PUSH1 0x0 DUP1 REVERT JUMPDEST PUSH1 0xD PUSH1 0x0 DUP4 DUP2 MSTORE PUSH1 0x20 ADD SWAP1 DUP2 MSTORE PUSH1 0x20 ADD PUSH1 0x0 KECCAK256 PUSH1 0x9 ADD PUSH1 0x0 SWAP1 SLOAD SWAP1 PUSH2 0x100 EXP SWAP1 DIV PUSH1 0xFF AND PUSH2 0x103F JUMPI PUSH1 0x0 DUP1 REVERT JUMPDEST PUSH1 0x0 PUSH1 0xD PUSH1 0x0 DUP5 DUP2 MSTORE PUSH1 0x20 ADD SWAP1 DUP2 MSTORE PUSH1 0x20 ADD PUSH1 0x0 KECCAK256 SWAP1 POP DUP2 PUSH20 0xFFFFFFFFFFFFFFFFFFFFFFFFFFFFFFFFFFFFFFFF AND PUSH4 0xF77AC668 DUP3 PUSH1 0x5 ADD PUSH1 0x0 SWAP1 SLOAD SWAP1 PUSH2 0x100 EXP SWAP1 DIV PUSH20 0xFFFFFFFFFFFFFFFFFFFFFFFFFFFFFFFFFFFFFFFF AND DUP4 PUSH1 0x6 ADD SLOAD PUSH1 0x40 MLOAD DUP4 PUSH4 0xFFFFFFFF AND PUSH1 0xE0 SHL DUP2 MSTORE PUSH1 0x4 ADD PUSH2 0x10B9 SWAP3 SWAP2 SWAP1 PUSH2 0x2508 JUMP JUMPDEST PUSH1 0x0 PUSH1 0x40 MLOAD DUP1 DUP4 SUB DUP2 PUSH1 0x0 DUP8 DUP1 EXTCODESIZE ISZERO DUP1 ISZERO PUSH2 0x10D3 JUMPI PUSH1 0x0 DUP1 REVERT JUMPDEST POP GAS CALL ISZERO DUP1 ISZERO PUSH2 0x10E7 JUMPI RETURNDATASIZE PUSH1 0x0 DUP1 RETURNDATACOPY RETURNDATASIZE PUSH1 0x0 REVERT JUMPDEST POP POP POP POP PUSH1 0x1 DUP2 PUSH1 0x5 ADD PUSH1 0x14 PUSH2 0x100 EXP DUP2 SLOAD DUP2 PUSH1 0xFF MUL NOT AND SWAP1 DUP4 ISZERO ISZERO MUL OR SWAP1 SSTORE POP POP POP POP JUMP JUMPDEST PUSH1 0x0 PUSH1 0xB PUSH1 0x0 SWAP1 SLOAD SWAP1 PUSH2 0x100 EXP SWAP1 DIV PUSH20 0xFFFFFFFFFFFFFFFFFFFFFFFFFFFFFFFFFFFFFFFF AND SWAP1 POP DUP1 PUSH20 0xFFFFFFFFFFFFFFFFFFFFFFFFFFFFFFFFFFFFFFFF AND PUSH4 0x18F5472 CALLER PUSH1 0x40 MLOAD DUP3 PUSH4 0xFFFFFFFF AND PUSH1 0xE0 SHL DUP2 MSTORE PUSH1 0x4 ADD PUSH2 0x116D SWAP2 SWAP1 PUSH2 0x2319 JUMP JUMPDEST PUSH1 0x20 PUSH1 0x40 MLOAD DUP1 DUP4 SUB DUP2 DUP7 DUP1 EXTCODESIZE ISZERO DUP1 ISZERO PUSH2 0x1185 JUMPI PUSH1 0x0 DUP1 REVERT JUMPDEST POP GAS STATICCALL ISZERO DUP1 ISZERO PUSH2 0x1199 JUMPI RETURNDATASIZE PUSH1 0x0 DUP1 RETURNDATACOPY RETURNDATASIZE PUSH1 0x0 REVERT JUMPDEST POP POP POP POP PUSH1 0x40 MLOAD RETURNDATASIZE PUSH1 0x1F NOT PUSH1 0x1F DUP3 ADD AND DUP3 ADD DUP1 PUSH1 0x40 MSTORE POP DUP2 ADD SWAP1 PUSH2 0x11BD SWAP2 SWAP1 PUSH2 0x2360 JUMP JUMPDEST PUSH2 0x11C6 JUMPI PUSH1 0x0 DUP1 REVERT JUMPDEST DUP1 PUSH20 0xFFFFFFFFFFFFFFFFFFFFFFFFFFFFFFFFFFFFFFFF AND PUSH4 0x5D672A62 CALLER PUSH1 0x40 MLOAD DUP3 PUSH4 0xFFFFFFFF AND PUSH1 0xE0 SHL DUP2 MSTORE PUSH1 0x4 ADD PUSH2 0x11FF SWAP2 SWAP1 PUSH2 0x2319 JUMP JUMPDEST PUSH1 0x20 PUSH1 0x40 MLOAD DUP1 DUP4 SUB DUP2 DUP7 DUP1 EXTCODESIZE ISZERO DUP1 ISZERO PUSH2 0x1217 JUMPI PUSH1 0x0 DUP1 REVERT JUMPDEST POP GAS STATICCALL ISZERO DUP1 ISZERO PUSH2 0x122B JUMPI RETURNDATASIZE PUSH1 0x0 DUP1 RETURNDATACOPY RETURNDATASIZE PUSH1 0x0 REVERT JUMPDEST POP POP POP POP PUSH1 0x40 MLOAD RETURNDATASIZE PUSH1 0x1F NOT PUSH1 0x1F DUP3 ADD AND DUP3 ADD DUP1 PUSH1 0x40 MSTORE POP DUP2 ADD SWAP1 PUSH2 0x124F SWAP2 SWAP1 PUSH2 0x2360 JUMP JUMPDEST ISZERO PUSH2 0x1259 JUMPI PUSH1 0x0 DUP1 REVERT JUMPDEST PUSH1 0x8 PUSH1 0x0 SWAP1 SLOAD SWAP1 PUSH2 0x100 EXP SWAP1 DIV PUSH1 0xFF AND DUP1 ISZERO PUSH2 0x1282 JUMPI POP PUSH1 0x8 PUSH1 0x1 SWAP1 SLOAD SWAP1 PUSH2 0x100 EXP SWAP1 DIV PUSH1 0xFF AND ISZERO JUMPDEST PUSH2 0x128B JUMPI PUSH1 0x0 DUP1 REVERT JUMPDEST PUSH1 0x0 PUSH1 0xD PUSH1 0x0 PUSH1 0xC PUSH1 0x0 DUP2 SLOAD DUP1 SWAP3 SWAP2 SWAP1 PUSH2 0x12A4 SWAP1 PUSH2 0x23BC JUMP JUMPDEST SWAP2 SWAP1 POP SSTORE DUP2 MSTORE PUSH1 0x20 ADD SWAP1 DUP2 MSTORE PUSH1 0x20 ADD PUSH1 0x0 KECCAK256 SWAP1 POP DUP9 DUP2 PUSH1 0x0 ADD SWAP1 DUP1 MLOAD SWAP1 PUSH1 0x20 ADD SWAP1 PUSH2 0x12D0 SWAP3 SWAP2 SWAP1 PUSH2 0x1CBD JUMP JUMPDEST POP DUP8 DUP2 PUSH1 0x1 ADD SWAP1 DUP1 MLOAD SWAP1 PUSH1 0x20 ADD SWAP1 PUSH2 0x12E9 SWAP3 SWAP2 SWAP1 PUSH2 0x1CBD JUMP JUMPDEST POP DUP7 DUP2 PUSH1 0x2 ADD SWAP1 DUP1 MLOAD SWAP1 PUSH1 0x20 ADD SWAP1 PUSH2 0x1302 SWAP3 SWAP2 SWAP1 PUSH2 0x1CBD JUMP JUMPDEST POP DUP6 DUP2 PUSH1 0x3 ADD SWAP1 DUP1 MLOAD SWAP1 PUSH1 0x20 ADD SWAP1 PUSH2 0x131B SWAP3 SWAP2 SWAP1 PUSH2 0x1CBD JUMP JUMPDEST POP DUP5 DUP2 PUSH1 0x4 ADD SWAP1 DUP1 MLOAD SWAP1 PUSH1 0x20 ADD SWAP1 PUSH2 0x1334 SWAP3 SWAP2 SWAP1 PUSH2 0x1CBD JUMP JUMPDEST POP DUP4 DUP2 PUSH1 0x5 ADD PUSH1 0x0 PUSH2 0x100 EXP DUP2 SLOAD DUP2 PUSH20 0xFFFFFFFFFFFFFFFFFFFFFFFFFFFFFFFFFFFFFFFF MUL NOT AND SWAP1 DUP4 PUSH20 0xFFFFFFFFFFFFFFFFFFFFFFFFFFFFFFFFFFFFFFFF AND MUL OR SWAP1 SSTORE POP DUP3 DUP2 PUSH1 0x6 ADD DUP2 SWAP1 SSTORE POP PUSH1 0x0 DUP2 PUSH1 0x7 ADD DUP2 SWAP1 SSTORE POP PUSH1 0x0 DUP2 PUSH1 0x8 ADD DUP2 SWAP1 SSTORE POP PUSH1 0x0 DUP2 PUSH1 0x9 ADD PUSH1 0x0 PUSH2 0x100 EXP DUP2 SLOAD DUP2 PUSH1 0xFF MUL NOT AND SWAP1 DUP4 ISZERO ISZERO MUL OR SWAP1 SSTORE POP PUSH1 0x0 DUP2 PUSH1 0x9 ADD PUSH1 0x1 PUSH2 0x100 EXP DUP2 SLOAD DUP2 PUSH1 0xFF MUL NOT AND SWAP1 DUP4 ISZERO ISZERO MUL OR SWAP1 SSTORE POP POP POP POP POP POP POP POP POP POP JUMP JUMPDEST PUSH1 0x1 DUP1 SLOAD PUSH2 0x13E7 SWAP1 PUSH2 0x24D6 JUMP JUMPDEST DUP1 PUSH1 0x1F ADD PUSH1 0x20 DUP1 SWAP2 DIV MUL PUSH1 0x20 ADD PUSH1 0x40 MLOAD SWAP1 DUP2 ADD PUSH1 0x40 MSTORE DUP1 SWAP3 SWAP2 SWAP1 DUP2 DUP2 MSTORE PUSH1 0x20 ADD DUP3 DUP1 SLOAD PUSH2 0x1413 SWAP1 PUSH2 0x24D6 JUMP JUMPDEST DUP1 ISZERO PUSH2 0x1460 JUMPI DUP1 PUSH1 0x1F LT PUSH2 0x1435 JUMPI PUSH2 0x100 DUP1 DUP4 SLOAD DIV MUL DUP4 MSTORE SWAP2 PUSH1 0x20 ADD SWAP2 PUSH2 0x1460 JUMP JUMPDEST DUP3 ADD SWAP2 SWAP1 PUSH1 0x0 MSTORE PUSH1 0x20 PUSH1 0x0 KECCAK256 SWAP1 JUMPDEST DUP2 SLOAD DUP2 MSTORE SWAP1 PUSH1 0x1 ADD SWAP1 PUSH1 0x20 ADD DUP1 DUP4 GT PUSH2 0x1443 JUMPI DUP3 SWAP1 SUB PUSH1 0x1F AND DUP3 ADD SWAP2 JUMPDEST POP POP POP POP POP DUP2 JUMP JUMPDEST PUSH1 0xC SLOAD DUP2 JUMP JUMPDEST PUSH1 0x4 DUP1 SLOAD PUSH2 0x147B SWAP1 PUSH2 0x24D6 JUMP JUMPDEST DUP1 PUSH1 0x1F ADD PUSH1 0x20 DUP1 SWAP2 DIV MUL PUSH1 0x20 ADD PUSH1 0x40 MLOAD SWAP1 DUP2 ADD PUSH1 0x40 MSTORE DUP1 SWAP3 SWAP2 SWAP1 DUP2 DUP2 MSTORE PUSH1 0x20 ADD DUP3 DUP1 SLOAD PUSH2 0x14A7 SWAP1 PUSH2 0x24D6 JUMP JUMPDEST DUP1 ISZERO PUSH2 0x14F4 JUMPI DUP1 PUSH1 0x1F LT PUSH2 0x14C9 JUMPI PUSH2 0x100 DUP1 DUP4 SLOAD DIV MUL DUP4 MSTORE SWAP2 PUSH1 0x20 ADD SWAP2 PUSH2 0x14F4 JUMP JUMPDEST DUP3 ADD SWAP2 SWAP1 PUSH1 0x0 MSTORE PUSH1 0x20 PUSH1 0x0 KECCAK256 SWAP1 JUMPDEST DUP2 SLOAD DUP2 MSTORE SWAP1 PUSH1 0x1 ADD SWAP1 PUSH1 0x20 ADD DUP1 DUP4 GT PUSH2 0x14D7 JUMPI DUP3 SWAP1 SUB PUSH1 0x1F AND DUP3 ADD SWAP2 JUMPDEST POP POP POP POP POP DUP2 JUMP JUMPDEST PUSH1 0x3 DUP1 SLOAD PUSH2 0x1509 SWAP1 PUSH2 0x24D6 JUMP JUMPDEST DUP1 PUSH1 0x1F ADD PUSH1 0x20 DUP1 SWAP2 DIV MUL PUSH1 0x20 ADD PUSH1 0x40 MLOAD SWAP1 DUP2 ADD PUSH1 0x40 MSTORE DUP1 SWAP3 SWAP2 SWAP1 DUP2 DUP2 MSTORE PUSH1 0x20 ADD DUP3 DUP1 SLOAD PUSH2 0x1535 SWAP1 PUSH2 0x24D6 JUMP JUMPDEST DUP1 ISZERO PUSH2 0x1582 JUMPI DUP1 PUSH1 0x1F LT PUSH2 0x1557 JUMPI PUSH2 0x100 DUP1 DUP4 SLOAD DIV MUL DUP4 MSTORE SWAP2 PUSH1 0x20 ADD SWAP2 PUSH2 0x1582 JUMP JUMPDEST DUP3 ADD SWAP2 SWAP1 PUSH1 0x0 MSTORE PUSH1 0x20 PUSH1 0x0 KECCAK256 SWAP1 JUMPDEST DUP2 SLOAD DUP2 MSTORE SWAP1 PUSH1 0x1 ADD SWAP1 PUSH1 0x20 ADD DUP1 DUP4 GT PUSH2 0x1565 JUMPI DUP3 SWAP1 SUB PUSH1 0x1F AND DUP3 ADD SWAP2 JUMPDEST POP POP POP POP POP DUP2 JUMP JUMPDEST PUSH1 0x6 SLOAD DUP2 JUMP JUMPDEST PUSH1 0x8 PUSH1 0x1 SWAP1 SLOAD SWAP1 PUSH2 0x100 EXP SWAP1 DIV PUSH1 0xFF AND DUP2 JUMP JUMPDEST PUSH1 0x9 PUSH1 0x20 MSTORE DUP1 PUSH1 0x0 MSTORE PUSH1 0x40 PUSH1 0x0 KECCAK256 PUSH1 0x0 SWAP2 POP SLOAD SWAP1 PUSH2 0x100 EXP SWAP1 DIV PUSH1 0xFF AND DUP2 JUMP JUMPDEST PUSH1 0xA PUSH1 0x20 MSTORE DUP1 PUSH1 0x0 MSTORE PUSH1 0x40 PUSH1 0x0 KECCAK256 PUSH1 0x0 SWAP2 POP SLOAD SWAP1 PUSH2 0x100 EXP SWAP1 DIV PUSH1 0xFF AND DUP2 JUMP JUMPDEST PUSH1 0x2 PUSH1 0x0 SWAP1 SLOAD SWAP1 PUSH2 0x100 EXP SWAP1 DIV PUSH20 0xFFFFFFFFFFFFFFFFFFFFFFFFFFFFFFFFFFFFFFFF AND DUP2 JUMP JUMPDEST PUSH1 0x0 PUSH1 0xB PUSH1 0x0 SWAP1 SLOAD SWAP1 PUSH2 0x100 EXP SWAP1 DIV PUSH20 0xFFFFFFFFFFFFFFFFFFFFFFFFFFFFFFFFFFFFFFFF AND SWAP1 POP DUP1 PUSH20 0xFFFFFFFFFFFFFFFFFFFFFFFFFFFFFFFFFFFFFFFF AND PUSH4 0x5D672A62 CALLER PUSH1 0x40 MLOAD DUP3 PUSH4 0xFFFFFFFF AND PUSH1 0xE0 SHL DUP2 MSTORE PUSH1 0x4 ADD PUSH2 0x1669 SWAP2 SWAP1 PUSH2 0x2319 JUMP JUMPDEST PUSH1 0x20 PUSH1 0x40 MLOAD DUP1 DUP4 SUB DUP2 DUP7 DUP1 EXTCODESIZE ISZERO DUP1 ISZERO PUSH2 0x1681 JUMPI PUSH1 0x0 DUP1 REVERT JUMPDEST POP GAS STATICCALL ISZERO DUP1 ISZERO PUSH2 0x1695 JUMPI RETURNDATASIZE PUSH1 0x0 DUP1 RETURNDATACOPY RETURNDATASIZE PUSH1 0x0 REVERT JUMPDEST POP POP POP POP PUSH1 0x40 MLOAD RETURNDATASIZE PUSH1 0x1F NOT PUSH1 0x1F DUP3 ADD AND DUP3 ADD DUP1 PUSH1 0x40 MSTORE POP DUP2 ADD SWAP1 PUSH2 0x16B9 SWAP2 SWAP1 PUSH2 0x2360 JUMP JUMPDEST PUSH2 0x16C2 JUMPI PUSH1 0x0 DUP1 REVERT JUMPDEST DUP1 PUSH20 0xFFFFFFFFFFFFFFFFFFFFFFFFFFFFFFFFFFFFFFFF AND PUSH4 0x18F5472 CALLER PUSH1 0x40 MLOAD DUP3 PUSH4 0xFFFFFFFF AND PUSH1 0xE0 SHL DUP2 MSTORE PUSH1 0x4 ADD PUSH2 0x16FB SWAP2 SWAP1 PUSH2 0x2319 JUMP JUMPDEST PUSH1 0x20 PUSH1 0x40 MLOAD DUP1 DUP4 SUB DUP2 DUP7 DUP1 EXTCODESIZE ISZERO DUP1 ISZERO PUSH2 0x1713 JUMPI PUSH1 0x0 DUP1 REVERT JUMPDEST POP GAS STATICCALL ISZERO DUP1 ISZERO PUSH2 0x1727 JUMPI RETURNDATASIZE PUSH1 0x0 DUP1 RETURNDATACOPY RETURNDATASIZE PUSH1 0x0 REVERT JUMPDEST POP POP POP POP PUSH1 0x40 MLOAD RETURNDATASIZE PUSH1 0x1F NOT PUSH1 0x1F DUP3 ADD AND DUP3 ADD DUP1 PUSH1 0x40 MSTORE POP DUP2 ADD SWAP1 PUSH2 0x174B SWAP2 SWAP1 PUSH2 0x2360 JUMP JUMPDEST ISZERO PUSH2 0x1755 JUMPI PUSH1 0x0 DUP1 REVERT JUMPDEST PUSH1 0xD PUSH1 0x0 DUP4 DUP2 MSTORE PUSH1 0x20 ADD SWAP1 DUP2 MSTORE PUSH1 0x20 ADD PUSH1 0x0 KECCAK256 PUSH1 0xA ADD PUSH1 0x0 CALLER PUSH20 0xFFFFFFFFFFFFFFFFFFFFFFFFFFFFFFFFFFFFFFFF AND PUSH20 0xFFFFFFFFFFFFFFFFFFFFFFFFFFFFFFFFFFFFFFFF AND DUP2 MSTORE PUSH1 0x20 ADD SWAP1 DUP2 MSTORE PUSH1 0x20 ADD PUSH1 0x0 KECCAK256 PUSH1 0x0 SWAP1 SLOAD SWAP1 PUSH2 0x100 EXP SWAP1 DIV PUSH1 0xFF AND ISZERO PUSH2 0x17C0 JUMPI PUSH1 0x0 DUP1 REVERT JUMPDEST PUSH1 0xD PUSH1 0x0 DUP4 DUP2 MSTORE PUSH1 0x20 ADD SWAP1 DUP2 MSTORE PUSH1 0x20 ADD PUSH1 0x0 KECCAK256 PUSH1 0xB ADD PUSH1 0x0 CALLER PUSH20 0xFFFFFFFFFFFFFFFFFFFFFFFFFFFFFFFFFFFFFFFF AND PUSH20 0xFFFFFFFFFFFFFFFFFFFFFFFFFFFFFFFFFFFFFFFF AND DUP2 MSTORE PUSH1 0x20 ADD SWAP1 DUP2 MSTORE PUSH1 0x20 ADD PUSH1 0x0 KECCAK256 PUSH1 0x0 SWAP1 SLOAD SWAP1 PUSH2 0x100 EXP SWAP1 DIV PUSH1 0xFF AND ISZERO PUSH2 0x182B JUMPI PUSH1 0x0 DUP1 REVERT JUMPDEST PUSH1 0xD PUSH1 0x0 DUP4 DUP2 MSTORE PUSH1 0x20 ADD SWAP1 DUP2 MSTORE PUSH1 0x20 ADD PUSH1 0x0 KECCAK256 PUSH1 0x9 ADD PUSH1 0x0 SWAP1 SLOAD SWAP1 PUSH2 0x100 EXP SWAP1 DIV PUSH1 0xFF AND ISZERO PUSH2 0x1859 JUMPI PUSH1 0x0 DUP1 REVERT JUMPDEST PUSH1 0xD PUSH1 0x0 DUP4 DUP2 MSTORE PUSH1 0x20 ADD SWAP1 DUP2 MSTORE PUSH1 0x20 ADD PUSH1 0x0 KECCAK256 PUSH1 0x9 ADD PUSH1 0x1 SWAP1 SLOAD SWAP1 PUSH2 0x100 EXP SWAP1 DIV PUSH1 0xFF AND ISZERO PUSH2 0x1887 JUMPI PUSH1 0x0 DUP1 REVERT JUMPDEST PUSH1 0xD PUSH1 0x0 DUP4 DUP2 MSTORE PUSH1 0x20 ADD SWAP1 DUP2 MSTORE PUSH1 0x20 ADD PUSH1 0x0 KECCAK256 PUSH1 0x7 ADD PUSH1 0x0 DUP2 SLOAD DUP1 SWAP3 SWAP2 SWAP1 PUSH2 0x18AE SWAP1 PUSH2 0x23BC JUMP JUMPDEST SWAP2 SWAP1 POP SSTORE POP PUSH1 0x1 PUSH1 0xD PUSH1 0x0 DUP5 DUP2 MSTORE PUSH1 0x20 ADD SWAP1 DUP2 MSTORE PUSH1 0x20 ADD PUSH1 0x0 KECCAK256 PUSH1 0xA ADD PUSH1 0x0 CALLER PUSH20 0xFFFFFFFFFFFFFFFFFFFFFFFFFFFFFFFFFFFFFFFF AND PUSH20 0xFFFFFFFFFFFFFFFFFFFFFFFFFFFFFFFFFFFFFFFF AND DUP2 MSTORE PUSH1 0x20 ADD SWAP1 DUP2 MSTORE PUSH1 0x20 ADD PUSH1 0x0 KECCAK256 PUSH1 0x0 PUSH2 0x100 EXP DUP2 SLOAD DUP2 PUSH1 0xFF MUL NOT AND SWAP1 DUP4 ISZERO ISZERO MUL OR SWAP1 SSTORE POP PUSH1 0x2 DUP2 PUSH20 0xFFFFFFFFFFFFFFFFFFFFFFFFFFFFFFFFFFFFFFFF AND PUSH4 0x997072F7 PUSH1 0x40 MLOAD DUP2 PUSH4 0xFFFFFFFF AND PUSH1 0xE0 SHL DUP2 MSTORE PUSH1 0x4 ADD PUSH1 0x20 PUSH1 0x40 MLOAD DUP1 DUP4 SUB DUP2 DUP7 DUP1 EXTCODESIZE ISZERO DUP1 ISZERO PUSH2 0x1967 JUMPI PUSH1 0x0 DUP1 REVERT JUMPDEST POP GAS STATICCALL ISZERO DUP1 ISZERO PUSH2 0x197B JUMPI RETURNDATASIZE PUSH1 0x0 DUP1 RETURNDATACOPY RETURNDATASIZE PUSH1 0x0 REVERT JUMPDEST POP POP POP POP PUSH1 0x40 MLOAD RETURNDATASIZE PUSH1 0x1F NOT PUSH1 0x1F DUP3 ADD AND DUP3 ADD DUP1 PUSH1 0x40 MSTORE POP DUP2 ADD SWAP1 PUSH2 0x199F SWAP2 SWAP1 PUSH2 0x241A JUMP JUMPDEST PUSH2 0x19A9 SWAP2 SWAP1 PUSH2 0x2476 JUMP JUMPDEST PUSH1 0xD PUSH1 0x0 DUP5 DUP2 MSTORE PUSH1 0x20 ADD SWAP1 DUP2 MSTORE PUSH1 0x20 ADD PUSH1 0x0 KECCAK256 PUSH1 0x7 ADD SLOAD GT ISZERO PUSH2 0x19F6 JUMPI PUSH1 0x1 PUSH1 0xD PUSH1 0x0 DUP5 DUP2 MSTORE PUSH1 0x20 ADD SWAP1 DUP2 MSTORE PUSH1 0x20 ADD PUSH1 0x0 KECCAK256 PUSH1 0x9 ADD PUSH1 0x0 PUSH2 0x100 EXP DUP2 SLOAD DUP2 PUSH1 0xFF MUL NOT AND SWAP1 DUP4 ISZERO ISZERO MUL OR SWAP1 SSTORE POP JUMPDEST POP POP JUMP JUMPDEST PUSH1 0x0 PUSH1 0xB PUSH1 0x0 SWAP1 SLOAD SWAP1 PUSH2 0x100 EXP SWAP1 DIV PUSH20 0xFFFFFFFFFFFFFFFFFFFFFFFFFFFFFFFFFFFFFFFF AND SWAP1 POP DUP1 PUSH20 0xFFFFFFFFFFFFFFFFFFFFFFFFFFFFFFFFFFFFFFFF AND PUSH4 0x5D672A62 CALLER PUSH1 0x40 MLOAD DUP3 PUSH4 0xFFFFFFFF AND PUSH1 0xE0 SHL DUP2 MSTORE PUSH1 0x4 ADD PUSH2 0x1A5A SWAP2 SWAP1 PUSH2 0x2319 JUMP JUMPDEST PUSH1 0x20 PUSH1 0x40 MLOAD DUP1 DUP4 SUB DUP2 DUP7 DUP1 EXTCODESIZE ISZERO DUP1 ISZERO PUSH2 0x1A72 JUMPI PUSH1 0x0 DUP1 REVERT JUMPDEST POP GAS STATICCALL ISZERO DUP1 ISZERO PUSH2 0x1A86 JUMPI RETURNDATASIZE PUSH1 0x0 DUP1 RETURNDATACOPY RETURNDATASIZE PUSH1 0x0 REVERT JUMPDEST POP POP POP POP PUSH1 0x40 MLOAD RETURNDATASIZE PUSH1 0x1F NOT PUSH1 0x1F DUP3 ADD AND DUP3 ADD DUP1 PUSH1 0x40 MSTORE POP DUP2 ADD SWAP1 PUSH2 0x1AAA SWAP2 SWAP1 PUSH2 0x2360 JUMP JUMPDEST PUSH2 0x1AB3 JUMPI PUSH1 0x0 DUP1 REVERT JUMPDEST PUSH1 0x9 PUSH1 0x0 CALLER PUSH20 0xFFFFFFFFFFFFFFFFFFFFFFFFFFFFFFFFFFFFFFFF AND PUSH20 0xFFFFFFFFFFFFFFFFFFFFFFFFFFFFFFFFFFFFFFFF AND DUP2 MSTORE PUSH1 0x20 ADD SWAP1 DUP2 MSTORE PUSH1 0x20 ADD PUSH1 0x0 KECCAK256 PUSH1 0x0 SWAP1 SLOAD SWAP1 PUSH2 0x100 EXP SWAP1 DIV PUSH1 0xFF AND ISZERO PUSH2 0x1B0A JUMPI PUSH1 0x0 DUP1 REVERT JUMPDEST PUSH1 0xA PUSH1 0x0 CALLER PUSH20 0xFFFFFFFFFFFFFFFFFFFFFFFFFFFFFFFFFFFFFFFF AND PUSH20 0xFFFFFFFFFFFFFFFFFFFFFFFFFFFFFFFFFFFFFFFF AND DUP2 MSTORE PUSH1 0x20 ADD SWAP1 DUP2 MSTORE PUSH1 0x20 ADD PUSH1 0x0 KECCAK256 PUSH1 0x0 SWAP1 SLOAD SWAP1 PUSH2 0x100 EXP SWAP1 DIV PUSH1 0xFF AND ISZERO PUSH2 0x1B61 JUMPI PUSH1 0x0 DUP1 REVERT JUMPDEST PUSH1 0x8 PUSH1 0x0 SWAP1 SLOAD SWAP1 PUSH2 0x100 EXP SWAP1 DIV PUSH1 0xFF AND ISZERO PUSH2 0x1B7B JUMPI PUSH1 0x0 DUP1 REVERT JUMPDEST PUSH1 0x8 PUSH1 0x1 SWAP1 SLOAD SWAP1 PUSH2 0x100 EXP SWAP1 DIV PUSH1 0xFF AND ISZERO PUSH2 0x1B95 JUMPI PUSH1 0x0 DUP1 REVERT JUMPDEST PUSH1 0x1 PUSH1 0x9 PUSH1 0x0 CALLER PUSH20 0xFFFFFFFFFFFFFFFFFFFFFFFFFFFFFFFFFFFFFFFF AND PUSH20 0xFFFFFFFFFFFFFFFFFFFFFFFFFFFFFFFFFFFFFFFF AND DUP2 MSTORE PUSH1 0x20 ADD SWAP1 DUP2 MSTORE PUSH1 0x20 ADD PUSH1 0x0 KECCAK256 PUSH1 0x0 PUSH2 0x100 EXP DUP2 SLOAD DUP2 PUSH1 0xFF MUL NOT AND SWAP1 DUP4 ISZERO ISZERO MUL OR SWAP1 SSTORE POP PUSH1 0x6 PUSH1 0x0 DUP2 SLOAD DUP1 SWAP3 SWAP2 SWAP1 PUSH2 0x1C00 SWAP1 PUSH2 0x23BC JUMP JUMPDEST SWAP2 SWAP1 POP SSTORE POP PUSH1 0x2 DUP2 PUSH20 0xFFFFFFFFFFFFFFFFFFFFFFFFFFFFFFFFFFFFFFFF AND PUSH4 0x997072F7 PUSH1 0x40 MLOAD DUP2 PUSH4 0xFFFFFFFF AND PUSH1 0xE0 SHL DUP2 MSTORE PUSH1 0x4 ADD PUSH1 0x20 PUSH1 0x40 MLOAD DUP1 DUP4 SUB DUP2 DUP7 DUP1 EXTCODESIZE ISZERO DUP1 ISZERO PUSH2 0x1C4D JUMPI PUSH1 0x0 DUP1 REVERT JUMPDEST POP GAS STATICCALL ISZERO DUP1 ISZERO PUSH2 0x1C61 JUMPI RETURNDATASIZE PUSH1 0x0 DUP1 RETURNDATACOPY RETURNDATASIZE PUSH1 0x0 REVERT JUMPDEST POP POP POP POP PUSH1 0x40 MLOAD RETURNDATASIZE PUSH1 0x1F NOT PUSH1 0x1F DUP3 ADD AND DUP3 ADD DUP1 PUSH1 0x40 MSTORE POP DUP2 ADD SWAP1 PUSH2 0x1C85 SWAP2 SWAP1 PUSH2 0x241A JUMP JUMPDEST PUSH2 0x1C8F SWAP2 SWAP1 PUSH2 0x2476 JUMP JUMPDEST PUSH1 0x6 SLOAD GT ISZERO PUSH2 0x1CB4 JUMPI PUSH1 0x1 PUSH1 0x8 PUSH1 0x0 PUSH2 0x100 EXP DUP2 SLOAD DUP2 PUSH1 0xFF MUL NOT AND SWAP1 DUP4 ISZERO ISZERO MUL OR SWAP1 SSTORE POP JUMPDEST POP JUMP JUMPDEST PUSH1 0x7 SLOAD DUP2 JUMP JUMPDEST DUP3 DUP1 SLOAD PUSH2 0x1CC9 SWAP1 PUSH2 0x24D6 JUMP JUMPDEST SWAP1 PUSH1 0x0 MSTORE PUSH1 0x20 PUSH1 0x0 KECCAK256 SWAP1 PUSH1 0x1F ADD PUSH1 0x20 SWAP1 DIV DUP2 ADD SWAP3 DUP3 PUSH2 0x1CEB JUMPI PUSH1 0x0 DUP6 SSTORE PUSH2 0x1D32 JUMP JUMPDEST DUP3 PUSH1 0x1F LT PUSH2 0x1D04 JUMPI DUP1 MLOAD PUSH1 0xFF NOT AND DUP4 DUP1 ADD OR DUP6 SSTORE PUSH2 0x1D32 JUMP JUMPDEST DUP3 DUP1 ADD PUSH1 0x1 ADD DUP6 SSTORE DUP3 ISZERO PUSH2 0x1D32 JUMPI SWAP2 DUP3 ADD JUMPDEST DUP3 DUP2 GT ISZERO PUSH2 0x1D31 JUMPI DUP3 MLOAD DUP3 SSTORE SWAP2 PUSH1 0x20 ADD SWAP2 SWAP1 PUSH1 0x1 ADD SWAP1 PUSH2 0x1D16 JUMP JUMPDEST JUMPDEST POP SWAP1 POP PUSH2 0x1D3F SWAP2 SWAP1 PUSH2 0x1D43 JUMP JUMPDEST POP SWAP1 JUMP JUMPDEST JUMPDEST DUP1 DUP3 GT ISZERO PUSH2 0x1D5C JUMPI PUSH1 0x0 DUP2 PUSH1 0x0 SWAP1 SSTORE POP PUSH1 0x1 ADD PUSH2 0x1D44 JUMP JUMPDEST POP SWAP1 JUMP JUMPDEST PUSH1 0x0 PUSH1 0x40 MLOAD SWAP1 POP SWAP1 JUMP JUMPDEST PUSH1 0x0 DUP1 REVERT JUMPDEST PUSH1 0x0 DUP1 REVERT JUMPDEST PUSH1 0x0 DUP2 SWAP1 POP SWAP2 SWAP1 POP JUMP JUMPDEST PUSH2 0x1D87 DUP2 PUSH2 0x1D74 JUMP JUMPDEST DUP2 EQ PUSH2 0x1D92 JUMPI PUSH1 0x0 DUP1 REVERT JUMPDEST POP JUMP JUMPDEST PUSH1 0x0 DUP2 CALLDATALOAD SWAP1 POP PUSH2 0x1DA4 DUP2 PUSH2 0x1D7E JUMP JUMPDEST SWAP3 SWAP2 POP POP JUMP JUMPDEST PUSH1 0x0 PUSH1 0x20 DUP3 DUP5 SUB SLT ISZERO PUSH2 0x1DC0 JUMPI PUSH2 0x1DBF PUSH2 0x1D6A JUMP JUMPDEST JUMPDEST PUSH1 0x0 PUSH2 0x1DCE DUP5 DUP3 DUP6 ADD PUSH2 0x1D95 JUMP JUMPDEST SWAP2 POP POP SWAP3 SWAP2 POP POP JUMP JUMPDEST PUSH1 0x0 DUP2 MLOAD SWAP1 POP SWAP2 SWAP1 POP JUMP JUMPDEST PUSH1 0x0 DUP3 DUP3 MSTORE PUSH1 0x20 DUP3 ADD SWAP1 POP SWAP3 SWAP2 POP POP JUMP JUMPDEST PUSH1 0x0 JUMPDEST DUP4 DUP2 LT ISZERO PUSH2 0x1E11 JUMPI DUP1 DUP3 ADD MLOAD DUP2 DUP5 ADD MSTORE PUSH1 0x20 DUP2 ADD SWAP1 POP PUSH2 0x1DF6 JUMP JUMPDEST DUP4 DUP2 GT ISZERO PUSH2 0x1E20 JUMPI PUSH1 0x0 DUP5 DUP5 ADD MSTORE JUMPDEST POP POP POP POP JUMP JUMPDEST PUSH1 0x0 PUSH1 0x1F NOT PUSH1 0x1F DUP4 ADD AND SWAP1 POP SWAP2 SWAP1 POP JUMP JUMPDEST PUSH1 0x0 PUSH2 0x1E42 DUP3 PUSH2 0x1DD7 JUMP JUMPDEST PUSH2 0x1E4C DUP2 DUP6 PUSH2 0x1DE2 JUMP JUMPDEST SWAP4 POP PUSH2 0x1E5C DUP2 DUP6 PUSH1 0x20 DUP7 ADD PUSH2 0x1DF3 JUMP JUMPDEST PUSH2 0x1E65 DUP2 PUSH2 0x1E26 JUMP JUMPDEST DUP5 ADD SWAP2 POP POP SWAP3 SWAP2 POP POP JUMP JUMPDEST PUSH1 0x0 PUSH1 0x20 DUP3 ADD SWAP1 POP DUP2 DUP2 SUB PUSH1 0x0 DUP4 ADD MSTORE PUSH2 0x1E8A DUP2 DUP5 PUSH2 0x1E37 JUMP JUMPDEST SWAP1 POP SWAP3 SWAP2 POP POP JUMP JUMPDEST PUSH1 0x0 PUSH20 0xFFFFFFFFFFFFFFFFFFFFFFFFFFFFFFFFFFFFFFFF DUP3 AND SWAP1 POP SWAP2 SWAP1 POP JUMP JUMPDEST PUSH1 0x0 PUSH2 0x1EBD DUP3 PUSH2 0x1E92 JUMP JUMPDEST SWAP1 POP SWAP2 SWAP1 POP JUMP JUMPDEST PUSH2 0x1ECD DUP2 PUSH2 0x1EB2 JUMP JUMPDEST DUP3 MSTORE POP POP JUMP JUMPDEST PUSH1 0x0 DUP2 ISZERO ISZERO SWAP1 POP SWAP2 SWAP1 POP JUMP JUMPDEST PUSH2 0x1EE8 DUP2 PUSH2 0x1ED3 JUMP JUMPDEST DUP3 MSTORE POP POP JUMP JUMPDEST PUSH2 0x1EF7 DUP2 PUSH2 0x1D74 JUMP JUMPDEST DUP3 MSTORE POP POP JUMP JUMPDEST PUSH1 0x0 PUSH2 0x180 DUP3 ADD SWAP1 POP DUP2 DUP2 SUB PUSH1 0x0 DUP4 ADD MSTORE PUSH2 0x1F18 DUP2 DUP16 PUSH2 0x1E37 JUMP JUMPDEST SWAP1 POP DUP2 DUP2 SUB PUSH1 0x20 DUP4 ADD MSTORE PUSH2 0x1F2C DUP2 DUP15 PUSH2 0x1E37 JUMP JUMPDEST SWAP1 POP DUP2 DUP2 SUB PUSH1 0x40 DUP4 ADD MSTORE PUSH2 0x1F40 DUP2 DUP14 PUSH2 0x1E37 JUMP JUMPDEST SWAP1 POP DUP2 DUP2 SUB PUSH1 0x60 DUP4 ADD MSTORE PUSH2 0x1F54 DUP2 DUP13 PUSH2 0x1E37 JUMP JUMPDEST SWAP1 POP DUP2 DUP2 SUB PUSH1 0x80 DUP4 ADD MSTORE PUSH2 0x1F68 DUP2 DUP12 PUSH2 0x1E37 JUMP JUMPDEST SWAP1 POP PUSH2 0x1F77 PUSH1 0xA0 DUP4 ADD DUP11 PUSH2 0x1EC4 JUMP JUMPDEST PUSH2 0x1F84 PUSH1 0xC0 DUP4 ADD DUP10 PUSH2 0x1EDF JUMP JUMPDEST PUSH2 0x1F91 PUSH1 0xE0 DUP4 ADD DUP9 PUSH2 0x1EEE JUMP JUMPDEST PUSH2 0x1F9F PUSH2 0x100 DUP4 ADD DUP8 PUSH2 0x1EEE JUMP JUMPDEST PUSH2 0x1FAD PUSH2 0x120 DUP4 ADD DUP7 PUSH2 0x1EEE JUMP JUMPDEST PUSH2 0x1FBB PUSH2 0x140 DUP4 ADD DUP6 PUSH2 0x1EDF JUMP JUMPDEST PUSH2 0x1FC9 PUSH2 0x160 DUP4 ADD DUP5 PUSH2 0x1EDF JUMP JUMPDEST SWAP14 SWAP13 POP POP POP POP POP POP POP POP POP POP POP POP POP JUMP JUMPDEST PUSH1 0x0 PUSH1 0x20 DUP3 ADD SWAP1 POP PUSH2 0x1FEF PUSH1 0x0 DUP4 ADD DUP5 PUSH2 0x1EDF JUMP JUMPDEST SWAP3 SWAP2 POP POP JUMP JUMPDEST PUSH1 0x0 DUP1 REVERT JUMPDEST PUSH1 0x0 DUP1 REVERT JUMPDEST PUSH32 0x4E487B7100000000000000000000000000000000000000000000000000000000 PUSH1 0x0 MSTORE PUSH1 0x41 PUSH1 0x4 MSTORE PUSH1 0x24 PUSH1 0x0 REVERT JUMPDEST PUSH2 0x2037 DUP3 PUSH2 0x1E26 JUMP JUMPDEST DUP2 ADD DUP2 DUP2 LT PUSH8 0xFFFFFFFFFFFFFFFF DUP3 GT OR ISZERO PUSH2 0x2056 JUMPI PUSH2 0x2055 PUSH2 0x1FFF JUMP JUMPDEST JUMPDEST DUP1 PUSH1 0x40 MSTORE POP POP POP JUMP JUMPDEST PUSH1 0x0 PUSH2 0x2069 PUSH2 0x1D60 JUMP JUMPDEST SWAP1 POP PUSH2 0x2075 DUP3 DUP3 PUSH2 0x202E JUMP JUMPDEST SWAP2 SWAP1 POP JUMP JUMPDEST PUSH1 0x0 PUSH8 0xFFFFFFFFFFFFFFFF DUP3 GT ISZERO PUSH2 0x2095 JUMPI PUSH2 0x2094 PUSH2 0x1FFF JUMP JUMPDEST JUMPDEST PUSH2 0x209E DUP3 PUSH2 0x1E26 JUMP JUMPDEST SWAP1 POP PUSH1 0x20 DUP2 ADD SWAP1 POP SWAP2 SWAP1 POP JUMP JUMPDEST DUP3 DUP2 DUP4 CALLDATACOPY PUSH1 0x0 DUP4 DUP4 ADD MSTORE POP POP POP JUMP JUMPDEST PUSH1 0x0 PUSH2 0x20CD PUSH2 0x20C8 DUP5 PUSH2 0x207A JUMP JUMPDEST PUSH2 0x205F JUMP JUMPDEST SWAP1 POP DUP3 DUP2 MSTORE PUSH1 0x20 DUP2 ADD DUP5 DUP5 DUP5 ADD GT ISZERO PUSH2 0x20E9 JUMPI PUSH2 0x20E8 PUSH2 0x1FFA JUMP JUMPDEST JUMPDEST PUSH2 0x20F4 DUP5 DUP3 DUP6 PUSH2 0x20AB JUMP JUMPDEST POP SWAP4 SWAP3 POP POP POP JUMP JUMPDEST PUSH1 0x0 DUP3 PUSH1 0x1F DUP4 ADD SLT PUSH2 0x2111 JUMPI PUSH2 0x2110 PUSH2 0x1FF5 JUMP JUMPDEST JUMPDEST DUP2 CALLDATALOAD PUSH2 0x2121 DUP5 DUP3 PUSH1 0x20 DUP7 ADD PUSH2 0x20BA JUMP JUMPDEST SWAP2 POP POP SWAP3 SWAP2 POP POP JUMP JUMPDEST PUSH2 0x2133 DUP2 PUSH2 0x1EB2 JUMP JUMPDEST DUP2 EQ PUSH2 0x213E JUMPI PUSH1 0x0 DUP1 REVERT JUMPDEST POP JUMP JUMPDEST PUSH1 0x0 DUP2 CALLDATALOAD SWAP1 POP PUSH2 0x2150 DUP2 PUSH2 0x212A JUMP JUMPDEST SWAP3 SWAP2 POP POP JUMP JUMPDEST PUSH1 0x0 DUP1 PUSH1 0x0 DUP1 PUSH1 0x0 DUP1 PUSH1 0x0 PUSH1 0xE0 DUP9 DUP11 SUB SLT ISZERO PUSH2 0x2175 JUMPI PUSH2 0x2174 PUSH2 0x1D6A JUMP JUMPDEST JUMPDEST PUSH1 0x0 DUP9 ADD CALLDATALOAD PUSH8 0xFFFFFFFFFFFFFFFF DUP2 GT ISZERO PUSH2 0x2193 JUMPI PUSH2 0x2192 PUSH2 0x1D6F JUMP JUMPDEST JUMPDEST PUSH2 0x219F DUP11 DUP3 DUP12 ADD PUSH2 0x20FC JUMP JUMPDEST SWAP8 POP POP PUSH1 0x20 DUP9 ADD CALLDATALOAD PUSH8 0xFFFFFFFFFFFFFFFF DUP2 GT ISZERO PUSH2 0x21C0 JUMPI PUSH2 0x21BF PUSH2 0x1D6F JUMP JUMPDEST JUMPDEST PUSH2 0x21CC DUP11 DUP3 DUP12 ADD PUSH2 0x20FC JUMP JUMPDEST SWAP7 POP POP PUSH1 0x40 DUP9 ADD CALLDATALOAD PUSH8 0xFFFFFFFFFFFFFFFF DUP2 GT ISZERO PUSH2 0x21ED JUMPI PUSH2 0x21EC PUSH2 0x1D6F JUMP JUMPDEST JUMPDEST PUSH2 0x21F9 DUP11 DUP3 DUP12 ADD PUSH2 0x20FC JUMP JUMPDEST SWAP6 POP POP PUSH1 0x60 DUP9 ADD CALLDATALOAD PUSH8 0xFFFFFFFFFFFFFFFF DUP2 GT ISZERO PUSH2 0x221A JUMPI PUSH2 0x2219 PUSH2 0x1D6F JUMP JUMPDEST JUMPDEST PUSH2 0x2226 DUP11 DUP3 DUP12 ADD PUSH2 0x20FC JUMP JUMPDEST SWAP5 POP POP PUSH1 0x80 DUP9 ADD CALLDATALOAD PUSH8 0xFFFFFFFFFFFFFFFF DUP2 GT ISZERO PUSH2 0x2247 JUMPI PUSH2 0x2246 PUSH2 0x1D6F JUMP JUMPDEST JUMPDEST PUSH2 0x2253 DUP11 DUP3 DUP12 ADD PUSH2 0x20FC JUMP JUMPDEST SWAP4 POP POP PUSH1 0xA0 PUSH2 0x2264 DUP11 DUP3 DUP12 ADD PUSH2 0x2141 JUMP JUMPDEST SWAP3 POP POP PUSH1 0xC0 PUSH2 0x2275 DUP11 DUP3 DUP12 ADD PUSH2 0x1D95 JUMP JUMPDEST SWAP2 POP POP SWAP3 SWAP6 SWAP9 SWAP2 SWAP5 SWAP8 POP SWAP3 SWAP6 POP JUMP JUMPDEST PUSH1 0x0 PUSH1 0x20 DUP3 ADD SWAP1 POP PUSH2 0x2299 PUSH1 0x0 DUP4 ADD DUP5 PUSH2 0x1EEE JUMP JUMPDEST SWAP3 SWAP2 POP POP JUMP JUMPDEST PUSH1 0x0 PUSH2 0x22AA DUP3 PUSH2 0x1E92 JUMP JUMPDEST SWAP1 POP SWAP2 SWAP1 POP JUMP JUMPDEST PUSH2 0x22BA DUP2 PUSH2 0x229F JUMP JUMPDEST DUP2 EQ PUSH2 0x22C5 JUMPI PUSH1 0x0 DUP1 REVERT JUMPDEST POP JUMP JUMPDEST PUSH1 0x0 DUP2 CALLDATALOAD SWAP1 POP PUSH2 0x22D7 DUP2 PUSH2 0x22B1 JUMP JUMPDEST SWAP3 SWAP2 POP POP JUMP JUMPDEST PUSH1 0x0 PUSH1 0x20 DUP3 DUP5 SUB SLT ISZERO PUSH2 0x22F3 JUMPI PUSH2 0x22F2 PUSH2 0x1D6A JUMP JUMPDEST JUMPDEST PUSH1 0x0 PUSH2 0x2301 DUP5 DUP3 DUP6 ADD PUSH2 0x22C8 JUMP JUMPDEST SWAP2 POP POP SWAP3 SWAP2 POP POP JUMP JUMPDEST PUSH2 0x2313 DUP2 PUSH2 0x229F JUMP JUMPDEST DUP3 MSTORE POP POP JUMP JUMPDEST PUSH1 0x0 PUSH1 0x20 DUP3 ADD SWAP1 POP PUSH2 0x232E PUSH1 0x0 DUP4 ADD DUP5 PUSH2 0x230A JUMP JUMPDEST SWAP3 SWAP2 POP POP JUMP JUMPDEST PUSH2 0x233D DUP2 PUSH2 0x1ED3 JUMP JUMPDEST DUP2 EQ PUSH2 0x2348 JUMPI PUSH1 0x0 DUP1 REVERT JUMPDEST POP JUMP JUMPDEST PUSH1 0x0 DUP2 MLOAD SWAP1 POP PUSH2 0x235A DUP2 PUSH2 0x2334 JUMP JUMPDEST SWAP3 SWAP2 POP POP JUMP JUMPDEST PUSH1 0x0 PUSH1 0x20 DUP3 DUP5 SUB SLT ISZERO PUSH2 0x2376 JUMPI PUSH2 0x2375 PUSH2 0x1D6A JUMP JUMPDEST JUMPDEST PUSH1 0x0 PUSH2 0x2384 DUP5 DUP3 DUP6 ADD PUSH2 0x234B JUMP JUMPDEST SWAP2 POP POP SWAP3 SWAP2 POP POP JUMP JUMPDEST PUSH32 0x4E487B7100000000000000000000000000000000000000000000000000000000 PUSH1 0x0 MSTORE PUSH1 0x11 PUSH1 0x4 MSTORE PUSH1 0x24 PUSH1 0x0 REVERT JUMPDEST PUSH1 0x0 PUSH2 0x23C7 DUP3 PUSH2 0x1D74 JUMP JUMPDEST SWAP2 POP PUSH32 0xFFFFFFFFFFFFFFFFFFFFFFFFFFFFFFFFFFFFFFFFFFFFFFFFFFFFFFFFFFFFFFFF DUP3 EQ ISZERO PUSH2 0x23FA JUMPI PUSH2 0x23F9 PUSH2 0x238D JUMP JUMPDEST JUMPDEST PUSH1 0x1 DUP3 ADD SWAP1 POP SWAP2 SWAP1 POP JUMP JUMPDEST PUSH1 0x0 DUP2 MLOAD SWAP1 POP PUSH2 0x2414 DUP2 PUSH2 0x1D7E JUMP JUMPDEST SWAP3 SWAP2 POP POP JUMP JUMPDEST PUSH1 0x0 PUSH1 0x20 DUP3 DUP5 SUB SLT ISZERO PUSH2 0x2430 JUMPI PUSH2 0x242F PUSH2 0x1D6A JUMP JUMPDEST JUMPDEST PUSH1 0x0 PUSH2 0x243E DUP5 DUP3 DUP6 ADD PUSH2 0x2405 JUMP JUMPDEST SWAP2 POP POP SWAP3 SWAP2 POP POP JUMP JUMPDEST PUSH32 0x4E487B7100000000000000000000000000000000000000000000000000000000 PUSH1 0x0 MSTORE PUSH1 0x12 PUSH1 0x4 MSTORE PUSH1 0x24 PUSH1 0x0 REVERT JUMPDEST PUSH1 0x0 PUSH2 0x2481 DUP3 PUSH2 0x1D74 JUMP JUMPDEST SWAP2 POP PUSH2 0x248C DUP4 PUSH2 0x1D74 JUMP JUMPDEST SWAP3 POP DUP3 PUSH2 0x249C JUMPI PUSH2 0x249B PUSH2 0x2447 JUMP JUMPDEST JUMPDEST DUP3 DUP3 DIV SWAP1 POP SWAP3 SWAP2 POP POP JUMP JUMPDEST PUSH32 0x4E487B7100000000000000000000000000000000000000000000000000000000 PUSH1 0x0 MSTORE PUSH1 0x22 PUSH1 0x4 MSTORE PUSH1 0x24 PUSH1 0x0 REVERT JUMPDEST PUSH1 0x0 PUSH1 0x2 DUP3 DIV SWAP1 POP PUSH1 0x1 DUP3 AND DUP1 PUSH2 0x24EE JUMPI PUSH1 0x7F DUP3 AND SWAP2 POP JUMPDEST PUSH1 0x20 DUP3 LT DUP2 EQ ISZERO PUSH2 0x2502 JUMPI PUSH2 0x2501 PUSH2 0x24A7 JUMP JUMPDEST JUMPDEST POP SWAP2 SWAP1 POP JUMP JUMPDEST PUSH1 0x0 PUSH1 0x40 DUP3 ADD SWAP1 POP PUSH2 0x251D PUSH1 0x0 DUP4 ADD DUP6 PUSH2 0x1EC4 JUMP JUMPDEST PUSH2 0x252A PUSH1 0x20 DUP4 ADD DUP5 PUSH2 0x1EEE JUMP JUMPDEST SWAP4 SWAP3 POP POP POP JUMP INVALID LOG2 PUSH5 0x6970667358 0x22 SLT KECCAK256 0xCB 0xF8 MULMOD 0xA6 PUSH1 0x9E JUMPDEST 0xEC DUP15 0xF7 0xAC DUP4 0xB1 0xAD 0xE5 SWAP11 0xC5 KECCAK256 PUSH13 0x3E5240FAD36E803350EE166A66 PUSH5 0x736F6C6343 STOP ADDMOD MULMOD STOP CALLER "},"gasEstimates":{"creation":{"codeDepositCost":"1915000","executionCost":"infinite","totalCost":"infinite"},"external":{"approveCampaign(uint256)":"infinite","approveCount()":"2496","approveUser()":"infinite","approvedMembers(address)":"2956","campaigns(uint256)":"infinite","createCampaign(string,string,string,string,string,address,uint256)":"infinite","description()":"infinite","email()":"infinite","finalizeTransaction(uint256)":"infinite","isApproved()":"2494","isRejected()":"2610","locationAddress()":"infinite","name()":"infinite","numCampaign()":"2540","phone()":"infinite","rejectCampaign(uint256)":"infinite","rejectCount()":"2539","rejectUser()":"infinite","rejectedMembers(address)":"2867","userAddress()":"2558"}},"methodIdentifiers":{"approveCampaign(uint256)":"ee4e1b53","approveCount()":"9fe7717d","approveUser()":"f04693d4","approvedMembers(address)":"c9031934","campaigns(uint256)":"141961bc","createCampaign(string,string,string,string,string,address,uint256)":"6c39bda3","description()":"7284e416","email()":"820e93f5","finalizeTransaction(uint256)":"4a57e1c9","isApproved()":"28f371aa","isRejected()":"c2c706b0","locationAddress()":"17bbb931","name()":"06fdde03","numCampaign()":"8129dfc9","phone()":"9284f497","rejectCampaign(uint256)":"034d09da","rejectCount()":"fb6ff96e","rejectUser()":"28d0c494","rejectedMembers(address)":"d6e3ee6b","userAddress()":"e4128fb3"}},"storageLayout":{"storage":[{"astId":231,"contract":"CharityDAO.sol:User","label":"name","offset":0,"slot":"0","type":"t_string_storage"},{"astId":233,"contract":"CharityDAO.sol:User","label":"description","offset":0,"slot":"1","type":"t_string_storage"},{"astId":235,"contract":"CharityDAO.sol:User","label":"userAddress","offset":0,"slot":"2","type":"t_address"},{"astId":237,"contract":"CharityDAO.sol:User","label":"phone","offset":0,"slot":"3","type":"t_string_storage"},{"astId":239,"contract":"CharityDAO.sol:User","label":"email","offset":0,"slot":"4","type":"t_string_storage"},{"astId":241,"contract":"CharityDAO.sol:User","label":"locationAddress","offset":0,"slot":"5","type":"t_string_storage"},{"astId":243,"contract":"CharityDAO.sol:User","label":"approveCount","offset":0,"slot":"6","type":"t_uint256"},{"astId":245,"contract":"CharityDAO.sol:User","label":"rejectCount","offset":0,"slot":"7","type":"t_uint256"},{"astId":247,"contract":"CharityDAO.sol:User","label":"isApproved","offset":0,"slot":"8","type":"t_bool"},{"astId":249,"contract":"CharityDAO.sol:User","label":"isRejected","offset":1,"slot":"8","type":"t_bool"},{"astId":253,"contract":"CharityDAO.sol:User","label":"approvedMembers","offset":0,"slot":"9","type":"t_mapping(t_address,t_bool)"},{"astId":257,"contract":"CharityDAO.sol:User","label":"rejectedMembers","offset":0,"slot":"10","type":"t_mapping(t_address,t_bool)"},{"astId":259,"contract":"CharityDAO.sol:User","label":"DAOAddress","offset":0,"slot":"11","type":"t_address"},{"astId":294,"contract":"CharityDAO.sol:User","label":"numCampaign","offset":0,"slot":"12","type":"t_uint256"},{"astId":299,"contract":"CharityDAO.sol:User","label":"campaigns","offset":0,"slot":"13","type":"t_mapping(t_uint256,t_struct(Campaign)292_storage)"}],"types":{"t_address":{"encoding":"inplace","label":"address","numberOfBytes":"20"},"t_address_payable":{"encoding":"inplace","label":"address payable","numberOfBytes":"20"},"t_bool":{"encoding":"inplace","label":"bool","numberOfBytes":"1"},"t_mapping(t_address,t_bool)":{"encoding":"mapping","key":"t_address","label":"mapping(address => bool)","numberOfBytes":"32","value":"t_bool"},"t_mapping(t_uint256,t_struct(Campaign)292_storage)":{"encoding":"mapping","key":"t_uint256","label":"mapping(uint256 => struct User.Campaign)","numberOfBytes":"32","value":"t_struct(Campaign)292_storage"},"t_string_storage":{"encoding":"bytes","label":"string","numberOfBytes":"32"},"t_struct(Campaign)292_storage":{"encoding":"inplace","label":"struct User.Campaign","members":[{"astId":261,"contract":"CharityDAO.sol:User","label":"title","offset":0,"slot":"0","type":"t_string_storage"},{"astId":263,"contract":"CharityDAO.sol:User","label":"description","offset":0,"slot":"1","type":"t_string_storage"},{"astId":265,"contract":"CharityDAO.sol:User","label":"recipientName","offset":0,"slot":"2","type":"t_string_storage"},{"astId":267,"contract":"CharityDAO.sol:User","label":"recipientPhone","offset":0,"slot":"3","type":"t_string_storage"},{"astId":269,"contract":"CharityDAO.sol:User","label":"recipientEmail","offset":0,"slot":"4","type":"t_string_storage"},{"astId":271,"contract":"CharityDAO.sol:User","label":"recipient","offset":0,"slot":"5","type":"t_address_payable"},{"astId":273,"contract":"CharityDAO.sol:User","label":"transactionComplete","offset":20,"slot":"5","type":"t_bool"},{"astId":275,"contract":"CharityDAO.sol:User","label":"value","offset":0,"slot":"6","type":"t_uint256"},{"astId":277,"contract":"CharityDAO.sol:User","label":"approveCount","offset":0,"slot":"7","type":"t_uint256"},{"astId":279,"contract":"CharityDAO.sol:User","label":"rejectCount","offset":0,"slot":"8","type":"t_uint256"},{"astId":281,"contract":"CharityDAO.sol:User","label":"isApproved","offset":0,"slot":"9","type":"t_bool"},{"astId":283,"contract":"CharityDAO.sol:User","label":"isRejected","offset":1,"slot":"9","type":"t_bool"},{"astId":287,"contract":"CharityDAO.sol:User","label":"campaignApprovedMembers","offset":0,"slot":"10","type":"t_mapping(t_address,t_bool)"},{"astId":291,"contract":"CharityDAO.sol:User","label":"campaignRejectedMembers","offset":0,"slot":"11","type":"t_mapping(t_address,t_bool)"}],"numberOfBytes":"384"},"t_uint256":{"encoding":"inplace","label":"uint256","numberOfBytes":"32"}}},"userdoc":{"kind":"user","methods":{},"version":1}}